{
	"contract/assignment2.sol": {
		"Monkey": {
			"abi": [
				{
					"inputs": [],
					"name": "Sound",
					"outputs": [
						{
							"internalType": "string",
							"name": "",
							"type": "string"
						}
					],
					"stateMutability": "pure",
					"type": "function"
				},
				{
					"inputs": [],
					"name": "feeding",
					"outputs": [
						{
							"internalType": "string",
							"name": "",
							"type": "string"
						}
					],
					"stateMutability": "pure",
					"type": "function"
				},
				{
					"inputs": [],
					"name": "fifthLimb",
					"outputs": [
						{
							"internalType": "string",
							"name": "",
							"type": "string"
						}
					],
					"stateMutability": "pure",
					"type": "function"
				},
				{
					"inputs": [],
					"name": "hairy",
					"outputs": [
						{
							"internalType": "string",
							"name": "",
							"type": "string"
						}
					],
					"stateMutability": "pure",
					"type": "function"
				},
				{
					"inputs": [],
					"name": "movement",
					"outputs": [
						{
							"internalType": "string",
							"name": "",
							"type": "string"
						}
					],
					"stateMutability": "pure",
					"type": "function"
				},
				{
					"inputs": [],
					"name": "reproduction",
					"outputs": [
						{
							"internalType": "string",
							"name": "",
							"type": "string"
						}
					],
					"stateMutability": "pure",
					"type": "function"
				},
				{
					"inputs": [],
					"name": "warmBlodded",
					"outputs": [
						{
							"internalType": "string",
							"name": "",
							"type": "string"
						}
					],
					"stateMutability": "pure",
					"type": "function"
				}
			],
			"devdoc": {
				"kind": "dev",
				"methods": {},
				"version": 1
			},
			"evm": {
				"assembly": "    /* \"contract/assignment2.sol\":964:1380  contract Monkey is Mammal{\r... */\n  mstore(0x40, 0x80)\n  callvalue\n  dup1\n  iszero\n  tag_1\n  jumpi\n  0x00\n  dup1\n  revert\ntag_1:\n  pop\n  dataSize(sub_0)\n  dup1\n  dataOffset(sub_0)\n  0x00\n  codecopy\n  0x00\n  return\nstop\n\nsub_0: assembly {\n        /* \"contract/assignment2.sol\":964:1380  contract Monkey is Mammal{\r... */\n      mstore(0x40, 0x80)\n      callvalue\n      dup1\n      iszero\n      tag_1\n      jumpi\n      0x00\n      dup1\n      revert\n    tag_1:\n      pop\n      jumpi(tag_2, lt(calldatasize, 0x04))\n      shr(0xe0, calldataload(0x00))\n      dup1\n      0xa3f29856\n      gt\n      tag_10\n      jumpi\n      dup1\n      0xa3f29856\n      eq\n      tag_6\n      jumpi\n      dup1\n      0xa95c9e8b\n      eq\n      tag_7\n      jumpi\n      dup1\n      0xe3bb1e3f\n      eq\n      tag_8\n      jumpi\n      dup1\n      0xf24d686c\n      eq\n      tag_9\n      jumpi\n      jump(tag_2)\n    tag_10:\n      dup1\n      0x25536213\n      eq\n      tag_3\n      jumpi\n      dup1\n      0x80f1c859\n      eq\n      tag_4\n      jumpi\n      dup1\n      0x9c1f15e1\n      eq\n      tag_5\n      jumpi\n    tag_2:\n      0x00\n      dup1\n      revert\n        /* \"contract/assignment2.sol\":469:611  function feeding () external pure returns(string memory){\r... */\n    tag_3:\n      tag_11\n      tag_12\n      jump\t// in\n    tag_11:\n      mload(0x40)\n      tag_13\n      swap2\n      swap1\n      tag_14\n      jump\t// in\n    tag_13:\n      mload(0x40)\n      dup1\n      swap2\n      sub\n      swap1\n      return\n        /* \"contract/assignment2.sol\":203:325  function hairy () external pure returns (string memory){\r... */\n    tag_4:\n      tag_15\n      tag_16\n      jump\t// in\n    tag_15:\n      mload(0x40)\n      tag_17\n      swap2\n      swap1\n      tag_14\n      jump\t// in\n    tag_17:\n      mload(0x40)\n      dup1\n      swap2\n      sub\n      swap1\n      return\n        /* \"contract/assignment2.sol\":998:1088  function Sound () external pure returns(string memory){\r... */\n    tag_5:\n      tag_18\n      tag_19\n      jump\t// in\n    tag_18:\n      mload(0x40)\n      tag_20\n      swap2\n      swap1\n      tag_14\n      jump\t// in\n    tag_20:\n      mload(0x40)\n      dup1\n      swap2\n      sub\n      swap1\n      return\n        /* \"contract/assignment2.sol\":1225:1377  function fifthLimb () external pure returns(string memory){\r... */\n    tag_6:\n      tag_21\n      tag_22\n      jump\t// in\n    tag_21:\n      mload(0x40)\n      tag_23\n      swap2\n      swap1\n      tag_14\n      jump\t// in\n    tag_23:\n      mload(0x40)\n      dup1\n      swap2\n      sub\n      swap1\n      return\n        /* \"contract/assignment2.sol\":85:195  function warmBlodded () external pure returns(string memory) {\r... */\n    tag_7:\n      tag_24\n      tag_25\n      jump\t// in\n    tag_24:\n      mload(0x40)\n      tag_26\n      swap2\n      swap1\n      tag_14\n      jump\t// in\n    tag_26:\n      mload(0x40)\n      dup1\n      swap2\n      sub\n      swap1\n      return\n        /* \"contract/assignment2.sol\":333:461  function reproduction () external pure returns(string memory){\r... */\n    tag_8:\n      tag_27\n      tag_28\n      jump\t// in\n    tag_27:\n      mload(0x40)\n      tag_29\n      swap2\n      swap1\n      tag_14\n      jump\t// in\n    tag_29:\n      mload(0x40)\n      dup1\n      swap2\n      sub\n      swap1\n      return\n        /* \"contract/assignment2.sol\":1096:1217  function movement () external pure returns(string memory){\r... */\n    tag_9:\n      tag_30\n      tag_31\n      jump\t// in\n    tag_30:\n      mload(0x40)\n      tag_32\n      swap2\n      swap1\n      tag_14\n      jump\t// in\n    tag_32:\n      mload(0x40)\n      dup1\n      swap2\n      sub\n      swap1\n      return\n        /* \"contract/assignment2.sol\":469:611  function feeding () external pure returns(string memory){\r... */\n    tag_12:\n        /* \"contract/assignment2.sol\":511:524  string memory */\n      0x60\n        /* \"contract/assignment2.sol\":538:603  return \"after birth the mother feed the young are feed with milk\" */\n      mload(0x40)\n      dup1\n      0x60\n      add\n      0x40\n      mstore\n      dup1\n      0x38\n      dup2\n      mstore\n      0x20\n      add\n      data_81e48146b6848009c5c5db0e6cfb731d18f9523a8fa5930d1de6e7003f7fb991\n      0x38\n      swap2\n      codecopy\n      swap1\n      pop\n        /* \"contract/assignment2.sol\":469:611  function feeding () external pure returns(string memory){\r... */\n      swap1\n      jump\t// out\n        /* \"contract/assignment2.sol\":203:325  function hairy () external pure returns (string memory){\r... */\n    tag_16:\n        /* \"contract/assignment2.sol\":244:257  string memory */\n      0x60\n        /* \"contract/assignment2.sol\":271:317  return \"they have hairs or furs on their body\" */\n      mload(0x40)\n      dup1\n      0x60\n      add\n      0x40\n      mstore\n      dup1\n      0x25\n      dup2\n      mstore\n      0x20\n      add\n      data_ab29952904f42172ec5ff68f52dfc45923a94a67b17104b3670f26254910140a\n      0x25\n      swap2\n      codecopy\n      swap1\n      pop\n        /* \"contract/assignment2.sol\":203:325  function hairy () external pure returns (string memory){\r... */\n      swap1\n      jump\t// out\n        /* \"contract/assignment2.sol\":998:1088  function Sound () external pure returns(string memory){\r... */\n    tag_19:\n        /* \"contract/assignment2.sol\":1038:1051  string memory */\n      0x60\n        /* \"contract/assignment2.sol\":1065:1080  return \"Scream\" */\n      mload(0x40)\n      dup1\n      0x40\n      add\n      0x40\n      mstore\n      dup1\n      0x06\n      dup2\n      mstore\n      0x20\n      add\n      0x53637265616d0000000000000000000000000000000000000000000000000000\n      dup2\n      mstore\n      pop\n      swap1\n      pop\n        /* \"contract/assignment2.sol\":998:1088  function Sound () external pure returns(string memory){\r... */\n      swap1\n      jump\t// out\n        /* \"contract/assignment2.sol\":1225:1377  function fifthLimb () external pure returns(string memory){\r... */\n    tag_22:\n        /* \"contract/assignment2.sol\":1269:1282  string memory */\n      0x60\n        /* \"contract/assignment2.sol\":1296:1369  return \"tip of tail has patch of skin like fingerprint for improved grip\" */\n      mload(0x40)\n      dup1\n      0x60\n      add\n      0x40\n      mstore\n      dup1\n      0x40\n      dup2\n      mstore\n      0x20\n      add\n      data_a8251107c729c8cc1e9c24a8cacc89801117a3d8597fb49715bc175ea938f8b9\n      0x40\n      swap2\n      codecopy\n      swap1\n      pop\n        /* \"contract/assignment2.sol\":1225:1377  function fifthLimb () external pure returns(string memory){\r... */\n      swap1\n      jump\t// out\n        /* \"contract/assignment2.sol\":85:195  function warmBlodded () external pure returns(string memory) {\r... */\n    tag_25:\n        /* \"contract/assignment2.sol\":131:144  string memory */\n      0x60\n        /* \"contract/assignment2.sol\":159:187  return \"always warm blodded\" */\n      mload(0x40)\n      dup1\n      0x40\n      add\n      0x40\n      mstore\n      dup1\n      0x13\n      dup2\n      mstore\n      0x20\n      add\n      0x616c77617973207761726d20626c6f6464656400000000000000000000000000\n      dup2\n      mstore\n      pop\n      swap1\n      pop\n        /* \"contract/assignment2.sol\":85:195  function warmBlodded () external pure returns(string memory) {\r... */\n      swap1\n      jump\t// out\n        /* \"contract/assignment2.sol\":333:461  function reproduction () external pure returns(string memory){\r... */\n    tag_28:\n        /* \"contract/assignment2.sol\":380:393  string memory */\n      0x60\n        /* \"contract/assignment2.sol\":407:453  return \"the young are born alive, not hatched\" */\n      mload(0x40)\n      dup1\n      0x60\n      add\n      0x40\n      mstore\n      dup1\n      0x25\n      dup2\n      mstore\n      0x20\n      add\n      data_43556b4ad1205de110247a3ca2d95e8b961bceb1a7165f6ef42b72d7ec10fb2b\n      0x25\n      swap2\n      codecopy\n      swap1\n      pop\n        /* \"contract/assignment2.sol\":333:461  function reproduction () external pure returns(string memory){\r... */\n      swap1\n      jump\t// out\n        /* \"contract/assignment2.sol\":1096:1217  function movement () external pure returns(string memory){\r... */\n    tag_31:\n        /* \"contract/assignment2.sol\":1139:1152  string memory */\n      0x60\n        /* \"contract/assignment2.sol\":1166:1209  return \"climbing and swinging with 4 limbs\" */\n      mload(0x40)\n      dup1\n      0x60\n      add\n      0x40\n      mstore\n      dup1\n      0x22\n      dup2\n      mstore\n      0x20\n      add\n      data_040379a81fc9f0c6c3840cb48d516fe46ce0ce2d4b72029e702406bd955b0da1\n      0x22\n      swap2\n      codecopy\n      swap1\n      pop\n        /* \"contract/assignment2.sol\":1096:1217  function movement () external pure returns(string memory){\r... */\n      swap1\n      jump\t// out\n        /* \"#utility.yul\":7:371   */\n    tag_41:\n      0x00\n        /* \"#utility.yul\":123:162   */\n      tag_43\n        /* \"#utility.yul\":156:161   */\n      dup3\n        /* \"#utility.yul\":123:162   */\n      tag_44\n      jump\t// in\n    tag_43:\n        /* \"#utility.yul\":178:249   */\n      tag_45\n        /* \"#utility.yul\":242:248   */\n      dup2\n        /* \"#utility.yul\":237:240   */\n      dup6\n        /* \"#utility.yul\":178:249   */\n      tag_46\n      jump\t// in\n    tag_45:\n        /* \"#utility.yul\":171:249   */\n      swap4\n      pop\n        /* \"#utility.yul\":258:310   */\n      tag_47\n        /* \"#utility.yul\":303:309   */\n      dup2\n        /* \"#utility.yul\":298:301   */\n      dup6\n        /* \"#utility.yul\":291:295   */\n      0x20\n        /* \"#utility.yul\":284:289   */\n      dup7\n        /* \"#utility.yul\":280:296   */\n      add\n        /* \"#utility.yul\":258:310   */\n      tag_48\n      jump\t// in\n    tag_47:\n        /* \"#utility.yul\":335:364   */\n      tag_49\n        /* \"#utility.yul\":357:363   */\n      dup2\n        /* \"#utility.yul\":335:364   */\n      tag_50\n      jump\t// in\n    tag_49:\n        /* \"#utility.yul\":330:333   */\n      dup5\n        /* \"#utility.yul\":326:365   */\n      add\n        /* \"#utility.yul\":319:365   */\n      swap2\n      pop\n        /* \"#utility.yul\":99:371   */\n      pop\n      swap3\n      swap2\n      pop\n      pop\n      jump\t// out\n        /* \"#utility.yul\":377:690   */\n    tag_14:\n      0x00\n        /* \"#utility.yul\":528:530   */\n      0x20\n        /* \"#utility.yul\":517:526   */\n      dup3\n        /* \"#utility.yul\":513:531   */\n      add\n        /* \"#utility.yul\":505:531   */\n      swap1\n      pop\n        /* \"#utility.yul\":577:586   */\n      dup2\n        /* \"#utility.yul\":571:575   */\n      dup2\n        /* \"#utility.yul\":567:587   */\n      sub\n        /* \"#utility.yul\":563:564   */\n      0x00\n        /* \"#utility.yul\":552:561   */\n      dup4\n        /* \"#utility.yul\":548:565   */\n      add\n        /* \"#utility.yul\":541:588   */\n      mstore\n        /* \"#utility.yul\":605:683   */\n      tag_52\n        /* \"#utility.yul\":678:682   */\n      dup2\n        /* \"#utility.yul\":669:675   */\n      dup5\n        /* \"#utility.yul\":605:683   */\n      tag_41\n      jump\t// in\n    tag_52:\n        /* \"#utility.yul\":597:683   */\n      swap1\n      pop\n        /* \"#utility.yul\":495:690   */\n      swap3\n      swap2\n      pop\n      pop\n      jump\t// out\n        /* \"#utility.yul\":696:795   */\n    tag_44:\n      0x00\n        /* \"#utility.yul\":782:787   */\n      dup2\n        /* \"#utility.yul\":776:788   */\n      mload\n        /* \"#utility.yul\":766:788   */\n      swap1\n      pop\n        /* \"#utility.yul\":755:795   */\n      swap2\n      swap1\n      pop\n      jump\t// out\n        /* \"#utility.yul\":801:970   */\n    tag_46:\n      0x00\n        /* \"#utility.yul\":919:925   */\n      dup3\n        /* \"#utility.yul\":914:917   */\n      dup3\n        /* \"#utility.yul\":907:926   */\n      mstore\n        /* \"#utility.yul\":959:963   */\n      0x20\n        /* \"#utility.yul\":954:957   */\n      dup3\n        /* \"#utility.yul\":950:964   */\n      add\n        /* \"#utility.yul\":935:964   */\n      swap1\n      pop\n        /* \"#utility.yul\":897:970   */\n      swap3\n      swap2\n      pop\n      pop\n      jump\t// out\n        /* \"#utility.yul\":976:1283   */\n    tag_48:\n        /* \"#utility.yul\":1044:1045   */\n      0x00\n        /* \"#utility.yul\":1054:1167   */\n    tag_56:\n        /* \"#utility.yul\":1068:1074   */\n      dup4\n        /* \"#utility.yul\":1065:1066   */\n      dup2\n        /* \"#utility.yul\":1062:1075   */\n      lt\n        /* \"#utility.yul\":1054:1167   */\n      iszero\n      tag_58\n      jumpi\n        /* \"#utility.yul\":1153:1154   */\n      dup1\n        /* \"#utility.yul\":1148:1151   */\n      dup3\n        /* \"#utility.yul\":1144:1155   */\n      add\n        /* \"#utility.yul\":1138:1156   */\n      mload\n        /* \"#utility.yul\":1134:1135   */\n      dup2\n        /* \"#utility.yul\":1129:1132   */\n      dup5\n        /* \"#utility.yul\":1125:1136   */\n      add\n        /* \"#utility.yul\":1118:1157   */\n      mstore\n        /* \"#utility.yul\":1090:1092   */\n      0x20\n        /* \"#utility.yul\":1087:1088   */\n      dup2\n        /* \"#utility.yul\":1083:1093   */\n      add\n        /* \"#utility.yul\":1078:1093   */\n      swap1\n      pop\n        /* \"#utility.yul\":1054:1167   */\n      jump(tag_56)\n    tag_58:\n        /* \"#utility.yul\":1185:1191   */\n      dup4\n        /* \"#utility.yul\":1182:1183   */\n      dup2\n        /* \"#utility.yul\":1179:1192   */\n      gt\n        /* \"#utility.yul\":1176:1178   */\n      iszero\n      tag_59\n      jumpi\n        /* \"#utility.yul\":1265:1266   */\n      0x00\n        /* \"#utility.yul\":1256:1262   */\n      dup5\n        /* \"#utility.yul\":1251:1254   */\n      dup5\n        /* \"#utility.yul\":1247:1263   */\n      add\n        /* \"#utility.yul\":1240:1267   */\n      mstore\n        /* \"#utility.yul\":1176:1178   */\n    tag_59:\n        /* \"#utility.yul\":1025:1283   */\n      pop\n      pop\n      pop\n      pop\n      jump\t// out\n        /* \"#utility.yul\":1289:1391   */\n    tag_50:\n      0x00\n        /* \"#utility.yul\":1381:1383   */\n      0x1f\n        /* \"#utility.yul\":1377:1384   */\n      not\n        /* \"#utility.yul\":1372:1374   */\n      0x1f\n        /* \"#utility.yul\":1365:1370   */\n      dup4\n        /* \"#utility.yul\":1361:1375   */\n      add\n        /* \"#utility.yul\":1357:1385   */\n      and\n        /* \"#utility.yul\":1347:1385   */\n      swap1\n      pop\n        /* \"#utility.yul\":1337:1391   */\n      swap2\n      swap1\n      pop\n      jump\t// out\n    stop\n    data_040379a81fc9f0c6c3840cb48d516fe46ce0ce2d4b72029e702406bd955b0da1 636c696d62696e6720616e64207377696e67696e6720776974682034206c696d6273\n    data_43556b4ad1205de110247a3ca2d95e8b961bceb1a7165f6ef42b72d7ec10fb2b 74686520796f756e672061726520626f726e20616c6976652c206e6f742068617463686564\n    data_81e48146b6848009c5c5db0e6cfb731d18f9523a8fa5930d1de6e7003f7fb991 616674657220626972746820746865206d6f7468657220666565642074686520796f756e672061726520666565642077697468206d696c6b\n    data_a8251107c729c8cc1e9c24a8cacc89801117a3d8597fb49715bc175ea938f8b9 746970206f66207461696c20686173207061746368206f6620736b696e206c696b652066696e6765727072696e7420666f7220696d70726f7665642067726970\n    data_ab29952904f42172ec5ff68f52dfc45923a94a67b17104b3670f26254910140a 746865792068617665206861697273206f722066757273206f6e20746865697220626f6479\n\n    auxdata: 0xa264697066735822122009c7279710f1a105758a1eaabfe1e176b1faf781c26f764a67a0f1a41cb3678364736f6c63430008030033\n}\n",
				"bytecode": {
					"linkReferences": {},
					"object": "608060405234801561001057600080fd5b50610443806100206000396000f3fe608060405234801561001057600080fd5b506004361061007d5760003560e01c8063a3f298561161005b578063a3f29856146100dc578063a95c9e8b146100fa578063e3bb1e3f14610118578063f24d686c146101365761007d565b8063255362131461008257806380f1c859146100a05780639c1f15e1146100be575b600080fd5b61008a610154565b60405161009791906102a7565b60405180910390f35b6100a8610174565b6040516100b591906102a7565b60405180910390f35b6100c6610194565b6040516100d391906102a7565b60405180910390f35b6100e46101d1565b6040516100f191906102a7565b60405180910390f35b6101026101f1565b60405161010f91906102a7565b60405180910390f35b61012061022e565b60405161012d91906102a7565b60405180910390f35b61013e61024e565b60405161014b91906102a7565b60405180910390f35b606060405180606001604052806038815260200161037160389139905090565b60606040518060600160405280602581526020016103e960259139905090565b60606040518060400160405280600681526020017f53637265616d0000000000000000000000000000000000000000000000000000815250905090565b60606040518060600160405280604081526020016103a960409139905090565b60606040518060400160405280601381526020017f616c77617973207761726d20626c6f6464656400000000000000000000000000815250905090565b606060405180606001604052806025815260200161034c60259139905090565b606060405180606001604052806022815260200161032a60229139905090565b6000610279826102c9565b61028381856102d4565b93506102938185602086016102e5565b61029c81610318565b840191505092915050565b600060208201905081810360008301526102c1818461026e565b905092915050565b600081519050919050565b600082825260208201905092915050565b60005b838110156103035780820151818401526020810190506102e8565b83811115610312576000848401525b50505050565b6000601f19601f830116905091905056fe636c696d62696e6720616e64207377696e67696e6720776974682034206c696d627374686520796f756e672061726520626f726e20616c6976652c206e6f742068617463686564616674657220626972746820746865206d6f7468657220666565642074686520796f756e672061726520666565642077697468206d696c6b746970206f66207461696c20686173207061746368206f6620736b696e206c696b652066696e6765727072696e7420666f7220696d70726f7665642067726970746865792068617665206861697273206f722066757273206f6e20746865697220626f6479a264697066735822122009c7279710f1a105758a1eaabfe1e176b1faf781c26f764a67a0f1a41cb3678364736f6c63430008030033",
					"opcodes": "PUSH1 0x80 PUSH1 0x40 MSTORE CALLVALUE DUP1 ISZERO PUSH2 0x10 JUMPI PUSH1 0x0 DUP1 REVERT JUMPDEST POP PUSH2 0x443 DUP1 PUSH2 0x20 PUSH1 0x0 CODECOPY PUSH1 0x0 RETURN INVALID PUSH1 0x80 PUSH1 0x40 MSTORE CALLVALUE DUP1 ISZERO PUSH2 0x10 JUMPI PUSH1 0x0 DUP1 REVERT JUMPDEST POP PUSH1 0x4 CALLDATASIZE LT PUSH2 0x7D JUMPI PUSH1 0x0 CALLDATALOAD PUSH1 0xE0 SHR DUP1 PUSH4 0xA3F29856 GT PUSH2 0x5B JUMPI DUP1 PUSH4 0xA3F29856 EQ PUSH2 0xDC JUMPI DUP1 PUSH4 0xA95C9E8B EQ PUSH2 0xFA JUMPI DUP1 PUSH4 0xE3BB1E3F EQ PUSH2 0x118 JUMPI DUP1 PUSH4 0xF24D686C EQ PUSH2 0x136 JUMPI PUSH2 0x7D JUMP JUMPDEST DUP1 PUSH4 0x25536213 EQ PUSH2 0x82 JUMPI DUP1 PUSH4 0x80F1C859 EQ PUSH2 0xA0 JUMPI DUP1 PUSH4 0x9C1F15E1 EQ PUSH2 0xBE JUMPI JUMPDEST PUSH1 0x0 DUP1 REVERT JUMPDEST PUSH2 0x8A PUSH2 0x154 JUMP JUMPDEST PUSH1 0x40 MLOAD PUSH2 0x97 SWAP2 SWAP1 PUSH2 0x2A7 JUMP JUMPDEST PUSH1 0x40 MLOAD DUP1 SWAP2 SUB SWAP1 RETURN JUMPDEST PUSH2 0xA8 PUSH2 0x174 JUMP JUMPDEST PUSH1 0x40 MLOAD PUSH2 0xB5 SWAP2 SWAP1 PUSH2 0x2A7 JUMP JUMPDEST PUSH1 0x40 MLOAD DUP1 SWAP2 SUB SWAP1 RETURN JUMPDEST PUSH2 0xC6 PUSH2 0x194 JUMP JUMPDEST PUSH1 0x40 MLOAD PUSH2 0xD3 SWAP2 SWAP1 PUSH2 0x2A7 JUMP JUMPDEST PUSH1 0x40 MLOAD DUP1 SWAP2 SUB SWAP1 RETURN JUMPDEST PUSH2 0xE4 PUSH2 0x1D1 JUMP JUMPDEST PUSH1 0x40 MLOAD PUSH2 0xF1 SWAP2 SWAP1 PUSH2 0x2A7 JUMP JUMPDEST PUSH1 0x40 MLOAD DUP1 SWAP2 SUB SWAP1 RETURN JUMPDEST PUSH2 0x102 PUSH2 0x1F1 JUMP JUMPDEST PUSH1 0x40 MLOAD PUSH2 0x10F SWAP2 SWAP1 PUSH2 0x2A7 JUMP JUMPDEST PUSH1 0x40 MLOAD DUP1 SWAP2 SUB SWAP1 RETURN JUMPDEST PUSH2 0x120 PUSH2 0x22E JUMP JUMPDEST PUSH1 0x40 MLOAD PUSH2 0x12D SWAP2 SWAP1 PUSH2 0x2A7 JUMP JUMPDEST PUSH1 0x40 MLOAD DUP1 SWAP2 SUB SWAP1 RETURN JUMPDEST PUSH2 0x13E PUSH2 0x24E JUMP JUMPDEST PUSH1 0x40 MLOAD PUSH2 0x14B SWAP2 SWAP1 PUSH2 0x2A7 JUMP JUMPDEST PUSH1 0x40 MLOAD DUP1 SWAP2 SUB SWAP1 RETURN JUMPDEST PUSH1 0x60 PUSH1 0x40 MLOAD DUP1 PUSH1 0x60 ADD PUSH1 0x40 MSTORE DUP1 PUSH1 0x38 DUP2 MSTORE PUSH1 0x20 ADD PUSH2 0x371 PUSH1 0x38 SWAP2 CODECOPY SWAP1 POP SWAP1 JUMP JUMPDEST PUSH1 0x60 PUSH1 0x40 MLOAD DUP1 PUSH1 0x60 ADD PUSH1 0x40 MSTORE DUP1 PUSH1 0x25 DUP2 MSTORE PUSH1 0x20 ADD PUSH2 0x3E9 PUSH1 0x25 SWAP2 CODECOPY SWAP1 POP SWAP1 JUMP JUMPDEST PUSH1 0x60 PUSH1 0x40 MLOAD DUP1 PUSH1 0x40 ADD PUSH1 0x40 MSTORE DUP1 PUSH1 0x6 DUP2 MSTORE PUSH1 0x20 ADD PUSH32 0x53637265616D0000000000000000000000000000000000000000000000000000 DUP2 MSTORE POP SWAP1 POP SWAP1 JUMP JUMPDEST PUSH1 0x60 PUSH1 0x40 MLOAD DUP1 PUSH1 0x60 ADD PUSH1 0x40 MSTORE DUP1 PUSH1 0x40 DUP2 MSTORE PUSH1 0x20 ADD PUSH2 0x3A9 PUSH1 0x40 SWAP2 CODECOPY SWAP1 POP SWAP1 JUMP JUMPDEST PUSH1 0x60 PUSH1 0x40 MLOAD DUP1 PUSH1 0x40 ADD PUSH1 0x40 MSTORE DUP1 PUSH1 0x13 DUP2 MSTORE PUSH1 0x20 ADD PUSH32 0x616C77617973207761726D20626C6F6464656400000000000000000000000000 DUP2 MSTORE POP SWAP1 POP SWAP1 JUMP JUMPDEST PUSH1 0x60 PUSH1 0x40 MLOAD DUP1 PUSH1 0x60 ADD PUSH1 0x40 MSTORE DUP1 PUSH1 0x25 DUP2 MSTORE PUSH1 0x20 ADD PUSH2 0x34C PUSH1 0x25 SWAP2 CODECOPY SWAP1 POP SWAP1 JUMP JUMPDEST PUSH1 0x60 PUSH1 0x40 MLOAD DUP1 PUSH1 0x60 ADD PUSH1 0x40 MSTORE DUP1 PUSH1 0x22 DUP2 MSTORE PUSH1 0x20 ADD PUSH2 0x32A PUSH1 0x22 SWAP2 CODECOPY SWAP1 POP SWAP1 JUMP JUMPDEST PUSH1 0x0 PUSH2 0x279 DUP3 PUSH2 0x2C9 JUMP JUMPDEST PUSH2 0x283 DUP2 DUP6 PUSH2 0x2D4 JUMP JUMPDEST SWAP4 POP PUSH2 0x293 DUP2 DUP6 PUSH1 0x20 DUP7 ADD PUSH2 0x2E5 JUMP JUMPDEST PUSH2 0x29C DUP2 PUSH2 0x318 JUMP JUMPDEST DUP5 ADD SWAP2 POP POP SWAP3 SWAP2 POP POP JUMP JUMPDEST PUSH1 0x0 PUSH1 0x20 DUP3 ADD SWAP1 POP DUP2 DUP2 SUB PUSH1 0x0 DUP4 ADD MSTORE PUSH2 0x2C1 DUP2 DUP5 PUSH2 0x26E JUMP JUMPDEST SWAP1 POP SWAP3 SWAP2 POP POP JUMP JUMPDEST PUSH1 0x0 DUP2 MLOAD SWAP1 POP SWAP2 SWAP1 POP JUMP JUMPDEST PUSH1 0x0 DUP3 DUP3 MSTORE PUSH1 0x20 DUP3 ADD SWAP1 POP SWAP3 SWAP2 POP POP JUMP JUMPDEST PUSH1 0x0 JUMPDEST DUP4 DUP2 LT ISZERO PUSH2 0x303 JUMPI DUP1 DUP3 ADD MLOAD DUP2 DUP5 ADD MSTORE PUSH1 0x20 DUP2 ADD SWAP1 POP PUSH2 0x2E8 JUMP JUMPDEST DUP4 DUP2 GT ISZERO PUSH2 0x312 JUMPI PUSH1 0x0 DUP5 DUP5 ADD MSTORE JUMPDEST POP POP POP POP JUMP JUMPDEST PUSH1 0x0 PUSH1 0x1F NOT PUSH1 0x1F DUP4 ADD AND SWAP1 POP SWAP2 SWAP1 POP JUMP INVALID PUSH4 0x6C696D62 PUSH10 0x6E6720616E6420737769 PUSH15 0x67696E6720776974682034206C696D PUSH3 0x737468 PUSH6 0x20796F756E67 KECCAK256 PUSH2 0x7265 KECCAK256 PUSH3 0x6F726E KECCAK256 PUSH2 0x6C69 PUSH23 0x652C206E6F742068617463686564616674657220626972 PUSH21 0x6820746865206D6F74686572206665656420746865 KECCAK256 PUSH26 0x6F756E672061726520666565642077697468206D696C6B746970 KECCAK256 PUSH16 0x66207461696C20686173207061746368 KECCAK256 PUSH16 0x6620736B696E206C696B652066696E67 PUSH6 0x727072696E74 KECCAK256 PUSH7 0x6F7220696D7072 PUSH16 0x76656420677269707468657920686176 PUSH6 0x206861697273 KECCAK256 PUSH16 0x722066757273206F6E20746865697220 PUSH3 0x6F6479 LOG2 PUSH5 0x6970667358 0x22 SLT KECCAK256 MULMOD 0xC7 0x27 SWAP8 LT CALL LOG1 SDIV PUSH22 0x8A1EAABFE1E176B1FAF781C26F764A67A0F1A41CB367 DUP4 PUSH5 0x736F6C6343 STOP ADDMOD SUB STOP CALLER "
				},
				"gasEstimates": {
					"creation": {
						"codeDepositCost": "218200",
						"executionCost": "263",
						"totalCost": "218463"
					},
					"external": {
						"Sound()": "infinite",
						"feeding()": "infinite",
						"fifthLimb()": "infinite",
						"hairy()": "infinite",
						"movement()": "infinite",
						"reproduction()": "infinite",
						"warmBlodded()": "infinite"
					}
				},
				"methodIdentifiers": {
					"Sound()": "9c1f15e1",
					"feeding()": "25536213",
					"fifthLimb()": "a3f29856",
					"hairy()": "80f1c859",
					"movement()": "f24d686c",
					"reproduction()": "e3bb1e3f",
					"warmBlodded()": "a95c9e8b"
				}
			},
			"storageLayout": {
				"storage": [],
				"types": null
			},
			"userdoc": {
				"kind": "user",
				"methods": {},
				"version": 1
			}
		}
	}
}