{
	"contract/assignment2.sol": {
		"Mammal": {
			"abi": [
				{
					"inputs": [],
					"name": "feeding",
					"outputs": [
						{
							"internalType": "string",
							"name": "",
							"type": "string"
						}
					],
					"stateMutability": "pure",
					"type": "function"
				},
				{
					"inputs": [],
					"name": "hairy",
					"outputs": [
						{
							"internalType": "string",
							"name": "",
							"type": "string"
						}
					],
					"stateMutability": "pure",
					"type": "function"
				},
				{
					"inputs": [],
					"name": "reproduction",
					"outputs": [
						{
							"internalType": "string",
							"name": "",
							"type": "string"
						}
					],
					"stateMutability": "pure",
					"type": "function"
				},
				{
					"inputs": [],
					"name": "warmBlodded",
					"outputs": [
						{
							"internalType": "string",
							"name": "",
							"type": "string"
						}
					],
					"stateMutability": "pure",
					"type": "function"
				}
			],
			"devdoc": {
				"kind": "dev",
				"methods": {},
				"version": 1
			},
			"evm": {
				"assembly": "    /* \"contract/assignment2.sol\":61:614  contract Mammal{\r... */\n  mstore(0x40, 0x80)\n  callvalue\n  dup1\n  iszero\n  tag_1\n  jumpi\n  0x00\n  dup1\n  revert\ntag_1:\n  pop\n  dataSize(sub_0)\n  dup1\n  dataOffset(sub_0)\n  0x00\n  codecopy\n  0x00\n  return\nstop\n\nsub_0: assembly {\n        /* \"contract/assignment2.sol\":61:614  contract Mammal{\r... */\n      mstore(0x40, 0x80)\n      callvalue\n      dup1\n      iszero\n      tag_1\n      jumpi\n      0x00\n      dup1\n      revert\n    tag_1:\n      pop\n      jumpi(tag_2, lt(calldatasize, 0x04))\n      shr(0xe0, calldataload(0x00))\n      dup1\n      0x25536213\n      eq\n      tag_3\n      jumpi\n      dup1\n      0x80f1c859\n      eq\n      tag_4\n      jumpi\n      dup1\n      0xa95c9e8b\n      eq\n      tag_5\n      jumpi\n      dup1\n      0xe3bb1e3f\n      eq\n      tag_6\n      jumpi\n    tag_2:\n      0x00\n      dup1\n      revert\n        /* \"contract/assignment2.sol\":469:611  function feeding () external pure returns(string memory){\r... */\n    tag_3:\n      tag_7\n      tag_8\n      jump\t// in\n    tag_7:\n      mload(0x40)\n      tag_9\n      swap2\n      swap1\n      tag_10\n      jump\t// in\n    tag_9:\n      mload(0x40)\n      dup1\n      swap2\n      sub\n      swap1\n      return\n        /* \"contract/assignment2.sol\":203:325  function hairy () external pure returns (string memory){\r... */\n    tag_4:\n      tag_11\n      tag_12\n      jump\t// in\n    tag_11:\n      mload(0x40)\n      tag_13\n      swap2\n      swap1\n      tag_10\n      jump\t// in\n    tag_13:\n      mload(0x40)\n      dup1\n      swap2\n      sub\n      swap1\n      return\n        /* \"contract/assignment2.sol\":85:195  function warmBlodded () external pure returns(string memory) {\r... */\n    tag_5:\n      tag_14\n      tag_15\n      jump\t// in\n    tag_14:\n      mload(0x40)\n      tag_16\n      swap2\n      swap1\n      tag_10\n      jump\t// in\n    tag_16:\n      mload(0x40)\n      dup1\n      swap2\n      sub\n      swap1\n      return\n        /* \"contract/assignment2.sol\":333:461  function reproduction () external pure returns(string memory){\r... */\n    tag_6:\n      tag_17\n      tag_18\n      jump\t// in\n    tag_17:\n      mload(0x40)\n      tag_19\n      swap2\n      swap1\n      tag_10\n      jump\t// in\n    tag_19:\n      mload(0x40)\n      dup1\n      swap2\n      sub\n      swap1\n      return\n        /* \"contract/assignment2.sol\":469:611  function feeding () external pure returns(string memory){\r... */\n    tag_8:\n        /* \"contract/assignment2.sol\":511:524  string memory */\n      0x60\n        /* \"contract/assignment2.sol\":538:603  return \"after birth the mother feed the young are feed with milk\" */\n      mload(0x40)\n      dup1\n      0x60\n      add\n      0x40\n      mstore\n      dup1\n      0x38\n      dup2\n      mstore\n      0x20\n      add\n      data_81e48146b6848009c5c5db0e6cfb731d18f9523a8fa5930d1de6e7003f7fb991\n      0x38\n      swap2\n      codecopy\n      swap1\n      pop\n        /* \"contract/assignment2.sol\":469:611  function feeding () external pure returns(string memory){\r... */\n      swap1\n      jump\t// out\n        /* \"contract/assignment2.sol\":203:325  function hairy () external pure returns (string memory){\r... */\n    tag_12:\n        /* \"contract/assignment2.sol\":244:257  string memory */\n      0x60\n        /* \"contract/assignment2.sol\":271:317  return \"they have hairs or furs on their body\" */\n      mload(0x40)\n      dup1\n      0x60\n      add\n      0x40\n      mstore\n      dup1\n      0x25\n      dup2\n      mstore\n      0x20\n      add\n      data_ab29952904f42172ec5ff68f52dfc45923a94a67b17104b3670f26254910140a\n      0x25\n      swap2\n      codecopy\n      swap1\n      pop\n        /* \"contract/assignment2.sol\":203:325  function hairy () external pure returns (string memory){\r... */\n      swap1\n      jump\t// out\n        /* \"contract/assignment2.sol\":85:195  function warmBlodded () external pure returns(string memory) {\r... */\n    tag_15:\n        /* \"contract/assignment2.sol\":131:144  string memory */\n      0x60\n        /* \"contract/assignment2.sol\":159:187  return \"always warm blodded\" */\n      mload(0x40)\n      dup1\n      0x40\n      add\n      0x40\n      mstore\n      dup1\n      0x13\n      dup2\n      mstore\n      0x20\n      add\n      0x616c77617973207761726d20626c6f6464656400000000000000000000000000\n      dup2\n      mstore\n      pop\n      swap1\n      pop\n        /* \"contract/assignment2.sol\":85:195  function warmBlodded () external pure returns(string memory) {\r... */\n      swap1\n      jump\t// out\n        /* \"contract/assignment2.sol\":333:461  function reproduction () external pure returns(string memory){\r... */\n    tag_18:\n        /* \"contract/assignment2.sol\":380:393  string memory */\n      0x60\n        /* \"contract/assignment2.sol\":407:453  return \"the young are born alive, not hatched\" */\n      mload(0x40)\n      dup1\n      0x60\n      add\n      0x40\n      mstore\n      dup1\n      0x25\n      dup2\n      mstore\n      0x20\n      add\n      data_43556b4ad1205de110247a3ca2d95e8b961bceb1a7165f6ef42b72d7ec10fb2b\n      0x25\n      swap2\n      codecopy\n      swap1\n      pop\n        /* \"contract/assignment2.sol\":333:461  function reproduction () external pure returns(string memory){\r... */\n      swap1\n      jump\t// out\n        /* \"#utility.yul\":7:371   */\n    tag_25:\n      0x00\n        /* \"#utility.yul\":123:162   */\n      tag_27\n        /* \"#utility.yul\":156:161   */\n      dup3\n        /* \"#utility.yul\":123:162   */\n      tag_28\n      jump\t// in\n    tag_27:\n        /* \"#utility.yul\":178:249   */\n      tag_29\n        /* \"#utility.yul\":242:248   */\n      dup2\n        /* \"#utility.yul\":237:240   */\n      dup6\n        /* \"#utility.yul\":178:249   */\n      tag_30\n      jump\t// in\n    tag_29:\n        /* \"#utility.yul\":171:249   */\n      swap4\n      pop\n        /* \"#utility.yul\":258:310   */\n      tag_31\n        /* \"#utility.yul\":303:309   */\n      dup2\n        /* \"#utility.yul\":298:301   */\n      dup6\n        /* \"#utility.yul\":291:295   */\n      0x20\n        /* \"#utility.yul\":284:289   */\n      dup7\n        /* \"#utility.yul\":280:296   */\n      add\n        /* \"#utility.yul\":258:310   */\n      tag_32\n      jump\t// in\n    tag_31:\n        /* \"#utility.yul\":335:364   */\n      tag_33\n        /* \"#utility.yul\":357:363   */\n      dup2\n        /* \"#utility.yul\":335:364   */\n      tag_34\n      jump\t// in\n    tag_33:\n        /* \"#utility.yul\":330:333   */\n      dup5\n        /* \"#utility.yul\":326:365   */\n      add\n        /* \"#utility.yul\":319:365   */\n      swap2\n      pop\n        /* \"#utility.yul\":99:371   */\n      pop\n      swap3\n      swap2\n      pop\n      pop\n      jump\t// out\n        /* \"#utility.yul\":377:690   */\n    tag_10:\n      0x00\n        /* \"#utility.yul\":528:530   */\n      0x20\n        /* \"#utility.yul\":517:526   */\n      dup3\n        /* \"#utility.yul\":513:531   */\n      add\n        /* \"#utility.yul\":505:531   */\n      swap1\n      pop\n        /* \"#utility.yul\":577:586   */\n      dup2\n        /* \"#utility.yul\":571:575   */\n      dup2\n        /* \"#utility.yul\":567:587   */\n      sub\n        /* \"#utility.yul\":563:564   */\n      0x00\n        /* \"#utility.yul\":552:561   */\n      dup4\n        /* \"#utility.yul\":548:565   */\n      add\n        /* \"#utility.yul\":541:588   */\n      mstore\n        /* \"#utility.yul\":605:683   */\n      tag_36\n        /* \"#utility.yul\":678:682   */\n      dup2\n        /* \"#utility.yul\":669:675   */\n      dup5\n        /* \"#utility.yul\":605:683   */\n      tag_25\n      jump\t// in\n    tag_36:\n        /* \"#utility.yul\":597:683   */\n      swap1\n      pop\n        /* \"#utility.yul\":495:690   */\n      swap3\n      swap2\n      pop\n      pop\n      jump\t// out\n        /* \"#utility.yul\":696:795   */\n    tag_28:\n      0x00\n        /* \"#utility.yul\":782:787   */\n      dup2\n        /* \"#utility.yul\":776:788   */\n      mload\n        /* \"#utility.yul\":766:788   */\n      swap1\n      pop\n        /* \"#utility.yul\":755:795   */\n      swap2\n      swap1\n      pop\n      jump\t// out\n        /* \"#utility.yul\":801:970   */\n    tag_30:\n      0x00\n        /* \"#utility.yul\":919:925   */\n      dup3\n        /* \"#utility.yul\":914:917   */\n      dup3\n        /* \"#utility.yul\":907:926   */\n      mstore\n        /* \"#utility.yul\":959:963   */\n      0x20\n        /* \"#utility.yul\":954:957   */\n      dup3\n        /* \"#utility.yul\":950:964   */\n      add\n        /* \"#utility.yul\":935:964   */\n      swap1\n      pop\n        /* \"#utility.yul\":897:970   */\n      swap3\n      swap2\n      pop\n      pop\n      jump\t// out\n        /* \"#utility.yul\":976:1283   */\n    tag_32:\n        /* \"#utility.yul\":1044:1045   */\n      0x00\n        /* \"#utility.yul\":1054:1167   */\n    tag_40:\n        /* \"#utility.yul\":1068:1074   */\n      dup4\n        /* \"#utility.yul\":1065:1066   */\n      dup2\n        /* \"#utility.yul\":1062:1075   */\n      lt\n        /* \"#utility.yul\":1054:1167   */\n      iszero\n      tag_42\n      jumpi\n        /* \"#utility.yul\":1153:1154   */\n      dup1\n        /* \"#utility.yul\":1148:1151   */\n      dup3\n        /* \"#utility.yul\":1144:1155   */\n      add\n        /* \"#utility.yul\":1138:1156   */\n      mload\n        /* \"#utility.yul\":1134:1135   */\n      dup2\n        /* \"#utility.yul\":1129:1132   */\n      dup5\n        /* \"#utility.yul\":1125:1136   */\n      add\n        /* \"#utility.yul\":1118:1157   */\n      mstore\n        /* \"#utility.yul\":1090:1092   */\n      0x20\n        /* \"#utility.yul\":1087:1088   */\n      dup2\n        /* \"#utility.yul\":1083:1093   */\n      add\n        /* \"#utility.yul\":1078:1093   */\n      swap1\n      pop\n        /* \"#utility.yul\":1054:1167   */\n      jump(tag_40)\n    tag_42:\n        /* \"#utility.yul\":1185:1191   */\n      dup4\n        /* \"#utility.yul\":1182:1183   */\n      dup2\n        /* \"#utility.yul\":1179:1192   */\n      gt\n        /* \"#utility.yul\":1176:1178   */\n      iszero\n      tag_43\n      jumpi\n        /* \"#utility.yul\":1265:1266   */\n      0x00\n        /* \"#utility.yul\":1256:1262   */\n      dup5\n        /* \"#utility.yul\":1251:1254   */\n      dup5\n        /* \"#utility.yul\":1247:1263   */\n      add\n        /* \"#utility.yul\":1240:1267   */\n      mstore\n        /* \"#utility.yul\":1176:1178   */\n    tag_43:\n        /* \"#utility.yul\":1025:1283   */\n      pop\n      pop\n      pop\n      pop\n      jump\t// out\n        /* \"#utility.yul\":1289:1391   */\n    tag_34:\n      0x00\n        /* \"#utility.yul\":1381:1383   */\n      0x1f\n        /* \"#utility.yul\":1377:1384   */\n      not\n        /* \"#utility.yul\":1372:1374   */\n      0x1f\n        /* \"#utility.yul\":1365:1370   */\n      dup4\n        /* \"#utility.yul\":1361:1375   */\n      add\n        /* \"#utility.yul\":1357:1385   */\n      and\n        /* \"#utility.yul\":1347:1385   */\n      swap1\n      pop\n        /* \"#utility.yul\":1337:1391   */\n      swap2\n      swap1\n      pop\n      jump\t// out\n    stop\n    data_43556b4ad1205de110247a3ca2d95e8b961bceb1a7165f6ef42b72d7ec10fb2b 74686520796f756e672061726520626f726e20616c6976652c206e6f742068617463686564\n    data_81e48146b6848009c5c5db0e6cfb731d18f9523a8fa5930d1de6e7003f7fb991 616674657220626972746820746865206d6f7468657220666565642074686520796f756e672061726520666565642077697468206d696c6b\n    data_ab29952904f42172ec5ff68f52dfc45923a94a67b17104b3670f26254910140a 746865792068617665206861697273206f722066757273206f6e20746865697220626f6479\n\n    auxdata: 0xa2646970667358221220eae157eb0acad1739cd5383ffc6b86c9c95b85557c493770d029e87909f4493d64736f6c63430008030033\n}\n",
				"bytecode": {
					"linkReferences": {},
					"object": "608060405234801561001057600080fd5b506102d9806100206000396000f3fe608060405234801561001057600080fd5b506004361061004c5760003560e01c8063255362131461005157806380f1c8591461006f578063a95c9e8b1461008d578063e3bb1e3f146100ab575b600080fd5b6100596100c9565b604051610066919061019f565b60405180910390f35b6100776100e9565b604051610084919061019f565b60405180910390f35b610095610109565b6040516100a2919061019f565b60405180910390f35b6100b3610146565b6040516100c0919061019f565b60405180910390f35b606060405180606001604052806038815260200161024760389139905090565b606060405180606001604052806025815260200161027f60259139905090565b60606040518060400160405280601381526020017f616c77617973207761726d20626c6f6464656400000000000000000000000000815250905090565b606060405180606001604052806025815260200161022260259139905090565b6000610171826101c1565b61017b81856101cc565b935061018b8185602086016101dd565b61019481610210565b840191505092915050565b600060208201905081810360008301526101b98184610166565b905092915050565b600081519050919050565b600082825260208201905092915050565b60005b838110156101fb5780820151818401526020810190506101e0565b8381111561020a576000848401525b50505050565b6000601f19601f830116905091905056fe74686520796f756e672061726520626f726e20616c6976652c206e6f742068617463686564616674657220626972746820746865206d6f7468657220666565642074686520796f756e672061726520666565642077697468206d696c6b746865792068617665206861697273206f722066757273206f6e20746865697220626f6479a2646970667358221220eae157eb0acad1739cd5383ffc6b86c9c95b85557c493770d029e87909f4493d64736f6c63430008030033",
					"opcodes": "PUSH1 0x80 PUSH1 0x40 MSTORE CALLVALUE DUP1 ISZERO PUSH2 0x10 JUMPI PUSH1 0x0 DUP1 REVERT JUMPDEST POP PUSH2 0x2D9 DUP1 PUSH2 0x20 PUSH1 0x0 CODECOPY PUSH1 0x0 RETURN INVALID PUSH1 0x80 PUSH1 0x40 MSTORE CALLVALUE DUP1 ISZERO PUSH2 0x10 JUMPI PUSH1 0x0 DUP1 REVERT JUMPDEST POP PUSH1 0x4 CALLDATASIZE LT PUSH2 0x4C JUMPI PUSH1 0x0 CALLDATALOAD PUSH1 0xE0 SHR DUP1 PUSH4 0x25536213 EQ PUSH2 0x51 JUMPI DUP1 PUSH4 0x80F1C859 EQ PUSH2 0x6F JUMPI DUP1 PUSH4 0xA95C9E8B EQ PUSH2 0x8D JUMPI DUP1 PUSH4 0xE3BB1E3F EQ PUSH2 0xAB JUMPI JUMPDEST PUSH1 0x0 DUP1 REVERT JUMPDEST PUSH2 0x59 PUSH2 0xC9 JUMP JUMPDEST PUSH1 0x40 MLOAD PUSH2 0x66 SWAP2 SWAP1 PUSH2 0x19F JUMP JUMPDEST PUSH1 0x40 MLOAD DUP1 SWAP2 SUB SWAP1 RETURN JUMPDEST PUSH2 0x77 PUSH2 0xE9 JUMP JUMPDEST PUSH1 0x40 MLOAD PUSH2 0x84 SWAP2 SWAP1 PUSH2 0x19F JUMP JUMPDEST PUSH1 0x40 MLOAD DUP1 SWAP2 SUB SWAP1 RETURN JUMPDEST PUSH2 0x95 PUSH2 0x109 JUMP JUMPDEST PUSH1 0x40 MLOAD PUSH2 0xA2 SWAP2 SWAP1 PUSH2 0x19F JUMP JUMPDEST PUSH1 0x40 MLOAD DUP1 SWAP2 SUB SWAP1 RETURN JUMPDEST PUSH2 0xB3 PUSH2 0x146 JUMP JUMPDEST PUSH1 0x40 MLOAD PUSH2 0xC0 SWAP2 SWAP1 PUSH2 0x19F JUMP JUMPDEST PUSH1 0x40 MLOAD DUP1 SWAP2 SUB SWAP1 RETURN JUMPDEST PUSH1 0x60 PUSH1 0x40 MLOAD DUP1 PUSH1 0x60 ADD PUSH1 0x40 MSTORE DUP1 PUSH1 0x38 DUP2 MSTORE PUSH1 0x20 ADD PUSH2 0x247 PUSH1 0x38 SWAP2 CODECOPY SWAP1 POP SWAP1 JUMP JUMPDEST PUSH1 0x60 PUSH1 0x40 MLOAD DUP1 PUSH1 0x60 ADD PUSH1 0x40 MSTORE DUP1 PUSH1 0x25 DUP2 MSTORE PUSH1 0x20 ADD PUSH2 0x27F PUSH1 0x25 SWAP2 CODECOPY SWAP1 POP SWAP1 JUMP JUMPDEST PUSH1 0x60 PUSH1 0x40 MLOAD DUP1 PUSH1 0x40 ADD PUSH1 0x40 MSTORE DUP1 PUSH1 0x13 DUP2 MSTORE PUSH1 0x20 ADD PUSH32 0x616C77617973207761726D20626C6F6464656400000000000000000000000000 DUP2 MSTORE POP SWAP1 POP SWAP1 JUMP JUMPDEST PUSH1 0x60 PUSH1 0x40 MLOAD DUP1 PUSH1 0x60 ADD PUSH1 0x40 MSTORE DUP1 PUSH1 0x25 DUP2 MSTORE PUSH1 0x20 ADD PUSH2 0x222 PUSH1 0x25 SWAP2 CODECOPY SWAP1 POP SWAP1 JUMP JUMPDEST PUSH1 0x0 PUSH2 0x171 DUP3 PUSH2 0x1C1 JUMP JUMPDEST PUSH2 0x17B DUP2 DUP6 PUSH2 0x1CC JUMP JUMPDEST SWAP4 POP PUSH2 0x18B DUP2 DUP6 PUSH1 0x20 DUP7 ADD PUSH2 0x1DD JUMP JUMPDEST PUSH2 0x194 DUP2 PUSH2 0x210 JUMP JUMPDEST DUP5 ADD SWAP2 POP POP SWAP3 SWAP2 POP POP JUMP JUMPDEST PUSH1 0x0 PUSH1 0x20 DUP3 ADD SWAP1 POP DUP2 DUP2 SUB PUSH1 0x0 DUP4 ADD MSTORE PUSH2 0x1B9 DUP2 DUP5 PUSH2 0x166 JUMP JUMPDEST SWAP1 POP SWAP3 SWAP2 POP POP JUMP JUMPDEST PUSH1 0x0 DUP2 MLOAD SWAP1 POP SWAP2 SWAP1 POP JUMP JUMPDEST PUSH1 0x0 DUP3 DUP3 MSTORE PUSH1 0x20 DUP3 ADD SWAP1 POP SWAP3 SWAP2 POP POP JUMP JUMPDEST PUSH1 0x0 JUMPDEST DUP4 DUP2 LT ISZERO PUSH2 0x1FB JUMPI DUP1 DUP3 ADD MLOAD DUP2 DUP5 ADD MSTORE PUSH1 0x20 DUP2 ADD SWAP1 POP PUSH2 0x1E0 JUMP JUMPDEST DUP4 DUP2 GT ISZERO PUSH2 0x20A JUMPI PUSH1 0x0 DUP5 DUP5 ADD MSTORE JUMPDEST POP POP POP POP JUMP JUMPDEST PUSH1 0x0 PUSH1 0x1F NOT PUSH1 0x1F DUP4 ADD AND SWAP1 POP SWAP2 SWAP1 POP JUMP INVALID PUSH21 0x686520796F756E672061726520626F726E20616C69 PUSH23 0x652C206E6F742068617463686564616674657220626972 PUSH21 0x6820746865206D6F74686572206665656420746865 KECCAK256 PUSH26 0x6F756E672061726520666565642077697468206D696C6B746865 PUSH26 0x2068617665206861697273206F722066757273206F6E20746865 PUSH10 0x7220626F6479A2646970 PUSH7 0x7358221220EAE1 JUMPI 0xEB EXP 0xCA 0xD1 PUSH20 0x9CD5383FFC6B86C9C95B85557C493770D029E879 MULMOD DELEGATECALL 0x49 RETURNDATASIZE PUSH5 0x736F6C6343 STOP ADDMOD SUB STOP CALLER "
				},
				"gasEstimates": {
					"creation": {
						"codeDepositCost": "145800",
						"executionCost": "190",
						"totalCost": "145990"
					},
					"external": {
						"feeding()": "infinite",
						"hairy()": "infinite",
						"reproduction()": "infinite",
						"warmBlodded()": "infinite"
					}
				},
				"methodIdentifiers": {
					"feeding()": "25536213",
					"hairy()": "80f1c859",
					"reproduction()": "e3bb1e3f",
					"warmBlodded()": "a95c9e8b"
				}
			},
			"storageLayout": {
				"storage": [],
				"types": null
			},
			"userdoc": {
				"kind": "user",
				"methods": {},
				"version": 1
			}
		}
	}
}