{
	"contract/assignment3.sol": {
		"election": {
			"abi": [
				{
					"inputs": [],
					"stateMutability": "nonpayable",
					"type": "constructor"
				},
				{
					"anonymous": false,
					"inputs": [
						{
							"indexed": true,
							"internalType": "uint256",
							"name": "candidateNo",
							"type": "uint256"
						},
						{
							"indexed": false,
							"internalType": "string",
							"name": "candidateName",
							"type": "string"
						}
					],
					"name": "ContestantAdded",
					"type": "event"
				},
				{
					"anonymous": false,
					"inputs": [
						{
							"indexed": true,
							"internalType": "uint256",
							"name": "voterNo",
							"type": "uint256"
						},
						{
							"indexed": false,
							"internalType": "string",
							"name": "voterName",
							"type": "string"
						},
						{
							"indexed": true,
							"internalType": "address",
							"name": "voterAddress",
							"type": "address"
						}
					],
					"name": "Registered",
					"type": "event"
				},
				{
					"anonymous": false,
					"inputs": [
						{
							"indexed": true,
							"internalType": "uint256",
							"name": "candidateNo",
							"type": "uint256"
						},
						{
							"indexed": false,
							"internalType": "address",
							"name": "voterAddress",
							"type": "address"
						},
						{
							"indexed": false,
							"internalType": "uint256",
							"name": "totalVotes",
							"type": "uint256"
						}
					],
					"name": "Voted",
					"type": "event"
				},
				{
					"anonymous": false,
					"inputs": [
						{
							"indexed": true,
							"internalType": "address",
							"name": "by",
							"type": "address"
						}
					],
					"name": "activity",
					"type": "event"
				},
				{
					"inputs": [
						{
							"internalType": "string",
							"name": "_name",
							"type": "string"
						}
					],
					"name": "addContestant",
					"outputs": [],
					"stateMutability": "nonpayable",
					"type": "function"
				},
				{
					"inputs": [],
					"name": "candidateNo",
					"outputs": [
						{
							"internalType": "uint256",
							"name": "",
							"type": "uint256"
						}
					],
					"stateMutability": "view",
					"type": "function"
				},
				{
					"inputs": [],
					"name": "isItPaused",
					"outputs": [
						{
							"internalType": "bool",
							"name": "",
							"type": "bool"
						}
					],
					"stateMutability": "view",
					"type": "function"
				},
				{
					"inputs": [],
					"name": "listOfCandidatesVotes",
					"outputs": [
						{
							"internalType": "string[]",
							"name": "",
							"type": "string[]"
						},
						{
							"internalType": "uint256[]",
							"name": "",
							"type": "uint256[]"
						}
					],
					"stateMutability": "view",
					"type": "function"
				},
				{
					"inputs": [
						{
							"internalType": "string",
							"name": "_voterName",
							"type": "string"
						},
						{
							"internalType": "uint256",
							"name": "_age",
							"type": "uint256"
						}
					],
					"name": "register",
					"outputs": [],
					"stateMutability": "nonpayable",
					"type": "function"
				},
				{
					"inputs": [],
					"name": "revealWinner",
					"outputs": [
						{
							"internalType": "string",
							"name": "",
							"type": "string"
						}
					],
					"stateMutability": "view",
					"type": "function"
				},
				{
					"inputs": [],
					"name": "toggleActivity",
					"outputs": [],
					"stateMutability": "nonpayable",
					"type": "function"
				},
				{
					"inputs": [],
					"name": "totalVotes",
					"outputs": [
						{
							"internalType": "uint256",
							"name": "",
							"type": "uint256"
						}
					],
					"stateMutability": "view",
					"type": "function"
				},
				{
					"inputs": [],
					"name": "viewCandidates",
					"outputs": [
						{
							"internalType": "uint256[]",
							"name": "",
							"type": "uint256[]"
						},
						{
							"internalType": "string[]",
							"name": "",
							"type": "string[]"
						}
					],
					"stateMutability": "view",
					"type": "function"
				},
				{
					"inputs": [
						{
							"internalType": "uint256",
							"name": "_candidateNo",
							"type": "uint256"
						}
					],
					"name": "vote",
					"outputs": [],
					"stateMutability": "nonpayable",
					"type": "function"
				},
				{
					"inputs": [],
					"name": "voterNo",
					"outputs": [
						{
							"internalType": "uint256",
							"name": "",
							"type": "uint256"
						}
					],
					"stateMutability": "view",
					"type": "function"
				},
				{
					"inputs": [],
					"name": "whoDidIVoteFor",
					"outputs": [
						{
							"internalType": "string",
							"name": "",
							"type": "string"
						}
					],
					"stateMutability": "view",
					"type": "function"
				}
			],
			"devdoc": {
				"kind": "dev",
				"methods": {},
				"version": 1
			},
			"evm": {
				"assembly": "    /* \"contract/assignment3.sol\":61:5019  contract election{\r... */\n  mstore(0x40, 0x80)\n    /* \"contract/assignment3.sol\":265:349  constructor () {\r... */\n  callvalue\n  dup1\n  iszero\n  tag_1\n  jumpi\n  0x00\n  dup1\n  revert\ntag_1:\n  pop\n    /* \"contract/assignment3.sol\":301:311  msg.sender */\n  caller\n    /* \"contract/assignment3.sol\":293:298  owner */\n  0x00\n  dup1\n    /* \"contract/assignment3.sol\":293:311  owner = msg.sender */\n  0x0100\n  exp\n  dup2\n  sload\n  dup2\n  0xffffffffffffffffffffffffffffffffffffffff\n  mul\n  not\n  and\n  swap1\n  dup4\n  0xffffffffffffffffffffffffffffffffffffffff\n  and\n  mul\n  or\n  swap1\n  sstore\n  pop\n    /* \"contract/assignment3.sol\":337:341  true */\n  0x01\n    /* \"contract/assignment3.sol\":324:334  isItPaused */\n  0x04\n  0x00\n    /* \"contract/assignment3.sol\":324:341  isItPaused = true */\n  0x0100\n  exp\n  dup2\n  sload\n  dup2\n  0xff\n  mul\n  not\n  and\n  swap1\n  dup4\n  iszero\n  iszero\n  mul\n  or\n  swap1\n  sstore\n  pop\n    /* \"contract/assignment3.sol\":61:5019  contract election{\r... */\n  dataSize(sub_0)\n  dup1\n  dataOffset(sub_0)\n  0x00\n  codecopy\n  0x00\n  return\nstop\n\nsub_0: assembly {\n        /* \"contract/assignment3.sol\":61:5019  contract election{\r... */\n      mstore(0x40, 0x80)\n      callvalue\n      dup1\n      iszero\n      tag_1\n      jumpi\n      0x00\n      dup1\n      revert\n    tag_1:\n      pop\n      jumpi(tag_2, lt(calldatasize, 0x04))\n      shr(0xe0, calldataload(0x00))\n      dup1\n      0x62e68ec0\n      gt\n      tag_15\n      jumpi\n      dup1\n      0x62e68ec0\n      eq\n      tag_9\n      jumpi\n      dup1\n      0x6c699905\n      eq\n      tag_10\n      jumpi\n      dup1\n      0x7aad8c80\n      eq\n      tag_11\n      jumpi\n      dup1\n      0x832c0aca\n      eq\n      tag_12\n      jumpi\n      dup1\n      0xd30f11dd\n      eq\n      tag_13\n      jumpi\n      dup1\n      0xea87152b\n      eq\n      tag_14\n      jumpi\n      jump(tag_2)\n    tag_15:\n      dup1\n      0x0121b93f\n      eq\n      tag_3\n      jumpi\n      dup1\n      0x0d15fd77\n      eq\n      tag_4\n      jumpi\n      dup1\n      0x238488fd\n      eq\n      tag_5\n      jumpi\n      dup1\n      0x54e70cae\n      eq\n      tag_6\n      jumpi\n      dup1\n      0x57df6ca3\n      eq\n      tag_7\n      jumpi\n      dup1\n      0x5b72565b\n      eq\n      tag_8\n      jumpi\n    tag_2:\n      0x00\n      dup1\n      revert\n        /* \"contract/assignment3.sol\":2776:3346  function vote (uint _candidateNo) external whenNotPaused {\r... */\n    tag_3:\n      tag_16\n      0x04\n      dup1\n      calldatasize\n      sub\n      dup2\n      add\n      swap1\n      tag_17\n      swap2\n      swap1\n      tag_18\n      jump\t// in\n    tag_17:\n      tag_19\n      jump\t// in\n    tag_16:\n      stop\n        /* \"contract/assignment3.sol\":233:255  uint public totalVotes */\n    tag_4:\n      tag_20\n      tag_21\n      jump\t// in\n    tag_20:\n      mload(0x40)\n      tag_22\n      swap2\n      swap1\n      tag_23\n      jump\t// in\n    tag_22:\n      mload(0x40)\n      dup1\n      swap2\n      sub\n      swap1\n      return\n        /* \"contract/assignment3.sol\":4586:4774  function whoDidIVoteFor () external view returns(string memory){\r... */\n    tag_5:\n      tag_24\n      tag_25\n      jump\t// in\n    tag_24:\n      mload(0x40)\n      tag_26\n      swap2\n      swap1\n      tag_27\n      jump\t// in\n    tag_26:\n      mload(0x40)\n      dup1\n      swap2\n      sub\n      swap1\n      return\n        /* \"contract/assignment3.sol\":4102:4569  function listOfCandidatesVotes () external view ownerOnly returns (string [] memory , uint [] memory){\r... */\n    tag_6:\n      tag_28\n      tag_29\n      jump\t// in\n    tag_28:\n      mload(0x40)\n      tag_30\n      swap3\n      swap2\n      swap1\n      tag_31\n      jump\t// in\n    tag_30:\n      mload(0x40)\n      dup1\n      swap2\n      sub\n      swap1\n      return\n        /* \"contract/assignment3.sol\":203:225  bool public isItPaused */\n    tag_7:\n      tag_32\n      tag_33\n      jump\t// in\n    tag_32:\n      mload(0x40)\n      tag_34\n      swap2\n      swap1\n      tag_35\n      jump\t// in\n    tag_34:\n      mload(0x40)\n      dup1\n      swap2\n      sub\n      swap1\n      return\n        /* \"contract/assignment3.sol\":142:164  uint256 public voterNo */\n    tag_8:\n      tag_36\n      tag_37\n      jump\t// in\n    tag_36:\n      mload(0x40)\n      tag_38\n      swap2\n      swap1\n      tag_23\n      jump\t// in\n    tag_38:\n      mload(0x40)\n      dup1\n      swap2\n      sub\n      swap1\n      return\n        /* \"contract/assignment3.sol\":4782:5006  function toggleActivity () external ownerOnly{\r... */\n    tag_9:\n      tag_39\n      tag_40\n      jump\t// in\n    tag_39:\n      stop\n        /* \"contract/assignment3.sol\":3354:4094  function revealWinner () external view ownerOnly returns(string memory){\r... */\n    tag_10:\n      tag_41\n      tag_42\n      jump\t// in\n    tag_41:\n      mload(0x40)\n      tag_43\n      swap2\n      swap1\n      tag_27\n      jump\t// in\n    tag_43:\n      mload(0x40)\n      dup1\n      swap2\n      sub\n      swap1\n      return\n        /* \"contract/assignment3.sol\":108:134  uint256 public candidateNo */\n    tag_11:\n      tag_44\n      tag_45\n      jump\t// in\n    tag_44:\n      mload(0x40)\n      tag_46\n      swap2\n      swap1\n      tag_23\n      jump\t// in\n    tag_46:\n      mload(0x40)\n      dup1\n      swap2\n      sub\n      swap1\n      return\n        /* \"contract/assignment3.sol\":1355:1870  function addContestant (string memory _name) external ownerOnly {\r... */\n    tag_12:\n      tag_47\n      0x04\n      dup1\n      calldatasize\n      sub\n      dup2\n      add\n      swap1\n      tag_48\n      swap2\n      swap1\n      tag_49\n      jump\t// in\n    tag_48:\n      tag_50\n      jump\t// in\n    tag_47:\n      stop\n        /* \"contract/assignment3.sol\":2300:2768  function viewCandidates () external view whenNotPaused returns(uint [] memory, string [] memory){\r... */\n    tag_13:\n      tag_51\n      tag_52\n      jump\t// in\n    tag_51:\n      mload(0x40)\n      tag_53\n      swap3\n      swap2\n      swap1\n      tag_54\n      jump\t// in\n    tag_53:\n      mload(0x40)\n      dup1\n      swap2\n      sub\n      swap1\n      return\n        /* \"contract/assignment3.sol\":1878:2291  function register (string memory _voterName , uint _age ) external{\r... */\n    tag_14:\n      tag_55\n      0x04\n      dup1\n      calldatasize\n      sub\n      dup2\n      add\n      swap1\n      tag_56\n      swap2\n      swap1\n      tag_57\n      jump\t// in\n    tag_56:\n      tag_58\n      jump\t// in\n    tag_55:\n      stop\n        /* \"contract/assignment3.sol\":2776:3346  function vote (uint _candidateNo) external whenNotPaused {\r... */\n    tag_19:\n        /* \"contract/assignment3.sol\":954:964  isItPaused */\n      0x04\n      0x00\n      swap1\n      sload\n      swap1\n      0x0100\n      exp\n      swap1\n      div\n      0xff\n      and\n        /* \"contract/assignment3.sol\":953:964  !isItPaused */\n      iszero\n        /* \"contract/assignment3.sol\":944:991  require (!isItPaused, \"the contract is paused\") */\n      tag_60\n      jumpi\n      mload(0x40)\n      0x08c379a000000000000000000000000000000000000000000000000000000000\n      dup2\n      mstore\n      0x04\n      add\n      tag_61\n      swap1\n      tag_62\n      jump\t// in\n    tag_61:\n      mload(0x40)\n      dup1\n      swap2\n      sub\n      swap1\n      revert\n    tag_60:\n        /* \"contract/assignment3.sol\":2870:2871  0 */\n      0x00\n        /* \"contract/assignment3.sol\":2854:2866  _candidateNo */\n      dup2\n        /* \"contract/assignment3.sol\":2854:2871  _candidateNo != 0 */\n      eq\n      iszero\n        /* \"contract/assignment3.sol\":2854:2902  _candidateNo != 0 && _candidateNo <= candidateNo */\n      dup1\n      iszero\n      tag_64\n      jumpi\n      pop\n        /* \"contract/assignment3.sol\":2891:2902  candidateNo */\n      sload(0x01)\n        /* \"contract/assignment3.sol\":2875:2887  _candidateNo */\n      dup2\n        /* \"contract/assignment3.sol\":2875:2902  _candidateNo <= candidateNo */\n      gt\n      iszero\n        /* \"contract/assignment3.sol\":2854:2902  _candidateNo != 0 && _candidateNo <= candidateNo */\n    tag_64:\n        /* \"contract/assignment3.sol\":2846:2946  require(_candidateNo != 0 && _candidateNo <= candidateNo, \"there is no contestant with this number\") */\n      tag_65\n      jumpi\n      mload(0x40)\n      0x08c379a000000000000000000000000000000000000000000000000000000000\n      dup2\n      mstore\n      0x04\n      add\n      tag_66\n      swap1\n      tag_67\n      jump\t// in\n    tag_66:\n      mload(0x40)\n      dup1\n      swap2\n      sub\n      swap1\n      revert\n    tag_65:\n        /* \"contract/assignment3.sol\":2968:2982  haveRegistered */\n      0x09\n        /* \"contract/assignment3.sol\":2968:2994  haveRegistered[msg.sender] */\n      0x00\n        /* \"contract/assignment3.sol\":2983:2993  msg.sender */\n      caller\n        /* \"contract/assignment3.sol\":2968:2994  haveRegistered[msg.sender] */\n      0xffffffffffffffffffffffffffffffffffffffff\n      and\n      0xffffffffffffffffffffffffffffffffffffffff\n      and\n      dup2\n      mstore\n      0x20\n      add\n      swap1\n      dup2\n      mstore\n      0x20\n      add\n      0x00\n      keccak256\n      0x00\n      swap1\n      sload\n      swap1\n      0x0100\n      exp\n      swap1\n      div\n      0xff\n      and\n        /* \"contract/assignment3.sol\":2959:3025  require (haveRegistered[msg.sender], \"user hasn't registered yet\") */\n      tag_68\n      jumpi\n      mload(0x40)\n      0x08c379a000000000000000000000000000000000000000000000000000000000\n      dup2\n      mstore\n      0x04\n      add\n      tag_69\n      swap1\n      tag_70\n      jump\t// in\n    tag_69:\n      mload(0x40)\n      dup1\n      swap2\n      sub\n      swap1\n      revert\n    tag_68:\n        /* \"contract/assignment3.sol\":3048:3057  haveVoted */\n      0x08\n        /* \"contract/assignment3.sol\":3048:3069  haveVoted[msg.sender] */\n      0x00\n        /* \"contract/assignment3.sol\":3058:3068  msg.sender */\n      caller\n        /* \"contract/assignment3.sol\":3048:3069  haveVoted[msg.sender] */\n      0xffffffffffffffffffffffffffffffffffffffff\n      and\n      0xffffffffffffffffffffffffffffffffffffffff\n      and\n      dup2\n      mstore\n      0x20\n      add\n      swap1\n      dup2\n      mstore\n      0x20\n      add\n      0x00\n      keccak256\n      0x00\n      swap1\n      sload\n      swap1\n      0x0100\n      exp\n      swap1\n      div\n      0xff\n      and\n        /* \"contract/assignment3.sol\":3047:3069  !haveVoted[msg.sender] */\n      iszero\n        /* \"contract/assignment3.sol\":3038:3095  require (!haveVoted[msg.sender],\"user has voted already\") */\n      tag_71\n      jumpi\n      mload(0x40)\n      0x08c379a000000000000000000000000000000000000000000000000000000000\n      dup2\n      mstore\n      0x04\n      add\n      tag_72\n      swap1\n      tag_73\n      jump\t// in\n    tag_72:\n      mload(0x40)\n      dup1\n      swap2\n      sub\n      swap1\n      revert\n    tag_71:\n        /* \"contract/assignment3.sol\":3108:3118  totalVotes */\n      0x05\n      0x00\n        /* \"contract/assignment3.sol\":3108:3120  totalVotes++ */\n      dup2\n      sload\n      dup1\n      swap3\n      swap2\n      swap1\n      tag_74\n      swap1\n      tag_75\n      jump\t// in\n    tag_74:\n      swap2\n      swap1\n      pop\n      sstore\n      pop\n        /* \"contract/assignment3.sol\":3133:3148  candidateByVote */\n      0x0a\n        /* \"contract/assignment3.sol\":3133:3162  candidateByVote[_candidateNo] */\n      0x00\n        /* \"contract/assignment3.sol\":3149:3161  _candidateNo */\n      dup3\n        /* \"contract/assignment3.sol\":3133:3162  candidateByVote[_candidateNo] */\n      dup2\n      mstore\n      0x20\n      add\n      swap1\n      dup2\n      mstore\n      0x20\n      add\n      0x00\n      keccak256\n      0x00\n        /* \"contract/assignment3.sol\":3133:3164  candidateByVote[_candidateNo]++ */\n      dup2\n      sload\n      dup1\n      swap3\n      swap2\n      swap1\n      tag_76\n      swap1\n      tag_75\n      jump\t// in\n    tag_76:\n      swap2\n      swap1\n      pop\n      sstore\n      pop\n        /* \"contract/assignment3.sol\":3209:3222  candidateById */\n      0x07\n        /* \"contract/assignment3.sol\":3209:3236  candidateById[_candidateNo] */\n      0x00\n        /* \"contract/assignment3.sol\":3223:3235  _candidateNo */\n      dup3\n        /* \"contract/assignment3.sol\":3209:3236  candidateById[_candidateNo] */\n      dup2\n      mstore\n      0x20\n      add\n      swap1\n      dup2\n      mstore\n      0x20\n      add\n      0x00\n      keccak256\n        /* \"contract/assignment3.sol\":3177:3194  votersToCandidate */\n      0x0b\n        /* \"contract/assignment3.sol\":3177:3206  votersToCandidate[msg.sender] */\n      0x00\n        /* \"contract/assignment3.sol\":3195:3205  msg.sender */\n      caller\n        /* \"contract/assignment3.sol\":3177:3206  votersToCandidate[msg.sender] */\n      0xffffffffffffffffffffffffffffffffffffffff\n      and\n      0xffffffffffffffffffffffffffffffffffffffff\n      and\n      dup2\n      mstore\n      0x20\n      add\n      swap1\n      dup2\n      mstore\n      0x20\n      add\n      0x00\n      keccak256\n        /* \"contract/assignment3.sol\":3177:3236  votersToCandidate[msg.sender] = candidateById[_candidateNo] */\n      swap1\n      dup1\n      sload\n      tag_77\n      swap1\n      tag_78\n      jump\t// in\n    tag_77:\n      tag_79\n      swap3\n      swap2\n      swap1\n      tag_80\n      jump\t// in\n    tag_79:\n      pop\n        /* \"contract/assignment3.sol\":3273:3277  true */\n      0x01\n        /* \"contract/assignment3.sol\":3249:3258  haveVoted */\n      0x08\n        /* \"contract/assignment3.sol\":3249:3270  haveVoted[msg.sender] */\n      0x00\n        /* \"contract/assignment3.sol\":3259:3269  msg.sender */\n      caller\n        /* \"contract/assignment3.sol\":3249:3270  haveVoted[msg.sender] */\n      0xffffffffffffffffffffffffffffffffffffffff\n      and\n      0xffffffffffffffffffffffffffffffffffffffff\n      and\n      dup2\n      mstore\n      0x20\n      add\n      swap1\n      dup2\n      mstore\n      0x20\n      add\n      0x00\n      keccak256\n      0x00\n        /* \"contract/assignment3.sol\":3249:3277  haveVoted[msg.sender] = true */\n      0x0100\n      exp\n      dup2\n      sload\n      dup2\n      0xff\n      mul\n      not\n      and\n      swap1\n      dup4\n      iszero\n      iszero\n      mul\n      or\n      swap1\n      sstore\n      pop\n        /* \"contract/assignment3.sol\":3301:3313  _candidateNo */\n      dup1\n        /* \"contract/assignment3.sol\":3295:3338  Voted(_candidateNo, msg.sender, totalVotes) */\n      0x1abe610cf2bf87e57dcc1181fcf5ac0934e843d8344ab9eed6e86c799f62585e\n        /* \"contract/assignment3.sol\":3315:3325  msg.sender */\n      caller\n        /* \"contract/assignment3.sol\":3327:3337  totalVotes */\n      sload(0x05)\n        /* \"contract/assignment3.sol\":3295:3338  Voted(_candidateNo, msg.sender, totalVotes) */\n      mload(0x40)\n      tag_81\n      swap3\n      swap2\n      swap1\n      tag_82\n      jump\t// in\n    tag_81:\n      mload(0x40)\n      dup1\n      swap2\n      sub\n      swap1\n      log2\n        /* \"contract/assignment3.sol\":2776:3346  function vote (uint _candidateNo) external whenNotPaused {\r... */\n      pop\n      jump\t// out\n        /* \"contract/assignment3.sol\":233:255  uint public totalVotes */\n    tag_21:\n      sload(0x05)\n      dup2\n      jump\t// out\n        /* \"contract/assignment3.sol\":4586:4774  function whoDidIVoteFor () external view returns(string memory){\r... */\n    tag_25:\n        /* \"contract/assignment3.sol\":4635:4648  string memory */\n      0x60\n        /* \"contract/assignment3.sol\":4670:4679  haveVoted */\n      0x08\n        /* \"contract/assignment3.sol\":4670:4691  haveVoted[msg.sender] */\n      0x00\n        /* \"contract/assignment3.sol\":4680:4690  msg.sender */\n      caller\n        /* \"contract/assignment3.sol\":4670:4691  haveVoted[msg.sender] */\n      0xffffffffffffffffffffffffffffffffffffffff\n      and\n      0xffffffffffffffffffffffffffffffffffffffff\n      and\n      dup2\n      mstore\n      0x20\n      add\n      swap1\n      dup2\n      mstore\n      0x20\n      add\n      0x00\n      keccak256\n      0x00\n      swap1\n      sload\n      swap1\n      0x0100\n      exp\n      swap1\n      div\n      0xff\n      and\n        /* \"contract/assignment3.sol\":4662:4717  require(haveVoted[msg.sender], \"user hasn't voted yet\") */\n      tag_84\n      jumpi\n      mload(0x40)\n      0x08c379a000000000000000000000000000000000000000000000000000000000\n      dup2\n      mstore\n      0x04\n      add\n      tag_85\n      swap1\n      tag_86\n      jump\t// in\n    tag_85:\n      mload(0x40)\n      dup1\n      swap2\n      sub\n      swap1\n      revert\n    tag_84:\n        /* \"contract/assignment3.sol\":4737:4754  votersToCandidate */\n      0x0b\n        /* \"contract/assignment3.sol\":4737:4766  votersToCandidate[msg.sender] */\n      0x00\n        /* \"contract/assignment3.sol\":4755:4765  msg.sender */\n      caller\n        /* \"contract/assignment3.sol\":4737:4766  votersToCandidate[msg.sender] */\n      0xffffffffffffffffffffffffffffffffffffffff\n      and\n      0xffffffffffffffffffffffffffffffffffffffff\n      and\n      dup2\n      mstore\n      0x20\n      add\n      swap1\n      dup2\n      mstore\n      0x20\n      add\n      0x00\n      keccak256\n        /* \"contract/assignment3.sol\":4730:4766  return votersToCandidate[msg.sender] */\n      dup1\n      sload\n      tag_87\n      swap1\n      tag_78\n      jump\t// in\n    tag_87:\n      dup1\n      0x1f\n      add\n      0x20\n      dup1\n      swap2\n      div\n      mul\n      0x20\n      add\n      mload(0x40)\n      swap1\n      dup2\n      add\n      0x40\n      mstore\n      dup1\n      swap3\n      swap2\n      swap1\n      dup2\n      dup2\n      mstore\n      0x20\n      add\n      dup3\n      dup1\n      sload\n      tag_88\n      swap1\n      tag_78\n      jump\t// in\n    tag_88:\n      dup1\n      iszero\n      tag_89\n      jumpi\n      dup1\n      0x1f\n      lt\n      tag_90\n      jumpi\n      0x0100\n      dup1\n      dup4\n      sload\n      div\n      mul\n      dup4\n      mstore\n      swap2\n      0x20\n      add\n      swap2\n      jump(tag_89)\n    tag_90:\n      dup3\n      add\n      swap2\n      swap1\n      0x00\n      mstore\n      keccak256(0x00, 0x20)\n      swap1\n    tag_91:\n      dup2\n      sload\n      dup2\n      mstore\n      swap1\n      0x01\n      add\n      swap1\n      0x20\n      add\n      dup1\n      dup4\n      gt\n      tag_91\n      jumpi\n      dup3\n      swap1\n      sub\n      0x1f\n      and\n      dup3\n      add\n      swap2\n    tag_89:\n      pop\n      pop\n      pop\n      pop\n      pop\n      swap1\n      pop\n        /* \"contract/assignment3.sol\":4586:4774  function whoDidIVoteFor () external view returns(string memory){\r... */\n      swap1\n      jump\t// out\n        /* \"contract/assignment3.sol\":4102:4569  function listOfCandidatesVotes () external view ownerOnly returns (string [] memory , uint [] memory){\r... */\n    tag_29:\n        /* \"contract/assignment3.sol\":4169:4185  string [] memory */\n      0x60\n        /* \"contract/assignment3.sol\":4188:4202  uint [] memory */\n      dup1\n        /* \"contract/assignment3.sol\":829:839  msg.sender */\n      caller\n        /* \"contract/assignment3.sol\":820:839  owner == msg.sender */\n      0xffffffffffffffffffffffffffffffffffffffff\n      and\n        /* \"contract/assignment3.sol\":820:825  owner */\n      0x00\n      dup1\n      sload\n      swap1\n      0x0100\n      exp\n      swap1\n      div\n      0xffffffffffffffffffffffffffffffffffffffff\n      and\n        /* \"contract/assignment3.sol\":820:839  owner == msg.sender */\n      0xffffffffffffffffffffffffffffffffffffffff\n      and\n      eq\n        /* \"contract/assignment3.sol\":812:877  require(owner == msg.sender, \"Only Owner can call this function\") */\n      tag_93\n      jumpi\n      mload(0x40)\n      0x08c379a000000000000000000000000000000000000000000000000000000000\n      dup2\n      mstore\n      0x04\n      add\n      tag_94\n      swap1\n      tag_95\n      jump\t// in\n    tag_94:\n      mload(0x40)\n      dup1\n      swap2\n      sub\n      swap1\n      revert\n    tag_93:\n        /* \"contract/assignment3.sol\":4239:4240  0 */\n      0x00\n        /* \"contract/assignment3.sol\":4225:4236  candidateNo */\n      sload(0x01)\n        /* \"contract/assignment3.sol\":4225:4240  candidateNo > 0 */\n      gt\n        /* \"contract/assignment3.sol\":4216:4273  require (candidateNo > 0 , \"No candidate has been added\") */\n      tag_97\n      jumpi\n      mload(0x40)\n      0x08c379a000000000000000000000000000000000000000000000000000000000\n      dup2\n      mstore\n      0x04\n      add\n      tag_98\n      swap1\n      tag_99\n      jump\t// in\n    tag_98:\n      mload(0x40)\n      dup1\n      swap2\n      sub\n      swap1\n      revert\n    tag_97:\n        /* \"contract/assignment3.sol\":4308:4309  0 */\n      0x00\n        /* \"contract/assignment3.sol\":4295:4305  totalVotes */\n      sload(0x05)\n        /* \"contract/assignment3.sol\":4295:4309  totalVotes > 0 */\n      gt\n        /* \"contract/assignment3.sol\":4286:4334  require (totalVotes > 0, \"No one has voted yet\") */\n      tag_100\n      jumpi\n      mload(0x40)\n      0x08c379a000000000000000000000000000000000000000000000000000000000\n      dup2\n      mstore\n      0x04\n      add\n      tag_101\n      swap1\n      tag_102\n      jump\t// in\n    tag_101:\n      mload(0x40)\n      dup1\n      swap2\n      sub\n      swap1\n      revert\n    tag_100:\n        /* \"contract/assignment3.sol\":4347:4367  uint [] memory votes */\n      0x00\n        /* \"contract/assignment3.sol\":4382:4393  candidateNo */\n      sload(0x01)\n        /* \"contract/assignment3.sol\":4370:4394  new uint[] (candidateNo) */\n      0xffffffffffffffff\n      dup2\n      gt\n      iszero\n      tag_103\n      jumpi\n      mstore(0x00, 0x4e487b7100000000000000000000000000000000000000000000000000000000)\n      mstore(0x04, 0x41)\n      revert(0x00, 0x24)\n    tag_103:\n      mload(0x40)\n      swap1\n      dup1\n      dup3\n      mstore\n      dup1\n      0x20\n      mul\n      0x20\n      add\n      dup3\n      add\n      0x40\n      mstore\n      dup1\n      iszero\n      tag_104\n      jumpi\n      dup2\n      0x20\n      add\n      0x20\n      dup3\n      mul\n      dup1\n      calldatasize\n      dup4\n      calldatacopy\n      dup1\n      dup3\n      add\n      swap2\n      pop\n      pop\n      swap1\n      pop\n    tag_104:\n      pop\n        /* \"contract/assignment3.sol\":4347:4394  uint [] memory votes = new uint[] (candidateNo) */\n      swap1\n      pop\n        /* \"contract/assignment3.sol\":4413:4419  uint i */\n      0x00\n        /* \"contract/assignment3.sol\":4422:4423  1 */\n      0x01\n        /* \"contract/assignment3.sol\":4413:4423  uint i = 1 */\n      swap1\n      pop\n        /* \"contract/assignment3.sol\":4408:4519  for (uint i = 1; i <= candidateNo; i++){\r... */\n    tag_105:\n        /* \"contract/assignment3.sol\":4430:4441  candidateNo */\n      sload(0x01)\n        /* \"contract/assignment3.sol\":4425:4426  i */\n      dup2\n        /* \"contract/assignment3.sol\":4425:4441  i <= candidateNo */\n      gt\n        /* \"contract/assignment3.sol\":4408:4519  for (uint i = 1; i <= candidateNo; i++){\r... */\n      tag_106\n      jumpi\n        /* \"contract/assignment3.sol\":4476:4491  candidateByVote */\n      0x0a\n        /* \"contract/assignment3.sol\":4476:4494  candidateByVote[i] */\n      0x00\n        /* \"contract/assignment3.sol\":4492:4493  i */\n      dup3\n        /* \"contract/assignment3.sol\":4476:4494  candidateByVote[i] */\n      dup2\n      mstore\n      0x20\n      add\n      swap1\n      dup2\n      mstore\n      0x20\n      add\n      0x00\n      keccak256\n      sload\n        /* \"contract/assignment3.sol\":4462:4467  votes */\n      dup3\n        /* \"contract/assignment3.sol\":4471:4472  1 */\n      0x01\n        /* \"contract/assignment3.sol\":4468:4469  i */\n      dup4\n        /* \"contract/assignment3.sol\":4468:4472  i -1 */\n      tag_108\n      swap2\n      swap1\n      tag_109\n      jump\t// in\n    tag_108:\n        /* \"contract/assignment3.sol\":4462:4473  votes[i -1] */\n      dup2\n      mload\n      dup2\n      lt\n      tag_110\n      jumpi\n      mstore(0x00, 0x4e487b7100000000000000000000000000000000000000000000000000000000)\n      mstore(0x04, 0x32)\n      revert(0x00, 0x24)\n    tag_110:\n      0x20\n      mul\n      0x20\n      add\n      add\n        /* \"contract/assignment3.sol\":4462:4494  votes[i -1] = candidateByVote[i] */\n      dup2\n      dup2\n      mstore\n      pop\n      pop\n        /* \"contract/assignment3.sol\":4443:4446  i++ */\n      dup1\n      dup1\n      tag_111\n      swap1\n      tag_75\n      jump\t// in\n    tag_111:\n      swap2\n      pop\n      pop\n        /* \"contract/assignment3.sol\":4408:4519  for (uint i = 1; i <= candidateNo; i++){\r... */\n      jump(tag_105)\n    tag_106:\n      pop\n        /* \"contract/assignment3.sol\":4540:4553  candidateName */\n      0x03\n        /* \"contract/assignment3.sol\":4555:4560  votes */\n      dup2\n        /* \"contract/assignment3.sol\":4532:4561  return (candidateName, votes) */\n      dup2\n      dup1\n      sload\n      dup1\n      0x20\n      mul\n      0x20\n      add\n      mload(0x40)\n      swap1\n      dup2\n      add\n      0x40\n      mstore\n      dup1\n      swap3\n      swap2\n      swap1\n      dup2\n      dup2\n      mstore\n      0x20\n      add\n      0x00\n      swap1\n    tag_112:\n      dup3\n      dup3\n      lt\n      iszero\n      tag_113\n      jumpi\n      dup4\n      dup3\n      swap1\n      0x00\n      mstore\n      keccak256(0x00, 0x20)\n      add\n      dup1\n      sload\n      tag_115\n      swap1\n      tag_78\n      jump\t// in\n    tag_115:\n      dup1\n      0x1f\n      add\n      0x20\n      dup1\n      swap2\n      div\n      mul\n      0x20\n      add\n      mload(0x40)\n      swap1\n      dup2\n      add\n      0x40\n      mstore\n      dup1\n      swap3\n      swap2\n      swap1\n      dup2\n      dup2\n      mstore\n      0x20\n      add\n      dup3\n      dup1\n      sload\n      tag_116\n      swap1\n      tag_78\n      jump\t// in\n    tag_116:\n      dup1\n      iszero\n      tag_117\n      jumpi\n      dup1\n      0x1f\n      lt\n      tag_118\n      jumpi\n      0x0100\n      dup1\n      dup4\n      sload\n      div\n      mul\n      dup4\n      mstore\n      swap2\n      0x20\n      add\n      swap2\n      jump(tag_117)\n    tag_118:\n      dup3\n      add\n      swap2\n      swap1\n      0x00\n      mstore\n      keccak256(0x00, 0x20)\n      swap1\n    tag_119:\n      dup2\n      sload\n      dup2\n      mstore\n      swap1\n      0x01\n      add\n      swap1\n      0x20\n      add\n      dup1\n      dup4\n      gt\n      tag_119\n      jumpi\n      dup3\n      swap1\n      sub\n      0x1f\n      and\n      dup3\n      add\n      swap2\n    tag_117:\n      pop\n      pop\n      pop\n      pop\n      pop\n      dup2\n      mstore\n      0x20\n      add\n      swap1\n      0x01\n      add\n      swap1\n      jump(tag_112)\n    tag_113:\n      pop\n      pop\n      pop\n      pop\n      swap2\n      pop\n      swap3\n      pop\n      swap3\n      pop\n      pop\n        /* \"contract/assignment3.sol\":4102:4569  function listOfCandidatesVotes () external view ownerOnly returns (string [] memory , uint [] memory){\r... */\n      swap1\n      swap2\n      jump\t// out\n        /* \"contract/assignment3.sol\":203:225  bool public isItPaused */\n    tag_33:\n      0x04\n      0x00\n      swap1\n      sload\n      swap1\n      0x0100\n      exp\n      swap1\n      div\n      0xff\n      and\n      dup2\n      jump\t// out\n        /* \"contract/assignment3.sol\":142:164  uint256 public voterNo */\n    tag_37:\n      sload(0x02)\n      dup2\n      jump\t// out\n        /* \"contract/assignment3.sol\":4782:5006  function toggleActivity () external ownerOnly{\r... */\n    tag_40:\n        /* \"contract/assignment3.sol\":829:839  msg.sender */\n      caller\n        /* \"contract/assignment3.sol\":820:839  owner == msg.sender */\n      0xffffffffffffffffffffffffffffffffffffffff\n      and\n        /* \"contract/assignment3.sol\":820:825  owner */\n      0x00\n      dup1\n      sload\n      swap1\n      0x0100\n      exp\n      swap1\n      div\n      0xffffffffffffffffffffffffffffffffffffffff\n      and\n        /* \"contract/assignment3.sol\":820:839  owner == msg.sender */\n      0xffffffffffffffffffffffffffffffffffffffff\n      and\n      eq\n        /* \"contract/assignment3.sol\":812:877  require(owner == msg.sender, \"Only Owner can call this function\") */\n      tag_121\n      jumpi\n      mload(0x40)\n      0x08c379a000000000000000000000000000000000000000000000000000000000\n      dup2\n      mstore\n      0x04\n      add\n      tag_122\n      swap1\n      tag_95\n      jump\t// in\n    tag_122:\n      mload(0x40)\n      dup1\n      swap2\n      sub\n      swap1\n      revert\n    tag_121:\n        /* \"contract/assignment3.sol\":4854:4864  isItPaused */\n      0x04\n      0x00\n      swap1\n      sload\n      swap1\n      0x0100\n      exp\n      swap1\n      div\n      0xff\n      and\n        /* \"contract/assignment3.sol\":4853:4864  !isItPaused */\n      iszero\n        /* \"contract/assignment3.sol\":4840:4850  isItPaused */\n      0x04\n      0x00\n        /* \"contract/assignment3.sol\":4840:4864  isItPaused = !isItPaused */\n      0x0100\n      exp\n      dup2\n      sload\n      dup2\n      0xff\n      mul\n      not\n      and\n      swap1\n      dup4\n      iszero\n      iszero\n      mul\n      or\n      swap1\n      sstore\n      pop\n        /* \"contract/assignment3.sol\":4987:4997  msg.sender */\n      caller\n        /* \"contract/assignment3.sol\":4978:4998  activity(msg.sender) */\n      0xffffffffffffffffffffffffffffffffffffffff\n      and\n      0x84b504c8f946dfbe9e8f7a3f8fc8a1985c4a42b162f8bd82ac21ca965273b033\n      mload(0x40)\n      mload(0x40)\n      dup1\n      swap2\n      sub\n      swap1\n      log2\n        /* \"contract/assignment3.sol\":4782:5006  function toggleActivity () external ownerOnly{\r... */\n      jump\t// out\n        /* \"contract/assignment3.sol\":3354:4094  function revealWinner () external view ownerOnly returns(string memory){\r... */\n    tag_42:\n        /* \"contract/assignment3.sol\":3411:3424  string memory */\n      0x60\n        /* \"contract/assignment3.sol\":829:839  msg.sender */\n      caller\n        /* \"contract/assignment3.sol\":820:839  owner == msg.sender */\n      0xffffffffffffffffffffffffffffffffffffffff\n      and\n        /* \"contract/assignment3.sol\":820:825  owner */\n      0x00\n      dup1\n      sload\n      swap1\n      0x0100\n      exp\n      swap1\n      div\n      0xffffffffffffffffffffffffffffffffffffffff\n      and\n        /* \"contract/assignment3.sol\":820:839  owner == msg.sender */\n      0xffffffffffffffffffffffffffffffffffffffff\n      and\n      eq\n        /* \"contract/assignment3.sol\":812:877  require(owner == msg.sender, \"Only Owner can call this function\") */\n      tag_125\n      jumpi\n      mload(0x40)\n      0x08c379a000000000000000000000000000000000000000000000000000000000\n      dup2\n      mstore\n      0x04\n      add\n      tag_126\n      swap1\n      tag_95\n      jump\t// in\n    tag_126:\n      mload(0x40)\n      dup1\n      swap2\n      sub\n      swap1\n      revert\n    tag_125:\n        /* \"contract/assignment3.sol\":3459:3460  0 */\n      0x00\n        /* \"contract/assignment3.sol\":3446:3456  totalVotes */\n      sload(0x05)\n        /* \"contract/assignment3.sol\":3446:3460  totalVotes > 0 */\n      gt\n        /* \"contract/assignment3.sol\":3438:3485  require(totalVotes > 0, \"No one has voted yet\") */\n      tag_128\n      jumpi\n      mload(0x40)\n      0x08c379a000000000000000000000000000000000000000000000000000000000\n      dup2\n      mstore\n      0x04\n      add\n      tag_129\n      swap1\n      tag_102\n      jump\t// in\n    tag_129:\n      mload(0x40)\n      dup1\n      swap2\n      sub\n      swap1\n      revert\n    tag_128:\n        /* \"contract/assignment3.sol\":3498:3510  uint maxVote */\n      0x00\n        /* \"contract/assignment3.sol\":3521:3542  uint winningCandidate */\n      dup1\n        /* \"contract/assignment3.sol\":3565:3571  uint i */\n      0x00\n        /* \"contract/assignment3.sol\":3574:3575  1 */\n      0x01\n        /* \"contract/assignment3.sol\":3565:3575  uint i = 1 */\n      swap1\n      pop\n        /* \"contract/assignment3.sol\":3561:3754  for(uint i = 1; i <= candidateNo; i++){\r... */\n    tag_130:\n        /* \"contract/assignment3.sol\":3582:3593  candidateNo */\n      sload(0x01)\n        /* \"contract/assignment3.sol\":3577:3578  i */\n      dup2\n        /* \"contract/assignment3.sol\":3577:3593  i <= candidateNo */\n      gt\n        /* \"contract/assignment3.sol\":3561:3754  for(uint i = 1; i <= candidateNo; i++){\r... */\n      tag_131\n      jumpi\n        /* \"contract/assignment3.sol\":3636:3643  maxVote */\n      dup3\n        /* \"contract/assignment3.sol\":3615:3630  candidateByVote */\n      0x0a\n        /* \"contract/assignment3.sol\":3615:3633  candidateByVote[i] */\n      0x00\n        /* \"contract/assignment3.sol\":3631:3632  i */\n      dup4\n        /* \"contract/assignment3.sol\":3615:3633  candidateByVote[i] */\n      dup2\n      mstore\n      0x20\n      add\n      swap1\n      dup2\n      mstore\n      0x20\n      add\n      0x00\n      keccak256\n      sload\n        /* \"contract/assignment3.sol\":3615:3643  candidateByVote[i] > maxVote */\n      gt\n        /* \"contract/assignment3.sol\":3612:3738  if(candidateByVote[i] > maxVote){\r... */\n      iszero\n      tag_133\n      jumpi\n        /* \"contract/assignment3.sol\":3671:3686  candidateByVote */\n      0x0a\n        /* \"contract/assignment3.sol\":3671:3689  candidateByVote[i] */\n      0x00\n        /* \"contract/assignment3.sol\":3687:3688  i */\n      dup3\n        /* \"contract/assignment3.sol\":3671:3689  candidateByVote[i] */\n      dup2\n      mstore\n      0x20\n      add\n      swap1\n      dup2\n      mstore\n      0x20\n      add\n      0x00\n      keccak256\n      sload\n        /* \"contract/assignment3.sol\":3661:3689  maxVote = candidateByVote[i] */\n      swap3\n      pop\n        /* \"contract/assignment3.sol\":3725:3726  i */\n      dup1\n        /* \"contract/assignment3.sol\":3706:3726  winningCandidate = i */\n      swap2\n      pop\n        /* \"contract/assignment3.sol\":3612:3738  if(candidateByVote[i] > maxVote){\r... */\n    tag_133:\n        /* \"contract/assignment3.sol\":3595:3598  i++ */\n      dup1\n      dup1\n      tag_134\n      swap1\n      tag_75\n      jump\t// in\n    tag_134:\n      swap2\n      pop\n      pop\n        /* \"contract/assignment3.sol\":3561:3754  for(uint i = 1; i <= candidateNo; i++){\r... */\n      jump(tag_130)\n    tag_131:\n      pop\n        /* \"contract/assignment3.sol\":3768:3781  uint tieCount */\n      0x00\n        /* \"contract/assignment3.sol\":3799:3805  uint i */\n      dup1\n        /* \"contract/assignment3.sol\":3807:3808  1 */\n      0x01\n        /* \"contract/assignment3.sol\":3799:3808  uint i =1 */\n      swap1\n      pop\n        /* \"contract/assignment3.sol\":3795:3942  for(uint i =1; i <= candidateNo; i++){\r... */\n    tag_135:\n        /* \"contract/assignment3.sol\":3815:3826  candidateNo */\n      sload(0x01)\n        /* \"contract/assignment3.sol\":3810:3811  i */\n      dup2\n        /* \"contract/assignment3.sol\":3810:3826  i <= candidateNo */\n      gt\n        /* \"contract/assignment3.sol\":3795:3942  for(uint i =1; i <= candidateNo; i++){\r... */\n      tag_136\n      jumpi\n        /* \"contract/assignment3.sol\":3875:3882  maxVote */\n      dup4\n        /* \"contract/assignment3.sol\":3853:3868  candidateByVote */\n      0x0a\n        /* \"contract/assignment3.sol\":3853:3871  candidateByVote[i] */\n      0x00\n        /* \"contract/assignment3.sol\":3869:3870  i */\n      dup4\n        /* \"contract/assignment3.sol\":3853:3871  candidateByVote[i] */\n      dup2\n      mstore\n      0x20\n      add\n      swap1\n      dup2\n      mstore\n      0x20\n      add\n      0x00\n      keccak256\n      sload\n        /* \"contract/assignment3.sol\":3853:3882  candidateByVote[i] == maxVote */\n      eq\n        /* \"contract/assignment3.sol\":3849:3930  if (candidateByVote[i] == maxVote){\r... */\n      iszero\n      tag_138\n      jumpi\n        /* \"contract/assignment3.sol\":3904:3914  tieCount++ */\n      dup2\n      dup1\n      tag_139\n      swap1\n      tag_75\n      jump\t// in\n    tag_139:\n      swap3\n      pop\n      pop\n        /* \"contract/assignment3.sol\":3849:3930  if (candidateByVote[i] == maxVote){\r... */\n    tag_138:\n        /* \"contract/assignment3.sol\":3828:3831  i++ */\n      dup1\n      dup1\n      tag_140\n      swap1\n      tag_75\n      jump\t// in\n    tag_140:\n      swap2\n      pop\n      pop\n        /* \"contract/assignment3.sol\":3795:3942  for(uint i =1; i <= candidateNo; i++){\r... */\n      jump(tag_135)\n    tag_136:\n      pop\n        /* \"contract/assignment3.sol\":3970:3971  1 */\n      0x01\n        /* \"contract/assignment3.sol\":3959:3967  tieCount */\n      dup2\n        /* \"contract/assignment3.sol\":3959:3971  tieCount > 1 */\n      gt\n        /* \"contract/assignment3.sol\":3955:4031  if (tieCount > 1){\r... */\n      iszero\n      tag_141\n      jumpi\n        /* \"contract/assignment3.sol\":3989:4018  return \"there has been a tie\" */\n      mload(0x40)\n      dup1\n      0x40\n      add\n      0x40\n      mstore\n      dup1\n      0x14\n      dup2\n      mstore\n      0x20\n      add\n      0x746865726520686173206265656e206120746965000000000000000000000000\n      dup2\n      mstore\n      pop\n      swap4\n      pop\n      pop\n      pop\n      pop\n      jump(tag_127)\n        /* \"contract/assignment3.sol\":3955:4031  if (tieCount > 1){\r... */\n    tag_141:\n        /* \"contract/assignment3.sol\":4054:4067  candidateById */\n      0x07\n        /* \"contract/assignment3.sol\":4054:4085  candidateById[winningCandidate] */\n      0x00\n        /* \"contract/assignment3.sol\":4068:4084  winningCandidate */\n      dup4\n        /* \"contract/assignment3.sol\":4054:4085  candidateById[winningCandidate] */\n      dup2\n      mstore\n      0x20\n      add\n      swap1\n      dup2\n      mstore\n      0x20\n      add\n      0x00\n      keccak256\n        /* \"contract/assignment3.sol\":4047:4085  return candidateById[winningCandidate] */\n      dup1\n      sload\n      tag_142\n      swap1\n      tag_78\n      jump\t// in\n    tag_142:\n      dup1\n      0x1f\n      add\n      0x20\n      dup1\n      swap2\n      div\n      mul\n      0x20\n      add\n      mload(0x40)\n      swap1\n      dup2\n      add\n      0x40\n      mstore\n      dup1\n      swap3\n      swap2\n      swap1\n      dup2\n      dup2\n      mstore\n      0x20\n      add\n      dup3\n      dup1\n      sload\n      tag_143\n      swap1\n      tag_78\n      jump\t// in\n    tag_143:\n      dup1\n      iszero\n      tag_144\n      jumpi\n      dup1\n      0x1f\n      lt\n      tag_145\n      jumpi\n      0x0100\n      dup1\n      dup4\n      sload\n      div\n      mul\n      dup4\n      mstore\n      swap2\n      0x20\n      add\n      swap2\n      jump(tag_144)\n    tag_145:\n      dup3\n      add\n      swap2\n      swap1\n      0x00\n      mstore\n      keccak256(0x00, 0x20)\n      swap1\n    tag_146:\n      dup2\n      sload\n      dup2\n      mstore\n      swap1\n      0x01\n      add\n      swap1\n      0x20\n      add\n      dup1\n      dup4\n      gt\n      tag_146\n      jumpi\n      dup3\n      swap1\n      sub\n      0x1f\n      and\n      dup3\n      add\n      swap2\n    tag_144:\n      pop\n      pop\n      pop\n      pop\n      pop\n      swap4\n      pop\n      pop\n      pop\n      pop\n        /* \"contract/assignment3.sol\":888:889  _ */\n    tag_127:\n        /* \"contract/assignment3.sol\":3354:4094  function revealWinner () external view ownerOnly returns(string memory){\r... */\n      swap1\n      jump\t// out\n        /* \"contract/assignment3.sol\":108:134  uint256 public candidateNo */\n    tag_45:\n      sload(0x01)\n      dup2\n      jump\t// out\n        /* \"contract/assignment3.sol\":1355:1870  function addContestant (string memory _name) external ownerOnly {\r... */\n    tag_50:\n        /* \"contract/assignment3.sol\":829:839  msg.sender */\n      caller\n        /* \"contract/assignment3.sol\":820:839  owner == msg.sender */\n      0xffffffffffffffffffffffffffffffffffffffff\n      and\n        /* \"contract/assignment3.sol\":820:825  owner */\n      0x00\n      dup1\n      sload\n      swap1\n      0x0100\n      exp\n      swap1\n      div\n      0xffffffffffffffffffffffffffffffffffffffff\n      and\n        /* \"contract/assignment3.sol\":820:839  owner == msg.sender */\n      0xffffffffffffffffffffffffffffffffffffffff\n      and\n      eq\n        /* \"contract/assignment3.sol\":812:877  require(owner == msg.sender, \"Only Owner can call this function\") */\n      tag_148\n      jumpi\n      mload(0x40)\n      0x08c379a000000000000000000000000000000000000000000000000000000000\n      dup2\n      mstore\n      0x04\n      add\n      tag_149\n      swap1\n      tag_95\n      jump\t// in\n    tag_149:\n      mload(0x40)\n      dup1\n      swap2\n      sub\n      swap1\n      revert\n    tag_148:\n        /* \"contract/assignment3.sol\":1437:1443  uint i */\n      0x00\n        /* \"contract/assignment3.sol\":1432:1700  for (uint i = 0; i < candidateName.length; i++){\r... */\n    tag_151:\n        /* \"contract/assignment3.sol\":1453:1466  candidateName */\n      0x03\n        /* \"contract/assignment3.sol\":1453:1473  candidateName.length */\n      dup1\n      sload\n      swap1\n      pop\n        /* \"contract/assignment3.sol\":1449:1450  i */\n      dup2\n        /* \"contract/assignment3.sol\":1449:1473  i < candidateName.length */\n      lt\n        /* \"contract/assignment3.sol\":1432:1700  for (uint i = 0; i < candidateName.length; i++){\r... */\n      iszero\n      tag_152\n      jumpi\n        /* \"contract/assignment3.sol\":1548:1561  candidateName */\n      0x03\n        /* \"contract/assignment3.sol\":1562:1563  i */\n      dup2\n        /* \"contract/assignment3.sol\":1548:1564  candidateName[i] */\n      dup2\n      sload\n      dup2\n      lt\n      tag_154\n      jumpi\n      mstore(0x00, 0x4e487b7100000000000000000000000000000000000000000000000000000000)\n      mstore(0x04, 0x32)\n      revert(0x00, 0x24)\n    tag_154:\n      swap1\n      0x00\n      mstore\n      keccak256(0x00, 0x20)\n      add\n        /* \"contract/assignment3.sol\":1532:1566  keccak256(bytes(candidateName[i])) */\n      mload(0x40)\n      tag_156\n      swap2\n      swap1\n      tag_157\n      jump\t// in\n    tag_156:\n      mload(0x40)\n      dup1\n      swap2\n      sub\n      swap1\n      keccak256\n        /* \"contract/assignment3.sol\":1521:1526  _name */\n      dup3\n        /* \"contract/assignment3.sol\":1505:1528  keccak256(bytes(_name)) */\n      dup1\n      mload\n      swap1\n      0x20\n      add\n      keccak256\n        /* \"contract/assignment3.sol\":1505:1566  keccak256(bytes(_name)) != keccak256(bytes(candidateName[i])) */\n      eq\n      iszero\n        /* \"contract/assignment3.sol\":1496:1598  require (keccak256(bytes(_name)) != keccak256(bytes(candidateName[i])), \"name has already been added\") */\n      tag_158\n      jumpi\n      mload(0x40)\n      0x08c379a000000000000000000000000000000000000000000000000000000000\n      dup2\n      mstore\n      0x04\n      add\n      tag_159\n      swap1\n      tag_160\n      jump\t// in\n    tag_159:\n      mload(0x40)\n      dup1\n      swap2\n      sub\n      swap1\n      revert\n    tag_158:\n        /* \"contract/assignment3.sol\":1475:1478  i++ */\n      dup1\n      dup1\n      tag_161\n      swap1\n      tag_75\n      jump\t// in\n    tag_161:\n      swap2\n      pop\n      pop\n        /* \"contract/assignment3.sol\":1432:1700  for (uint i = 0; i < candidateName.length; i++){\r... */\n      jump(tag_151)\n    tag_152:\n      pop\n        /* \"contract/assignment3.sol\":1712:1723  candidateNo */\n      0x01\n      0x00\n        /* \"contract/assignment3.sol\":1712:1725  candidateNo++ */\n      dup2\n      sload\n      dup1\n      swap3\n      swap2\n      swap1\n      tag_162\n      swap1\n      tag_75\n      jump\t// in\n    tag_162:\n      swap2\n      swap1\n      pop\n      sstore\n      pop\n        /* \"contract/assignment3.sol\":1738:1751  candidateName */\n      0x03\n        /* \"contract/assignment3.sol\":1757:1762  _name */\n      dup2\n        /* \"contract/assignment3.sol\":1738:1763  candidateName.push(_name) */\n      swap1\n      dup1\n      0x01\n      dup2\n      sload\n      add\n      dup1\n      dup3\n      sstore\n      dup1\n      swap2\n      pop\n      pop\n      0x01\n      swap1\n      sub\n      swap1\n      0x00\n      mstore\n      keccak256(0x00, 0x20)\n      add\n      0x00\n      swap1\n      swap2\n      swap1\n      swap2\n      swap1\n      swap2\n      pop\n      swap1\n      dup1\n      mload\n      swap1\n      0x20\n      add\n      swap1\n      tag_164\n      swap3\n      swap2\n      swap1\n      tag_165\n      jump\t// in\n    tag_164:\n      pop\n        /* \"contract/assignment3.sol\":1805:1810  _name */\n      dup1\n        /* \"contract/assignment3.sol\":1776:1789  candidateById */\n      0x07\n        /* \"contract/assignment3.sol\":1776:1802  candidateById[candidateNo] */\n      0x00\n        /* \"contract/assignment3.sol\":1790:1801  candidateNo */\n      sload(0x01)\n        /* \"contract/assignment3.sol\":1776:1802  candidateById[candidateNo] */\n      dup2\n      mstore\n      0x20\n      add\n      swap1\n      dup2\n      mstore\n      0x20\n      add\n      0x00\n      keccak256\n        /* \"contract/assignment3.sol\":1776:1810  candidateById[candidateNo] = _name */\n      swap1\n      dup1\n      mload\n      swap1\n      0x20\n      add\n      swap1\n      tag_166\n      swap3\n      swap2\n      swap1\n      tag_165\n      jump\t// in\n    tag_166:\n      pop\n        /* \"contract/assignment3.sol\":1844:1855  candidateNo */\n      sload(0x01)\n        /* \"contract/assignment3.sol\":1828:1862  ContestantAdded(candidateNo,_name) */\n      0x56f6c29d2eb99f40e2a206309dc37f2cff01a5755a4683e3c2b0ce22e5e3aa17\n        /* \"contract/assignment3.sol\":1856:1861  _name */\n      dup3\n        /* \"contract/assignment3.sol\":1828:1862  ContestantAdded(candidateNo,_name) */\n      mload(0x40)\n      tag_167\n      swap2\n      swap1\n      tag_27\n      jump\t// in\n    tag_167:\n      mload(0x40)\n      dup1\n      swap2\n      sub\n      swap1\n      log2\n        /* \"contract/assignment3.sol\":1355:1870  function addContestant (string memory _name) external ownerOnly {\r... */\n      pop\n      jump\t// out\n        /* \"contract/assignment3.sol\":2300:2768  function viewCandidates () external view whenNotPaused returns(uint [] memory, string [] memory){\r... */\n    tag_52:\n        /* \"contract/assignment3.sol\":2363:2377  uint [] memory */\n      0x60\n        /* \"contract/assignment3.sol\":2379:2395  string [] memory */\n      dup1\n        /* \"contract/assignment3.sol\":954:964  isItPaused */\n      0x04\n      0x00\n      swap1\n      sload\n      swap1\n      0x0100\n      exp\n      swap1\n      div\n      0xff\n      and\n        /* \"contract/assignment3.sol\":953:964  !isItPaused */\n      iszero\n        /* \"contract/assignment3.sol\":944:991  require (!isItPaused, \"the contract is paused\") */\n      tag_169\n      jumpi\n      mload(0x40)\n      0x08c379a000000000000000000000000000000000000000000000000000000000\n      dup2\n      mstore\n      0x04\n      add\n      tag_170\n      swap1\n      tag_62\n      jump\t// in\n    tag_170:\n      mload(0x40)\n      dup1\n      swap2\n      sub\n      swap1\n      revert\n    tag_169:\n        /* \"contract/assignment3.sol\":2431:2432  0 */\n      0x00\n        /* \"contract/assignment3.sol\":2417:2428  candidateNo */\n      sload(0x01)\n        /* \"contract/assignment3.sol\":2417:2432  candidateNo > 0 */\n      gt\n        /* \"contract/assignment3.sol\":2409:2458  require(candidateNo > 0, \"No candidates to view\") */\n      tag_172\n      jumpi\n      mload(0x40)\n      0x08c379a000000000000000000000000000000000000000000000000000000000\n      dup2\n      mstore\n      0x04\n      add\n      tag_173\n      swap1\n      tag_174\n      jump\t// in\n    tag_173:\n      mload(0x40)\n      dup1\n      swap2\n      sub\n      swap1\n      revert\n    tag_172:\n        /* \"contract/assignment3.sol\":2471:2488  uint[] memory ids */\n      0x00\n        /* \"contract/assignment3.sol\":2502:2513  candidateNo */\n      sload(0x01)\n        /* \"contract/assignment3.sol\":2491:2514  new uint[](candidateNo) */\n      0xffffffffffffffff\n      dup2\n      gt\n      iszero\n      tag_175\n      jumpi\n      mstore(0x00, 0x4e487b7100000000000000000000000000000000000000000000000000000000)\n      mstore(0x04, 0x41)\n      revert(0x00, 0x24)\n    tag_175:\n      mload(0x40)\n      swap1\n      dup1\n      dup3\n      mstore\n      dup1\n      0x20\n      mul\n      0x20\n      add\n      dup3\n      add\n      0x40\n      mstore\n      dup1\n      iszero\n      tag_176\n      jumpi\n      dup2\n      0x20\n      add\n      0x20\n      dup3\n      mul\n      dup1\n      calldatasize\n      dup4\n      calldatacopy\n      dup1\n      dup3\n      add\n      swap2\n      pop\n      pop\n      swap1\n      pop\n    tag_176:\n      pop\n        /* \"contract/assignment3.sol\":2471:2514  uint[] memory ids = new uint[](candidateNo) */\n      swap1\n      pop\n        /* \"contract/assignment3.sol\":2525:2546  string[] memory names */\n      0x00\n        /* \"contract/assignment3.sol\":2562:2573  candidateNo */\n      sload(0x01)\n        /* \"contract/assignment3.sol\":2549:2574  new string[](candidateNo) */\n      0xffffffffffffffff\n      dup2\n      gt\n      iszero\n      tag_177\n      jumpi\n      mstore(0x00, 0x4e487b7100000000000000000000000000000000000000000000000000000000)\n      mstore(0x04, 0x41)\n      revert(0x00, 0x24)\n    tag_177:\n      mload(0x40)\n      swap1\n      dup1\n      dup3\n      mstore\n      dup1\n      0x20\n      mul\n      0x20\n      add\n      dup3\n      add\n      0x40\n      mstore\n      dup1\n      iszero\n      tag_178\n      jumpi\n      dup2\n      0x20\n      add\n    tag_179:\n      0x60\n      dup2\n      mstore\n      0x20\n      add\n      swap1\n      0x01\n      swap1\n      sub\n      swap1\n      dup2\n      tag_179\n      jumpi\n      swap1\n      pop\n    tag_178:\n      pop\n        /* \"contract/assignment3.sol\":2525:2574  string[] memory names = new string[](candidateNo) */\n      swap1\n      pop\n        /* \"contract/assignment3.sol\":2596:2602  uint i */\n      0x00\n        /* \"contract/assignment3.sol\":2592:2722  for(uint i = 0; i < candidateNo; i++) {\r... */\n    tag_180:\n        /* \"contract/assignment3.sol\":2612:2623  candidateNo */\n      sload(0x01)\n        /* \"contract/assignment3.sol\":2608:2609  i */\n      dup2\n        /* \"contract/assignment3.sol\":2608:2623  i < candidateNo */\n      lt\n        /* \"contract/assignment3.sol\":2592:2722  for(uint i = 0; i < candidateNo; i++) {\r... */\n      iszero\n      tag_181\n      jumpi\n        /* \"contract/assignment3.sol\":2660:2661  1 */\n      0x01\n        /* \"contract/assignment3.sol\":2656:2657  i */\n      dup2\n        /* \"contract/assignment3.sol\":2656:2661  i + 1 */\n      tag_183\n      swap2\n      swap1\n      tag_184\n      jump\t// in\n    tag_183:\n        /* \"contract/assignment3.sol\":2647:2650  ids */\n      dup4\n        /* \"contract/assignment3.sol\":2651:2652  i */\n      dup3\n        /* \"contract/assignment3.sol\":2647:2653  ids[i] */\n      dup2\n      mload\n      dup2\n      lt\n      tag_185\n      jumpi\n      mstore(0x00, 0x4e487b7100000000000000000000000000000000000000000000000000000000)\n      mstore(0x04, 0x32)\n      revert(0x00, 0x24)\n    tag_185:\n      0x20\n      mul\n      0x20\n      add\n      add\n        /* \"contract/assignment3.sol\":2647:2661  ids[i] = i + 1 */\n      dup2\n      dup2\n      mstore\n      pop\n      pop\n        /* \"contract/assignment3.sol\":2694:2707  candidateName */\n      0x03\n        /* \"contract/assignment3.sol\":2708:2709  i */\n      dup2\n        /* \"contract/assignment3.sol\":2694:2710  candidateName[i] */\n      dup2\n      sload\n      dup2\n      lt\n      tag_186\n      jumpi\n      mstore(0x00, 0x4e487b7100000000000000000000000000000000000000000000000000000000)\n      mstore(0x04, 0x32)\n      revert(0x00, 0x24)\n    tag_186:\n      swap1\n      0x00\n      mstore\n      keccak256(0x00, 0x20)\n      add\n        /* \"contract/assignment3.sol\":2683:2710  names[i] = candidateName[i] */\n      dup1\n      sload\n      tag_188\n      swap1\n      tag_78\n      jump\t// in\n    tag_188:\n      dup1\n      0x1f\n      add\n      0x20\n      dup1\n      swap2\n      div\n      mul\n      0x20\n      add\n      mload(0x40)\n      swap1\n      dup2\n      add\n      0x40\n      mstore\n      dup1\n      swap3\n      swap2\n      swap1\n      dup2\n      dup2\n      mstore\n      0x20\n      add\n      dup3\n      dup1\n      sload\n      tag_189\n      swap1\n      tag_78\n      jump\t// in\n    tag_189:\n      dup1\n      iszero\n      tag_190\n      jumpi\n      dup1\n      0x1f\n      lt\n      tag_191\n      jumpi\n      0x0100\n      dup1\n      dup4\n      sload\n      div\n      mul\n      dup4\n      mstore\n      swap2\n      0x20\n      add\n      swap2\n      jump(tag_190)\n    tag_191:\n      dup3\n      add\n      swap2\n      swap1\n      0x00\n      mstore\n      keccak256(0x00, 0x20)\n      swap1\n    tag_192:\n      dup2\n      sload\n      dup2\n      mstore\n      swap1\n      0x01\n      add\n      swap1\n      0x20\n      add\n      dup1\n      dup4\n      gt\n      tag_192\n      jumpi\n      dup3\n      swap1\n      sub\n      0x1f\n      and\n      dup3\n      add\n      swap2\n    tag_190:\n      pop\n      pop\n      pop\n      pop\n      pop\n        /* \"contract/assignment3.sol\":2683:2688  names */\n      dup3\n        /* \"contract/assignment3.sol\":2689:2690  i */\n      dup3\n        /* \"contract/assignment3.sol\":2683:2691  names[i] */\n      dup2\n      mload\n      dup2\n      lt\n      tag_193\n      jumpi\n      mstore(0x00, 0x4e487b7100000000000000000000000000000000000000000000000000000000)\n      mstore(0x04, 0x32)\n      revert(0x00, 0x24)\n    tag_193:\n      0x20\n      mul\n      0x20\n      add\n      add\n        /* \"contract/assignment3.sol\":2683:2710  names[i] = candidateName[i] */\n      dup2\n      swap1\n      mstore\n      pop\n        /* \"contract/assignment3.sol\":2625:2628  i++ */\n      dup1\n      dup1\n      tag_194\n      swap1\n      tag_75\n      jump\t// in\n    tag_194:\n      swap2\n      pop\n      pop\n        /* \"contract/assignment3.sol\":2592:2722  for(uint i = 0; i < candidateNo; i++) {\r... */\n      jump(tag_180)\n    tag_181:\n      pop\n        /* \"contract/assignment3.sol\":2749:2752  ids */\n      dup2\n        /* \"contract/assignment3.sol\":2754:2759  names */\n      dup2\n        /* \"contract/assignment3.sol\":2741:2760  return (ids, names) */\n      swap4\n      pop\n      swap4\n      pop\n      pop\n      pop\n        /* \"contract/assignment3.sol\":2300:2768  function viewCandidates () external view whenNotPaused returns(uint [] memory, string [] memory){\r... */\n      swap1\n      swap2\n      jump\t// out\n        /* \"contract/assignment3.sol\":1878:2291  function register (string memory _voterName , uint _age ) external{\r... */\n    tag_58:\n        /* \"contract/assignment3.sol\":1965:1979  haveRegistered */\n      0x09\n        /* \"contract/assignment3.sol\":1965:1991  haveRegistered[msg.sender] */\n      0x00\n        /* \"contract/assignment3.sol\":1980:1990  msg.sender */\n      caller\n        /* \"contract/assignment3.sol\":1965:1991  haveRegistered[msg.sender] */\n      0xffffffffffffffffffffffffffffffffffffffff\n      and\n      0xffffffffffffffffffffffffffffffffffffffff\n      and\n      dup2\n      mstore\n      0x20\n      add\n      swap1\n      dup2\n      mstore\n      0x20\n      add\n      0x00\n      keccak256\n      0x00\n      swap1\n      sload\n      swap1\n      0x0100\n      exp\n      swap1\n      div\n      0xff\n      and\n        /* \"contract/assignment3.sol\":1964:1991  !haveRegistered[msg.sender] */\n      iszero\n        /* \"contract/assignment3.sol\":1956:2015  require(!haveRegistered[msg.sender], \"user has registered\") */\n      tag_196\n      jumpi\n      mload(0x40)\n      0x08c379a000000000000000000000000000000000000000000000000000000000\n      dup2\n      mstore\n      0x04\n      add\n      tag_197\n      swap1\n      tag_198\n      jump\t// in\n    tag_197:\n      mload(0x40)\n      dup1\n      swap2\n      sub\n      swap1\n      revert\n    tag_196:\n        /* \"contract/assignment3.sol\":2044:2046  18 */\n      0x12\n        /* \"contract/assignment3.sol\":2036:2040  _age */\n      dup2\n        /* \"contract/assignment3.sol\":2036:2046  _age >= 18 */\n      lt\n      iszero\n        /* \"contract/assignment3.sol\":2027:2096  require (_age >= 18, \"user age below 18 can't register for the vote\") */\n      tag_199\n      jumpi\n      mload(0x40)\n      0x08c379a000000000000000000000000000000000000000000000000000000000\n      dup2\n      mstore\n      0x04\n      add\n      tag_200\n      swap1\n      tag_201\n      jump\t// in\n    tag_200:\n      mload(0x40)\n      dup1\n      swap2\n      sub\n      swap1\n      revert\n    tag_199:\n        /* \"contract/assignment3.sol\":2109:2116  voterNo */\n      0x02\n      0x00\n        /* \"contract/assignment3.sol\":2109:2118  voterNo++ */\n      dup2\n      sload\n      dup1\n      swap3\n      swap2\n      swap1\n      tag_202\n      swap1\n      tag_75\n      jump\t// in\n    tag_202:\n      swap2\n      swap1\n      pop\n      sstore\n      pop\n        /* \"contract/assignment3.sol\":2131:2137  voters */\n      0x06\n        /* \"contract/assignment3.sol\":2143:2173  voter(voterNo,_voterName,_age) */\n      mload(0x40)\n      dup1\n      0x60\n      add\n      0x40\n      mstore\n      dup1\n        /* \"contract/assignment3.sol\":2149:2156  voterNo */\n      sload(0x02)\n        /* \"contract/assignment3.sol\":2143:2173  voter(voterNo,_voterName,_age) */\n      dup2\n      mstore\n      0x20\n      add\n        /* \"contract/assignment3.sol\":2157:2167  _voterName */\n      dup5\n        /* \"contract/assignment3.sol\":2143:2173  voter(voterNo,_voterName,_age) */\n      dup2\n      mstore\n      0x20\n      add\n        /* \"contract/assignment3.sol\":2168:2172  _age */\n      dup4\n        /* \"contract/assignment3.sol\":2143:2173  voter(voterNo,_voterName,_age) */\n      dup2\n      mstore\n      pop\n        /* \"contract/assignment3.sol\":2131:2174  voters.push(voter(voterNo,_voterName,_age)) */\n      swap1\n      dup1\n      0x01\n      dup2\n      sload\n      add\n      dup1\n      dup3\n      sstore\n      dup1\n      swap2\n      pop\n      pop\n      0x01\n      swap1\n      sub\n      swap1\n      0x00\n      mstore\n      keccak256(0x00, 0x20)\n      swap1\n      0x03\n      mul\n      add\n      0x00\n      swap1\n      swap2\n      swap1\n      swap2\n      swap1\n      swap2\n      pop\n      0x00\n      dup3\n      add\n      mload\n      dup2\n      0x00\n      add\n      sstore\n      0x20\n      dup3\n      add\n      mload\n      dup2\n      0x01\n      add\n      swap1\n      dup1\n      mload\n      swap1\n      0x20\n      add\n      swap1\n      tag_204\n      swap3\n      swap2\n      swap1\n      tag_165\n      jump\t// in\n    tag_204:\n      pop\n      0x40\n      dup3\n      add\n      mload\n      dup2\n      0x02\n      add\n      sstore\n      pop\n      pop\n        /* \"contract/assignment3.sol\":2216:2220  true */\n      0x01\n        /* \"contract/assignment3.sol\":2187:2201  haveRegistered */\n      0x09\n        /* \"contract/assignment3.sol\":2187:2213  haveRegistered[msg.sender] */\n      0x00\n        /* \"contract/assignment3.sol\":2202:2212  msg.sender */\n      caller\n        /* \"contract/assignment3.sol\":2187:2213  haveRegistered[msg.sender] */\n      0xffffffffffffffffffffffffffffffffffffffff\n      and\n      0xffffffffffffffffffffffffffffffffffffffff\n      and\n      dup2\n      mstore\n      0x20\n      add\n      swap1\n      dup2\n      mstore\n      0x20\n      add\n      0x00\n      keccak256\n      0x00\n        /* \"contract/assignment3.sol\":2187:2220  haveRegistered[msg.sender] = true */\n      0x0100\n      exp\n      dup2\n      sload\n      dup2\n      0xff\n      mul\n      not\n      and\n      swap1\n      dup4\n      iszero\n      iszero\n      mul\n      or\n      swap1\n      sstore\n      pop\n        /* \"contract/assignment3.sol\":2272:2282  msg.sender */\n      caller\n        /* \"contract/assignment3.sol\":2239:2283  Registered(voterNo , _voterName, msg.sender) */\n      0xffffffffffffffffffffffffffffffffffffffff\n      and\n        /* \"contract/assignment3.sol\":2250:2257  voterNo */\n      sload(0x02)\n        /* \"contract/assignment3.sol\":2239:2283  Registered(voterNo , _voterName, msg.sender) */\n      0xca52e62c367d81bb2e328eb795f7c7ba24afb478408a26c0e201d155c449bc4a\n        /* \"contract/assignment3.sol\":2260:2270  _voterName */\n      dup5\n        /* \"contract/assignment3.sol\":2239:2283  Registered(voterNo , _voterName, msg.sender) */\n      mload(0x40)\n      tag_205\n      swap2\n      swap1\n      tag_27\n      jump\t// in\n    tag_205:\n      mload(0x40)\n      dup1\n      swap2\n      sub\n      swap1\n      log3\n        /* \"contract/assignment3.sol\":1878:2291  function register (string memory _voterName , uint _age ) external{\r... */\n      pop\n      pop\n      jump\t// out\n    tag_80:\n      dup3\n      dup1\n      sload\n      tag_206\n      swap1\n      tag_78\n      jump\t// in\n    tag_206:\n      swap1\n      0x00\n      mstore\n      keccak256(0x00, 0x20)\n      swap1\n      0x1f\n      add\n      0x20\n      swap1\n      div\n      dup2\n      add\n      swap3\n      dup3\n      tag_208\n      jumpi\n      0x00\n      dup6\n      sstore\n      jump(tag_207)\n    tag_208:\n      dup3\n      0x1f\n      lt\n      tag_209\n      jumpi\n      dup1\n      sload\n      dup6\n      sstore\n      jump(tag_207)\n    tag_209:\n      dup3\n      dup1\n      add\n      0x01\n      add\n      dup6\n      sstore\n      dup3\n      iszero\n      tag_207\n      jumpi\n      0x00\n      mstore\n      keccak256(0x00, 0x20)\n      swap2\n      0x1f\n      add\n      0x20\n      swap1\n      div\n      dup3\n      add\n    tag_210:\n      dup3\n      dup2\n      gt\n      iszero\n      tag_211\n      jumpi\n      dup3\n      sload\n      dup3\n      sstore\n      swap2\n      0x01\n      add\n      swap2\n      swap1\n      0x01\n      add\n      swap1\n      jump(tag_210)\n    tag_211:\n    tag_207:\n      pop\n      swap1\n      pop\n      tag_212\n      swap2\n      swap1\n      tag_213\n      jump\t// in\n    tag_212:\n      pop\n      swap1\n      jump\t// out\n    tag_165:\n      dup3\n      dup1\n      sload\n      tag_214\n      swap1\n      tag_78\n      jump\t// in\n    tag_214:\n      swap1\n      0x00\n      mstore\n      keccak256(0x00, 0x20)\n      swap1\n      0x1f\n      add\n      0x20\n      swap1\n      div\n      dup2\n      add\n      swap3\n      dup3\n      tag_216\n      jumpi\n      0x00\n      dup6\n      sstore\n      jump(tag_215)\n    tag_216:\n      dup3\n      0x1f\n      lt\n      tag_217\n      jumpi\n      dup1\n      mload\n      not(0xff)\n      and\n      dup4\n      dup1\n      add\n      or\n      dup6\n      sstore\n      jump(tag_215)\n    tag_217:\n      dup3\n      dup1\n      add\n      0x01\n      add\n      dup6\n      sstore\n      dup3\n      iszero\n      tag_215\n      jumpi\n      swap2\n      dup3\n      add\n    tag_218:\n      dup3\n      dup2\n      gt\n      iszero\n      tag_219\n      jumpi\n      dup3\n      mload\n      dup3\n      sstore\n      swap2\n      0x20\n      add\n      swap2\n      swap1\n      0x01\n      add\n      swap1\n      jump(tag_218)\n    tag_219:\n    tag_215:\n      pop\n      swap1\n      pop\n      tag_220\n      swap2\n      swap1\n      tag_213\n      jump\t// in\n    tag_220:\n      pop\n      swap1\n      jump\t// out\n    tag_213:\n    tag_221:\n      dup1\n      dup3\n      gt\n      iszero\n      tag_222\n      jumpi\n      0x00\n      dup2\n      0x00\n      swap1\n      sstore\n      pop\n      0x01\n      add\n      jump(tag_221)\n    tag_222:\n      pop\n      swap1\n      jump\t// out\n        /* \"#utility.yul\":7:352   */\n    tag_224:\n      0x00\n        /* \"#utility.yul\":110:176   */\n      tag_226\n        /* \"#utility.yul\":126:175   */\n      tag_227\n        /* \"#utility.yul\":168:174   */\n      dup5\n        /* \"#utility.yul\":126:175   */\n      tag_228\n      jump\t// in\n    tag_227:\n        /* \"#utility.yul\":110:176   */\n      tag_229\n      jump\t// in\n    tag_226:\n        /* \"#utility.yul\":101:176   */\n      swap1\n      pop\n        /* \"#utility.yul\":199:205   */\n      dup3\n        /* \"#utility.yul\":192:197   */\n      dup2\n        /* \"#utility.yul\":185:206   */\n      mstore\n        /* \"#utility.yul\":237:241   */\n      0x20\n        /* \"#utility.yul\":230:235   */\n      dup2\n        /* \"#utility.yul\":226:242   */\n      add\n        /* \"#utility.yul\":275:278   */\n      dup5\n        /* \"#utility.yul\":266:272   */\n      dup5\n        /* \"#utility.yul\":261:264   */\n      dup5\n        /* \"#utility.yul\":257:273   */\n      add\n        /* \"#utility.yul\":254:279   */\n      gt\n        /* \"#utility.yul\":251:253   */\n      iszero\n      tag_230\n      jumpi\n        /* \"#utility.yul\":292:293   */\n      0x00\n        /* \"#utility.yul\":289:290   */\n      dup1\n        /* \"#utility.yul\":282:294   */\n      revert\n        /* \"#utility.yul\":251:253   */\n    tag_230:\n        /* \"#utility.yul\":305:346   */\n      tag_231\n        /* \"#utility.yul\":339:345   */\n      dup5\n        /* \"#utility.yul\":334:337   */\n      dup3\n        /* \"#utility.yul\":329:332   */\n      dup6\n        /* \"#utility.yul\":305:346   */\n      tag_232\n      jump\t// in\n    tag_231:\n        /* \"#utility.yul\":91:352   */\n      pop\n      swap4\n      swap3\n      pop\n      pop\n      pop\n      jump\t// out\n        /* \"#utility.yul\":372:645   */\n    tag_233:\n      0x00\n        /* \"#utility.yul\":477:480   */\n      dup3\n        /* \"#utility.yul\":470:474   */\n      0x1f\n        /* \"#utility.yul\":462:468   */\n      dup4\n        /* \"#utility.yul\":458:475   */\n      add\n        /* \"#utility.yul\":454:481   */\n      slt\n        /* \"#utility.yul\":444:446   */\n      tag_235\n      jumpi\n        /* \"#utility.yul\":495:496   */\n      0x00\n        /* \"#utility.yul\":492:493   */\n      dup1\n        /* \"#utility.yul\":485:497   */\n      revert\n        /* \"#utility.yul\":444:446   */\n    tag_235:\n        /* \"#utility.yul\":535:541   */\n      dup2\n        /* \"#utility.yul\":522:542   */\n      calldataload\n        /* \"#utility.yul\":560:639   */\n      tag_236\n        /* \"#utility.yul\":635:638   */\n      dup5\n        /* \"#utility.yul\":627:633   */\n      dup3\n        /* \"#utility.yul\":620:624   */\n      0x20\n        /* \"#utility.yul\":612:618   */\n      dup7\n        /* \"#utility.yul\":608:625   */\n      add\n        /* \"#utility.yul\":560:639   */\n      tag_224\n      jump\t// in\n    tag_236:\n        /* \"#utility.yul\":551:639   */\n      swap2\n      pop\n        /* \"#utility.yul\":434:645   */\n      pop\n      swap3\n      swap2\n      pop\n      pop\n      jump\t// out\n        /* \"#utility.yul\":651:790   */\n    tag_237:\n      0x00\n        /* \"#utility.yul\":735:741   */\n      dup2\n        /* \"#utility.yul\":722:742   */\n      calldataload\n        /* \"#utility.yul\":713:742   */\n      swap1\n      pop\n        /* \"#utility.yul\":751:784   */\n      tag_239\n        /* \"#utility.yul\":778:783   */\n      dup2\n        /* \"#utility.yul\":751:784   */\n      tag_240\n      jump\t// in\n    tag_239:\n        /* \"#utility.yul\":703:790   */\n      swap3\n      swap2\n      pop\n      pop\n      jump\t// out\n        /* \"#utility.yul\":796:1171   */\n    tag_49:\n      0x00\n        /* \"#utility.yul\":914:916   */\n      0x20\n        /* \"#utility.yul\":902:911   */\n      dup3\n        /* \"#utility.yul\":893:900   */\n      dup5\n        /* \"#utility.yul\":889:912   */\n      sub\n        /* \"#utility.yul\":885:917   */\n      slt\n        /* \"#utility.yul\":882:884   */\n      iszero\n      tag_242\n      jumpi\n        /* \"#utility.yul\":930:931   */\n      0x00\n        /* \"#utility.yul\":927:928   */\n      dup1\n        /* \"#utility.yul\":920:932   */\n      revert\n        /* \"#utility.yul\":882:884   */\n    tag_242:\n        /* \"#utility.yul\":1001:1002   */\n      0x00\n        /* \"#utility.yul\":990:999   */\n      dup3\n        /* \"#utility.yul\":986:1003   */\n      add\n        /* \"#utility.yul\":973:1004   */\n      calldataload\n        /* \"#utility.yul\":1031:1049   */\n      0xffffffffffffffff\n        /* \"#utility.yul\":1023:1029   */\n      dup2\n        /* \"#utility.yul\":1020:1050   */\n      gt\n        /* \"#utility.yul\":1017:1019   */\n      iszero\n      tag_243\n      jumpi\n        /* \"#utility.yul\":1063:1064   */\n      0x00\n        /* \"#utility.yul\":1060:1061   */\n      dup1\n        /* \"#utility.yul\":1053:1065   */\n      revert\n        /* \"#utility.yul\":1017:1019   */\n    tag_243:\n        /* \"#utility.yul\":1091:1154   */\n      tag_244\n        /* \"#utility.yul\":1146:1153   */\n      dup5\n        /* \"#utility.yul\":1137:1143   */\n      dup3\n        /* \"#utility.yul\":1126:1135   */\n      dup6\n        /* \"#utility.yul\":1122:1144   */\n      add\n        /* \"#utility.yul\":1091:1154   */\n      tag_233\n      jump\t// in\n    tag_244:\n        /* \"#utility.yul\":1081:1154   */\n      swap2\n      pop\n        /* \"#utility.yul\":944:1164   */\n      pop\n        /* \"#utility.yul\":872:1171   */\n      swap3\n      swap2\n      pop\n      pop\n      jump\t// out\n        /* \"#utility.yul\":1177:1697   */\n    tag_57:\n      0x00\n      dup1\n        /* \"#utility.yul\":1312:1314   */\n      0x40\n        /* \"#utility.yul\":1300:1309   */\n      dup4\n        /* \"#utility.yul\":1291:1298   */\n      dup6\n        /* \"#utility.yul\":1287:1310   */\n      sub\n        /* \"#utility.yul\":1283:1315   */\n      slt\n        /* \"#utility.yul\":1280:1282   */\n      iszero\n      tag_246\n      jumpi\n        /* \"#utility.yul\":1328:1329   */\n      0x00\n        /* \"#utility.yul\":1325:1326   */\n      dup1\n        /* \"#utility.yul\":1318:1330   */\n      revert\n        /* \"#utility.yul\":1280:1282   */\n    tag_246:\n        /* \"#utility.yul\":1399:1400   */\n      0x00\n        /* \"#utility.yul\":1388:1397   */\n      dup4\n        /* \"#utility.yul\":1384:1401   */\n      add\n        /* \"#utility.yul\":1371:1402   */\n      calldataload\n        /* \"#utility.yul\":1429:1447   */\n      0xffffffffffffffff\n        /* \"#utility.yul\":1421:1427   */\n      dup2\n        /* \"#utility.yul\":1418:1448   */\n      gt\n        /* \"#utility.yul\":1415:1417   */\n      iszero\n      tag_247\n      jumpi\n        /* \"#utility.yul\":1461:1462   */\n      0x00\n        /* \"#utility.yul\":1458:1459   */\n      dup1\n        /* \"#utility.yul\":1451:1463   */\n      revert\n        /* \"#utility.yul\":1415:1417   */\n    tag_247:\n        /* \"#utility.yul\":1489:1552   */\n      tag_248\n        /* \"#utility.yul\":1544:1551   */\n      dup6\n        /* \"#utility.yul\":1535:1541   */\n      dup3\n        /* \"#utility.yul\":1524:1533   */\n      dup7\n        /* \"#utility.yul\":1520:1542   */\n      add\n        /* \"#utility.yul\":1489:1552   */\n      tag_233\n      jump\t// in\n    tag_248:\n        /* \"#utility.yul\":1479:1552   */\n      swap3\n      pop\n        /* \"#utility.yul\":1342:1562   */\n      pop\n        /* \"#utility.yul\":1601:1603   */\n      0x20\n        /* \"#utility.yul\":1627:1680   */\n      tag_249\n        /* \"#utility.yul\":1672:1679   */\n      dup6\n        /* \"#utility.yul\":1663:1669   */\n      dup3\n        /* \"#utility.yul\":1652:1661   */\n      dup7\n        /* \"#utility.yul\":1648:1670   */\n      add\n        /* \"#utility.yul\":1627:1680   */\n      tag_237\n      jump\t// in\n    tag_249:\n        /* \"#utility.yul\":1617:1680   */\n      swap2\n      pop\n        /* \"#utility.yul\":1572:1690   */\n      pop\n        /* \"#utility.yul\":1270:1697   */\n      swap3\n      pop\n      swap3\n      swap1\n      pop\n      jump\t// out\n        /* \"#utility.yul\":1703:1965   */\n    tag_18:\n      0x00\n        /* \"#utility.yul\":1811:1813   */\n      0x20\n        /* \"#utility.yul\":1799:1808   */\n      dup3\n        /* \"#utility.yul\":1790:1797   */\n      dup5\n        /* \"#utility.yul\":1786:1809   */\n      sub\n        /* \"#utility.yul\":1782:1814   */\n      slt\n        /* \"#utility.yul\":1779:1781   */\n      iszero\n      tag_251\n      jumpi\n        /* \"#utility.yul\":1827:1828   */\n      0x00\n        /* \"#utility.yul\":1824:1825   */\n      dup1\n        /* \"#utility.yul\":1817:1829   */\n      revert\n        /* \"#utility.yul\":1779:1781   */\n    tag_251:\n        /* \"#utility.yul\":1870:1871   */\n      0x00\n        /* \"#utility.yul\":1895:1948   */\n      tag_252\n        /* \"#utility.yul\":1940:1947   */\n      dup5\n        /* \"#utility.yul\":1931:1937   */\n      dup3\n        /* \"#utility.yul\":1920:1929   */\n      dup6\n        /* \"#utility.yul\":1916:1938   */\n      add\n        /* \"#utility.yul\":1895:1948   */\n      tag_237\n      jump\t// in\n    tag_252:\n        /* \"#utility.yul\":1885:1948   */\n      swap2\n      pop\n        /* \"#utility.yul\":1841:1958   */\n      pop\n        /* \"#utility.yul\":1769:1965   */\n      swap3\n      swap2\n      pop\n      pop\n      jump\t// out\n        /* \"#utility.yul\":1971:2167   */\n    tag_253:\n      0x00\n        /* \"#utility.yul\":2095:2161   */\n      tag_255\n        /* \"#utility.yul\":2157:2160   */\n      dup4\n        /* \"#utility.yul\":2149:2155   */\n      dup4\n        /* \"#utility.yul\":2095:2161   */\n      tag_256\n      jump\t// in\n    tag_255:\n        /* \"#utility.yul\":2081:2161   */\n      swap1\n      pop\n        /* \"#utility.yul\":2071:2167   */\n      swap3\n      swap2\n      pop\n      pop\n      jump\t// out\n        /* \"#utility.yul\":2173:2352   */\n    tag_257:\n      0x00\n        /* \"#utility.yul\":2263:2309   */\n      tag_259\n        /* \"#utility.yul\":2305:2308   */\n      dup4\n        /* \"#utility.yul\":2297:2303   */\n      dup4\n        /* \"#utility.yul\":2263:2309   */\n      tag_260\n      jump\t// in\n    tag_259:\n        /* \"#utility.yul\":2341:2345   */\n      0x20\n        /* \"#utility.yul\":2336:2339   */\n      dup4\n        /* \"#utility.yul\":2332:2346   */\n      add\n        /* \"#utility.yul\":2318:2346   */\n      swap1\n      pop\n        /* \"#utility.yul\":2253:2352   */\n      swap3\n      swap2\n      pop\n      pop\n      jump\t// out\n        /* \"#utility.yul\":2358:2476   */\n    tag_261:\n        /* \"#utility.yul\":2445:2469   */\n      tag_263\n        /* \"#utility.yul\":2463:2468   */\n      dup2\n        /* \"#utility.yul\":2445:2469   */\n      tag_264\n      jump\t// in\n    tag_263:\n        /* \"#utility.yul\":2440:2443   */\n      dup3\n        /* \"#utility.yul\":2433:2470   */\n      mstore\n        /* \"#utility.yul\":2423:2476   */\n      pop\n      pop\n      jump\t// out\n        /* \"#utility.yul\":2510:3501   */\n    tag_265:\n      0x00\n        /* \"#utility.yul\":2678:2742   */\n      tag_267\n        /* \"#utility.yul\":2736:2741   */\n      dup3\n        /* \"#utility.yul\":2678:2742   */\n      tag_268\n      jump\t// in\n    tag_267:\n        /* \"#utility.yul\":2758:2854   */\n      tag_269\n        /* \"#utility.yul\":2847:2853   */\n      dup2\n        /* \"#utility.yul\":2842:2845   */\n      dup6\n        /* \"#utility.yul\":2758:2854   */\n      tag_270\n      jump\t// in\n    tag_269:\n        /* \"#utility.yul\":2751:2854   */\n      swap4\n      pop\n        /* \"#utility.yul\":2880:2883   */\n      dup4\n        /* \"#utility.yul\":2925:2929   */\n      0x20\n        /* \"#utility.yul\":2917:2923   */\n      dup3\n        /* \"#utility.yul\":2913:2930   */\n      mul\n        /* \"#utility.yul\":2908:2911   */\n      dup6\n        /* \"#utility.yul\":2904:2931   */\n      add\n        /* \"#utility.yul\":2955:3021   */\n      tag_271\n        /* \"#utility.yul\":3015:3020   */\n      dup6\n        /* \"#utility.yul\":2955:3021   */\n      tag_272\n      jump\t// in\n    tag_271:\n        /* \"#utility.yul\":3044:3051   */\n      dup1\n        /* \"#utility.yul\":3075:3076   */\n      0x00\n        /* \"#utility.yul\":3060:3456   */\n    tag_273:\n        /* \"#utility.yul\":3085:3091   */\n      dup6\n        /* \"#utility.yul\":3082:3083   */\n      dup2\n        /* \"#utility.yul\":3079:3092   */\n      lt\n        /* \"#utility.yul\":3060:3456   */\n      iszero\n      tag_275\n      jumpi\n        /* \"#utility.yul\":3156:3165   */\n      dup5\n        /* \"#utility.yul\":3150:3154   */\n      dup5\n        /* \"#utility.yul\":3146:3166   */\n      sub\n        /* \"#utility.yul\":3141:3144   */\n      dup10\n        /* \"#utility.yul\":3134:3167   */\n      mstore\n        /* \"#utility.yul\":3207:3213   */\n      dup2\n        /* \"#utility.yul\":3201:3214   */\n      mload\n        /* \"#utility.yul\":3235:3319   */\n      tag_276\n        /* \"#utility.yul\":3314:3318   */\n      dup6\n        /* \"#utility.yul\":3299:3312   */\n      dup3\n        /* \"#utility.yul\":3235:3319   */\n      tag_253\n      jump\t// in\n    tag_276:\n        /* \"#utility.yul\":3227:3319   */\n      swap5\n      pop\n        /* \"#utility.yul\":3342:3412   */\n      tag_277\n        /* \"#utility.yul\":3405:3411   */\n      dup4\n        /* \"#utility.yul\":3342:3412   */\n      tag_278\n      jump\t// in\n    tag_277:\n        /* \"#utility.yul\":3332:3412   */\n      swap3\n      pop\n        /* \"#utility.yul\":3441:3445   */\n      0x20\n        /* \"#utility.yul\":3436:3439   */\n      dup11\n        /* \"#utility.yul\":3432:3446   */\n      add\n        /* \"#utility.yul\":3425:3446   */\n      swap10\n      pop\n        /* \"#utility.yul\":3120:3456   */\n      pop\n        /* \"#utility.yul\":3107:3108   */\n      0x01\n        /* \"#utility.yul\":3104:3105   */\n      dup2\n        /* \"#utility.yul\":3100:3109   */\n      add\n        /* \"#utility.yul\":3095:3109   */\n      swap1\n      pop\n        /* \"#utility.yul\":3060:3456   */\n      jump(tag_273)\n    tag_275:\n        /* \"#utility.yul\":3064:3078   */\n      pop\n        /* \"#utility.yul\":3472:3476   */\n      dup3\n        /* \"#utility.yul\":3465:3476   */\n      swap8\n      pop\n        /* \"#utility.yul\":3492:3495   */\n      dup8\n        /* \"#utility.yul\":3485:3495   */\n      swap6\n      pop\n        /* \"#utility.yul\":2654:3501   */\n      pop\n      pop\n      pop\n      pop\n      pop\n      swap3\n      swap2\n      pop\n      pop\n      jump\t// out\n        /* \"#utility.yul\":3537:4269   */\n    tag_279:\n      0x00\n        /* \"#utility.yul\":3685:3739   */\n      tag_281\n        /* \"#utility.yul\":3733:3738   */\n      dup3\n        /* \"#utility.yul\":3685:3739   */\n      tag_282\n      jump\t// in\n    tag_281:\n        /* \"#utility.yul\":3755:3841   */\n      tag_283\n        /* \"#utility.yul\":3834:3840   */\n      dup2\n        /* \"#utility.yul\":3829:3832   */\n      dup6\n        /* \"#utility.yul\":3755:3841   */\n      tag_284\n      jump\t// in\n    tag_283:\n        /* \"#utility.yul\":3748:3841   */\n      swap4\n      pop\n        /* \"#utility.yul\":3865:3921   */\n      tag_285\n        /* \"#utility.yul\":3915:3920   */\n      dup4\n        /* \"#utility.yul\":3865:3921   */\n      tag_286\n      jump\t// in\n    tag_285:\n        /* \"#utility.yul\":3944:3951   */\n      dup1\n        /* \"#utility.yul\":3975:3976   */\n      0x00\n        /* \"#utility.yul\":3960:4244   */\n    tag_287:\n        /* \"#utility.yul\":3985:3991   */\n      dup4\n        /* \"#utility.yul\":3982:3983   */\n      dup2\n        /* \"#utility.yul\":3979:3992   */\n      lt\n        /* \"#utility.yul\":3960:4244   */\n      iszero\n      tag_289\n      jumpi\n        /* \"#utility.yul\":4061:4067   */\n      dup2\n        /* \"#utility.yul\":4055:4068   */\n      mload\n        /* \"#utility.yul\":4088:4151   */\n      tag_290\n        /* \"#utility.yul\":4147:4150   */\n      dup9\n        /* \"#utility.yul\":4132:4145   */\n      dup3\n        /* \"#utility.yul\":4088:4151   */\n      tag_257\n      jump\t// in\n    tag_290:\n        /* \"#utility.yul\":4081:4151   */\n      swap8\n      pop\n        /* \"#utility.yul\":4174:4234   */\n      tag_291\n        /* \"#utility.yul\":4227:4233   */\n      dup4\n        /* \"#utility.yul\":4174:4234   */\n      tag_292\n      jump\t// in\n    tag_291:\n        /* \"#utility.yul\":4164:4234   */\n      swap3\n      pop\n        /* \"#utility.yul\":4020:4244   */\n      pop\n        /* \"#utility.yul\":4007:4008   */\n      0x01\n        /* \"#utility.yul\":4004:4005   */\n      dup2\n        /* \"#utility.yul\":4000:4009   */\n      add\n        /* \"#utility.yul\":3995:4009   */\n      swap1\n      pop\n        /* \"#utility.yul\":3960:4244   */\n      jump(tag_287)\n    tag_289:\n        /* \"#utility.yul\":3964:3978   */\n      pop\n        /* \"#utility.yul\":4260:4263   */\n      dup6\n        /* \"#utility.yul\":4253:4263   */\n      swap4\n      pop\n        /* \"#utility.yul\":3661:4269   */\n      pop\n      pop\n      pop\n      swap3\n      swap2\n      pop\n      pop\n      jump\t// out\n        /* \"#utility.yul\":4275:4384   */\n    tag_293:\n        /* \"#utility.yul\":4356:4377   */\n      tag_295\n        /* \"#utility.yul\":4371:4376   */\n      dup2\n        /* \"#utility.yul\":4356:4377   */\n      tag_296\n      jump\t// in\n    tag_295:\n        /* \"#utility.yul\":4351:4354   */\n      dup3\n        /* \"#utility.yul\":4344:4378   */\n      mstore\n        /* \"#utility.yul\":4334:4384   */\n      pop\n      pop\n      jump\t// out\n        /* \"#utility.yul\":4412:5261   */\n    tag_297:\n      0x00\n        /* \"#utility.yul\":4554:4559   */\n      dup2\n        /* \"#utility.yul\":4548:4560   */\n      sload\n        /* \"#utility.yul\":4583:4619   */\n      tag_299\n        /* \"#utility.yul\":4609:4618   */\n      dup2\n        /* \"#utility.yul\":4583:4619   */\n      tag_78\n      jump\t// in\n    tag_299:\n        /* \"#utility.yul\":4635:4723   */\n      tag_300\n        /* \"#utility.yul\":4716:4722   */\n      dup2\n        /* \"#utility.yul\":4711:4714   */\n      dup7\n        /* \"#utility.yul\":4635:4723   */\n      tag_301\n      jump\t// in\n    tag_300:\n        /* \"#utility.yul\":4628:4723   */\n      swap5\n      pop\n        /* \"#utility.yul\":4754:4755   */\n      0x01\n        /* \"#utility.yul\":4743:4752   */\n      dup3\n        /* \"#utility.yul\":4739:4756   */\n      and\n        /* \"#utility.yul\":4770:4771   */\n      0x00\n        /* \"#utility.yul\":4765:4902   */\n      dup2\n      eq\n      tag_303\n      jumpi\n        /* \"#utility.yul\":4916:4917   */\n      0x01\n        /* \"#utility.yul\":4911:5255   */\n      dup2\n      eq\n      tag_304\n      jumpi\n        /* \"#utility.yul\":4732:5255   */\n      jump(tag_302)\n        /* \"#utility.yul\":4765:4902   */\n    tag_303:\n        /* \"#utility.yul\":4849:4853   */\n      0xff\n        /* \"#utility.yul\":4845:4854   */\n      not\n        /* \"#utility.yul\":4834:4843   */\n      dup4\n        /* \"#utility.yul\":4830:4855   */\n      and\n        /* \"#utility.yul\":4825:4828   */\n      dup7\n        /* \"#utility.yul\":4818:4856   */\n      mstore\n        /* \"#utility.yul\":4885:4891   */\n      dup2\n        /* \"#utility.yul\":4880:4883   */\n      dup7\n        /* \"#utility.yul\":4876:4892   */\n      add\n        /* \"#utility.yul\":4869:4892   */\n      swap4\n      pop\n        /* \"#utility.yul\":4765:4902   */\n      jump(tag_302)\n        /* \"#utility.yul\":4911:5255   */\n    tag_304:\n        /* \"#utility.yul\":4978:5019   */\n      tag_305\n        /* \"#utility.yul\":5013:5018   */\n      dup6\n        /* \"#utility.yul\":4978:5019   */\n      tag_306\n      jump\t// in\n    tag_305:\n        /* \"#utility.yul\":5041:5042   */\n      0x00\n        /* \"#utility.yul\":5055:5209   */\n    tag_307:\n        /* \"#utility.yul\":5069:5075   */\n      dup4\n        /* \"#utility.yul\":5066:5067   */\n      dup2\n        /* \"#utility.yul\":5063:5076   */\n      lt\n        /* \"#utility.yul\":5055:5209   */\n      iszero\n      tag_309\n      jumpi\n        /* \"#utility.yul\":5143:5150   */\n      dup2\n        /* \"#utility.yul\":5137:5151   */\n      sload\n        /* \"#utility.yul\":5133:5134   */\n      dup2\n        /* \"#utility.yul\":5128:5131   */\n      dup10\n        /* \"#utility.yul\":5124:5135   */\n      add\n        /* \"#utility.yul\":5117:5152   */\n      mstore\n        /* \"#utility.yul\":5193:5194   */\n      0x01\n        /* \"#utility.yul\":5184:5191   */\n      dup3\n        /* \"#utility.yul\":5180:5195   */\n      add\n        /* \"#utility.yul\":5169:5195   */\n      swap2\n      pop\n        /* \"#utility.yul\":5091:5095   */\n      0x20\n        /* \"#utility.yul\":5088:5089   */\n      dup2\n        /* \"#utility.yul\":5084:5096   */\n      add\n        /* \"#utility.yul\":5079:5096   */\n      swap1\n      pop\n        /* \"#utility.yul\":5055:5209   */\n      jump(tag_307)\n    tag_309:\n        /* \"#utility.yul\":5238:5244   */\n      dup4\n        /* \"#utility.yul\":5233:5236   */\n      dup9\n        /* \"#utility.yul\":5229:5245   */\n      add\n        /* \"#utility.yul\":5222:5245   */\n      swap6\n      pop\n        /* \"#utility.yul\":4918:5255   */\n      pop\n      pop\n        /* \"#utility.yul\":4732:5255   */\n    tag_302:\n      pop\n        /* \"#utility.yul\":4521:5261   */\n      pop\n      pop\n      swap3\n      swap2\n      pop\n      pop\n      jump\t// out\n        /* \"#utility.yul\":5267:5611   */\n    tag_256:\n      0x00\n        /* \"#utility.yul\":5373:5412   */\n      tag_311\n        /* \"#utility.yul\":5406:5411   */\n      dup3\n        /* \"#utility.yul\":5373:5412   */\n      tag_312\n      jump\t// in\n    tag_311:\n        /* \"#utility.yul\":5428:5489   */\n      tag_313\n        /* \"#utility.yul\":5482:5488   */\n      dup2\n        /* \"#utility.yul\":5477:5480   */\n      dup6\n        /* \"#utility.yul\":5428:5489   */\n      tag_314\n      jump\t// in\n    tag_313:\n        /* \"#utility.yul\":5421:5489   */\n      swap4\n      pop\n        /* \"#utility.yul\":5498:5550   */\n      tag_315\n        /* \"#utility.yul\":5543:5549   */\n      dup2\n        /* \"#utility.yul\":5538:5541   */\n      dup6\n        /* \"#utility.yul\":5531:5535   */\n      0x20\n        /* \"#utility.yul\":5524:5529   */\n      dup7\n        /* \"#utility.yul\":5520:5536   */\n      add\n        /* \"#utility.yul\":5498:5550   */\n      tag_316\n      jump\t// in\n    tag_315:\n        /* \"#utility.yul\":5575:5604   */\n      tag_317\n        /* \"#utility.yul\":5597:5603   */\n      dup2\n        /* \"#utility.yul\":5575:5604   */\n      tag_318\n      jump\t// in\n    tag_317:\n        /* \"#utility.yul\":5570:5573   */\n      dup5\n        /* \"#utility.yul\":5566:5605   */\n      add\n        /* \"#utility.yul\":5559:5605   */\n      swap2\n      pop\n        /* \"#utility.yul\":5349:5611   */\n      pop\n      swap3\n      swap2\n      pop\n      pop\n      jump\t// out\n        /* \"#utility.yul\":5617:5981   */\n    tag_319:\n      0x00\n        /* \"#utility.yul\":5733:5772   */\n      tag_321\n        /* \"#utility.yul\":5766:5771   */\n      dup3\n        /* \"#utility.yul\":5733:5772   */\n      tag_312\n      jump\t// in\n    tag_321:\n        /* \"#utility.yul\":5788:5859   */\n      tag_322\n        /* \"#utility.yul\":5852:5858   */\n      dup2\n        /* \"#utility.yul\":5847:5850   */\n      dup6\n        /* \"#utility.yul\":5788:5859   */\n      tag_323\n      jump\t// in\n    tag_322:\n        /* \"#utility.yul\":5781:5859   */\n      swap4\n      pop\n        /* \"#utility.yul\":5868:5920   */\n      tag_324\n        /* \"#utility.yul\":5913:5919   */\n      dup2\n        /* \"#utility.yul\":5908:5911   */\n      dup6\n        /* \"#utility.yul\":5901:5905   */\n      0x20\n        /* \"#utility.yul\":5894:5899   */\n      dup7\n        /* \"#utility.yul\":5890:5906   */\n      add\n        /* \"#utility.yul\":5868:5920   */\n      tag_316\n      jump\t// in\n    tag_324:\n        /* \"#utility.yul\":5945:5974   */\n      tag_325\n        /* \"#utility.yul\":5967:5973   */\n      dup2\n        /* \"#utility.yul\":5945:5974   */\n      tag_318\n      jump\t// in\n    tag_325:\n        /* \"#utility.yul\":5940:5943   */\n      dup5\n        /* \"#utility.yul\":5936:5975   */\n      add\n        /* \"#utility.yul\":5929:5975   */\n      swap2\n      pop\n        /* \"#utility.yul\":5709:5981   */\n      pop\n      swap3\n      swap2\n      pop\n      pop\n      jump\t// out\n        /* \"#utility.yul\":5987:6353   */\n    tag_326:\n      0x00\n        /* \"#utility.yul\":6150:6217   */\n      tag_328\n        /* \"#utility.yul\":6214:6216   */\n      0x2d\n        /* \"#utility.yul\":6209:6212   */\n      dup4\n        /* \"#utility.yul\":6150:6217   */\n      tag_323\n      jump\t// in\n    tag_328:\n        /* \"#utility.yul\":6143:6217   */\n      swap2\n      pop\n        /* \"#utility.yul\":6226:6319   */\n      tag_329\n        /* \"#utility.yul\":6315:6318   */\n      dup3\n        /* \"#utility.yul\":6226:6319   */\n      tag_330\n      jump\t// in\n    tag_329:\n        /* \"#utility.yul\":6344:6346   */\n      0x40\n        /* \"#utility.yul\":6339:6342   */\n      dup3\n        /* \"#utility.yul\":6335:6347   */\n      add\n        /* \"#utility.yul\":6328:6347   */\n      swap1\n      pop\n        /* \"#utility.yul\":6133:6353   */\n      swap2\n      swap1\n      pop\n      jump\t// out\n        /* \"#utility.yul\":6359:6725   */\n    tag_331:\n      0x00\n        /* \"#utility.yul\":6522:6589   */\n      tag_333\n        /* \"#utility.yul\":6586:6588   */\n      0x14\n        /* \"#utility.yul\":6581:6584   */\n      dup4\n        /* \"#utility.yul\":6522:6589   */\n      tag_323\n      jump\t// in\n    tag_333:\n        /* \"#utility.yul\":6515:6589   */\n      swap2\n      pop\n        /* \"#utility.yul\":6598:6691   */\n      tag_334\n        /* \"#utility.yul\":6687:6690   */\n      dup3\n        /* \"#utility.yul\":6598:6691   */\n      tag_335\n      jump\t// in\n    tag_334:\n        /* \"#utility.yul\":6716:6718   */\n      0x20\n        /* \"#utility.yul\":6711:6714   */\n      dup3\n        /* \"#utility.yul\":6707:6719   */\n      add\n        /* \"#utility.yul\":6700:6719   */\n      swap1\n      pop\n        /* \"#utility.yul\":6505:6725   */\n      swap2\n      swap1\n      pop\n      jump\t// out\n        /* \"#utility.yul\":6731:7097   */\n    tag_336:\n      0x00\n        /* \"#utility.yul\":6894:6961   */\n      tag_338\n        /* \"#utility.yul\":6958:6960   */\n      0x15\n        /* \"#utility.yul\":6953:6956   */\n      dup4\n        /* \"#utility.yul\":6894:6961   */\n      tag_323\n      jump\t// in\n    tag_338:\n        /* \"#utility.yul\":6887:6961   */\n      swap2\n      pop\n        /* \"#utility.yul\":6970:7063   */\n      tag_339\n        /* \"#utility.yul\":7059:7062   */\n      dup3\n        /* \"#utility.yul\":6970:7063   */\n      tag_340\n      jump\t// in\n    tag_339:\n        /* \"#utility.yul\":7088:7090   */\n      0x20\n        /* \"#utility.yul\":7083:7086   */\n      dup3\n        /* \"#utility.yul\":7079:7091   */\n      add\n        /* \"#utility.yul\":7072:7091   */\n      swap1\n      pop\n        /* \"#utility.yul\":6877:7097   */\n      swap2\n      swap1\n      pop\n      jump\t// out\n        /* \"#utility.yul\":7103:7469   */\n    tag_341:\n      0x00\n        /* \"#utility.yul\":7266:7333   */\n      tag_343\n        /* \"#utility.yul\":7330:7332   */\n      0x15\n        /* \"#utility.yul\":7325:7328   */\n      dup4\n        /* \"#utility.yul\":7266:7333   */\n      tag_323\n      jump\t// in\n    tag_343:\n        /* \"#utility.yul\":7259:7333   */\n      swap2\n      pop\n        /* \"#utility.yul\":7342:7435   */\n      tag_344\n        /* \"#utility.yul\":7431:7434   */\n      dup3\n        /* \"#utility.yul\":7342:7435   */\n      tag_345\n      jump\t// in\n    tag_344:\n        /* \"#utility.yul\":7460:7462   */\n      0x20\n        /* \"#utility.yul\":7455:7458   */\n      dup3\n        /* \"#utility.yul\":7451:7463   */\n      add\n        /* \"#utility.yul\":7444:7463   */\n      swap1\n      pop\n        /* \"#utility.yul\":7249:7469   */\n      swap2\n      swap1\n      pop\n      jump\t// out\n        /* \"#utility.yul\":7475:7841   */\n    tag_346:\n      0x00\n        /* \"#utility.yul\":7638:7705   */\n      tag_348\n        /* \"#utility.yul\":7702:7704   */\n      0x27\n        /* \"#utility.yul\":7697:7700   */\n      dup4\n        /* \"#utility.yul\":7638:7705   */\n      tag_323\n      jump\t// in\n    tag_348:\n        /* \"#utility.yul\":7631:7705   */\n      swap2\n      pop\n        /* \"#utility.yul\":7714:7807   */\n      tag_349\n        /* \"#utility.yul\":7803:7806   */\n      dup3\n        /* \"#utility.yul\":7714:7807   */\n      tag_350\n      jump\t// in\n    tag_349:\n        /* \"#utility.yul\":7832:7834   */\n      0x40\n        /* \"#utility.yul\":7827:7830   */\n      dup3\n        /* \"#utility.yul\":7823:7835   */\n      add\n        /* \"#utility.yul\":7816:7835   */\n      swap1\n      pop\n        /* \"#utility.yul\":7621:7841   */\n      swap2\n      swap1\n      pop\n      jump\t// out\n        /* \"#utility.yul\":7847:8213   */\n    tag_351:\n      0x00\n        /* \"#utility.yul\":8010:8077   */\n      tag_353\n        /* \"#utility.yul\":8074:8076   */\n      0x1b\n        /* \"#utility.yul\":8069:8072   */\n      dup4\n        /* \"#utility.yul\":8010:8077   */\n      tag_323\n      jump\t// in\n    tag_353:\n        /* \"#utility.yul\":8003:8077   */\n      swap2\n      pop\n        /* \"#utility.yul\":8086:8179   */\n      tag_354\n        /* \"#utility.yul\":8175:8178   */\n      dup3\n        /* \"#utility.yul\":8086:8179   */\n      tag_355\n      jump\t// in\n    tag_354:\n        /* \"#utility.yul\":8204:8206   */\n      0x20\n        /* \"#utility.yul\":8199:8202   */\n      dup3\n        /* \"#utility.yul\":8195:8207   */\n      add\n        /* \"#utility.yul\":8188:8207   */\n      swap1\n      pop\n        /* \"#utility.yul\":7993:8213   */\n      swap2\n      swap1\n      pop\n      jump\t// out\n        /* \"#utility.yul\":8219:8585   */\n    tag_356:\n      0x00\n        /* \"#utility.yul\":8382:8449   */\n      tag_358\n        /* \"#utility.yul\":8446:8448   */\n      0x1b\n        /* \"#utility.yul\":8441:8444   */\n      dup4\n        /* \"#utility.yul\":8382:8449   */\n      tag_323\n      jump\t// in\n    tag_358:\n        /* \"#utility.yul\":8375:8449   */\n      swap2\n      pop\n        /* \"#utility.yul\":8458:8551   */\n      tag_359\n        /* \"#utility.yul\":8547:8550   */\n      dup3\n        /* \"#utility.yul\":8458:8551   */\n      tag_360\n      jump\t// in\n    tag_359:\n        /* \"#utility.yul\":8576:8578   */\n      0x20\n        /* \"#utility.yul\":8571:8574   */\n      dup3\n        /* \"#utility.yul\":8567:8579   */\n      add\n        /* \"#utility.yul\":8560:8579   */\n      swap1\n      pop\n        /* \"#utility.yul\":8365:8585   */\n      swap2\n      swap1\n      pop\n      jump\t// out\n        /* \"#utility.yul\":8591:8957   */\n    tag_361:\n      0x00\n        /* \"#utility.yul\":8754:8821   */\n      tag_363\n        /* \"#utility.yul\":8818:8820   */\n      0x16\n        /* \"#utility.yul\":8813:8816   */\n      dup4\n        /* \"#utility.yul\":8754:8821   */\n      tag_323\n      jump\t// in\n    tag_363:\n        /* \"#utility.yul\":8747:8821   */\n      swap2\n      pop\n        /* \"#utility.yul\":8830:8923   */\n      tag_364\n        /* \"#utility.yul\":8919:8922   */\n      dup3\n        /* \"#utility.yul\":8830:8923   */\n      tag_365\n      jump\t// in\n    tag_364:\n        /* \"#utility.yul\":8948:8950   */\n      0x20\n        /* \"#utility.yul\":8943:8946   */\n      dup3\n        /* \"#utility.yul\":8939:8951   */\n      add\n        /* \"#utility.yul\":8932:8951   */\n      swap1\n      pop\n        /* \"#utility.yul\":8737:8957   */\n      swap2\n      swap1\n      pop\n      jump\t// out\n        /* \"#utility.yul\":8963:9329   */\n    tag_366:\n      0x00\n        /* \"#utility.yul\":9126:9193   */\n      tag_368\n        /* \"#utility.yul\":9190:9192   */\n      0x16\n        /* \"#utility.yul\":9185:9188   */\n      dup4\n        /* \"#utility.yul\":9126:9193   */\n      tag_323\n      jump\t// in\n    tag_368:\n        /* \"#utility.yul\":9119:9193   */\n      swap2\n      pop\n        /* \"#utility.yul\":9202:9295   */\n      tag_369\n        /* \"#utility.yul\":9291:9294   */\n      dup3\n        /* \"#utility.yul\":9202:9295   */\n      tag_370\n      jump\t// in\n    tag_369:\n        /* \"#utility.yul\":9320:9322   */\n      0x20\n        /* \"#utility.yul\":9315:9318   */\n      dup3\n        /* \"#utility.yul\":9311:9323   */\n      add\n        /* \"#utility.yul\":9304:9323   */\n      swap1\n      pop\n        /* \"#utility.yul\":9109:9329   */\n      swap2\n      swap1\n      pop\n      jump\t// out\n        /* \"#utility.yul\":9335:9701   */\n    tag_371:\n      0x00\n        /* \"#utility.yul\":9498:9565   */\n      tag_373\n        /* \"#utility.yul\":9562:9564   */\n      0x1a\n        /* \"#utility.yul\":9557:9560   */\n      dup4\n        /* \"#utility.yul\":9498:9565   */\n      tag_323\n      jump\t// in\n    tag_373:\n        /* \"#utility.yul\":9491:9565   */\n      swap2\n      pop\n        /* \"#utility.yul\":9574:9667   */\n      tag_374\n        /* \"#utility.yul\":9663:9666   */\n      dup3\n        /* \"#utility.yul\":9574:9667   */\n      tag_375\n      jump\t// in\n    tag_374:\n        /* \"#utility.yul\":9692:9694   */\n      0x20\n        /* \"#utility.yul\":9687:9690   */\n      dup3\n        /* \"#utility.yul\":9683:9695   */\n      add\n        /* \"#utility.yul\":9676:9695   */\n      swap1\n      pop\n        /* \"#utility.yul\":9481:9701   */\n      swap2\n      swap1\n      pop\n      jump\t// out\n        /* \"#utility.yul\":9707:10073   */\n    tag_376:\n      0x00\n        /* \"#utility.yul\":9870:9937   */\n      tag_378\n        /* \"#utility.yul\":9934:9936   */\n      0x13\n        /* \"#utility.yul\":9929:9932   */\n      dup4\n        /* \"#utility.yul\":9870:9937   */\n      tag_323\n      jump\t// in\n    tag_378:\n        /* \"#utility.yul\":9863:9937   */\n      swap2\n      pop\n        /* \"#utility.yul\":9946:10039   */\n      tag_379\n        /* \"#utility.yul\":10035:10038   */\n      dup3\n        /* \"#utility.yul\":9946:10039   */\n      tag_380\n      jump\t// in\n    tag_379:\n        /* \"#utility.yul\":10064:10066   */\n      0x20\n        /* \"#utility.yul\":10059:10062   */\n      dup3\n        /* \"#utility.yul\":10055:10067   */\n      add\n        /* \"#utility.yul\":10048:10067   */\n      swap1\n      pop\n        /* \"#utility.yul\":9853:10073   */\n      swap2\n      swap1\n      pop\n      jump\t// out\n        /* \"#utility.yul\":10079:10445   */\n    tag_381:\n      0x00\n        /* \"#utility.yul\":10242:10309   */\n      tag_383\n        /* \"#utility.yul\":10306:10308   */\n      0x21\n        /* \"#utility.yul\":10301:10304   */\n      dup4\n        /* \"#utility.yul\":10242:10309   */\n      tag_323\n      jump\t// in\n    tag_383:\n        /* \"#utility.yul\":10235:10309   */\n      swap2\n      pop\n        /* \"#utility.yul\":10318:10411   */\n      tag_384\n        /* \"#utility.yul\":10407:10410   */\n      dup3\n        /* \"#utility.yul\":10318:10411   */\n      tag_385\n      jump\t// in\n    tag_384:\n        /* \"#utility.yul\":10436:10438   */\n      0x40\n        /* \"#utility.yul\":10431:10434   */\n      dup3\n        /* \"#utility.yul\":10427:10439   */\n      add\n        /* \"#utility.yul\":10420:10439   */\n      swap1\n      pop\n        /* \"#utility.yul\":10225:10445   */\n      swap2\n      swap1\n      pop\n      jump\t// out\n        /* \"#utility.yul\":10451:10559   */\n    tag_260:\n        /* \"#utility.yul\":10528:10552   */\n      tag_387\n        /* \"#utility.yul\":10546:10551   */\n      dup2\n        /* \"#utility.yul\":10528:10552   */\n      tag_388\n      jump\t// in\n    tag_387:\n        /* \"#utility.yul\":10523:10526   */\n      dup3\n        /* \"#utility.yul\":10516:10553   */\n      mstore\n        /* \"#utility.yul\":10506:10559   */\n      pop\n      pop\n      jump\t// out\n        /* \"#utility.yul\":10565:10683   */\n    tag_389:\n        /* \"#utility.yul\":10652:10676   */\n      tag_391\n        /* \"#utility.yul\":10670:10675   */\n      dup2\n        /* \"#utility.yul\":10652:10676   */\n      tag_388\n      jump\t// in\n    tag_391:\n        /* \"#utility.yul\":10647:10650   */\n      dup3\n        /* \"#utility.yul\":10640:10677   */\n      mstore\n        /* \"#utility.yul\":10630:10683   */\n      pop\n      pop\n      jump\t// out\n        /* \"#utility.yul\":10689:10962   */\n    tag_157:\n      0x00\n        /* \"#utility.yul\":10842:10936   */\n      tag_393\n        /* \"#utility.yul\":10932:10935   */\n      dup3\n        /* \"#utility.yul\":10923:10929   */\n      dup5\n        /* \"#utility.yul\":10842:10936   */\n      tag_297\n      jump\t// in\n    tag_393:\n        /* \"#utility.yul\":10835:10936   */\n      swap2\n      pop\n        /* \"#utility.yul\":10953:10956   */\n      dup2\n        /* \"#utility.yul\":10946:10956   */\n      swap1\n      pop\n        /* \"#utility.yul\":10824:10962   */\n      swap3\n      swap2\n      pop\n      pop\n      jump\t// out\n        /* \"#utility.yul\":10968:11300   */\n    tag_82:\n      0x00\n        /* \"#utility.yul\":11127:11129   */\n      0x40\n        /* \"#utility.yul\":11116:11125   */\n      dup3\n        /* \"#utility.yul\":11112:11130   */\n      add\n        /* \"#utility.yul\":11104:11130   */\n      swap1\n      pop\n        /* \"#utility.yul\":11140:11211   */\n      tag_395\n        /* \"#utility.yul\":11208:11209   */\n      0x00\n        /* \"#utility.yul\":11197:11206   */\n      dup4\n        /* \"#utility.yul\":11193:11210   */\n      add\n        /* \"#utility.yul\":11184:11190   */\n      dup6\n        /* \"#utility.yul\":11140:11211   */\n      tag_261\n      jump\t// in\n    tag_395:\n        /* \"#utility.yul\":11221:11293   */\n      tag_396\n        /* \"#utility.yul\":11289:11291   */\n      0x20\n        /* \"#utility.yul\":11278:11287   */\n      dup4\n        /* \"#utility.yul\":11274:11292   */\n      add\n        /* \"#utility.yul\":11265:11271   */\n      dup5\n        /* \"#utility.yul\":11221:11293   */\n      tag_389\n      jump\t// in\n    tag_396:\n        /* \"#utility.yul\":11094:11300   */\n      swap4\n      swap3\n      pop\n      pop\n      pop\n      jump\t// out\n        /* \"#utility.yul\":11306:11980   */\n    tag_31:\n      0x00\n        /* \"#utility.yul\":11585:11587   */\n      0x40\n        /* \"#utility.yul\":11574:11583   */\n      dup3\n        /* \"#utility.yul\":11570:11588   */\n      add\n        /* \"#utility.yul\":11562:11588   */\n      swap1\n      pop\n        /* \"#utility.yul\":11634:11643   */\n      dup2\n        /* \"#utility.yul\":11628:11632   */\n      dup2\n        /* \"#utility.yul\":11624:11644   */\n      sub\n        /* \"#utility.yul\":11620:11621   */\n      0x00\n        /* \"#utility.yul\":11609:11618   */\n      dup4\n        /* \"#utility.yul\":11605:11622   */\n      add\n        /* \"#utility.yul\":11598:11645   */\n      mstore\n        /* \"#utility.yul\":11662:11790   */\n      tag_398\n        /* \"#utility.yul\":11785:11789   */\n      dup2\n        /* \"#utility.yul\":11776:11782   */\n      dup6\n        /* \"#utility.yul\":11662:11790   */\n      tag_265\n      jump\t// in\n    tag_398:\n        /* \"#utility.yul\":11654:11790   */\n      swap1\n      pop\n        /* \"#utility.yul\":11837:11846   */\n      dup2\n        /* \"#utility.yul\":11831:11835   */\n      dup2\n        /* \"#utility.yul\":11827:11847   */\n      sub\n        /* \"#utility.yul\":11822:11824   */\n      0x20\n        /* \"#utility.yul\":11811:11820   */\n      dup4\n        /* \"#utility.yul\":11807:11825   */\n      add\n        /* \"#utility.yul\":11800:11848   */\n      mstore\n        /* \"#utility.yul\":11865:11973   */\n      tag_399\n        /* \"#utility.yul\":11968:11972   */\n      dup2\n        /* \"#utility.yul\":11959:11965   */\n      dup5\n        /* \"#utility.yul\":11865:11973   */\n      tag_279\n      jump\t// in\n    tag_399:\n        /* \"#utility.yul\":11857:11973   */\n      swap1\n      pop\n        /* \"#utility.yul\":11552:11980   */\n      swap4\n      swap3\n      pop\n      pop\n      pop\n      jump\t// out\n        /* \"#utility.yul\":11986:12660   */\n    tag_54:\n      0x00\n        /* \"#utility.yul\":12265:12267   */\n      0x40\n        /* \"#utility.yul\":12254:12263   */\n      dup3\n        /* \"#utility.yul\":12250:12268   */\n      add\n        /* \"#utility.yul\":12242:12268   */\n      swap1\n      pop\n        /* \"#utility.yul\":12314:12323   */\n      dup2\n        /* \"#utility.yul\":12308:12312   */\n      dup2\n        /* \"#utility.yul\":12304:12324   */\n      sub\n        /* \"#utility.yul\":12300:12301   */\n      0x00\n        /* \"#utility.yul\":12289:12298   */\n      dup4\n        /* \"#utility.yul\":12285:12302   */\n      add\n        /* \"#utility.yul\":12278:12325   */\n      mstore\n        /* \"#utility.yul\":12342:12450   */\n      tag_401\n        /* \"#utility.yul\":12445:12449   */\n      dup2\n        /* \"#utility.yul\":12436:12442   */\n      dup6\n        /* \"#utility.yul\":12342:12450   */\n      tag_279\n      jump\t// in\n    tag_401:\n        /* \"#utility.yul\":12334:12450   */\n      swap1\n      pop\n        /* \"#utility.yul\":12497:12506   */\n      dup2\n        /* \"#utility.yul\":12491:12495   */\n      dup2\n        /* \"#utility.yul\":12487:12507   */\n      sub\n        /* \"#utility.yul\":12482:12484   */\n      0x20\n        /* \"#utility.yul\":12471:12480   */\n      dup4\n        /* \"#utility.yul\":12467:12485   */\n      add\n        /* \"#utility.yul\":12460:12508   */\n      mstore\n        /* \"#utility.yul\":12525:12653   */\n      tag_402\n        /* \"#utility.yul\":12648:12652   */\n      dup2\n        /* \"#utility.yul\":12639:12645   */\n      dup5\n        /* \"#utility.yul\":12525:12653   */\n      tag_265\n      jump\t// in\n    tag_402:\n        /* \"#utility.yul\":12517:12653   */\n      swap1\n      pop\n        /* \"#utility.yul\":12232:12660   */\n      swap4\n      swap3\n      pop\n      pop\n      pop\n      jump\t// out\n        /* \"#utility.yul\":12666:12876   */\n    tag_35:\n      0x00\n        /* \"#utility.yul\":12791:12793   */\n      0x20\n        /* \"#utility.yul\":12780:12789   */\n      dup3\n        /* \"#utility.yul\":12776:12794   */\n      add\n        /* \"#utility.yul\":12768:12794   */\n      swap1\n      pop\n        /* \"#utility.yul\":12804:12869   */\n      tag_404\n        /* \"#utility.yul\":12866:12867   */\n      0x00\n        /* \"#utility.yul\":12855:12864   */\n      dup4\n        /* \"#utility.yul\":12851:12868   */\n      add\n        /* \"#utility.yul\":12842:12848   */\n      dup5\n        /* \"#utility.yul\":12804:12869   */\n      tag_293\n      jump\t// in\n    tag_404:\n        /* \"#utility.yul\":12758:12876   */\n      swap3\n      swap2\n      pop\n      pop\n      jump\t// out\n        /* \"#utility.yul\":12882:13195   */\n    tag_27:\n      0x00\n        /* \"#utility.yul\":13033:13035   */\n      0x20\n        /* \"#utility.yul\":13022:13031   */\n      dup3\n        /* \"#utility.yul\":13018:13036   */\n      add\n        /* \"#utility.yul\":13010:13036   */\n      swap1\n      pop\n        /* \"#utility.yul\":13082:13091   */\n      dup2\n        /* \"#utility.yul\":13076:13080   */\n      dup2\n        /* \"#utility.yul\":13072:13092   */\n      sub\n        /* \"#utility.yul\":13068:13069   */\n      0x00\n        /* \"#utility.yul\":13057:13066   */\n      dup4\n        /* \"#utility.yul\":13053:13070   */\n      add\n        /* \"#utility.yul\":13046:13093   */\n      mstore\n        /* \"#utility.yul\":13110:13188   */\n      tag_406\n        /* \"#utility.yul\":13183:13187   */\n      dup2\n        /* \"#utility.yul\":13174:13180   */\n      dup5\n        /* \"#utility.yul\":13110:13188   */\n      tag_319\n      jump\t// in\n    tag_406:\n        /* \"#utility.yul\":13102:13188   */\n      swap1\n      pop\n        /* \"#utility.yul\":13000:13195   */\n      swap3\n      swap2\n      pop\n      pop\n      jump\t// out\n        /* \"#utility.yul\":13201:13620   */\n    tag_201:\n      0x00\n        /* \"#utility.yul\":13405:13407   */\n      0x20\n        /* \"#utility.yul\":13394:13403   */\n      dup3\n        /* \"#utility.yul\":13390:13408   */\n      add\n        /* \"#utility.yul\":13382:13408   */\n      swap1\n      pop\n        /* \"#utility.yul\":13454:13463   */\n      dup2\n        /* \"#utility.yul\":13448:13452   */\n      dup2\n        /* \"#utility.yul\":13444:13464   */\n      sub\n        /* \"#utility.yul\":13440:13441   */\n      0x00\n        /* \"#utility.yul\":13429:13438   */\n      dup4\n        /* \"#utility.yul\":13425:13442   */\n      add\n        /* \"#utility.yul\":13418:13465   */\n      mstore\n        /* \"#utility.yul\":13482:13613   */\n      tag_408\n        /* \"#utility.yul\":13608:13612   */\n      dup2\n        /* \"#utility.yul\":13482:13613   */\n      tag_326\n      jump\t// in\n    tag_408:\n        /* \"#utility.yul\":13474:13613   */\n      swap1\n      pop\n        /* \"#utility.yul\":13372:13620   */\n      swap2\n      swap1\n      pop\n      jump\t// out\n        /* \"#utility.yul\":13626:14045   */\n    tag_102:\n      0x00\n        /* \"#utility.yul\":13830:13832   */\n      0x20\n        /* \"#utility.yul\":13819:13828   */\n      dup3\n        /* \"#utility.yul\":13815:13833   */\n      add\n        /* \"#utility.yul\":13807:13833   */\n      swap1\n      pop\n        /* \"#utility.yul\":13879:13888   */\n      dup2\n        /* \"#utility.yul\":13873:13877   */\n      dup2\n        /* \"#utility.yul\":13869:13889   */\n      sub\n        /* \"#utility.yul\":13865:13866   */\n      0x00\n        /* \"#utility.yul\":13854:13863   */\n      dup4\n        /* \"#utility.yul\":13850:13867   */\n      add\n        /* \"#utility.yul\":13843:13890   */\n      mstore\n        /* \"#utility.yul\":13907:14038   */\n      tag_410\n        /* \"#utility.yul\":14033:14037   */\n      dup2\n        /* \"#utility.yul\":13907:14038   */\n      tag_331\n      jump\t// in\n    tag_410:\n        /* \"#utility.yul\":13899:14038   */\n      swap1\n      pop\n        /* \"#utility.yul\":13797:14045   */\n      swap2\n      swap1\n      pop\n      jump\t// out\n        /* \"#utility.yul\":14051:14470   */\n    tag_174:\n      0x00\n        /* \"#utility.yul\":14255:14257   */\n      0x20\n        /* \"#utility.yul\":14244:14253   */\n      dup3\n        /* \"#utility.yul\":14240:14258   */\n      add\n        /* \"#utility.yul\":14232:14258   */\n      swap1\n      pop\n        /* \"#utility.yul\":14304:14313   */\n      dup2\n        /* \"#utility.yul\":14298:14302   */\n      dup2\n        /* \"#utility.yul\":14294:14314   */\n      sub\n        /* \"#utility.yul\":14290:14291   */\n      0x00\n        /* \"#utility.yul\":14279:14288   */\n      dup4\n        /* \"#utility.yul\":14275:14292   */\n      add\n        /* \"#utility.yul\":14268:14315   */\n      mstore\n        /* \"#utility.yul\":14332:14463   */\n      tag_412\n        /* \"#utility.yul\":14458:14462   */\n      dup2\n        /* \"#utility.yul\":14332:14463   */\n      tag_336\n      jump\t// in\n    tag_412:\n        /* \"#utility.yul\":14324:14463   */\n      swap1\n      pop\n        /* \"#utility.yul\":14222:14470   */\n      swap2\n      swap1\n      pop\n      jump\t// out\n        /* \"#utility.yul\":14476:14895   */\n    tag_86:\n      0x00\n        /* \"#utility.yul\":14680:14682   */\n      0x20\n        /* \"#utility.yul\":14669:14678   */\n      dup3\n        /* \"#utility.yul\":14665:14683   */\n      add\n        /* \"#utility.yul\":14657:14683   */\n      swap1\n      pop\n        /* \"#utility.yul\":14729:14738   */\n      dup2\n        /* \"#utility.yul\":14723:14727   */\n      dup2\n        /* \"#utility.yul\":14719:14739   */\n      sub\n        /* \"#utility.yul\":14715:14716   */\n      0x00\n        /* \"#utility.yul\":14704:14713   */\n      dup4\n        /* \"#utility.yul\":14700:14717   */\n      add\n        /* \"#utility.yul\":14693:14740   */\n      mstore\n        /* \"#utility.yul\":14757:14888   */\n      tag_414\n        /* \"#utility.yul\":14883:14887   */\n      dup2\n        /* \"#utility.yul\":14757:14888   */\n      tag_341\n      jump\t// in\n    tag_414:\n        /* \"#utility.yul\":14749:14888   */\n      swap1\n      pop\n        /* \"#utility.yul\":14647:14895   */\n      swap2\n      swap1\n      pop\n      jump\t// out\n        /* \"#utility.yul\":14901:15320   */\n    tag_67:\n      0x00\n        /* \"#utility.yul\":15105:15107   */\n      0x20\n        /* \"#utility.yul\":15094:15103   */\n      dup3\n        /* \"#utility.yul\":15090:15108   */\n      add\n        /* \"#utility.yul\":15082:15108   */\n      swap1\n      pop\n        /* \"#utility.yul\":15154:15163   */\n      dup2\n        /* \"#utility.yul\":15148:15152   */\n      dup2\n        /* \"#utility.yul\":15144:15164   */\n      sub\n        /* \"#utility.yul\":15140:15141   */\n      0x00\n        /* \"#utility.yul\":15129:15138   */\n      dup4\n        /* \"#utility.yul\":15125:15142   */\n      add\n        /* \"#utility.yul\":15118:15165   */\n      mstore\n        /* \"#utility.yul\":15182:15313   */\n      tag_416\n        /* \"#utility.yul\":15308:15312   */\n      dup2\n        /* \"#utility.yul\":15182:15313   */\n      tag_346\n      jump\t// in\n    tag_416:\n        /* \"#utility.yul\":15174:15313   */\n      swap1\n      pop\n        /* \"#utility.yul\":15072:15320   */\n      swap2\n      swap1\n      pop\n      jump\t// out\n        /* \"#utility.yul\":15326:15745   */\n    tag_160:\n      0x00\n        /* \"#utility.yul\":15530:15532   */\n      0x20\n        /* \"#utility.yul\":15519:15528   */\n      dup3\n        /* \"#utility.yul\":15515:15533   */\n      add\n        /* \"#utility.yul\":15507:15533   */\n      swap1\n      pop\n        /* \"#utility.yul\":15579:15588   */\n      dup2\n        /* \"#utility.yul\":15573:15577   */\n      dup2\n        /* \"#utility.yul\":15569:15589   */\n      sub\n        /* \"#utility.yul\":15565:15566   */\n      0x00\n        /* \"#utility.yul\":15554:15563   */\n      dup4\n        /* \"#utility.yul\":15550:15567   */\n      add\n        /* \"#utility.yul\":15543:15590   */\n      mstore\n        /* \"#utility.yul\":15607:15738   */\n      tag_418\n        /* \"#utility.yul\":15733:15737   */\n      dup2\n        /* \"#utility.yul\":15607:15738   */\n      tag_351\n      jump\t// in\n    tag_418:\n        /* \"#utility.yul\":15599:15738   */\n      swap1\n      pop\n        /* \"#utility.yul\":15497:15745   */\n      swap2\n      swap1\n      pop\n      jump\t// out\n        /* \"#utility.yul\":15751:16170   */\n    tag_99:\n      0x00\n        /* \"#utility.yul\":15955:15957   */\n      0x20\n        /* \"#utility.yul\":15944:15953   */\n      dup3\n        /* \"#utility.yul\":15940:15958   */\n      add\n        /* \"#utility.yul\":15932:15958   */\n      swap1\n      pop\n        /* \"#utility.yul\":16004:16013   */\n      dup2\n        /* \"#utility.yul\":15998:16002   */\n      dup2\n        /* \"#utility.yul\":15994:16014   */\n      sub\n        /* \"#utility.yul\":15990:15991   */\n      0x00\n        /* \"#utility.yul\":15979:15988   */\n      dup4\n        /* \"#utility.yul\":15975:15992   */\n      add\n        /* \"#utility.yul\":15968:16015   */\n      mstore\n        /* \"#utility.yul\":16032:16163   */\n      tag_420\n        /* \"#utility.yul\":16158:16162   */\n      dup2\n        /* \"#utility.yul\":16032:16163   */\n      tag_356\n      jump\t// in\n    tag_420:\n        /* \"#utility.yul\":16024:16163   */\n      swap1\n      pop\n        /* \"#utility.yul\":15922:16170   */\n      swap2\n      swap1\n      pop\n      jump\t// out\n        /* \"#utility.yul\":16176:16595   */\n    tag_62:\n      0x00\n        /* \"#utility.yul\":16380:16382   */\n      0x20\n        /* \"#utility.yul\":16369:16378   */\n      dup3\n        /* \"#utility.yul\":16365:16383   */\n      add\n        /* \"#utility.yul\":16357:16383   */\n      swap1\n      pop\n        /* \"#utility.yul\":16429:16438   */\n      dup2\n        /* \"#utility.yul\":16423:16427   */\n      dup2\n        /* \"#utility.yul\":16419:16439   */\n      sub\n        /* \"#utility.yul\":16415:16416   */\n      0x00\n        /* \"#utility.yul\":16404:16413   */\n      dup4\n        /* \"#utility.yul\":16400:16417   */\n      add\n        /* \"#utility.yul\":16393:16440   */\n      mstore\n        /* \"#utility.yul\":16457:16588   */\n      tag_422\n        /* \"#utility.yul\":16583:16587   */\n      dup2\n        /* \"#utility.yul\":16457:16588   */\n      tag_361\n      jump\t// in\n    tag_422:\n        /* \"#utility.yul\":16449:16588   */\n      swap1\n      pop\n        /* \"#utility.yul\":16347:16595   */\n      swap2\n      swap1\n      pop\n      jump\t// out\n        /* \"#utility.yul\":16601:17020   */\n    tag_73:\n      0x00\n        /* \"#utility.yul\":16805:16807   */\n      0x20\n        /* \"#utility.yul\":16794:16803   */\n      dup3\n        /* \"#utility.yul\":16790:16808   */\n      add\n        /* \"#utility.yul\":16782:16808   */\n      swap1\n      pop\n        /* \"#utility.yul\":16854:16863   */\n      dup2\n        /* \"#utility.yul\":16848:16852   */\n      dup2\n        /* \"#utility.yul\":16844:16864   */\n      sub\n        /* \"#utility.yul\":16840:16841   */\n      0x00\n        /* \"#utility.yul\":16829:16838   */\n      dup4\n        /* \"#utility.yul\":16825:16842   */\n      add\n        /* \"#utility.yul\":16818:16865   */\n      mstore\n        /* \"#utility.yul\":16882:17013   */\n      tag_424\n        /* \"#utility.yul\":17008:17012   */\n      dup2\n        /* \"#utility.yul\":16882:17013   */\n      tag_366\n      jump\t// in\n    tag_424:\n        /* \"#utility.yul\":16874:17013   */\n      swap1\n      pop\n        /* \"#utility.yul\":16772:17020   */\n      swap2\n      swap1\n      pop\n      jump\t// out\n        /* \"#utility.yul\":17026:17445   */\n    tag_70:\n      0x00\n        /* \"#utility.yul\":17230:17232   */\n      0x20\n        /* \"#utility.yul\":17219:17228   */\n      dup3\n        /* \"#utility.yul\":17215:17233   */\n      add\n        /* \"#utility.yul\":17207:17233   */\n      swap1\n      pop\n        /* \"#utility.yul\":17279:17288   */\n      dup2\n        /* \"#utility.yul\":17273:17277   */\n      dup2\n        /* \"#utility.yul\":17269:17289   */\n      sub\n        /* \"#utility.yul\":17265:17266   */\n      0x00\n        /* \"#utility.yul\":17254:17263   */\n      dup4\n        /* \"#utility.yul\":17250:17267   */\n      add\n        /* \"#utility.yul\":17243:17290   */\n      mstore\n        /* \"#utility.yul\":17307:17438   */\n      tag_426\n        /* \"#utility.yul\":17433:17437   */\n      dup2\n        /* \"#utility.yul\":17307:17438   */\n      tag_371\n      jump\t// in\n    tag_426:\n        /* \"#utility.yul\":17299:17438   */\n      swap1\n      pop\n        /* \"#utility.yul\":17197:17445   */\n      swap2\n      swap1\n      pop\n      jump\t// out\n        /* \"#utility.yul\":17451:17870   */\n    tag_198:\n      0x00\n        /* \"#utility.yul\":17655:17657   */\n      0x20\n        /* \"#utility.yul\":17644:17653   */\n      dup3\n        /* \"#utility.yul\":17640:17658   */\n      add\n        /* \"#utility.yul\":17632:17658   */\n      swap1\n      pop\n        /* \"#utility.yul\":17704:17713   */\n      dup2\n        /* \"#utility.yul\":17698:17702   */\n      dup2\n        /* \"#utility.yul\":17694:17714   */\n      sub\n        /* \"#utility.yul\":17690:17691   */\n      0x00\n        /* \"#utility.yul\":17679:17688   */\n      dup4\n        /* \"#utility.yul\":17675:17692   */\n      add\n        /* \"#utility.yul\":17668:17715   */\n      mstore\n        /* \"#utility.yul\":17732:17863   */\n      tag_428\n        /* \"#utility.yul\":17858:17862   */\n      dup2\n        /* \"#utility.yul\":17732:17863   */\n      tag_376\n      jump\t// in\n    tag_428:\n        /* \"#utility.yul\":17724:17863   */\n      swap1\n      pop\n        /* \"#utility.yul\":17622:17870   */\n      swap2\n      swap1\n      pop\n      jump\t// out\n        /* \"#utility.yul\":17876:18295   */\n    tag_95:\n      0x00\n        /* \"#utility.yul\":18080:18082   */\n      0x20\n        /* \"#utility.yul\":18069:18078   */\n      dup3\n        /* \"#utility.yul\":18065:18083   */\n      add\n        /* \"#utility.yul\":18057:18083   */\n      swap1\n      pop\n        /* \"#utility.yul\":18129:18138   */\n      dup2\n        /* \"#utility.yul\":18123:18127   */\n      dup2\n        /* \"#utility.yul\":18119:18139   */\n      sub\n        /* \"#utility.yul\":18115:18116   */\n      0x00\n        /* \"#utility.yul\":18104:18113   */\n      dup4\n        /* \"#utility.yul\":18100:18117   */\n      add\n        /* \"#utility.yul\":18093:18140   */\n      mstore\n        /* \"#utility.yul\":18157:18288   */\n      tag_430\n        /* \"#utility.yul\":18283:18287   */\n      dup2\n        /* \"#utility.yul\":18157:18288   */\n      tag_381\n      jump\t// in\n    tag_430:\n        /* \"#utility.yul\":18149:18288   */\n      swap1\n      pop\n        /* \"#utility.yul\":18047:18295   */\n      swap2\n      swap1\n      pop\n      jump\t// out\n        /* \"#utility.yul\":18301:18523   */\n    tag_23:\n      0x00\n        /* \"#utility.yul\":18432:18434   */\n      0x20\n        /* \"#utility.yul\":18421:18430   */\n      dup3\n        /* \"#utility.yul\":18417:18435   */\n      add\n        /* \"#utility.yul\":18409:18435   */\n      swap1\n      pop\n        /* \"#utility.yul\":18445:18516   */\n      tag_432\n        /* \"#utility.yul\":18513:18514   */\n      0x00\n        /* \"#utility.yul\":18502:18511   */\n      dup4\n        /* \"#utility.yul\":18498:18515   */\n      add\n        /* \"#utility.yul\":18489:18495   */\n      dup5\n        /* \"#utility.yul\":18445:18516   */\n      tag_389\n      jump\t// in\n    tag_432:\n        /* \"#utility.yul\":18399:18523   */\n      swap3\n      swap2\n      pop\n      pop\n      jump\t// out\n        /* \"#utility.yul\":18529:18658   */\n    tag_229:\n      0x00\n        /* \"#utility.yul\":18590:18610   */\n      tag_434\n      tag_435\n      jump\t// in\n    tag_434:\n        /* \"#utility.yul\":18580:18610   */\n      swap1\n      pop\n        /* \"#utility.yul\":18619:18652   */\n      tag_436\n        /* \"#utility.yul\":18647:18651   */\n      dup3\n        /* \"#utility.yul\":18639:18645   */\n      dup3\n        /* \"#utility.yul\":18619:18652   */\n      tag_437\n      jump\t// in\n    tag_436:\n        /* \"#utility.yul\":18570:18658   */\n      swap2\n      swap1\n      pop\n      jump\t// out\n        /* \"#utility.yul\":18664:18739   */\n    tag_435:\n      0x00\n        /* \"#utility.yul\":18730:18732   */\n      0x40\n        /* \"#utility.yul\":18724:18733   */\n      mload\n        /* \"#utility.yul\":18714:18733   */\n      swap1\n      pop\n        /* \"#utility.yul\":18704:18739   */\n      swap1\n      jump\t// out\n        /* \"#utility.yul\":18745:19053   */\n    tag_228:\n      0x00\n        /* \"#utility.yul\":18897:18915   */\n      0xffffffffffffffff\n        /* \"#utility.yul\":18889:18895   */\n      dup3\n        /* \"#utility.yul\":18886:18916   */\n      gt\n        /* \"#utility.yul\":18883:18885   */\n      iszero\n      tag_440\n      jumpi\n        /* \"#utility.yul\":18919:18937   */\n      tag_441\n      tag_442\n      jump\t// in\n    tag_441:\n        /* \"#utility.yul\":18883:18885   */\n    tag_440:\n        /* \"#utility.yul\":18957:18986   */\n      tag_443\n        /* \"#utility.yul\":18979:18985   */\n      dup3\n        /* \"#utility.yul\":18957:18986   */\n      tag_318\n      jump\t// in\n    tag_443:\n        /* \"#utility.yul\":18949:18986   */\n      swap1\n      pop\n        /* \"#utility.yul\":19041:19045   */\n      0x20\n        /* \"#utility.yul\":19035:19039   */\n      dup2\n        /* \"#utility.yul\":19031:19046   */\n      add\n        /* \"#utility.yul\":19023:19046   */\n      swap1\n      pop\n        /* \"#utility.yul\":18812:19053   */\n      swap2\n      swap1\n      pop\n      jump\t// out\n        /* \"#utility.yul\":19059:19201   */\n    tag_272:\n      0x00\n        /* \"#utility.yul\":19159:19162   */\n      dup2\n        /* \"#utility.yul\":19151:19162   */\n      swap1\n      pop\n        /* \"#utility.yul\":19189:19193   */\n      0x20\n        /* \"#utility.yul\":19184:19187   */\n      dup3\n        /* \"#utility.yul\":19180:19194   */\n      add\n        /* \"#utility.yul\":19172:19194   */\n      swap1\n      pop\n        /* \"#utility.yul\":19141:19201   */\n      swap2\n      swap1\n      pop\n      jump\t// out\n        /* \"#utility.yul\":19207:19339   */\n    tag_286:\n      0x00\n        /* \"#utility.yul\":19297:19300   */\n      dup2\n        /* \"#utility.yul\":19289:19300   */\n      swap1\n      pop\n        /* \"#utility.yul\":19327:19331   */\n      0x20\n        /* \"#utility.yul\":19322:19325   */\n      dup3\n        /* \"#utility.yul\":19318:19332   */\n      add\n        /* \"#utility.yul\":19310:19332   */\n      swap1\n      pop\n        /* \"#utility.yul\":19279:19339   */\n      swap2\n      swap1\n      pop\n      jump\t// out\n        /* \"#utility.yul\":19345:19489   */\n    tag_306:\n      0x00\n        /* \"#utility.yul\":19420:19423   */\n      dup2\n        /* \"#utility.yul\":19412:19423   */\n      swap1\n      pop\n        /* \"#utility.yul\":19443:19446   */\n      dup2\n        /* \"#utility.yul\":19440:19441   */\n      0x00\n        /* \"#utility.yul\":19433:19447   */\n      mstore\n        /* \"#utility.yul\":19477:19481   */\n      0x20\n        /* \"#utility.yul\":19474:19475   */\n      0x00\n        /* \"#utility.yul\":19464:19482   */\n      keccak256\n        /* \"#utility.yul\":19456:19482   */\n      swap1\n      pop\n        /* \"#utility.yul\":19402:19489   */\n      swap2\n      swap1\n      pop\n      jump\t// out\n        /* \"#utility.yul\":19495:19619   */\n    tag_268:\n      0x00\n        /* \"#utility.yul\":19606:19611   */\n      dup2\n        /* \"#utility.yul\":19600:19612   */\n      mload\n        /* \"#utility.yul\":19590:19612   */\n      swap1\n      pop\n        /* \"#utility.yul\":19579:19619   */\n      swap2\n      swap1\n      pop\n      jump\t// out\n        /* \"#utility.yul\":19625:19739   */\n    tag_282:\n      0x00\n        /* \"#utility.yul\":19726:19731   */\n      dup2\n        /* \"#utility.yul\":19720:19732   */\n      mload\n        /* \"#utility.yul\":19710:19732   */\n      swap1\n      pop\n        /* \"#utility.yul\":19699:19739   */\n      swap2\n      swap1\n      pop\n      jump\t// out\n        /* \"#utility.yul\":19745:19844   */\n    tag_312:\n      0x00\n        /* \"#utility.yul\":19831:19836   */\n      dup2\n        /* \"#utility.yul\":19825:19837   */\n      mload\n        /* \"#utility.yul\":19815:19837   */\n      swap1\n      pop\n        /* \"#utility.yul\":19804:19844   */\n      swap2\n      swap1\n      pop\n      jump\t// out\n        /* \"#utility.yul\":19850:19973   */\n    tag_278:\n      0x00\n        /* \"#utility.yul\":19962:19966   */\n      0x20\n        /* \"#utility.yul\":19957:19960   */\n      dup3\n        /* \"#utility.yul\":19953:19967   */\n      add\n        /* \"#utility.yul\":19945:19967   */\n      swap1\n      pop\n        /* \"#utility.yul\":19935:19973   */\n      swap2\n      swap1\n      pop\n      jump\t// out\n        /* \"#utility.yul\":19979:20092   */\n    tag_292:\n      0x00\n        /* \"#utility.yul\":20081:20085   */\n      0x20\n        /* \"#utility.yul\":20076:20079   */\n      dup3\n        /* \"#utility.yul\":20072:20086   */\n      add\n        /* \"#utility.yul\":20064:20086   */\n      swap1\n      pop\n        /* \"#utility.yul\":20054:20092   */\n      swap2\n      swap1\n      pop\n      jump\t// out\n        /* \"#utility.yul\":20098:20292   */\n    tag_270:\n      0x00\n        /* \"#utility.yul\":20241:20247   */\n      dup3\n        /* \"#utility.yul\":20236:20239   */\n      dup3\n        /* \"#utility.yul\":20229:20248   */\n      mstore\n        /* \"#utility.yul\":20281:20285   */\n      0x20\n        /* \"#utility.yul\":20276:20279   */\n      dup3\n        /* \"#utility.yul\":20272:20286   */\n      add\n        /* \"#utility.yul\":20257:20286   */\n      swap1\n      pop\n        /* \"#utility.yul\":20219:20292   */\n      swap3\n      swap2\n      pop\n      pop\n      jump\t// out\n        /* \"#utility.yul\":20298:20482   */\n    tag_284:\n      0x00\n        /* \"#utility.yul\":20431:20437   */\n      dup3\n        /* \"#utility.yul\":20426:20429   */\n      dup3\n        /* \"#utility.yul\":20419:20438   */\n      mstore\n        /* \"#utility.yul\":20471:20475   */\n      0x20\n        /* \"#utility.yul\":20466:20469   */\n      dup3\n        /* \"#utility.yul\":20462:20476   */\n      add\n        /* \"#utility.yul\":20447:20476   */\n      swap1\n      pop\n        /* \"#utility.yul\":20409:20482   */\n      swap3\n      swap2\n      pop\n      pop\n      jump\t// out\n        /* \"#utility.yul\":20488:20635   */\n    tag_301:\n      0x00\n        /* \"#utility.yul\":20626:20629   */\n      dup2\n        /* \"#utility.yul\":20611:20629   */\n      swap1\n      pop\n        /* \"#utility.yul\":20601:20635   */\n      swap3\n      swap2\n      pop\n      pop\n      jump\t// out\n        /* \"#utility.yul\":20641:20800   */\n    tag_314:\n      0x00\n        /* \"#utility.yul\":20749:20755   */\n      dup3\n        /* \"#utility.yul\":20744:20747   */\n      dup3\n        /* \"#utility.yul\":20737:20756   */\n      mstore\n        /* \"#utility.yul\":20789:20793   */\n      0x20\n        /* \"#utility.yul\":20784:20787   */\n      dup3\n        /* \"#utility.yul\":20780:20794   */\n      add\n        /* \"#utility.yul\":20765:20794   */\n      swap1\n      pop\n        /* \"#utility.yul\":20727:20800   */\n      swap3\n      swap2\n      pop\n      pop\n      jump\t// out\n        /* \"#utility.yul\":20806:20975   */\n    tag_323:\n      0x00\n        /* \"#utility.yul\":20924:20930   */\n      dup3\n        /* \"#utility.yul\":20919:20922   */\n      dup3\n        /* \"#utility.yul\":20912:20931   */\n      mstore\n        /* \"#utility.yul\":20964:20968   */\n      0x20\n        /* \"#utility.yul\":20959:20962   */\n      dup3\n        /* \"#utility.yul\":20955:20969   */\n      add\n        /* \"#utility.yul\":20940:20969   */\n      swap1\n      pop\n        /* \"#utility.yul\":20902:20975   */\n      swap3\n      swap2\n      pop\n      pop\n      jump\t// out\n        /* \"#utility.yul\":20981:21286   */\n    tag_184:\n      0x00\n        /* \"#utility.yul\":21040:21060   */\n      tag_458\n        /* \"#utility.yul\":21058:21059   */\n      dup3\n        /* \"#utility.yul\":21040:21060   */\n      tag_388\n      jump\t// in\n    tag_458:\n        /* \"#utility.yul\":21035:21060   */\n      swap2\n      pop\n        /* \"#utility.yul\":21074:21094   */\n      tag_459\n        /* \"#utility.yul\":21092:21093   */\n      dup4\n        /* \"#utility.yul\":21074:21094   */\n      tag_388\n      jump\t// in\n    tag_459:\n        /* \"#utility.yul\":21069:21094   */\n      swap3\n      pop\n        /* \"#utility.yul\":21228:21229   */\n      dup3\n        /* \"#utility.yul\":21160:21226   */\n      0xffffffffffffffffffffffffffffffffffffffffffffffffffffffffffffffff\n        /* \"#utility.yul\":21156:21230   */\n      sub\n        /* \"#utility.yul\":21153:21154   */\n      dup3\n        /* \"#utility.yul\":21150:21231   */\n      gt\n        /* \"#utility.yul\":21147:21149   */\n      iszero\n      tag_460\n      jumpi\n        /* \"#utility.yul\":21234:21252   */\n      tag_461\n      tag_462\n      jump\t// in\n    tag_461:\n        /* \"#utility.yul\":21147:21149   */\n    tag_460:\n        /* \"#utility.yul\":21278:21279   */\n      dup3\n        /* \"#utility.yul\":21275:21276   */\n      dup3\n        /* \"#utility.yul\":21271:21280   */\n      add\n        /* \"#utility.yul\":21264:21280   */\n      swap1\n      pop\n        /* \"#utility.yul\":21025:21286   */\n      swap3\n      swap2\n      pop\n      pop\n      jump\t// out\n        /* \"#utility.yul\":21292:21483   */\n    tag_109:\n      0x00\n        /* \"#utility.yul\":21352:21372   */\n      tag_464\n        /* \"#utility.yul\":21370:21371   */\n      dup3\n        /* \"#utility.yul\":21352:21372   */\n      tag_388\n      jump\t// in\n    tag_464:\n        /* \"#utility.yul\":21347:21372   */\n      swap2\n      pop\n        /* \"#utility.yul\":21386:21406   */\n      tag_465\n        /* \"#utility.yul\":21404:21405   */\n      dup4\n        /* \"#utility.yul\":21386:21406   */\n      tag_388\n      jump\t// in\n    tag_465:\n        /* \"#utility.yul\":21381:21406   */\n      swap3\n      pop\n        /* \"#utility.yul\":21425:21426   */\n      dup3\n        /* \"#utility.yul\":21422:21423   */\n      dup3\n        /* \"#utility.yul\":21419:21427   */\n      lt\n        /* \"#utility.yul\":21416:21418   */\n      iszero\n      tag_466\n      jumpi\n        /* \"#utility.yul\":21430:21448   */\n      tag_467\n      tag_462\n      jump\t// in\n    tag_467:\n        /* \"#utility.yul\":21416:21418   */\n    tag_466:\n        /* \"#utility.yul\":21475:21476   */\n      dup3\n        /* \"#utility.yul\":21472:21473   */\n      dup3\n        /* \"#utility.yul\":21468:21477   */\n      sub\n        /* \"#utility.yul\":21460:21477   */\n      swap1\n      pop\n        /* \"#utility.yul\":21337:21483   */\n      swap3\n      swap2\n      pop\n      pop\n      jump\t// out\n        /* \"#utility.yul\":21489:21585   */\n    tag_264:\n      0x00\n        /* \"#utility.yul\":21555:21579   */\n      tag_469\n        /* \"#utility.yul\":21573:21578   */\n      dup3\n        /* \"#utility.yul\":21555:21579   */\n      tag_470\n      jump\t// in\n    tag_469:\n        /* \"#utility.yul\":21544:21579   */\n      swap1\n      pop\n        /* \"#utility.yul\":21534:21585   */\n      swap2\n      swap1\n      pop\n      jump\t// out\n        /* \"#utility.yul\":21591:21681   */\n    tag_296:\n      0x00\n        /* \"#utility.yul\":21668:21673   */\n      dup2\n        /* \"#utility.yul\":21661:21674   */\n      iszero\n        /* \"#utility.yul\":21654:21675   */\n      iszero\n        /* \"#utility.yul\":21643:21675   */\n      swap1\n      pop\n        /* \"#utility.yul\":21633:21681   */\n      swap2\n      swap1\n      pop\n      jump\t// out\n        /* \"#utility.yul\":21687:21813   */\n    tag_470:\n      0x00\n        /* \"#utility.yul\":21764:21806   */\n      0xffffffffffffffffffffffffffffffffffffffff\n        /* \"#utility.yul\":21757:21762   */\n      dup3\n        /* \"#utility.yul\":21753:21807   */\n      and\n        /* \"#utility.yul\":21742:21807   */\n      swap1\n      pop\n        /* \"#utility.yul\":21732:21813   */\n      swap2\n      swap1\n      pop\n      jump\t// out\n        /* \"#utility.yul\":21819:21896   */\n    tag_388:\n      0x00\n        /* \"#utility.yul\":21885:21890   */\n      dup2\n        /* \"#utility.yul\":21874:21890   */\n      swap1\n      pop\n        /* \"#utility.yul\":21864:21896   */\n      swap2\n      swap1\n      pop\n      jump\t// out\n        /* \"#utility.yul\":21902:22056   */\n    tag_232:\n        /* \"#utility.yul\":21986:21992   */\n      dup3\n        /* \"#utility.yul\":21981:21984   */\n      dup2\n        /* \"#utility.yul\":21976:21979   */\n      dup4\n        /* \"#utility.yul\":21963:21993   */\n      calldatacopy\n        /* \"#utility.yul\":22048:22049   */\n      0x00\n        /* \"#utility.yul\":22039:22045   */\n      dup4\n        /* \"#utility.yul\":22034:22037   */\n      dup4\n        /* \"#utility.yul\":22030:22046   */\n      add\n        /* \"#utility.yul\":22023:22050   */\n      mstore\n        /* \"#utility.yul\":21953:22056   */\n      pop\n      pop\n      pop\n      jump\t// out\n        /* \"#utility.yul\":22062:22369   */\n    tag_316:\n        /* \"#utility.yul\":22130:22131   */\n      0x00\n        /* \"#utility.yul\":22140:22253   */\n    tag_476:\n        /* \"#utility.yul\":22154:22160   */\n      dup4\n        /* \"#utility.yul\":22151:22152   */\n      dup2\n        /* \"#utility.yul\":22148:22161   */\n      lt\n        /* \"#utility.yul\":22140:22253   */\n      iszero\n      tag_478\n      jumpi\n        /* \"#utility.yul\":22239:22240   */\n      dup1\n        /* \"#utility.yul\":22234:22237   */\n      dup3\n        /* \"#utility.yul\":22230:22241   */\n      add\n        /* \"#utility.yul\":22224:22242   */\n      mload\n        /* \"#utility.yul\":22220:22221   */\n      dup2\n        /* \"#utility.yul\":22215:22218   */\n      dup5\n        /* \"#utility.yul\":22211:22222   */\n      add\n        /* \"#utility.yul\":22204:22243   */\n      mstore\n        /* \"#utility.yul\":22176:22178   */\n      0x20\n        /* \"#utility.yul\":22173:22174   */\n      dup2\n        /* \"#utility.yul\":22169:22179   */\n      add\n        /* \"#utility.yul\":22164:22179   */\n      swap1\n      pop\n        /* \"#utility.yul\":22140:22253   */\n      jump(tag_476)\n    tag_478:\n        /* \"#utility.yul\":22271:22277   */\n      dup4\n        /* \"#utility.yul\":22268:22269   */\n      dup2\n        /* \"#utility.yul\":22265:22278   */\n      gt\n        /* \"#utility.yul\":22262:22264   */\n      iszero\n      tag_479\n      jumpi\n        /* \"#utility.yul\":22351:22352   */\n      0x00\n        /* \"#utility.yul\":22342:22348   */\n      dup5\n        /* \"#utility.yul\":22337:22340   */\n      dup5\n        /* \"#utility.yul\":22333:22349   */\n      add\n        /* \"#utility.yul\":22326:22353   */\n      mstore\n        /* \"#utility.yul\":22262:22264   */\n    tag_479:\n        /* \"#utility.yul\":22111:22369   */\n      pop\n      pop\n      pop\n      pop\n      jump\t// out\n        /* \"#utility.yul\":22375:22695   */\n    tag_78:\n      0x00\n        /* \"#utility.yul\":22456:22457   */\n      0x02\n        /* \"#utility.yul\":22450:22454   */\n      dup3\n        /* \"#utility.yul\":22446:22458   */\n      div\n        /* \"#utility.yul\":22436:22458   */\n      swap1\n      pop\n        /* \"#utility.yul\":22503:22504   */\n      0x01\n        /* \"#utility.yul\":22497:22501   */\n      dup3\n        /* \"#utility.yul\":22493:22505   */\n      and\n        /* \"#utility.yul\":22524:22542   */\n      dup1\n        /* \"#utility.yul\":22514:22516   */\n      tag_481\n      jumpi\n        /* \"#utility.yul\":22580:22584   */\n      0x7f\n        /* \"#utility.yul\":22572:22578   */\n      dup3\n        /* \"#utility.yul\":22568:22585   */\n      and\n        /* \"#utility.yul\":22558:22585   */\n      swap2\n      pop\n        /* \"#utility.yul\":22514:22516   */\n    tag_481:\n        /* \"#utility.yul\":22642:22644   */\n      0x20\n        /* \"#utility.yul\":22634:22640   */\n      dup3\n        /* \"#utility.yul\":22631:22645   */\n      lt\n        /* \"#utility.yul\":22611:22629   */\n      dup2\n        /* \"#utility.yul\":22608:22646   */\n      eq\n        /* \"#utility.yul\":22605:22607   */\n      iszero\n      tag_482\n      jumpi\n        /* \"#utility.yul\":22661:22679   */\n      tag_483\n      tag_484\n      jump\t// in\n    tag_483:\n        /* \"#utility.yul\":22605:22607   */\n    tag_482:\n        /* \"#utility.yul\":22426:22695   */\n      pop\n      swap2\n      swap1\n      pop\n      jump\t// out\n        /* \"#utility.yul\":22701:22982   */\n    tag_437:\n        /* \"#utility.yul\":22784:22811   */\n      tag_486\n        /* \"#utility.yul\":22806:22810   */\n      dup3\n        /* \"#utility.yul\":22784:22811   */\n      tag_318\n      jump\t// in\n    tag_486:\n        /* \"#utility.yul\":22776:22782   */\n      dup2\n        /* \"#utility.yul\":22772:22812   */\n      add\n        /* \"#utility.yul\":22914:22920   */\n      dup2\n        /* \"#utility.yul\":22902:22912   */\n      dup2\n        /* \"#utility.yul\":22899:22921   */\n      lt\n        /* \"#utility.yul\":22878:22896   */\n      0xffffffffffffffff\n        /* \"#utility.yul\":22866:22876   */\n      dup3\n        /* \"#utility.yul\":22863:22897   */\n      gt\n        /* \"#utility.yul\":22860:22922   */\n      or\n        /* \"#utility.yul\":22857:22859   */\n      iszero\n      tag_487\n      jumpi\n        /* \"#utility.yul\":22925:22943   */\n      tag_488\n      tag_442\n      jump\t// in\n    tag_488:\n        /* \"#utility.yul\":22857:22859   */\n    tag_487:\n        /* \"#utility.yul\":22965:22975   */\n      dup1\n        /* \"#utility.yul\":22961:22963   */\n      0x40\n        /* \"#utility.yul\":22954:22976   */\n      mstore\n        /* \"#utility.yul\":22744:22982   */\n      pop\n      pop\n      pop\n      jump\t// out\n        /* \"#utility.yul\":22988:23221   */\n    tag_75:\n      0x00\n        /* \"#utility.yul\":23050:23074   */\n      tag_490\n        /* \"#utility.yul\":23068:23073   */\n      dup3\n        /* \"#utility.yul\":23050:23074   */\n      tag_388\n      jump\t// in\n    tag_490:\n        /* \"#utility.yul\":23041:23074   */\n      swap2\n      pop\n        /* \"#utility.yul\":23096:23162   */\n      0xffffffffffffffffffffffffffffffffffffffffffffffffffffffffffffffff\n        /* \"#utility.yul\":23089:23094   */\n      dup3\n        /* \"#utility.yul\":23086:23163   */\n      eq\n        /* \"#utility.yul\":23083:23085   */\n      iszero\n      tag_491\n      jumpi\n        /* \"#utility.yul\":23166:23184   */\n      tag_492\n      tag_462\n      jump\t// in\n    tag_492:\n        /* \"#utility.yul\":23083:23085   */\n    tag_491:\n        /* \"#utility.yul\":23213:23214   */\n      0x01\n        /* \"#utility.yul\":23206:23211   */\n      dup3\n        /* \"#utility.yul\":23202:23215   */\n      add\n        /* \"#utility.yul\":23195:23215   */\n      swap1\n      pop\n        /* \"#utility.yul\":23031:23221   */\n      swap2\n      swap1\n      pop\n      jump\t// out\n        /* \"#utility.yul\":23227:23407   */\n    tag_462:\n        /* \"#utility.yul\":23275:23352   */\n      0x4e487b7100000000000000000000000000000000000000000000000000000000\n        /* \"#utility.yul\":23272:23273   */\n      0x00\n        /* \"#utility.yul\":23265:23353   */\n      mstore\n        /* \"#utility.yul\":23372:23376   */\n      0x11\n        /* \"#utility.yul\":23369:23370   */\n      0x04\n        /* \"#utility.yul\":23362:23377   */\n      mstore\n        /* \"#utility.yul\":23396:23400   */\n      0x24\n        /* \"#utility.yul\":23393:23394   */\n      0x00\n        /* \"#utility.yul\":23386:23401   */\n      revert\n        /* \"#utility.yul\":23413:23593   */\n    tag_484:\n        /* \"#utility.yul\":23461:23538   */\n      0x4e487b7100000000000000000000000000000000000000000000000000000000\n        /* \"#utility.yul\":23458:23459   */\n      0x00\n        /* \"#utility.yul\":23451:23539   */\n      mstore\n        /* \"#utility.yul\":23558:23562   */\n      0x22\n        /* \"#utility.yul\":23555:23556   */\n      0x04\n        /* \"#utility.yul\":23548:23563   */\n      mstore\n        /* \"#utility.yul\":23582:23586   */\n      0x24\n        /* \"#utility.yul\":23579:23580   */\n      0x00\n        /* \"#utility.yul\":23572:23587   */\n      revert\n        /* \"#utility.yul\":23599:23779   */\n    tag_442:\n        /* \"#utility.yul\":23647:23724   */\n      0x4e487b7100000000000000000000000000000000000000000000000000000000\n        /* \"#utility.yul\":23644:23645   */\n      0x00\n        /* \"#utility.yul\":23637:23725   */\n      mstore\n        /* \"#utility.yul\":23744:23748   */\n      0x41\n        /* \"#utility.yul\":23741:23742   */\n      0x04\n        /* \"#utility.yul\":23734:23749   */\n      mstore\n        /* \"#utility.yul\":23768:23772   */\n      0x24\n        /* \"#utility.yul\":23765:23766   */\n      0x00\n        /* \"#utility.yul\":23758:23773   */\n      revert\n        /* \"#utility.yul\":23785:23887   */\n    tag_318:\n      0x00\n        /* \"#utility.yul\":23877:23879   */\n      0x1f\n        /* \"#utility.yul\":23873:23880   */\n      not\n        /* \"#utility.yul\":23868:23870   */\n      0x1f\n        /* \"#utility.yul\":23861:23866   */\n      dup4\n        /* \"#utility.yul\":23857:23871   */\n      add\n        /* \"#utility.yul\":23853:23881   */\n      and\n        /* \"#utility.yul\":23843:23881   */\n      swap1\n      pop\n        /* \"#utility.yul\":23833:23887   */\n      swap2\n      swap1\n      pop\n      jump\t// out\n        /* \"#utility.yul\":23893:24125   */\n    tag_330:\n        /* \"#utility.yul\":24033:24067   */\n      0x75736572206167652062656c6f772031382063616e2774207265676973746572\n        /* \"#utility.yul\":24029:24030   */\n      0x00\n        /* \"#utility.yul\":24021:24027   */\n      dup3\n        /* \"#utility.yul\":24017:24031   */\n      add\n        /* \"#utility.yul\":24010:24068   */\n      mstore\n        /* \"#utility.yul\":24102:24117   */\n      0x20666f722074686520766f746500000000000000000000000000000000000000\n        /* \"#utility.yul\":24097:24099   */\n      0x20\n        /* \"#utility.yul\":24089:24095   */\n      dup3\n        /* \"#utility.yul\":24085:24100   */\n      add\n        /* \"#utility.yul\":24078:24118   */\n      mstore\n        /* \"#utility.yul\":23999:24125   */\n      pop\n      jump\t// out\n        /* \"#utility.yul\":24131:24301   */\n    tag_335:\n        /* \"#utility.yul\":24271:24293   */\n      0x4e6f206f6e652068617320766f74656420796574000000000000000000000000\n        /* \"#utility.yul\":24267:24268   */\n      0x00\n        /* \"#utility.yul\":24259:24265   */\n      dup3\n        /* \"#utility.yul\":24255:24269   */\n      add\n        /* \"#utility.yul\":24248:24294   */\n      mstore\n        /* \"#utility.yul\":24237:24301   */\n      pop\n      jump\t// out\n        /* \"#utility.yul\":24307:24478   */\n    tag_340:\n        /* \"#utility.yul\":24447:24470   */\n      0x4e6f2063616e6469646174657320746f20766965770000000000000000000000\n        /* \"#utility.yul\":24443:24444   */\n      0x00\n        /* \"#utility.yul\":24435:24441   */\n      dup3\n        /* \"#utility.yul\":24431:24445   */\n      add\n        /* \"#utility.yul\":24424:24471   */\n      mstore\n        /* \"#utility.yul\":24413:24478   */\n      pop\n      jump\t// out\n        /* \"#utility.yul\":24484:24655   */\n    tag_345:\n        /* \"#utility.yul\":24624:24647   */\n      0x75736572206861736e277420766f746564207965740000000000000000000000\n        /* \"#utility.yul\":24620:24621   */\n      0x00\n        /* \"#utility.yul\":24612:24618   */\n      dup3\n        /* \"#utility.yul\":24608:24622   */\n      add\n        /* \"#utility.yul\":24601:24648   */\n      mstore\n        /* \"#utility.yul\":24590:24655   */\n      pop\n      jump\t// out\n        /* \"#utility.yul\":24661:24887   */\n    tag_350:\n        /* \"#utility.yul\":24801:24835   */\n      0x7468657265206973206e6f20636f6e74657374616e7420776974682074686973\n        /* \"#utility.yul\":24797:24798   */\n      0x00\n        /* \"#utility.yul\":24789:24795   */\n      dup3\n        /* \"#utility.yul\":24785:24799   */\n      add\n        /* \"#utility.yul\":24778:24836   */\n      mstore\n        /* \"#utility.yul\":24870:24879   */\n      0x206e756d62657200000000000000000000000000000000000000000000000000\n        /* \"#utility.yul\":24865:24867   */\n      0x20\n        /* \"#utility.yul\":24857:24863   */\n      dup3\n        /* \"#utility.yul\":24853:24868   */\n      add\n        /* \"#utility.yul\":24846:24880   */\n      mstore\n        /* \"#utility.yul\":24767:24887   */\n      pop\n      jump\t// out\n        /* \"#utility.yul\":24893:25070   */\n    tag_355:\n        /* \"#utility.yul\":25033:25062   */\n      0x6e616d652068617320616c7265616479206265656e2061646465640000000000\n        /* \"#utility.yul\":25029:25030   */\n      0x00\n        /* \"#utility.yul\":25021:25027   */\n      dup3\n        /* \"#utility.yul\":25017:25031   */\n      add\n        /* \"#utility.yul\":25010:25063   */\n      mstore\n        /* \"#utility.yul\":24999:25070   */\n      pop\n      jump\t// out\n        /* \"#utility.yul\":25076:25253   */\n    tag_360:\n        /* \"#utility.yul\":25216:25245   */\n      0x4e6f2063616e64696461746520686173206265656e2061646465640000000000\n        /* \"#utility.yul\":25212:25213   */\n      0x00\n        /* \"#utility.yul\":25204:25210   */\n      dup3\n        /* \"#utility.yul\":25200:25214   */\n      add\n        /* \"#utility.yul\":25193:25246   */\n      mstore\n        /* \"#utility.yul\":25182:25253   */\n      pop\n      jump\t// out\n        /* \"#utility.yul\":25259:25431   */\n    tag_365:\n        /* \"#utility.yul\":25399:25423   */\n      0x74686520636f6e74726163742069732070617573656400000000000000000000\n        /* \"#utility.yul\":25395:25396   */\n      0x00\n        /* \"#utility.yul\":25387:25393   */\n      dup3\n        /* \"#utility.yul\":25383:25397   */\n      add\n        /* \"#utility.yul\":25376:25424   */\n      mstore\n        /* \"#utility.yul\":25365:25431   */\n      pop\n      jump\t// out\n        /* \"#utility.yul\":25437:25609   */\n    tag_370:\n        /* \"#utility.yul\":25577:25601   */\n      0x757365722068617320766f74656420616c726561647900000000000000000000\n        /* \"#utility.yul\":25573:25574   */\n      0x00\n        /* \"#utility.yul\":25565:25571   */\n      dup3\n        /* \"#utility.yul\":25561:25575   */\n      add\n        /* \"#utility.yul\":25554:25602   */\n      mstore\n        /* \"#utility.yul\":25543:25609   */\n      pop\n      jump\t// out\n        /* \"#utility.yul\":25615:25791   */\n    tag_375:\n        /* \"#utility.yul\":25755:25783   */\n      0x75736572206861736e2774207265676973746572656420796574000000000000\n        /* \"#utility.yul\":25751:25752   */\n      0x00\n        /* \"#utility.yul\":25743:25749   */\n      dup3\n        /* \"#utility.yul\":25739:25753   */\n      add\n        /* \"#utility.yul\":25732:25784   */\n      mstore\n        /* \"#utility.yul\":25721:25791   */\n      pop\n      jump\t// out\n        /* \"#utility.yul\":25797:25966   */\n    tag_380:\n        /* \"#utility.yul\":25937:25958   */\n      0x7573657220686173207265676973746572656400000000000000000000000000\n        /* \"#utility.yul\":25933:25934   */\n      0x00\n        /* \"#utility.yul\":25925:25931   */\n      dup3\n        /* \"#utility.yul\":25921:25935   */\n      add\n        /* \"#utility.yul\":25914:25959   */\n      mstore\n        /* \"#utility.yul\":25903:25966   */\n      pop\n      jump\t// out\n        /* \"#utility.yul\":25972:26192   */\n    tag_385:\n        /* \"#utility.yul\":26112:26146   */\n      0x4f6e6c79204f776e65722063616e2063616c6c20746869732066756e6374696f\n        /* \"#utility.yul\":26108:26109   */\n      0x00\n        /* \"#utility.yul\":26100:26106   */\n      dup3\n        /* \"#utility.yul\":26096:26110   */\n      add\n        /* \"#utility.yul\":26089:26147   */\n      mstore\n        /* \"#utility.yul\":26181:26184   */\n      0x6e00000000000000000000000000000000000000000000000000000000000000\n        /* \"#utility.yul\":26176:26178   */\n      0x20\n        /* \"#utility.yul\":26168:26174   */\n      dup3\n        /* \"#utility.yul\":26164:26179   */\n      add\n        /* \"#utility.yul\":26157:26185   */\n      mstore\n        /* \"#utility.yul\":26078:26192   */\n      pop\n      jump\t// out\n        /* \"#utility.yul\":26198:26320   */\n    tag_240:\n        /* \"#utility.yul\":26271:26295   */\n      tag_510\n        /* \"#utility.yul\":26289:26294   */\n      dup2\n        /* \"#utility.yul\":26271:26295   */\n      tag_388\n      jump\t// in\n    tag_510:\n        /* \"#utility.yul\":26264:26269   */\n      dup2\n        /* \"#utility.yul\":26261:26296   */\n      eq\n        /* \"#utility.yul\":26251:26253   */\n      tag_511\n      jumpi\n        /* \"#utility.yul\":26310:26311   */\n      0x00\n        /* \"#utility.yul\":26307:26308   */\n      dup1\n        /* \"#utility.yul\":26300:26312   */\n      revert\n        /* \"#utility.yul\":26251:26253   */\n    tag_511:\n        /* \"#utility.yul\":26241:26320   */\n      pop\n      jump\t// out\n\n    auxdata: 0xa264697066735822122067e046c0a17e9bac1c4931633a8df6c0f40278ea11f06180dc1e21604586f86e64736f6c63430008030033\n}\n",
				"bytecode": {
					"linkReferences": {},
					"object": "608060405234801561001057600080fd5b50336000806101000a81548173ffffffffffffffffffffffffffffffffffffffff021916908373ffffffffffffffffffffffffffffffffffffffff1602179055506001600460006101000a81548160ff0219169083151502179055506122ff8061007b6000396000f3fe608060405234801561001057600080fd5b50600436106100b45760003560e01c806362e68ec01161007157806362e68ec01461016c5780636c699905146101765780637aad8c8014610194578063832c0aca146101b2578063d30f11dd146101ce578063ea87152b146101ed576100b4565b80630121b93f146100b95780630d15fd77146100d5578063238488fd146100f357806354e70cae1461011157806357df6ca3146101305780635b72565b1461014e575b600080fd5b6100d360048036038101906100ce9190611662565b610209565b005b6100dd610506565b6040516100ea9190611cc6565b60405180910390f35b6100fb61050c565b6040516101089190611b24565b60405180910390f35b610119610667565b604051610127929190611a9b565b60405180910390f35b61013861095f565b6040516101459190611b09565b60405180910390f35b610156610972565b6040516101639190611cc6565b60405180910390f35b610174610978565b005b61017e610a75565b60405161018b9190611b24565b60405180910390f35b61019c610ce3565b6040516101a99190611cc6565b60405180910390f35b6101cc60048036038101906101c791906115cd565b610ce9565b005b6101d6610ef8565b6040516101e4929190611ad2565b60405180910390f35b6102076004803603810190610202919061160e565b61120f565b005b600460009054906101000a900460ff1615610259576040517f08c379a000000000000000000000000000000000000000000000000000000000815260040161025090611c26565b60405180910390fd5b6000811415801561026c57506001548111155b6102ab576040517f08c379a00000000000000000000000000000000000000000000000000000000081526004016102a290611bc6565b60405180910390fd5b600960003373ffffffffffffffffffffffffffffffffffffffff1673ffffffffffffffffffffffffffffffffffffffff16815260200190815260200160002060009054906101000a900460ff16610337576040517f08c379a000000000000000000000000000000000000000000000000000000000815260040161032e90611c66565b60405180910390fd5b600860003373ffffffffffffffffffffffffffffffffffffffff1673ffffffffffffffffffffffffffffffffffffffff16815260200190815260200160002060009054906101000a900460ff16156103c4576040517f08c379a00000000000000000000000000000000000000000000000000000000081526004016103bb90611c46565b60405180910390fd5b600560008154809291906103d790611f6d565b9190505550600a6000828152602001908152602001600020600081548092919061040090611f6d565b919050555060076000828152602001908152602001600020600b60003373ffffffffffffffffffffffffffffffffffffffff1673ffffffffffffffffffffffffffffffffffffffff16815260200190815260200160002090805461046390611f0a565b61046e929190611420565b506001600860003373ffffffffffffffffffffffffffffffffffffffff1673ffffffffffffffffffffffffffffffffffffffff16815260200190815260200160002060006101000a81548160ff021916908315150217905550807f1abe610cf2bf87e57dcc1181fcf5ac0934e843d8344ab9eed6e86c799f62585e336005546040516104fb929190611a72565b60405180910390a250565b60055481565b6060600860003373ffffffffffffffffffffffffffffffffffffffff1673ffffffffffffffffffffffffffffffffffffffff16815260200190815260200160002060009054906101000a900460ff1661059a576040517f08c379a000000000000000000000000000000000000000000000000000000000815260040161059190611ba6565b60405180910390fd5b600b60003373ffffffffffffffffffffffffffffffffffffffff1673ffffffffffffffffffffffffffffffffffffffff16815260200190815260200160002080546105e490611f0a565b80601f016020809104026020016040519081016040528092919081815260200182805461061090611f0a565b801561065d5780601f106106325761010080835404028352916020019161065d565b820191906000526020600020905b81548152906001019060200180831161064057829003601f168201915b5050505050905090565b6060803373ffffffffffffffffffffffffffffffffffffffff1660008054906101000a900473ffffffffffffffffffffffffffffffffffffffff1673ffffffffffffffffffffffffffffffffffffffff16146106f8576040517f08c379a00000000000000000000000000000000000000000000000000000000081526004016106ef90611ca6565b60405180910390fd5b60006001541161073d576040517f08c379a000000000000000000000000000000000000000000000000000000000815260040161073490611c06565b60405180910390fd5b600060055411610782576040517f08c379a000000000000000000000000000000000000000000000000000000000815260040161077990611b66565b60405180910390fd5b600060015467ffffffffffffffff8111156107c6577f4e487b7100000000000000000000000000000000000000000000000000000000600052604160045260246000fd5b6040519080825280602002602001820160405280156107f45781602001602082028036833780820191505090505b5090506000600190505b600154811161087f57600a600082815260200190815260200160002054826001836108299190611e4c565b81518110610860577f4e487b7100000000000000000000000000000000000000000000000000000000600052603260045260246000fd5b602002602001018181525050808061087790611f6d565b9150506107fe565b5060038181805480602002602001604051908101604052809291908181526020016000905b828210156109505783829060005260206000200180546108c390611f0a565b80601f01602080910402602001604051908101604052809291908181526020018280546108ef90611f0a565b801561093c5780601f106109115761010080835404028352916020019161093c565b820191906000526020600020905b81548152906001019060200180831161091f57829003601f168201915b5050505050815260200190600101906108a4565b50505050915092509250509091565b600460009054906101000a900460ff1681565b60025481565b3373ffffffffffffffffffffffffffffffffffffffff1660008054906101000a900473ffffffffffffffffffffffffffffffffffffffff1673ffffffffffffffffffffffffffffffffffffffff1614610a06576040517f08c379a00000000000000000000000000000000000000000000000000000000081526004016109fd90611ca6565b60405180910390fd5b600460009054906101000a900460ff1615600460006101000a81548160ff0219169083151502179055503373ffffffffffffffffffffffffffffffffffffffff167f84b504c8f946dfbe9e8f7a3f8fc8a1985c4a42b162f8bd82ac21ca965273b03360405160405180910390a2565b60603373ffffffffffffffffffffffffffffffffffffffff1660008054906101000a900473ffffffffffffffffffffffffffffffffffffffff1673ffffffffffffffffffffffffffffffffffffffff1614610b05576040517f08c379a0000000000000000000000000000000000000000000000000000000008152600401610afc90611ca6565b60405180910390fd5b600060055411610b4a576040517f08c379a0000000000000000000000000000000000000000000000000000000008152600401610b4190611b66565b60405180910390fd5b6000806000600190505b6001548111610ba55782600a6000838152602001908152602001600020541115610b9257600a60008281526020019081526020016000205492508091505b8080610b9d90611f6d565b915050610b54565b50600080600190505b6001548111610bf45783600a6000838152602001908152602001600020541415610be1578180610bdd90611f6d565b9250505b8080610bec90611f6d565b915050610bae565b506001811115610c3e576040518060400160405280601481526020017f746865726520686173206265656e2061207469650000000000000000000000008152509350505050610ce0565b600760008381526020019081526020016000208054610c5c90611f0a565b80601f0160208091040260200160405190810160405280929190818152602001828054610c8890611f0a565b8015610cd55780601f10610caa57610100808354040283529160200191610cd5565b820191906000526020600020905b815481529060010190602001808311610cb857829003601f168201915b505050505093505050505b90565b60015481565b3373ffffffffffffffffffffffffffffffffffffffff1660008054906101000a900473ffffffffffffffffffffffffffffffffffffffff1673ffffffffffffffffffffffffffffffffffffffff1614610d77576040517f08c379a0000000000000000000000000000000000000000000000000000000008152600401610d6e90611ca6565b60405180910390fd5b60005b600380549050811015610e3c5760038181548110610dc1577f4e487b7100000000000000000000000000000000000000000000000000000000600052603260045260246000fd5b90600052602060002001604051610dd89190611a5b565b604051809103902082805190602001201415610e29576040517f08c379a0000000000000000000000000000000000000000000000000000000008152600401610e2090611be6565b60405180910390fd5b8080610e3490611f6d565b915050610d7a565b5060016000815480929190610e5090611f6d565b9190505550600381908060018154018082558091505060019003906000526020600020016000909190919091509080519060200190610e909291906114ad565b50806007600060015481526020019081526020016000209080519060200190610eba9291906114ad565b506001547f56f6c29d2eb99f40e2a206309dc37f2cff01a5755a4683e3c2b0ce22e5e3aa1782604051610eed9190611b24565b60405180910390a250565b606080600460009054906101000a900460ff1615610f4b576040517f08c379a0000000000000000000000000000000000000000000000000000000008152600401610f4290611c26565b60405180910390fd5b600060015411610f90576040517f08c379a0000000000000000000000000000000000000000000000000000000008152600401610f8790611b86565b60405180910390fd5b600060015467ffffffffffffffff811115610fd4577f4e487b7100000000000000000000000000000000000000000000000000000000600052604160045260246000fd5b6040519080825280602002602001820160405280156110025781602001602082028036833780820191505090505b509050600060015467ffffffffffffffff811115611049577f4e487b7100000000000000000000000000000000000000000000000000000000600052604160045260246000fd5b60405190808252806020026020018201604052801561107c57816020015b60608152602001906001900390816110675790505b50905060005b600154811015611202576001816110999190611df6565b8382815181106110d2577f4e487b7100000000000000000000000000000000000000000000000000000000600052603260045260246000fd5b60200260200101818152505060038181548110611118577f4e487b7100000000000000000000000000000000000000000000000000000000600052603260045260246000fd5b90600052602060002001805461112d90611f0a565b80601f016020809104026020016040519081016040528092919081815260200182805461115990611f0a565b80156111a65780601f1061117b576101008083540402835291602001916111a6565b820191906000526020600020905b81548152906001019060200180831161118957829003601f168201915b50505050508282815181106111e4577f4e487b7100000000000000000000000000000000000000000000000000000000600052603260045260246000fd5b602002602001018190525080806111fa90611f6d565b915050611082565b5081819350935050509091565b600960003373ffffffffffffffffffffffffffffffffffffffff1673ffffffffffffffffffffffffffffffffffffffff16815260200190815260200160002060009054906101000a900460ff161561129c576040517f08c379a000000000000000000000000000000000000000000000000000000000815260040161129390611c86565b60405180910390fd5b60128110156112e0576040517f08c379a00000000000000000000000000000000000000000000000000000000081526004016112d790611b46565b60405180910390fd5b600260008154809291906112f390611f6d565b91905055506006604051806060016040528060025481526020018481526020018381525090806001815401808255809150506001900390600052602060002090600302016000909190919091506000820151816000015560208201518160010190805190602001906113669291906114ad565b506040820151816002015550506001600960003373ffffffffffffffffffffffffffffffffffffffff1673ffffffffffffffffffffffffffffffffffffffff16815260200190815260200160002060006101000a81548160ff0219169083151502179055503373ffffffffffffffffffffffffffffffffffffffff166002547fca52e62c367d81bb2e328eb795f7c7ba24afb478408a26c0e201d155c449bc4a846040516114149190611b24565b60405180910390a35050565b82805461142c90611f0a565b90600052602060002090601f01602090048101928261144e576000855561149c565b82601f1061145f578054855561149c565b8280016001018555821561149c57600052602060002091601f016020900482015b8281111561149b578254825591600101919060010190611480565b5b5090506114a99190611533565b5090565b8280546114b990611f0a565b90600052602060002090601f0160209004810192826114db5760008555611522565b82601f106114f457805160ff1916838001178555611522565b82800160010185558215611522579182015b82811115611521578251825591602001919060010190611506565b5b50905061152f9190611533565b5090565b5b8082111561154c576000816000905550600101611534565b5090565b600061156361155e84611d06565b611ce1565b90508281526020810184848401111561157b57600080fd5b611586848285611ec8565b509392505050565b600082601f83011261159f57600080fd5b81356115af848260208601611550565b91505092915050565b6000813590506115c7816122b2565b92915050565b6000602082840312156115df57600080fd5b600082013567ffffffffffffffff8111156115f957600080fd5b6116058482850161158e565b91505092915050565b6000806040838503121561162157600080fd5b600083013567ffffffffffffffff81111561163b57600080fd5b6116478582860161158e565b9250506020611658858286016115b8565b9150509250929050565b60006020828403121561167457600080fd5b6000611682848285016115b8565b91505092915050565b60006116978383611827565b905092915050565b60006116ab8383611a3d565b60208301905092915050565b6116c081611e80565b82525050565b60006116d182611d6c565b6116db8185611da7565b9350836020820285016116ed85611d37565b8060005b85811015611729578484038952815161170a858261168b565b945061171583611d8d565b925060208a019950506001810190506116f1565b50829750879550505050505092915050565b600061174682611d77565b6117508185611db8565b935061175b83611d47565b8060005b8381101561178c578151611773888261169f565b975061177e83611d9a565b92505060018101905061175f565b5085935050505092915050565b6117a281611e92565b82525050565b600081546117b581611f0a565b6117bf8186611dc9565b945060018216600081146117da57600181146117eb5761181e565b60ff1983168652818601935061181e565b6117f485611d57565b60005b83811015611816578154818901526001820191506020810190506117f7565b838801955050505b50505092915050565b600061183282611d82565b61183c8185611dd4565b935061184c818560208601611ed7565b61185581612043565b840191505092915050565b600061186b82611d82565b6118758185611de5565b9350611885818560208601611ed7565b61188e81612043565b840191505092915050565b60006118a6602d83611de5565b91506118b182612054565b604082019050919050565b60006118c9601483611de5565b91506118d4826120a3565b602082019050919050565b60006118ec601583611de5565b91506118f7826120cc565b602082019050919050565b600061190f601583611de5565b915061191a826120f5565b602082019050919050565b6000611932602783611de5565b915061193d8261211e565b604082019050919050565b6000611955601b83611de5565b91506119608261216d565b602082019050919050565b6000611978601b83611de5565b915061198382612196565b602082019050919050565b600061199b601683611de5565b91506119a6826121bf565b602082019050919050565b60006119be601683611de5565b91506119c9826121e8565b602082019050919050565b60006119e1601a83611de5565b91506119ec82612211565b602082019050919050565b6000611a04601383611de5565b9150611a0f8261223a565b602082019050919050565b6000611a27602183611de5565b9150611a3282612263565b604082019050919050565b611a4681611ebe565b82525050565b611a5581611ebe565b82525050565b6000611a6782846117a8565b915081905092915050565b6000604082019050611a8760008301856116b7565b611a946020830184611a4c565b9392505050565b60006040820190508181036000830152611ab581856116c6565b90508181036020830152611ac9818461173b565b90509392505050565b60006040820190508181036000830152611aec818561173b565b90508181036020830152611b0081846116c6565b90509392505050565b6000602082019050611b1e6000830184611799565b92915050565b60006020820190508181036000830152611b3e8184611860565b905092915050565b60006020820190508181036000830152611b5f81611899565b9050919050565b60006020820190508181036000830152611b7f816118bc565b9050919050565b60006020820190508181036000830152611b9f816118df565b9050919050565b60006020820190508181036000830152611bbf81611902565b9050919050565b60006020820190508181036000830152611bdf81611925565b9050919050565b60006020820190508181036000830152611bff81611948565b9050919050565b60006020820190508181036000830152611c1f8161196b565b9050919050565b60006020820190508181036000830152611c3f8161198e565b9050919050565b60006020820190508181036000830152611c5f816119b1565b9050919050565b60006020820190508181036000830152611c7f816119d4565b9050919050565b60006020820190508181036000830152611c9f816119f7565b9050919050565b60006020820190508181036000830152611cbf81611a1a565b9050919050565b6000602082019050611cdb6000830184611a4c565b92915050565b6000611ceb611cfc565b9050611cf78282611f3c565b919050565b6000604051905090565b600067ffffffffffffffff821115611d2157611d20612014565b5b611d2a82612043565b9050602081019050919050565b6000819050602082019050919050565b6000819050602082019050919050565b60008190508160005260206000209050919050565b600081519050919050565b600081519050919050565b600081519050919050565b6000602082019050919050565b6000602082019050919050565b600082825260208201905092915050565b600082825260208201905092915050565b600081905092915050565b600082825260208201905092915050565b600082825260208201905092915050565b6000611e0182611ebe565b9150611e0c83611ebe565b9250827fffffffffffffffffffffffffffffffffffffffffffffffffffffffffffffffff03821115611e4157611e40611fb6565b5b828201905092915050565b6000611e5782611ebe565b9150611e6283611ebe565b925082821015611e7557611e74611fb6565b5b828203905092915050565b6000611e8b82611e9e565b9050919050565b60008115159050919050565b600073ffffffffffffffffffffffffffffffffffffffff82169050919050565b6000819050919050565b82818337600083830152505050565b60005b83811015611ef5578082015181840152602081019050611eda565b83811115611f04576000848401525b50505050565b60006002820490506001821680611f2257607f821691505b60208210811415611f3657611f35611fe5565b5b50919050565b611f4582612043565b810181811067ffffffffffffffff82111715611f6457611f63612014565b5b80604052505050565b6000611f7882611ebe565b91507fffffffffffffffffffffffffffffffffffffffffffffffffffffffffffffffff821415611fab57611faa611fb6565b5b600182019050919050565b7f4e487b7100000000000000000000000000000000000000000000000000000000600052601160045260246000fd5b7f4e487b7100000000000000000000000000000000000000000000000000000000600052602260045260246000fd5b7f4e487b7100000000000000000000000000000000000000000000000000000000600052604160045260246000fd5b6000601f19601f8301169050919050565b7f75736572206167652062656c6f772031382063616e277420726567697374657260008201527f20666f722074686520766f746500000000000000000000000000000000000000602082015250565b7f4e6f206f6e652068617320766f74656420796574000000000000000000000000600082015250565b7f4e6f2063616e6469646174657320746f20766965770000000000000000000000600082015250565b7f75736572206861736e277420766f746564207965740000000000000000000000600082015250565b7f7468657265206973206e6f20636f6e74657374616e742077697468207468697360008201527f206e756d62657200000000000000000000000000000000000000000000000000602082015250565b7f6e616d652068617320616c7265616479206265656e2061646465640000000000600082015250565b7f4e6f2063616e64696461746520686173206265656e2061646465640000000000600082015250565b7f74686520636f6e74726163742069732070617573656400000000000000000000600082015250565b7f757365722068617320766f74656420616c726561647900000000000000000000600082015250565b7f75736572206861736e2774207265676973746572656420796574000000000000600082015250565b7f7573657220686173207265676973746572656400000000000000000000000000600082015250565b7f4f6e6c79204f776e65722063616e2063616c6c20746869732066756e6374696f60008201527f6e00000000000000000000000000000000000000000000000000000000000000602082015250565b6122bb81611ebe565b81146122c657600080fd5b5056fea264697066735822122067e046c0a17e9bac1c4931633a8df6c0f40278ea11f06180dc1e21604586f86e64736f6c63430008030033",
					"opcodes": "PUSH1 0x80 PUSH1 0x40 MSTORE CALLVALUE DUP1 ISZERO PUSH2 0x10 JUMPI PUSH1 0x0 DUP1 REVERT JUMPDEST POP CALLER PUSH1 0x0 DUP1 PUSH2 0x100 EXP DUP2 SLOAD DUP2 PUSH20 0xFFFFFFFFFFFFFFFFFFFFFFFFFFFFFFFFFFFFFFFF MUL NOT AND SWAP1 DUP4 PUSH20 0xFFFFFFFFFFFFFFFFFFFFFFFFFFFFFFFFFFFFFFFF AND MUL OR SWAP1 SSTORE POP PUSH1 0x1 PUSH1 0x4 PUSH1 0x0 PUSH2 0x100 EXP DUP2 SLOAD DUP2 PUSH1 0xFF MUL NOT AND SWAP1 DUP4 ISZERO ISZERO MUL OR SWAP1 SSTORE POP PUSH2 0x22FF DUP1 PUSH2 0x7B PUSH1 0x0 CODECOPY PUSH1 0x0 RETURN INVALID PUSH1 0x80 PUSH1 0x40 MSTORE CALLVALUE DUP1 ISZERO PUSH2 0x10 JUMPI PUSH1 0x0 DUP1 REVERT JUMPDEST POP PUSH1 0x4 CALLDATASIZE LT PUSH2 0xB4 JUMPI PUSH1 0x0 CALLDATALOAD PUSH1 0xE0 SHR DUP1 PUSH4 0x62E68EC0 GT PUSH2 0x71 JUMPI DUP1 PUSH4 0x62E68EC0 EQ PUSH2 0x16C JUMPI DUP1 PUSH4 0x6C699905 EQ PUSH2 0x176 JUMPI DUP1 PUSH4 0x7AAD8C80 EQ PUSH2 0x194 JUMPI DUP1 PUSH4 0x832C0ACA EQ PUSH2 0x1B2 JUMPI DUP1 PUSH4 0xD30F11DD EQ PUSH2 0x1CE JUMPI DUP1 PUSH4 0xEA87152B EQ PUSH2 0x1ED JUMPI PUSH2 0xB4 JUMP JUMPDEST DUP1 PUSH4 0x121B93F EQ PUSH2 0xB9 JUMPI DUP1 PUSH4 0xD15FD77 EQ PUSH2 0xD5 JUMPI DUP1 PUSH4 0x238488FD EQ PUSH2 0xF3 JUMPI DUP1 PUSH4 0x54E70CAE EQ PUSH2 0x111 JUMPI DUP1 PUSH4 0x57DF6CA3 EQ PUSH2 0x130 JUMPI DUP1 PUSH4 0x5B72565B EQ PUSH2 0x14E JUMPI JUMPDEST PUSH1 0x0 DUP1 REVERT JUMPDEST PUSH2 0xD3 PUSH1 0x4 DUP1 CALLDATASIZE SUB DUP2 ADD SWAP1 PUSH2 0xCE SWAP2 SWAP1 PUSH2 0x1662 JUMP JUMPDEST PUSH2 0x209 JUMP JUMPDEST STOP JUMPDEST PUSH2 0xDD PUSH2 0x506 JUMP JUMPDEST PUSH1 0x40 MLOAD PUSH2 0xEA SWAP2 SWAP1 PUSH2 0x1CC6 JUMP JUMPDEST PUSH1 0x40 MLOAD DUP1 SWAP2 SUB SWAP1 RETURN JUMPDEST PUSH2 0xFB PUSH2 0x50C JUMP JUMPDEST PUSH1 0x40 MLOAD PUSH2 0x108 SWAP2 SWAP1 PUSH2 0x1B24 JUMP JUMPDEST PUSH1 0x40 MLOAD DUP1 SWAP2 SUB SWAP1 RETURN JUMPDEST PUSH2 0x119 PUSH2 0x667 JUMP JUMPDEST PUSH1 0x40 MLOAD PUSH2 0x127 SWAP3 SWAP2 SWAP1 PUSH2 0x1A9B JUMP JUMPDEST PUSH1 0x40 MLOAD DUP1 SWAP2 SUB SWAP1 RETURN JUMPDEST PUSH2 0x138 PUSH2 0x95F JUMP JUMPDEST PUSH1 0x40 MLOAD PUSH2 0x145 SWAP2 SWAP1 PUSH2 0x1B09 JUMP JUMPDEST PUSH1 0x40 MLOAD DUP1 SWAP2 SUB SWAP1 RETURN JUMPDEST PUSH2 0x156 PUSH2 0x972 JUMP JUMPDEST PUSH1 0x40 MLOAD PUSH2 0x163 SWAP2 SWAP1 PUSH2 0x1CC6 JUMP JUMPDEST PUSH1 0x40 MLOAD DUP1 SWAP2 SUB SWAP1 RETURN JUMPDEST PUSH2 0x174 PUSH2 0x978 JUMP JUMPDEST STOP JUMPDEST PUSH2 0x17E PUSH2 0xA75 JUMP JUMPDEST PUSH1 0x40 MLOAD PUSH2 0x18B SWAP2 SWAP1 PUSH2 0x1B24 JUMP JUMPDEST PUSH1 0x40 MLOAD DUP1 SWAP2 SUB SWAP1 RETURN JUMPDEST PUSH2 0x19C PUSH2 0xCE3 JUMP JUMPDEST PUSH1 0x40 MLOAD PUSH2 0x1A9 SWAP2 SWAP1 PUSH2 0x1CC6 JUMP JUMPDEST PUSH1 0x40 MLOAD DUP1 SWAP2 SUB SWAP1 RETURN JUMPDEST PUSH2 0x1CC PUSH1 0x4 DUP1 CALLDATASIZE SUB DUP2 ADD SWAP1 PUSH2 0x1C7 SWAP2 SWAP1 PUSH2 0x15CD JUMP JUMPDEST PUSH2 0xCE9 JUMP JUMPDEST STOP JUMPDEST PUSH2 0x1D6 PUSH2 0xEF8 JUMP JUMPDEST PUSH1 0x40 MLOAD PUSH2 0x1E4 SWAP3 SWAP2 SWAP1 PUSH2 0x1AD2 JUMP JUMPDEST PUSH1 0x40 MLOAD DUP1 SWAP2 SUB SWAP1 RETURN JUMPDEST PUSH2 0x207 PUSH1 0x4 DUP1 CALLDATASIZE SUB DUP2 ADD SWAP1 PUSH2 0x202 SWAP2 SWAP1 PUSH2 0x160E JUMP JUMPDEST PUSH2 0x120F JUMP JUMPDEST STOP JUMPDEST PUSH1 0x4 PUSH1 0x0 SWAP1 SLOAD SWAP1 PUSH2 0x100 EXP SWAP1 DIV PUSH1 0xFF AND ISZERO PUSH2 0x259 JUMPI PUSH1 0x40 MLOAD PUSH32 0x8C379A000000000000000000000000000000000000000000000000000000000 DUP2 MSTORE PUSH1 0x4 ADD PUSH2 0x250 SWAP1 PUSH2 0x1C26 JUMP JUMPDEST PUSH1 0x40 MLOAD DUP1 SWAP2 SUB SWAP1 REVERT JUMPDEST PUSH1 0x0 DUP2 EQ ISZERO DUP1 ISZERO PUSH2 0x26C JUMPI POP PUSH1 0x1 SLOAD DUP2 GT ISZERO JUMPDEST PUSH2 0x2AB JUMPI PUSH1 0x40 MLOAD PUSH32 0x8C379A000000000000000000000000000000000000000000000000000000000 DUP2 MSTORE PUSH1 0x4 ADD PUSH2 0x2A2 SWAP1 PUSH2 0x1BC6 JUMP JUMPDEST PUSH1 0x40 MLOAD DUP1 SWAP2 SUB SWAP1 REVERT JUMPDEST PUSH1 0x9 PUSH1 0x0 CALLER PUSH20 0xFFFFFFFFFFFFFFFFFFFFFFFFFFFFFFFFFFFFFFFF AND PUSH20 0xFFFFFFFFFFFFFFFFFFFFFFFFFFFFFFFFFFFFFFFF AND DUP2 MSTORE PUSH1 0x20 ADD SWAP1 DUP2 MSTORE PUSH1 0x20 ADD PUSH1 0x0 KECCAK256 PUSH1 0x0 SWAP1 SLOAD SWAP1 PUSH2 0x100 EXP SWAP1 DIV PUSH1 0xFF AND PUSH2 0x337 JUMPI PUSH1 0x40 MLOAD PUSH32 0x8C379A000000000000000000000000000000000000000000000000000000000 DUP2 MSTORE PUSH1 0x4 ADD PUSH2 0x32E SWAP1 PUSH2 0x1C66 JUMP JUMPDEST PUSH1 0x40 MLOAD DUP1 SWAP2 SUB SWAP1 REVERT JUMPDEST PUSH1 0x8 PUSH1 0x0 CALLER PUSH20 0xFFFFFFFFFFFFFFFFFFFFFFFFFFFFFFFFFFFFFFFF AND PUSH20 0xFFFFFFFFFFFFFFFFFFFFFFFFFFFFFFFFFFFFFFFF AND DUP2 MSTORE PUSH1 0x20 ADD SWAP1 DUP2 MSTORE PUSH1 0x20 ADD PUSH1 0x0 KECCAK256 PUSH1 0x0 SWAP1 SLOAD SWAP1 PUSH2 0x100 EXP SWAP1 DIV PUSH1 0xFF AND ISZERO PUSH2 0x3C4 JUMPI PUSH1 0x40 MLOAD PUSH32 0x8C379A000000000000000000000000000000000000000000000000000000000 DUP2 MSTORE PUSH1 0x4 ADD PUSH2 0x3BB SWAP1 PUSH2 0x1C46 JUMP JUMPDEST PUSH1 0x40 MLOAD DUP1 SWAP2 SUB SWAP1 REVERT JUMPDEST PUSH1 0x5 PUSH1 0x0 DUP2 SLOAD DUP1 SWAP3 SWAP2 SWAP1 PUSH2 0x3D7 SWAP1 PUSH2 0x1F6D JUMP JUMPDEST SWAP2 SWAP1 POP SSTORE POP PUSH1 0xA PUSH1 0x0 DUP3 DUP2 MSTORE PUSH1 0x20 ADD SWAP1 DUP2 MSTORE PUSH1 0x20 ADD PUSH1 0x0 KECCAK256 PUSH1 0x0 DUP2 SLOAD DUP1 SWAP3 SWAP2 SWAP1 PUSH2 0x400 SWAP1 PUSH2 0x1F6D JUMP JUMPDEST SWAP2 SWAP1 POP SSTORE POP PUSH1 0x7 PUSH1 0x0 DUP3 DUP2 MSTORE PUSH1 0x20 ADD SWAP1 DUP2 MSTORE PUSH1 0x20 ADD PUSH1 0x0 KECCAK256 PUSH1 0xB PUSH1 0x0 CALLER PUSH20 0xFFFFFFFFFFFFFFFFFFFFFFFFFFFFFFFFFFFFFFFF AND PUSH20 0xFFFFFFFFFFFFFFFFFFFFFFFFFFFFFFFFFFFFFFFF AND DUP2 MSTORE PUSH1 0x20 ADD SWAP1 DUP2 MSTORE PUSH1 0x20 ADD PUSH1 0x0 KECCAK256 SWAP1 DUP1 SLOAD PUSH2 0x463 SWAP1 PUSH2 0x1F0A JUMP JUMPDEST PUSH2 0x46E SWAP3 SWAP2 SWAP1 PUSH2 0x1420 JUMP JUMPDEST POP PUSH1 0x1 PUSH1 0x8 PUSH1 0x0 CALLER PUSH20 0xFFFFFFFFFFFFFFFFFFFFFFFFFFFFFFFFFFFFFFFF AND PUSH20 0xFFFFFFFFFFFFFFFFFFFFFFFFFFFFFFFFFFFFFFFF AND DUP2 MSTORE PUSH1 0x20 ADD SWAP1 DUP2 MSTORE PUSH1 0x20 ADD PUSH1 0x0 KECCAK256 PUSH1 0x0 PUSH2 0x100 EXP DUP2 SLOAD DUP2 PUSH1 0xFF MUL NOT AND SWAP1 DUP4 ISZERO ISZERO MUL OR SWAP1 SSTORE POP DUP1 PUSH32 0x1ABE610CF2BF87E57DCC1181FCF5AC0934E843D8344AB9EED6E86C799F62585E CALLER PUSH1 0x5 SLOAD PUSH1 0x40 MLOAD PUSH2 0x4FB SWAP3 SWAP2 SWAP1 PUSH2 0x1A72 JUMP JUMPDEST PUSH1 0x40 MLOAD DUP1 SWAP2 SUB SWAP1 LOG2 POP JUMP JUMPDEST PUSH1 0x5 SLOAD DUP2 JUMP JUMPDEST PUSH1 0x60 PUSH1 0x8 PUSH1 0x0 CALLER PUSH20 0xFFFFFFFFFFFFFFFFFFFFFFFFFFFFFFFFFFFFFFFF AND PUSH20 0xFFFFFFFFFFFFFFFFFFFFFFFFFFFFFFFFFFFFFFFF AND DUP2 MSTORE PUSH1 0x20 ADD SWAP1 DUP2 MSTORE PUSH1 0x20 ADD PUSH1 0x0 KECCAK256 PUSH1 0x0 SWAP1 SLOAD SWAP1 PUSH2 0x100 EXP SWAP1 DIV PUSH1 0xFF AND PUSH2 0x59A JUMPI PUSH1 0x40 MLOAD PUSH32 0x8C379A000000000000000000000000000000000000000000000000000000000 DUP2 MSTORE PUSH1 0x4 ADD PUSH2 0x591 SWAP1 PUSH2 0x1BA6 JUMP JUMPDEST PUSH1 0x40 MLOAD DUP1 SWAP2 SUB SWAP1 REVERT JUMPDEST PUSH1 0xB PUSH1 0x0 CALLER PUSH20 0xFFFFFFFFFFFFFFFFFFFFFFFFFFFFFFFFFFFFFFFF AND PUSH20 0xFFFFFFFFFFFFFFFFFFFFFFFFFFFFFFFFFFFFFFFF AND DUP2 MSTORE PUSH1 0x20 ADD SWAP1 DUP2 MSTORE PUSH1 0x20 ADD PUSH1 0x0 KECCAK256 DUP1 SLOAD PUSH2 0x5E4 SWAP1 PUSH2 0x1F0A JUMP JUMPDEST DUP1 PUSH1 0x1F ADD PUSH1 0x20 DUP1 SWAP2 DIV MUL PUSH1 0x20 ADD PUSH1 0x40 MLOAD SWAP1 DUP2 ADD PUSH1 0x40 MSTORE DUP1 SWAP3 SWAP2 SWAP1 DUP2 DUP2 MSTORE PUSH1 0x20 ADD DUP3 DUP1 SLOAD PUSH2 0x610 SWAP1 PUSH2 0x1F0A JUMP JUMPDEST DUP1 ISZERO PUSH2 0x65D JUMPI DUP1 PUSH1 0x1F LT PUSH2 0x632 JUMPI PUSH2 0x100 DUP1 DUP4 SLOAD DIV MUL DUP4 MSTORE SWAP2 PUSH1 0x20 ADD SWAP2 PUSH2 0x65D JUMP JUMPDEST DUP3 ADD SWAP2 SWAP1 PUSH1 0x0 MSTORE PUSH1 0x20 PUSH1 0x0 KECCAK256 SWAP1 JUMPDEST DUP2 SLOAD DUP2 MSTORE SWAP1 PUSH1 0x1 ADD SWAP1 PUSH1 0x20 ADD DUP1 DUP4 GT PUSH2 0x640 JUMPI DUP3 SWAP1 SUB PUSH1 0x1F AND DUP3 ADD SWAP2 JUMPDEST POP POP POP POP POP SWAP1 POP SWAP1 JUMP JUMPDEST PUSH1 0x60 DUP1 CALLER PUSH20 0xFFFFFFFFFFFFFFFFFFFFFFFFFFFFFFFFFFFFFFFF AND PUSH1 0x0 DUP1 SLOAD SWAP1 PUSH2 0x100 EXP SWAP1 DIV PUSH20 0xFFFFFFFFFFFFFFFFFFFFFFFFFFFFFFFFFFFFFFFF AND PUSH20 0xFFFFFFFFFFFFFFFFFFFFFFFFFFFFFFFFFFFFFFFF AND EQ PUSH2 0x6F8 JUMPI PUSH1 0x40 MLOAD PUSH32 0x8C379A000000000000000000000000000000000000000000000000000000000 DUP2 MSTORE PUSH1 0x4 ADD PUSH2 0x6EF SWAP1 PUSH2 0x1CA6 JUMP JUMPDEST PUSH1 0x40 MLOAD DUP1 SWAP2 SUB SWAP1 REVERT JUMPDEST PUSH1 0x0 PUSH1 0x1 SLOAD GT PUSH2 0x73D JUMPI PUSH1 0x40 MLOAD PUSH32 0x8C379A000000000000000000000000000000000000000000000000000000000 DUP2 MSTORE PUSH1 0x4 ADD PUSH2 0x734 SWAP1 PUSH2 0x1C06 JUMP JUMPDEST PUSH1 0x40 MLOAD DUP1 SWAP2 SUB SWAP1 REVERT JUMPDEST PUSH1 0x0 PUSH1 0x5 SLOAD GT PUSH2 0x782 JUMPI PUSH1 0x40 MLOAD PUSH32 0x8C379A000000000000000000000000000000000000000000000000000000000 DUP2 MSTORE PUSH1 0x4 ADD PUSH2 0x779 SWAP1 PUSH2 0x1B66 JUMP JUMPDEST PUSH1 0x40 MLOAD DUP1 SWAP2 SUB SWAP1 REVERT JUMPDEST PUSH1 0x0 PUSH1 0x1 SLOAD PUSH8 0xFFFFFFFFFFFFFFFF DUP2 GT ISZERO PUSH2 0x7C6 JUMPI PUSH32 0x4E487B7100000000000000000000000000000000000000000000000000000000 PUSH1 0x0 MSTORE PUSH1 0x41 PUSH1 0x4 MSTORE PUSH1 0x24 PUSH1 0x0 REVERT JUMPDEST PUSH1 0x40 MLOAD SWAP1 DUP1 DUP3 MSTORE DUP1 PUSH1 0x20 MUL PUSH1 0x20 ADD DUP3 ADD PUSH1 0x40 MSTORE DUP1 ISZERO PUSH2 0x7F4 JUMPI DUP2 PUSH1 0x20 ADD PUSH1 0x20 DUP3 MUL DUP1 CALLDATASIZE DUP4 CALLDATACOPY DUP1 DUP3 ADD SWAP2 POP POP SWAP1 POP JUMPDEST POP SWAP1 POP PUSH1 0x0 PUSH1 0x1 SWAP1 POP JUMPDEST PUSH1 0x1 SLOAD DUP2 GT PUSH2 0x87F JUMPI PUSH1 0xA PUSH1 0x0 DUP3 DUP2 MSTORE PUSH1 0x20 ADD SWAP1 DUP2 MSTORE PUSH1 0x20 ADD PUSH1 0x0 KECCAK256 SLOAD DUP3 PUSH1 0x1 DUP4 PUSH2 0x829 SWAP2 SWAP1 PUSH2 0x1E4C JUMP JUMPDEST DUP2 MLOAD DUP2 LT PUSH2 0x860 JUMPI PUSH32 0x4E487B7100000000000000000000000000000000000000000000000000000000 PUSH1 0x0 MSTORE PUSH1 0x32 PUSH1 0x4 MSTORE PUSH1 0x24 PUSH1 0x0 REVERT JUMPDEST PUSH1 0x20 MUL PUSH1 0x20 ADD ADD DUP2 DUP2 MSTORE POP POP DUP1 DUP1 PUSH2 0x877 SWAP1 PUSH2 0x1F6D JUMP JUMPDEST SWAP2 POP POP PUSH2 0x7FE JUMP JUMPDEST POP PUSH1 0x3 DUP2 DUP2 DUP1 SLOAD DUP1 PUSH1 0x20 MUL PUSH1 0x20 ADD PUSH1 0x40 MLOAD SWAP1 DUP2 ADD PUSH1 0x40 MSTORE DUP1 SWAP3 SWAP2 SWAP1 DUP2 DUP2 MSTORE PUSH1 0x20 ADD PUSH1 0x0 SWAP1 JUMPDEST DUP3 DUP3 LT ISZERO PUSH2 0x950 JUMPI DUP4 DUP3 SWAP1 PUSH1 0x0 MSTORE PUSH1 0x20 PUSH1 0x0 KECCAK256 ADD DUP1 SLOAD PUSH2 0x8C3 SWAP1 PUSH2 0x1F0A JUMP JUMPDEST DUP1 PUSH1 0x1F ADD PUSH1 0x20 DUP1 SWAP2 DIV MUL PUSH1 0x20 ADD PUSH1 0x40 MLOAD SWAP1 DUP2 ADD PUSH1 0x40 MSTORE DUP1 SWAP3 SWAP2 SWAP1 DUP2 DUP2 MSTORE PUSH1 0x20 ADD DUP3 DUP1 SLOAD PUSH2 0x8EF SWAP1 PUSH2 0x1F0A JUMP JUMPDEST DUP1 ISZERO PUSH2 0x93C JUMPI DUP1 PUSH1 0x1F LT PUSH2 0x911 JUMPI PUSH2 0x100 DUP1 DUP4 SLOAD DIV MUL DUP4 MSTORE SWAP2 PUSH1 0x20 ADD SWAP2 PUSH2 0x93C JUMP JUMPDEST DUP3 ADD SWAP2 SWAP1 PUSH1 0x0 MSTORE PUSH1 0x20 PUSH1 0x0 KECCAK256 SWAP1 JUMPDEST DUP2 SLOAD DUP2 MSTORE SWAP1 PUSH1 0x1 ADD SWAP1 PUSH1 0x20 ADD DUP1 DUP4 GT PUSH2 0x91F JUMPI DUP3 SWAP1 SUB PUSH1 0x1F AND DUP3 ADD SWAP2 JUMPDEST POP POP POP POP POP DUP2 MSTORE PUSH1 0x20 ADD SWAP1 PUSH1 0x1 ADD SWAP1 PUSH2 0x8A4 JUMP JUMPDEST POP POP POP POP SWAP2 POP SWAP3 POP SWAP3 POP POP SWAP1 SWAP2 JUMP JUMPDEST PUSH1 0x4 PUSH1 0x0 SWAP1 SLOAD SWAP1 PUSH2 0x100 EXP SWAP1 DIV PUSH1 0xFF AND DUP2 JUMP JUMPDEST PUSH1 0x2 SLOAD DUP2 JUMP JUMPDEST CALLER PUSH20 0xFFFFFFFFFFFFFFFFFFFFFFFFFFFFFFFFFFFFFFFF AND PUSH1 0x0 DUP1 SLOAD SWAP1 PUSH2 0x100 EXP SWAP1 DIV PUSH20 0xFFFFFFFFFFFFFFFFFFFFFFFFFFFFFFFFFFFFFFFF AND PUSH20 0xFFFFFFFFFFFFFFFFFFFFFFFFFFFFFFFFFFFFFFFF AND EQ PUSH2 0xA06 JUMPI PUSH1 0x40 MLOAD PUSH32 0x8C379A000000000000000000000000000000000000000000000000000000000 DUP2 MSTORE PUSH1 0x4 ADD PUSH2 0x9FD SWAP1 PUSH2 0x1CA6 JUMP JUMPDEST PUSH1 0x40 MLOAD DUP1 SWAP2 SUB SWAP1 REVERT JUMPDEST PUSH1 0x4 PUSH1 0x0 SWAP1 SLOAD SWAP1 PUSH2 0x100 EXP SWAP1 DIV PUSH1 0xFF AND ISZERO PUSH1 0x4 PUSH1 0x0 PUSH2 0x100 EXP DUP2 SLOAD DUP2 PUSH1 0xFF MUL NOT AND SWAP1 DUP4 ISZERO ISZERO MUL OR SWAP1 SSTORE POP CALLER PUSH20 0xFFFFFFFFFFFFFFFFFFFFFFFFFFFFFFFFFFFFFFFF AND PUSH32 0x84B504C8F946DFBE9E8F7A3F8FC8A1985C4A42B162F8BD82AC21CA965273B033 PUSH1 0x40 MLOAD PUSH1 0x40 MLOAD DUP1 SWAP2 SUB SWAP1 LOG2 JUMP JUMPDEST PUSH1 0x60 CALLER PUSH20 0xFFFFFFFFFFFFFFFFFFFFFFFFFFFFFFFFFFFFFFFF AND PUSH1 0x0 DUP1 SLOAD SWAP1 PUSH2 0x100 EXP SWAP1 DIV PUSH20 0xFFFFFFFFFFFFFFFFFFFFFFFFFFFFFFFFFFFFFFFF AND PUSH20 0xFFFFFFFFFFFFFFFFFFFFFFFFFFFFFFFFFFFFFFFF AND EQ PUSH2 0xB05 JUMPI PUSH1 0x40 MLOAD PUSH32 0x8C379A000000000000000000000000000000000000000000000000000000000 DUP2 MSTORE PUSH1 0x4 ADD PUSH2 0xAFC SWAP1 PUSH2 0x1CA6 JUMP JUMPDEST PUSH1 0x40 MLOAD DUP1 SWAP2 SUB SWAP1 REVERT JUMPDEST PUSH1 0x0 PUSH1 0x5 SLOAD GT PUSH2 0xB4A JUMPI PUSH1 0x40 MLOAD PUSH32 0x8C379A000000000000000000000000000000000000000000000000000000000 DUP2 MSTORE PUSH1 0x4 ADD PUSH2 0xB41 SWAP1 PUSH2 0x1B66 JUMP JUMPDEST PUSH1 0x40 MLOAD DUP1 SWAP2 SUB SWAP1 REVERT JUMPDEST PUSH1 0x0 DUP1 PUSH1 0x0 PUSH1 0x1 SWAP1 POP JUMPDEST PUSH1 0x1 SLOAD DUP2 GT PUSH2 0xBA5 JUMPI DUP3 PUSH1 0xA PUSH1 0x0 DUP4 DUP2 MSTORE PUSH1 0x20 ADD SWAP1 DUP2 MSTORE PUSH1 0x20 ADD PUSH1 0x0 KECCAK256 SLOAD GT ISZERO PUSH2 0xB92 JUMPI PUSH1 0xA PUSH1 0x0 DUP3 DUP2 MSTORE PUSH1 0x20 ADD SWAP1 DUP2 MSTORE PUSH1 0x20 ADD PUSH1 0x0 KECCAK256 SLOAD SWAP3 POP DUP1 SWAP2 POP JUMPDEST DUP1 DUP1 PUSH2 0xB9D SWAP1 PUSH2 0x1F6D JUMP JUMPDEST SWAP2 POP POP PUSH2 0xB54 JUMP JUMPDEST POP PUSH1 0x0 DUP1 PUSH1 0x1 SWAP1 POP JUMPDEST PUSH1 0x1 SLOAD DUP2 GT PUSH2 0xBF4 JUMPI DUP4 PUSH1 0xA PUSH1 0x0 DUP4 DUP2 MSTORE PUSH1 0x20 ADD SWAP1 DUP2 MSTORE PUSH1 0x20 ADD PUSH1 0x0 KECCAK256 SLOAD EQ ISZERO PUSH2 0xBE1 JUMPI DUP2 DUP1 PUSH2 0xBDD SWAP1 PUSH2 0x1F6D JUMP JUMPDEST SWAP3 POP POP JUMPDEST DUP1 DUP1 PUSH2 0xBEC SWAP1 PUSH2 0x1F6D JUMP JUMPDEST SWAP2 POP POP PUSH2 0xBAE JUMP JUMPDEST POP PUSH1 0x1 DUP2 GT ISZERO PUSH2 0xC3E JUMPI PUSH1 0x40 MLOAD DUP1 PUSH1 0x40 ADD PUSH1 0x40 MSTORE DUP1 PUSH1 0x14 DUP2 MSTORE PUSH1 0x20 ADD PUSH32 0x746865726520686173206265656E206120746965000000000000000000000000 DUP2 MSTORE POP SWAP4 POP POP POP POP PUSH2 0xCE0 JUMP JUMPDEST PUSH1 0x7 PUSH1 0x0 DUP4 DUP2 MSTORE PUSH1 0x20 ADD SWAP1 DUP2 MSTORE PUSH1 0x20 ADD PUSH1 0x0 KECCAK256 DUP1 SLOAD PUSH2 0xC5C SWAP1 PUSH2 0x1F0A JUMP JUMPDEST DUP1 PUSH1 0x1F ADD PUSH1 0x20 DUP1 SWAP2 DIV MUL PUSH1 0x20 ADD PUSH1 0x40 MLOAD SWAP1 DUP2 ADD PUSH1 0x40 MSTORE DUP1 SWAP3 SWAP2 SWAP1 DUP2 DUP2 MSTORE PUSH1 0x20 ADD DUP3 DUP1 SLOAD PUSH2 0xC88 SWAP1 PUSH2 0x1F0A JUMP JUMPDEST DUP1 ISZERO PUSH2 0xCD5 JUMPI DUP1 PUSH1 0x1F LT PUSH2 0xCAA JUMPI PUSH2 0x100 DUP1 DUP4 SLOAD DIV MUL DUP4 MSTORE SWAP2 PUSH1 0x20 ADD SWAP2 PUSH2 0xCD5 JUMP JUMPDEST DUP3 ADD SWAP2 SWAP1 PUSH1 0x0 MSTORE PUSH1 0x20 PUSH1 0x0 KECCAK256 SWAP1 JUMPDEST DUP2 SLOAD DUP2 MSTORE SWAP1 PUSH1 0x1 ADD SWAP1 PUSH1 0x20 ADD DUP1 DUP4 GT PUSH2 0xCB8 JUMPI DUP3 SWAP1 SUB PUSH1 0x1F AND DUP3 ADD SWAP2 JUMPDEST POP POP POP POP POP SWAP4 POP POP POP POP JUMPDEST SWAP1 JUMP JUMPDEST PUSH1 0x1 SLOAD DUP2 JUMP JUMPDEST CALLER PUSH20 0xFFFFFFFFFFFFFFFFFFFFFFFFFFFFFFFFFFFFFFFF AND PUSH1 0x0 DUP1 SLOAD SWAP1 PUSH2 0x100 EXP SWAP1 DIV PUSH20 0xFFFFFFFFFFFFFFFFFFFFFFFFFFFFFFFFFFFFFFFF AND PUSH20 0xFFFFFFFFFFFFFFFFFFFFFFFFFFFFFFFFFFFFFFFF AND EQ PUSH2 0xD77 JUMPI PUSH1 0x40 MLOAD PUSH32 0x8C379A000000000000000000000000000000000000000000000000000000000 DUP2 MSTORE PUSH1 0x4 ADD PUSH2 0xD6E SWAP1 PUSH2 0x1CA6 JUMP JUMPDEST PUSH1 0x40 MLOAD DUP1 SWAP2 SUB SWAP1 REVERT JUMPDEST PUSH1 0x0 JUMPDEST PUSH1 0x3 DUP1 SLOAD SWAP1 POP DUP2 LT ISZERO PUSH2 0xE3C JUMPI PUSH1 0x3 DUP2 DUP2 SLOAD DUP2 LT PUSH2 0xDC1 JUMPI PUSH32 0x4E487B7100000000000000000000000000000000000000000000000000000000 PUSH1 0x0 MSTORE PUSH1 0x32 PUSH1 0x4 MSTORE PUSH1 0x24 PUSH1 0x0 REVERT JUMPDEST SWAP1 PUSH1 0x0 MSTORE PUSH1 0x20 PUSH1 0x0 KECCAK256 ADD PUSH1 0x40 MLOAD PUSH2 0xDD8 SWAP2 SWAP1 PUSH2 0x1A5B JUMP JUMPDEST PUSH1 0x40 MLOAD DUP1 SWAP2 SUB SWAP1 KECCAK256 DUP3 DUP1 MLOAD SWAP1 PUSH1 0x20 ADD KECCAK256 EQ ISZERO PUSH2 0xE29 JUMPI PUSH1 0x40 MLOAD PUSH32 0x8C379A000000000000000000000000000000000000000000000000000000000 DUP2 MSTORE PUSH1 0x4 ADD PUSH2 0xE20 SWAP1 PUSH2 0x1BE6 JUMP JUMPDEST PUSH1 0x40 MLOAD DUP1 SWAP2 SUB SWAP1 REVERT JUMPDEST DUP1 DUP1 PUSH2 0xE34 SWAP1 PUSH2 0x1F6D JUMP JUMPDEST SWAP2 POP POP PUSH2 0xD7A JUMP JUMPDEST POP PUSH1 0x1 PUSH1 0x0 DUP2 SLOAD DUP1 SWAP3 SWAP2 SWAP1 PUSH2 0xE50 SWAP1 PUSH2 0x1F6D JUMP JUMPDEST SWAP2 SWAP1 POP SSTORE POP PUSH1 0x3 DUP2 SWAP1 DUP1 PUSH1 0x1 DUP2 SLOAD ADD DUP1 DUP3 SSTORE DUP1 SWAP2 POP POP PUSH1 0x1 SWAP1 SUB SWAP1 PUSH1 0x0 MSTORE PUSH1 0x20 PUSH1 0x0 KECCAK256 ADD PUSH1 0x0 SWAP1 SWAP2 SWAP1 SWAP2 SWAP1 SWAP2 POP SWAP1 DUP1 MLOAD SWAP1 PUSH1 0x20 ADD SWAP1 PUSH2 0xE90 SWAP3 SWAP2 SWAP1 PUSH2 0x14AD JUMP JUMPDEST POP DUP1 PUSH1 0x7 PUSH1 0x0 PUSH1 0x1 SLOAD DUP2 MSTORE PUSH1 0x20 ADD SWAP1 DUP2 MSTORE PUSH1 0x20 ADD PUSH1 0x0 KECCAK256 SWAP1 DUP1 MLOAD SWAP1 PUSH1 0x20 ADD SWAP1 PUSH2 0xEBA SWAP3 SWAP2 SWAP1 PUSH2 0x14AD JUMP JUMPDEST POP PUSH1 0x1 SLOAD PUSH32 0x56F6C29D2EB99F40E2A206309DC37F2CFF01A5755A4683E3C2B0CE22E5E3AA17 DUP3 PUSH1 0x40 MLOAD PUSH2 0xEED SWAP2 SWAP1 PUSH2 0x1B24 JUMP JUMPDEST PUSH1 0x40 MLOAD DUP1 SWAP2 SUB SWAP1 LOG2 POP JUMP JUMPDEST PUSH1 0x60 DUP1 PUSH1 0x4 PUSH1 0x0 SWAP1 SLOAD SWAP1 PUSH2 0x100 EXP SWAP1 DIV PUSH1 0xFF AND ISZERO PUSH2 0xF4B JUMPI PUSH1 0x40 MLOAD PUSH32 0x8C379A000000000000000000000000000000000000000000000000000000000 DUP2 MSTORE PUSH1 0x4 ADD PUSH2 0xF42 SWAP1 PUSH2 0x1C26 JUMP JUMPDEST PUSH1 0x40 MLOAD DUP1 SWAP2 SUB SWAP1 REVERT JUMPDEST PUSH1 0x0 PUSH1 0x1 SLOAD GT PUSH2 0xF90 JUMPI PUSH1 0x40 MLOAD PUSH32 0x8C379A000000000000000000000000000000000000000000000000000000000 DUP2 MSTORE PUSH1 0x4 ADD PUSH2 0xF87 SWAP1 PUSH2 0x1B86 JUMP JUMPDEST PUSH1 0x40 MLOAD DUP1 SWAP2 SUB SWAP1 REVERT JUMPDEST PUSH1 0x0 PUSH1 0x1 SLOAD PUSH8 0xFFFFFFFFFFFFFFFF DUP2 GT ISZERO PUSH2 0xFD4 JUMPI PUSH32 0x4E487B7100000000000000000000000000000000000000000000000000000000 PUSH1 0x0 MSTORE PUSH1 0x41 PUSH1 0x4 MSTORE PUSH1 0x24 PUSH1 0x0 REVERT JUMPDEST PUSH1 0x40 MLOAD SWAP1 DUP1 DUP3 MSTORE DUP1 PUSH1 0x20 MUL PUSH1 0x20 ADD DUP3 ADD PUSH1 0x40 MSTORE DUP1 ISZERO PUSH2 0x1002 JUMPI DUP2 PUSH1 0x20 ADD PUSH1 0x20 DUP3 MUL DUP1 CALLDATASIZE DUP4 CALLDATACOPY DUP1 DUP3 ADD SWAP2 POP POP SWAP1 POP JUMPDEST POP SWAP1 POP PUSH1 0x0 PUSH1 0x1 SLOAD PUSH8 0xFFFFFFFFFFFFFFFF DUP2 GT ISZERO PUSH2 0x1049 JUMPI PUSH32 0x4E487B7100000000000000000000000000000000000000000000000000000000 PUSH1 0x0 MSTORE PUSH1 0x41 PUSH1 0x4 MSTORE PUSH1 0x24 PUSH1 0x0 REVERT JUMPDEST PUSH1 0x40 MLOAD SWAP1 DUP1 DUP3 MSTORE DUP1 PUSH1 0x20 MUL PUSH1 0x20 ADD DUP3 ADD PUSH1 0x40 MSTORE DUP1 ISZERO PUSH2 0x107C JUMPI DUP2 PUSH1 0x20 ADD JUMPDEST PUSH1 0x60 DUP2 MSTORE PUSH1 0x20 ADD SWAP1 PUSH1 0x1 SWAP1 SUB SWAP1 DUP2 PUSH2 0x1067 JUMPI SWAP1 POP JUMPDEST POP SWAP1 POP PUSH1 0x0 JUMPDEST PUSH1 0x1 SLOAD DUP2 LT ISZERO PUSH2 0x1202 JUMPI PUSH1 0x1 DUP2 PUSH2 0x1099 SWAP2 SWAP1 PUSH2 0x1DF6 JUMP JUMPDEST DUP4 DUP3 DUP2 MLOAD DUP2 LT PUSH2 0x10D2 JUMPI PUSH32 0x4E487B7100000000000000000000000000000000000000000000000000000000 PUSH1 0x0 MSTORE PUSH1 0x32 PUSH1 0x4 MSTORE PUSH1 0x24 PUSH1 0x0 REVERT JUMPDEST PUSH1 0x20 MUL PUSH1 0x20 ADD ADD DUP2 DUP2 MSTORE POP POP PUSH1 0x3 DUP2 DUP2 SLOAD DUP2 LT PUSH2 0x1118 JUMPI PUSH32 0x4E487B7100000000000000000000000000000000000000000000000000000000 PUSH1 0x0 MSTORE PUSH1 0x32 PUSH1 0x4 MSTORE PUSH1 0x24 PUSH1 0x0 REVERT JUMPDEST SWAP1 PUSH1 0x0 MSTORE PUSH1 0x20 PUSH1 0x0 KECCAK256 ADD DUP1 SLOAD PUSH2 0x112D SWAP1 PUSH2 0x1F0A JUMP JUMPDEST DUP1 PUSH1 0x1F ADD PUSH1 0x20 DUP1 SWAP2 DIV MUL PUSH1 0x20 ADD PUSH1 0x40 MLOAD SWAP1 DUP2 ADD PUSH1 0x40 MSTORE DUP1 SWAP3 SWAP2 SWAP1 DUP2 DUP2 MSTORE PUSH1 0x20 ADD DUP3 DUP1 SLOAD PUSH2 0x1159 SWAP1 PUSH2 0x1F0A JUMP JUMPDEST DUP1 ISZERO PUSH2 0x11A6 JUMPI DUP1 PUSH1 0x1F LT PUSH2 0x117B JUMPI PUSH2 0x100 DUP1 DUP4 SLOAD DIV MUL DUP4 MSTORE SWAP2 PUSH1 0x20 ADD SWAP2 PUSH2 0x11A6 JUMP JUMPDEST DUP3 ADD SWAP2 SWAP1 PUSH1 0x0 MSTORE PUSH1 0x20 PUSH1 0x0 KECCAK256 SWAP1 JUMPDEST DUP2 SLOAD DUP2 MSTORE SWAP1 PUSH1 0x1 ADD SWAP1 PUSH1 0x20 ADD DUP1 DUP4 GT PUSH2 0x1189 JUMPI DUP3 SWAP1 SUB PUSH1 0x1F AND DUP3 ADD SWAP2 JUMPDEST POP POP POP POP POP DUP3 DUP3 DUP2 MLOAD DUP2 LT PUSH2 0x11E4 JUMPI PUSH32 0x4E487B7100000000000000000000000000000000000000000000000000000000 PUSH1 0x0 MSTORE PUSH1 0x32 PUSH1 0x4 MSTORE PUSH1 0x24 PUSH1 0x0 REVERT JUMPDEST PUSH1 0x20 MUL PUSH1 0x20 ADD ADD DUP2 SWAP1 MSTORE POP DUP1 DUP1 PUSH2 0x11FA SWAP1 PUSH2 0x1F6D JUMP JUMPDEST SWAP2 POP POP PUSH2 0x1082 JUMP JUMPDEST POP DUP2 DUP2 SWAP4 POP SWAP4 POP POP POP SWAP1 SWAP2 JUMP JUMPDEST PUSH1 0x9 PUSH1 0x0 CALLER PUSH20 0xFFFFFFFFFFFFFFFFFFFFFFFFFFFFFFFFFFFFFFFF AND PUSH20 0xFFFFFFFFFFFFFFFFFFFFFFFFFFFFFFFFFFFFFFFF AND DUP2 MSTORE PUSH1 0x20 ADD SWAP1 DUP2 MSTORE PUSH1 0x20 ADD PUSH1 0x0 KECCAK256 PUSH1 0x0 SWAP1 SLOAD SWAP1 PUSH2 0x100 EXP SWAP1 DIV PUSH1 0xFF AND ISZERO PUSH2 0x129C JUMPI PUSH1 0x40 MLOAD PUSH32 0x8C379A000000000000000000000000000000000000000000000000000000000 DUP2 MSTORE PUSH1 0x4 ADD PUSH2 0x1293 SWAP1 PUSH2 0x1C86 JUMP JUMPDEST PUSH1 0x40 MLOAD DUP1 SWAP2 SUB SWAP1 REVERT JUMPDEST PUSH1 0x12 DUP2 LT ISZERO PUSH2 0x12E0 JUMPI PUSH1 0x40 MLOAD PUSH32 0x8C379A000000000000000000000000000000000000000000000000000000000 DUP2 MSTORE PUSH1 0x4 ADD PUSH2 0x12D7 SWAP1 PUSH2 0x1B46 JUMP JUMPDEST PUSH1 0x40 MLOAD DUP1 SWAP2 SUB SWAP1 REVERT JUMPDEST PUSH1 0x2 PUSH1 0x0 DUP2 SLOAD DUP1 SWAP3 SWAP2 SWAP1 PUSH2 0x12F3 SWAP1 PUSH2 0x1F6D JUMP JUMPDEST SWAP2 SWAP1 POP SSTORE POP PUSH1 0x6 PUSH1 0x40 MLOAD DUP1 PUSH1 0x60 ADD PUSH1 0x40 MSTORE DUP1 PUSH1 0x2 SLOAD DUP2 MSTORE PUSH1 0x20 ADD DUP5 DUP2 MSTORE PUSH1 0x20 ADD DUP4 DUP2 MSTORE POP SWAP1 DUP1 PUSH1 0x1 DUP2 SLOAD ADD DUP1 DUP3 SSTORE DUP1 SWAP2 POP POP PUSH1 0x1 SWAP1 SUB SWAP1 PUSH1 0x0 MSTORE PUSH1 0x20 PUSH1 0x0 KECCAK256 SWAP1 PUSH1 0x3 MUL ADD PUSH1 0x0 SWAP1 SWAP2 SWAP1 SWAP2 SWAP1 SWAP2 POP PUSH1 0x0 DUP3 ADD MLOAD DUP2 PUSH1 0x0 ADD SSTORE PUSH1 0x20 DUP3 ADD MLOAD DUP2 PUSH1 0x1 ADD SWAP1 DUP1 MLOAD SWAP1 PUSH1 0x20 ADD SWAP1 PUSH2 0x1366 SWAP3 SWAP2 SWAP1 PUSH2 0x14AD JUMP JUMPDEST POP PUSH1 0x40 DUP3 ADD MLOAD DUP2 PUSH1 0x2 ADD SSTORE POP POP PUSH1 0x1 PUSH1 0x9 PUSH1 0x0 CALLER PUSH20 0xFFFFFFFFFFFFFFFFFFFFFFFFFFFFFFFFFFFFFFFF AND PUSH20 0xFFFFFFFFFFFFFFFFFFFFFFFFFFFFFFFFFFFFFFFF AND DUP2 MSTORE PUSH1 0x20 ADD SWAP1 DUP2 MSTORE PUSH1 0x20 ADD PUSH1 0x0 KECCAK256 PUSH1 0x0 PUSH2 0x100 EXP DUP2 SLOAD DUP2 PUSH1 0xFF MUL NOT AND SWAP1 DUP4 ISZERO ISZERO MUL OR SWAP1 SSTORE POP CALLER PUSH20 0xFFFFFFFFFFFFFFFFFFFFFFFFFFFFFFFFFFFFFFFF AND PUSH1 0x2 SLOAD PUSH32 0xCA52E62C367D81BB2E328EB795F7C7BA24AFB478408A26C0E201D155C449BC4A DUP5 PUSH1 0x40 MLOAD PUSH2 0x1414 SWAP2 SWAP1 PUSH2 0x1B24 JUMP JUMPDEST PUSH1 0x40 MLOAD DUP1 SWAP2 SUB SWAP1 LOG3 POP POP JUMP JUMPDEST DUP3 DUP1 SLOAD PUSH2 0x142C SWAP1 PUSH2 0x1F0A JUMP JUMPDEST SWAP1 PUSH1 0x0 MSTORE PUSH1 0x20 PUSH1 0x0 KECCAK256 SWAP1 PUSH1 0x1F ADD PUSH1 0x20 SWAP1 DIV DUP2 ADD SWAP3 DUP3 PUSH2 0x144E JUMPI PUSH1 0x0 DUP6 SSTORE PUSH2 0x149C JUMP JUMPDEST DUP3 PUSH1 0x1F LT PUSH2 0x145F JUMPI DUP1 SLOAD DUP6 SSTORE PUSH2 0x149C JUMP JUMPDEST DUP3 DUP1 ADD PUSH1 0x1 ADD DUP6 SSTORE DUP3 ISZERO PUSH2 0x149C JUMPI PUSH1 0x0 MSTORE PUSH1 0x20 PUSH1 0x0 KECCAK256 SWAP2 PUSH1 0x1F ADD PUSH1 0x20 SWAP1 DIV DUP3 ADD JUMPDEST DUP3 DUP2 GT ISZERO PUSH2 0x149B JUMPI DUP3 SLOAD DUP3 SSTORE SWAP2 PUSH1 0x1 ADD SWAP2 SWAP1 PUSH1 0x1 ADD SWAP1 PUSH2 0x1480 JUMP JUMPDEST JUMPDEST POP SWAP1 POP PUSH2 0x14A9 SWAP2 SWAP1 PUSH2 0x1533 JUMP JUMPDEST POP SWAP1 JUMP JUMPDEST DUP3 DUP1 SLOAD PUSH2 0x14B9 SWAP1 PUSH2 0x1F0A JUMP JUMPDEST SWAP1 PUSH1 0x0 MSTORE PUSH1 0x20 PUSH1 0x0 KECCAK256 SWAP1 PUSH1 0x1F ADD PUSH1 0x20 SWAP1 DIV DUP2 ADD SWAP3 DUP3 PUSH2 0x14DB JUMPI PUSH1 0x0 DUP6 SSTORE PUSH2 0x1522 JUMP JUMPDEST DUP3 PUSH1 0x1F LT PUSH2 0x14F4 JUMPI DUP1 MLOAD PUSH1 0xFF NOT AND DUP4 DUP1 ADD OR DUP6 SSTORE PUSH2 0x1522 JUMP JUMPDEST DUP3 DUP1 ADD PUSH1 0x1 ADD DUP6 SSTORE DUP3 ISZERO PUSH2 0x1522 JUMPI SWAP2 DUP3 ADD JUMPDEST DUP3 DUP2 GT ISZERO PUSH2 0x1521 JUMPI DUP3 MLOAD DUP3 SSTORE SWAP2 PUSH1 0x20 ADD SWAP2 SWAP1 PUSH1 0x1 ADD SWAP1 PUSH2 0x1506 JUMP JUMPDEST JUMPDEST POP SWAP1 POP PUSH2 0x152F SWAP2 SWAP1 PUSH2 0x1533 JUMP JUMPDEST POP SWAP1 JUMP JUMPDEST JUMPDEST DUP1 DUP3 GT ISZERO PUSH2 0x154C JUMPI PUSH1 0x0 DUP2 PUSH1 0x0 SWAP1 SSTORE POP PUSH1 0x1 ADD PUSH2 0x1534 JUMP JUMPDEST POP SWAP1 JUMP JUMPDEST PUSH1 0x0 PUSH2 0x1563 PUSH2 0x155E DUP5 PUSH2 0x1D06 JUMP JUMPDEST PUSH2 0x1CE1 JUMP JUMPDEST SWAP1 POP DUP3 DUP2 MSTORE PUSH1 0x20 DUP2 ADD DUP5 DUP5 DUP5 ADD GT ISZERO PUSH2 0x157B JUMPI PUSH1 0x0 DUP1 REVERT JUMPDEST PUSH2 0x1586 DUP5 DUP3 DUP6 PUSH2 0x1EC8 JUMP JUMPDEST POP SWAP4 SWAP3 POP POP POP JUMP JUMPDEST PUSH1 0x0 DUP3 PUSH1 0x1F DUP4 ADD SLT PUSH2 0x159F JUMPI PUSH1 0x0 DUP1 REVERT JUMPDEST DUP2 CALLDATALOAD PUSH2 0x15AF DUP5 DUP3 PUSH1 0x20 DUP7 ADD PUSH2 0x1550 JUMP JUMPDEST SWAP2 POP POP SWAP3 SWAP2 POP POP JUMP JUMPDEST PUSH1 0x0 DUP2 CALLDATALOAD SWAP1 POP PUSH2 0x15C7 DUP2 PUSH2 0x22B2 JUMP JUMPDEST SWAP3 SWAP2 POP POP JUMP JUMPDEST PUSH1 0x0 PUSH1 0x20 DUP3 DUP5 SUB SLT ISZERO PUSH2 0x15DF JUMPI PUSH1 0x0 DUP1 REVERT JUMPDEST PUSH1 0x0 DUP3 ADD CALLDATALOAD PUSH8 0xFFFFFFFFFFFFFFFF DUP2 GT ISZERO PUSH2 0x15F9 JUMPI PUSH1 0x0 DUP1 REVERT JUMPDEST PUSH2 0x1605 DUP5 DUP3 DUP6 ADD PUSH2 0x158E JUMP JUMPDEST SWAP2 POP POP SWAP3 SWAP2 POP POP JUMP JUMPDEST PUSH1 0x0 DUP1 PUSH1 0x40 DUP4 DUP6 SUB SLT ISZERO PUSH2 0x1621 JUMPI PUSH1 0x0 DUP1 REVERT JUMPDEST PUSH1 0x0 DUP4 ADD CALLDATALOAD PUSH8 0xFFFFFFFFFFFFFFFF DUP2 GT ISZERO PUSH2 0x163B JUMPI PUSH1 0x0 DUP1 REVERT JUMPDEST PUSH2 0x1647 DUP6 DUP3 DUP7 ADD PUSH2 0x158E JUMP JUMPDEST SWAP3 POP POP PUSH1 0x20 PUSH2 0x1658 DUP6 DUP3 DUP7 ADD PUSH2 0x15B8 JUMP JUMPDEST SWAP2 POP POP SWAP3 POP SWAP3 SWAP1 POP JUMP JUMPDEST PUSH1 0x0 PUSH1 0x20 DUP3 DUP5 SUB SLT ISZERO PUSH2 0x1674 JUMPI PUSH1 0x0 DUP1 REVERT JUMPDEST PUSH1 0x0 PUSH2 0x1682 DUP5 DUP3 DUP6 ADD PUSH2 0x15B8 JUMP JUMPDEST SWAP2 POP POP SWAP3 SWAP2 POP POP JUMP JUMPDEST PUSH1 0x0 PUSH2 0x1697 DUP4 DUP4 PUSH2 0x1827 JUMP JUMPDEST SWAP1 POP SWAP3 SWAP2 POP POP JUMP JUMPDEST PUSH1 0x0 PUSH2 0x16AB DUP4 DUP4 PUSH2 0x1A3D JUMP JUMPDEST PUSH1 0x20 DUP4 ADD SWAP1 POP SWAP3 SWAP2 POP POP JUMP JUMPDEST PUSH2 0x16C0 DUP2 PUSH2 0x1E80 JUMP JUMPDEST DUP3 MSTORE POP POP JUMP JUMPDEST PUSH1 0x0 PUSH2 0x16D1 DUP3 PUSH2 0x1D6C JUMP JUMPDEST PUSH2 0x16DB DUP2 DUP6 PUSH2 0x1DA7 JUMP JUMPDEST SWAP4 POP DUP4 PUSH1 0x20 DUP3 MUL DUP6 ADD PUSH2 0x16ED DUP6 PUSH2 0x1D37 JUMP JUMPDEST DUP1 PUSH1 0x0 JUMPDEST DUP6 DUP2 LT ISZERO PUSH2 0x1729 JUMPI DUP5 DUP5 SUB DUP10 MSTORE DUP2 MLOAD PUSH2 0x170A DUP6 DUP3 PUSH2 0x168B JUMP JUMPDEST SWAP5 POP PUSH2 0x1715 DUP4 PUSH2 0x1D8D JUMP JUMPDEST SWAP3 POP PUSH1 0x20 DUP11 ADD SWAP10 POP POP PUSH1 0x1 DUP2 ADD SWAP1 POP PUSH2 0x16F1 JUMP JUMPDEST POP DUP3 SWAP8 POP DUP8 SWAP6 POP POP POP POP POP POP SWAP3 SWAP2 POP POP JUMP JUMPDEST PUSH1 0x0 PUSH2 0x1746 DUP3 PUSH2 0x1D77 JUMP JUMPDEST PUSH2 0x1750 DUP2 DUP6 PUSH2 0x1DB8 JUMP JUMPDEST SWAP4 POP PUSH2 0x175B DUP4 PUSH2 0x1D47 JUMP JUMPDEST DUP1 PUSH1 0x0 JUMPDEST DUP4 DUP2 LT ISZERO PUSH2 0x178C JUMPI DUP2 MLOAD PUSH2 0x1773 DUP9 DUP3 PUSH2 0x169F JUMP JUMPDEST SWAP8 POP PUSH2 0x177E DUP4 PUSH2 0x1D9A JUMP JUMPDEST SWAP3 POP POP PUSH1 0x1 DUP2 ADD SWAP1 POP PUSH2 0x175F JUMP JUMPDEST POP DUP6 SWAP4 POP POP POP POP SWAP3 SWAP2 POP POP JUMP JUMPDEST PUSH2 0x17A2 DUP2 PUSH2 0x1E92 JUMP JUMPDEST DUP3 MSTORE POP POP JUMP JUMPDEST PUSH1 0x0 DUP2 SLOAD PUSH2 0x17B5 DUP2 PUSH2 0x1F0A JUMP JUMPDEST PUSH2 0x17BF DUP2 DUP7 PUSH2 0x1DC9 JUMP JUMPDEST SWAP5 POP PUSH1 0x1 DUP3 AND PUSH1 0x0 DUP2 EQ PUSH2 0x17DA JUMPI PUSH1 0x1 DUP2 EQ PUSH2 0x17EB JUMPI PUSH2 0x181E JUMP JUMPDEST PUSH1 0xFF NOT DUP4 AND DUP7 MSTORE DUP2 DUP7 ADD SWAP4 POP PUSH2 0x181E JUMP JUMPDEST PUSH2 0x17F4 DUP6 PUSH2 0x1D57 JUMP JUMPDEST PUSH1 0x0 JUMPDEST DUP4 DUP2 LT ISZERO PUSH2 0x1816 JUMPI DUP2 SLOAD DUP2 DUP10 ADD MSTORE PUSH1 0x1 DUP3 ADD SWAP2 POP PUSH1 0x20 DUP2 ADD SWAP1 POP PUSH2 0x17F7 JUMP JUMPDEST DUP4 DUP9 ADD SWAP6 POP POP POP JUMPDEST POP POP POP SWAP3 SWAP2 POP POP JUMP JUMPDEST PUSH1 0x0 PUSH2 0x1832 DUP3 PUSH2 0x1D82 JUMP JUMPDEST PUSH2 0x183C DUP2 DUP6 PUSH2 0x1DD4 JUMP JUMPDEST SWAP4 POP PUSH2 0x184C DUP2 DUP6 PUSH1 0x20 DUP7 ADD PUSH2 0x1ED7 JUMP JUMPDEST PUSH2 0x1855 DUP2 PUSH2 0x2043 JUMP JUMPDEST DUP5 ADD SWAP2 POP POP SWAP3 SWAP2 POP POP JUMP JUMPDEST PUSH1 0x0 PUSH2 0x186B DUP3 PUSH2 0x1D82 JUMP JUMPDEST PUSH2 0x1875 DUP2 DUP6 PUSH2 0x1DE5 JUMP JUMPDEST SWAP4 POP PUSH2 0x1885 DUP2 DUP6 PUSH1 0x20 DUP7 ADD PUSH2 0x1ED7 JUMP JUMPDEST PUSH2 0x188E DUP2 PUSH2 0x2043 JUMP JUMPDEST DUP5 ADD SWAP2 POP POP SWAP3 SWAP2 POP POP JUMP JUMPDEST PUSH1 0x0 PUSH2 0x18A6 PUSH1 0x2D DUP4 PUSH2 0x1DE5 JUMP JUMPDEST SWAP2 POP PUSH2 0x18B1 DUP3 PUSH2 0x2054 JUMP JUMPDEST PUSH1 0x40 DUP3 ADD SWAP1 POP SWAP2 SWAP1 POP JUMP JUMPDEST PUSH1 0x0 PUSH2 0x18C9 PUSH1 0x14 DUP4 PUSH2 0x1DE5 JUMP JUMPDEST SWAP2 POP PUSH2 0x18D4 DUP3 PUSH2 0x20A3 JUMP JUMPDEST PUSH1 0x20 DUP3 ADD SWAP1 POP SWAP2 SWAP1 POP JUMP JUMPDEST PUSH1 0x0 PUSH2 0x18EC PUSH1 0x15 DUP4 PUSH2 0x1DE5 JUMP JUMPDEST SWAP2 POP PUSH2 0x18F7 DUP3 PUSH2 0x20CC JUMP JUMPDEST PUSH1 0x20 DUP3 ADD SWAP1 POP SWAP2 SWAP1 POP JUMP JUMPDEST PUSH1 0x0 PUSH2 0x190F PUSH1 0x15 DUP4 PUSH2 0x1DE5 JUMP JUMPDEST SWAP2 POP PUSH2 0x191A DUP3 PUSH2 0x20F5 JUMP JUMPDEST PUSH1 0x20 DUP3 ADD SWAP1 POP SWAP2 SWAP1 POP JUMP JUMPDEST PUSH1 0x0 PUSH2 0x1932 PUSH1 0x27 DUP4 PUSH2 0x1DE5 JUMP JUMPDEST SWAP2 POP PUSH2 0x193D DUP3 PUSH2 0x211E JUMP JUMPDEST PUSH1 0x40 DUP3 ADD SWAP1 POP SWAP2 SWAP1 POP JUMP JUMPDEST PUSH1 0x0 PUSH2 0x1955 PUSH1 0x1B DUP4 PUSH2 0x1DE5 JUMP JUMPDEST SWAP2 POP PUSH2 0x1960 DUP3 PUSH2 0x216D JUMP JUMPDEST PUSH1 0x20 DUP3 ADD SWAP1 POP SWAP2 SWAP1 POP JUMP JUMPDEST PUSH1 0x0 PUSH2 0x1978 PUSH1 0x1B DUP4 PUSH2 0x1DE5 JUMP JUMPDEST SWAP2 POP PUSH2 0x1983 DUP3 PUSH2 0x2196 JUMP JUMPDEST PUSH1 0x20 DUP3 ADD SWAP1 POP SWAP2 SWAP1 POP JUMP JUMPDEST PUSH1 0x0 PUSH2 0x199B PUSH1 0x16 DUP4 PUSH2 0x1DE5 JUMP JUMPDEST SWAP2 POP PUSH2 0x19A6 DUP3 PUSH2 0x21BF JUMP JUMPDEST PUSH1 0x20 DUP3 ADD SWAP1 POP SWAP2 SWAP1 POP JUMP JUMPDEST PUSH1 0x0 PUSH2 0x19BE PUSH1 0x16 DUP4 PUSH2 0x1DE5 JUMP JUMPDEST SWAP2 POP PUSH2 0x19C9 DUP3 PUSH2 0x21E8 JUMP JUMPDEST PUSH1 0x20 DUP3 ADD SWAP1 POP SWAP2 SWAP1 POP JUMP JUMPDEST PUSH1 0x0 PUSH2 0x19E1 PUSH1 0x1A DUP4 PUSH2 0x1DE5 JUMP JUMPDEST SWAP2 POP PUSH2 0x19EC DUP3 PUSH2 0x2211 JUMP JUMPDEST PUSH1 0x20 DUP3 ADD SWAP1 POP SWAP2 SWAP1 POP JUMP JUMPDEST PUSH1 0x0 PUSH2 0x1A04 PUSH1 0x13 DUP4 PUSH2 0x1DE5 JUMP JUMPDEST SWAP2 POP PUSH2 0x1A0F DUP3 PUSH2 0x223A JUMP JUMPDEST PUSH1 0x20 DUP3 ADD SWAP1 POP SWAP2 SWAP1 POP JUMP JUMPDEST PUSH1 0x0 PUSH2 0x1A27 PUSH1 0x21 DUP4 PUSH2 0x1DE5 JUMP JUMPDEST SWAP2 POP PUSH2 0x1A32 DUP3 PUSH2 0x2263 JUMP JUMPDEST PUSH1 0x40 DUP3 ADD SWAP1 POP SWAP2 SWAP1 POP JUMP JUMPDEST PUSH2 0x1A46 DUP2 PUSH2 0x1EBE JUMP JUMPDEST DUP3 MSTORE POP POP JUMP JUMPDEST PUSH2 0x1A55 DUP2 PUSH2 0x1EBE JUMP JUMPDEST DUP3 MSTORE POP POP JUMP JUMPDEST PUSH1 0x0 PUSH2 0x1A67 DUP3 DUP5 PUSH2 0x17A8 JUMP JUMPDEST SWAP2 POP DUP2 SWAP1 POP SWAP3 SWAP2 POP POP JUMP JUMPDEST PUSH1 0x0 PUSH1 0x40 DUP3 ADD SWAP1 POP PUSH2 0x1A87 PUSH1 0x0 DUP4 ADD DUP6 PUSH2 0x16B7 JUMP JUMPDEST PUSH2 0x1A94 PUSH1 0x20 DUP4 ADD DUP5 PUSH2 0x1A4C JUMP JUMPDEST SWAP4 SWAP3 POP POP POP JUMP JUMPDEST PUSH1 0x0 PUSH1 0x40 DUP3 ADD SWAP1 POP DUP2 DUP2 SUB PUSH1 0x0 DUP4 ADD MSTORE PUSH2 0x1AB5 DUP2 DUP6 PUSH2 0x16C6 JUMP JUMPDEST SWAP1 POP DUP2 DUP2 SUB PUSH1 0x20 DUP4 ADD MSTORE PUSH2 0x1AC9 DUP2 DUP5 PUSH2 0x173B JUMP JUMPDEST SWAP1 POP SWAP4 SWAP3 POP POP POP JUMP JUMPDEST PUSH1 0x0 PUSH1 0x40 DUP3 ADD SWAP1 POP DUP2 DUP2 SUB PUSH1 0x0 DUP4 ADD MSTORE PUSH2 0x1AEC DUP2 DUP6 PUSH2 0x173B JUMP JUMPDEST SWAP1 POP DUP2 DUP2 SUB PUSH1 0x20 DUP4 ADD MSTORE PUSH2 0x1B00 DUP2 DUP5 PUSH2 0x16C6 JUMP JUMPDEST SWAP1 POP SWAP4 SWAP3 POP POP POP JUMP JUMPDEST PUSH1 0x0 PUSH1 0x20 DUP3 ADD SWAP1 POP PUSH2 0x1B1E PUSH1 0x0 DUP4 ADD DUP5 PUSH2 0x1799 JUMP JUMPDEST SWAP3 SWAP2 POP POP JUMP JUMPDEST PUSH1 0x0 PUSH1 0x20 DUP3 ADD SWAP1 POP DUP2 DUP2 SUB PUSH1 0x0 DUP4 ADD MSTORE PUSH2 0x1B3E DUP2 DUP5 PUSH2 0x1860 JUMP JUMPDEST SWAP1 POP SWAP3 SWAP2 POP POP JUMP JUMPDEST PUSH1 0x0 PUSH1 0x20 DUP3 ADD SWAP1 POP DUP2 DUP2 SUB PUSH1 0x0 DUP4 ADD MSTORE PUSH2 0x1B5F DUP2 PUSH2 0x1899 JUMP JUMPDEST SWAP1 POP SWAP2 SWAP1 POP JUMP JUMPDEST PUSH1 0x0 PUSH1 0x20 DUP3 ADD SWAP1 POP DUP2 DUP2 SUB PUSH1 0x0 DUP4 ADD MSTORE PUSH2 0x1B7F DUP2 PUSH2 0x18BC JUMP JUMPDEST SWAP1 POP SWAP2 SWAP1 POP JUMP JUMPDEST PUSH1 0x0 PUSH1 0x20 DUP3 ADD SWAP1 POP DUP2 DUP2 SUB PUSH1 0x0 DUP4 ADD MSTORE PUSH2 0x1B9F DUP2 PUSH2 0x18DF JUMP JUMPDEST SWAP1 POP SWAP2 SWAP1 POP JUMP JUMPDEST PUSH1 0x0 PUSH1 0x20 DUP3 ADD SWAP1 POP DUP2 DUP2 SUB PUSH1 0x0 DUP4 ADD MSTORE PUSH2 0x1BBF DUP2 PUSH2 0x1902 JUMP JUMPDEST SWAP1 POP SWAP2 SWAP1 POP JUMP JUMPDEST PUSH1 0x0 PUSH1 0x20 DUP3 ADD SWAP1 POP DUP2 DUP2 SUB PUSH1 0x0 DUP4 ADD MSTORE PUSH2 0x1BDF DUP2 PUSH2 0x1925 JUMP JUMPDEST SWAP1 POP SWAP2 SWAP1 POP JUMP JUMPDEST PUSH1 0x0 PUSH1 0x20 DUP3 ADD SWAP1 POP DUP2 DUP2 SUB PUSH1 0x0 DUP4 ADD MSTORE PUSH2 0x1BFF DUP2 PUSH2 0x1948 JUMP JUMPDEST SWAP1 POP SWAP2 SWAP1 POP JUMP JUMPDEST PUSH1 0x0 PUSH1 0x20 DUP3 ADD SWAP1 POP DUP2 DUP2 SUB PUSH1 0x0 DUP4 ADD MSTORE PUSH2 0x1C1F DUP2 PUSH2 0x196B JUMP JUMPDEST SWAP1 POP SWAP2 SWAP1 POP JUMP JUMPDEST PUSH1 0x0 PUSH1 0x20 DUP3 ADD SWAP1 POP DUP2 DUP2 SUB PUSH1 0x0 DUP4 ADD MSTORE PUSH2 0x1C3F DUP2 PUSH2 0x198E JUMP JUMPDEST SWAP1 POP SWAP2 SWAP1 POP JUMP JUMPDEST PUSH1 0x0 PUSH1 0x20 DUP3 ADD SWAP1 POP DUP2 DUP2 SUB PUSH1 0x0 DUP4 ADD MSTORE PUSH2 0x1C5F DUP2 PUSH2 0x19B1 JUMP JUMPDEST SWAP1 POP SWAP2 SWAP1 POP JUMP JUMPDEST PUSH1 0x0 PUSH1 0x20 DUP3 ADD SWAP1 POP DUP2 DUP2 SUB PUSH1 0x0 DUP4 ADD MSTORE PUSH2 0x1C7F DUP2 PUSH2 0x19D4 JUMP JUMPDEST SWAP1 POP SWAP2 SWAP1 POP JUMP JUMPDEST PUSH1 0x0 PUSH1 0x20 DUP3 ADD SWAP1 POP DUP2 DUP2 SUB PUSH1 0x0 DUP4 ADD MSTORE PUSH2 0x1C9F DUP2 PUSH2 0x19F7 JUMP JUMPDEST SWAP1 POP SWAP2 SWAP1 POP JUMP JUMPDEST PUSH1 0x0 PUSH1 0x20 DUP3 ADD SWAP1 POP DUP2 DUP2 SUB PUSH1 0x0 DUP4 ADD MSTORE PUSH2 0x1CBF DUP2 PUSH2 0x1A1A JUMP JUMPDEST SWAP1 POP SWAP2 SWAP1 POP JUMP JUMPDEST PUSH1 0x0 PUSH1 0x20 DUP3 ADD SWAP1 POP PUSH2 0x1CDB PUSH1 0x0 DUP4 ADD DUP5 PUSH2 0x1A4C JUMP JUMPDEST SWAP3 SWAP2 POP POP JUMP JUMPDEST PUSH1 0x0 PUSH2 0x1CEB PUSH2 0x1CFC JUMP JUMPDEST SWAP1 POP PUSH2 0x1CF7 DUP3 DUP3 PUSH2 0x1F3C JUMP JUMPDEST SWAP2 SWAP1 POP JUMP JUMPDEST PUSH1 0x0 PUSH1 0x40 MLOAD SWAP1 POP SWAP1 JUMP JUMPDEST PUSH1 0x0 PUSH8 0xFFFFFFFFFFFFFFFF DUP3 GT ISZERO PUSH2 0x1D21 JUMPI PUSH2 0x1D20 PUSH2 0x2014 JUMP JUMPDEST JUMPDEST PUSH2 0x1D2A DUP3 PUSH2 0x2043 JUMP JUMPDEST SWAP1 POP PUSH1 0x20 DUP2 ADD SWAP1 POP SWAP2 SWAP1 POP JUMP JUMPDEST PUSH1 0x0 DUP2 SWAP1 POP PUSH1 0x20 DUP3 ADD SWAP1 POP SWAP2 SWAP1 POP JUMP JUMPDEST PUSH1 0x0 DUP2 SWAP1 POP PUSH1 0x20 DUP3 ADD SWAP1 POP SWAP2 SWAP1 POP JUMP JUMPDEST PUSH1 0x0 DUP2 SWAP1 POP DUP2 PUSH1 0x0 MSTORE PUSH1 0x20 PUSH1 0x0 KECCAK256 SWAP1 POP SWAP2 SWAP1 POP JUMP JUMPDEST PUSH1 0x0 DUP2 MLOAD SWAP1 POP SWAP2 SWAP1 POP JUMP JUMPDEST PUSH1 0x0 DUP2 MLOAD SWAP1 POP SWAP2 SWAP1 POP JUMP JUMPDEST PUSH1 0x0 DUP2 MLOAD SWAP1 POP SWAP2 SWAP1 POP JUMP JUMPDEST PUSH1 0x0 PUSH1 0x20 DUP3 ADD SWAP1 POP SWAP2 SWAP1 POP JUMP JUMPDEST PUSH1 0x0 PUSH1 0x20 DUP3 ADD SWAP1 POP SWAP2 SWAP1 POP JUMP JUMPDEST PUSH1 0x0 DUP3 DUP3 MSTORE PUSH1 0x20 DUP3 ADD SWAP1 POP SWAP3 SWAP2 POP POP JUMP JUMPDEST PUSH1 0x0 DUP3 DUP3 MSTORE PUSH1 0x20 DUP3 ADD SWAP1 POP SWAP3 SWAP2 POP POP JUMP JUMPDEST PUSH1 0x0 DUP2 SWAP1 POP SWAP3 SWAP2 POP POP JUMP JUMPDEST PUSH1 0x0 DUP3 DUP3 MSTORE PUSH1 0x20 DUP3 ADD SWAP1 POP SWAP3 SWAP2 POP POP JUMP JUMPDEST PUSH1 0x0 DUP3 DUP3 MSTORE PUSH1 0x20 DUP3 ADD SWAP1 POP SWAP3 SWAP2 POP POP JUMP JUMPDEST PUSH1 0x0 PUSH2 0x1E01 DUP3 PUSH2 0x1EBE JUMP JUMPDEST SWAP2 POP PUSH2 0x1E0C DUP4 PUSH2 0x1EBE JUMP JUMPDEST SWAP3 POP DUP3 PUSH32 0xFFFFFFFFFFFFFFFFFFFFFFFFFFFFFFFFFFFFFFFFFFFFFFFFFFFFFFFFFFFFFFFF SUB DUP3 GT ISZERO PUSH2 0x1E41 JUMPI PUSH2 0x1E40 PUSH2 0x1FB6 JUMP JUMPDEST JUMPDEST DUP3 DUP3 ADD SWAP1 POP SWAP3 SWAP2 POP POP JUMP JUMPDEST PUSH1 0x0 PUSH2 0x1E57 DUP3 PUSH2 0x1EBE JUMP JUMPDEST SWAP2 POP PUSH2 0x1E62 DUP4 PUSH2 0x1EBE JUMP JUMPDEST SWAP3 POP DUP3 DUP3 LT ISZERO PUSH2 0x1E75 JUMPI PUSH2 0x1E74 PUSH2 0x1FB6 JUMP JUMPDEST JUMPDEST DUP3 DUP3 SUB SWAP1 POP SWAP3 SWAP2 POP POP JUMP JUMPDEST PUSH1 0x0 PUSH2 0x1E8B DUP3 PUSH2 0x1E9E JUMP JUMPDEST SWAP1 POP SWAP2 SWAP1 POP JUMP JUMPDEST PUSH1 0x0 DUP2 ISZERO ISZERO SWAP1 POP SWAP2 SWAP1 POP JUMP JUMPDEST PUSH1 0x0 PUSH20 0xFFFFFFFFFFFFFFFFFFFFFFFFFFFFFFFFFFFFFFFF DUP3 AND SWAP1 POP SWAP2 SWAP1 POP JUMP JUMPDEST PUSH1 0x0 DUP2 SWAP1 POP SWAP2 SWAP1 POP JUMP JUMPDEST DUP3 DUP2 DUP4 CALLDATACOPY PUSH1 0x0 DUP4 DUP4 ADD MSTORE POP POP POP JUMP JUMPDEST PUSH1 0x0 JUMPDEST DUP4 DUP2 LT ISZERO PUSH2 0x1EF5 JUMPI DUP1 DUP3 ADD MLOAD DUP2 DUP5 ADD MSTORE PUSH1 0x20 DUP2 ADD SWAP1 POP PUSH2 0x1EDA JUMP JUMPDEST DUP4 DUP2 GT ISZERO PUSH2 0x1F04 JUMPI PUSH1 0x0 DUP5 DUP5 ADD MSTORE JUMPDEST POP POP POP POP JUMP JUMPDEST PUSH1 0x0 PUSH1 0x2 DUP3 DIV SWAP1 POP PUSH1 0x1 DUP3 AND DUP1 PUSH2 0x1F22 JUMPI PUSH1 0x7F DUP3 AND SWAP2 POP JUMPDEST PUSH1 0x20 DUP3 LT DUP2 EQ ISZERO PUSH2 0x1F36 JUMPI PUSH2 0x1F35 PUSH2 0x1FE5 JUMP JUMPDEST JUMPDEST POP SWAP2 SWAP1 POP JUMP JUMPDEST PUSH2 0x1F45 DUP3 PUSH2 0x2043 JUMP JUMPDEST DUP2 ADD DUP2 DUP2 LT PUSH8 0xFFFFFFFFFFFFFFFF DUP3 GT OR ISZERO PUSH2 0x1F64 JUMPI PUSH2 0x1F63 PUSH2 0x2014 JUMP JUMPDEST JUMPDEST DUP1 PUSH1 0x40 MSTORE POP POP POP JUMP JUMPDEST PUSH1 0x0 PUSH2 0x1F78 DUP3 PUSH2 0x1EBE JUMP JUMPDEST SWAP2 POP PUSH32 0xFFFFFFFFFFFFFFFFFFFFFFFFFFFFFFFFFFFFFFFFFFFFFFFFFFFFFFFFFFFFFFFF DUP3 EQ ISZERO PUSH2 0x1FAB JUMPI PUSH2 0x1FAA PUSH2 0x1FB6 JUMP JUMPDEST JUMPDEST PUSH1 0x1 DUP3 ADD SWAP1 POP SWAP2 SWAP1 POP JUMP JUMPDEST PUSH32 0x4E487B7100000000000000000000000000000000000000000000000000000000 PUSH1 0x0 MSTORE PUSH1 0x11 PUSH1 0x4 MSTORE PUSH1 0x24 PUSH1 0x0 REVERT JUMPDEST PUSH32 0x4E487B7100000000000000000000000000000000000000000000000000000000 PUSH1 0x0 MSTORE PUSH1 0x22 PUSH1 0x4 MSTORE PUSH1 0x24 PUSH1 0x0 REVERT JUMPDEST PUSH32 0x4E487B7100000000000000000000000000000000000000000000000000000000 PUSH1 0x0 MSTORE PUSH1 0x41 PUSH1 0x4 MSTORE PUSH1 0x24 PUSH1 0x0 REVERT JUMPDEST PUSH1 0x0 PUSH1 0x1F NOT PUSH1 0x1F DUP4 ADD AND SWAP1 POP SWAP2 SWAP1 POP JUMP JUMPDEST PUSH32 0x75736572206167652062656C6F772031382063616E2774207265676973746572 PUSH1 0x0 DUP3 ADD MSTORE PUSH32 0x20666F722074686520766F746500000000000000000000000000000000000000 PUSH1 0x20 DUP3 ADD MSTORE POP JUMP JUMPDEST PUSH32 0x4E6F206F6E652068617320766F74656420796574000000000000000000000000 PUSH1 0x0 DUP3 ADD MSTORE POP JUMP JUMPDEST PUSH32 0x4E6F2063616E6469646174657320746F20766965770000000000000000000000 PUSH1 0x0 DUP3 ADD MSTORE POP JUMP JUMPDEST PUSH32 0x75736572206861736E277420766F746564207965740000000000000000000000 PUSH1 0x0 DUP3 ADD MSTORE POP JUMP JUMPDEST PUSH32 0x7468657265206973206E6F20636F6E74657374616E7420776974682074686973 PUSH1 0x0 DUP3 ADD MSTORE PUSH32 0x206E756D62657200000000000000000000000000000000000000000000000000 PUSH1 0x20 DUP3 ADD MSTORE POP JUMP JUMPDEST PUSH32 0x6E616D652068617320616C7265616479206265656E2061646465640000000000 PUSH1 0x0 DUP3 ADD MSTORE POP JUMP JUMPDEST PUSH32 0x4E6F2063616E64696461746520686173206265656E2061646465640000000000 PUSH1 0x0 DUP3 ADD MSTORE POP JUMP JUMPDEST PUSH32 0x74686520636F6E74726163742069732070617573656400000000000000000000 PUSH1 0x0 DUP3 ADD MSTORE POP JUMP JUMPDEST PUSH32 0x757365722068617320766F74656420616C726561647900000000000000000000 PUSH1 0x0 DUP3 ADD MSTORE POP JUMP JUMPDEST PUSH32 0x75736572206861736E2774207265676973746572656420796574000000000000 PUSH1 0x0 DUP3 ADD MSTORE POP JUMP JUMPDEST PUSH32 0x7573657220686173207265676973746572656400000000000000000000000000 PUSH1 0x0 DUP3 ADD MSTORE POP JUMP JUMPDEST PUSH32 0x4F6E6C79204F776E65722063616E2063616C6C20746869732066756E6374696F PUSH1 0x0 DUP3 ADD MSTORE PUSH32 0x6E00000000000000000000000000000000000000000000000000000000000000 PUSH1 0x20 DUP3 ADD MSTORE POP JUMP JUMPDEST PUSH2 0x22BB DUP2 PUSH2 0x1EBE JUMP JUMPDEST DUP2 EQ PUSH2 0x22C6 JUMPI PUSH1 0x0 DUP1 REVERT JUMPDEST POP JUMP INVALID LOG2 PUSH5 0x6970667358 0x22 SLT KECCAK256 PUSH8 0xE046C0A17E9BAC1C 0x49 BALANCE PUSH4 0x3A8DF6C0 DELEGATECALL MUL PUSH25 0xEA11F06180DC1E21604586F86E64736F6C6343000803003300 "
				},
				"gasEstimates": {
					"creation": {
						"codeDepositCost": "1791800",
						"executionCost": "43617",
						"totalCost": "1835417"
					},
					"external": {
						"addContestant(string)": "infinite",
						"candidateNo()": "1173",
						"isItPaused()": "1260",
						"listOfCandidatesVotes()": "infinite",
						"register(string,uint256)": "infinite",
						"revealWinner()": "infinite",
						"toggleActivity()": "23877",
						"totalVotes()": "1152",
						"viewCandidates()": "infinite",
						"vote(uint256)": "infinite",
						"voterNo()": "1240",
						"whoDidIVoteFor()": "infinite"
					}
				},
				"methodIdentifiers": {
					"addContestant(string)": "832c0aca",
					"candidateNo()": "7aad8c80",
					"isItPaused()": "57df6ca3",
					"listOfCandidatesVotes()": "54e70cae",
					"register(string,uint256)": "ea87152b",
					"revealWinner()": "6c699905",
					"toggleActivity()": "62e68ec0",
					"totalVotes()": "0d15fd77",
					"viewCandidates()": "d30f11dd",
					"vote(uint256)": "0121b93f",
					"voterNo()": "5b72565b",
					"whoDidIVoteFor()": "238488fd"
				}
			},
			"storageLayout": {
				"storage": [
					{
						"astId": 3,
						"contract": "contract/assignment3.sol:election",
						"label": "owner",
						"offset": 0,
						"slot": "0",
						"type": "t_address"
					},
					{
						"astId": 5,
						"contract": "contract/assignment3.sol:election",
						"label": "candidateNo",
						"offset": 0,
						"slot": "1",
						"type": "t_uint256"
					},
					{
						"astId": 7,
						"contract": "contract/assignment3.sol:election",
						"label": "voterNo",
						"offset": 0,
						"slot": "2",
						"type": "t_uint256"
					},
					{
						"astId": 10,
						"contract": "contract/assignment3.sol:election",
						"label": "candidateName",
						"offset": 0,
						"slot": "3",
						"type": "t_array(t_string_storage)dyn_storage"
					},
					{
						"astId": 12,
						"contract": "contract/assignment3.sol:election",
						"label": "isItPaused",
						"offset": 0,
						"slot": "4",
						"type": "t_bool"
					},
					{
						"astId": 14,
						"contract": "contract/assignment3.sol:election",
						"label": "totalVotes",
						"offset": 0,
						"slot": "5",
						"type": "t_uint256"
					},
					{
						"astId": 38,
						"contract": "contract/assignment3.sol:election",
						"label": "voters",
						"offset": 0,
						"slot": "6",
						"type": "t_array(t_struct(voter)34_storage)dyn_storage"
					},
					{
						"astId": 42,
						"contract": "contract/assignment3.sol:election",
						"label": "candidateById",
						"offset": 0,
						"slot": "7",
						"type": "t_mapping(t_uint256,t_string_storage)"
					},
					{
						"astId": 46,
						"contract": "contract/assignment3.sol:election",
						"label": "haveVoted",
						"offset": 0,
						"slot": "8",
						"type": "t_mapping(t_address,t_bool)"
					},
					{
						"astId": 50,
						"contract": "contract/assignment3.sol:election",
						"label": "haveRegistered",
						"offset": 0,
						"slot": "9",
						"type": "t_mapping(t_address,t_bool)"
					},
					{
						"astId": 54,
						"contract": "contract/assignment3.sol:election",
						"label": "candidateByVote",
						"offset": 0,
						"slot": "10",
						"type": "t_mapping(t_uint256,t_uint256)"
					},
					{
						"astId": 58,
						"contract": "contract/assignment3.sol:election",
						"label": "votersToCandidate",
						"offset": 0,
						"slot": "11",
						"type": "t_mapping(t_address,t_string_storage)"
					}
				],
				"types": {
					"t_address": {
						"encoding": "inplace",
						"label": "address",
						"numberOfBytes": "20"
					},
					"t_array(t_string_storage)dyn_storage": {
						"base": "t_string_storage",
						"encoding": "dynamic_array",
						"label": "string[]",
						"numberOfBytes": "32"
					},
					"t_array(t_struct(voter)34_storage)dyn_storage": {
						"base": "t_struct(voter)34_storage",
						"encoding": "dynamic_array",
						"label": "struct election.voter[]",
						"numberOfBytes": "32"
					},
					"t_bool": {
						"encoding": "inplace",
						"label": "bool",
						"numberOfBytes": "1"
					},
					"t_mapping(t_address,t_bool)": {
						"encoding": "mapping",
						"key": "t_address",
						"label": "mapping(address => bool)",
						"numberOfBytes": "32",
						"value": "t_bool"
					},
					"t_mapping(t_address,t_string_storage)": {
						"encoding": "mapping",
						"key": "t_address",
						"label": "mapping(address => string)",
						"numberOfBytes": "32",
						"value": "t_string_storage"
					},
					"t_mapping(t_uint256,t_string_storage)": {
						"encoding": "mapping",
						"key": "t_uint256",
						"label": "mapping(uint256 => string)",
						"numberOfBytes": "32",
						"value": "t_string_storage"
					},
					"t_mapping(t_uint256,t_uint256)": {
						"encoding": "mapping",
						"key": "t_uint256",
						"label": "mapping(uint256 => uint256)",
						"numberOfBytes": "32",
						"value": "t_uint256"
					},
					"t_string_storage": {
						"encoding": "bytes",
						"label": "string",
						"numberOfBytes": "32"
					},
					"t_struct(voter)34_storage": {
						"encoding": "inplace",
						"label": "struct election.voter",
						"members": [
							{
								"astId": 29,
								"contract": "contract/assignment3.sol:election",
								"label": "voterId",
								"offset": 0,
								"slot": "0",
								"type": "t_uint256"
							},
							{
								"astId": 31,
								"contract": "contract/assignment3.sol:election",
								"label": "voterName",
								"offset": 0,
								"slot": "1",
								"type": "t_string_storage"
							},
							{
								"astId": 33,
								"contract": "contract/assignment3.sol:election",
								"label": "age",
								"offset": 0,
								"slot": "2",
								"type": "t_uint256"
							}
						],
						"numberOfBytes": "96"
					},
					"t_uint256": {
						"encoding": "inplace",
						"label": "uint256",
						"numberOfBytes": "32"
					}
				}
			},
			"userdoc": {
				"kind": "user",
				"methods": {},
				"version": 1
			}
		}
	}
}