{
	"contract/assignment3.sol": {
		"election": {
			"abi": [
				{
					"inputs": [],
					"stateMutability": "nonpayable",
					"type": "constructor"
				},
				{
					"anonymous": false,
					"inputs": [
						{
							"indexed": true,
							"internalType": "uint256",
							"name": "candidateNo",
							"type": "uint256"
						},
						{
							"indexed": false,
							"internalType": "string",
							"name": "candidateName",
							"type": "string"
						}
					],
					"name": "ContestantAdded",
					"type": "event"
				},
				{
					"anonymous": false,
					"inputs": [
						{
							"indexed": true,
							"internalType": "address",
							"name": "by",
							"type": "address"
						}
					],
					"name": "Paused",
					"type": "event"
				},
				{
					"anonymous": false,
					"inputs": [
						{
							"indexed": true,
							"internalType": "uint256",
							"name": "voterNo",
							"type": "uint256"
						},
						{
							"indexed": false,
							"internalType": "string",
							"name": "voterName",
							"type": "string"
						},
						{
							"indexed": true,
							"internalType": "address",
							"name": "voterAddress",
							"type": "address"
						}
					],
					"name": "Registered",
					"type": "event"
				},
				{
					"anonymous": false,
					"inputs": [
						{
							"indexed": true,
							"internalType": "address",
							"name": "by",
							"type": "address"
						}
					],
					"name": "Unpaused",
					"type": "event"
				},
				{
					"anonymous": false,
					"inputs": [
						{
							"indexed": true,
							"internalType": "uint256",
							"name": "candidateNo",
							"type": "uint256"
						},
						{
							"indexed": false,
							"internalType": "address",
							"name": "voterAddress",
							"type": "address"
						},
						{
							"indexed": false,
							"internalType": "uint256",
							"name": "totalVotes",
							"type": "uint256"
						}
					],
					"name": "Voted",
					"type": "event"
				},
				{
					"inputs": [
						{
							"internalType": "string",
							"name": "_name",
							"type": "string"
						}
					],
					"name": "addContestant",
					"outputs": [],
					"stateMutability": "nonpayable",
					"type": "function"
				},
				{
					"inputs": [],
					"name": "candidateNo",
					"outputs": [
						{
							"internalType": "uint256",
							"name": "",
							"type": "uint256"
						}
					],
					"stateMutability": "view",
					"type": "function"
				},
				{
					"inputs": [],
					"name": "isItPaused",
					"outputs": [
						{
							"internalType": "bool",
							"name": "",
							"type": "bool"
						}
					],
					"stateMutability": "view",
					"type": "function"
				},
				{
					"inputs": [],
					"name": "listOfCandidatesVotes",
					"outputs": [
						{
							"internalType": "string[]",
							"name": "",
							"type": "string[]"
						},
						{
							"internalType": "uint256[]",
							"name": "",
							"type": "uint256[]"
						}
					],
					"stateMutability": "view",
					"type": "function"
				},
				{
					"inputs": [],
					"name": "pause",
					"outputs": [],
					"stateMutability": "nonpayable",
					"type": "function"
				},
				{
					"inputs": [
						{
							"internalType": "string",
							"name": "_voterName",
							"type": "string"
						},
						{
							"internalType": "uint256",
							"name": "_age",
							"type": "uint256"
						}
					],
					"name": "register",
					"outputs": [],
					"stateMutability": "nonpayable",
					"type": "function"
				},
				{
					"inputs": [],
					"name": "revealWinner",
					"outputs": [
						{
							"internalType": "string",
							"name": "",
							"type": "string"
						}
					],
					"stateMutability": "view",
					"type": "function"
				},
				{
					"inputs": [],
					"name": "totalVotes",
					"outputs": [
						{
							"internalType": "uint256",
							"name": "",
							"type": "uint256"
						}
					],
					"stateMutability": "view",
					"type": "function"
				},
				{
					"inputs": [],
					"name": "unpause",
					"outputs": [],
					"stateMutability": "nonpayable",
					"type": "function"
				},
				{
					"inputs": [],
					"name": "viewCandidates",
					"outputs": [
						{
							"internalType": "uint256[]",
							"name": "",
							"type": "uint256[]"
						},
						{
							"internalType": "string[]",
							"name": "",
							"type": "string[]"
						}
					],
					"stateMutability": "view",
					"type": "function"
				},
				{
					"inputs": [
						{
							"internalType": "uint256",
							"name": "_candidateNo",
							"type": "uint256"
						}
					],
					"name": "vote",
					"outputs": [],
					"stateMutability": "nonpayable",
					"type": "function"
				},
				{
					"inputs": [],
					"name": "voterNo",
					"outputs": [
						{
							"internalType": "uint256",
							"name": "",
							"type": "uint256"
						}
					],
					"stateMutability": "view",
					"type": "function"
				},
				{
					"inputs": [],
					"name": "whoDidIVoteFor",
					"outputs": [
						{
							"internalType": "string",
							"name": "",
							"type": "string"
						}
					],
					"stateMutability": "view",
					"type": "function"
				}
			],
			"devdoc": {
				"kind": "dev",
				"methods": {},
				"version": 1
			},
			"evm": {
				"assembly": "    /* \"contract/assignment3.sol\":61:5069  contract election{\r... */\n  mstore(0x40, 0x80)\n    /* \"contract/assignment3.sol\":265:349  constructor () {\r... */\n  callvalue\n  dup1\n  iszero\n  tag_1\n  jumpi\n  0x00\n  dup1\n  revert\ntag_1:\n  pop\n    /* \"contract/assignment3.sol\":301:311  msg.sender */\n  caller\n    /* \"contract/assignment3.sol\":293:298  owner */\n  0x00\n  dup1\n    /* \"contract/assignment3.sol\":293:311  owner = msg.sender */\n  0x0100\n  exp\n  dup2\n  sload\n  dup2\n  0xffffffffffffffffffffffffffffffffffffffff\n  mul\n  not\n  and\n  swap1\n  dup4\n  0xffffffffffffffffffffffffffffffffffffffff\n  and\n  mul\n  or\n  swap1\n  sstore\n  pop\n    /* \"contract/assignment3.sol\":337:341  true */\n  0x01\n    /* \"contract/assignment3.sol\":324:334  isItPaused */\n  0x04\n  0x00\n    /* \"contract/assignment3.sol\":324:341  isItPaused = true */\n  0x0100\n  exp\n  dup2\n  sload\n  dup2\n  0xff\n  mul\n  not\n  and\n  swap1\n  dup4\n  iszero\n  iszero\n  mul\n  or\n  swap1\n  sstore\n  pop\n    /* \"contract/assignment3.sol\":61:5069  contract election{\r... */\n  dataSize(sub_0)\n  dup1\n  dataOffset(sub_0)\n  0x00\n  codecopy\n  0x00\n  return\nstop\n\nsub_0: assembly {\n        /* \"contract/assignment3.sol\":61:5069  contract election{\r... */\n      mstore(0x40, 0x80)\n      callvalue\n      dup1\n      iszero\n      tag_1\n      jumpi\n      0x00\n      dup1\n      revert\n    tag_1:\n      pop\n      jumpi(tag_2, lt(calldatasize, 0x04))\n      shr(0xe0, calldataload(0x00))\n      dup1\n      0x5b72565b\n      gt\n      tag_16\n      jumpi\n      dup1\n      0x832c0aca\n      gt\n      tag_17\n      jumpi\n      dup1\n      0x832c0aca\n      eq\n      tag_12\n      jumpi\n      dup1\n      0x8456cb59\n      eq\n      tag_13\n      jumpi\n      dup1\n      0xd30f11dd\n      eq\n      tag_14\n      jumpi\n      dup1\n      0xea87152b\n      eq\n      tag_15\n      jumpi\n      jump(tag_2)\n    tag_17:\n      dup1\n      0x5b72565b\n      eq\n      tag_9\n      jumpi\n      dup1\n      0x6c699905\n      eq\n      tag_10\n      jumpi\n      dup1\n      0x7aad8c80\n      eq\n      tag_11\n      jumpi\n      jump(tag_2)\n    tag_16:\n      dup1\n      0x0121b93f\n      eq\n      tag_3\n      jumpi\n      dup1\n      0x0d15fd77\n      eq\n      tag_4\n      jumpi\n      dup1\n      0x238488fd\n      eq\n      tag_5\n      jumpi\n      dup1\n      0x3f4ba83a\n      eq\n      tag_6\n      jumpi\n      dup1\n      0x54e70cae\n      eq\n      tag_7\n      jumpi\n      dup1\n      0x57df6ca3\n      eq\n      tag_8\n      jumpi\n    tag_2:\n      0x00\n      dup1\n      revert\n        /* \"contract/assignment3.sol\":2818:3388  function vote (uint _candidateNo) external whenNotPaused {\r... */\n    tag_3:\n      tag_18\n      0x04\n      dup1\n      calldatasize\n      sub\n      dup2\n      add\n      swap1\n      tag_19\n      swap2\n      swap1\n      tag_20\n      jump\t// in\n    tag_19:\n      tag_21\n      jump\t// in\n    tag_18:\n      stop\n        /* \"contract/assignment3.sol\":233:255  uint public totalVotes */\n    tag_4:\n      tag_22\n      tag_23\n      jump\t// in\n    tag_22:\n      mload(0x40)\n      tag_24\n      swap2\n      swap1\n      tag_25\n      jump\t// in\n    tag_24:\n      mload(0x40)\n      dup1\n      swap2\n      sub\n      swap1\n      return\n        /* \"contract/assignment3.sol\":4628:4816  function whoDidIVoteFor () external view returns(string memory){\r... */\n    tag_5:\n      tag_26\n      tag_27\n      jump\t// in\n    tag_26:\n      mload(0x40)\n      tag_28\n      swap2\n      swap1\n      tag_29\n      jump\t// in\n    tag_28:\n      mload(0x40)\n      dup1\n      swap2\n      sub\n      swap1\n      return\n        /* \"contract/assignment3.sol\":4942:5066  function unpause () external ownerOnly{\r... */\n    tag_6:\n      tag_30\n      tag_31\n      jump\t// in\n    tag_30:\n      stop\n        /* \"contract/assignment3.sol\":4144:4611  function listOfCandidatesVotes () external view ownerOnly returns (string [] memory , uint [] memory){\r... */\n    tag_7:\n      tag_32\n      tag_33\n      jump\t// in\n    tag_32:\n      mload(0x40)\n      tag_34\n      swap3\n      swap2\n      swap1\n      tag_35\n      jump\t// in\n    tag_34:\n      mload(0x40)\n      dup1\n      swap2\n      sub\n      swap1\n      return\n        /* \"contract/assignment3.sol\":203:225  bool public isItPaused */\n    tag_8:\n      tag_36\n      tag_37\n      jump\t// in\n    tag_36:\n      mload(0x40)\n      tag_38\n      swap2\n      swap1\n      tag_39\n      jump\t// in\n    tag_38:\n      mload(0x40)\n      dup1\n      swap2\n      sub\n      swap1\n      return\n        /* \"contract/assignment3.sol\":142:164  uint256 public voterNo */\n    tag_9:\n      tag_40\n      tag_41\n      jump\t// in\n    tag_40:\n      mload(0x40)\n      tag_42\n      swap2\n      swap1\n      tag_25\n      jump\t// in\n    tag_42:\n      mload(0x40)\n      dup1\n      swap2\n      sub\n      swap1\n      return\n        /* \"contract/assignment3.sol\":3396:4136  function revealWinner () external view ownerOnly returns(string memory){\r... */\n    tag_10:\n      tag_43\n      tag_44\n      jump\t// in\n    tag_43:\n      mload(0x40)\n      tag_45\n      swap2\n      swap1\n      tag_29\n      jump\t// in\n    tag_45:\n      mload(0x40)\n      dup1\n      swap2\n      sub\n      swap1\n      return\n        /* \"contract/assignment3.sol\":108:134  uint256 public candidateNo */\n    tag_11:\n      tag_46\n      tag_47\n      jump\t// in\n    tag_46:\n      mload(0x40)\n      tag_48\n      swap2\n      swap1\n      tag_25\n      jump\t// in\n    tag_48:\n      mload(0x40)\n      dup1\n      swap2\n      sub\n      swap1\n      return\n        /* \"contract/assignment3.sol\":1397:1912  function addContestant (string memory _name) external ownerOnly {\r... */\n    tag_12:\n      tag_49\n      0x04\n      dup1\n      calldatasize\n      sub\n      dup2\n      add\n      swap1\n      tag_50\n      swap2\n      swap1\n      tag_51\n      jump\t// in\n    tag_50:\n      tag_52\n      jump\t// in\n    tag_49:\n      stop\n        /* \"contract/assignment3.sol\":4824:4934  function pause () external ownerOnly{\r... */\n    tag_13:\n      tag_53\n      tag_54\n      jump\t// in\n    tag_53:\n      stop\n        /* \"contract/assignment3.sol\":2342:2810  function viewCandidates () external view whenNotPaused returns(uint [] memory, string [] memory){\r... */\n    tag_14:\n      tag_55\n      tag_56\n      jump\t// in\n    tag_55:\n      mload(0x40)\n      tag_57\n      swap3\n      swap2\n      swap1\n      tag_58\n      jump\t// in\n    tag_57:\n      mload(0x40)\n      dup1\n      swap2\n      sub\n      swap1\n      return\n        /* \"contract/assignment3.sol\":1920:2333  function register (string memory _voterName , uint _age ) external{\r... */\n    tag_15:\n      tag_59\n      0x04\n      dup1\n      calldatasize\n      sub\n      dup2\n      add\n      swap1\n      tag_60\n      swap2\n      swap1\n      tag_61\n      jump\t// in\n    tag_60:\n      tag_62\n      jump\t// in\n    tag_59:\n      stop\n        /* \"contract/assignment3.sol\":2818:3388  function vote (uint _candidateNo) external whenNotPaused {\r... */\n    tag_21:\n        /* \"contract/assignment3.sol\":954:964  isItPaused */\n      0x04\n      0x00\n      swap1\n      sload\n      swap1\n      0x0100\n      exp\n      swap1\n      div\n      0xff\n      and\n        /* \"contract/assignment3.sol\":953:964  !isItPaused */\n      iszero\n        /* \"contract/assignment3.sol\":944:991  require (!isItPaused, \"the contract is paused\") */\n      tag_64\n      jumpi\n      mload(0x40)\n      0x08c379a000000000000000000000000000000000000000000000000000000000\n      dup2\n      mstore\n      0x04\n      add\n      tag_65\n      swap1\n      tag_66\n      jump\t// in\n    tag_65:\n      mload(0x40)\n      dup1\n      swap2\n      sub\n      swap1\n      revert\n    tag_64:\n        /* \"contract/assignment3.sol\":2912:2913  0 */\n      0x00\n        /* \"contract/assignment3.sol\":2896:2908  _candidateNo */\n      dup2\n        /* \"contract/assignment3.sol\":2896:2913  _candidateNo != 0 */\n      eq\n      iszero\n        /* \"contract/assignment3.sol\":2896:2944  _candidateNo != 0 && _candidateNo <= candidateNo */\n      dup1\n      iszero\n      tag_68\n      jumpi\n      pop\n        /* \"contract/assignment3.sol\":2933:2944  candidateNo */\n      sload(0x01)\n        /* \"contract/assignment3.sol\":2917:2929  _candidateNo */\n      dup2\n        /* \"contract/assignment3.sol\":2917:2944  _candidateNo <= candidateNo */\n      gt\n      iszero\n        /* \"contract/assignment3.sol\":2896:2944  _candidateNo != 0 && _candidateNo <= candidateNo */\n    tag_68:\n        /* \"contract/assignment3.sol\":2888:2988  require(_candidateNo != 0 && _candidateNo <= candidateNo, \"there is no contestant with this number\") */\n      tag_69\n      jumpi\n      mload(0x40)\n      0x08c379a000000000000000000000000000000000000000000000000000000000\n      dup2\n      mstore\n      0x04\n      add\n      tag_70\n      swap1\n      tag_71\n      jump\t// in\n    tag_70:\n      mload(0x40)\n      dup1\n      swap2\n      sub\n      swap1\n      revert\n    tag_69:\n        /* \"contract/assignment3.sol\":3010:3024  haveRegistered */\n      0x09\n        /* \"contract/assignment3.sol\":3010:3036  haveRegistered[msg.sender] */\n      0x00\n        /* \"contract/assignment3.sol\":3025:3035  msg.sender */\n      caller\n        /* \"contract/assignment3.sol\":3010:3036  haveRegistered[msg.sender] */\n      0xffffffffffffffffffffffffffffffffffffffff\n      and\n      0xffffffffffffffffffffffffffffffffffffffff\n      and\n      dup2\n      mstore\n      0x20\n      add\n      swap1\n      dup2\n      mstore\n      0x20\n      add\n      0x00\n      keccak256\n      0x00\n      swap1\n      sload\n      swap1\n      0x0100\n      exp\n      swap1\n      div\n      0xff\n      and\n        /* \"contract/assignment3.sol\":3001:3067  require (haveRegistered[msg.sender], \"user hasn't registered yet\") */\n      tag_72\n      jumpi\n      mload(0x40)\n      0x08c379a000000000000000000000000000000000000000000000000000000000\n      dup2\n      mstore\n      0x04\n      add\n      tag_73\n      swap1\n      tag_74\n      jump\t// in\n    tag_73:\n      mload(0x40)\n      dup1\n      swap2\n      sub\n      swap1\n      revert\n    tag_72:\n        /* \"contract/assignment3.sol\":3090:3099  haveVoted */\n      0x08\n        /* \"contract/assignment3.sol\":3090:3111  haveVoted[msg.sender] */\n      0x00\n        /* \"contract/assignment3.sol\":3100:3110  msg.sender */\n      caller\n        /* \"contract/assignment3.sol\":3090:3111  haveVoted[msg.sender] */\n      0xffffffffffffffffffffffffffffffffffffffff\n      and\n      0xffffffffffffffffffffffffffffffffffffffff\n      and\n      dup2\n      mstore\n      0x20\n      add\n      swap1\n      dup2\n      mstore\n      0x20\n      add\n      0x00\n      keccak256\n      0x00\n      swap1\n      sload\n      swap1\n      0x0100\n      exp\n      swap1\n      div\n      0xff\n      and\n        /* \"contract/assignment3.sol\":3089:3111  !haveVoted[msg.sender] */\n      iszero\n        /* \"contract/assignment3.sol\":3080:3137  require (!haveVoted[msg.sender],\"user has voted already\") */\n      tag_75\n      jumpi\n      mload(0x40)\n      0x08c379a000000000000000000000000000000000000000000000000000000000\n      dup2\n      mstore\n      0x04\n      add\n      tag_76\n      swap1\n      tag_77\n      jump\t// in\n    tag_76:\n      mload(0x40)\n      dup1\n      swap2\n      sub\n      swap1\n      revert\n    tag_75:\n        /* \"contract/assignment3.sol\":3150:3160  totalVotes */\n      0x05\n      0x00\n        /* \"contract/assignment3.sol\":3150:3162  totalVotes++ */\n      dup2\n      sload\n      dup1\n      swap3\n      swap2\n      swap1\n      tag_78\n      swap1\n      tag_79\n      jump\t// in\n    tag_78:\n      swap2\n      swap1\n      pop\n      sstore\n      pop\n        /* \"contract/assignment3.sol\":3175:3190  candidateByVote */\n      0x0a\n        /* \"contract/assignment3.sol\":3175:3204  candidateByVote[_candidateNo] */\n      0x00\n        /* \"contract/assignment3.sol\":3191:3203  _candidateNo */\n      dup3\n        /* \"contract/assignment3.sol\":3175:3204  candidateByVote[_candidateNo] */\n      dup2\n      mstore\n      0x20\n      add\n      swap1\n      dup2\n      mstore\n      0x20\n      add\n      0x00\n      keccak256\n      0x00\n        /* \"contract/assignment3.sol\":3175:3206  candidateByVote[_candidateNo]++ */\n      dup2\n      sload\n      dup1\n      swap3\n      swap2\n      swap1\n      tag_80\n      swap1\n      tag_79\n      jump\t// in\n    tag_80:\n      swap2\n      swap1\n      pop\n      sstore\n      pop\n        /* \"contract/assignment3.sol\":3251:3264  candidateById */\n      0x07\n        /* \"contract/assignment3.sol\":3251:3278  candidateById[_candidateNo] */\n      0x00\n        /* \"contract/assignment3.sol\":3265:3277  _candidateNo */\n      dup3\n        /* \"contract/assignment3.sol\":3251:3278  candidateById[_candidateNo] */\n      dup2\n      mstore\n      0x20\n      add\n      swap1\n      dup2\n      mstore\n      0x20\n      add\n      0x00\n      keccak256\n        /* \"contract/assignment3.sol\":3219:3236  votersToCandidate */\n      0x0b\n        /* \"contract/assignment3.sol\":3219:3248  votersToCandidate[msg.sender] */\n      0x00\n        /* \"contract/assignment3.sol\":3237:3247  msg.sender */\n      caller\n        /* \"contract/assignment3.sol\":3219:3248  votersToCandidate[msg.sender] */\n      0xffffffffffffffffffffffffffffffffffffffff\n      and\n      0xffffffffffffffffffffffffffffffffffffffff\n      and\n      dup2\n      mstore\n      0x20\n      add\n      swap1\n      dup2\n      mstore\n      0x20\n      add\n      0x00\n      keccak256\n        /* \"contract/assignment3.sol\":3219:3278  votersToCandidate[msg.sender] = candidateById[_candidateNo] */\n      swap1\n      dup1\n      sload\n      tag_81\n      swap1\n      tag_82\n      jump\t// in\n    tag_81:\n      tag_83\n      swap3\n      swap2\n      swap1\n      tag_84\n      jump\t// in\n    tag_83:\n      pop\n        /* \"contract/assignment3.sol\":3315:3319  true */\n      0x01\n        /* \"contract/assignment3.sol\":3291:3300  haveVoted */\n      0x08\n        /* \"contract/assignment3.sol\":3291:3312  haveVoted[msg.sender] */\n      0x00\n        /* \"contract/assignment3.sol\":3301:3311  msg.sender */\n      caller\n        /* \"contract/assignment3.sol\":3291:3312  haveVoted[msg.sender] */\n      0xffffffffffffffffffffffffffffffffffffffff\n      and\n      0xffffffffffffffffffffffffffffffffffffffff\n      and\n      dup2\n      mstore\n      0x20\n      add\n      swap1\n      dup2\n      mstore\n      0x20\n      add\n      0x00\n      keccak256\n      0x00\n        /* \"contract/assignment3.sol\":3291:3319  haveVoted[msg.sender] = true */\n      0x0100\n      exp\n      dup2\n      sload\n      dup2\n      0xff\n      mul\n      not\n      and\n      swap1\n      dup4\n      iszero\n      iszero\n      mul\n      or\n      swap1\n      sstore\n      pop\n        /* \"contract/assignment3.sol\":3343:3355  _candidateNo */\n      dup1\n        /* \"contract/assignment3.sol\":3337:3380  Voted(_candidateNo, msg.sender, totalVotes) */\n      0x1abe610cf2bf87e57dcc1181fcf5ac0934e843d8344ab9eed6e86c799f62585e\n        /* \"contract/assignment3.sol\":3357:3367  msg.sender */\n      caller\n        /* \"contract/assignment3.sol\":3369:3379  totalVotes */\n      sload(0x05)\n        /* \"contract/assignment3.sol\":3337:3380  Voted(_candidateNo, msg.sender, totalVotes) */\n      mload(0x40)\n      tag_85\n      swap3\n      swap2\n      swap1\n      tag_86\n      jump\t// in\n    tag_85:\n      mload(0x40)\n      dup1\n      swap2\n      sub\n      swap1\n      log2\n        /* \"contract/assignment3.sol\":2818:3388  function vote (uint _candidateNo) external whenNotPaused {\r... */\n      pop\n      jump\t// out\n        /* \"contract/assignment3.sol\":233:255  uint public totalVotes */\n    tag_23:\n      sload(0x05)\n      dup2\n      jump\t// out\n        /* \"contract/assignment3.sol\":4628:4816  function whoDidIVoteFor () external view returns(string memory){\r... */\n    tag_27:\n        /* \"contract/assignment3.sol\":4677:4690  string memory */\n      0x60\n        /* \"contract/assignment3.sol\":4712:4721  haveVoted */\n      0x08\n        /* \"contract/assignment3.sol\":4712:4733  haveVoted[msg.sender] */\n      0x00\n        /* \"contract/assignment3.sol\":4722:4732  msg.sender */\n      caller\n        /* \"contract/assignment3.sol\":4712:4733  haveVoted[msg.sender] */\n      0xffffffffffffffffffffffffffffffffffffffff\n      and\n      0xffffffffffffffffffffffffffffffffffffffff\n      and\n      dup2\n      mstore\n      0x20\n      add\n      swap1\n      dup2\n      mstore\n      0x20\n      add\n      0x00\n      keccak256\n      0x00\n      swap1\n      sload\n      swap1\n      0x0100\n      exp\n      swap1\n      div\n      0xff\n      and\n        /* \"contract/assignment3.sol\":4704:4759  require(haveVoted[msg.sender], \"user hasn't voted yet\") */\n      tag_88\n      jumpi\n      mload(0x40)\n      0x08c379a000000000000000000000000000000000000000000000000000000000\n      dup2\n      mstore\n      0x04\n      add\n      tag_89\n      swap1\n      tag_90\n      jump\t// in\n    tag_89:\n      mload(0x40)\n      dup1\n      swap2\n      sub\n      swap1\n      revert\n    tag_88:\n        /* \"contract/assignment3.sol\":4779:4796  votersToCandidate */\n      0x0b\n        /* \"contract/assignment3.sol\":4779:4808  votersToCandidate[msg.sender] */\n      0x00\n        /* \"contract/assignment3.sol\":4797:4807  msg.sender */\n      caller\n        /* \"contract/assignment3.sol\":4779:4808  votersToCandidate[msg.sender] */\n      0xffffffffffffffffffffffffffffffffffffffff\n      and\n      0xffffffffffffffffffffffffffffffffffffffff\n      and\n      dup2\n      mstore\n      0x20\n      add\n      swap1\n      dup2\n      mstore\n      0x20\n      add\n      0x00\n      keccak256\n        /* \"contract/assignment3.sol\":4772:4808  return votersToCandidate[msg.sender] */\n      dup1\n      sload\n      tag_91\n      swap1\n      tag_82\n      jump\t// in\n    tag_91:\n      dup1\n      0x1f\n      add\n      0x20\n      dup1\n      swap2\n      div\n      mul\n      0x20\n      add\n      mload(0x40)\n      swap1\n      dup2\n      add\n      0x40\n      mstore\n      dup1\n      swap3\n      swap2\n      swap1\n      dup2\n      dup2\n      mstore\n      0x20\n      add\n      dup3\n      dup1\n      sload\n      tag_92\n      swap1\n      tag_82\n      jump\t// in\n    tag_92:\n      dup1\n      iszero\n      tag_93\n      jumpi\n      dup1\n      0x1f\n      lt\n      tag_94\n      jumpi\n      0x0100\n      dup1\n      dup4\n      sload\n      div\n      mul\n      dup4\n      mstore\n      swap2\n      0x20\n      add\n      swap2\n      jump(tag_93)\n    tag_94:\n      dup3\n      add\n      swap2\n      swap1\n      0x00\n      mstore\n      keccak256(0x00, 0x20)\n      swap1\n    tag_95:\n      dup2\n      sload\n      dup2\n      mstore\n      swap1\n      0x01\n      add\n      swap1\n      0x20\n      add\n      dup1\n      dup4\n      gt\n      tag_95\n      jumpi\n      dup3\n      swap1\n      sub\n      0x1f\n      and\n      dup3\n      add\n      swap2\n    tag_93:\n      pop\n      pop\n      pop\n      pop\n      pop\n      swap1\n      pop\n        /* \"contract/assignment3.sol\":4628:4816  function whoDidIVoteFor () external view returns(string memory){\r... */\n      swap1\n      jump\t// out\n        /* \"contract/assignment3.sol\":4942:5066  function unpause () external ownerOnly{\r... */\n    tag_31:\n        /* \"contract/assignment3.sol\":829:839  msg.sender */\n      caller\n        /* \"contract/assignment3.sol\":820:839  owner == msg.sender */\n      0xffffffffffffffffffffffffffffffffffffffff\n      and\n        /* \"contract/assignment3.sol\":820:825  owner */\n      0x00\n      dup1\n      sload\n      swap1\n      0x0100\n      exp\n      swap1\n      div\n      0xffffffffffffffffffffffffffffffffffffffff\n      and\n        /* \"contract/assignment3.sol\":820:839  owner == msg.sender */\n      0xffffffffffffffffffffffffffffffffffffffff\n      and\n      eq\n        /* \"contract/assignment3.sol\":812:877  require(owner == msg.sender, \"Only Owner can call this function\") */\n      tag_97\n      jumpi\n      mload(0x40)\n      0x08c379a000000000000000000000000000000000000000000000000000000000\n      dup2\n      mstore\n      0x04\n      add\n      tag_98\n      swap1\n      tag_99\n      jump\t// in\n    tag_98:\n      mload(0x40)\n      dup1\n      swap2\n      sub\n      swap1\n      revert\n    tag_97:\n        /* \"contract/assignment3.sol\":5015:5020  false */\n      0x00\n        /* \"contract/assignment3.sol\":5001:5011  isItPaused */\n      0x04\n      0x00\n        /* \"contract/assignment3.sol\":5001:5020  isItPaused  = false */\n      0x0100\n      exp\n      dup2\n      sload\n      dup2\n      0xff\n      mul\n      not\n      and\n      swap1\n      dup4\n      iszero\n      iszero\n      mul\n      or\n      swap1\n      sstore\n      pop\n        /* \"contract/assignment3.sol\":5047:5057  msg.sender */\n      caller\n        /* \"contract/assignment3.sol\":5038:5058  Unpaused(msg.sender) */\n      0xffffffffffffffffffffffffffffffffffffffff\n      and\n      0x5db9ee0a495bf2e6ff9c91a7834c1ba4fdd244a5e8aa4e537bd38aeae4b073aa\n      mload(0x40)\n      mload(0x40)\n      dup1\n      swap2\n      sub\n      swap1\n      log2\n        /* \"contract/assignment3.sol\":4942:5066  function unpause () external ownerOnly{\r... */\n      jump\t// out\n        /* \"contract/assignment3.sol\":4144:4611  function listOfCandidatesVotes () external view ownerOnly returns (string [] memory , uint [] memory){\r... */\n    tag_33:\n        /* \"contract/assignment3.sol\":4211:4227  string [] memory */\n      0x60\n        /* \"contract/assignment3.sol\":4230:4244  uint [] memory */\n      dup1\n        /* \"contract/assignment3.sol\":829:839  msg.sender */\n      caller\n        /* \"contract/assignment3.sol\":820:839  owner == msg.sender */\n      0xffffffffffffffffffffffffffffffffffffffff\n      and\n        /* \"contract/assignment3.sol\":820:825  owner */\n      0x00\n      dup1\n      sload\n      swap1\n      0x0100\n      exp\n      swap1\n      div\n      0xffffffffffffffffffffffffffffffffffffffff\n      and\n        /* \"contract/assignment3.sol\":820:839  owner == msg.sender */\n      0xffffffffffffffffffffffffffffffffffffffff\n      and\n      eq\n        /* \"contract/assignment3.sol\":812:877  require(owner == msg.sender, \"Only Owner can call this function\") */\n      tag_102\n      jumpi\n      mload(0x40)\n      0x08c379a000000000000000000000000000000000000000000000000000000000\n      dup2\n      mstore\n      0x04\n      add\n      tag_103\n      swap1\n      tag_99\n      jump\t// in\n    tag_103:\n      mload(0x40)\n      dup1\n      swap2\n      sub\n      swap1\n      revert\n    tag_102:\n        /* \"contract/assignment3.sol\":4281:4282  0 */\n      0x00\n        /* \"contract/assignment3.sol\":4267:4278  candidateNo */\n      sload(0x01)\n        /* \"contract/assignment3.sol\":4267:4282  candidateNo > 0 */\n      gt\n        /* \"contract/assignment3.sol\":4258:4315  require (candidateNo > 0 , \"No candidate has been added\") */\n      tag_105\n      jumpi\n      mload(0x40)\n      0x08c379a000000000000000000000000000000000000000000000000000000000\n      dup2\n      mstore\n      0x04\n      add\n      tag_106\n      swap1\n      tag_107\n      jump\t// in\n    tag_106:\n      mload(0x40)\n      dup1\n      swap2\n      sub\n      swap1\n      revert\n    tag_105:\n        /* \"contract/assignment3.sol\":4350:4351  0 */\n      0x00\n        /* \"contract/assignment3.sol\":4337:4347  totalVotes */\n      sload(0x05)\n        /* \"contract/assignment3.sol\":4337:4351  totalVotes > 0 */\n      gt\n        /* \"contract/assignment3.sol\":4328:4376  require (totalVotes > 0, \"No one has voted yet\") */\n      tag_108\n      jumpi\n      mload(0x40)\n      0x08c379a000000000000000000000000000000000000000000000000000000000\n      dup2\n      mstore\n      0x04\n      add\n      tag_109\n      swap1\n      tag_110\n      jump\t// in\n    tag_109:\n      mload(0x40)\n      dup1\n      swap2\n      sub\n      swap1\n      revert\n    tag_108:\n        /* \"contract/assignment3.sol\":4389:4409  uint [] memory votes */\n      0x00\n        /* \"contract/assignment3.sol\":4424:4435  candidateNo */\n      sload(0x01)\n        /* \"contract/assignment3.sol\":4412:4436  new uint[] (candidateNo) */\n      0xffffffffffffffff\n      dup2\n      gt\n      iszero\n      tag_111\n      jumpi\n      mstore(0x00, 0x4e487b7100000000000000000000000000000000000000000000000000000000)\n      mstore(0x04, 0x41)\n      revert(0x00, 0x24)\n    tag_111:\n      mload(0x40)\n      swap1\n      dup1\n      dup3\n      mstore\n      dup1\n      0x20\n      mul\n      0x20\n      add\n      dup3\n      add\n      0x40\n      mstore\n      dup1\n      iszero\n      tag_112\n      jumpi\n      dup2\n      0x20\n      add\n      0x20\n      dup3\n      mul\n      dup1\n      calldatasize\n      dup4\n      calldatacopy\n      dup1\n      dup3\n      add\n      swap2\n      pop\n      pop\n      swap1\n      pop\n    tag_112:\n      pop\n        /* \"contract/assignment3.sol\":4389:4436  uint [] memory votes = new uint[] (candidateNo) */\n      swap1\n      pop\n        /* \"contract/assignment3.sol\":4455:4461  uint i */\n      0x00\n        /* \"contract/assignment3.sol\":4464:4465  1 */\n      0x01\n        /* \"contract/assignment3.sol\":4455:4465  uint i = 1 */\n      swap1\n      pop\n        /* \"contract/assignment3.sol\":4450:4561  for (uint i = 1; i <= candidateNo; i++){\r... */\n    tag_113:\n        /* \"contract/assignment3.sol\":4472:4483  candidateNo */\n      sload(0x01)\n        /* \"contract/assignment3.sol\":4467:4468  i */\n      dup2\n        /* \"contract/assignment3.sol\":4467:4483  i <= candidateNo */\n      gt\n        /* \"contract/assignment3.sol\":4450:4561  for (uint i = 1; i <= candidateNo; i++){\r... */\n      tag_114\n      jumpi\n        /* \"contract/assignment3.sol\":4518:4533  candidateByVote */\n      0x0a\n        /* \"contract/assignment3.sol\":4518:4536  candidateByVote[i] */\n      0x00\n        /* \"contract/assignment3.sol\":4534:4535  i */\n      dup3\n        /* \"contract/assignment3.sol\":4518:4536  candidateByVote[i] */\n      dup2\n      mstore\n      0x20\n      add\n      swap1\n      dup2\n      mstore\n      0x20\n      add\n      0x00\n      keccak256\n      sload\n        /* \"contract/assignment3.sol\":4504:4509  votes */\n      dup3\n        /* \"contract/assignment3.sol\":4513:4514  1 */\n      0x01\n        /* \"contract/assignment3.sol\":4510:4511  i */\n      dup4\n        /* \"contract/assignment3.sol\":4510:4514  i -1 */\n      tag_116\n      swap2\n      swap1\n      tag_117\n      jump\t// in\n    tag_116:\n        /* \"contract/assignment3.sol\":4504:4515  votes[i -1] */\n      dup2\n      mload\n      dup2\n      lt\n      tag_118\n      jumpi\n      mstore(0x00, 0x4e487b7100000000000000000000000000000000000000000000000000000000)\n      mstore(0x04, 0x32)\n      revert(0x00, 0x24)\n    tag_118:\n      0x20\n      mul\n      0x20\n      add\n      add\n        /* \"contract/assignment3.sol\":4504:4536  votes[i -1] = candidateByVote[i] */\n      dup2\n      dup2\n      mstore\n      pop\n      pop\n        /* \"contract/assignment3.sol\":4485:4488  i++ */\n      dup1\n      dup1\n      tag_119\n      swap1\n      tag_79\n      jump\t// in\n    tag_119:\n      swap2\n      pop\n      pop\n        /* \"contract/assignment3.sol\":4450:4561  for (uint i = 1; i <= candidateNo; i++){\r... */\n      jump(tag_113)\n    tag_114:\n      pop\n        /* \"contract/assignment3.sol\":4582:4595  candidateName */\n      0x03\n        /* \"contract/assignment3.sol\":4597:4602  votes */\n      dup2\n        /* \"contract/assignment3.sol\":4574:4603  return (candidateName, votes) */\n      dup2\n      dup1\n      sload\n      dup1\n      0x20\n      mul\n      0x20\n      add\n      mload(0x40)\n      swap1\n      dup2\n      add\n      0x40\n      mstore\n      dup1\n      swap3\n      swap2\n      swap1\n      dup2\n      dup2\n      mstore\n      0x20\n      add\n      0x00\n      swap1\n    tag_120:\n      dup3\n      dup3\n      lt\n      iszero\n      tag_121\n      jumpi\n      dup4\n      dup3\n      swap1\n      0x00\n      mstore\n      keccak256(0x00, 0x20)\n      add\n      dup1\n      sload\n      tag_123\n      swap1\n      tag_82\n      jump\t// in\n    tag_123:\n      dup1\n      0x1f\n      add\n      0x20\n      dup1\n      swap2\n      div\n      mul\n      0x20\n      add\n      mload(0x40)\n      swap1\n      dup2\n      add\n      0x40\n      mstore\n      dup1\n      swap3\n      swap2\n      swap1\n      dup2\n      dup2\n      mstore\n      0x20\n      add\n      dup3\n      dup1\n      sload\n      tag_124\n      swap1\n      tag_82\n      jump\t// in\n    tag_124:\n      dup1\n      iszero\n      tag_125\n      jumpi\n      dup1\n      0x1f\n      lt\n      tag_126\n      jumpi\n      0x0100\n      dup1\n      dup4\n      sload\n      div\n      mul\n      dup4\n      mstore\n      swap2\n      0x20\n      add\n      swap2\n      jump(tag_125)\n    tag_126:\n      dup3\n      add\n      swap2\n      swap1\n      0x00\n      mstore\n      keccak256(0x00, 0x20)\n      swap1\n    tag_127:\n      dup2\n      sload\n      dup2\n      mstore\n      swap1\n      0x01\n      add\n      swap1\n      0x20\n      add\n      dup1\n      dup4\n      gt\n      tag_127\n      jumpi\n      dup3\n      swap1\n      sub\n      0x1f\n      and\n      dup3\n      add\n      swap2\n    tag_125:\n      pop\n      pop\n      pop\n      pop\n      pop\n      dup2\n      mstore\n      0x20\n      add\n      swap1\n      0x01\n      add\n      swap1\n      jump(tag_120)\n    tag_121:\n      pop\n      pop\n      pop\n      pop\n      swap2\n      pop\n      swap3\n      pop\n      swap3\n      pop\n      pop\n        /* \"contract/assignment3.sol\":4144:4611  function listOfCandidatesVotes () external view ownerOnly returns (string [] memory , uint [] memory){\r... */\n      swap1\n      swap2\n      jump\t// out\n        /* \"contract/assignment3.sol\":203:225  bool public isItPaused */\n    tag_37:\n      0x04\n      0x00\n      swap1\n      sload\n      swap1\n      0x0100\n      exp\n      swap1\n      div\n      0xff\n      and\n      dup2\n      jump\t// out\n        /* \"contract/assignment3.sol\":142:164  uint256 public voterNo */\n    tag_41:\n      sload(0x02)\n      dup2\n      jump\t// out\n        /* \"contract/assignment3.sol\":3396:4136  function revealWinner () external view ownerOnly returns(string memory){\r... */\n    tag_44:\n        /* \"contract/assignment3.sol\":3453:3466  string memory */\n      0x60\n        /* \"contract/assignment3.sol\":829:839  msg.sender */\n      caller\n        /* \"contract/assignment3.sol\":820:839  owner == msg.sender */\n      0xffffffffffffffffffffffffffffffffffffffff\n      and\n        /* \"contract/assignment3.sol\":820:825  owner */\n      0x00\n      dup1\n      sload\n      swap1\n      0x0100\n      exp\n      swap1\n      div\n      0xffffffffffffffffffffffffffffffffffffffff\n      and\n        /* \"contract/assignment3.sol\":820:839  owner == msg.sender */\n      0xffffffffffffffffffffffffffffffffffffffff\n      and\n      eq\n        /* \"contract/assignment3.sol\":812:877  require(owner == msg.sender, \"Only Owner can call this function\") */\n      tag_129\n      jumpi\n      mload(0x40)\n      0x08c379a000000000000000000000000000000000000000000000000000000000\n      dup2\n      mstore\n      0x04\n      add\n      tag_130\n      swap1\n      tag_99\n      jump\t// in\n    tag_130:\n      mload(0x40)\n      dup1\n      swap2\n      sub\n      swap1\n      revert\n    tag_129:\n        /* \"contract/assignment3.sol\":3501:3502  0 */\n      0x00\n        /* \"contract/assignment3.sol\":3488:3498  totalVotes */\n      sload(0x05)\n        /* \"contract/assignment3.sol\":3488:3502  totalVotes > 0 */\n      gt\n        /* \"contract/assignment3.sol\":3480:3527  require(totalVotes > 0, \"No one has voted yet\") */\n      tag_132\n      jumpi\n      mload(0x40)\n      0x08c379a000000000000000000000000000000000000000000000000000000000\n      dup2\n      mstore\n      0x04\n      add\n      tag_133\n      swap1\n      tag_110\n      jump\t// in\n    tag_133:\n      mload(0x40)\n      dup1\n      swap2\n      sub\n      swap1\n      revert\n    tag_132:\n        /* \"contract/assignment3.sol\":3540:3552  uint maxVote */\n      0x00\n        /* \"contract/assignment3.sol\":3563:3584  uint winningCandidate */\n      dup1\n        /* \"contract/assignment3.sol\":3607:3613  uint i */\n      0x00\n        /* \"contract/assignment3.sol\":3616:3617  1 */\n      0x01\n        /* \"contract/assignment3.sol\":3607:3617  uint i = 1 */\n      swap1\n      pop\n        /* \"contract/assignment3.sol\":3603:3796  for(uint i = 1; i <= candidateNo; i++){\r... */\n    tag_134:\n        /* \"contract/assignment3.sol\":3624:3635  candidateNo */\n      sload(0x01)\n        /* \"contract/assignment3.sol\":3619:3620  i */\n      dup2\n        /* \"contract/assignment3.sol\":3619:3635  i <= candidateNo */\n      gt\n        /* \"contract/assignment3.sol\":3603:3796  for(uint i = 1; i <= candidateNo; i++){\r... */\n      tag_135\n      jumpi\n        /* \"contract/assignment3.sol\":3678:3685  maxVote */\n      dup3\n        /* \"contract/assignment3.sol\":3657:3672  candidateByVote */\n      0x0a\n        /* \"contract/assignment3.sol\":3657:3675  candidateByVote[i] */\n      0x00\n        /* \"contract/assignment3.sol\":3673:3674  i */\n      dup4\n        /* \"contract/assignment3.sol\":3657:3675  candidateByVote[i] */\n      dup2\n      mstore\n      0x20\n      add\n      swap1\n      dup2\n      mstore\n      0x20\n      add\n      0x00\n      keccak256\n      sload\n        /* \"contract/assignment3.sol\":3657:3685  candidateByVote[i] > maxVote */\n      gt\n        /* \"contract/assignment3.sol\":3654:3780  if(candidateByVote[i] > maxVote){\r... */\n      iszero\n      tag_137\n      jumpi\n        /* \"contract/assignment3.sol\":3713:3728  candidateByVote */\n      0x0a\n        /* \"contract/assignment3.sol\":3713:3731  candidateByVote[i] */\n      0x00\n        /* \"contract/assignment3.sol\":3729:3730  i */\n      dup3\n        /* \"contract/assignment3.sol\":3713:3731  candidateByVote[i] */\n      dup2\n      mstore\n      0x20\n      add\n      swap1\n      dup2\n      mstore\n      0x20\n      add\n      0x00\n      keccak256\n      sload\n        /* \"contract/assignment3.sol\":3703:3731  maxVote = candidateByVote[i] */\n      swap3\n      pop\n        /* \"contract/assignment3.sol\":3767:3768  i */\n      dup1\n        /* \"contract/assignment3.sol\":3748:3768  winningCandidate = i */\n      swap2\n      pop\n        /* \"contract/assignment3.sol\":3654:3780  if(candidateByVote[i] > maxVote){\r... */\n    tag_137:\n        /* \"contract/assignment3.sol\":3637:3640  i++ */\n      dup1\n      dup1\n      tag_138\n      swap1\n      tag_79\n      jump\t// in\n    tag_138:\n      swap2\n      pop\n      pop\n        /* \"contract/assignment3.sol\":3603:3796  for(uint i = 1; i <= candidateNo; i++){\r... */\n      jump(tag_134)\n    tag_135:\n      pop\n        /* \"contract/assignment3.sol\":3810:3823  uint tieCount */\n      0x00\n        /* \"contract/assignment3.sol\":3841:3847  uint i */\n      dup1\n        /* \"contract/assignment3.sol\":3849:3850  1 */\n      0x01\n        /* \"contract/assignment3.sol\":3841:3850  uint i =1 */\n      swap1\n      pop\n        /* \"contract/assignment3.sol\":3837:3984  for(uint i =1; i <= candidateNo; i++){\r... */\n    tag_139:\n        /* \"contract/assignment3.sol\":3857:3868  candidateNo */\n      sload(0x01)\n        /* \"contract/assignment3.sol\":3852:3853  i */\n      dup2\n        /* \"contract/assignment3.sol\":3852:3868  i <= candidateNo */\n      gt\n        /* \"contract/assignment3.sol\":3837:3984  for(uint i =1; i <= candidateNo; i++){\r... */\n      tag_140\n      jumpi\n        /* \"contract/assignment3.sol\":3917:3924  maxVote */\n      dup4\n        /* \"contract/assignment3.sol\":3895:3910  candidateByVote */\n      0x0a\n        /* \"contract/assignment3.sol\":3895:3913  candidateByVote[i] */\n      0x00\n        /* \"contract/assignment3.sol\":3911:3912  i */\n      dup4\n        /* \"contract/assignment3.sol\":3895:3913  candidateByVote[i] */\n      dup2\n      mstore\n      0x20\n      add\n      swap1\n      dup2\n      mstore\n      0x20\n      add\n      0x00\n      keccak256\n      sload\n        /* \"contract/assignment3.sol\":3895:3924  candidateByVote[i] == maxVote */\n      eq\n        /* \"contract/assignment3.sol\":3891:3972  if (candidateByVote[i] == maxVote){\r... */\n      iszero\n      tag_142\n      jumpi\n        /* \"contract/assignment3.sol\":3946:3956  tieCount++ */\n      dup2\n      dup1\n      tag_143\n      swap1\n      tag_79\n      jump\t// in\n    tag_143:\n      swap3\n      pop\n      pop\n        /* \"contract/assignment3.sol\":3891:3972  if (candidateByVote[i] == maxVote){\r... */\n    tag_142:\n        /* \"contract/assignment3.sol\":3870:3873  i++ */\n      dup1\n      dup1\n      tag_144\n      swap1\n      tag_79\n      jump\t// in\n    tag_144:\n      swap2\n      pop\n      pop\n        /* \"contract/assignment3.sol\":3837:3984  for(uint i =1; i <= candidateNo; i++){\r... */\n      jump(tag_139)\n    tag_140:\n      pop\n        /* \"contract/assignment3.sol\":4012:4013  1 */\n      0x01\n        /* \"contract/assignment3.sol\":4001:4009  tieCount */\n      dup2\n        /* \"contract/assignment3.sol\":4001:4013  tieCount > 1 */\n      gt\n        /* \"contract/assignment3.sol\":3997:4073  if (tieCount > 1){\r... */\n      iszero\n      tag_145\n      jumpi\n        /* \"contract/assignment3.sol\":4031:4060  return \"there has been a tie\" */\n      mload(0x40)\n      dup1\n      0x40\n      add\n      0x40\n      mstore\n      dup1\n      0x14\n      dup2\n      mstore\n      0x20\n      add\n      0x746865726520686173206265656e206120746965000000000000000000000000\n      dup2\n      mstore\n      pop\n      swap4\n      pop\n      pop\n      pop\n      pop\n      jump(tag_131)\n        /* \"contract/assignment3.sol\":3997:4073  if (tieCount > 1){\r... */\n    tag_145:\n        /* \"contract/assignment3.sol\":4096:4109  candidateById */\n      0x07\n        /* \"contract/assignment3.sol\":4096:4127  candidateById[winningCandidate] */\n      0x00\n        /* \"contract/assignment3.sol\":4110:4126  winningCandidate */\n      dup4\n        /* \"contract/assignment3.sol\":4096:4127  candidateById[winningCandidate] */\n      dup2\n      mstore\n      0x20\n      add\n      swap1\n      dup2\n      mstore\n      0x20\n      add\n      0x00\n      keccak256\n        /* \"contract/assignment3.sol\":4089:4127  return candidateById[winningCandidate] */\n      dup1\n      sload\n      tag_146\n      swap1\n      tag_82\n      jump\t// in\n    tag_146:\n      dup1\n      0x1f\n      add\n      0x20\n      dup1\n      swap2\n      div\n      mul\n      0x20\n      add\n      mload(0x40)\n      swap1\n      dup2\n      add\n      0x40\n      mstore\n      dup1\n      swap3\n      swap2\n      swap1\n      dup2\n      dup2\n      mstore\n      0x20\n      add\n      dup3\n      dup1\n      sload\n      tag_147\n      swap1\n      tag_82\n      jump\t// in\n    tag_147:\n      dup1\n      iszero\n      tag_148\n      jumpi\n      dup1\n      0x1f\n      lt\n      tag_149\n      jumpi\n      0x0100\n      dup1\n      dup4\n      sload\n      div\n      mul\n      dup4\n      mstore\n      swap2\n      0x20\n      add\n      swap2\n      jump(tag_148)\n    tag_149:\n      dup3\n      add\n      swap2\n      swap1\n      0x00\n      mstore\n      keccak256(0x00, 0x20)\n      swap1\n    tag_150:\n      dup2\n      sload\n      dup2\n      mstore\n      swap1\n      0x01\n      add\n      swap1\n      0x20\n      add\n      dup1\n      dup4\n      gt\n      tag_150\n      jumpi\n      dup3\n      swap1\n      sub\n      0x1f\n      and\n      dup3\n      add\n      swap2\n    tag_148:\n      pop\n      pop\n      pop\n      pop\n      pop\n      swap4\n      pop\n      pop\n      pop\n      pop\n        /* \"contract/assignment3.sol\":888:889  _ */\n    tag_131:\n        /* \"contract/assignment3.sol\":3396:4136  function revealWinner () external view ownerOnly returns(string memory){\r... */\n      swap1\n      jump\t// out\n        /* \"contract/assignment3.sol\":108:134  uint256 public candidateNo */\n    tag_47:\n      sload(0x01)\n      dup2\n      jump\t// out\n        /* \"contract/assignment3.sol\":1397:1912  function addContestant (string memory _name) external ownerOnly {\r... */\n    tag_52:\n        /* \"contract/assignment3.sol\":829:839  msg.sender */\n      caller\n        /* \"contract/assignment3.sol\":820:839  owner == msg.sender */\n      0xffffffffffffffffffffffffffffffffffffffff\n      and\n        /* \"contract/assignment3.sol\":820:825  owner */\n      0x00\n      dup1\n      sload\n      swap1\n      0x0100\n      exp\n      swap1\n      div\n      0xffffffffffffffffffffffffffffffffffffffff\n      and\n        /* \"contract/assignment3.sol\":820:839  owner == msg.sender */\n      0xffffffffffffffffffffffffffffffffffffffff\n      and\n      eq\n        /* \"contract/assignment3.sol\":812:877  require(owner == msg.sender, \"Only Owner can call this function\") */\n      tag_152\n      jumpi\n      mload(0x40)\n      0x08c379a000000000000000000000000000000000000000000000000000000000\n      dup2\n      mstore\n      0x04\n      add\n      tag_153\n      swap1\n      tag_99\n      jump\t// in\n    tag_153:\n      mload(0x40)\n      dup1\n      swap2\n      sub\n      swap1\n      revert\n    tag_152:\n        /* \"contract/assignment3.sol\":1479:1485  uint i */\n      0x00\n        /* \"contract/assignment3.sol\":1474:1742  for (uint i = 0; i < candidateName.length; i++){\r... */\n    tag_155:\n        /* \"contract/assignment3.sol\":1495:1508  candidateName */\n      0x03\n        /* \"contract/assignment3.sol\":1495:1515  candidateName.length */\n      dup1\n      sload\n      swap1\n      pop\n        /* \"contract/assignment3.sol\":1491:1492  i */\n      dup2\n        /* \"contract/assignment3.sol\":1491:1515  i < candidateName.length */\n      lt\n        /* \"contract/assignment3.sol\":1474:1742  for (uint i = 0; i < candidateName.length; i++){\r... */\n      iszero\n      tag_156\n      jumpi\n        /* \"contract/assignment3.sol\":1590:1603  candidateName */\n      0x03\n        /* \"contract/assignment3.sol\":1604:1605  i */\n      dup2\n        /* \"contract/assignment3.sol\":1590:1606  candidateName[i] */\n      dup2\n      sload\n      dup2\n      lt\n      tag_158\n      jumpi\n      mstore(0x00, 0x4e487b7100000000000000000000000000000000000000000000000000000000)\n      mstore(0x04, 0x32)\n      revert(0x00, 0x24)\n    tag_158:\n      swap1\n      0x00\n      mstore\n      keccak256(0x00, 0x20)\n      add\n        /* \"contract/assignment3.sol\":1574:1608  keccak256(bytes(candidateName[i])) */\n      mload(0x40)\n      tag_160\n      swap2\n      swap1\n      tag_161\n      jump\t// in\n    tag_160:\n      mload(0x40)\n      dup1\n      swap2\n      sub\n      swap1\n      keccak256\n        /* \"contract/assignment3.sol\":1563:1568  _name */\n      dup3\n        /* \"contract/assignment3.sol\":1547:1570  keccak256(bytes(_name)) */\n      dup1\n      mload\n      swap1\n      0x20\n      add\n      keccak256\n        /* \"contract/assignment3.sol\":1547:1608  keccak256(bytes(_name)) != keccak256(bytes(candidateName[i])) */\n      eq\n      iszero\n        /* \"contract/assignment3.sol\":1538:1640  require (keccak256(bytes(_name)) != keccak256(bytes(candidateName[i])), \"name has already been added\") */\n      tag_162\n      jumpi\n      mload(0x40)\n      0x08c379a000000000000000000000000000000000000000000000000000000000\n      dup2\n      mstore\n      0x04\n      add\n      tag_163\n      swap1\n      tag_164\n      jump\t// in\n    tag_163:\n      mload(0x40)\n      dup1\n      swap2\n      sub\n      swap1\n      revert\n    tag_162:\n        /* \"contract/assignment3.sol\":1517:1520  i++ */\n      dup1\n      dup1\n      tag_165\n      swap1\n      tag_79\n      jump\t// in\n    tag_165:\n      swap2\n      pop\n      pop\n        /* \"contract/assignment3.sol\":1474:1742  for (uint i = 0; i < candidateName.length; i++){\r... */\n      jump(tag_155)\n    tag_156:\n      pop\n        /* \"contract/assignment3.sol\":1754:1765  candidateNo */\n      0x01\n      0x00\n        /* \"contract/assignment3.sol\":1754:1767  candidateNo++ */\n      dup2\n      sload\n      dup1\n      swap3\n      swap2\n      swap1\n      tag_166\n      swap1\n      tag_79\n      jump\t// in\n    tag_166:\n      swap2\n      swap1\n      pop\n      sstore\n      pop\n        /* \"contract/assignment3.sol\":1780:1793  candidateName */\n      0x03\n        /* \"contract/assignment3.sol\":1799:1804  _name */\n      dup2\n        /* \"contract/assignment3.sol\":1780:1805  candidateName.push(_name) */\n      swap1\n      dup1\n      0x01\n      dup2\n      sload\n      add\n      dup1\n      dup3\n      sstore\n      dup1\n      swap2\n      pop\n      pop\n      0x01\n      swap1\n      sub\n      swap1\n      0x00\n      mstore\n      keccak256(0x00, 0x20)\n      add\n      0x00\n      swap1\n      swap2\n      swap1\n      swap2\n      swap1\n      swap2\n      pop\n      swap1\n      dup1\n      mload\n      swap1\n      0x20\n      add\n      swap1\n      tag_168\n      swap3\n      swap2\n      swap1\n      tag_169\n      jump\t// in\n    tag_168:\n      pop\n        /* \"contract/assignment3.sol\":1847:1852  _name */\n      dup1\n        /* \"contract/assignment3.sol\":1818:1831  candidateById */\n      0x07\n        /* \"contract/assignment3.sol\":1818:1844  candidateById[candidateNo] */\n      0x00\n        /* \"contract/assignment3.sol\":1832:1843  candidateNo */\n      sload(0x01)\n        /* \"contract/assignment3.sol\":1818:1844  candidateById[candidateNo] */\n      dup2\n      mstore\n      0x20\n      add\n      swap1\n      dup2\n      mstore\n      0x20\n      add\n      0x00\n      keccak256\n        /* \"contract/assignment3.sol\":1818:1852  candidateById[candidateNo] = _name */\n      swap1\n      dup1\n      mload\n      swap1\n      0x20\n      add\n      swap1\n      tag_170\n      swap3\n      swap2\n      swap1\n      tag_169\n      jump\t// in\n    tag_170:\n      pop\n        /* \"contract/assignment3.sol\":1886:1897  candidateNo */\n      sload(0x01)\n        /* \"contract/assignment3.sol\":1870:1904  ContestantAdded(candidateNo,_name) */\n      0x56f6c29d2eb99f40e2a206309dc37f2cff01a5755a4683e3c2b0ce22e5e3aa17\n        /* \"contract/assignment3.sol\":1898:1903  _name */\n      dup3\n        /* \"contract/assignment3.sol\":1870:1904  ContestantAdded(candidateNo,_name) */\n      mload(0x40)\n      tag_171\n      swap2\n      swap1\n      tag_29\n      jump\t// in\n    tag_171:\n      mload(0x40)\n      dup1\n      swap2\n      sub\n      swap1\n      log2\n        /* \"contract/assignment3.sol\":1397:1912  function addContestant (string memory _name) external ownerOnly {\r... */\n      pop\n      jump\t// out\n        /* \"contract/assignment3.sol\":4824:4934  function pause () external ownerOnly{\r... */\n    tag_54:\n        /* \"contract/assignment3.sol\":829:839  msg.sender */\n      caller\n        /* \"contract/assignment3.sol\":820:839  owner == msg.sender */\n      0xffffffffffffffffffffffffffffffffffffffff\n      and\n        /* \"contract/assignment3.sol\":820:825  owner */\n      0x00\n      dup1\n      sload\n      swap1\n      0x0100\n      exp\n      swap1\n      div\n      0xffffffffffffffffffffffffffffffffffffffff\n      and\n        /* \"contract/assignment3.sol\":820:839  owner == msg.sender */\n      0xffffffffffffffffffffffffffffffffffffffff\n      and\n      eq\n        /* \"contract/assignment3.sol\":812:877  require(owner == msg.sender, \"Only Owner can call this function\") */\n      tag_173\n      jumpi\n      mload(0x40)\n      0x08c379a000000000000000000000000000000000000000000000000000000000\n      dup2\n      mstore\n      0x04\n      add\n      tag_174\n      swap1\n      tag_99\n      jump\t// in\n    tag_174:\n      mload(0x40)\n      dup1\n      swap2\n      sub\n      swap1\n      revert\n    tag_173:\n        /* \"contract/assignment3.sol\":4886:4890  true */\n      0x01\n        /* \"contract/assignment3.sol\":4873:4883  isItPaused */\n      0x04\n      0x00\n        /* \"contract/assignment3.sol\":4873:4890  isItPaused = true */\n      0x0100\n      exp\n      dup2\n      sload\n      dup2\n      0xff\n      mul\n      not\n      and\n      swap1\n      dup4\n      iszero\n      iszero\n      mul\n      or\n      swap1\n      sstore\n      pop\n        /* \"contract/assignment3.sol\":4915:4925  msg.sender */\n      caller\n        /* \"contract/assignment3.sol\":4908:4926  Paused(msg.sender) */\n      0xffffffffffffffffffffffffffffffffffffffff\n      and\n      0x62e78cea01bee320cd4e420270b5ea74000d11b0c9f74754ebdbfc544b05a258\n      mload(0x40)\n      mload(0x40)\n      dup1\n      swap2\n      sub\n      swap1\n      log2\n        /* \"contract/assignment3.sol\":4824:4934  function pause () external ownerOnly{\r... */\n      jump\t// out\n        /* \"contract/assignment3.sol\":2342:2810  function viewCandidates () external view whenNotPaused returns(uint [] memory, string [] memory){\r... */\n    tag_56:\n        /* \"contract/assignment3.sol\":2405:2419  uint [] memory */\n      0x60\n        /* \"contract/assignment3.sol\":2421:2437  string [] memory */\n      dup1\n        /* \"contract/assignment3.sol\":954:964  isItPaused */\n      0x04\n      0x00\n      swap1\n      sload\n      swap1\n      0x0100\n      exp\n      swap1\n      div\n      0xff\n      and\n        /* \"contract/assignment3.sol\":953:964  !isItPaused */\n      iszero\n        /* \"contract/assignment3.sol\":944:991  require (!isItPaused, \"the contract is paused\") */\n      tag_177\n      jumpi\n      mload(0x40)\n      0x08c379a000000000000000000000000000000000000000000000000000000000\n      dup2\n      mstore\n      0x04\n      add\n      tag_178\n      swap1\n      tag_66\n      jump\t// in\n    tag_178:\n      mload(0x40)\n      dup1\n      swap2\n      sub\n      swap1\n      revert\n    tag_177:\n        /* \"contract/assignment3.sol\":2473:2474  0 */\n      0x00\n        /* \"contract/assignment3.sol\":2459:2470  candidateNo */\n      sload(0x01)\n        /* \"contract/assignment3.sol\":2459:2474  candidateNo > 0 */\n      gt\n        /* \"contract/assignment3.sol\":2451:2500  require(candidateNo > 0, \"No candidates to view\") */\n      tag_180\n      jumpi\n      mload(0x40)\n      0x08c379a000000000000000000000000000000000000000000000000000000000\n      dup2\n      mstore\n      0x04\n      add\n      tag_181\n      swap1\n      tag_182\n      jump\t// in\n    tag_181:\n      mload(0x40)\n      dup1\n      swap2\n      sub\n      swap1\n      revert\n    tag_180:\n        /* \"contract/assignment3.sol\":2513:2530  uint[] memory ids */\n      0x00\n        /* \"contract/assignment3.sol\":2544:2555  candidateNo */\n      sload(0x01)\n        /* \"contract/assignment3.sol\":2533:2556  new uint[](candidateNo) */\n      0xffffffffffffffff\n      dup2\n      gt\n      iszero\n      tag_183\n      jumpi\n      mstore(0x00, 0x4e487b7100000000000000000000000000000000000000000000000000000000)\n      mstore(0x04, 0x41)\n      revert(0x00, 0x24)\n    tag_183:\n      mload(0x40)\n      swap1\n      dup1\n      dup3\n      mstore\n      dup1\n      0x20\n      mul\n      0x20\n      add\n      dup3\n      add\n      0x40\n      mstore\n      dup1\n      iszero\n      tag_184\n      jumpi\n      dup2\n      0x20\n      add\n      0x20\n      dup3\n      mul\n      dup1\n      calldatasize\n      dup4\n      calldatacopy\n      dup1\n      dup3\n      add\n      swap2\n      pop\n      pop\n      swap1\n      pop\n    tag_184:\n      pop\n        /* \"contract/assignment3.sol\":2513:2556  uint[] memory ids = new uint[](candidateNo) */\n      swap1\n      pop\n        /* \"contract/assignment3.sol\":2567:2588  string[] memory names */\n      0x00\n        /* \"contract/assignment3.sol\":2604:2615  candidateNo */\n      sload(0x01)\n        /* \"contract/assignment3.sol\":2591:2616  new string[](candidateNo) */\n      0xffffffffffffffff\n      dup2\n      gt\n      iszero\n      tag_185\n      jumpi\n      mstore(0x00, 0x4e487b7100000000000000000000000000000000000000000000000000000000)\n      mstore(0x04, 0x41)\n      revert(0x00, 0x24)\n    tag_185:\n      mload(0x40)\n      swap1\n      dup1\n      dup3\n      mstore\n      dup1\n      0x20\n      mul\n      0x20\n      add\n      dup3\n      add\n      0x40\n      mstore\n      dup1\n      iszero\n      tag_186\n      jumpi\n      dup2\n      0x20\n      add\n    tag_187:\n      0x60\n      dup2\n      mstore\n      0x20\n      add\n      swap1\n      0x01\n      swap1\n      sub\n      swap1\n      dup2\n      tag_187\n      jumpi\n      swap1\n      pop\n    tag_186:\n      pop\n        /* \"contract/assignment3.sol\":2567:2616  string[] memory names = new string[](candidateNo) */\n      swap1\n      pop\n        /* \"contract/assignment3.sol\":2638:2644  uint i */\n      0x00\n        /* \"contract/assignment3.sol\":2634:2764  for(uint i = 0; i < candidateNo; i++) {\r... */\n    tag_188:\n        /* \"contract/assignment3.sol\":2654:2665  candidateNo */\n      sload(0x01)\n        /* \"contract/assignment3.sol\":2650:2651  i */\n      dup2\n        /* \"contract/assignment3.sol\":2650:2665  i < candidateNo */\n      lt\n        /* \"contract/assignment3.sol\":2634:2764  for(uint i = 0; i < candidateNo; i++) {\r... */\n      iszero\n      tag_189\n      jumpi\n        /* \"contract/assignment3.sol\":2702:2703  1 */\n      0x01\n        /* \"contract/assignment3.sol\":2698:2699  i */\n      dup2\n        /* \"contract/assignment3.sol\":2698:2703  i + 1 */\n      tag_191\n      swap2\n      swap1\n      tag_192\n      jump\t// in\n    tag_191:\n        /* \"contract/assignment3.sol\":2689:2692  ids */\n      dup4\n        /* \"contract/assignment3.sol\":2693:2694  i */\n      dup3\n        /* \"contract/assignment3.sol\":2689:2695  ids[i] */\n      dup2\n      mload\n      dup2\n      lt\n      tag_193\n      jumpi\n      mstore(0x00, 0x4e487b7100000000000000000000000000000000000000000000000000000000)\n      mstore(0x04, 0x32)\n      revert(0x00, 0x24)\n    tag_193:\n      0x20\n      mul\n      0x20\n      add\n      add\n        /* \"contract/assignment3.sol\":2689:2703  ids[i] = i + 1 */\n      dup2\n      dup2\n      mstore\n      pop\n      pop\n        /* \"contract/assignment3.sol\":2736:2749  candidateName */\n      0x03\n        /* \"contract/assignment3.sol\":2750:2751  i */\n      dup2\n        /* \"contract/assignment3.sol\":2736:2752  candidateName[i] */\n      dup2\n      sload\n      dup2\n      lt\n      tag_194\n      jumpi\n      mstore(0x00, 0x4e487b7100000000000000000000000000000000000000000000000000000000)\n      mstore(0x04, 0x32)\n      revert(0x00, 0x24)\n    tag_194:\n      swap1\n      0x00\n      mstore\n      keccak256(0x00, 0x20)\n      add\n        /* \"contract/assignment3.sol\":2725:2752  names[i] = candidateName[i] */\n      dup1\n      sload\n      tag_196\n      swap1\n      tag_82\n      jump\t// in\n    tag_196:\n      dup1\n      0x1f\n      add\n      0x20\n      dup1\n      swap2\n      div\n      mul\n      0x20\n      add\n      mload(0x40)\n      swap1\n      dup2\n      add\n      0x40\n      mstore\n      dup1\n      swap3\n      swap2\n      swap1\n      dup2\n      dup2\n      mstore\n      0x20\n      add\n      dup3\n      dup1\n      sload\n      tag_197\n      swap1\n      tag_82\n      jump\t// in\n    tag_197:\n      dup1\n      iszero\n      tag_198\n      jumpi\n      dup1\n      0x1f\n      lt\n      tag_199\n      jumpi\n      0x0100\n      dup1\n      dup4\n      sload\n      div\n      mul\n      dup4\n      mstore\n      swap2\n      0x20\n      add\n      swap2\n      jump(tag_198)\n    tag_199:\n      dup3\n      add\n      swap2\n      swap1\n      0x00\n      mstore\n      keccak256(0x00, 0x20)\n      swap1\n    tag_200:\n      dup2\n      sload\n      dup2\n      mstore\n      swap1\n      0x01\n      add\n      swap1\n      0x20\n      add\n      dup1\n      dup4\n      gt\n      tag_200\n      jumpi\n      dup3\n      swap1\n      sub\n      0x1f\n      and\n      dup3\n      add\n      swap2\n    tag_198:\n      pop\n      pop\n      pop\n      pop\n      pop\n        /* \"contract/assignment3.sol\":2725:2730  names */\n      dup3\n        /* \"contract/assignment3.sol\":2731:2732  i */\n      dup3\n        /* \"contract/assignment3.sol\":2725:2733  names[i] */\n      dup2\n      mload\n      dup2\n      lt\n      tag_201\n      jumpi\n      mstore(0x00, 0x4e487b7100000000000000000000000000000000000000000000000000000000)\n      mstore(0x04, 0x32)\n      revert(0x00, 0x24)\n    tag_201:\n      0x20\n      mul\n      0x20\n      add\n      add\n        /* \"contract/assignment3.sol\":2725:2752  names[i] = candidateName[i] */\n      dup2\n      swap1\n      mstore\n      pop\n        /* \"contract/assignment3.sol\":2667:2670  i++ */\n      dup1\n      dup1\n      tag_202\n      swap1\n      tag_79\n      jump\t// in\n    tag_202:\n      swap2\n      pop\n      pop\n        /* \"contract/assignment3.sol\":2634:2764  for(uint i = 0; i < candidateNo; i++) {\r... */\n      jump(tag_188)\n    tag_189:\n      pop\n        /* \"contract/assignment3.sol\":2791:2794  ids */\n      dup2\n        /* \"contract/assignment3.sol\":2796:2801  names */\n      dup2\n        /* \"contract/assignment3.sol\":2783:2802  return (ids, names) */\n      swap4\n      pop\n      swap4\n      pop\n      pop\n      pop\n        /* \"contract/assignment3.sol\":2342:2810  function viewCandidates () external view whenNotPaused returns(uint [] memory, string [] memory){\r... */\n      swap1\n      swap2\n      jump\t// out\n        /* \"contract/assignment3.sol\":1920:2333  function register (string memory _voterName , uint _age ) external{\r... */\n    tag_62:\n        /* \"contract/assignment3.sol\":2007:2021  haveRegistered */\n      0x09\n        /* \"contract/assignment3.sol\":2007:2033  haveRegistered[msg.sender] */\n      0x00\n        /* \"contract/assignment3.sol\":2022:2032  msg.sender */\n      caller\n        /* \"contract/assignment3.sol\":2007:2033  haveRegistered[msg.sender] */\n      0xffffffffffffffffffffffffffffffffffffffff\n      and\n      0xffffffffffffffffffffffffffffffffffffffff\n      and\n      dup2\n      mstore\n      0x20\n      add\n      swap1\n      dup2\n      mstore\n      0x20\n      add\n      0x00\n      keccak256\n      0x00\n      swap1\n      sload\n      swap1\n      0x0100\n      exp\n      swap1\n      div\n      0xff\n      and\n        /* \"contract/assignment3.sol\":2006:2033  !haveRegistered[msg.sender] */\n      iszero\n        /* \"contract/assignment3.sol\":1998:2057  require(!haveRegistered[msg.sender], \"user has registered\") */\n      tag_204\n      jumpi\n      mload(0x40)\n      0x08c379a000000000000000000000000000000000000000000000000000000000\n      dup2\n      mstore\n      0x04\n      add\n      tag_205\n      swap1\n      tag_206\n      jump\t// in\n    tag_205:\n      mload(0x40)\n      dup1\n      swap2\n      sub\n      swap1\n      revert\n    tag_204:\n        /* \"contract/assignment3.sol\":2086:2088  18 */\n      0x12\n        /* \"contract/assignment3.sol\":2078:2082  _age */\n      dup2\n        /* \"contract/assignment3.sol\":2078:2088  _age >= 18 */\n      lt\n      iszero\n        /* \"contract/assignment3.sol\":2069:2138  require (_age >= 18, \"user age below 18 can't register for the vote\") */\n      tag_207\n      jumpi\n      mload(0x40)\n      0x08c379a000000000000000000000000000000000000000000000000000000000\n      dup2\n      mstore\n      0x04\n      add\n      tag_208\n      swap1\n      tag_209\n      jump\t// in\n    tag_208:\n      mload(0x40)\n      dup1\n      swap2\n      sub\n      swap1\n      revert\n    tag_207:\n        /* \"contract/assignment3.sol\":2151:2158  voterNo */\n      0x02\n      0x00\n        /* \"contract/assignment3.sol\":2151:2160  voterNo++ */\n      dup2\n      sload\n      dup1\n      swap3\n      swap2\n      swap1\n      tag_210\n      swap1\n      tag_79\n      jump\t// in\n    tag_210:\n      swap2\n      swap1\n      pop\n      sstore\n      pop\n        /* \"contract/assignment3.sol\":2173:2179  voters */\n      0x06\n        /* \"contract/assignment3.sol\":2185:2215  voter(voterNo,_voterName,_age) */\n      mload(0x40)\n      dup1\n      0x60\n      add\n      0x40\n      mstore\n      dup1\n        /* \"contract/assignment3.sol\":2191:2198  voterNo */\n      sload(0x02)\n        /* \"contract/assignment3.sol\":2185:2215  voter(voterNo,_voterName,_age) */\n      dup2\n      mstore\n      0x20\n      add\n        /* \"contract/assignment3.sol\":2199:2209  _voterName */\n      dup5\n        /* \"contract/assignment3.sol\":2185:2215  voter(voterNo,_voterName,_age) */\n      dup2\n      mstore\n      0x20\n      add\n        /* \"contract/assignment3.sol\":2210:2214  _age */\n      dup4\n        /* \"contract/assignment3.sol\":2185:2215  voter(voterNo,_voterName,_age) */\n      dup2\n      mstore\n      pop\n        /* \"contract/assignment3.sol\":2173:2216  voters.push(voter(voterNo,_voterName,_age)) */\n      swap1\n      dup1\n      0x01\n      dup2\n      sload\n      add\n      dup1\n      dup3\n      sstore\n      dup1\n      swap2\n      pop\n      pop\n      0x01\n      swap1\n      sub\n      swap1\n      0x00\n      mstore\n      keccak256(0x00, 0x20)\n      swap1\n      0x03\n      mul\n      add\n      0x00\n      swap1\n      swap2\n      swap1\n      swap2\n      swap1\n      swap2\n      pop\n      0x00\n      dup3\n      add\n      mload\n      dup2\n      0x00\n      add\n      sstore\n      0x20\n      dup3\n      add\n      mload\n      dup2\n      0x01\n      add\n      swap1\n      dup1\n      mload\n      swap1\n      0x20\n      add\n      swap1\n      tag_212\n      swap3\n      swap2\n      swap1\n      tag_169\n      jump\t// in\n    tag_212:\n      pop\n      0x40\n      dup3\n      add\n      mload\n      dup2\n      0x02\n      add\n      sstore\n      pop\n      pop\n        /* \"contract/assignment3.sol\":2258:2262  true */\n      0x01\n        /* \"contract/assignment3.sol\":2229:2243  haveRegistered */\n      0x09\n        /* \"contract/assignment3.sol\":2229:2255  haveRegistered[msg.sender] */\n      0x00\n        /* \"contract/assignment3.sol\":2244:2254  msg.sender */\n      caller\n        /* \"contract/assignment3.sol\":2229:2255  haveRegistered[msg.sender] */\n      0xffffffffffffffffffffffffffffffffffffffff\n      and\n      0xffffffffffffffffffffffffffffffffffffffff\n      and\n      dup2\n      mstore\n      0x20\n      add\n      swap1\n      dup2\n      mstore\n      0x20\n      add\n      0x00\n      keccak256\n      0x00\n        /* \"contract/assignment3.sol\":2229:2262  haveRegistered[msg.sender] = true */\n      0x0100\n      exp\n      dup2\n      sload\n      dup2\n      0xff\n      mul\n      not\n      and\n      swap1\n      dup4\n      iszero\n      iszero\n      mul\n      or\n      swap1\n      sstore\n      pop\n        /* \"contract/assignment3.sol\":2314:2324  msg.sender */\n      caller\n        /* \"contract/assignment3.sol\":2281:2325  Registered(voterNo , _voterName, msg.sender) */\n      0xffffffffffffffffffffffffffffffffffffffff\n      and\n        /* \"contract/assignment3.sol\":2292:2299  voterNo */\n      sload(0x02)\n        /* \"contract/assignment3.sol\":2281:2325  Registered(voterNo , _voterName, msg.sender) */\n      0xca52e62c367d81bb2e328eb795f7c7ba24afb478408a26c0e201d155c449bc4a\n        /* \"contract/assignment3.sol\":2302:2312  _voterName */\n      dup5\n        /* \"contract/assignment3.sol\":2281:2325  Registered(voterNo , _voterName, msg.sender) */\n      mload(0x40)\n      tag_213\n      swap2\n      swap1\n      tag_29\n      jump\t// in\n    tag_213:\n      mload(0x40)\n      dup1\n      swap2\n      sub\n      swap1\n      log3\n        /* \"contract/assignment3.sol\":1920:2333  function register (string memory _voterName , uint _age ) external{\r... */\n      pop\n      pop\n      jump\t// out\n    tag_84:\n      dup3\n      dup1\n      sload\n      tag_214\n      swap1\n      tag_82\n      jump\t// in\n    tag_214:\n      swap1\n      0x00\n      mstore\n      keccak256(0x00, 0x20)\n      swap1\n      0x1f\n      add\n      0x20\n      swap1\n      div\n      dup2\n      add\n      swap3\n      dup3\n      tag_216\n      jumpi\n      0x00\n      dup6\n      sstore\n      jump(tag_215)\n    tag_216:\n      dup3\n      0x1f\n      lt\n      tag_217\n      jumpi\n      dup1\n      sload\n      dup6\n      sstore\n      jump(tag_215)\n    tag_217:\n      dup3\n      dup1\n      add\n      0x01\n      add\n      dup6\n      sstore\n      dup3\n      iszero\n      tag_215\n      jumpi\n      0x00\n      mstore\n      keccak256(0x00, 0x20)\n      swap2\n      0x1f\n      add\n      0x20\n      swap1\n      div\n      dup3\n      add\n    tag_218:\n      dup3\n      dup2\n      gt\n      iszero\n      tag_219\n      jumpi\n      dup3\n      sload\n      dup3\n      sstore\n      swap2\n      0x01\n      add\n      swap2\n      swap1\n      0x01\n      add\n      swap1\n      jump(tag_218)\n    tag_219:\n    tag_215:\n      pop\n      swap1\n      pop\n      tag_220\n      swap2\n      swap1\n      tag_221\n      jump\t// in\n    tag_220:\n      pop\n      swap1\n      jump\t// out\n    tag_169:\n      dup3\n      dup1\n      sload\n      tag_222\n      swap1\n      tag_82\n      jump\t// in\n    tag_222:\n      swap1\n      0x00\n      mstore\n      keccak256(0x00, 0x20)\n      swap1\n      0x1f\n      add\n      0x20\n      swap1\n      div\n      dup2\n      add\n      swap3\n      dup3\n      tag_224\n      jumpi\n      0x00\n      dup6\n      sstore\n      jump(tag_223)\n    tag_224:\n      dup3\n      0x1f\n      lt\n      tag_225\n      jumpi\n      dup1\n      mload\n      not(0xff)\n      and\n      dup4\n      dup1\n      add\n      or\n      dup6\n      sstore\n      jump(tag_223)\n    tag_225:\n      dup3\n      dup1\n      add\n      0x01\n      add\n      dup6\n      sstore\n      dup3\n      iszero\n      tag_223\n      jumpi\n      swap2\n      dup3\n      add\n    tag_226:\n      dup3\n      dup2\n      gt\n      iszero\n      tag_227\n      jumpi\n      dup3\n      mload\n      dup3\n      sstore\n      swap2\n      0x20\n      add\n      swap2\n      swap1\n      0x01\n      add\n      swap1\n      jump(tag_226)\n    tag_227:\n    tag_223:\n      pop\n      swap1\n      pop\n      tag_228\n      swap2\n      swap1\n      tag_221\n      jump\t// in\n    tag_228:\n      pop\n      swap1\n      jump\t// out\n    tag_221:\n    tag_229:\n      dup1\n      dup3\n      gt\n      iszero\n      tag_230\n      jumpi\n      0x00\n      dup2\n      0x00\n      swap1\n      sstore\n      pop\n      0x01\n      add\n      jump(tag_229)\n    tag_230:\n      pop\n      swap1\n      jump\t// out\n        /* \"#utility.yul\":7:352   */\n    tag_232:\n      0x00\n        /* \"#utility.yul\":110:176   */\n      tag_234\n        /* \"#utility.yul\":126:175   */\n      tag_235\n        /* \"#utility.yul\":168:174   */\n      dup5\n        /* \"#utility.yul\":126:175   */\n      tag_236\n      jump\t// in\n    tag_235:\n        /* \"#utility.yul\":110:176   */\n      tag_237\n      jump\t// in\n    tag_234:\n        /* \"#utility.yul\":101:176   */\n      swap1\n      pop\n        /* \"#utility.yul\":199:205   */\n      dup3\n        /* \"#utility.yul\":192:197   */\n      dup2\n        /* \"#utility.yul\":185:206   */\n      mstore\n        /* \"#utility.yul\":237:241   */\n      0x20\n        /* \"#utility.yul\":230:235   */\n      dup2\n        /* \"#utility.yul\":226:242   */\n      add\n        /* \"#utility.yul\":275:278   */\n      dup5\n        /* \"#utility.yul\":266:272   */\n      dup5\n        /* \"#utility.yul\":261:264   */\n      dup5\n        /* \"#utility.yul\":257:273   */\n      add\n        /* \"#utility.yul\":254:279   */\n      gt\n        /* \"#utility.yul\":251:253   */\n      iszero\n      tag_238\n      jumpi\n        /* \"#utility.yul\":292:293   */\n      0x00\n        /* \"#utility.yul\":289:290   */\n      dup1\n        /* \"#utility.yul\":282:294   */\n      revert\n        /* \"#utility.yul\":251:253   */\n    tag_238:\n        /* \"#utility.yul\":305:346   */\n      tag_239\n        /* \"#utility.yul\":339:345   */\n      dup5\n        /* \"#utility.yul\":334:337   */\n      dup3\n        /* \"#utility.yul\":329:332   */\n      dup6\n        /* \"#utility.yul\":305:346   */\n      tag_240\n      jump\t// in\n    tag_239:\n        /* \"#utility.yul\":91:352   */\n      pop\n      swap4\n      swap3\n      pop\n      pop\n      pop\n      jump\t// out\n        /* \"#utility.yul\":372:645   */\n    tag_241:\n      0x00\n        /* \"#utility.yul\":477:480   */\n      dup3\n        /* \"#utility.yul\":470:474   */\n      0x1f\n        /* \"#utility.yul\":462:468   */\n      dup4\n        /* \"#utility.yul\":458:475   */\n      add\n        /* \"#utility.yul\":454:481   */\n      slt\n        /* \"#utility.yul\":444:446   */\n      tag_243\n      jumpi\n        /* \"#utility.yul\":495:496   */\n      0x00\n        /* \"#utility.yul\":492:493   */\n      dup1\n        /* \"#utility.yul\":485:497   */\n      revert\n        /* \"#utility.yul\":444:446   */\n    tag_243:\n        /* \"#utility.yul\":535:541   */\n      dup2\n        /* \"#utility.yul\":522:542   */\n      calldataload\n        /* \"#utility.yul\":560:639   */\n      tag_244\n        /* \"#utility.yul\":635:638   */\n      dup5\n        /* \"#utility.yul\":627:633   */\n      dup3\n        /* \"#utility.yul\":620:624   */\n      0x20\n        /* \"#utility.yul\":612:618   */\n      dup7\n        /* \"#utility.yul\":608:625   */\n      add\n        /* \"#utility.yul\":560:639   */\n      tag_232\n      jump\t// in\n    tag_244:\n        /* \"#utility.yul\":551:639   */\n      swap2\n      pop\n        /* \"#utility.yul\":434:645   */\n      pop\n      swap3\n      swap2\n      pop\n      pop\n      jump\t// out\n        /* \"#utility.yul\":651:790   */\n    tag_245:\n      0x00\n        /* \"#utility.yul\":735:741   */\n      dup2\n        /* \"#utility.yul\":722:742   */\n      calldataload\n        /* \"#utility.yul\":713:742   */\n      swap1\n      pop\n        /* \"#utility.yul\":751:784   */\n      tag_247\n        /* \"#utility.yul\":778:783   */\n      dup2\n        /* \"#utility.yul\":751:784   */\n      tag_248\n      jump\t// in\n    tag_247:\n        /* \"#utility.yul\":703:790   */\n      swap3\n      swap2\n      pop\n      pop\n      jump\t// out\n        /* \"#utility.yul\":796:1171   */\n    tag_51:\n      0x00\n        /* \"#utility.yul\":914:916   */\n      0x20\n        /* \"#utility.yul\":902:911   */\n      dup3\n        /* \"#utility.yul\":893:900   */\n      dup5\n        /* \"#utility.yul\":889:912   */\n      sub\n        /* \"#utility.yul\":885:917   */\n      slt\n        /* \"#utility.yul\":882:884   */\n      iszero\n      tag_250\n      jumpi\n        /* \"#utility.yul\":930:931   */\n      0x00\n        /* \"#utility.yul\":927:928   */\n      dup1\n        /* \"#utility.yul\":920:932   */\n      revert\n        /* \"#utility.yul\":882:884   */\n    tag_250:\n        /* \"#utility.yul\":1001:1002   */\n      0x00\n        /* \"#utility.yul\":990:999   */\n      dup3\n        /* \"#utility.yul\":986:1003   */\n      add\n        /* \"#utility.yul\":973:1004   */\n      calldataload\n        /* \"#utility.yul\":1031:1049   */\n      0xffffffffffffffff\n        /* \"#utility.yul\":1023:1029   */\n      dup2\n        /* \"#utility.yul\":1020:1050   */\n      gt\n        /* \"#utility.yul\":1017:1019   */\n      iszero\n      tag_251\n      jumpi\n        /* \"#utility.yul\":1063:1064   */\n      0x00\n        /* \"#utility.yul\":1060:1061   */\n      dup1\n        /* \"#utility.yul\":1053:1065   */\n      revert\n        /* \"#utility.yul\":1017:1019   */\n    tag_251:\n        /* \"#utility.yul\":1091:1154   */\n      tag_252\n        /* \"#utility.yul\":1146:1153   */\n      dup5\n        /* \"#utility.yul\":1137:1143   */\n      dup3\n        /* \"#utility.yul\":1126:1135   */\n      dup6\n        /* \"#utility.yul\":1122:1144   */\n      add\n        /* \"#utility.yul\":1091:1154   */\n      tag_241\n      jump\t// in\n    tag_252:\n        /* \"#utility.yul\":1081:1154   */\n      swap2\n      pop\n        /* \"#utility.yul\":944:1164   */\n      pop\n        /* \"#utility.yul\":872:1171   */\n      swap3\n      swap2\n      pop\n      pop\n      jump\t// out\n        /* \"#utility.yul\":1177:1697   */\n    tag_61:\n      0x00\n      dup1\n        /* \"#utility.yul\":1312:1314   */\n      0x40\n        /* \"#utility.yul\":1300:1309   */\n      dup4\n        /* \"#utility.yul\":1291:1298   */\n      dup6\n        /* \"#utility.yul\":1287:1310   */\n      sub\n        /* \"#utility.yul\":1283:1315   */\n      slt\n        /* \"#utility.yul\":1280:1282   */\n      iszero\n      tag_254\n      jumpi\n        /* \"#utility.yul\":1328:1329   */\n      0x00\n        /* \"#utility.yul\":1325:1326   */\n      dup1\n        /* \"#utility.yul\":1318:1330   */\n      revert\n        /* \"#utility.yul\":1280:1282   */\n    tag_254:\n        /* \"#utility.yul\":1399:1400   */\n      0x00\n        /* \"#utility.yul\":1388:1397   */\n      dup4\n        /* \"#utility.yul\":1384:1401   */\n      add\n        /* \"#utility.yul\":1371:1402   */\n      calldataload\n        /* \"#utility.yul\":1429:1447   */\n      0xffffffffffffffff\n        /* \"#utility.yul\":1421:1427   */\n      dup2\n        /* \"#utility.yul\":1418:1448   */\n      gt\n        /* \"#utility.yul\":1415:1417   */\n      iszero\n      tag_255\n      jumpi\n        /* \"#utility.yul\":1461:1462   */\n      0x00\n        /* \"#utility.yul\":1458:1459   */\n      dup1\n        /* \"#utility.yul\":1451:1463   */\n      revert\n        /* \"#utility.yul\":1415:1417   */\n    tag_255:\n        /* \"#utility.yul\":1489:1552   */\n      tag_256\n        /* \"#utility.yul\":1544:1551   */\n      dup6\n        /* \"#utility.yul\":1535:1541   */\n      dup3\n        /* \"#utility.yul\":1524:1533   */\n      dup7\n        /* \"#utility.yul\":1520:1542   */\n      add\n        /* \"#utility.yul\":1489:1552   */\n      tag_241\n      jump\t// in\n    tag_256:\n        /* \"#utility.yul\":1479:1552   */\n      swap3\n      pop\n        /* \"#utility.yul\":1342:1562   */\n      pop\n        /* \"#utility.yul\":1601:1603   */\n      0x20\n        /* \"#utility.yul\":1627:1680   */\n      tag_257\n        /* \"#utility.yul\":1672:1679   */\n      dup6\n        /* \"#utility.yul\":1663:1669   */\n      dup3\n        /* \"#utility.yul\":1652:1661   */\n      dup7\n        /* \"#utility.yul\":1648:1670   */\n      add\n        /* \"#utility.yul\":1627:1680   */\n      tag_245\n      jump\t// in\n    tag_257:\n        /* \"#utility.yul\":1617:1680   */\n      swap2\n      pop\n        /* \"#utility.yul\":1572:1690   */\n      pop\n        /* \"#utility.yul\":1270:1697   */\n      swap3\n      pop\n      swap3\n      swap1\n      pop\n      jump\t// out\n        /* \"#utility.yul\":1703:1965   */\n    tag_20:\n      0x00\n        /* \"#utility.yul\":1811:1813   */\n      0x20\n        /* \"#utility.yul\":1799:1808   */\n      dup3\n        /* \"#utility.yul\":1790:1797   */\n      dup5\n        /* \"#utility.yul\":1786:1809   */\n      sub\n        /* \"#utility.yul\":1782:1814   */\n      slt\n        /* \"#utility.yul\":1779:1781   */\n      iszero\n      tag_259\n      jumpi\n        /* \"#utility.yul\":1827:1828   */\n      0x00\n        /* \"#utility.yul\":1824:1825   */\n      dup1\n        /* \"#utility.yul\":1817:1829   */\n      revert\n        /* \"#utility.yul\":1779:1781   */\n    tag_259:\n        /* \"#utility.yul\":1870:1871   */\n      0x00\n        /* \"#utility.yul\":1895:1948   */\n      tag_260\n        /* \"#utility.yul\":1940:1947   */\n      dup5\n        /* \"#utility.yul\":1931:1937   */\n      dup3\n        /* \"#utility.yul\":1920:1929   */\n      dup6\n        /* \"#utility.yul\":1916:1938   */\n      add\n        /* \"#utility.yul\":1895:1948   */\n      tag_245\n      jump\t// in\n    tag_260:\n        /* \"#utility.yul\":1885:1948   */\n      swap2\n      pop\n        /* \"#utility.yul\":1841:1958   */\n      pop\n        /* \"#utility.yul\":1769:1965   */\n      swap3\n      swap2\n      pop\n      pop\n      jump\t// out\n        /* \"#utility.yul\":1971:2167   */\n    tag_261:\n      0x00\n        /* \"#utility.yul\":2095:2161   */\n      tag_263\n        /* \"#utility.yul\":2157:2160   */\n      dup4\n        /* \"#utility.yul\":2149:2155   */\n      dup4\n        /* \"#utility.yul\":2095:2161   */\n      tag_264\n      jump\t// in\n    tag_263:\n        /* \"#utility.yul\":2081:2161   */\n      swap1\n      pop\n        /* \"#utility.yul\":2071:2167   */\n      swap3\n      swap2\n      pop\n      pop\n      jump\t// out\n        /* \"#utility.yul\":2173:2352   */\n    tag_265:\n      0x00\n        /* \"#utility.yul\":2263:2309   */\n      tag_267\n        /* \"#utility.yul\":2305:2308   */\n      dup4\n        /* \"#utility.yul\":2297:2303   */\n      dup4\n        /* \"#utility.yul\":2263:2309   */\n      tag_268\n      jump\t// in\n    tag_267:\n        /* \"#utility.yul\":2341:2345   */\n      0x20\n        /* \"#utility.yul\":2336:2339   */\n      dup4\n        /* \"#utility.yul\":2332:2346   */\n      add\n        /* \"#utility.yul\":2318:2346   */\n      swap1\n      pop\n        /* \"#utility.yul\":2253:2352   */\n      swap3\n      swap2\n      pop\n      pop\n      jump\t// out\n        /* \"#utility.yul\":2358:2476   */\n    tag_269:\n        /* \"#utility.yul\":2445:2469   */\n      tag_271\n        /* \"#utility.yul\":2463:2468   */\n      dup2\n        /* \"#utility.yul\":2445:2469   */\n      tag_272\n      jump\t// in\n    tag_271:\n        /* \"#utility.yul\":2440:2443   */\n      dup3\n        /* \"#utility.yul\":2433:2470   */\n      mstore\n        /* \"#utility.yul\":2423:2476   */\n      pop\n      pop\n      jump\t// out\n        /* \"#utility.yul\":2510:3501   */\n    tag_273:\n      0x00\n        /* \"#utility.yul\":2678:2742   */\n      tag_275\n        /* \"#utility.yul\":2736:2741   */\n      dup3\n        /* \"#utility.yul\":2678:2742   */\n      tag_276\n      jump\t// in\n    tag_275:\n        /* \"#utility.yul\":2758:2854   */\n      tag_277\n        /* \"#utility.yul\":2847:2853   */\n      dup2\n        /* \"#utility.yul\":2842:2845   */\n      dup6\n        /* \"#utility.yul\":2758:2854   */\n      tag_278\n      jump\t// in\n    tag_277:\n        /* \"#utility.yul\":2751:2854   */\n      swap4\n      pop\n        /* \"#utility.yul\":2880:2883   */\n      dup4\n        /* \"#utility.yul\":2925:2929   */\n      0x20\n        /* \"#utility.yul\":2917:2923   */\n      dup3\n        /* \"#utility.yul\":2913:2930   */\n      mul\n        /* \"#utility.yul\":2908:2911   */\n      dup6\n        /* \"#utility.yul\":2904:2931   */\n      add\n        /* \"#utility.yul\":2955:3021   */\n      tag_279\n        /* \"#utility.yul\":3015:3020   */\n      dup6\n        /* \"#utility.yul\":2955:3021   */\n      tag_280\n      jump\t// in\n    tag_279:\n        /* \"#utility.yul\":3044:3051   */\n      dup1\n        /* \"#utility.yul\":3075:3076   */\n      0x00\n        /* \"#utility.yul\":3060:3456   */\n    tag_281:\n        /* \"#utility.yul\":3085:3091   */\n      dup6\n        /* \"#utility.yul\":3082:3083   */\n      dup2\n        /* \"#utility.yul\":3079:3092   */\n      lt\n        /* \"#utility.yul\":3060:3456   */\n      iszero\n      tag_283\n      jumpi\n        /* \"#utility.yul\":3156:3165   */\n      dup5\n        /* \"#utility.yul\":3150:3154   */\n      dup5\n        /* \"#utility.yul\":3146:3166   */\n      sub\n        /* \"#utility.yul\":3141:3144   */\n      dup10\n        /* \"#utility.yul\":3134:3167   */\n      mstore\n        /* \"#utility.yul\":3207:3213   */\n      dup2\n        /* \"#utility.yul\":3201:3214   */\n      mload\n        /* \"#utility.yul\":3235:3319   */\n      tag_284\n        /* \"#utility.yul\":3314:3318   */\n      dup6\n        /* \"#utility.yul\":3299:3312   */\n      dup3\n        /* \"#utility.yul\":3235:3319   */\n      tag_261\n      jump\t// in\n    tag_284:\n        /* \"#utility.yul\":3227:3319   */\n      swap5\n      pop\n        /* \"#utility.yul\":3342:3412   */\n      tag_285\n        /* \"#utility.yul\":3405:3411   */\n      dup4\n        /* \"#utility.yul\":3342:3412   */\n      tag_286\n      jump\t// in\n    tag_285:\n        /* \"#utility.yul\":3332:3412   */\n      swap3\n      pop\n        /* \"#utility.yul\":3441:3445   */\n      0x20\n        /* \"#utility.yul\":3436:3439   */\n      dup11\n        /* \"#utility.yul\":3432:3446   */\n      add\n        /* \"#utility.yul\":3425:3446   */\n      swap10\n      pop\n        /* \"#utility.yul\":3120:3456   */\n      pop\n        /* \"#utility.yul\":3107:3108   */\n      0x01\n        /* \"#utility.yul\":3104:3105   */\n      dup2\n        /* \"#utility.yul\":3100:3109   */\n      add\n        /* \"#utility.yul\":3095:3109   */\n      swap1\n      pop\n        /* \"#utility.yul\":3060:3456   */\n      jump(tag_281)\n    tag_283:\n        /* \"#utility.yul\":3064:3078   */\n      pop\n        /* \"#utility.yul\":3472:3476   */\n      dup3\n        /* \"#utility.yul\":3465:3476   */\n      swap8\n      pop\n        /* \"#utility.yul\":3492:3495   */\n      dup8\n        /* \"#utility.yul\":3485:3495   */\n      swap6\n      pop\n        /* \"#utility.yul\":2654:3501   */\n      pop\n      pop\n      pop\n      pop\n      pop\n      swap3\n      swap2\n      pop\n      pop\n      jump\t// out\n        /* \"#utility.yul\":3537:4269   */\n    tag_287:\n      0x00\n        /* \"#utility.yul\":3685:3739   */\n      tag_289\n        /* \"#utility.yul\":3733:3738   */\n      dup3\n        /* \"#utility.yul\":3685:3739   */\n      tag_290\n      jump\t// in\n    tag_289:\n        /* \"#utility.yul\":3755:3841   */\n      tag_291\n        /* \"#utility.yul\":3834:3840   */\n      dup2\n        /* \"#utility.yul\":3829:3832   */\n      dup6\n        /* \"#utility.yul\":3755:3841   */\n      tag_292\n      jump\t// in\n    tag_291:\n        /* \"#utility.yul\":3748:3841   */\n      swap4\n      pop\n        /* \"#utility.yul\":3865:3921   */\n      tag_293\n        /* \"#utility.yul\":3915:3920   */\n      dup4\n        /* \"#utility.yul\":3865:3921   */\n      tag_294\n      jump\t// in\n    tag_293:\n        /* \"#utility.yul\":3944:3951   */\n      dup1\n        /* \"#utility.yul\":3975:3976   */\n      0x00\n        /* \"#utility.yul\":3960:4244   */\n    tag_295:\n        /* \"#utility.yul\":3985:3991   */\n      dup4\n        /* \"#utility.yul\":3982:3983   */\n      dup2\n        /* \"#utility.yul\":3979:3992   */\n      lt\n        /* \"#utility.yul\":3960:4244   */\n      iszero\n      tag_297\n      jumpi\n        /* \"#utility.yul\":4061:4067   */\n      dup2\n        /* \"#utility.yul\":4055:4068   */\n      mload\n        /* \"#utility.yul\":4088:4151   */\n      tag_298\n        /* \"#utility.yul\":4147:4150   */\n      dup9\n        /* \"#utility.yul\":4132:4145   */\n      dup3\n        /* \"#utility.yul\":4088:4151   */\n      tag_265\n      jump\t// in\n    tag_298:\n        /* \"#utility.yul\":4081:4151   */\n      swap8\n      pop\n        /* \"#utility.yul\":4174:4234   */\n      tag_299\n        /* \"#utility.yul\":4227:4233   */\n      dup4\n        /* \"#utility.yul\":4174:4234   */\n      tag_300\n      jump\t// in\n    tag_299:\n        /* \"#utility.yul\":4164:4234   */\n      swap3\n      pop\n        /* \"#utility.yul\":4020:4244   */\n      pop\n        /* \"#utility.yul\":4007:4008   */\n      0x01\n        /* \"#utility.yul\":4004:4005   */\n      dup2\n        /* \"#utility.yul\":4000:4009   */\n      add\n        /* \"#utility.yul\":3995:4009   */\n      swap1\n      pop\n        /* \"#utility.yul\":3960:4244   */\n      jump(tag_295)\n    tag_297:\n        /* \"#utility.yul\":3964:3978   */\n      pop\n        /* \"#utility.yul\":4260:4263   */\n      dup6\n        /* \"#utility.yul\":4253:4263   */\n      swap4\n      pop\n        /* \"#utility.yul\":3661:4269   */\n      pop\n      pop\n      pop\n      swap3\n      swap2\n      pop\n      pop\n      jump\t// out\n        /* \"#utility.yul\":4275:4384   */\n    tag_301:\n        /* \"#utility.yul\":4356:4377   */\n      tag_303\n        /* \"#utility.yul\":4371:4376   */\n      dup2\n        /* \"#utility.yul\":4356:4377   */\n      tag_304\n      jump\t// in\n    tag_303:\n        /* \"#utility.yul\":4351:4354   */\n      dup3\n        /* \"#utility.yul\":4344:4378   */\n      mstore\n        /* \"#utility.yul\":4334:4384   */\n      pop\n      pop\n      jump\t// out\n        /* \"#utility.yul\":4412:5261   */\n    tag_305:\n      0x00\n        /* \"#utility.yul\":4554:4559   */\n      dup2\n        /* \"#utility.yul\":4548:4560   */\n      sload\n        /* \"#utility.yul\":4583:4619   */\n      tag_307\n        /* \"#utility.yul\":4609:4618   */\n      dup2\n        /* \"#utility.yul\":4583:4619   */\n      tag_82\n      jump\t// in\n    tag_307:\n        /* \"#utility.yul\":4635:4723   */\n      tag_308\n        /* \"#utility.yul\":4716:4722   */\n      dup2\n        /* \"#utility.yul\":4711:4714   */\n      dup7\n        /* \"#utility.yul\":4635:4723   */\n      tag_309\n      jump\t// in\n    tag_308:\n        /* \"#utility.yul\":4628:4723   */\n      swap5\n      pop\n        /* \"#utility.yul\":4754:4755   */\n      0x01\n        /* \"#utility.yul\":4743:4752   */\n      dup3\n        /* \"#utility.yul\":4739:4756   */\n      and\n        /* \"#utility.yul\":4770:4771   */\n      0x00\n        /* \"#utility.yul\":4765:4902   */\n      dup2\n      eq\n      tag_311\n      jumpi\n        /* \"#utility.yul\":4916:4917   */\n      0x01\n        /* \"#utility.yul\":4911:5255   */\n      dup2\n      eq\n      tag_312\n      jumpi\n        /* \"#utility.yul\":4732:5255   */\n      jump(tag_310)\n        /* \"#utility.yul\":4765:4902   */\n    tag_311:\n        /* \"#utility.yul\":4849:4853   */\n      0xff\n        /* \"#utility.yul\":4845:4854   */\n      not\n        /* \"#utility.yul\":4834:4843   */\n      dup4\n        /* \"#utility.yul\":4830:4855   */\n      and\n        /* \"#utility.yul\":4825:4828   */\n      dup7\n        /* \"#utility.yul\":4818:4856   */\n      mstore\n        /* \"#utility.yul\":4885:4891   */\n      dup2\n        /* \"#utility.yul\":4880:4883   */\n      dup7\n        /* \"#utility.yul\":4876:4892   */\n      add\n        /* \"#utility.yul\":4869:4892   */\n      swap4\n      pop\n        /* \"#utility.yul\":4765:4902   */\n      jump(tag_310)\n        /* \"#utility.yul\":4911:5255   */\n    tag_312:\n        /* \"#utility.yul\":4978:5019   */\n      tag_313\n        /* \"#utility.yul\":5013:5018   */\n      dup6\n        /* \"#utility.yul\":4978:5019   */\n      tag_314\n      jump\t// in\n    tag_313:\n        /* \"#utility.yul\":5041:5042   */\n      0x00\n        /* \"#utility.yul\":5055:5209   */\n    tag_315:\n        /* \"#utility.yul\":5069:5075   */\n      dup4\n        /* \"#utility.yul\":5066:5067   */\n      dup2\n        /* \"#utility.yul\":5063:5076   */\n      lt\n        /* \"#utility.yul\":5055:5209   */\n      iszero\n      tag_317\n      jumpi\n        /* \"#utility.yul\":5143:5150   */\n      dup2\n        /* \"#utility.yul\":5137:5151   */\n      sload\n        /* \"#utility.yul\":5133:5134   */\n      dup2\n        /* \"#utility.yul\":5128:5131   */\n      dup10\n        /* \"#utility.yul\":5124:5135   */\n      add\n        /* \"#utility.yul\":5117:5152   */\n      mstore\n        /* \"#utility.yul\":5193:5194   */\n      0x01\n        /* \"#utility.yul\":5184:5191   */\n      dup3\n        /* \"#utility.yul\":5180:5195   */\n      add\n        /* \"#utility.yul\":5169:5195   */\n      swap2\n      pop\n        /* \"#utility.yul\":5091:5095   */\n      0x20\n        /* \"#utility.yul\":5088:5089   */\n      dup2\n        /* \"#utility.yul\":5084:5096   */\n      add\n        /* \"#utility.yul\":5079:5096   */\n      swap1\n      pop\n        /* \"#utility.yul\":5055:5209   */\n      jump(tag_315)\n    tag_317:\n        /* \"#utility.yul\":5238:5244   */\n      dup4\n        /* \"#utility.yul\":5233:5236   */\n      dup9\n        /* \"#utility.yul\":5229:5245   */\n      add\n        /* \"#utility.yul\":5222:5245   */\n      swap6\n      pop\n        /* \"#utility.yul\":4918:5255   */\n      pop\n      pop\n        /* \"#utility.yul\":4732:5255   */\n    tag_310:\n      pop\n        /* \"#utility.yul\":4521:5261   */\n      pop\n      pop\n      swap3\n      swap2\n      pop\n      pop\n      jump\t// out\n        /* \"#utility.yul\":5267:5611   */\n    tag_264:\n      0x00\n        /* \"#utility.yul\":5373:5412   */\n      tag_319\n        /* \"#utility.yul\":5406:5411   */\n      dup3\n        /* \"#utility.yul\":5373:5412   */\n      tag_320\n      jump\t// in\n    tag_319:\n        /* \"#utility.yul\":5428:5489   */\n      tag_321\n        /* \"#utility.yul\":5482:5488   */\n      dup2\n        /* \"#utility.yul\":5477:5480   */\n      dup6\n        /* \"#utility.yul\":5428:5489   */\n      tag_322\n      jump\t// in\n    tag_321:\n        /* \"#utility.yul\":5421:5489   */\n      swap4\n      pop\n        /* \"#utility.yul\":5498:5550   */\n      tag_323\n        /* \"#utility.yul\":5543:5549   */\n      dup2\n        /* \"#utility.yul\":5538:5541   */\n      dup6\n        /* \"#utility.yul\":5531:5535   */\n      0x20\n        /* \"#utility.yul\":5524:5529   */\n      dup7\n        /* \"#utility.yul\":5520:5536   */\n      add\n        /* \"#utility.yul\":5498:5550   */\n      tag_324\n      jump\t// in\n    tag_323:\n        /* \"#utility.yul\":5575:5604   */\n      tag_325\n        /* \"#utility.yul\":5597:5603   */\n      dup2\n        /* \"#utility.yul\":5575:5604   */\n      tag_326\n      jump\t// in\n    tag_325:\n        /* \"#utility.yul\":5570:5573   */\n      dup5\n        /* \"#utility.yul\":5566:5605   */\n      add\n        /* \"#utility.yul\":5559:5605   */\n      swap2\n      pop\n        /* \"#utility.yul\":5349:5611   */\n      pop\n      swap3\n      swap2\n      pop\n      pop\n      jump\t// out\n        /* \"#utility.yul\":5617:5981   */\n    tag_327:\n      0x00\n        /* \"#utility.yul\":5733:5772   */\n      tag_329\n        /* \"#utility.yul\":5766:5771   */\n      dup3\n        /* \"#utility.yul\":5733:5772   */\n      tag_320\n      jump\t// in\n    tag_329:\n        /* \"#utility.yul\":5788:5859   */\n      tag_330\n        /* \"#utility.yul\":5852:5858   */\n      dup2\n        /* \"#utility.yul\":5847:5850   */\n      dup6\n        /* \"#utility.yul\":5788:5859   */\n      tag_331\n      jump\t// in\n    tag_330:\n        /* \"#utility.yul\":5781:5859   */\n      swap4\n      pop\n        /* \"#utility.yul\":5868:5920   */\n      tag_332\n        /* \"#utility.yul\":5913:5919   */\n      dup2\n        /* \"#utility.yul\":5908:5911   */\n      dup6\n        /* \"#utility.yul\":5901:5905   */\n      0x20\n        /* \"#utility.yul\":5894:5899   */\n      dup7\n        /* \"#utility.yul\":5890:5906   */\n      add\n        /* \"#utility.yul\":5868:5920   */\n      tag_324\n      jump\t// in\n    tag_332:\n        /* \"#utility.yul\":5945:5974   */\n      tag_333\n        /* \"#utility.yul\":5967:5973   */\n      dup2\n        /* \"#utility.yul\":5945:5974   */\n      tag_326\n      jump\t// in\n    tag_333:\n        /* \"#utility.yul\":5940:5943   */\n      dup5\n        /* \"#utility.yul\":5936:5975   */\n      add\n        /* \"#utility.yul\":5929:5975   */\n      swap2\n      pop\n        /* \"#utility.yul\":5709:5981   */\n      pop\n      swap3\n      swap2\n      pop\n      pop\n      jump\t// out\n        /* \"#utility.yul\":5987:6353   */\n    tag_334:\n      0x00\n        /* \"#utility.yul\":6150:6217   */\n      tag_336\n        /* \"#utility.yul\":6214:6216   */\n      0x2d\n        /* \"#utility.yul\":6209:6212   */\n      dup4\n        /* \"#utility.yul\":6150:6217   */\n      tag_331\n      jump\t// in\n    tag_336:\n        /* \"#utility.yul\":6143:6217   */\n      swap2\n      pop\n        /* \"#utility.yul\":6226:6319   */\n      tag_337\n        /* \"#utility.yul\":6315:6318   */\n      dup3\n        /* \"#utility.yul\":6226:6319   */\n      tag_338\n      jump\t// in\n    tag_337:\n        /* \"#utility.yul\":6344:6346   */\n      0x40\n        /* \"#utility.yul\":6339:6342   */\n      dup3\n        /* \"#utility.yul\":6335:6347   */\n      add\n        /* \"#utility.yul\":6328:6347   */\n      swap1\n      pop\n        /* \"#utility.yul\":6133:6353   */\n      swap2\n      swap1\n      pop\n      jump\t// out\n        /* \"#utility.yul\":6359:6725   */\n    tag_339:\n      0x00\n        /* \"#utility.yul\":6522:6589   */\n      tag_341\n        /* \"#utility.yul\":6586:6588   */\n      0x14\n        /* \"#utility.yul\":6581:6584   */\n      dup4\n        /* \"#utility.yul\":6522:6589   */\n      tag_331\n      jump\t// in\n    tag_341:\n        /* \"#utility.yul\":6515:6589   */\n      swap2\n      pop\n        /* \"#utility.yul\":6598:6691   */\n      tag_342\n        /* \"#utility.yul\":6687:6690   */\n      dup3\n        /* \"#utility.yul\":6598:6691   */\n      tag_343\n      jump\t// in\n    tag_342:\n        /* \"#utility.yul\":6716:6718   */\n      0x20\n        /* \"#utility.yul\":6711:6714   */\n      dup3\n        /* \"#utility.yul\":6707:6719   */\n      add\n        /* \"#utility.yul\":6700:6719   */\n      swap1\n      pop\n        /* \"#utility.yul\":6505:6725   */\n      swap2\n      swap1\n      pop\n      jump\t// out\n        /* \"#utility.yul\":6731:7097   */\n    tag_344:\n      0x00\n        /* \"#utility.yul\":6894:6961   */\n      tag_346\n        /* \"#utility.yul\":6958:6960   */\n      0x15\n        /* \"#utility.yul\":6953:6956   */\n      dup4\n        /* \"#utility.yul\":6894:6961   */\n      tag_331\n      jump\t// in\n    tag_346:\n        /* \"#utility.yul\":6887:6961   */\n      swap2\n      pop\n        /* \"#utility.yul\":6970:7063   */\n      tag_347\n        /* \"#utility.yul\":7059:7062   */\n      dup3\n        /* \"#utility.yul\":6970:7063   */\n      tag_348\n      jump\t// in\n    tag_347:\n        /* \"#utility.yul\":7088:7090   */\n      0x20\n        /* \"#utility.yul\":7083:7086   */\n      dup3\n        /* \"#utility.yul\":7079:7091   */\n      add\n        /* \"#utility.yul\":7072:7091   */\n      swap1\n      pop\n        /* \"#utility.yul\":6877:7097   */\n      swap2\n      swap1\n      pop\n      jump\t// out\n        /* \"#utility.yul\":7103:7469   */\n    tag_349:\n      0x00\n        /* \"#utility.yul\":7266:7333   */\n      tag_351\n        /* \"#utility.yul\":7330:7332   */\n      0x15\n        /* \"#utility.yul\":7325:7328   */\n      dup4\n        /* \"#utility.yul\":7266:7333   */\n      tag_331\n      jump\t// in\n    tag_351:\n        /* \"#utility.yul\":7259:7333   */\n      swap2\n      pop\n        /* \"#utility.yul\":7342:7435   */\n      tag_352\n        /* \"#utility.yul\":7431:7434   */\n      dup3\n        /* \"#utility.yul\":7342:7435   */\n      tag_353\n      jump\t// in\n    tag_352:\n        /* \"#utility.yul\":7460:7462   */\n      0x20\n        /* \"#utility.yul\":7455:7458   */\n      dup3\n        /* \"#utility.yul\":7451:7463   */\n      add\n        /* \"#utility.yul\":7444:7463   */\n      swap1\n      pop\n        /* \"#utility.yul\":7249:7469   */\n      swap2\n      swap1\n      pop\n      jump\t// out\n        /* \"#utility.yul\":7475:7841   */\n    tag_354:\n      0x00\n        /* \"#utility.yul\":7638:7705   */\n      tag_356\n        /* \"#utility.yul\":7702:7704   */\n      0x27\n        /* \"#utility.yul\":7697:7700   */\n      dup4\n        /* \"#utility.yul\":7638:7705   */\n      tag_331\n      jump\t// in\n    tag_356:\n        /* \"#utility.yul\":7631:7705   */\n      swap2\n      pop\n        /* \"#utility.yul\":7714:7807   */\n      tag_357\n        /* \"#utility.yul\":7803:7806   */\n      dup3\n        /* \"#utility.yul\":7714:7807   */\n      tag_358\n      jump\t// in\n    tag_357:\n        /* \"#utility.yul\":7832:7834   */\n      0x40\n        /* \"#utility.yul\":7827:7830   */\n      dup3\n        /* \"#utility.yul\":7823:7835   */\n      add\n        /* \"#utility.yul\":7816:7835   */\n      swap1\n      pop\n        /* \"#utility.yul\":7621:7841   */\n      swap2\n      swap1\n      pop\n      jump\t// out\n        /* \"#utility.yul\":7847:8213   */\n    tag_359:\n      0x00\n        /* \"#utility.yul\":8010:8077   */\n      tag_361\n        /* \"#utility.yul\":8074:8076   */\n      0x1b\n        /* \"#utility.yul\":8069:8072   */\n      dup4\n        /* \"#utility.yul\":8010:8077   */\n      tag_331\n      jump\t// in\n    tag_361:\n        /* \"#utility.yul\":8003:8077   */\n      swap2\n      pop\n        /* \"#utility.yul\":8086:8179   */\n      tag_362\n        /* \"#utility.yul\":8175:8178   */\n      dup3\n        /* \"#utility.yul\":8086:8179   */\n      tag_363\n      jump\t// in\n    tag_362:\n        /* \"#utility.yul\":8204:8206   */\n      0x20\n        /* \"#utility.yul\":8199:8202   */\n      dup3\n        /* \"#utility.yul\":8195:8207   */\n      add\n        /* \"#utility.yul\":8188:8207   */\n      swap1\n      pop\n        /* \"#utility.yul\":7993:8213   */\n      swap2\n      swap1\n      pop\n      jump\t// out\n        /* \"#utility.yul\":8219:8585   */\n    tag_364:\n      0x00\n        /* \"#utility.yul\":8382:8449   */\n      tag_366\n        /* \"#utility.yul\":8446:8448   */\n      0x1b\n        /* \"#utility.yul\":8441:8444   */\n      dup4\n        /* \"#utility.yul\":8382:8449   */\n      tag_331\n      jump\t// in\n    tag_366:\n        /* \"#utility.yul\":8375:8449   */\n      swap2\n      pop\n        /* \"#utility.yul\":8458:8551   */\n      tag_367\n        /* \"#utility.yul\":8547:8550   */\n      dup3\n        /* \"#utility.yul\":8458:8551   */\n      tag_368\n      jump\t// in\n    tag_367:\n        /* \"#utility.yul\":8576:8578   */\n      0x20\n        /* \"#utility.yul\":8571:8574   */\n      dup3\n        /* \"#utility.yul\":8567:8579   */\n      add\n        /* \"#utility.yul\":8560:8579   */\n      swap1\n      pop\n        /* \"#utility.yul\":8365:8585   */\n      swap2\n      swap1\n      pop\n      jump\t// out\n        /* \"#utility.yul\":8591:8957   */\n    tag_369:\n      0x00\n        /* \"#utility.yul\":8754:8821   */\n      tag_371\n        /* \"#utility.yul\":8818:8820   */\n      0x16\n        /* \"#utility.yul\":8813:8816   */\n      dup4\n        /* \"#utility.yul\":8754:8821   */\n      tag_331\n      jump\t// in\n    tag_371:\n        /* \"#utility.yul\":8747:8821   */\n      swap2\n      pop\n        /* \"#utility.yul\":8830:8923   */\n      tag_372\n        /* \"#utility.yul\":8919:8922   */\n      dup3\n        /* \"#utility.yul\":8830:8923   */\n      tag_373\n      jump\t// in\n    tag_372:\n        /* \"#utility.yul\":8948:8950   */\n      0x20\n        /* \"#utility.yul\":8943:8946   */\n      dup3\n        /* \"#utility.yul\":8939:8951   */\n      add\n        /* \"#utility.yul\":8932:8951   */\n      swap1\n      pop\n        /* \"#utility.yul\":8737:8957   */\n      swap2\n      swap1\n      pop\n      jump\t// out\n        /* \"#utility.yul\":8963:9329   */\n    tag_374:\n      0x00\n        /* \"#utility.yul\":9126:9193   */\n      tag_376\n        /* \"#utility.yul\":9190:9192   */\n      0x16\n        /* \"#utility.yul\":9185:9188   */\n      dup4\n        /* \"#utility.yul\":9126:9193   */\n      tag_331\n      jump\t// in\n    tag_376:\n        /* \"#utility.yul\":9119:9193   */\n      swap2\n      pop\n        /* \"#utility.yul\":9202:9295   */\n      tag_377\n        /* \"#utility.yul\":9291:9294   */\n      dup3\n        /* \"#utility.yul\":9202:9295   */\n      tag_378\n      jump\t// in\n    tag_377:\n        /* \"#utility.yul\":9320:9322   */\n      0x20\n        /* \"#utility.yul\":9315:9318   */\n      dup3\n        /* \"#utility.yul\":9311:9323   */\n      add\n        /* \"#utility.yul\":9304:9323   */\n      swap1\n      pop\n        /* \"#utility.yul\":9109:9329   */\n      swap2\n      swap1\n      pop\n      jump\t// out\n        /* \"#utility.yul\":9335:9701   */\n    tag_379:\n      0x00\n        /* \"#utility.yul\":9498:9565   */\n      tag_381\n        /* \"#utility.yul\":9562:9564   */\n      0x1a\n        /* \"#utility.yul\":9557:9560   */\n      dup4\n        /* \"#utility.yul\":9498:9565   */\n      tag_331\n      jump\t// in\n    tag_381:\n        /* \"#utility.yul\":9491:9565   */\n      swap2\n      pop\n        /* \"#utility.yul\":9574:9667   */\n      tag_382\n        /* \"#utility.yul\":9663:9666   */\n      dup3\n        /* \"#utility.yul\":9574:9667   */\n      tag_383\n      jump\t// in\n    tag_382:\n        /* \"#utility.yul\":9692:9694   */\n      0x20\n        /* \"#utility.yul\":9687:9690   */\n      dup3\n        /* \"#utility.yul\":9683:9695   */\n      add\n        /* \"#utility.yul\":9676:9695   */\n      swap1\n      pop\n        /* \"#utility.yul\":9481:9701   */\n      swap2\n      swap1\n      pop\n      jump\t// out\n        /* \"#utility.yul\":9707:10073   */\n    tag_384:\n      0x00\n        /* \"#utility.yul\":9870:9937   */\n      tag_386\n        /* \"#utility.yul\":9934:9936   */\n      0x13\n        /* \"#utility.yul\":9929:9932   */\n      dup4\n        /* \"#utility.yul\":9870:9937   */\n      tag_331\n      jump\t// in\n    tag_386:\n        /* \"#utility.yul\":9863:9937   */\n      swap2\n      pop\n        /* \"#utility.yul\":9946:10039   */\n      tag_387\n        /* \"#utility.yul\":10035:10038   */\n      dup3\n        /* \"#utility.yul\":9946:10039   */\n      tag_388\n      jump\t// in\n    tag_387:\n        /* \"#utility.yul\":10064:10066   */\n      0x20\n        /* \"#utility.yul\":10059:10062   */\n      dup3\n        /* \"#utility.yul\":10055:10067   */\n      add\n        /* \"#utility.yul\":10048:10067   */\n      swap1\n      pop\n        /* \"#utility.yul\":9853:10073   */\n      swap2\n      swap1\n      pop\n      jump\t// out\n        /* \"#utility.yul\":10079:10445   */\n    tag_389:\n      0x00\n        /* \"#utility.yul\":10242:10309   */\n      tag_391\n        /* \"#utility.yul\":10306:10308   */\n      0x21\n        /* \"#utility.yul\":10301:10304   */\n      dup4\n        /* \"#utility.yul\":10242:10309   */\n      tag_331\n      jump\t// in\n    tag_391:\n        /* \"#utility.yul\":10235:10309   */\n      swap2\n      pop\n        /* \"#utility.yul\":10318:10411   */\n      tag_392\n        /* \"#utility.yul\":10407:10410   */\n      dup3\n        /* \"#utility.yul\":10318:10411   */\n      tag_393\n      jump\t// in\n    tag_392:\n        /* \"#utility.yul\":10436:10438   */\n      0x40\n        /* \"#utility.yul\":10431:10434   */\n      dup3\n        /* \"#utility.yul\":10427:10439   */\n      add\n        /* \"#utility.yul\":10420:10439   */\n      swap1\n      pop\n        /* \"#utility.yul\":10225:10445   */\n      swap2\n      swap1\n      pop\n      jump\t// out\n        /* \"#utility.yul\":10451:10559   */\n    tag_268:\n        /* \"#utility.yul\":10528:10552   */\n      tag_395\n        /* \"#utility.yul\":10546:10551   */\n      dup2\n        /* \"#utility.yul\":10528:10552   */\n      tag_396\n      jump\t// in\n    tag_395:\n        /* \"#utility.yul\":10523:10526   */\n      dup3\n        /* \"#utility.yul\":10516:10553   */\n      mstore\n        /* \"#utility.yul\":10506:10559   */\n      pop\n      pop\n      jump\t// out\n        /* \"#utility.yul\":10565:10683   */\n    tag_397:\n        /* \"#utility.yul\":10652:10676   */\n      tag_399\n        /* \"#utility.yul\":10670:10675   */\n      dup2\n        /* \"#utility.yul\":10652:10676   */\n      tag_396\n      jump\t// in\n    tag_399:\n        /* \"#utility.yul\":10647:10650   */\n      dup3\n        /* \"#utility.yul\":10640:10677   */\n      mstore\n        /* \"#utility.yul\":10630:10683   */\n      pop\n      pop\n      jump\t// out\n        /* \"#utility.yul\":10689:10962   */\n    tag_161:\n      0x00\n        /* \"#utility.yul\":10842:10936   */\n      tag_401\n        /* \"#utility.yul\":10932:10935   */\n      dup3\n        /* \"#utility.yul\":10923:10929   */\n      dup5\n        /* \"#utility.yul\":10842:10936   */\n      tag_305\n      jump\t// in\n    tag_401:\n        /* \"#utility.yul\":10835:10936   */\n      swap2\n      pop\n        /* \"#utility.yul\":10953:10956   */\n      dup2\n        /* \"#utility.yul\":10946:10956   */\n      swap1\n      pop\n        /* \"#utility.yul\":10824:10962   */\n      swap3\n      swap2\n      pop\n      pop\n      jump\t// out\n        /* \"#utility.yul\":10968:11300   */\n    tag_86:\n      0x00\n        /* \"#utility.yul\":11127:11129   */\n      0x40\n        /* \"#utility.yul\":11116:11125   */\n      dup3\n        /* \"#utility.yul\":11112:11130   */\n      add\n        /* \"#utility.yul\":11104:11130   */\n      swap1\n      pop\n        /* \"#utility.yul\":11140:11211   */\n      tag_403\n        /* \"#utility.yul\":11208:11209   */\n      0x00\n        /* \"#utility.yul\":11197:11206   */\n      dup4\n        /* \"#utility.yul\":11193:11210   */\n      add\n        /* \"#utility.yul\":11184:11190   */\n      dup6\n        /* \"#utility.yul\":11140:11211   */\n      tag_269\n      jump\t// in\n    tag_403:\n        /* \"#utility.yul\":11221:11293   */\n      tag_404\n        /* \"#utility.yul\":11289:11291   */\n      0x20\n        /* \"#utility.yul\":11278:11287   */\n      dup4\n        /* \"#utility.yul\":11274:11292   */\n      add\n        /* \"#utility.yul\":11265:11271   */\n      dup5\n        /* \"#utility.yul\":11221:11293   */\n      tag_397\n      jump\t// in\n    tag_404:\n        /* \"#utility.yul\":11094:11300   */\n      swap4\n      swap3\n      pop\n      pop\n      pop\n      jump\t// out\n        /* \"#utility.yul\":11306:11980   */\n    tag_35:\n      0x00\n        /* \"#utility.yul\":11585:11587   */\n      0x40\n        /* \"#utility.yul\":11574:11583   */\n      dup3\n        /* \"#utility.yul\":11570:11588   */\n      add\n        /* \"#utility.yul\":11562:11588   */\n      swap1\n      pop\n        /* \"#utility.yul\":11634:11643   */\n      dup2\n        /* \"#utility.yul\":11628:11632   */\n      dup2\n        /* \"#utility.yul\":11624:11644   */\n      sub\n        /* \"#utility.yul\":11620:11621   */\n      0x00\n        /* \"#utility.yul\":11609:11618   */\n      dup4\n        /* \"#utility.yul\":11605:11622   */\n      add\n        /* \"#utility.yul\":11598:11645   */\n      mstore\n        /* \"#utility.yul\":11662:11790   */\n      tag_406\n        /* \"#utility.yul\":11785:11789   */\n      dup2\n        /* \"#utility.yul\":11776:11782   */\n      dup6\n        /* \"#utility.yul\":11662:11790   */\n      tag_273\n      jump\t// in\n    tag_406:\n        /* \"#utility.yul\":11654:11790   */\n      swap1\n      pop\n        /* \"#utility.yul\":11837:11846   */\n      dup2\n        /* \"#utility.yul\":11831:11835   */\n      dup2\n        /* \"#utility.yul\":11827:11847   */\n      sub\n        /* \"#utility.yul\":11822:11824   */\n      0x20\n        /* \"#utility.yul\":11811:11820   */\n      dup4\n        /* \"#utility.yul\":11807:11825   */\n      add\n        /* \"#utility.yul\":11800:11848   */\n      mstore\n        /* \"#utility.yul\":11865:11973   */\n      tag_407\n        /* \"#utility.yul\":11968:11972   */\n      dup2\n        /* \"#utility.yul\":11959:11965   */\n      dup5\n        /* \"#utility.yul\":11865:11973   */\n      tag_287\n      jump\t// in\n    tag_407:\n        /* \"#utility.yul\":11857:11973   */\n      swap1\n      pop\n        /* \"#utility.yul\":11552:11980   */\n      swap4\n      swap3\n      pop\n      pop\n      pop\n      jump\t// out\n        /* \"#utility.yul\":11986:12660   */\n    tag_58:\n      0x00\n        /* \"#utility.yul\":12265:12267   */\n      0x40\n        /* \"#utility.yul\":12254:12263   */\n      dup3\n        /* \"#utility.yul\":12250:12268   */\n      add\n        /* \"#utility.yul\":12242:12268   */\n      swap1\n      pop\n        /* \"#utility.yul\":12314:12323   */\n      dup2\n        /* \"#utility.yul\":12308:12312   */\n      dup2\n        /* \"#utility.yul\":12304:12324   */\n      sub\n        /* \"#utility.yul\":12300:12301   */\n      0x00\n        /* \"#utility.yul\":12289:12298   */\n      dup4\n        /* \"#utility.yul\":12285:12302   */\n      add\n        /* \"#utility.yul\":12278:12325   */\n      mstore\n        /* \"#utility.yul\":12342:12450   */\n      tag_409\n        /* \"#utility.yul\":12445:12449   */\n      dup2\n        /* \"#utility.yul\":12436:12442   */\n      dup6\n        /* \"#utility.yul\":12342:12450   */\n      tag_287\n      jump\t// in\n    tag_409:\n        /* \"#utility.yul\":12334:12450   */\n      swap1\n      pop\n        /* \"#utility.yul\":12497:12506   */\n      dup2\n        /* \"#utility.yul\":12491:12495   */\n      dup2\n        /* \"#utility.yul\":12487:12507   */\n      sub\n        /* \"#utility.yul\":12482:12484   */\n      0x20\n        /* \"#utility.yul\":12471:12480   */\n      dup4\n        /* \"#utility.yul\":12467:12485   */\n      add\n        /* \"#utility.yul\":12460:12508   */\n      mstore\n        /* \"#utility.yul\":12525:12653   */\n      tag_410\n        /* \"#utility.yul\":12648:12652   */\n      dup2\n        /* \"#utility.yul\":12639:12645   */\n      dup5\n        /* \"#utility.yul\":12525:12653   */\n      tag_273\n      jump\t// in\n    tag_410:\n        /* \"#utility.yul\":12517:12653   */\n      swap1\n      pop\n        /* \"#utility.yul\":12232:12660   */\n      swap4\n      swap3\n      pop\n      pop\n      pop\n      jump\t// out\n        /* \"#utility.yul\":12666:12876   */\n    tag_39:\n      0x00\n        /* \"#utility.yul\":12791:12793   */\n      0x20\n        /* \"#utility.yul\":12780:12789   */\n      dup3\n        /* \"#utility.yul\":12776:12794   */\n      add\n        /* \"#utility.yul\":12768:12794   */\n      swap1\n      pop\n        /* \"#utility.yul\":12804:12869   */\n      tag_412\n        /* \"#utility.yul\":12866:12867   */\n      0x00\n        /* \"#utility.yul\":12855:12864   */\n      dup4\n        /* \"#utility.yul\":12851:12868   */\n      add\n        /* \"#utility.yul\":12842:12848   */\n      dup5\n        /* \"#utility.yul\":12804:12869   */\n      tag_301\n      jump\t// in\n    tag_412:\n        /* \"#utility.yul\":12758:12876   */\n      swap3\n      swap2\n      pop\n      pop\n      jump\t// out\n        /* \"#utility.yul\":12882:13195   */\n    tag_29:\n      0x00\n        /* \"#utility.yul\":13033:13035   */\n      0x20\n        /* \"#utility.yul\":13022:13031   */\n      dup3\n        /* \"#utility.yul\":13018:13036   */\n      add\n        /* \"#utility.yul\":13010:13036   */\n      swap1\n      pop\n        /* \"#utility.yul\":13082:13091   */\n      dup2\n        /* \"#utility.yul\":13076:13080   */\n      dup2\n        /* \"#utility.yul\":13072:13092   */\n      sub\n        /* \"#utility.yul\":13068:13069   */\n      0x00\n        /* \"#utility.yul\":13057:13066   */\n      dup4\n        /* \"#utility.yul\":13053:13070   */\n      add\n        /* \"#utility.yul\":13046:13093   */\n      mstore\n        /* \"#utility.yul\":13110:13188   */\n      tag_414\n        /* \"#utility.yul\":13183:13187   */\n      dup2\n        /* \"#utility.yul\":13174:13180   */\n      dup5\n        /* \"#utility.yul\":13110:13188   */\n      tag_327\n      jump\t// in\n    tag_414:\n        /* \"#utility.yul\":13102:13188   */\n      swap1\n      pop\n        /* \"#utility.yul\":13000:13195   */\n      swap3\n      swap2\n      pop\n      pop\n      jump\t// out\n        /* \"#utility.yul\":13201:13620   */\n    tag_209:\n      0x00\n        /* \"#utility.yul\":13405:13407   */\n      0x20\n        /* \"#utility.yul\":13394:13403   */\n      dup3\n        /* \"#utility.yul\":13390:13408   */\n      add\n        /* \"#utility.yul\":13382:13408   */\n      swap1\n      pop\n        /* \"#utility.yul\":13454:13463   */\n      dup2\n        /* \"#utility.yul\":13448:13452   */\n      dup2\n        /* \"#utility.yul\":13444:13464   */\n      sub\n        /* \"#utility.yul\":13440:13441   */\n      0x00\n        /* \"#utility.yul\":13429:13438   */\n      dup4\n        /* \"#utility.yul\":13425:13442   */\n      add\n        /* \"#utility.yul\":13418:13465   */\n      mstore\n        /* \"#utility.yul\":13482:13613   */\n      tag_416\n        /* \"#utility.yul\":13608:13612   */\n      dup2\n        /* \"#utility.yul\":13482:13613   */\n      tag_334\n      jump\t// in\n    tag_416:\n        /* \"#utility.yul\":13474:13613   */\n      swap1\n      pop\n        /* \"#utility.yul\":13372:13620   */\n      swap2\n      swap1\n      pop\n      jump\t// out\n        /* \"#utility.yul\":13626:14045   */\n    tag_110:\n      0x00\n        /* \"#utility.yul\":13830:13832   */\n      0x20\n        /* \"#utility.yul\":13819:13828   */\n      dup3\n        /* \"#utility.yul\":13815:13833   */\n      add\n        /* \"#utility.yul\":13807:13833   */\n      swap1\n      pop\n        /* \"#utility.yul\":13879:13888   */\n      dup2\n        /* \"#utility.yul\":13873:13877   */\n      dup2\n        /* \"#utility.yul\":13869:13889   */\n      sub\n        /* \"#utility.yul\":13865:13866   */\n      0x00\n        /* \"#utility.yul\":13854:13863   */\n      dup4\n        /* \"#utility.yul\":13850:13867   */\n      add\n        /* \"#utility.yul\":13843:13890   */\n      mstore\n        /* \"#utility.yul\":13907:14038   */\n      tag_418\n        /* \"#utility.yul\":14033:14037   */\n      dup2\n        /* \"#utility.yul\":13907:14038   */\n      tag_339\n      jump\t// in\n    tag_418:\n        /* \"#utility.yul\":13899:14038   */\n      swap1\n      pop\n        /* \"#utility.yul\":13797:14045   */\n      swap2\n      swap1\n      pop\n      jump\t// out\n        /* \"#utility.yul\":14051:14470   */\n    tag_182:\n      0x00\n        /* \"#utility.yul\":14255:14257   */\n      0x20\n        /* \"#utility.yul\":14244:14253   */\n      dup3\n        /* \"#utility.yul\":14240:14258   */\n      add\n        /* \"#utility.yul\":14232:14258   */\n      swap1\n      pop\n        /* \"#utility.yul\":14304:14313   */\n      dup2\n        /* \"#utility.yul\":14298:14302   */\n      dup2\n        /* \"#utility.yul\":14294:14314   */\n      sub\n        /* \"#utility.yul\":14290:14291   */\n      0x00\n        /* \"#utility.yul\":14279:14288   */\n      dup4\n        /* \"#utility.yul\":14275:14292   */\n      add\n        /* \"#utility.yul\":14268:14315   */\n      mstore\n        /* \"#utility.yul\":14332:14463   */\n      tag_420\n        /* \"#utility.yul\":14458:14462   */\n      dup2\n        /* \"#utility.yul\":14332:14463   */\n      tag_344\n      jump\t// in\n    tag_420:\n        /* \"#utility.yul\":14324:14463   */\n      swap1\n      pop\n        /* \"#utility.yul\":14222:14470   */\n      swap2\n      swap1\n      pop\n      jump\t// out\n        /* \"#utility.yul\":14476:14895   */\n    tag_90:\n      0x00\n        /* \"#utility.yul\":14680:14682   */\n      0x20\n        /* \"#utility.yul\":14669:14678   */\n      dup3\n        /* \"#utility.yul\":14665:14683   */\n      add\n        /* \"#utility.yul\":14657:14683   */\n      swap1\n      pop\n        /* \"#utility.yul\":14729:14738   */\n      dup2\n        /* \"#utility.yul\":14723:14727   */\n      dup2\n        /* \"#utility.yul\":14719:14739   */\n      sub\n        /* \"#utility.yul\":14715:14716   */\n      0x00\n        /* \"#utility.yul\":14704:14713   */\n      dup4\n        /* \"#utility.yul\":14700:14717   */\n      add\n        /* \"#utility.yul\":14693:14740   */\n      mstore\n        /* \"#utility.yul\":14757:14888   */\n      tag_422\n        /* \"#utility.yul\":14883:14887   */\n      dup2\n        /* \"#utility.yul\":14757:14888   */\n      tag_349\n      jump\t// in\n    tag_422:\n        /* \"#utility.yul\":14749:14888   */\n      swap1\n      pop\n        /* \"#utility.yul\":14647:14895   */\n      swap2\n      swap1\n      pop\n      jump\t// out\n        /* \"#utility.yul\":14901:15320   */\n    tag_71:\n      0x00\n        /* \"#utility.yul\":15105:15107   */\n      0x20\n        /* \"#utility.yul\":15094:15103   */\n      dup3\n        /* \"#utility.yul\":15090:15108   */\n      add\n        /* \"#utility.yul\":15082:15108   */\n      swap1\n      pop\n        /* \"#utility.yul\":15154:15163   */\n      dup2\n        /* \"#utility.yul\":15148:15152   */\n      dup2\n        /* \"#utility.yul\":15144:15164   */\n      sub\n        /* \"#utility.yul\":15140:15141   */\n      0x00\n        /* \"#utility.yul\":15129:15138   */\n      dup4\n        /* \"#utility.yul\":15125:15142   */\n      add\n        /* \"#utility.yul\":15118:15165   */\n      mstore\n        /* \"#utility.yul\":15182:15313   */\n      tag_424\n        /* \"#utility.yul\":15308:15312   */\n      dup2\n        /* \"#utility.yul\":15182:15313   */\n      tag_354\n      jump\t// in\n    tag_424:\n        /* \"#utility.yul\":15174:15313   */\n      swap1\n      pop\n        /* \"#utility.yul\":15072:15320   */\n      swap2\n      swap1\n      pop\n      jump\t// out\n        /* \"#utility.yul\":15326:15745   */\n    tag_164:\n      0x00\n        /* \"#utility.yul\":15530:15532   */\n      0x20\n        /* \"#utility.yul\":15519:15528   */\n      dup3\n        /* \"#utility.yul\":15515:15533   */\n      add\n        /* \"#utility.yul\":15507:15533   */\n      swap1\n      pop\n        /* \"#utility.yul\":15579:15588   */\n      dup2\n        /* \"#utility.yul\":15573:15577   */\n      dup2\n        /* \"#utility.yul\":15569:15589   */\n      sub\n        /* \"#utility.yul\":15565:15566   */\n      0x00\n        /* \"#utility.yul\":15554:15563   */\n      dup4\n        /* \"#utility.yul\":15550:15567   */\n      add\n        /* \"#utility.yul\":15543:15590   */\n      mstore\n        /* \"#utility.yul\":15607:15738   */\n      tag_426\n        /* \"#utility.yul\":15733:15737   */\n      dup2\n        /* \"#utility.yul\":15607:15738   */\n      tag_359\n      jump\t// in\n    tag_426:\n        /* \"#utility.yul\":15599:15738   */\n      swap1\n      pop\n        /* \"#utility.yul\":15497:15745   */\n      swap2\n      swap1\n      pop\n      jump\t// out\n        /* \"#utility.yul\":15751:16170   */\n    tag_107:\n      0x00\n        /* \"#utility.yul\":15955:15957   */\n      0x20\n        /* \"#utility.yul\":15944:15953   */\n      dup3\n        /* \"#utility.yul\":15940:15958   */\n      add\n        /* \"#utility.yul\":15932:15958   */\n      swap1\n      pop\n        /* \"#utility.yul\":16004:16013   */\n      dup2\n        /* \"#utility.yul\":15998:16002   */\n      dup2\n        /* \"#utility.yul\":15994:16014   */\n      sub\n        /* \"#utility.yul\":15990:15991   */\n      0x00\n        /* \"#utility.yul\":15979:15988   */\n      dup4\n        /* \"#utility.yul\":15975:15992   */\n      add\n        /* \"#utility.yul\":15968:16015   */\n      mstore\n        /* \"#utility.yul\":16032:16163   */\n      tag_428\n        /* \"#utility.yul\":16158:16162   */\n      dup2\n        /* \"#utility.yul\":16032:16163   */\n      tag_364\n      jump\t// in\n    tag_428:\n        /* \"#utility.yul\":16024:16163   */\n      swap1\n      pop\n        /* \"#utility.yul\":15922:16170   */\n      swap2\n      swap1\n      pop\n      jump\t// out\n        /* \"#utility.yul\":16176:16595   */\n    tag_66:\n      0x00\n        /* \"#utility.yul\":16380:16382   */\n      0x20\n        /* \"#utility.yul\":16369:16378   */\n      dup3\n        /* \"#utility.yul\":16365:16383   */\n      add\n        /* \"#utility.yul\":16357:16383   */\n      swap1\n      pop\n        /* \"#utility.yul\":16429:16438   */\n      dup2\n        /* \"#utility.yul\":16423:16427   */\n      dup2\n        /* \"#utility.yul\":16419:16439   */\n      sub\n        /* \"#utility.yul\":16415:16416   */\n      0x00\n        /* \"#utility.yul\":16404:16413   */\n      dup4\n        /* \"#utility.yul\":16400:16417   */\n      add\n        /* \"#utility.yul\":16393:16440   */\n      mstore\n        /* \"#utility.yul\":16457:16588   */\n      tag_430\n        /* \"#utility.yul\":16583:16587   */\n      dup2\n        /* \"#utility.yul\":16457:16588   */\n      tag_369\n      jump\t// in\n    tag_430:\n        /* \"#utility.yul\":16449:16588   */\n      swap1\n      pop\n        /* \"#utility.yul\":16347:16595   */\n      swap2\n      swap1\n      pop\n      jump\t// out\n        /* \"#utility.yul\":16601:17020   */\n    tag_77:\n      0x00\n        /* \"#utility.yul\":16805:16807   */\n      0x20\n        /* \"#utility.yul\":16794:16803   */\n      dup3\n        /* \"#utility.yul\":16790:16808   */\n      add\n        /* \"#utility.yul\":16782:16808   */\n      swap1\n      pop\n        /* \"#utility.yul\":16854:16863   */\n      dup2\n        /* \"#utility.yul\":16848:16852   */\n      dup2\n        /* \"#utility.yul\":16844:16864   */\n      sub\n        /* \"#utility.yul\":16840:16841   */\n      0x00\n        /* \"#utility.yul\":16829:16838   */\n      dup4\n        /* \"#utility.yul\":16825:16842   */\n      add\n        /* \"#utility.yul\":16818:16865   */\n      mstore\n        /* \"#utility.yul\":16882:17013   */\n      tag_432\n        /* \"#utility.yul\":17008:17012   */\n      dup2\n        /* \"#utility.yul\":16882:17013   */\n      tag_374\n      jump\t// in\n    tag_432:\n        /* \"#utility.yul\":16874:17013   */\n      swap1\n      pop\n        /* \"#utility.yul\":16772:17020   */\n      swap2\n      swap1\n      pop\n      jump\t// out\n        /* \"#utility.yul\":17026:17445   */\n    tag_74:\n      0x00\n        /* \"#utility.yul\":17230:17232   */\n      0x20\n        /* \"#utility.yul\":17219:17228   */\n      dup3\n        /* \"#utility.yul\":17215:17233   */\n      add\n        /* \"#utility.yul\":17207:17233   */\n      swap1\n      pop\n        /* \"#utility.yul\":17279:17288   */\n      dup2\n        /* \"#utility.yul\":17273:17277   */\n      dup2\n        /* \"#utility.yul\":17269:17289   */\n      sub\n        /* \"#utility.yul\":17265:17266   */\n      0x00\n        /* \"#utility.yul\":17254:17263   */\n      dup4\n        /* \"#utility.yul\":17250:17267   */\n      add\n        /* \"#utility.yul\":17243:17290   */\n      mstore\n        /* \"#utility.yul\":17307:17438   */\n      tag_434\n        /* \"#utility.yul\":17433:17437   */\n      dup2\n        /* \"#utility.yul\":17307:17438   */\n      tag_379\n      jump\t// in\n    tag_434:\n        /* \"#utility.yul\":17299:17438   */\n      swap1\n      pop\n        /* \"#utility.yul\":17197:17445   */\n      swap2\n      swap1\n      pop\n      jump\t// out\n        /* \"#utility.yul\":17451:17870   */\n    tag_206:\n      0x00\n        /* \"#utility.yul\":17655:17657   */\n      0x20\n        /* \"#utility.yul\":17644:17653   */\n      dup3\n        /* \"#utility.yul\":17640:17658   */\n      add\n        /* \"#utility.yul\":17632:17658   */\n      swap1\n      pop\n        /* \"#utility.yul\":17704:17713   */\n      dup2\n        /* \"#utility.yul\":17698:17702   */\n      dup2\n        /* \"#utility.yul\":17694:17714   */\n      sub\n        /* \"#utility.yul\":17690:17691   */\n      0x00\n        /* \"#utility.yul\":17679:17688   */\n      dup4\n        /* \"#utility.yul\":17675:17692   */\n      add\n        /* \"#utility.yul\":17668:17715   */\n      mstore\n        /* \"#utility.yul\":17732:17863   */\n      tag_436\n        /* \"#utility.yul\":17858:17862   */\n      dup2\n        /* \"#utility.yul\":17732:17863   */\n      tag_384\n      jump\t// in\n    tag_436:\n        /* \"#utility.yul\":17724:17863   */\n      swap1\n      pop\n        /* \"#utility.yul\":17622:17870   */\n      swap2\n      swap1\n      pop\n      jump\t// out\n        /* \"#utility.yul\":17876:18295   */\n    tag_99:\n      0x00\n        /* \"#utility.yul\":18080:18082   */\n      0x20\n        /* \"#utility.yul\":18069:18078   */\n      dup3\n        /* \"#utility.yul\":18065:18083   */\n      add\n        /* \"#utility.yul\":18057:18083   */\n      swap1\n      pop\n        /* \"#utility.yul\":18129:18138   */\n      dup2\n        /* \"#utility.yul\":18123:18127   */\n      dup2\n        /* \"#utility.yul\":18119:18139   */\n      sub\n        /* \"#utility.yul\":18115:18116   */\n      0x00\n        /* \"#utility.yul\":18104:18113   */\n      dup4\n        /* \"#utility.yul\":18100:18117   */\n      add\n        /* \"#utility.yul\":18093:18140   */\n      mstore\n        /* \"#utility.yul\":18157:18288   */\n      tag_438\n        /* \"#utility.yul\":18283:18287   */\n      dup2\n        /* \"#utility.yul\":18157:18288   */\n      tag_389\n      jump\t// in\n    tag_438:\n        /* \"#utility.yul\":18149:18288   */\n      swap1\n      pop\n        /* \"#utility.yul\":18047:18295   */\n      swap2\n      swap1\n      pop\n      jump\t// out\n        /* \"#utility.yul\":18301:18523   */\n    tag_25:\n      0x00\n        /* \"#utility.yul\":18432:18434   */\n      0x20\n        /* \"#utility.yul\":18421:18430   */\n      dup3\n        /* \"#utility.yul\":18417:18435   */\n      add\n        /* \"#utility.yul\":18409:18435   */\n      swap1\n      pop\n        /* \"#utility.yul\":18445:18516   */\n      tag_440\n        /* \"#utility.yul\":18513:18514   */\n      0x00\n        /* \"#utility.yul\":18502:18511   */\n      dup4\n        /* \"#utility.yul\":18498:18515   */\n      add\n        /* \"#utility.yul\":18489:18495   */\n      dup5\n        /* \"#utility.yul\":18445:18516   */\n      tag_397\n      jump\t// in\n    tag_440:\n        /* \"#utility.yul\":18399:18523   */\n      swap3\n      swap2\n      pop\n      pop\n      jump\t// out\n        /* \"#utility.yul\":18529:18658   */\n    tag_237:\n      0x00\n        /* \"#utility.yul\":18590:18610   */\n      tag_442\n      tag_443\n      jump\t// in\n    tag_442:\n        /* \"#utility.yul\":18580:18610   */\n      swap1\n      pop\n        /* \"#utility.yul\":18619:18652   */\n      tag_444\n        /* \"#utility.yul\":18647:18651   */\n      dup3\n        /* \"#utility.yul\":18639:18645   */\n      dup3\n        /* \"#utility.yul\":18619:18652   */\n      tag_445\n      jump\t// in\n    tag_444:\n        /* \"#utility.yul\":18570:18658   */\n      swap2\n      swap1\n      pop\n      jump\t// out\n        /* \"#utility.yul\":18664:18739   */\n    tag_443:\n      0x00\n        /* \"#utility.yul\":18730:18732   */\n      0x40\n        /* \"#utility.yul\":18724:18733   */\n      mload\n        /* \"#utility.yul\":18714:18733   */\n      swap1\n      pop\n        /* \"#utility.yul\":18704:18739   */\n      swap1\n      jump\t// out\n        /* \"#utility.yul\":18745:19053   */\n    tag_236:\n      0x00\n        /* \"#utility.yul\":18897:18915   */\n      0xffffffffffffffff\n        /* \"#utility.yul\":18889:18895   */\n      dup3\n        /* \"#utility.yul\":18886:18916   */\n      gt\n        /* \"#utility.yul\":18883:18885   */\n      iszero\n      tag_448\n      jumpi\n        /* \"#utility.yul\":18919:18937   */\n      tag_449\n      tag_450\n      jump\t// in\n    tag_449:\n        /* \"#utility.yul\":18883:18885   */\n    tag_448:\n        /* \"#utility.yul\":18957:18986   */\n      tag_451\n        /* \"#utility.yul\":18979:18985   */\n      dup3\n        /* \"#utility.yul\":18957:18986   */\n      tag_326\n      jump\t// in\n    tag_451:\n        /* \"#utility.yul\":18949:18986   */\n      swap1\n      pop\n        /* \"#utility.yul\":19041:19045   */\n      0x20\n        /* \"#utility.yul\":19035:19039   */\n      dup2\n        /* \"#utility.yul\":19031:19046   */\n      add\n        /* \"#utility.yul\":19023:19046   */\n      swap1\n      pop\n        /* \"#utility.yul\":18812:19053   */\n      swap2\n      swap1\n      pop\n      jump\t// out\n        /* \"#utility.yul\":19059:19201   */\n    tag_280:\n      0x00\n        /* \"#utility.yul\":19159:19162   */\n      dup2\n        /* \"#utility.yul\":19151:19162   */\n      swap1\n      pop\n        /* \"#utility.yul\":19189:19193   */\n      0x20\n        /* \"#utility.yul\":19184:19187   */\n      dup3\n        /* \"#utility.yul\":19180:19194   */\n      add\n        /* \"#utility.yul\":19172:19194   */\n      swap1\n      pop\n        /* \"#utility.yul\":19141:19201   */\n      swap2\n      swap1\n      pop\n      jump\t// out\n        /* \"#utility.yul\":19207:19339   */\n    tag_294:\n      0x00\n        /* \"#utility.yul\":19297:19300   */\n      dup2\n        /* \"#utility.yul\":19289:19300   */\n      swap1\n      pop\n        /* \"#utility.yul\":19327:19331   */\n      0x20\n        /* \"#utility.yul\":19322:19325   */\n      dup3\n        /* \"#utility.yul\":19318:19332   */\n      add\n        /* \"#utility.yul\":19310:19332   */\n      swap1\n      pop\n        /* \"#utility.yul\":19279:19339   */\n      swap2\n      swap1\n      pop\n      jump\t// out\n        /* \"#utility.yul\":19345:19489   */\n    tag_314:\n      0x00\n        /* \"#utility.yul\":19420:19423   */\n      dup2\n        /* \"#utility.yul\":19412:19423   */\n      swap1\n      pop\n        /* \"#utility.yul\":19443:19446   */\n      dup2\n        /* \"#utility.yul\":19440:19441   */\n      0x00\n        /* \"#utility.yul\":19433:19447   */\n      mstore\n        /* \"#utility.yul\":19477:19481   */\n      0x20\n        /* \"#utility.yul\":19474:19475   */\n      0x00\n        /* \"#utility.yul\":19464:19482   */\n      keccak256\n        /* \"#utility.yul\":19456:19482   */\n      swap1\n      pop\n        /* \"#utility.yul\":19402:19489   */\n      swap2\n      swap1\n      pop\n      jump\t// out\n        /* \"#utility.yul\":19495:19619   */\n    tag_276:\n      0x00\n        /* \"#utility.yul\":19606:19611   */\n      dup2\n        /* \"#utility.yul\":19600:19612   */\n      mload\n        /* \"#utility.yul\":19590:19612   */\n      swap1\n      pop\n        /* \"#utility.yul\":19579:19619   */\n      swap2\n      swap1\n      pop\n      jump\t// out\n        /* \"#utility.yul\":19625:19739   */\n    tag_290:\n      0x00\n        /* \"#utility.yul\":19726:19731   */\n      dup2\n        /* \"#utility.yul\":19720:19732   */\n      mload\n        /* \"#utility.yul\":19710:19732   */\n      swap1\n      pop\n        /* \"#utility.yul\":19699:19739   */\n      swap2\n      swap1\n      pop\n      jump\t// out\n        /* \"#utility.yul\":19745:19844   */\n    tag_320:\n      0x00\n        /* \"#utility.yul\":19831:19836   */\n      dup2\n        /* \"#utility.yul\":19825:19837   */\n      mload\n        /* \"#utility.yul\":19815:19837   */\n      swap1\n      pop\n        /* \"#utility.yul\":19804:19844   */\n      swap2\n      swap1\n      pop\n      jump\t// out\n        /* \"#utility.yul\":19850:19973   */\n    tag_286:\n      0x00\n        /* \"#utility.yul\":19962:19966   */\n      0x20\n        /* \"#utility.yul\":19957:19960   */\n      dup3\n        /* \"#utility.yul\":19953:19967   */\n      add\n        /* \"#utility.yul\":19945:19967   */\n      swap1\n      pop\n        /* \"#utility.yul\":19935:19973   */\n      swap2\n      swap1\n      pop\n      jump\t// out\n        /* \"#utility.yul\":19979:20092   */\n    tag_300:\n      0x00\n        /* \"#utility.yul\":20081:20085   */\n      0x20\n        /* \"#utility.yul\":20076:20079   */\n      dup3\n        /* \"#utility.yul\":20072:20086   */\n      add\n        /* \"#utility.yul\":20064:20086   */\n      swap1\n      pop\n        /* \"#utility.yul\":20054:20092   */\n      swap2\n      swap1\n      pop\n      jump\t// out\n        /* \"#utility.yul\":20098:20292   */\n    tag_278:\n      0x00\n        /* \"#utility.yul\":20241:20247   */\n      dup3\n        /* \"#utility.yul\":20236:20239   */\n      dup3\n        /* \"#utility.yul\":20229:20248   */\n      mstore\n        /* \"#utility.yul\":20281:20285   */\n      0x20\n        /* \"#utility.yul\":20276:20279   */\n      dup3\n        /* \"#utility.yul\":20272:20286   */\n      add\n        /* \"#utility.yul\":20257:20286   */\n      swap1\n      pop\n        /* \"#utility.yul\":20219:20292   */\n      swap3\n      swap2\n      pop\n      pop\n      jump\t// out\n        /* \"#utility.yul\":20298:20482   */\n    tag_292:\n      0x00\n        /* \"#utility.yul\":20431:20437   */\n      dup3\n        /* \"#utility.yul\":20426:20429   */\n      dup3\n        /* \"#utility.yul\":20419:20438   */\n      mstore\n        /* \"#utility.yul\":20471:20475   */\n      0x20\n        /* \"#utility.yul\":20466:20469   */\n      dup3\n        /* \"#utility.yul\":20462:20476   */\n      add\n        /* \"#utility.yul\":20447:20476   */\n      swap1\n      pop\n        /* \"#utility.yul\":20409:20482   */\n      swap3\n      swap2\n      pop\n      pop\n      jump\t// out\n        /* \"#utility.yul\":20488:20635   */\n    tag_309:\n      0x00\n        /* \"#utility.yul\":20626:20629   */\n      dup2\n        /* \"#utility.yul\":20611:20629   */\n      swap1\n      pop\n        /* \"#utility.yul\":20601:20635   */\n      swap3\n      swap2\n      pop\n      pop\n      jump\t// out\n        /* \"#utility.yul\":20641:20800   */\n    tag_322:\n      0x00\n        /* \"#utility.yul\":20749:20755   */\n      dup3\n        /* \"#utility.yul\":20744:20747   */\n      dup3\n        /* \"#utility.yul\":20737:20756   */\n      mstore\n        /* \"#utility.yul\":20789:20793   */\n      0x20\n        /* \"#utility.yul\":20784:20787   */\n      dup3\n        /* \"#utility.yul\":20780:20794   */\n      add\n        /* \"#utility.yul\":20765:20794   */\n      swap1\n      pop\n        /* \"#utility.yul\":20727:20800   */\n      swap3\n      swap2\n      pop\n      pop\n      jump\t// out\n        /* \"#utility.yul\":20806:20975   */\n    tag_331:\n      0x00\n        /* \"#utility.yul\":20924:20930   */\n      dup3\n        /* \"#utility.yul\":20919:20922   */\n      dup3\n        /* \"#utility.yul\":20912:20931   */\n      mstore\n        /* \"#utility.yul\":20964:20968   */\n      0x20\n        /* \"#utility.yul\":20959:20962   */\n      dup3\n        /* \"#utility.yul\":20955:20969   */\n      add\n        /* \"#utility.yul\":20940:20969   */\n      swap1\n      pop\n        /* \"#utility.yul\":20902:20975   */\n      swap3\n      swap2\n      pop\n      pop\n      jump\t// out\n        /* \"#utility.yul\":20981:21286   */\n    tag_192:\n      0x00\n        /* \"#utility.yul\":21040:21060   */\n      tag_466\n        /* \"#utility.yul\":21058:21059   */\n      dup3\n        /* \"#utility.yul\":21040:21060   */\n      tag_396\n      jump\t// in\n    tag_466:\n        /* \"#utility.yul\":21035:21060   */\n      swap2\n      pop\n        /* \"#utility.yul\":21074:21094   */\n      tag_467\n        /* \"#utility.yul\":21092:21093   */\n      dup4\n        /* \"#utility.yul\":21074:21094   */\n      tag_396\n      jump\t// in\n    tag_467:\n        /* \"#utility.yul\":21069:21094   */\n      swap3\n      pop\n        /* \"#utility.yul\":21228:21229   */\n      dup3\n        /* \"#utility.yul\":21160:21226   */\n      0xffffffffffffffffffffffffffffffffffffffffffffffffffffffffffffffff\n        /* \"#utility.yul\":21156:21230   */\n      sub\n        /* \"#utility.yul\":21153:21154   */\n      dup3\n        /* \"#utility.yul\":21150:21231   */\n      gt\n        /* \"#utility.yul\":21147:21149   */\n      iszero\n      tag_468\n      jumpi\n        /* \"#utility.yul\":21234:21252   */\n      tag_469\n      tag_470\n      jump\t// in\n    tag_469:\n        /* \"#utility.yul\":21147:21149   */\n    tag_468:\n        /* \"#utility.yul\":21278:21279   */\n      dup3\n        /* \"#utility.yul\":21275:21276   */\n      dup3\n        /* \"#utility.yul\":21271:21280   */\n      add\n        /* \"#utility.yul\":21264:21280   */\n      swap1\n      pop\n        /* \"#utility.yul\":21025:21286   */\n      swap3\n      swap2\n      pop\n      pop\n      jump\t// out\n        /* \"#utility.yul\":21292:21483   */\n    tag_117:\n      0x00\n        /* \"#utility.yul\":21352:21372   */\n      tag_472\n        /* \"#utility.yul\":21370:21371   */\n      dup3\n        /* \"#utility.yul\":21352:21372   */\n      tag_396\n      jump\t// in\n    tag_472:\n        /* \"#utility.yul\":21347:21372   */\n      swap2\n      pop\n        /* \"#utility.yul\":21386:21406   */\n      tag_473\n        /* \"#utility.yul\":21404:21405   */\n      dup4\n        /* \"#utility.yul\":21386:21406   */\n      tag_396\n      jump\t// in\n    tag_473:\n        /* \"#utility.yul\":21381:21406   */\n      swap3\n      pop\n        /* \"#utility.yul\":21425:21426   */\n      dup3\n        /* \"#utility.yul\":21422:21423   */\n      dup3\n        /* \"#utility.yul\":21419:21427   */\n      lt\n        /* \"#utility.yul\":21416:21418   */\n      iszero\n      tag_474\n      jumpi\n        /* \"#utility.yul\":21430:21448   */\n      tag_475\n      tag_470\n      jump\t// in\n    tag_475:\n        /* \"#utility.yul\":21416:21418   */\n    tag_474:\n        /* \"#utility.yul\":21475:21476   */\n      dup3\n        /* \"#utility.yul\":21472:21473   */\n      dup3\n        /* \"#utility.yul\":21468:21477   */\n      sub\n        /* \"#utility.yul\":21460:21477   */\n      swap1\n      pop\n        /* \"#utility.yul\":21337:21483   */\n      swap3\n      swap2\n      pop\n      pop\n      jump\t// out\n        /* \"#utility.yul\":21489:21585   */\n    tag_272:\n      0x00\n        /* \"#utility.yul\":21555:21579   */\n      tag_477\n        /* \"#utility.yul\":21573:21578   */\n      dup3\n        /* \"#utility.yul\":21555:21579   */\n      tag_478\n      jump\t// in\n    tag_477:\n        /* \"#utility.yul\":21544:21579   */\n      swap1\n      pop\n        /* \"#utility.yul\":21534:21585   */\n      swap2\n      swap1\n      pop\n      jump\t// out\n        /* \"#utility.yul\":21591:21681   */\n    tag_304:\n      0x00\n        /* \"#utility.yul\":21668:21673   */\n      dup2\n        /* \"#utility.yul\":21661:21674   */\n      iszero\n        /* \"#utility.yul\":21654:21675   */\n      iszero\n        /* \"#utility.yul\":21643:21675   */\n      swap1\n      pop\n        /* \"#utility.yul\":21633:21681   */\n      swap2\n      swap1\n      pop\n      jump\t// out\n        /* \"#utility.yul\":21687:21813   */\n    tag_478:\n      0x00\n        /* \"#utility.yul\":21764:21806   */\n      0xffffffffffffffffffffffffffffffffffffffff\n        /* \"#utility.yul\":21757:21762   */\n      dup3\n        /* \"#utility.yul\":21753:21807   */\n      and\n        /* \"#utility.yul\":21742:21807   */\n      swap1\n      pop\n        /* \"#utility.yul\":21732:21813   */\n      swap2\n      swap1\n      pop\n      jump\t// out\n        /* \"#utility.yul\":21819:21896   */\n    tag_396:\n      0x00\n        /* \"#utility.yul\":21885:21890   */\n      dup2\n        /* \"#utility.yul\":21874:21890   */\n      swap1\n      pop\n        /* \"#utility.yul\":21864:21896   */\n      swap2\n      swap1\n      pop\n      jump\t// out\n        /* \"#utility.yul\":21902:22056   */\n    tag_240:\n        /* \"#utility.yul\":21986:21992   */\n      dup3\n        /* \"#utility.yul\":21981:21984   */\n      dup2\n        /* \"#utility.yul\":21976:21979   */\n      dup4\n        /* \"#utility.yul\":21963:21993   */\n      calldatacopy\n        /* \"#utility.yul\":22048:22049   */\n      0x00\n        /* \"#utility.yul\":22039:22045   */\n      dup4\n        /* \"#utility.yul\":22034:22037   */\n      dup4\n        /* \"#utility.yul\":22030:22046   */\n      add\n        /* \"#utility.yul\":22023:22050   */\n      mstore\n        /* \"#utility.yul\":21953:22056   */\n      pop\n      pop\n      pop\n      jump\t// out\n        /* \"#utility.yul\":22062:22369   */\n    tag_324:\n        /* \"#utility.yul\":22130:22131   */\n      0x00\n        /* \"#utility.yul\":22140:22253   */\n    tag_484:\n        /* \"#utility.yul\":22154:22160   */\n      dup4\n        /* \"#utility.yul\":22151:22152   */\n      dup2\n        /* \"#utility.yul\":22148:22161   */\n      lt\n        /* \"#utility.yul\":22140:22253   */\n      iszero\n      tag_486\n      jumpi\n        /* \"#utility.yul\":22239:22240   */\n      dup1\n        /* \"#utility.yul\":22234:22237   */\n      dup3\n        /* \"#utility.yul\":22230:22241   */\n      add\n        /* \"#utility.yul\":22224:22242   */\n      mload\n        /* \"#utility.yul\":22220:22221   */\n      dup2\n        /* \"#utility.yul\":22215:22218   */\n      dup5\n        /* \"#utility.yul\":22211:22222   */\n      add\n        /* \"#utility.yul\":22204:22243   */\n      mstore\n        /* \"#utility.yul\":22176:22178   */\n      0x20\n        /* \"#utility.yul\":22173:22174   */\n      dup2\n        /* \"#utility.yul\":22169:22179   */\n      add\n        /* \"#utility.yul\":22164:22179   */\n      swap1\n      pop\n        /* \"#utility.yul\":22140:22253   */\n      jump(tag_484)\n    tag_486:\n        /* \"#utility.yul\":22271:22277   */\n      dup4\n        /* \"#utility.yul\":22268:22269   */\n      dup2\n        /* \"#utility.yul\":22265:22278   */\n      gt\n        /* \"#utility.yul\":22262:22264   */\n      iszero\n      tag_487\n      jumpi\n        /* \"#utility.yul\":22351:22352   */\n      0x00\n        /* \"#utility.yul\":22342:22348   */\n      dup5\n        /* \"#utility.yul\":22337:22340   */\n      dup5\n        /* \"#utility.yul\":22333:22349   */\n      add\n        /* \"#utility.yul\":22326:22353   */\n      mstore\n        /* \"#utility.yul\":22262:22264   */\n    tag_487:\n        /* \"#utility.yul\":22111:22369   */\n      pop\n      pop\n      pop\n      pop\n      jump\t// out\n        /* \"#utility.yul\":22375:22695   */\n    tag_82:\n      0x00\n        /* \"#utility.yul\":22456:22457   */\n      0x02\n        /* \"#utility.yul\":22450:22454   */\n      dup3\n        /* \"#utility.yul\":22446:22458   */\n      div\n        /* \"#utility.yul\":22436:22458   */\n      swap1\n      pop\n        /* \"#utility.yul\":22503:22504   */\n      0x01\n        /* \"#utility.yul\":22497:22501   */\n      dup3\n        /* \"#utility.yul\":22493:22505   */\n      and\n        /* \"#utility.yul\":22524:22542   */\n      dup1\n        /* \"#utility.yul\":22514:22516   */\n      tag_489\n      jumpi\n        /* \"#utility.yul\":22580:22584   */\n      0x7f\n        /* \"#utility.yul\":22572:22578   */\n      dup3\n        /* \"#utility.yul\":22568:22585   */\n      and\n        /* \"#utility.yul\":22558:22585   */\n      swap2\n      pop\n        /* \"#utility.yul\":22514:22516   */\n    tag_489:\n        /* \"#utility.yul\":22642:22644   */\n      0x20\n        /* \"#utility.yul\":22634:22640   */\n      dup3\n        /* \"#utility.yul\":22631:22645   */\n      lt\n        /* \"#utility.yul\":22611:22629   */\n      dup2\n        /* \"#utility.yul\":22608:22646   */\n      eq\n        /* \"#utility.yul\":22605:22607   */\n      iszero\n      tag_490\n      jumpi\n        /* \"#utility.yul\":22661:22679   */\n      tag_491\n      tag_492\n      jump\t// in\n    tag_491:\n        /* \"#utility.yul\":22605:22607   */\n    tag_490:\n        /* \"#utility.yul\":22426:22695   */\n      pop\n      swap2\n      swap1\n      pop\n      jump\t// out\n        /* \"#utility.yul\":22701:22982   */\n    tag_445:\n        /* \"#utility.yul\":22784:22811   */\n      tag_494\n        /* \"#utility.yul\":22806:22810   */\n      dup3\n        /* \"#utility.yul\":22784:22811   */\n      tag_326\n      jump\t// in\n    tag_494:\n        /* \"#utility.yul\":22776:22782   */\n      dup2\n        /* \"#utility.yul\":22772:22812   */\n      add\n        /* \"#utility.yul\":22914:22920   */\n      dup2\n        /* \"#utility.yul\":22902:22912   */\n      dup2\n        /* \"#utility.yul\":22899:22921   */\n      lt\n        /* \"#utility.yul\":22878:22896   */\n      0xffffffffffffffff\n        /* \"#utility.yul\":22866:22876   */\n      dup3\n        /* \"#utility.yul\":22863:22897   */\n      gt\n        /* \"#utility.yul\":22860:22922   */\n      or\n        /* \"#utility.yul\":22857:22859   */\n      iszero\n      tag_495\n      jumpi\n        /* \"#utility.yul\":22925:22943   */\n      tag_496\n      tag_450\n      jump\t// in\n    tag_496:\n        /* \"#utility.yul\":22857:22859   */\n    tag_495:\n        /* \"#utility.yul\":22965:22975   */\n      dup1\n        /* \"#utility.yul\":22961:22963   */\n      0x40\n        /* \"#utility.yul\":22954:22976   */\n      mstore\n        /* \"#utility.yul\":22744:22982   */\n      pop\n      pop\n      pop\n      jump\t// out\n        /* \"#utility.yul\":22988:23221   */\n    tag_79:\n      0x00\n        /* \"#utility.yul\":23050:23074   */\n      tag_498\n        /* \"#utility.yul\":23068:23073   */\n      dup3\n        /* \"#utility.yul\":23050:23074   */\n      tag_396\n      jump\t// in\n    tag_498:\n        /* \"#utility.yul\":23041:23074   */\n      swap2\n      pop\n        /* \"#utility.yul\":23096:23162   */\n      0xffffffffffffffffffffffffffffffffffffffffffffffffffffffffffffffff\n        /* \"#utility.yul\":23089:23094   */\n      dup3\n        /* \"#utility.yul\":23086:23163   */\n      eq\n        /* \"#utility.yul\":23083:23085   */\n      iszero\n      tag_499\n      jumpi\n        /* \"#utility.yul\":23166:23184   */\n      tag_500\n      tag_470\n      jump\t// in\n    tag_500:\n        /* \"#utility.yul\":23083:23085   */\n    tag_499:\n        /* \"#utility.yul\":23213:23214   */\n      0x01\n        /* \"#utility.yul\":23206:23211   */\n      dup3\n        /* \"#utility.yul\":23202:23215   */\n      add\n        /* \"#utility.yul\":23195:23215   */\n      swap1\n      pop\n        /* \"#utility.yul\":23031:23221   */\n      swap2\n      swap1\n      pop\n      jump\t// out\n        /* \"#utility.yul\":23227:23407   */\n    tag_470:\n        /* \"#utility.yul\":23275:23352   */\n      0x4e487b7100000000000000000000000000000000000000000000000000000000\n        /* \"#utility.yul\":23272:23273   */\n      0x00\n        /* \"#utility.yul\":23265:23353   */\n      mstore\n        /* \"#utility.yul\":23372:23376   */\n      0x11\n        /* \"#utility.yul\":23369:23370   */\n      0x04\n        /* \"#utility.yul\":23362:23377   */\n      mstore\n        /* \"#utility.yul\":23396:23400   */\n      0x24\n        /* \"#utility.yul\":23393:23394   */\n      0x00\n        /* \"#utility.yul\":23386:23401   */\n      revert\n        /* \"#utility.yul\":23413:23593   */\n    tag_492:\n        /* \"#utility.yul\":23461:23538   */\n      0x4e487b7100000000000000000000000000000000000000000000000000000000\n        /* \"#utility.yul\":23458:23459   */\n      0x00\n        /* \"#utility.yul\":23451:23539   */\n      mstore\n        /* \"#utility.yul\":23558:23562   */\n      0x22\n        /* \"#utility.yul\":23555:23556   */\n      0x04\n        /* \"#utility.yul\":23548:23563   */\n      mstore\n        /* \"#utility.yul\":23582:23586   */\n      0x24\n        /* \"#utility.yul\":23579:23580   */\n      0x00\n        /* \"#utility.yul\":23572:23587   */\n      revert\n        /* \"#utility.yul\":23599:23779   */\n    tag_450:\n        /* \"#utility.yul\":23647:23724   */\n      0x4e487b7100000000000000000000000000000000000000000000000000000000\n        /* \"#utility.yul\":23644:23645   */\n      0x00\n        /* \"#utility.yul\":23637:23725   */\n      mstore\n        /* \"#utility.yul\":23744:23748   */\n      0x41\n        /* \"#utility.yul\":23741:23742   */\n      0x04\n        /* \"#utility.yul\":23734:23749   */\n      mstore\n        /* \"#utility.yul\":23768:23772   */\n      0x24\n        /* \"#utility.yul\":23765:23766   */\n      0x00\n        /* \"#utility.yul\":23758:23773   */\n      revert\n        /* \"#utility.yul\":23785:23887   */\n    tag_326:\n      0x00\n        /* \"#utility.yul\":23877:23879   */\n      0x1f\n        /* \"#utility.yul\":23873:23880   */\n      not\n        /* \"#utility.yul\":23868:23870   */\n      0x1f\n        /* \"#utility.yul\":23861:23866   */\n      dup4\n        /* \"#utility.yul\":23857:23871   */\n      add\n        /* \"#utility.yul\":23853:23881   */\n      and\n        /* \"#utility.yul\":23843:23881   */\n      swap1\n      pop\n        /* \"#utility.yul\":23833:23887   */\n      swap2\n      swap1\n      pop\n      jump\t// out\n        /* \"#utility.yul\":23893:24125   */\n    tag_338:\n        /* \"#utility.yul\":24033:24067   */\n      0x75736572206167652062656c6f772031382063616e2774207265676973746572\n        /* \"#utility.yul\":24029:24030   */\n      0x00\n        /* \"#utility.yul\":24021:24027   */\n      dup3\n        /* \"#utility.yul\":24017:24031   */\n      add\n        /* \"#utility.yul\":24010:24068   */\n      mstore\n        /* \"#utility.yul\":24102:24117   */\n      0x20666f722074686520766f746500000000000000000000000000000000000000\n        /* \"#utility.yul\":24097:24099   */\n      0x20\n        /* \"#utility.yul\":24089:24095   */\n      dup3\n        /* \"#utility.yul\":24085:24100   */\n      add\n        /* \"#utility.yul\":24078:24118   */\n      mstore\n        /* \"#utility.yul\":23999:24125   */\n      pop\n      jump\t// out\n        /* \"#utility.yul\":24131:24301   */\n    tag_343:\n        /* \"#utility.yul\":24271:24293   */\n      0x4e6f206f6e652068617320766f74656420796574000000000000000000000000\n        /* \"#utility.yul\":24267:24268   */\n      0x00\n        /* \"#utility.yul\":24259:24265   */\n      dup3\n        /* \"#utility.yul\":24255:24269   */\n      add\n        /* \"#utility.yul\":24248:24294   */\n      mstore\n        /* \"#utility.yul\":24237:24301   */\n      pop\n      jump\t// out\n        /* \"#utility.yul\":24307:24478   */\n    tag_348:\n        /* \"#utility.yul\":24447:24470   */\n      0x4e6f2063616e6469646174657320746f20766965770000000000000000000000\n        /* \"#utility.yul\":24443:24444   */\n      0x00\n        /* \"#utility.yul\":24435:24441   */\n      dup3\n        /* \"#utility.yul\":24431:24445   */\n      add\n        /* \"#utility.yul\":24424:24471   */\n      mstore\n        /* \"#utility.yul\":24413:24478   */\n      pop\n      jump\t// out\n        /* \"#utility.yul\":24484:24655   */\n    tag_353:\n        /* \"#utility.yul\":24624:24647   */\n      0x75736572206861736e277420766f746564207965740000000000000000000000\n        /* \"#utility.yul\":24620:24621   */\n      0x00\n        /* \"#utility.yul\":24612:24618   */\n      dup3\n        /* \"#utility.yul\":24608:24622   */\n      add\n        /* \"#utility.yul\":24601:24648   */\n      mstore\n        /* \"#utility.yul\":24590:24655   */\n      pop\n      jump\t// out\n        /* \"#utility.yul\":24661:24887   */\n    tag_358:\n        /* \"#utility.yul\":24801:24835   */\n      0x7468657265206973206e6f20636f6e74657374616e7420776974682074686973\n        /* \"#utility.yul\":24797:24798   */\n      0x00\n        /* \"#utility.yul\":24789:24795   */\n      dup3\n        /* \"#utility.yul\":24785:24799   */\n      add\n        /* \"#utility.yul\":24778:24836   */\n      mstore\n        /* \"#utility.yul\":24870:24879   */\n      0x206e756d62657200000000000000000000000000000000000000000000000000\n        /* \"#utility.yul\":24865:24867   */\n      0x20\n        /* \"#utility.yul\":24857:24863   */\n      dup3\n        /* \"#utility.yul\":24853:24868   */\n      add\n        /* \"#utility.yul\":24846:24880   */\n      mstore\n        /* \"#utility.yul\":24767:24887   */\n      pop\n      jump\t// out\n        /* \"#utility.yul\":24893:25070   */\n    tag_363:\n        /* \"#utility.yul\":25033:25062   */\n      0x6e616d652068617320616c7265616479206265656e2061646465640000000000\n        /* \"#utility.yul\":25029:25030   */\n      0x00\n        /* \"#utility.yul\":25021:25027   */\n      dup3\n        /* \"#utility.yul\":25017:25031   */\n      add\n        /* \"#utility.yul\":25010:25063   */\n      mstore\n        /* \"#utility.yul\":24999:25070   */\n      pop\n      jump\t// out\n        /* \"#utility.yul\":25076:25253   */\n    tag_368:\n        /* \"#utility.yul\":25216:25245   */\n      0x4e6f2063616e64696461746520686173206265656e2061646465640000000000\n        /* \"#utility.yul\":25212:25213   */\n      0x00\n        /* \"#utility.yul\":25204:25210   */\n      dup3\n        /* \"#utility.yul\":25200:25214   */\n      add\n        /* \"#utility.yul\":25193:25246   */\n      mstore\n        /* \"#utility.yul\":25182:25253   */\n      pop\n      jump\t// out\n        /* \"#utility.yul\":25259:25431   */\n    tag_373:\n        /* \"#utility.yul\":25399:25423   */\n      0x74686520636f6e74726163742069732070617573656400000000000000000000\n        /* \"#utility.yul\":25395:25396   */\n      0x00\n        /* \"#utility.yul\":25387:25393   */\n      dup3\n        /* \"#utility.yul\":25383:25397   */\n      add\n        /* \"#utility.yul\":25376:25424   */\n      mstore\n        /* \"#utility.yul\":25365:25431   */\n      pop\n      jump\t// out\n        /* \"#utility.yul\":25437:25609   */\n    tag_378:\n        /* \"#utility.yul\":25577:25601   */\n      0x757365722068617320766f74656420616c726561647900000000000000000000\n        /* \"#utility.yul\":25573:25574   */\n      0x00\n        /* \"#utility.yul\":25565:25571   */\n      dup3\n        /* \"#utility.yul\":25561:25575   */\n      add\n        /* \"#utility.yul\":25554:25602   */\n      mstore\n        /* \"#utility.yul\":25543:25609   */\n      pop\n      jump\t// out\n        /* \"#utility.yul\":25615:25791   */\n    tag_383:\n        /* \"#utility.yul\":25755:25783   */\n      0x75736572206861736e2774207265676973746572656420796574000000000000\n        /* \"#utility.yul\":25751:25752   */\n      0x00\n        /* \"#utility.yul\":25743:25749   */\n      dup3\n        /* \"#utility.yul\":25739:25753   */\n      add\n        /* \"#utility.yul\":25732:25784   */\n      mstore\n        /* \"#utility.yul\":25721:25791   */\n      pop\n      jump\t// out\n        /* \"#utility.yul\":25797:25966   */\n    tag_388:\n        /* \"#utility.yul\":25937:25958   */\n      0x7573657220686173207265676973746572656400000000000000000000000000\n        /* \"#utility.yul\":25933:25934   */\n      0x00\n        /* \"#utility.yul\":25925:25931   */\n      dup3\n        /* \"#utility.yul\":25921:25935   */\n      add\n        /* \"#utility.yul\":25914:25959   */\n      mstore\n        /* \"#utility.yul\":25903:25966   */\n      pop\n      jump\t// out\n        /* \"#utility.yul\":25972:26192   */\n    tag_393:\n        /* \"#utility.yul\":26112:26146   */\n      0x4f6e6c79204f776e65722063616e2063616c6c20746869732066756e6374696f\n        /* \"#utility.yul\":26108:26109   */\n      0x00\n        /* \"#utility.yul\":26100:26106   */\n      dup3\n        /* \"#utility.yul\":26096:26110   */\n      add\n        /* \"#utility.yul\":26089:26147   */\n      mstore\n        /* \"#utility.yul\":26181:26184   */\n      0x6e00000000000000000000000000000000000000000000000000000000000000\n        /* \"#utility.yul\":26176:26178   */\n      0x20\n        /* \"#utility.yul\":26168:26174   */\n      dup3\n        /* \"#utility.yul\":26164:26179   */\n      add\n        /* \"#utility.yul\":26157:26185   */\n      mstore\n        /* \"#utility.yul\":26078:26192   */\n      pop\n      jump\t// out\n        /* \"#utility.yul\":26198:26320   */\n    tag_248:\n        /* \"#utility.yul\":26271:26295   */\n      tag_518\n        /* \"#utility.yul\":26289:26294   */\n      dup2\n        /* \"#utility.yul\":26271:26295   */\n      tag_396\n      jump\t// in\n    tag_518:\n        /* \"#utility.yul\":26264:26269   */\n      dup2\n        /* \"#utility.yul\":26261:26296   */\n      eq\n        /* \"#utility.yul\":26251:26253   */\n      tag_519\n      jumpi\n        /* \"#utility.yul\":26310:26311   */\n      0x00\n        /* \"#utility.yul\":26307:26308   */\n      dup1\n        /* \"#utility.yul\":26300:26312   */\n      revert\n        /* \"#utility.yul\":26251:26253   */\n    tag_519:\n        /* \"#utility.yul\":26241:26320   */\n      pop\n      jump\t// out\n\n    auxdata: 0xa26469706673582212206cb7702e1241949e7c2667e432a57a0629fd73e698cf18212aa98420671a110464736f6c63430008030033\n}\n",
				"bytecode": {
					"linkReferences": {},
					"object": "608060405234801561001057600080fd5b50336000806101000a81548173ffffffffffffffffffffffffffffffffffffffff021916908373ffffffffffffffffffffffffffffffffffffffff1602179055506001600460006101000a81548160ff0219169083151502179055506124038061007b6000396000f3fe608060405234801561001057600080fd5b50600436106100cf5760003560e01c80635b72565b1161008c578063832c0aca11610066578063832c0aca146101cd5780638456cb59146101e9578063d30f11dd146101f3578063ea87152b14610212576100cf565b80635b72565b146101735780636c699905146101915780637aad8c80146101af576100cf565b80630121b93f146100d45780630d15fd77146100f0578063238488fd1461010e5780633f4ba83a1461012c57806354e70cae1461013657806357df6ca314610155575b600080fd5b6100ee60048036038101906100e99190611766565b61022e565b005b6100f861052b565b6040516101059190611dca565b60405180910390f35b610116610531565b6040516101239190611c28565b60405180910390f35b61013461068c565b005b61013e61077a565b60405161014c929190611b9f565b60405180910390f35b61015d610a72565b60405161016a9190611c0d565b60405180910390f35b61017b610a85565b6040516101889190611dca565b60405180910390f35b610199610a8b565b6040516101a69190611c28565b60405180910390f35b6101b7610cf9565b6040516101c49190611dca565b60405180910390f35b6101e760048036038101906101e291906116d1565b610cff565b005b6101f1610f0e565b005b6101fb610ffc565b604051610209929190611bd6565b60405180910390f35b61022c60048036038101906102279190611712565b611313565b005b600460009054906101000a900460ff161561027e576040517f08c379a000000000000000000000000000000000000000000000000000000000815260040161027590611d2a565b60405180910390fd5b6000811415801561029157506001548111155b6102d0576040517f08c379a00000000000000000000000000000000000000000000000000000000081526004016102c790611cca565b60405180910390fd5b600960003373ffffffffffffffffffffffffffffffffffffffff1673ffffffffffffffffffffffffffffffffffffffff16815260200190815260200160002060009054906101000a900460ff1661035c576040517f08c379a000000000000000000000000000000000000000000000000000000000815260040161035390611d6a565b60405180910390fd5b600860003373ffffffffffffffffffffffffffffffffffffffff1673ffffffffffffffffffffffffffffffffffffffff16815260200190815260200160002060009054906101000a900460ff16156103e9576040517f08c379a00000000000000000000000000000000000000000000000000000000081526004016103e090611d4a565b60405180910390fd5b600560008154809291906103fc90612071565b9190505550600a6000828152602001908152602001600020600081548092919061042590612071565b919050555060076000828152602001908152602001600020600b60003373ffffffffffffffffffffffffffffffffffffffff1673ffffffffffffffffffffffffffffffffffffffff1681526020019081526020016000209080546104889061200e565b610493929190611524565b506001600860003373ffffffffffffffffffffffffffffffffffffffff1673ffffffffffffffffffffffffffffffffffffffff16815260200190815260200160002060006101000a81548160ff021916908315150217905550807f1abe610cf2bf87e57dcc1181fcf5ac0934e843d8344ab9eed6e86c799f62585e33600554604051610520929190611b76565b60405180910390a250565b60055481565b6060600860003373ffffffffffffffffffffffffffffffffffffffff1673ffffffffffffffffffffffffffffffffffffffff16815260200190815260200160002060009054906101000a900460ff166105bf576040517f08c379a00000000000000000000000000000000000000000000000000000000081526004016105b690611caa565b60405180910390fd5b600b60003373ffffffffffffffffffffffffffffffffffffffff1673ffffffffffffffffffffffffffffffffffffffff16815260200190815260200160002080546106099061200e565b80601f01602080910402602001604051908101604052809291908181526020018280546106359061200e565b80156106825780601f1061065757610100808354040283529160200191610682565b820191906000526020600020905b81548152906001019060200180831161066557829003601f168201915b5050505050905090565b3373ffffffffffffffffffffffffffffffffffffffff1660008054906101000a900473ffffffffffffffffffffffffffffffffffffffff1673ffffffffffffffffffffffffffffffffffffffff161461071a576040517f08c379a000000000000000000000000000000000000000000000000000000000815260040161071190611daa565b60405180910390fd5b6000600460006101000a81548160ff0219169083151502179055503373ffffffffffffffffffffffffffffffffffffffff167f5db9ee0a495bf2e6ff9c91a7834c1ba4fdd244a5e8aa4e537bd38aeae4b073aa60405160405180910390a2565b6060803373ffffffffffffffffffffffffffffffffffffffff1660008054906101000a900473ffffffffffffffffffffffffffffffffffffffff1673ffffffffffffffffffffffffffffffffffffffff161461080b576040517f08c379a000000000000000000000000000000000000000000000000000000000815260040161080290611daa565b60405180910390fd5b600060015411610850576040517f08c379a000000000000000000000000000000000000000000000000000000000815260040161084790611d0a565b60405180910390fd5b600060055411610895576040517f08c379a000000000000000000000000000000000000000000000000000000000815260040161088c90611c6a565b60405180910390fd5b600060015467ffffffffffffffff8111156108d9577f4e487b7100000000000000000000000000000000000000000000000000000000600052604160045260246000fd5b6040519080825280602002602001820160405280156109075781602001602082028036833780820191505090505b5090506000600190505b600154811161099257600a6000828152602001908152602001600020548260018361093c9190611f50565b81518110610973577f4e487b7100000000000000000000000000000000000000000000000000000000600052603260045260246000fd5b602002602001018181525050808061098a90612071565b915050610911565b5060038181805480602002602001604051908101604052809291908181526020016000905b82821015610a635783829060005260206000200180546109d69061200e565b80601f0160208091040260200160405190810160405280929190818152602001828054610a029061200e565b8015610a4f5780601f10610a2457610100808354040283529160200191610a4f565b820191906000526020600020905b815481529060010190602001808311610a3257829003601f168201915b5050505050815260200190600101906109b7565b50505050915092509250509091565b600460009054906101000a900460ff1681565b60025481565b60603373ffffffffffffffffffffffffffffffffffffffff1660008054906101000a900473ffffffffffffffffffffffffffffffffffffffff1673ffffffffffffffffffffffffffffffffffffffff1614610b1b576040517f08c379a0000000000000000000000000000000000000000000000000000000008152600401610b1290611daa565b60405180910390fd5b600060055411610b60576040517f08c379a0000000000000000000000000000000000000000000000000000000008152600401610b5790611c6a565b60405180910390fd5b6000806000600190505b6001548111610bbb5782600a6000838152602001908152602001600020541115610ba857600a60008281526020019081526020016000205492508091505b8080610bb390612071565b915050610b6a565b50600080600190505b6001548111610c0a5783600a6000838152602001908152602001600020541415610bf7578180610bf390612071565b9250505b8080610c0290612071565b915050610bc4565b506001811115610c54576040518060400160405280601481526020017f746865726520686173206265656e2061207469650000000000000000000000008152509350505050610cf6565b600760008381526020019081526020016000208054610c729061200e565b80601f0160208091040260200160405190810160405280929190818152602001828054610c9e9061200e565b8015610ceb5780601f10610cc057610100808354040283529160200191610ceb565b820191906000526020600020905b815481529060010190602001808311610cce57829003601f168201915b505050505093505050505b90565b60015481565b3373ffffffffffffffffffffffffffffffffffffffff1660008054906101000a900473ffffffffffffffffffffffffffffffffffffffff1673ffffffffffffffffffffffffffffffffffffffff1614610d8d576040517f08c379a0000000000000000000000000000000000000000000000000000000008152600401610d8490611daa565b60405180910390fd5b60005b600380549050811015610e525760038181548110610dd7577f4e487b7100000000000000000000000000000000000000000000000000000000600052603260045260246000fd5b90600052602060002001604051610dee9190611b5f565b604051809103902082805190602001201415610e3f576040517f08c379a0000000000000000000000000000000000000000000000000000000008152600401610e3690611cea565b60405180910390fd5b8080610e4a90612071565b915050610d90565b5060016000815480929190610e6690612071565b9190505550600381908060018154018082558091505060019003906000526020600020016000909190919091509080519060200190610ea69291906115b1565b50806007600060015481526020019081526020016000209080519060200190610ed09291906115b1565b506001547f56f6c29d2eb99f40e2a206309dc37f2cff01a5755a4683e3c2b0ce22e5e3aa1782604051610f039190611c28565b60405180910390a250565b3373ffffffffffffffffffffffffffffffffffffffff1660008054906101000a900473ffffffffffffffffffffffffffffffffffffffff1673ffffffffffffffffffffffffffffffffffffffff1614610f9c576040517f08c379a0000000000000000000000000000000000000000000000000000000008152600401610f9390611daa565b60405180910390fd5b6001600460006101000a81548160ff0219169083151502179055503373ffffffffffffffffffffffffffffffffffffffff167f62e78cea01bee320cd4e420270b5ea74000d11b0c9f74754ebdbfc544b05a25860405160405180910390a2565b606080600460009054906101000a900460ff161561104f576040517f08c379a000000000000000000000000000000000000000000000000000000000815260040161104690611d2a565b60405180910390fd5b600060015411611094576040517f08c379a000000000000000000000000000000000000000000000000000000000815260040161108b90611c8a565b60405180910390fd5b600060015467ffffffffffffffff8111156110d8577f4e487b7100000000000000000000000000000000000000000000000000000000600052604160045260246000fd5b6040519080825280602002602001820160405280156111065781602001602082028036833780820191505090505b509050600060015467ffffffffffffffff81111561114d577f4e487b7100000000000000000000000000000000000000000000000000000000600052604160045260246000fd5b60405190808252806020026020018201604052801561118057816020015b606081526020019060019003908161116b5790505b50905060005b6001548110156113065760018161119d9190611efa565b8382815181106111d6577f4e487b7100000000000000000000000000000000000000000000000000000000600052603260045260246000fd5b6020026020010181815250506003818154811061121c577f4e487b7100000000000000000000000000000000000000000000000000000000600052603260045260246000fd5b9060005260206000200180546112319061200e565b80601f016020809104026020016040519081016040528092919081815260200182805461125d9061200e565b80156112aa5780601f1061127f576101008083540402835291602001916112aa565b820191906000526020600020905b81548152906001019060200180831161128d57829003601f168201915b50505050508282815181106112e8577f4e487b7100000000000000000000000000000000000000000000000000000000600052603260045260246000fd5b602002602001018190525080806112fe90612071565b915050611186565b5081819350935050509091565b600960003373ffffffffffffffffffffffffffffffffffffffff1673ffffffffffffffffffffffffffffffffffffffff16815260200190815260200160002060009054906101000a900460ff16156113a0576040517f08c379a000000000000000000000000000000000000000000000000000000000815260040161139790611d8a565b60405180910390fd5b60128110156113e4576040517f08c379a00000000000000000000000000000000000000000000000000000000081526004016113db90611c4a565b60405180910390fd5b600260008154809291906113f790612071565b919050555060066040518060600160405280600254815260200184815260200183815250908060018154018082558091505060019003906000526020600020906003020160009091909190915060008201518160000155602082015181600101908051906020019061146a9291906115b1565b506040820151816002015550506001600960003373ffffffffffffffffffffffffffffffffffffffff1673ffffffffffffffffffffffffffffffffffffffff16815260200190815260200160002060006101000a81548160ff0219169083151502179055503373ffffffffffffffffffffffffffffffffffffffff166002547fca52e62c367d81bb2e328eb795f7c7ba24afb478408a26c0e201d155c449bc4a846040516115189190611c28565b60405180910390a35050565b8280546115309061200e565b90600052602060002090601f01602090048101928261155257600085556115a0565b82601f1061156357805485556115a0565b828001600101855582156115a057600052602060002091601f016020900482015b8281111561159f578254825591600101919060010190611584565b5b5090506115ad9190611637565b5090565b8280546115bd9061200e565b90600052602060002090601f0160209004810192826115df5760008555611626565b82601f106115f857805160ff1916838001178555611626565b82800160010185558215611626579182015b8281111561162557825182559160200191906001019061160a565b5b5090506116339190611637565b5090565b5b80821115611650576000816000905550600101611638565b5090565b600061166761166284611e0a565b611de5565b90508281526020810184848401111561167f57600080fd5b61168a848285611fcc565b509392505050565b600082601f8301126116a357600080fd5b81356116b3848260208601611654565b91505092915050565b6000813590506116cb816123b6565b92915050565b6000602082840312156116e357600080fd5b600082013567ffffffffffffffff8111156116fd57600080fd5b61170984828501611692565b91505092915050565b6000806040838503121561172557600080fd5b600083013567ffffffffffffffff81111561173f57600080fd5b61174b85828601611692565b925050602061175c858286016116bc565b9150509250929050565b60006020828403121561177857600080fd5b6000611786848285016116bc565b91505092915050565b600061179b838361192b565b905092915050565b60006117af8383611b41565b60208301905092915050565b6117c481611f84565b82525050565b60006117d582611e70565b6117df8185611eab565b9350836020820285016117f185611e3b565b8060005b8581101561182d578484038952815161180e858261178f565b945061181983611e91565b925060208a019950506001810190506117f5565b50829750879550505050505092915050565b600061184a82611e7b565b6118548185611ebc565b935061185f83611e4b565b8060005b8381101561189057815161187788826117a3565b975061188283611e9e565b925050600181019050611863565b5085935050505092915050565b6118a681611f96565b82525050565b600081546118b98161200e565b6118c38186611ecd565b945060018216600081146118de57600181146118ef57611922565b60ff19831686528186019350611922565b6118f885611e5b565b60005b8381101561191a578154818901526001820191506020810190506118fb565b838801955050505b50505092915050565b600061193682611e86565b6119408185611ed8565b9350611950818560208601611fdb565b61195981612147565b840191505092915050565b600061196f82611e86565b6119798185611ee9565b9350611989818560208601611fdb565b61199281612147565b840191505092915050565b60006119aa602d83611ee9565b91506119b582612158565b604082019050919050565b60006119cd601483611ee9565b91506119d8826121a7565b602082019050919050565b60006119f0601583611ee9565b91506119fb826121d0565b602082019050919050565b6000611a13601583611ee9565b9150611a1e826121f9565b602082019050919050565b6000611a36602783611ee9565b9150611a4182612222565b604082019050919050565b6000611a59601b83611ee9565b9150611a6482612271565b602082019050919050565b6000611a7c601b83611ee9565b9150611a878261229a565b602082019050919050565b6000611a9f601683611ee9565b9150611aaa826122c3565b602082019050919050565b6000611ac2601683611ee9565b9150611acd826122ec565b602082019050919050565b6000611ae5601a83611ee9565b9150611af082612315565b602082019050919050565b6000611b08601383611ee9565b9150611b138261233e565b602082019050919050565b6000611b2b602183611ee9565b9150611b3682612367565b604082019050919050565b611b4a81611fc2565b82525050565b611b5981611fc2565b82525050565b6000611b6b82846118ac565b915081905092915050565b6000604082019050611b8b60008301856117bb565b611b986020830184611b50565b9392505050565b60006040820190508181036000830152611bb981856117ca565b90508181036020830152611bcd818461183f565b90509392505050565b60006040820190508181036000830152611bf0818561183f565b90508181036020830152611c0481846117ca565b90509392505050565b6000602082019050611c22600083018461189d565b92915050565b60006020820190508181036000830152611c428184611964565b905092915050565b60006020820190508181036000830152611c638161199d565b9050919050565b60006020820190508181036000830152611c83816119c0565b9050919050565b60006020820190508181036000830152611ca3816119e3565b9050919050565b60006020820190508181036000830152611cc381611a06565b9050919050565b60006020820190508181036000830152611ce381611a29565b9050919050565b60006020820190508181036000830152611d0381611a4c565b9050919050565b60006020820190508181036000830152611d2381611a6f565b9050919050565b60006020820190508181036000830152611d4381611a92565b9050919050565b60006020820190508181036000830152611d6381611ab5565b9050919050565b60006020820190508181036000830152611d8381611ad8565b9050919050565b60006020820190508181036000830152611da381611afb565b9050919050565b60006020820190508181036000830152611dc381611b1e565b9050919050565b6000602082019050611ddf6000830184611b50565b92915050565b6000611def611e00565b9050611dfb8282612040565b919050565b6000604051905090565b600067ffffffffffffffff821115611e2557611e24612118565b5b611e2e82612147565b9050602081019050919050565b6000819050602082019050919050565b6000819050602082019050919050565b60008190508160005260206000209050919050565b600081519050919050565b600081519050919050565b600081519050919050565b6000602082019050919050565b6000602082019050919050565b600082825260208201905092915050565b600082825260208201905092915050565b600081905092915050565b600082825260208201905092915050565b600082825260208201905092915050565b6000611f0582611fc2565b9150611f1083611fc2565b9250827fffffffffffffffffffffffffffffffffffffffffffffffffffffffffffffffff03821115611f4557611f446120ba565b5b828201905092915050565b6000611f5b82611fc2565b9150611f6683611fc2565b925082821015611f7957611f786120ba565b5b828203905092915050565b6000611f8f82611fa2565b9050919050565b60008115159050919050565b600073ffffffffffffffffffffffffffffffffffffffff82169050919050565b6000819050919050565b82818337600083830152505050565b60005b83811015611ff9578082015181840152602081019050611fde565b83811115612008576000848401525b50505050565b6000600282049050600182168061202657607f821691505b6020821081141561203a576120396120e9565b5b50919050565b61204982612147565b810181811067ffffffffffffffff8211171561206857612067612118565b5b80604052505050565b600061207c82611fc2565b91507fffffffffffffffffffffffffffffffffffffffffffffffffffffffffffffffff8214156120af576120ae6120ba565b5b600182019050919050565b7f4e487b7100000000000000000000000000000000000000000000000000000000600052601160045260246000fd5b7f4e487b7100000000000000000000000000000000000000000000000000000000600052602260045260246000fd5b7f4e487b7100000000000000000000000000000000000000000000000000000000600052604160045260246000fd5b6000601f19601f8301169050919050565b7f75736572206167652062656c6f772031382063616e277420726567697374657260008201527f20666f722074686520766f746500000000000000000000000000000000000000602082015250565b7f4e6f206f6e652068617320766f74656420796574000000000000000000000000600082015250565b7f4e6f2063616e6469646174657320746f20766965770000000000000000000000600082015250565b7f75736572206861736e277420766f746564207965740000000000000000000000600082015250565b7f7468657265206973206e6f20636f6e74657374616e742077697468207468697360008201527f206e756d62657200000000000000000000000000000000000000000000000000602082015250565b7f6e616d652068617320616c7265616479206265656e2061646465640000000000600082015250565b7f4e6f2063616e64696461746520686173206265656e2061646465640000000000600082015250565b7f74686520636f6e74726163742069732070617573656400000000000000000000600082015250565b7f757365722068617320766f74656420616c726561647900000000000000000000600082015250565b7f75736572206861736e2774207265676973746572656420796574000000000000600082015250565b7f7573657220686173207265676973746572656400000000000000000000000000600082015250565b7f4f6e6c79204f776e65722063616e2063616c6c20746869732066756e6374696f60008201527f6e00000000000000000000000000000000000000000000000000000000000000602082015250565b6123bf81611fc2565b81146123ca57600080fd5b5056fea26469706673582212206cb7702e1241949e7c2667e432a57a0629fd73e698cf18212aa98420671a110464736f6c63430008030033",
					"opcodes": "PUSH1 0x80 PUSH1 0x40 MSTORE CALLVALUE DUP1 ISZERO PUSH2 0x10 JUMPI PUSH1 0x0 DUP1 REVERT JUMPDEST POP CALLER PUSH1 0x0 DUP1 PUSH2 0x100 EXP DUP2 SLOAD DUP2 PUSH20 0xFFFFFFFFFFFFFFFFFFFFFFFFFFFFFFFFFFFFFFFF MUL NOT AND SWAP1 DUP4 PUSH20 0xFFFFFFFFFFFFFFFFFFFFFFFFFFFFFFFFFFFFFFFF AND MUL OR SWAP1 SSTORE POP PUSH1 0x1 PUSH1 0x4 PUSH1 0x0 PUSH2 0x100 EXP DUP2 SLOAD DUP2 PUSH1 0xFF MUL NOT AND SWAP1 DUP4 ISZERO ISZERO MUL OR SWAP1 SSTORE POP PUSH2 0x2403 DUP1 PUSH2 0x7B PUSH1 0x0 CODECOPY PUSH1 0x0 RETURN INVALID PUSH1 0x80 PUSH1 0x40 MSTORE CALLVALUE DUP1 ISZERO PUSH2 0x10 JUMPI PUSH1 0x0 DUP1 REVERT JUMPDEST POP PUSH1 0x4 CALLDATASIZE LT PUSH2 0xCF JUMPI PUSH1 0x0 CALLDATALOAD PUSH1 0xE0 SHR DUP1 PUSH4 0x5B72565B GT PUSH2 0x8C JUMPI DUP1 PUSH4 0x832C0ACA GT PUSH2 0x66 JUMPI DUP1 PUSH4 0x832C0ACA EQ PUSH2 0x1CD JUMPI DUP1 PUSH4 0x8456CB59 EQ PUSH2 0x1E9 JUMPI DUP1 PUSH4 0xD30F11DD EQ PUSH2 0x1F3 JUMPI DUP1 PUSH4 0xEA87152B EQ PUSH2 0x212 JUMPI PUSH2 0xCF JUMP JUMPDEST DUP1 PUSH4 0x5B72565B EQ PUSH2 0x173 JUMPI DUP1 PUSH4 0x6C699905 EQ PUSH2 0x191 JUMPI DUP1 PUSH4 0x7AAD8C80 EQ PUSH2 0x1AF JUMPI PUSH2 0xCF JUMP JUMPDEST DUP1 PUSH4 0x121B93F EQ PUSH2 0xD4 JUMPI DUP1 PUSH4 0xD15FD77 EQ PUSH2 0xF0 JUMPI DUP1 PUSH4 0x238488FD EQ PUSH2 0x10E JUMPI DUP1 PUSH4 0x3F4BA83A EQ PUSH2 0x12C JUMPI DUP1 PUSH4 0x54E70CAE EQ PUSH2 0x136 JUMPI DUP1 PUSH4 0x57DF6CA3 EQ PUSH2 0x155 JUMPI JUMPDEST PUSH1 0x0 DUP1 REVERT JUMPDEST PUSH2 0xEE PUSH1 0x4 DUP1 CALLDATASIZE SUB DUP2 ADD SWAP1 PUSH2 0xE9 SWAP2 SWAP1 PUSH2 0x1766 JUMP JUMPDEST PUSH2 0x22E JUMP JUMPDEST STOP JUMPDEST PUSH2 0xF8 PUSH2 0x52B JUMP JUMPDEST PUSH1 0x40 MLOAD PUSH2 0x105 SWAP2 SWAP1 PUSH2 0x1DCA JUMP JUMPDEST PUSH1 0x40 MLOAD DUP1 SWAP2 SUB SWAP1 RETURN JUMPDEST PUSH2 0x116 PUSH2 0x531 JUMP JUMPDEST PUSH1 0x40 MLOAD PUSH2 0x123 SWAP2 SWAP1 PUSH2 0x1C28 JUMP JUMPDEST PUSH1 0x40 MLOAD DUP1 SWAP2 SUB SWAP1 RETURN JUMPDEST PUSH2 0x134 PUSH2 0x68C JUMP JUMPDEST STOP JUMPDEST PUSH2 0x13E PUSH2 0x77A JUMP JUMPDEST PUSH1 0x40 MLOAD PUSH2 0x14C SWAP3 SWAP2 SWAP1 PUSH2 0x1B9F JUMP JUMPDEST PUSH1 0x40 MLOAD DUP1 SWAP2 SUB SWAP1 RETURN JUMPDEST PUSH2 0x15D PUSH2 0xA72 JUMP JUMPDEST PUSH1 0x40 MLOAD PUSH2 0x16A SWAP2 SWAP1 PUSH2 0x1C0D JUMP JUMPDEST PUSH1 0x40 MLOAD DUP1 SWAP2 SUB SWAP1 RETURN JUMPDEST PUSH2 0x17B PUSH2 0xA85 JUMP JUMPDEST PUSH1 0x40 MLOAD PUSH2 0x188 SWAP2 SWAP1 PUSH2 0x1DCA JUMP JUMPDEST PUSH1 0x40 MLOAD DUP1 SWAP2 SUB SWAP1 RETURN JUMPDEST PUSH2 0x199 PUSH2 0xA8B JUMP JUMPDEST PUSH1 0x40 MLOAD PUSH2 0x1A6 SWAP2 SWAP1 PUSH2 0x1C28 JUMP JUMPDEST PUSH1 0x40 MLOAD DUP1 SWAP2 SUB SWAP1 RETURN JUMPDEST PUSH2 0x1B7 PUSH2 0xCF9 JUMP JUMPDEST PUSH1 0x40 MLOAD PUSH2 0x1C4 SWAP2 SWAP1 PUSH2 0x1DCA JUMP JUMPDEST PUSH1 0x40 MLOAD DUP1 SWAP2 SUB SWAP1 RETURN JUMPDEST PUSH2 0x1E7 PUSH1 0x4 DUP1 CALLDATASIZE SUB DUP2 ADD SWAP1 PUSH2 0x1E2 SWAP2 SWAP1 PUSH2 0x16D1 JUMP JUMPDEST PUSH2 0xCFF JUMP JUMPDEST STOP JUMPDEST PUSH2 0x1F1 PUSH2 0xF0E JUMP JUMPDEST STOP JUMPDEST PUSH2 0x1FB PUSH2 0xFFC JUMP JUMPDEST PUSH1 0x40 MLOAD PUSH2 0x209 SWAP3 SWAP2 SWAP1 PUSH2 0x1BD6 JUMP JUMPDEST PUSH1 0x40 MLOAD DUP1 SWAP2 SUB SWAP1 RETURN JUMPDEST PUSH2 0x22C PUSH1 0x4 DUP1 CALLDATASIZE SUB DUP2 ADD SWAP1 PUSH2 0x227 SWAP2 SWAP1 PUSH2 0x1712 JUMP JUMPDEST PUSH2 0x1313 JUMP JUMPDEST STOP JUMPDEST PUSH1 0x4 PUSH1 0x0 SWAP1 SLOAD SWAP1 PUSH2 0x100 EXP SWAP1 DIV PUSH1 0xFF AND ISZERO PUSH2 0x27E JUMPI PUSH1 0x40 MLOAD PUSH32 0x8C379A000000000000000000000000000000000000000000000000000000000 DUP2 MSTORE PUSH1 0x4 ADD PUSH2 0x275 SWAP1 PUSH2 0x1D2A JUMP JUMPDEST PUSH1 0x40 MLOAD DUP1 SWAP2 SUB SWAP1 REVERT JUMPDEST PUSH1 0x0 DUP2 EQ ISZERO DUP1 ISZERO PUSH2 0x291 JUMPI POP PUSH1 0x1 SLOAD DUP2 GT ISZERO JUMPDEST PUSH2 0x2D0 JUMPI PUSH1 0x40 MLOAD PUSH32 0x8C379A000000000000000000000000000000000000000000000000000000000 DUP2 MSTORE PUSH1 0x4 ADD PUSH2 0x2C7 SWAP1 PUSH2 0x1CCA JUMP JUMPDEST PUSH1 0x40 MLOAD DUP1 SWAP2 SUB SWAP1 REVERT JUMPDEST PUSH1 0x9 PUSH1 0x0 CALLER PUSH20 0xFFFFFFFFFFFFFFFFFFFFFFFFFFFFFFFFFFFFFFFF AND PUSH20 0xFFFFFFFFFFFFFFFFFFFFFFFFFFFFFFFFFFFFFFFF AND DUP2 MSTORE PUSH1 0x20 ADD SWAP1 DUP2 MSTORE PUSH1 0x20 ADD PUSH1 0x0 KECCAK256 PUSH1 0x0 SWAP1 SLOAD SWAP1 PUSH2 0x100 EXP SWAP1 DIV PUSH1 0xFF AND PUSH2 0x35C JUMPI PUSH1 0x40 MLOAD PUSH32 0x8C379A000000000000000000000000000000000000000000000000000000000 DUP2 MSTORE PUSH1 0x4 ADD PUSH2 0x353 SWAP1 PUSH2 0x1D6A JUMP JUMPDEST PUSH1 0x40 MLOAD DUP1 SWAP2 SUB SWAP1 REVERT JUMPDEST PUSH1 0x8 PUSH1 0x0 CALLER PUSH20 0xFFFFFFFFFFFFFFFFFFFFFFFFFFFFFFFFFFFFFFFF AND PUSH20 0xFFFFFFFFFFFFFFFFFFFFFFFFFFFFFFFFFFFFFFFF AND DUP2 MSTORE PUSH1 0x20 ADD SWAP1 DUP2 MSTORE PUSH1 0x20 ADD PUSH1 0x0 KECCAK256 PUSH1 0x0 SWAP1 SLOAD SWAP1 PUSH2 0x100 EXP SWAP1 DIV PUSH1 0xFF AND ISZERO PUSH2 0x3E9 JUMPI PUSH1 0x40 MLOAD PUSH32 0x8C379A000000000000000000000000000000000000000000000000000000000 DUP2 MSTORE PUSH1 0x4 ADD PUSH2 0x3E0 SWAP1 PUSH2 0x1D4A JUMP JUMPDEST PUSH1 0x40 MLOAD DUP1 SWAP2 SUB SWAP1 REVERT JUMPDEST PUSH1 0x5 PUSH1 0x0 DUP2 SLOAD DUP1 SWAP3 SWAP2 SWAP1 PUSH2 0x3FC SWAP1 PUSH2 0x2071 JUMP JUMPDEST SWAP2 SWAP1 POP SSTORE POP PUSH1 0xA PUSH1 0x0 DUP3 DUP2 MSTORE PUSH1 0x20 ADD SWAP1 DUP2 MSTORE PUSH1 0x20 ADD PUSH1 0x0 KECCAK256 PUSH1 0x0 DUP2 SLOAD DUP1 SWAP3 SWAP2 SWAP1 PUSH2 0x425 SWAP1 PUSH2 0x2071 JUMP JUMPDEST SWAP2 SWAP1 POP SSTORE POP PUSH1 0x7 PUSH1 0x0 DUP3 DUP2 MSTORE PUSH1 0x20 ADD SWAP1 DUP2 MSTORE PUSH1 0x20 ADD PUSH1 0x0 KECCAK256 PUSH1 0xB PUSH1 0x0 CALLER PUSH20 0xFFFFFFFFFFFFFFFFFFFFFFFFFFFFFFFFFFFFFFFF AND PUSH20 0xFFFFFFFFFFFFFFFFFFFFFFFFFFFFFFFFFFFFFFFF AND DUP2 MSTORE PUSH1 0x20 ADD SWAP1 DUP2 MSTORE PUSH1 0x20 ADD PUSH1 0x0 KECCAK256 SWAP1 DUP1 SLOAD PUSH2 0x488 SWAP1 PUSH2 0x200E JUMP JUMPDEST PUSH2 0x493 SWAP3 SWAP2 SWAP1 PUSH2 0x1524 JUMP JUMPDEST POP PUSH1 0x1 PUSH1 0x8 PUSH1 0x0 CALLER PUSH20 0xFFFFFFFFFFFFFFFFFFFFFFFFFFFFFFFFFFFFFFFF AND PUSH20 0xFFFFFFFFFFFFFFFFFFFFFFFFFFFFFFFFFFFFFFFF AND DUP2 MSTORE PUSH1 0x20 ADD SWAP1 DUP2 MSTORE PUSH1 0x20 ADD PUSH1 0x0 KECCAK256 PUSH1 0x0 PUSH2 0x100 EXP DUP2 SLOAD DUP2 PUSH1 0xFF MUL NOT AND SWAP1 DUP4 ISZERO ISZERO MUL OR SWAP1 SSTORE POP DUP1 PUSH32 0x1ABE610CF2BF87E57DCC1181FCF5AC0934E843D8344AB9EED6E86C799F62585E CALLER PUSH1 0x5 SLOAD PUSH1 0x40 MLOAD PUSH2 0x520 SWAP3 SWAP2 SWAP1 PUSH2 0x1B76 JUMP JUMPDEST PUSH1 0x40 MLOAD DUP1 SWAP2 SUB SWAP1 LOG2 POP JUMP JUMPDEST PUSH1 0x5 SLOAD DUP2 JUMP JUMPDEST PUSH1 0x60 PUSH1 0x8 PUSH1 0x0 CALLER PUSH20 0xFFFFFFFFFFFFFFFFFFFFFFFFFFFFFFFFFFFFFFFF AND PUSH20 0xFFFFFFFFFFFFFFFFFFFFFFFFFFFFFFFFFFFFFFFF AND DUP2 MSTORE PUSH1 0x20 ADD SWAP1 DUP2 MSTORE PUSH1 0x20 ADD PUSH1 0x0 KECCAK256 PUSH1 0x0 SWAP1 SLOAD SWAP1 PUSH2 0x100 EXP SWAP1 DIV PUSH1 0xFF AND PUSH2 0x5BF JUMPI PUSH1 0x40 MLOAD PUSH32 0x8C379A000000000000000000000000000000000000000000000000000000000 DUP2 MSTORE PUSH1 0x4 ADD PUSH2 0x5B6 SWAP1 PUSH2 0x1CAA JUMP JUMPDEST PUSH1 0x40 MLOAD DUP1 SWAP2 SUB SWAP1 REVERT JUMPDEST PUSH1 0xB PUSH1 0x0 CALLER PUSH20 0xFFFFFFFFFFFFFFFFFFFFFFFFFFFFFFFFFFFFFFFF AND PUSH20 0xFFFFFFFFFFFFFFFFFFFFFFFFFFFFFFFFFFFFFFFF AND DUP2 MSTORE PUSH1 0x20 ADD SWAP1 DUP2 MSTORE PUSH1 0x20 ADD PUSH1 0x0 KECCAK256 DUP1 SLOAD PUSH2 0x609 SWAP1 PUSH2 0x200E JUMP JUMPDEST DUP1 PUSH1 0x1F ADD PUSH1 0x20 DUP1 SWAP2 DIV MUL PUSH1 0x20 ADD PUSH1 0x40 MLOAD SWAP1 DUP2 ADD PUSH1 0x40 MSTORE DUP1 SWAP3 SWAP2 SWAP1 DUP2 DUP2 MSTORE PUSH1 0x20 ADD DUP3 DUP1 SLOAD PUSH2 0x635 SWAP1 PUSH2 0x200E JUMP JUMPDEST DUP1 ISZERO PUSH2 0x682 JUMPI DUP1 PUSH1 0x1F LT PUSH2 0x657 JUMPI PUSH2 0x100 DUP1 DUP4 SLOAD DIV MUL DUP4 MSTORE SWAP2 PUSH1 0x20 ADD SWAP2 PUSH2 0x682 JUMP JUMPDEST DUP3 ADD SWAP2 SWAP1 PUSH1 0x0 MSTORE PUSH1 0x20 PUSH1 0x0 KECCAK256 SWAP1 JUMPDEST DUP2 SLOAD DUP2 MSTORE SWAP1 PUSH1 0x1 ADD SWAP1 PUSH1 0x20 ADD DUP1 DUP4 GT PUSH2 0x665 JUMPI DUP3 SWAP1 SUB PUSH1 0x1F AND DUP3 ADD SWAP2 JUMPDEST POP POP POP POP POP SWAP1 POP SWAP1 JUMP JUMPDEST CALLER PUSH20 0xFFFFFFFFFFFFFFFFFFFFFFFFFFFFFFFFFFFFFFFF AND PUSH1 0x0 DUP1 SLOAD SWAP1 PUSH2 0x100 EXP SWAP1 DIV PUSH20 0xFFFFFFFFFFFFFFFFFFFFFFFFFFFFFFFFFFFFFFFF AND PUSH20 0xFFFFFFFFFFFFFFFFFFFFFFFFFFFFFFFFFFFFFFFF AND EQ PUSH2 0x71A JUMPI PUSH1 0x40 MLOAD PUSH32 0x8C379A000000000000000000000000000000000000000000000000000000000 DUP2 MSTORE PUSH1 0x4 ADD PUSH2 0x711 SWAP1 PUSH2 0x1DAA JUMP JUMPDEST PUSH1 0x40 MLOAD DUP1 SWAP2 SUB SWAP1 REVERT JUMPDEST PUSH1 0x0 PUSH1 0x4 PUSH1 0x0 PUSH2 0x100 EXP DUP2 SLOAD DUP2 PUSH1 0xFF MUL NOT AND SWAP1 DUP4 ISZERO ISZERO MUL OR SWAP1 SSTORE POP CALLER PUSH20 0xFFFFFFFFFFFFFFFFFFFFFFFFFFFFFFFFFFFFFFFF AND PUSH32 0x5DB9EE0A495BF2E6FF9C91A7834C1BA4FDD244A5E8AA4E537BD38AEAE4B073AA PUSH1 0x40 MLOAD PUSH1 0x40 MLOAD DUP1 SWAP2 SUB SWAP1 LOG2 JUMP JUMPDEST PUSH1 0x60 DUP1 CALLER PUSH20 0xFFFFFFFFFFFFFFFFFFFFFFFFFFFFFFFFFFFFFFFF AND PUSH1 0x0 DUP1 SLOAD SWAP1 PUSH2 0x100 EXP SWAP1 DIV PUSH20 0xFFFFFFFFFFFFFFFFFFFFFFFFFFFFFFFFFFFFFFFF AND PUSH20 0xFFFFFFFFFFFFFFFFFFFFFFFFFFFFFFFFFFFFFFFF AND EQ PUSH2 0x80B JUMPI PUSH1 0x40 MLOAD PUSH32 0x8C379A000000000000000000000000000000000000000000000000000000000 DUP2 MSTORE PUSH1 0x4 ADD PUSH2 0x802 SWAP1 PUSH2 0x1DAA JUMP JUMPDEST PUSH1 0x40 MLOAD DUP1 SWAP2 SUB SWAP1 REVERT JUMPDEST PUSH1 0x0 PUSH1 0x1 SLOAD GT PUSH2 0x850 JUMPI PUSH1 0x40 MLOAD PUSH32 0x8C379A000000000000000000000000000000000000000000000000000000000 DUP2 MSTORE PUSH1 0x4 ADD PUSH2 0x847 SWAP1 PUSH2 0x1D0A JUMP JUMPDEST PUSH1 0x40 MLOAD DUP1 SWAP2 SUB SWAP1 REVERT JUMPDEST PUSH1 0x0 PUSH1 0x5 SLOAD GT PUSH2 0x895 JUMPI PUSH1 0x40 MLOAD PUSH32 0x8C379A000000000000000000000000000000000000000000000000000000000 DUP2 MSTORE PUSH1 0x4 ADD PUSH2 0x88C SWAP1 PUSH2 0x1C6A JUMP JUMPDEST PUSH1 0x40 MLOAD DUP1 SWAP2 SUB SWAP1 REVERT JUMPDEST PUSH1 0x0 PUSH1 0x1 SLOAD PUSH8 0xFFFFFFFFFFFFFFFF DUP2 GT ISZERO PUSH2 0x8D9 JUMPI PUSH32 0x4E487B7100000000000000000000000000000000000000000000000000000000 PUSH1 0x0 MSTORE PUSH1 0x41 PUSH1 0x4 MSTORE PUSH1 0x24 PUSH1 0x0 REVERT JUMPDEST PUSH1 0x40 MLOAD SWAP1 DUP1 DUP3 MSTORE DUP1 PUSH1 0x20 MUL PUSH1 0x20 ADD DUP3 ADD PUSH1 0x40 MSTORE DUP1 ISZERO PUSH2 0x907 JUMPI DUP2 PUSH1 0x20 ADD PUSH1 0x20 DUP3 MUL DUP1 CALLDATASIZE DUP4 CALLDATACOPY DUP1 DUP3 ADD SWAP2 POP POP SWAP1 POP JUMPDEST POP SWAP1 POP PUSH1 0x0 PUSH1 0x1 SWAP1 POP JUMPDEST PUSH1 0x1 SLOAD DUP2 GT PUSH2 0x992 JUMPI PUSH1 0xA PUSH1 0x0 DUP3 DUP2 MSTORE PUSH1 0x20 ADD SWAP1 DUP2 MSTORE PUSH1 0x20 ADD PUSH1 0x0 KECCAK256 SLOAD DUP3 PUSH1 0x1 DUP4 PUSH2 0x93C SWAP2 SWAP1 PUSH2 0x1F50 JUMP JUMPDEST DUP2 MLOAD DUP2 LT PUSH2 0x973 JUMPI PUSH32 0x4E487B7100000000000000000000000000000000000000000000000000000000 PUSH1 0x0 MSTORE PUSH1 0x32 PUSH1 0x4 MSTORE PUSH1 0x24 PUSH1 0x0 REVERT JUMPDEST PUSH1 0x20 MUL PUSH1 0x20 ADD ADD DUP2 DUP2 MSTORE POP POP DUP1 DUP1 PUSH2 0x98A SWAP1 PUSH2 0x2071 JUMP JUMPDEST SWAP2 POP POP PUSH2 0x911 JUMP JUMPDEST POP PUSH1 0x3 DUP2 DUP2 DUP1 SLOAD DUP1 PUSH1 0x20 MUL PUSH1 0x20 ADD PUSH1 0x40 MLOAD SWAP1 DUP2 ADD PUSH1 0x40 MSTORE DUP1 SWAP3 SWAP2 SWAP1 DUP2 DUP2 MSTORE PUSH1 0x20 ADD PUSH1 0x0 SWAP1 JUMPDEST DUP3 DUP3 LT ISZERO PUSH2 0xA63 JUMPI DUP4 DUP3 SWAP1 PUSH1 0x0 MSTORE PUSH1 0x20 PUSH1 0x0 KECCAK256 ADD DUP1 SLOAD PUSH2 0x9D6 SWAP1 PUSH2 0x200E JUMP JUMPDEST DUP1 PUSH1 0x1F ADD PUSH1 0x20 DUP1 SWAP2 DIV MUL PUSH1 0x20 ADD PUSH1 0x40 MLOAD SWAP1 DUP2 ADD PUSH1 0x40 MSTORE DUP1 SWAP3 SWAP2 SWAP1 DUP2 DUP2 MSTORE PUSH1 0x20 ADD DUP3 DUP1 SLOAD PUSH2 0xA02 SWAP1 PUSH2 0x200E JUMP JUMPDEST DUP1 ISZERO PUSH2 0xA4F JUMPI DUP1 PUSH1 0x1F LT PUSH2 0xA24 JUMPI PUSH2 0x100 DUP1 DUP4 SLOAD DIV MUL DUP4 MSTORE SWAP2 PUSH1 0x20 ADD SWAP2 PUSH2 0xA4F JUMP JUMPDEST DUP3 ADD SWAP2 SWAP1 PUSH1 0x0 MSTORE PUSH1 0x20 PUSH1 0x0 KECCAK256 SWAP1 JUMPDEST DUP2 SLOAD DUP2 MSTORE SWAP1 PUSH1 0x1 ADD SWAP1 PUSH1 0x20 ADD DUP1 DUP4 GT PUSH2 0xA32 JUMPI DUP3 SWAP1 SUB PUSH1 0x1F AND DUP3 ADD SWAP2 JUMPDEST POP POP POP POP POP DUP2 MSTORE PUSH1 0x20 ADD SWAP1 PUSH1 0x1 ADD SWAP1 PUSH2 0x9B7 JUMP JUMPDEST POP POP POP POP SWAP2 POP SWAP3 POP SWAP3 POP POP SWAP1 SWAP2 JUMP JUMPDEST PUSH1 0x4 PUSH1 0x0 SWAP1 SLOAD SWAP1 PUSH2 0x100 EXP SWAP1 DIV PUSH1 0xFF AND DUP2 JUMP JUMPDEST PUSH1 0x2 SLOAD DUP2 JUMP JUMPDEST PUSH1 0x60 CALLER PUSH20 0xFFFFFFFFFFFFFFFFFFFFFFFFFFFFFFFFFFFFFFFF AND PUSH1 0x0 DUP1 SLOAD SWAP1 PUSH2 0x100 EXP SWAP1 DIV PUSH20 0xFFFFFFFFFFFFFFFFFFFFFFFFFFFFFFFFFFFFFFFF AND PUSH20 0xFFFFFFFFFFFFFFFFFFFFFFFFFFFFFFFFFFFFFFFF AND EQ PUSH2 0xB1B JUMPI PUSH1 0x40 MLOAD PUSH32 0x8C379A000000000000000000000000000000000000000000000000000000000 DUP2 MSTORE PUSH1 0x4 ADD PUSH2 0xB12 SWAP1 PUSH2 0x1DAA JUMP JUMPDEST PUSH1 0x40 MLOAD DUP1 SWAP2 SUB SWAP1 REVERT JUMPDEST PUSH1 0x0 PUSH1 0x5 SLOAD GT PUSH2 0xB60 JUMPI PUSH1 0x40 MLOAD PUSH32 0x8C379A000000000000000000000000000000000000000000000000000000000 DUP2 MSTORE PUSH1 0x4 ADD PUSH2 0xB57 SWAP1 PUSH2 0x1C6A JUMP JUMPDEST PUSH1 0x40 MLOAD DUP1 SWAP2 SUB SWAP1 REVERT JUMPDEST PUSH1 0x0 DUP1 PUSH1 0x0 PUSH1 0x1 SWAP1 POP JUMPDEST PUSH1 0x1 SLOAD DUP2 GT PUSH2 0xBBB JUMPI DUP3 PUSH1 0xA PUSH1 0x0 DUP4 DUP2 MSTORE PUSH1 0x20 ADD SWAP1 DUP2 MSTORE PUSH1 0x20 ADD PUSH1 0x0 KECCAK256 SLOAD GT ISZERO PUSH2 0xBA8 JUMPI PUSH1 0xA PUSH1 0x0 DUP3 DUP2 MSTORE PUSH1 0x20 ADD SWAP1 DUP2 MSTORE PUSH1 0x20 ADD PUSH1 0x0 KECCAK256 SLOAD SWAP3 POP DUP1 SWAP2 POP JUMPDEST DUP1 DUP1 PUSH2 0xBB3 SWAP1 PUSH2 0x2071 JUMP JUMPDEST SWAP2 POP POP PUSH2 0xB6A JUMP JUMPDEST POP PUSH1 0x0 DUP1 PUSH1 0x1 SWAP1 POP JUMPDEST PUSH1 0x1 SLOAD DUP2 GT PUSH2 0xC0A JUMPI DUP4 PUSH1 0xA PUSH1 0x0 DUP4 DUP2 MSTORE PUSH1 0x20 ADD SWAP1 DUP2 MSTORE PUSH1 0x20 ADD PUSH1 0x0 KECCAK256 SLOAD EQ ISZERO PUSH2 0xBF7 JUMPI DUP2 DUP1 PUSH2 0xBF3 SWAP1 PUSH2 0x2071 JUMP JUMPDEST SWAP3 POP POP JUMPDEST DUP1 DUP1 PUSH2 0xC02 SWAP1 PUSH2 0x2071 JUMP JUMPDEST SWAP2 POP POP PUSH2 0xBC4 JUMP JUMPDEST POP PUSH1 0x1 DUP2 GT ISZERO PUSH2 0xC54 JUMPI PUSH1 0x40 MLOAD DUP1 PUSH1 0x40 ADD PUSH1 0x40 MSTORE DUP1 PUSH1 0x14 DUP2 MSTORE PUSH1 0x20 ADD PUSH32 0x746865726520686173206265656E206120746965000000000000000000000000 DUP2 MSTORE POP SWAP4 POP POP POP POP PUSH2 0xCF6 JUMP JUMPDEST PUSH1 0x7 PUSH1 0x0 DUP4 DUP2 MSTORE PUSH1 0x20 ADD SWAP1 DUP2 MSTORE PUSH1 0x20 ADD PUSH1 0x0 KECCAK256 DUP1 SLOAD PUSH2 0xC72 SWAP1 PUSH2 0x200E JUMP JUMPDEST DUP1 PUSH1 0x1F ADD PUSH1 0x20 DUP1 SWAP2 DIV MUL PUSH1 0x20 ADD PUSH1 0x40 MLOAD SWAP1 DUP2 ADD PUSH1 0x40 MSTORE DUP1 SWAP3 SWAP2 SWAP1 DUP2 DUP2 MSTORE PUSH1 0x20 ADD DUP3 DUP1 SLOAD PUSH2 0xC9E SWAP1 PUSH2 0x200E JUMP JUMPDEST DUP1 ISZERO PUSH2 0xCEB JUMPI DUP1 PUSH1 0x1F LT PUSH2 0xCC0 JUMPI PUSH2 0x100 DUP1 DUP4 SLOAD DIV MUL DUP4 MSTORE SWAP2 PUSH1 0x20 ADD SWAP2 PUSH2 0xCEB JUMP JUMPDEST DUP3 ADD SWAP2 SWAP1 PUSH1 0x0 MSTORE PUSH1 0x20 PUSH1 0x0 KECCAK256 SWAP1 JUMPDEST DUP2 SLOAD DUP2 MSTORE SWAP1 PUSH1 0x1 ADD SWAP1 PUSH1 0x20 ADD DUP1 DUP4 GT PUSH2 0xCCE JUMPI DUP3 SWAP1 SUB PUSH1 0x1F AND DUP3 ADD SWAP2 JUMPDEST POP POP POP POP POP SWAP4 POP POP POP POP JUMPDEST SWAP1 JUMP JUMPDEST PUSH1 0x1 SLOAD DUP2 JUMP JUMPDEST CALLER PUSH20 0xFFFFFFFFFFFFFFFFFFFFFFFFFFFFFFFFFFFFFFFF AND PUSH1 0x0 DUP1 SLOAD SWAP1 PUSH2 0x100 EXP SWAP1 DIV PUSH20 0xFFFFFFFFFFFFFFFFFFFFFFFFFFFFFFFFFFFFFFFF AND PUSH20 0xFFFFFFFFFFFFFFFFFFFFFFFFFFFFFFFFFFFFFFFF AND EQ PUSH2 0xD8D JUMPI PUSH1 0x40 MLOAD PUSH32 0x8C379A000000000000000000000000000000000000000000000000000000000 DUP2 MSTORE PUSH1 0x4 ADD PUSH2 0xD84 SWAP1 PUSH2 0x1DAA JUMP JUMPDEST PUSH1 0x40 MLOAD DUP1 SWAP2 SUB SWAP1 REVERT JUMPDEST PUSH1 0x0 JUMPDEST PUSH1 0x3 DUP1 SLOAD SWAP1 POP DUP2 LT ISZERO PUSH2 0xE52 JUMPI PUSH1 0x3 DUP2 DUP2 SLOAD DUP2 LT PUSH2 0xDD7 JUMPI PUSH32 0x4E487B7100000000000000000000000000000000000000000000000000000000 PUSH1 0x0 MSTORE PUSH1 0x32 PUSH1 0x4 MSTORE PUSH1 0x24 PUSH1 0x0 REVERT JUMPDEST SWAP1 PUSH1 0x0 MSTORE PUSH1 0x20 PUSH1 0x0 KECCAK256 ADD PUSH1 0x40 MLOAD PUSH2 0xDEE SWAP2 SWAP1 PUSH2 0x1B5F JUMP JUMPDEST PUSH1 0x40 MLOAD DUP1 SWAP2 SUB SWAP1 KECCAK256 DUP3 DUP1 MLOAD SWAP1 PUSH1 0x20 ADD KECCAK256 EQ ISZERO PUSH2 0xE3F JUMPI PUSH1 0x40 MLOAD PUSH32 0x8C379A000000000000000000000000000000000000000000000000000000000 DUP2 MSTORE PUSH1 0x4 ADD PUSH2 0xE36 SWAP1 PUSH2 0x1CEA JUMP JUMPDEST PUSH1 0x40 MLOAD DUP1 SWAP2 SUB SWAP1 REVERT JUMPDEST DUP1 DUP1 PUSH2 0xE4A SWAP1 PUSH2 0x2071 JUMP JUMPDEST SWAP2 POP POP PUSH2 0xD90 JUMP JUMPDEST POP PUSH1 0x1 PUSH1 0x0 DUP2 SLOAD DUP1 SWAP3 SWAP2 SWAP1 PUSH2 0xE66 SWAP1 PUSH2 0x2071 JUMP JUMPDEST SWAP2 SWAP1 POP SSTORE POP PUSH1 0x3 DUP2 SWAP1 DUP1 PUSH1 0x1 DUP2 SLOAD ADD DUP1 DUP3 SSTORE DUP1 SWAP2 POP POP PUSH1 0x1 SWAP1 SUB SWAP1 PUSH1 0x0 MSTORE PUSH1 0x20 PUSH1 0x0 KECCAK256 ADD PUSH1 0x0 SWAP1 SWAP2 SWAP1 SWAP2 SWAP1 SWAP2 POP SWAP1 DUP1 MLOAD SWAP1 PUSH1 0x20 ADD SWAP1 PUSH2 0xEA6 SWAP3 SWAP2 SWAP1 PUSH2 0x15B1 JUMP JUMPDEST POP DUP1 PUSH1 0x7 PUSH1 0x0 PUSH1 0x1 SLOAD DUP2 MSTORE PUSH1 0x20 ADD SWAP1 DUP2 MSTORE PUSH1 0x20 ADD PUSH1 0x0 KECCAK256 SWAP1 DUP1 MLOAD SWAP1 PUSH1 0x20 ADD SWAP1 PUSH2 0xED0 SWAP3 SWAP2 SWAP1 PUSH2 0x15B1 JUMP JUMPDEST POP PUSH1 0x1 SLOAD PUSH32 0x56F6C29D2EB99F40E2A206309DC37F2CFF01A5755A4683E3C2B0CE22E5E3AA17 DUP3 PUSH1 0x40 MLOAD PUSH2 0xF03 SWAP2 SWAP1 PUSH2 0x1C28 JUMP JUMPDEST PUSH1 0x40 MLOAD DUP1 SWAP2 SUB SWAP1 LOG2 POP JUMP JUMPDEST CALLER PUSH20 0xFFFFFFFFFFFFFFFFFFFFFFFFFFFFFFFFFFFFFFFF AND PUSH1 0x0 DUP1 SLOAD SWAP1 PUSH2 0x100 EXP SWAP1 DIV PUSH20 0xFFFFFFFFFFFFFFFFFFFFFFFFFFFFFFFFFFFFFFFF AND PUSH20 0xFFFFFFFFFFFFFFFFFFFFFFFFFFFFFFFFFFFFFFFF AND EQ PUSH2 0xF9C JUMPI PUSH1 0x40 MLOAD PUSH32 0x8C379A000000000000000000000000000000000000000000000000000000000 DUP2 MSTORE PUSH1 0x4 ADD PUSH2 0xF93 SWAP1 PUSH2 0x1DAA JUMP JUMPDEST PUSH1 0x40 MLOAD DUP1 SWAP2 SUB SWAP1 REVERT JUMPDEST PUSH1 0x1 PUSH1 0x4 PUSH1 0x0 PUSH2 0x100 EXP DUP2 SLOAD DUP2 PUSH1 0xFF MUL NOT AND SWAP1 DUP4 ISZERO ISZERO MUL OR SWAP1 SSTORE POP CALLER PUSH20 0xFFFFFFFFFFFFFFFFFFFFFFFFFFFFFFFFFFFFFFFF AND PUSH32 0x62E78CEA01BEE320CD4E420270B5EA74000D11B0C9F74754EBDBFC544B05A258 PUSH1 0x40 MLOAD PUSH1 0x40 MLOAD DUP1 SWAP2 SUB SWAP1 LOG2 JUMP JUMPDEST PUSH1 0x60 DUP1 PUSH1 0x4 PUSH1 0x0 SWAP1 SLOAD SWAP1 PUSH2 0x100 EXP SWAP1 DIV PUSH1 0xFF AND ISZERO PUSH2 0x104F JUMPI PUSH1 0x40 MLOAD PUSH32 0x8C379A000000000000000000000000000000000000000000000000000000000 DUP2 MSTORE PUSH1 0x4 ADD PUSH2 0x1046 SWAP1 PUSH2 0x1D2A JUMP JUMPDEST PUSH1 0x40 MLOAD DUP1 SWAP2 SUB SWAP1 REVERT JUMPDEST PUSH1 0x0 PUSH1 0x1 SLOAD GT PUSH2 0x1094 JUMPI PUSH1 0x40 MLOAD PUSH32 0x8C379A000000000000000000000000000000000000000000000000000000000 DUP2 MSTORE PUSH1 0x4 ADD PUSH2 0x108B SWAP1 PUSH2 0x1C8A JUMP JUMPDEST PUSH1 0x40 MLOAD DUP1 SWAP2 SUB SWAP1 REVERT JUMPDEST PUSH1 0x0 PUSH1 0x1 SLOAD PUSH8 0xFFFFFFFFFFFFFFFF DUP2 GT ISZERO PUSH2 0x10D8 JUMPI PUSH32 0x4E487B7100000000000000000000000000000000000000000000000000000000 PUSH1 0x0 MSTORE PUSH1 0x41 PUSH1 0x4 MSTORE PUSH1 0x24 PUSH1 0x0 REVERT JUMPDEST PUSH1 0x40 MLOAD SWAP1 DUP1 DUP3 MSTORE DUP1 PUSH1 0x20 MUL PUSH1 0x20 ADD DUP3 ADD PUSH1 0x40 MSTORE DUP1 ISZERO PUSH2 0x1106 JUMPI DUP2 PUSH1 0x20 ADD PUSH1 0x20 DUP3 MUL DUP1 CALLDATASIZE DUP4 CALLDATACOPY DUP1 DUP3 ADD SWAP2 POP POP SWAP1 POP JUMPDEST POP SWAP1 POP PUSH1 0x0 PUSH1 0x1 SLOAD PUSH8 0xFFFFFFFFFFFFFFFF DUP2 GT ISZERO PUSH2 0x114D JUMPI PUSH32 0x4E487B7100000000000000000000000000000000000000000000000000000000 PUSH1 0x0 MSTORE PUSH1 0x41 PUSH1 0x4 MSTORE PUSH1 0x24 PUSH1 0x0 REVERT JUMPDEST PUSH1 0x40 MLOAD SWAP1 DUP1 DUP3 MSTORE DUP1 PUSH1 0x20 MUL PUSH1 0x20 ADD DUP3 ADD PUSH1 0x40 MSTORE DUP1 ISZERO PUSH2 0x1180 JUMPI DUP2 PUSH1 0x20 ADD JUMPDEST PUSH1 0x60 DUP2 MSTORE PUSH1 0x20 ADD SWAP1 PUSH1 0x1 SWAP1 SUB SWAP1 DUP2 PUSH2 0x116B JUMPI SWAP1 POP JUMPDEST POP SWAP1 POP PUSH1 0x0 JUMPDEST PUSH1 0x1 SLOAD DUP2 LT ISZERO PUSH2 0x1306 JUMPI PUSH1 0x1 DUP2 PUSH2 0x119D SWAP2 SWAP1 PUSH2 0x1EFA JUMP JUMPDEST DUP4 DUP3 DUP2 MLOAD DUP2 LT PUSH2 0x11D6 JUMPI PUSH32 0x4E487B7100000000000000000000000000000000000000000000000000000000 PUSH1 0x0 MSTORE PUSH1 0x32 PUSH1 0x4 MSTORE PUSH1 0x24 PUSH1 0x0 REVERT JUMPDEST PUSH1 0x20 MUL PUSH1 0x20 ADD ADD DUP2 DUP2 MSTORE POP POP PUSH1 0x3 DUP2 DUP2 SLOAD DUP2 LT PUSH2 0x121C JUMPI PUSH32 0x4E487B7100000000000000000000000000000000000000000000000000000000 PUSH1 0x0 MSTORE PUSH1 0x32 PUSH1 0x4 MSTORE PUSH1 0x24 PUSH1 0x0 REVERT JUMPDEST SWAP1 PUSH1 0x0 MSTORE PUSH1 0x20 PUSH1 0x0 KECCAK256 ADD DUP1 SLOAD PUSH2 0x1231 SWAP1 PUSH2 0x200E JUMP JUMPDEST DUP1 PUSH1 0x1F ADD PUSH1 0x20 DUP1 SWAP2 DIV MUL PUSH1 0x20 ADD PUSH1 0x40 MLOAD SWAP1 DUP2 ADD PUSH1 0x40 MSTORE DUP1 SWAP3 SWAP2 SWAP1 DUP2 DUP2 MSTORE PUSH1 0x20 ADD DUP3 DUP1 SLOAD PUSH2 0x125D SWAP1 PUSH2 0x200E JUMP JUMPDEST DUP1 ISZERO PUSH2 0x12AA JUMPI DUP1 PUSH1 0x1F LT PUSH2 0x127F JUMPI PUSH2 0x100 DUP1 DUP4 SLOAD DIV MUL DUP4 MSTORE SWAP2 PUSH1 0x20 ADD SWAP2 PUSH2 0x12AA JUMP JUMPDEST DUP3 ADD SWAP2 SWAP1 PUSH1 0x0 MSTORE PUSH1 0x20 PUSH1 0x0 KECCAK256 SWAP1 JUMPDEST DUP2 SLOAD DUP2 MSTORE SWAP1 PUSH1 0x1 ADD SWAP1 PUSH1 0x20 ADD DUP1 DUP4 GT PUSH2 0x128D JUMPI DUP3 SWAP1 SUB PUSH1 0x1F AND DUP3 ADD SWAP2 JUMPDEST POP POP POP POP POP DUP3 DUP3 DUP2 MLOAD DUP2 LT PUSH2 0x12E8 JUMPI PUSH32 0x4E487B7100000000000000000000000000000000000000000000000000000000 PUSH1 0x0 MSTORE PUSH1 0x32 PUSH1 0x4 MSTORE PUSH1 0x24 PUSH1 0x0 REVERT JUMPDEST PUSH1 0x20 MUL PUSH1 0x20 ADD ADD DUP2 SWAP1 MSTORE POP DUP1 DUP1 PUSH2 0x12FE SWAP1 PUSH2 0x2071 JUMP JUMPDEST SWAP2 POP POP PUSH2 0x1186 JUMP JUMPDEST POP DUP2 DUP2 SWAP4 POP SWAP4 POP POP POP SWAP1 SWAP2 JUMP JUMPDEST PUSH1 0x9 PUSH1 0x0 CALLER PUSH20 0xFFFFFFFFFFFFFFFFFFFFFFFFFFFFFFFFFFFFFFFF AND PUSH20 0xFFFFFFFFFFFFFFFFFFFFFFFFFFFFFFFFFFFFFFFF AND DUP2 MSTORE PUSH1 0x20 ADD SWAP1 DUP2 MSTORE PUSH1 0x20 ADD PUSH1 0x0 KECCAK256 PUSH1 0x0 SWAP1 SLOAD SWAP1 PUSH2 0x100 EXP SWAP1 DIV PUSH1 0xFF AND ISZERO PUSH2 0x13A0 JUMPI PUSH1 0x40 MLOAD PUSH32 0x8C379A000000000000000000000000000000000000000000000000000000000 DUP2 MSTORE PUSH1 0x4 ADD PUSH2 0x1397 SWAP1 PUSH2 0x1D8A JUMP JUMPDEST PUSH1 0x40 MLOAD DUP1 SWAP2 SUB SWAP1 REVERT JUMPDEST PUSH1 0x12 DUP2 LT ISZERO PUSH2 0x13E4 JUMPI PUSH1 0x40 MLOAD PUSH32 0x8C379A000000000000000000000000000000000000000000000000000000000 DUP2 MSTORE PUSH1 0x4 ADD PUSH2 0x13DB SWAP1 PUSH2 0x1C4A JUMP JUMPDEST PUSH1 0x40 MLOAD DUP1 SWAP2 SUB SWAP1 REVERT JUMPDEST PUSH1 0x2 PUSH1 0x0 DUP2 SLOAD DUP1 SWAP3 SWAP2 SWAP1 PUSH2 0x13F7 SWAP1 PUSH2 0x2071 JUMP JUMPDEST SWAP2 SWAP1 POP SSTORE POP PUSH1 0x6 PUSH1 0x40 MLOAD DUP1 PUSH1 0x60 ADD PUSH1 0x40 MSTORE DUP1 PUSH1 0x2 SLOAD DUP2 MSTORE PUSH1 0x20 ADD DUP5 DUP2 MSTORE PUSH1 0x20 ADD DUP4 DUP2 MSTORE POP SWAP1 DUP1 PUSH1 0x1 DUP2 SLOAD ADD DUP1 DUP3 SSTORE DUP1 SWAP2 POP POP PUSH1 0x1 SWAP1 SUB SWAP1 PUSH1 0x0 MSTORE PUSH1 0x20 PUSH1 0x0 KECCAK256 SWAP1 PUSH1 0x3 MUL ADD PUSH1 0x0 SWAP1 SWAP2 SWAP1 SWAP2 SWAP1 SWAP2 POP PUSH1 0x0 DUP3 ADD MLOAD DUP2 PUSH1 0x0 ADD SSTORE PUSH1 0x20 DUP3 ADD MLOAD DUP2 PUSH1 0x1 ADD SWAP1 DUP1 MLOAD SWAP1 PUSH1 0x20 ADD SWAP1 PUSH2 0x146A SWAP3 SWAP2 SWAP1 PUSH2 0x15B1 JUMP JUMPDEST POP PUSH1 0x40 DUP3 ADD MLOAD DUP2 PUSH1 0x2 ADD SSTORE POP POP PUSH1 0x1 PUSH1 0x9 PUSH1 0x0 CALLER PUSH20 0xFFFFFFFFFFFFFFFFFFFFFFFFFFFFFFFFFFFFFFFF AND PUSH20 0xFFFFFFFFFFFFFFFFFFFFFFFFFFFFFFFFFFFFFFFF AND DUP2 MSTORE PUSH1 0x20 ADD SWAP1 DUP2 MSTORE PUSH1 0x20 ADD PUSH1 0x0 KECCAK256 PUSH1 0x0 PUSH2 0x100 EXP DUP2 SLOAD DUP2 PUSH1 0xFF MUL NOT AND SWAP1 DUP4 ISZERO ISZERO MUL OR SWAP1 SSTORE POP CALLER PUSH20 0xFFFFFFFFFFFFFFFFFFFFFFFFFFFFFFFFFFFFFFFF AND PUSH1 0x2 SLOAD PUSH32 0xCA52E62C367D81BB2E328EB795F7C7BA24AFB478408A26C0E201D155C449BC4A DUP5 PUSH1 0x40 MLOAD PUSH2 0x1518 SWAP2 SWAP1 PUSH2 0x1C28 JUMP JUMPDEST PUSH1 0x40 MLOAD DUP1 SWAP2 SUB SWAP1 LOG3 POP POP JUMP JUMPDEST DUP3 DUP1 SLOAD PUSH2 0x1530 SWAP1 PUSH2 0x200E JUMP JUMPDEST SWAP1 PUSH1 0x0 MSTORE PUSH1 0x20 PUSH1 0x0 KECCAK256 SWAP1 PUSH1 0x1F ADD PUSH1 0x20 SWAP1 DIV DUP2 ADD SWAP3 DUP3 PUSH2 0x1552 JUMPI PUSH1 0x0 DUP6 SSTORE PUSH2 0x15A0 JUMP JUMPDEST DUP3 PUSH1 0x1F LT PUSH2 0x1563 JUMPI DUP1 SLOAD DUP6 SSTORE PUSH2 0x15A0 JUMP JUMPDEST DUP3 DUP1 ADD PUSH1 0x1 ADD DUP6 SSTORE DUP3 ISZERO PUSH2 0x15A0 JUMPI PUSH1 0x0 MSTORE PUSH1 0x20 PUSH1 0x0 KECCAK256 SWAP2 PUSH1 0x1F ADD PUSH1 0x20 SWAP1 DIV DUP3 ADD JUMPDEST DUP3 DUP2 GT ISZERO PUSH2 0x159F JUMPI DUP3 SLOAD DUP3 SSTORE SWAP2 PUSH1 0x1 ADD SWAP2 SWAP1 PUSH1 0x1 ADD SWAP1 PUSH2 0x1584 JUMP JUMPDEST JUMPDEST POP SWAP1 POP PUSH2 0x15AD SWAP2 SWAP1 PUSH2 0x1637 JUMP JUMPDEST POP SWAP1 JUMP JUMPDEST DUP3 DUP1 SLOAD PUSH2 0x15BD SWAP1 PUSH2 0x200E JUMP JUMPDEST SWAP1 PUSH1 0x0 MSTORE PUSH1 0x20 PUSH1 0x0 KECCAK256 SWAP1 PUSH1 0x1F ADD PUSH1 0x20 SWAP1 DIV DUP2 ADD SWAP3 DUP3 PUSH2 0x15DF JUMPI PUSH1 0x0 DUP6 SSTORE PUSH2 0x1626 JUMP JUMPDEST DUP3 PUSH1 0x1F LT PUSH2 0x15F8 JUMPI DUP1 MLOAD PUSH1 0xFF NOT AND DUP4 DUP1 ADD OR DUP6 SSTORE PUSH2 0x1626 JUMP JUMPDEST DUP3 DUP1 ADD PUSH1 0x1 ADD DUP6 SSTORE DUP3 ISZERO PUSH2 0x1626 JUMPI SWAP2 DUP3 ADD JUMPDEST DUP3 DUP2 GT ISZERO PUSH2 0x1625 JUMPI DUP3 MLOAD DUP3 SSTORE SWAP2 PUSH1 0x20 ADD SWAP2 SWAP1 PUSH1 0x1 ADD SWAP1 PUSH2 0x160A JUMP JUMPDEST JUMPDEST POP SWAP1 POP PUSH2 0x1633 SWAP2 SWAP1 PUSH2 0x1637 JUMP JUMPDEST POP SWAP1 JUMP JUMPDEST JUMPDEST DUP1 DUP3 GT ISZERO PUSH2 0x1650 JUMPI PUSH1 0x0 DUP2 PUSH1 0x0 SWAP1 SSTORE POP PUSH1 0x1 ADD PUSH2 0x1638 JUMP JUMPDEST POP SWAP1 JUMP JUMPDEST PUSH1 0x0 PUSH2 0x1667 PUSH2 0x1662 DUP5 PUSH2 0x1E0A JUMP JUMPDEST PUSH2 0x1DE5 JUMP JUMPDEST SWAP1 POP DUP3 DUP2 MSTORE PUSH1 0x20 DUP2 ADD DUP5 DUP5 DUP5 ADD GT ISZERO PUSH2 0x167F JUMPI PUSH1 0x0 DUP1 REVERT JUMPDEST PUSH2 0x168A DUP5 DUP3 DUP6 PUSH2 0x1FCC JUMP JUMPDEST POP SWAP4 SWAP3 POP POP POP JUMP JUMPDEST PUSH1 0x0 DUP3 PUSH1 0x1F DUP4 ADD SLT PUSH2 0x16A3 JUMPI PUSH1 0x0 DUP1 REVERT JUMPDEST DUP2 CALLDATALOAD PUSH2 0x16B3 DUP5 DUP3 PUSH1 0x20 DUP7 ADD PUSH2 0x1654 JUMP JUMPDEST SWAP2 POP POP SWAP3 SWAP2 POP POP JUMP JUMPDEST PUSH1 0x0 DUP2 CALLDATALOAD SWAP1 POP PUSH2 0x16CB DUP2 PUSH2 0x23B6 JUMP JUMPDEST SWAP3 SWAP2 POP POP JUMP JUMPDEST PUSH1 0x0 PUSH1 0x20 DUP3 DUP5 SUB SLT ISZERO PUSH2 0x16E3 JUMPI PUSH1 0x0 DUP1 REVERT JUMPDEST PUSH1 0x0 DUP3 ADD CALLDATALOAD PUSH8 0xFFFFFFFFFFFFFFFF DUP2 GT ISZERO PUSH2 0x16FD JUMPI PUSH1 0x0 DUP1 REVERT JUMPDEST PUSH2 0x1709 DUP5 DUP3 DUP6 ADD PUSH2 0x1692 JUMP JUMPDEST SWAP2 POP POP SWAP3 SWAP2 POP POP JUMP JUMPDEST PUSH1 0x0 DUP1 PUSH1 0x40 DUP4 DUP6 SUB SLT ISZERO PUSH2 0x1725 JUMPI PUSH1 0x0 DUP1 REVERT JUMPDEST PUSH1 0x0 DUP4 ADD CALLDATALOAD PUSH8 0xFFFFFFFFFFFFFFFF DUP2 GT ISZERO PUSH2 0x173F JUMPI PUSH1 0x0 DUP1 REVERT JUMPDEST PUSH2 0x174B DUP6 DUP3 DUP7 ADD PUSH2 0x1692 JUMP JUMPDEST SWAP3 POP POP PUSH1 0x20 PUSH2 0x175C DUP6 DUP3 DUP7 ADD PUSH2 0x16BC JUMP JUMPDEST SWAP2 POP POP SWAP3 POP SWAP3 SWAP1 POP JUMP JUMPDEST PUSH1 0x0 PUSH1 0x20 DUP3 DUP5 SUB SLT ISZERO PUSH2 0x1778 JUMPI PUSH1 0x0 DUP1 REVERT JUMPDEST PUSH1 0x0 PUSH2 0x1786 DUP5 DUP3 DUP6 ADD PUSH2 0x16BC JUMP JUMPDEST SWAP2 POP POP SWAP3 SWAP2 POP POP JUMP JUMPDEST PUSH1 0x0 PUSH2 0x179B DUP4 DUP4 PUSH2 0x192B JUMP JUMPDEST SWAP1 POP SWAP3 SWAP2 POP POP JUMP JUMPDEST PUSH1 0x0 PUSH2 0x17AF DUP4 DUP4 PUSH2 0x1B41 JUMP JUMPDEST PUSH1 0x20 DUP4 ADD SWAP1 POP SWAP3 SWAP2 POP POP JUMP JUMPDEST PUSH2 0x17C4 DUP2 PUSH2 0x1F84 JUMP JUMPDEST DUP3 MSTORE POP POP JUMP JUMPDEST PUSH1 0x0 PUSH2 0x17D5 DUP3 PUSH2 0x1E70 JUMP JUMPDEST PUSH2 0x17DF DUP2 DUP6 PUSH2 0x1EAB JUMP JUMPDEST SWAP4 POP DUP4 PUSH1 0x20 DUP3 MUL DUP6 ADD PUSH2 0x17F1 DUP6 PUSH2 0x1E3B JUMP JUMPDEST DUP1 PUSH1 0x0 JUMPDEST DUP6 DUP2 LT ISZERO PUSH2 0x182D JUMPI DUP5 DUP5 SUB DUP10 MSTORE DUP2 MLOAD PUSH2 0x180E DUP6 DUP3 PUSH2 0x178F JUMP JUMPDEST SWAP5 POP PUSH2 0x1819 DUP4 PUSH2 0x1E91 JUMP JUMPDEST SWAP3 POP PUSH1 0x20 DUP11 ADD SWAP10 POP POP PUSH1 0x1 DUP2 ADD SWAP1 POP PUSH2 0x17F5 JUMP JUMPDEST POP DUP3 SWAP8 POP DUP8 SWAP6 POP POP POP POP POP POP SWAP3 SWAP2 POP POP JUMP JUMPDEST PUSH1 0x0 PUSH2 0x184A DUP3 PUSH2 0x1E7B JUMP JUMPDEST PUSH2 0x1854 DUP2 DUP6 PUSH2 0x1EBC JUMP JUMPDEST SWAP4 POP PUSH2 0x185F DUP4 PUSH2 0x1E4B JUMP JUMPDEST DUP1 PUSH1 0x0 JUMPDEST DUP4 DUP2 LT ISZERO PUSH2 0x1890 JUMPI DUP2 MLOAD PUSH2 0x1877 DUP9 DUP3 PUSH2 0x17A3 JUMP JUMPDEST SWAP8 POP PUSH2 0x1882 DUP4 PUSH2 0x1E9E JUMP JUMPDEST SWAP3 POP POP PUSH1 0x1 DUP2 ADD SWAP1 POP PUSH2 0x1863 JUMP JUMPDEST POP DUP6 SWAP4 POP POP POP POP SWAP3 SWAP2 POP POP JUMP JUMPDEST PUSH2 0x18A6 DUP2 PUSH2 0x1F96 JUMP JUMPDEST DUP3 MSTORE POP POP JUMP JUMPDEST PUSH1 0x0 DUP2 SLOAD PUSH2 0x18B9 DUP2 PUSH2 0x200E JUMP JUMPDEST PUSH2 0x18C3 DUP2 DUP7 PUSH2 0x1ECD JUMP JUMPDEST SWAP5 POP PUSH1 0x1 DUP3 AND PUSH1 0x0 DUP2 EQ PUSH2 0x18DE JUMPI PUSH1 0x1 DUP2 EQ PUSH2 0x18EF JUMPI PUSH2 0x1922 JUMP JUMPDEST PUSH1 0xFF NOT DUP4 AND DUP7 MSTORE DUP2 DUP7 ADD SWAP4 POP PUSH2 0x1922 JUMP JUMPDEST PUSH2 0x18F8 DUP6 PUSH2 0x1E5B JUMP JUMPDEST PUSH1 0x0 JUMPDEST DUP4 DUP2 LT ISZERO PUSH2 0x191A JUMPI DUP2 SLOAD DUP2 DUP10 ADD MSTORE PUSH1 0x1 DUP3 ADD SWAP2 POP PUSH1 0x20 DUP2 ADD SWAP1 POP PUSH2 0x18FB JUMP JUMPDEST DUP4 DUP9 ADD SWAP6 POP POP POP JUMPDEST POP POP POP SWAP3 SWAP2 POP POP JUMP JUMPDEST PUSH1 0x0 PUSH2 0x1936 DUP3 PUSH2 0x1E86 JUMP JUMPDEST PUSH2 0x1940 DUP2 DUP6 PUSH2 0x1ED8 JUMP JUMPDEST SWAP4 POP PUSH2 0x1950 DUP2 DUP6 PUSH1 0x20 DUP7 ADD PUSH2 0x1FDB JUMP JUMPDEST PUSH2 0x1959 DUP2 PUSH2 0x2147 JUMP JUMPDEST DUP5 ADD SWAP2 POP POP SWAP3 SWAP2 POP POP JUMP JUMPDEST PUSH1 0x0 PUSH2 0x196F DUP3 PUSH2 0x1E86 JUMP JUMPDEST PUSH2 0x1979 DUP2 DUP6 PUSH2 0x1EE9 JUMP JUMPDEST SWAP4 POP PUSH2 0x1989 DUP2 DUP6 PUSH1 0x20 DUP7 ADD PUSH2 0x1FDB JUMP JUMPDEST PUSH2 0x1992 DUP2 PUSH2 0x2147 JUMP JUMPDEST DUP5 ADD SWAP2 POP POP SWAP3 SWAP2 POP POP JUMP JUMPDEST PUSH1 0x0 PUSH2 0x19AA PUSH1 0x2D DUP4 PUSH2 0x1EE9 JUMP JUMPDEST SWAP2 POP PUSH2 0x19B5 DUP3 PUSH2 0x2158 JUMP JUMPDEST PUSH1 0x40 DUP3 ADD SWAP1 POP SWAP2 SWAP1 POP JUMP JUMPDEST PUSH1 0x0 PUSH2 0x19CD PUSH1 0x14 DUP4 PUSH2 0x1EE9 JUMP JUMPDEST SWAP2 POP PUSH2 0x19D8 DUP3 PUSH2 0x21A7 JUMP JUMPDEST PUSH1 0x20 DUP3 ADD SWAP1 POP SWAP2 SWAP1 POP JUMP JUMPDEST PUSH1 0x0 PUSH2 0x19F0 PUSH1 0x15 DUP4 PUSH2 0x1EE9 JUMP JUMPDEST SWAP2 POP PUSH2 0x19FB DUP3 PUSH2 0x21D0 JUMP JUMPDEST PUSH1 0x20 DUP3 ADD SWAP1 POP SWAP2 SWAP1 POP JUMP JUMPDEST PUSH1 0x0 PUSH2 0x1A13 PUSH1 0x15 DUP4 PUSH2 0x1EE9 JUMP JUMPDEST SWAP2 POP PUSH2 0x1A1E DUP3 PUSH2 0x21F9 JUMP JUMPDEST PUSH1 0x20 DUP3 ADD SWAP1 POP SWAP2 SWAP1 POP JUMP JUMPDEST PUSH1 0x0 PUSH2 0x1A36 PUSH1 0x27 DUP4 PUSH2 0x1EE9 JUMP JUMPDEST SWAP2 POP PUSH2 0x1A41 DUP3 PUSH2 0x2222 JUMP JUMPDEST PUSH1 0x40 DUP3 ADD SWAP1 POP SWAP2 SWAP1 POP JUMP JUMPDEST PUSH1 0x0 PUSH2 0x1A59 PUSH1 0x1B DUP4 PUSH2 0x1EE9 JUMP JUMPDEST SWAP2 POP PUSH2 0x1A64 DUP3 PUSH2 0x2271 JUMP JUMPDEST PUSH1 0x20 DUP3 ADD SWAP1 POP SWAP2 SWAP1 POP JUMP JUMPDEST PUSH1 0x0 PUSH2 0x1A7C PUSH1 0x1B DUP4 PUSH2 0x1EE9 JUMP JUMPDEST SWAP2 POP PUSH2 0x1A87 DUP3 PUSH2 0x229A JUMP JUMPDEST PUSH1 0x20 DUP3 ADD SWAP1 POP SWAP2 SWAP1 POP JUMP JUMPDEST PUSH1 0x0 PUSH2 0x1A9F PUSH1 0x16 DUP4 PUSH2 0x1EE9 JUMP JUMPDEST SWAP2 POP PUSH2 0x1AAA DUP3 PUSH2 0x22C3 JUMP JUMPDEST PUSH1 0x20 DUP3 ADD SWAP1 POP SWAP2 SWAP1 POP JUMP JUMPDEST PUSH1 0x0 PUSH2 0x1AC2 PUSH1 0x16 DUP4 PUSH2 0x1EE9 JUMP JUMPDEST SWAP2 POP PUSH2 0x1ACD DUP3 PUSH2 0x22EC JUMP JUMPDEST PUSH1 0x20 DUP3 ADD SWAP1 POP SWAP2 SWAP1 POP JUMP JUMPDEST PUSH1 0x0 PUSH2 0x1AE5 PUSH1 0x1A DUP4 PUSH2 0x1EE9 JUMP JUMPDEST SWAP2 POP PUSH2 0x1AF0 DUP3 PUSH2 0x2315 JUMP JUMPDEST PUSH1 0x20 DUP3 ADD SWAP1 POP SWAP2 SWAP1 POP JUMP JUMPDEST PUSH1 0x0 PUSH2 0x1B08 PUSH1 0x13 DUP4 PUSH2 0x1EE9 JUMP JUMPDEST SWAP2 POP PUSH2 0x1B13 DUP3 PUSH2 0x233E JUMP JUMPDEST PUSH1 0x20 DUP3 ADD SWAP1 POP SWAP2 SWAP1 POP JUMP JUMPDEST PUSH1 0x0 PUSH2 0x1B2B PUSH1 0x21 DUP4 PUSH2 0x1EE9 JUMP JUMPDEST SWAP2 POP PUSH2 0x1B36 DUP3 PUSH2 0x2367 JUMP JUMPDEST PUSH1 0x40 DUP3 ADD SWAP1 POP SWAP2 SWAP1 POP JUMP JUMPDEST PUSH2 0x1B4A DUP2 PUSH2 0x1FC2 JUMP JUMPDEST DUP3 MSTORE POP POP JUMP JUMPDEST PUSH2 0x1B59 DUP2 PUSH2 0x1FC2 JUMP JUMPDEST DUP3 MSTORE POP POP JUMP JUMPDEST PUSH1 0x0 PUSH2 0x1B6B DUP3 DUP5 PUSH2 0x18AC JUMP JUMPDEST SWAP2 POP DUP2 SWAP1 POP SWAP3 SWAP2 POP POP JUMP JUMPDEST PUSH1 0x0 PUSH1 0x40 DUP3 ADD SWAP1 POP PUSH2 0x1B8B PUSH1 0x0 DUP4 ADD DUP6 PUSH2 0x17BB JUMP JUMPDEST PUSH2 0x1B98 PUSH1 0x20 DUP4 ADD DUP5 PUSH2 0x1B50 JUMP JUMPDEST SWAP4 SWAP3 POP POP POP JUMP JUMPDEST PUSH1 0x0 PUSH1 0x40 DUP3 ADD SWAP1 POP DUP2 DUP2 SUB PUSH1 0x0 DUP4 ADD MSTORE PUSH2 0x1BB9 DUP2 DUP6 PUSH2 0x17CA JUMP JUMPDEST SWAP1 POP DUP2 DUP2 SUB PUSH1 0x20 DUP4 ADD MSTORE PUSH2 0x1BCD DUP2 DUP5 PUSH2 0x183F JUMP JUMPDEST SWAP1 POP SWAP4 SWAP3 POP POP POP JUMP JUMPDEST PUSH1 0x0 PUSH1 0x40 DUP3 ADD SWAP1 POP DUP2 DUP2 SUB PUSH1 0x0 DUP4 ADD MSTORE PUSH2 0x1BF0 DUP2 DUP6 PUSH2 0x183F JUMP JUMPDEST SWAP1 POP DUP2 DUP2 SUB PUSH1 0x20 DUP4 ADD MSTORE PUSH2 0x1C04 DUP2 DUP5 PUSH2 0x17CA JUMP JUMPDEST SWAP1 POP SWAP4 SWAP3 POP POP POP JUMP JUMPDEST PUSH1 0x0 PUSH1 0x20 DUP3 ADD SWAP1 POP PUSH2 0x1C22 PUSH1 0x0 DUP4 ADD DUP5 PUSH2 0x189D JUMP JUMPDEST SWAP3 SWAP2 POP POP JUMP JUMPDEST PUSH1 0x0 PUSH1 0x20 DUP3 ADD SWAP1 POP DUP2 DUP2 SUB PUSH1 0x0 DUP4 ADD MSTORE PUSH2 0x1C42 DUP2 DUP5 PUSH2 0x1964 JUMP JUMPDEST SWAP1 POP SWAP3 SWAP2 POP POP JUMP JUMPDEST PUSH1 0x0 PUSH1 0x20 DUP3 ADD SWAP1 POP DUP2 DUP2 SUB PUSH1 0x0 DUP4 ADD MSTORE PUSH2 0x1C63 DUP2 PUSH2 0x199D JUMP JUMPDEST SWAP1 POP SWAP2 SWAP1 POP JUMP JUMPDEST PUSH1 0x0 PUSH1 0x20 DUP3 ADD SWAP1 POP DUP2 DUP2 SUB PUSH1 0x0 DUP4 ADD MSTORE PUSH2 0x1C83 DUP2 PUSH2 0x19C0 JUMP JUMPDEST SWAP1 POP SWAP2 SWAP1 POP JUMP JUMPDEST PUSH1 0x0 PUSH1 0x20 DUP3 ADD SWAP1 POP DUP2 DUP2 SUB PUSH1 0x0 DUP4 ADD MSTORE PUSH2 0x1CA3 DUP2 PUSH2 0x19E3 JUMP JUMPDEST SWAP1 POP SWAP2 SWAP1 POP JUMP JUMPDEST PUSH1 0x0 PUSH1 0x20 DUP3 ADD SWAP1 POP DUP2 DUP2 SUB PUSH1 0x0 DUP4 ADD MSTORE PUSH2 0x1CC3 DUP2 PUSH2 0x1A06 JUMP JUMPDEST SWAP1 POP SWAP2 SWAP1 POP JUMP JUMPDEST PUSH1 0x0 PUSH1 0x20 DUP3 ADD SWAP1 POP DUP2 DUP2 SUB PUSH1 0x0 DUP4 ADD MSTORE PUSH2 0x1CE3 DUP2 PUSH2 0x1A29 JUMP JUMPDEST SWAP1 POP SWAP2 SWAP1 POP JUMP JUMPDEST PUSH1 0x0 PUSH1 0x20 DUP3 ADD SWAP1 POP DUP2 DUP2 SUB PUSH1 0x0 DUP4 ADD MSTORE PUSH2 0x1D03 DUP2 PUSH2 0x1A4C JUMP JUMPDEST SWAP1 POP SWAP2 SWAP1 POP JUMP JUMPDEST PUSH1 0x0 PUSH1 0x20 DUP3 ADD SWAP1 POP DUP2 DUP2 SUB PUSH1 0x0 DUP4 ADD MSTORE PUSH2 0x1D23 DUP2 PUSH2 0x1A6F JUMP JUMPDEST SWAP1 POP SWAP2 SWAP1 POP JUMP JUMPDEST PUSH1 0x0 PUSH1 0x20 DUP3 ADD SWAP1 POP DUP2 DUP2 SUB PUSH1 0x0 DUP4 ADD MSTORE PUSH2 0x1D43 DUP2 PUSH2 0x1A92 JUMP JUMPDEST SWAP1 POP SWAP2 SWAP1 POP JUMP JUMPDEST PUSH1 0x0 PUSH1 0x20 DUP3 ADD SWAP1 POP DUP2 DUP2 SUB PUSH1 0x0 DUP4 ADD MSTORE PUSH2 0x1D63 DUP2 PUSH2 0x1AB5 JUMP JUMPDEST SWAP1 POP SWAP2 SWAP1 POP JUMP JUMPDEST PUSH1 0x0 PUSH1 0x20 DUP3 ADD SWAP1 POP DUP2 DUP2 SUB PUSH1 0x0 DUP4 ADD MSTORE PUSH2 0x1D83 DUP2 PUSH2 0x1AD8 JUMP JUMPDEST SWAP1 POP SWAP2 SWAP1 POP JUMP JUMPDEST PUSH1 0x0 PUSH1 0x20 DUP3 ADD SWAP1 POP DUP2 DUP2 SUB PUSH1 0x0 DUP4 ADD MSTORE PUSH2 0x1DA3 DUP2 PUSH2 0x1AFB JUMP JUMPDEST SWAP1 POP SWAP2 SWAP1 POP JUMP JUMPDEST PUSH1 0x0 PUSH1 0x20 DUP3 ADD SWAP1 POP DUP2 DUP2 SUB PUSH1 0x0 DUP4 ADD MSTORE PUSH2 0x1DC3 DUP2 PUSH2 0x1B1E JUMP JUMPDEST SWAP1 POP SWAP2 SWAP1 POP JUMP JUMPDEST PUSH1 0x0 PUSH1 0x20 DUP3 ADD SWAP1 POP PUSH2 0x1DDF PUSH1 0x0 DUP4 ADD DUP5 PUSH2 0x1B50 JUMP JUMPDEST SWAP3 SWAP2 POP POP JUMP JUMPDEST PUSH1 0x0 PUSH2 0x1DEF PUSH2 0x1E00 JUMP JUMPDEST SWAP1 POP PUSH2 0x1DFB DUP3 DUP3 PUSH2 0x2040 JUMP JUMPDEST SWAP2 SWAP1 POP JUMP JUMPDEST PUSH1 0x0 PUSH1 0x40 MLOAD SWAP1 POP SWAP1 JUMP JUMPDEST PUSH1 0x0 PUSH8 0xFFFFFFFFFFFFFFFF DUP3 GT ISZERO PUSH2 0x1E25 JUMPI PUSH2 0x1E24 PUSH2 0x2118 JUMP JUMPDEST JUMPDEST PUSH2 0x1E2E DUP3 PUSH2 0x2147 JUMP JUMPDEST SWAP1 POP PUSH1 0x20 DUP2 ADD SWAP1 POP SWAP2 SWAP1 POP JUMP JUMPDEST PUSH1 0x0 DUP2 SWAP1 POP PUSH1 0x20 DUP3 ADD SWAP1 POP SWAP2 SWAP1 POP JUMP JUMPDEST PUSH1 0x0 DUP2 SWAP1 POP PUSH1 0x20 DUP3 ADD SWAP1 POP SWAP2 SWAP1 POP JUMP JUMPDEST PUSH1 0x0 DUP2 SWAP1 POP DUP2 PUSH1 0x0 MSTORE PUSH1 0x20 PUSH1 0x0 KECCAK256 SWAP1 POP SWAP2 SWAP1 POP JUMP JUMPDEST PUSH1 0x0 DUP2 MLOAD SWAP1 POP SWAP2 SWAP1 POP JUMP JUMPDEST PUSH1 0x0 DUP2 MLOAD SWAP1 POP SWAP2 SWAP1 POP JUMP JUMPDEST PUSH1 0x0 DUP2 MLOAD SWAP1 POP SWAP2 SWAP1 POP JUMP JUMPDEST PUSH1 0x0 PUSH1 0x20 DUP3 ADD SWAP1 POP SWAP2 SWAP1 POP JUMP JUMPDEST PUSH1 0x0 PUSH1 0x20 DUP3 ADD SWAP1 POP SWAP2 SWAP1 POP JUMP JUMPDEST PUSH1 0x0 DUP3 DUP3 MSTORE PUSH1 0x20 DUP3 ADD SWAP1 POP SWAP3 SWAP2 POP POP JUMP JUMPDEST PUSH1 0x0 DUP3 DUP3 MSTORE PUSH1 0x20 DUP3 ADD SWAP1 POP SWAP3 SWAP2 POP POP JUMP JUMPDEST PUSH1 0x0 DUP2 SWAP1 POP SWAP3 SWAP2 POP POP JUMP JUMPDEST PUSH1 0x0 DUP3 DUP3 MSTORE PUSH1 0x20 DUP3 ADD SWAP1 POP SWAP3 SWAP2 POP POP JUMP JUMPDEST PUSH1 0x0 DUP3 DUP3 MSTORE PUSH1 0x20 DUP3 ADD SWAP1 POP SWAP3 SWAP2 POP POP JUMP JUMPDEST PUSH1 0x0 PUSH2 0x1F05 DUP3 PUSH2 0x1FC2 JUMP JUMPDEST SWAP2 POP PUSH2 0x1F10 DUP4 PUSH2 0x1FC2 JUMP JUMPDEST SWAP3 POP DUP3 PUSH32 0xFFFFFFFFFFFFFFFFFFFFFFFFFFFFFFFFFFFFFFFFFFFFFFFFFFFFFFFFFFFFFFFF SUB DUP3 GT ISZERO PUSH2 0x1F45 JUMPI PUSH2 0x1F44 PUSH2 0x20BA JUMP JUMPDEST JUMPDEST DUP3 DUP3 ADD SWAP1 POP SWAP3 SWAP2 POP POP JUMP JUMPDEST PUSH1 0x0 PUSH2 0x1F5B DUP3 PUSH2 0x1FC2 JUMP JUMPDEST SWAP2 POP PUSH2 0x1F66 DUP4 PUSH2 0x1FC2 JUMP JUMPDEST SWAP3 POP DUP3 DUP3 LT ISZERO PUSH2 0x1F79 JUMPI PUSH2 0x1F78 PUSH2 0x20BA JUMP JUMPDEST JUMPDEST DUP3 DUP3 SUB SWAP1 POP SWAP3 SWAP2 POP POP JUMP JUMPDEST PUSH1 0x0 PUSH2 0x1F8F DUP3 PUSH2 0x1FA2 JUMP JUMPDEST SWAP1 POP SWAP2 SWAP1 POP JUMP JUMPDEST PUSH1 0x0 DUP2 ISZERO ISZERO SWAP1 POP SWAP2 SWAP1 POP JUMP JUMPDEST PUSH1 0x0 PUSH20 0xFFFFFFFFFFFFFFFFFFFFFFFFFFFFFFFFFFFFFFFF DUP3 AND SWAP1 POP SWAP2 SWAP1 POP JUMP JUMPDEST PUSH1 0x0 DUP2 SWAP1 POP SWAP2 SWAP1 POP JUMP JUMPDEST DUP3 DUP2 DUP4 CALLDATACOPY PUSH1 0x0 DUP4 DUP4 ADD MSTORE POP POP POP JUMP JUMPDEST PUSH1 0x0 JUMPDEST DUP4 DUP2 LT ISZERO PUSH2 0x1FF9 JUMPI DUP1 DUP3 ADD MLOAD DUP2 DUP5 ADD MSTORE PUSH1 0x20 DUP2 ADD SWAP1 POP PUSH2 0x1FDE JUMP JUMPDEST DUP4 DUP2 GT ISZERO PUSH2 0x2008 JUMPI PUSH1 0x0 DUP5 DUP5 ADD MSTORE JUMPDEST POP POP POP POP JUMP JUMPDEST PUSH1 0x0 PUSH1 0x2 DUP3 DIV SWAP1 POP PUSH1 0x1 DUP3 AND DUP1 PUSH2 0x2026 JUMPI PUSH1 0x7F DUP3 AND SWAP2 POP JUMPDEST PUSH1 0x20 DUP3 LT DUP2 EQ ISZERO PUSH2 0x203A JUMPI PUSH2 0x2039 PUSH2 0x20E9 JUMP JUMPDEST JUMPDEST POP SWAP2 SWAP1 POP JUMP JUMPDEST PUSH2 0x2049 DUP3 PUSH2 0x2147 JUMP JUMPDEST DUP2 ADD DUP2 DUP2 LT PUSH8 0xFFFFFFFFFFFFFFFF DUP3 GT OR ISZERO PUSH2 0x2068 JUMPI PUSH2 0x2067 PUSH2 0x2118 JUMP JUMPDEST JUMPDEST DUP1 PUSH1 0x40 MSTORE POP POP POP JUMP JUMPDEST PUSH1 0x0 PUSH2 0x207C DUP3 PUSH2 0x1FC2 JUMP JUMPDEST SWAP2 POP PUSH32 0xFFFFFFFFFFFFFFFFFFFFFFFFFFFFFFFFFFFFFFFFFFFFFFFFFFFFFFFFFFFFFFFF DUP3 EQ ISZERO PUSH2 0x20AF JUMPI PUSH2 0x20AE PUSH2 0x20BA JUMP JUMPDEST JUMPDEST PUSH1 0x1 DUP3 ADD SWAP1 POP SWAP2 SWAP1 POP JUMP JUMPDEST PUSH32 0x4E487B7100000000000000000000000000000000000000000000000000000000 PUSH1 0x0 MSTORE PUSH1 0x11 PUSH1 0x4 MSTORE PUSH1 0x24 PUSH1 0x0 REVERT JUMPDEST PUSH32 0x4E487B7100000000000000000000000000000000000000000000000000000000 PUSH1 0x0 MSTORE PUSH1 0x22 PUSH1 0x4 MSTORE PUSH1 0x24 PUSH1 0x0 REVERT JUMPDEST PUSH32 0x4E487B7100000000000000000000000000000000000000000000000000000000 PUSH1 0x0 MSTORE PUSH1 0x41 PUSH1 0x4 MSTORE PUSH1 0x24 PUSH1 0x0 REVERT JUMPDEST PUSH1 0x0 PUSH1 0x1F NOT PUSH1 0x1F DUP4 ADD AND SWAP1 POP SWAP2 SWAP1 POP JUMP JUMPDEST PUSH32 0x75736572206167652062656C6F772031382063616E2774207265676973746572 PUSH1 0x0 DUP3 ADD MSTORE PUSH32 0x20666F722074686520766F746500000000000000000000000000000000000000 PUSH1 0x20 DUP3 ADD MSTORE POP JUMP JUMPDEST PUSH32 0x4E6F206F6E652068617320766F74656420796574000000000000000000000000 PUSH1 0x0 DUP3 ADD MSTORE POP JUMP JUMPDEST PUSH32 0x4E6F2063616E6469646174657320746F20766965770000000000000000000000 PUSH1 0x0 DUP3 ADD MSTORE POP JUMP JUMPDEST PUSH32 0x75736572206861736E277420766F746564207965740000000000000000000000 PUSH1 0x0 DUP3 ADD MSTORE POP JUMP JUMPDEST PUSH32 0x7468657265206973206E6F20636F6E74657374616E7420776974682074686973 PUSH1 0x0 DUP3 ADD MSTORE PUSH32 0x206E756D62657200000000000000000000000000000000000000000000000000 PUSH1 0x20 DUP3 ADD MSTORE POP JUMP JUMPDEST PUSH32 0x6E616D652068617320616C7265616479206265656E2061646465640000000000 PUSH1 0x0 DUP3 ADD MSTORE POP JUMP JUMPDEST PUSH32 0x4E6F2063616E64696461746520686173206265656E2061646465640000000000 PUSH1 0x0 DUP3 ADD MSTORE POP JUMP JUMPDEST PUSH32 0x74686520636F6E74726163742069732070617573656400000000000000000000 PUSH1 0x0 DUP3 ADD MSTORE POP JUMP JUMPDEST PUSH32 0x757365722068617320766F74656420616C726561647900000000000000000000 PUSH1 0x0 DUP3 ADD MSTORE POP JUMP JUMPDEST PUSH32 0x75736572206861736E2774207265676973746572656420796574000000000000 PUSH1 0x0 DUP3 ADD MSTORE POP JUMP JUMPDEST PUSH32 0x7573657220686173207265676973746572656400000000000000000000000000 PUSH1 0x0 DUP3 ADD MSTORE POP JUMP JUMPDEST PUSH32 0x4F6E6C79204F776E65722063616E2063616C6C20746869732066756E6374696F PUSH1 0x0 DUP3 ADD MSTORE PUSH32 0x6E00000000000000000000000000000000000000000000000000000000000000 PUSH1 0x20 DUP3 ADD MSTORE POP JUMP JUMPDEST PUSH2 0x23BF DUP2 PUSH2 0x1FC2 JUMP JUMPDEST DUP2 EQ PUSH2 0x23CA JUMPI PUSH1 0x0 DUP1 REVERT JUMPDEST POP JUMP INVALID LOG2 PUSH5 0x6970667358 0x22 SLT KECCAK256 PUSH13 0xB7702E1241949E7C2667E432A5 PUSH27 0x629FD73E698CF18212AA98420671A110464736F6C634300080300 CALLER "
				},
				"gasEstimates": {
					"creation": {
						"codeDepositCost": "1843800",
						"executionCost": "43681",
						"totalCost": "1887481"
					},
					"external": {
						"addContestant(string)": "infinite",
						"candidateNo()": "1196",
						"isItPaused()": "1282",
						"listOfCandidatesVotes()": "infinite",
						"pause()": "23082",
						"register(string,uint256)": "infinite",
						"revealWinner()": "infinite",
						"totalVotes()": "1152",
						"unpause()": "23105",
						"viewCandidates()": "infinite",
						"vote(uint256)": "infinite",
						"voterNo()": "1152",
						"whoDidIVoteFor()": "infinite"
					}
				},
				"methodIdentifiers": {
					"addContestant(string)": "832c0aca",
					"candidateNo()": "7aad8c80",
					"isItPaused()": "57df6ca3",
					"listOfCandidatesVotes()": "54e70cae",
					"pause()": "8456cb59",
					"register(string,uint256)": "ea87152b",
					"revealWinner()": "6c699905",
					"totalVotes()": "0d15fd77",
					"unpause()": "3f4ba83a",
					"viewCandidates()": "d30f11dd",
					"vote(uint256)": "0121b93f",
					"voterNo()": "5b72565b",
					"whoDidIVoteFor()": "238488fd"
				}
			},
			"storageLayout": {
				"storage": [
					{
						"astId": 3,
						"contract": "contract/assignment3.sol:election",
						"label": "owner",
						"offset": 0,
						"slot": "0",
						"type": "t_address"
					},
					{
						"astId": 5,
						"contract": "contract/assignment3.sol:election",
						"label": "candidateNo",
						"offset": 0,
						"slot": "1",
						"type": "t_uint256"
					},
					{
						"astId": 7,
						"contract": "contract/assignment3.sol:election",
						"label": "voterNo",
						"offset": 0,
						"slot": "2",
						"type": "t_uint256"
					},
					{
						"astId": 10,
						"contract": "contract/assignment3.sol:election",
						"label": "candidateName",
						"offset": 0,
						"slot": "3",
						"type": "t_array(t_string_storage)dyn_storage"
					},
					{
						"astId": 12,
						"contract": "contract/assignment3.sol:election",
						"label": "isItPaused",
						"offset": 0,
						"slot": "4",
						"type": "t_bool"
					},
					{
						"astId": 14,
						"contract": "contract/assignment3.sol:election",
						"label": "totalVotes",
						"offset": 0,
						"slot": "5",
						"type": "t_uint256"
					},
					{
						"astId": 38,
						"contract": "contract/assignment3.sol:election",
						"label": "voters",
						"offset": 0,
						"slot": "6",
						"type": "t_array(t_struct(voter)34_storage)dyn_storage"
					},
					{
						"astId": 42,
						"contract": "contract/assignment3.sol:election",
						"label": "candidateById",
						"offset": 0,
						"slot": "7",
						"type": "t_mapping(t_uint256,t_string_storage)"
					},
					{
						"astId": 46,
						"contract": "contract/assignment3.sol:election",
						"label": "haveVoted",
						"offset": 0,
						"slot": "8",
						"type": "t_mapping(t_address,t_bool)"
					},
					{
						"astId": 50,
						"contract": "contract/assignment3.sol:election",
						"label": "haveRegistered",
						"offset": 0,
						"slot": "9",
						"type": "t_mapping(t_address,t_bool)"
					},
					{
						"astId": 54,
						"contract": "contract/assignment3.sol:election",
						"label": "candidateByVote",
						"offset": 0,
						"slot": "10",
						"type": "t_mapping(t_uint256,t_uint256)"
					},
					{
						"astId": 58,
						"contract": "contract/assignment3.sol:election",
						"label": "votersToCandidate",
						"offset": 0,
						"slot": "11",
						"type": "t_mapping(t_address,t_string_storage)"
					}
				],
				"types": {
					"t_address": {
						"encoding": "inplace",
						"label": "address",
						"numberOfBytes": "20"
					},
					"t_array(t_string_storage)dyn_storage": {
						"base": "t_string_storage",
						"encoding": "dynamic_array",
						"label": "string[]",
						"numberOfBytes": "32"
					},
					"t_array(t_struct(voter)34_storage)dyn_storage": {
						"base": "t_struct(voter)34_storage",
						"encoding": "dynamic_array",
						"label": "struct election.voter[]",
						"numberOfBytes": "32"
					},
					"t_bool": {
						"encoding": "inplace",
						"label": "bool",
						"numberOfBytes": "1"
					},
					"t_mapping(t_address,t_bool)": {
						"encoding": "mapping",
						"key": "t_address",
						"label": "mapping(address => bool)",
						"numberOfBytes": "32",
						"value": "t_bool"
					},
					"t_mapping(t_address,t_string_storage)": {
						"encoding": "mapping",
						"key": "t_address",
						"label": "mapping(address => string)",
						"numberOfBytes": "32",
						"value": "t_string_storage"
					},
					"t_mapping(t_uint256,t_string_storage)": {
						"encoding": "mapping",
						"key": "t_uint256",
						"label": "mapping(uint256 => string)",
						"numberOfBytes": "32",
						"value": "t_string_storage"
					},
					"t_mapping(t_uint256,t_uint256)": {
						"encoding": "mapping",
						"key": "t_uint256",
						"label": "mapping(uint256 => uint256)",
						"numberOfBytes": "32",
						"value": "t_uint256"
					},
					"t_string_storage": {
						"encoding": "bytes",
						"label": "string",
						"numberOfBytes": "32"
					},
					"t_struct(voter)34_storage": {
						"encoding": "inplace",
						"label": "struct election.voter",
						"members": [
							{
								"astId": 29,
								"contract": "contract/assignment3.sol:election",
								"label": "voterId",
								"offset": 0,
								"slot": "0",
								"type": "t_uint256"
							},
							{
								"astId": 31,
								"contract": "contract/assignment3.sol:election",
								"label": "voterName",
								"offset": 0,
								"slot": "1",
								"type": "t_string_storage"
							},
							{
								"astId": 33,
								"contract": "contract/assignment3.sol:election",
								"label": "age",
								"offset": 0,
								"slot": "2",
								"type": "t_uint256"
							}
						],
						"numberOfBytes": "96"
					},
					"t_uint256": {
						"encoding": "inplace",
						"label": "uint256",
						"numberOfBytes": "32"
					}
				}
			},
			"userdoc": {
				"kind": "user",
				"methods": {},
				"version": 1
			}
		}
	}
}