{
	"contract/assignment3.sol": {
		"election": {
			"abi": [
				{
					"inputs": [],
					"stateMutability": "nonpayable",
					"type": "constructor"
				},
				{
					"anonymous": false,
					"inputs": [
						{
							"indexed": true,
							"internalType": "uint256",
							"name": "candidateNo",
							"type": "uint256"
						},
						{
							"indexed": false,
							"internalType": "string",
							"name": "candidateName",
							"type": "string"
						}
					],
					"name": "ContestantAdded",
					"type": "event"
				},
				{
					"anonymous": false,
					"inputs": [
						{
							"indexed": true,
							"internalType": "address",
							"name": "by",
							"type": "address"
						}
					],
					"name": "Paused",
					"type": "event"
				},
				{
					"anonymous": false,
					"inputs": [
						{
							"indexed": true,
							"internalType": "uint256",
							"name": "voterNo",
							"type": "uint256"
						},
						{
							"indexed": false,
							"internalType": "string",
							"name": "voterName",
							"type": "string"
						},
						{
							"indexed": true,
							"internalType": "address",
							"name": "voterAddress",
							"type": "address"
						}
					],
					"name": "Registered",
					"type": "event"
				},
				{
					"anonymous": false,
					"inputs": [
						{
							"indexed": true,
							"internalType": "address",
							"name": "by",
							"type": "address"
						}
					],
					"name": "Unpaused",
					"type": "event"
				},
				{
					"anonymous": false,
					"inputs": [
						{
							"indexed": true,
							"internalType": "uint256",
							"name": "candidateNo",
							"type": "uint256"
						},
						{
							"indexed": false,
							"internalType": "address",
							"name": "voterAddress",
							"type": "address"
						},
						{
							"indexed": false,
							"internalType": "uint256",
							"name": "totalVotes",
							"type": "uint256"
						}
					],
					"name": "Voted",
					"type": "event"
				},
				{
					"inputs": [
						{
							"internalType": "string",
							"name": "_name",
							"type": "string"
						}
					],
					"name": "addContestant",
					"outputs": [],
					"stateMutability": "nonpayable",
					"type": "function"
				},
				{
					"inputs": [],
					"name": "candidateNo",
					"outputs": [
						{
							"internalType": "uint256",
							"name": "",
							"type": "uint256"
						}
					],
					"stateMutability": "view",
					"type": "function"
				},
				{
					"inputs": [],
					"name": "isItPaused",
					"outputs": [
						{
							"internalType": "bool",
							"name": "",
							"type": "bool"
						}
					],
					"stateMutability": "view",
					"type": "function"
				},
				{
					"inputs": [],
					"name": "pause",
					"outputs": [],
					"stateMutability": "nonpayable",
					"type": "function"
				},
				{
					"inputs": [
						{
							"internalType": "string",
							"name": "_voterName",
							"type": "string"
						},
						{
							"internalType": "uint256",
							"name": "_age",
							"type": "uint256"
						}
					],
					"name": "register",
					"outputs": [],
					"stateMutability": "nonpayable",
					"type": "function"
				},
				{
					"inputs": [],
					"name": "revealWinner",
					"outputs": [
						{
							"internalType": "string",
							"name": "",
							"type": "string"
						}
					],
					"stateMutability": "view",
					"type": "function"
				},
				{
					"inputs": [],
					"name": "totalVotes",
					"outputs": [
						{
							"internalType": "uint256",
							"name": "",
							"type": "uint256"
						}
					],
					"stateMutability": "view",
					"type": "function"
				},
				{
					"inputs": [],
					"name": "unpause",
					"outputs": [],
					"stateMutability": "nonpayable",
					"type": "function"
				},
				{
					"inputs": [],
					"name": "viewCandidates",
					"outputs": [
						{
							"internalType": "uint256[]",
							"name": "",
							"type": "uint256[]"
						},
						{
							"internalType": "string[]",
							"name": "",
							"type": "string[]"
						}
					],
					"stateMutability": "view",
					"type": "function"
				},
				{
					"inputs": [
						{
							"internalType": "uint256",
							"name": "_candidateNo",
							"type": "uint256"
						}
					],
					"name": "vote",
					"outputs": [],
					"stateMutability": "nonpayable",
					"type": "function"
				},
				{
					"inputs": [],
					"name": "voterNo",
					"outputs": [
						{
							"internalType": "uint256",
							"name": "",
							"type": "uint256"
						}
					],
					"stateMutability": "view",
					"type": "function"
				},
				{
					"inputs": [],
					"name": "whoDidIVoteFor",
					"outputs": [
						{
							"internalType": "string",
							"name": "",
							"type": "string"
						}
					],
					"stateMutability": "view",
					"type": "function"
				}
			],
			"devdoc": {
				"kind": "dev",
				"methods": {},
				"version": 1
			},
			"evm": {
				"assembly": "    /* \"contract/assignment3.sol\":61:4294  contract election{\r... */\n  mstore(0x40, 0x80)\n    /* \"contract/assignment3.sol\":265:349  constructor () {\r... */\n  callvalue\n  dup1\n  iszero\n  tag_1\n  jumpi\n  0x00\n  dup1\n  revert\ntag_1:\n  pop\n    /* \"contract/assignment3.sol\":301:311  msg.sender */\n  caller\n    /* \"contract/assignment3.sol\":293:298  owner */\n  0x00\n  dup1\n    /* \"contract/assignment3.sol\":293:311  owner = msg.sender */\n  0x0100\n  exp\n  dup2\n  sload\n  dup2\n  0xffffffffffffffffffffffffffffffffffffffff\n  mul\n  not\n  and\n  swap1\n  dup4\n  0xffffffffffffffffffffffffffffffffffffffff\n  and\n  mul\n  or\n  swap1\n  sstore\n  pop\n    /* \"contract/assignment3.sol\":337:341  true */\n  0x01\n    /* \"contract/assignment3.sol\":324:334  isItPaused */\n  0x04\n  0x00\n    /* \"contract/assignment3.sol\":324:341  isItPaused = true */\n  0x0100\n  exp\n  dup2\n  sload\n  dup2\n  0xff\n  mul\n  not\n  and\n  swap1\n  dup4\n  iszero\n  iszero\n  mul\n  or\n  swap1\n  sstore\n  pop\n    /* \"contract/assignment3.sol\":61:4294  contract election{\r... */\n  dataSize(sub_0)\n  dup1\n  dataOffset(sub_0)\n  0x00\n  codecopy\n  0x00\n  return\nstop\n\nsub_0: assembly {\n        /* \"contract/assignment3.sol\":61:4294  contract election{\r... */\n      mstore(0x40, 0x80)\n      callvalue\n      dup1\n      iszero\n      tag_1\n      jumpi\n      0x00\n      dup1\n      revert\n    tag_1:\n      pop\n      jumpi(tag_2, lt(calldatasize, 0x04))\n      shr(0xe0, calldataload(0x00))\n      dup1\n      0x6c699905\n      gt\n      tag_15\n      jumpi\n      dup1\n      0x6c699905\n      eq\n      tag_9\n      jumpi\n      dup1\n      0x7aad8c80\n      eq\n      tag_10\n      jumpi\n      dup1\n      0x832c0aca\n      eq\n      tag_11\n      jumpi\n      dup1\n      0x8456cb59\n      eq\n      tag_12\n      jumpi\n      dup1\n      0xd30f11dd\n      eq\n      tag_13\n      jumpi\n      dup1\n      0xea87152b\n      eq\n      tag_14\n      jumpi\n      jump(tag_2)\n    tag_15:\n      dup1\n      0x0121b93f\n      eq\n      tag_3\n      jumpi\n      dup1\n      0x0d15fd77\n      eq\n      tag_4\n      jumpi\n      dup1\n      0x238488fd\n      eq\n      tag_5\n      jumpi\n      dup1\n      0x3f4ba83a\n      eq\n      tag_6\n      jumpi\n      dup1\n      0x57df6ca3\n      eq\n      tag_7\n      jumpi\n      dup1\n      0x5b72565b\n      eq\n      tag_8\n      jumpi\n    tag_2:\n      0x00\n      dup1\n      revert\n        /* \"contract/assignment3.sol\":2818:3388  function vote (uint _candidateNo) external whenNotPaused {\r... */\n    tag_3:\n      tag_16\n      0x04\n      dup1\n      calldatasize\n      sub\n      dup2\n      add\n      swap1\n      tag_17\n      swap2\n      swap1\n      tag_18\n      jump\t// in\n    tag_17:\n      tag_19\n      jump\t// in\n    tag_16:\n      stop\n        /* \"contract/assignment3.sol\":233:255  uint public totalVotes */\n    tag_4:\n      tag_20\n      tag_21\n      jump\t// in\n    tag_20:\n      mload(0x40)\n      tag_22\n      swap2\n      swap1\n      tag_23\n      jump\t// in\n    tag_22:\n      mload(0x40)\n      dup1\n      swap2\n      sub\n      swap1\n      return\n        /* \"contract/assignment3.sol\":3853:4041  function whoDidIVoteFor () external view returns(string memory){\r... */\n    tag_5:\n      tag_24\n      tag_25\n      jump\t// in\n    tag_24:\n      mload(0x40)\n      tag_26\n      swap2\n      swap1\n      tag_27\n      jump\t// in\n    tag_26:\n      mload(0x40)\n      dup1\n      swap2\n      sub\n      swap1\n      return\n        /* \"contract/assignment3.sol\":4167:4291  function unpause () external ownerOnly{\r... */\n    tag_6:\n      tag_28\n      tag_29\n      jump\t// in\n    tag_28:\n      stop\n        /* \"contract/assignment3.sol\":203:225  bool public isItPaused */\n    tag_7:\n      tag_30\n      tag_31\n      jump\t// in\n    tag_30:\n      mload(0x40)\n      tag_32\n      swap2\n      swap1\n      tag_33\n      jump\t// in\n    tag_32:\n      mload(0x40)\n      dup1\n      swap2\n      sub\n      swap1\n      return\n        /* \"contract/assignment3.sol\":142:164  uint256 public voterNo */\n    tag_8:\n      tag_34\n      tag_35\n      jump\t// in\n    tag_34:\n      mload(0x40)\n      tag_36\n      swap2\n      swap1\n      tag_23\n      jump\t// in\n    tag_36:\n      mload(0x40)\n      dup1\n      swap2\n      sub\n      swap1\n      return\n        /* \"contract/assignment3.sol\":3396:3845  function revealWinner () external view ownerOnly returns(string memory){\r... */\n    tag_9:\n      tag_37\n      tag_38\n      jump\t// in\n    tag_37:\n      mload(0x40)\n      tag_39\n      swap2\n      swap1\n      tag_27\n      jump\t// in\n    tag_39:\n      mload(0x40)\n      dup1\n      swap2\n      sub\n      swap1\n      return\n        /* \"contract/assignment3.sol\":108:134  uint256 public candidateNo */\n    tag_10:\n      tag_40\n      tag_41\n      jump\t// in\n    tag_40:\n      mload(0x40)\n      tag_42\n      swap2\n      swap1\n      tag_23\n      jump\t// in\n    tag_42:\n      mload(0x40)\n      dup1\n      swap2\n      sub\n      swap1\n      return\n        /* \"contract/assignment3.sol\":1397:1912  function addContestant (string memory _name) external ownerOnly {\r... */\n    tag_11:\n      tag_43\n      0x04\n      dup1\n      calldatasize\n      sub\n      dup2\n      add\n      swap1\n      tag_44\n      swap2\n      swap1\n      tag_45\n      jump\t// in\n    tag_44:\n      tag_46\n      jump\t// in\n    tag_43:\n      stop\n        /* \"contract/assignment3.sol\":4049:4159  function pause () external ownerOnly{\r... */\n    tag_12:\n      tag_47\n      tag_48\n      jump\t// in\n    tag_47:\n      stop\n        /* \"contract/assignment3.sol\":2342:2810  function viewCandidates () external view whenNotPaused returns(uint [] memory, string [] memory){\r... */\n    tag_13:\n      tag_49\n      tag_50\n      jump\t// in\n    tag_49:\n      mload(0x40)\n      tag_51\n      swap3\n      swap2\n      swap1\n      tag_52\n      jump\t// in\n    tag_51:\n      mload(0x40)\n      dup1\n      swap2\n      sub\n      swap1\n      return\n        /* \"contract/assignment3.sol\":1920:2333  function register (string memory _voterName , uint _age ) external{\r... */\n    tag_14:\n      tag_53\n      0x04\n      dup1\n      calldatasize\n      sub\n      dup2\n      add\n      swap1\n      tag_54\n      swap2\n      swap1\n      tag_55\n      jump\t// in\n    tag_54:\n      tag_56\n      jump\t// in\n    tag_53:\n      stop\n        /* \"contract/assignment3.sol\":2818:3388  function vote (uint _candidateNo) external whenNotPaused {\r... */\n    tag_19:\n        /* \"contract/assignment3.sol\":954:964  isItPaused */\n      0x04\n      0x00\n      swap1\n      sload\n      swap1\n      0x0100\n      exp\n      swap1\n      div\n      0xff\n      and\n        /* \"contract/assignment3.sol\":953:964  !isItPaused */\n      iszero\n        /* \"contract/assignment3.sol\":944:991  require (!isItPaused, \"the contract is paused\") */\n      tag_58\n      jumpi\n      mload(0x40)\n      0x08c379a000000000000000000000000000000000000000000000000000000000\n      dup2\n      mstore\n      0x04\n      add\n      tag_59\n      swap1\n      tag_60\n      jump\t// in\n    tag_59:\n      mload(0x40)\n      dup1\n      swap2\n      sub\n      swap1\n      revert\n    tag_58:\n        /* \"contract/assignment3.sol\":2912:2913  0 */\n      0x00\n        /* \"contract/assignment3.sol\":2896:2908  _candidateNo */\n      dup2\n        /* \"contract/assignment3.sol\":2896:2913  _candidateNo != 0 */\n      eq\n      iszero\n        /* \"contract/assignment3.sol\":2896:2944  _candidateNo != 0 && _candidateNo <= candidateNo */\n      dup1\n      iszero\n      tag_62\n      jumpi\n      pop\n        /* \"contract/assignment3.sol\":2933:2944  candidateNo */\n      sload(0x01)\n        /* \"contract/assignment3.sol\":2917:2929  _candidateNo */\n      dup2\n        /* \"contract/assignment3.sol\":2917:2944  _candidateNo <= candidateNo */\n      gt\n      iszero\n        /* \"contract/assignment3.sol\":2896:2944  _candidateNo != 0 && _candidateNo <= candidateNo */\n    tag_62:\n        /* \"contract/assignment3.sol\":2888:2988  require(_candidateNo != 0 && _candidateNo <= candidateNo, \"there is no contestant with this number\") */\n      tag_63\n      jumpi\n      mload(0x40)\n      0x08c379a000000000000000000000000000000000000000000000000000000000\n      dup2\n      mstore\n      0x04\n      add\n      tag_64\n      swap1\n      tag_65\n      jump\t// in\n    tag_64:\n      mload(0x40)\n      dup1\n      swap2\n      sub\n      swap1\n      revert\n    tag_63:\n        /* \"contract/assignment3.sol\":3010:3024  haveRegistered */\n      0x09\n        /* \"contract/assignment3.sol\":3010:3036  haveRegistered[msg.sender] */\n      0x00\n        /* \"contract/assignment3.sol\":3025:3035  msg.sender */\n      caller\n        /* \"contract/assignment3.sol\":3010:3036  haveRegistered[msg.sender] */\n      0xffffffffffffffffffffffffffffffffffffffff\n      and\n      0xffffffffffffffffffffffffffffffffffffffff\n      and\n      dup2\n      mstore\n      0x20\n      add\n      swap1\n      dup2\n      mstore\n      0x20\n      add\n      0x00\n      keccak256\n      0x00\n      swap1\n      sload\n      swap1\n      0x0100\n      exp\n      swap1\n      div\n      0xff\n      and\n        /* \"contract/assignment3.sol\":3001:3067  require (haveRegistered[msg.sender], \"user hasn't registered yet\") */\n      tag_66\n      jumpi\n      mload(0x40)\n      0x08c379a000000000000000000000000000000000000000000000000000000000\n      dup2\n      mstore\n      0x04\n      add\n      tag_67\n      swap1\n      tag_68\n      jump\t// in\n    tag_67:\n      mload(0x40)\n      dup1\n      swap2\n      sub\n      swap1\n      revert\n    tag_66:\n        /* \"contract/assignment3.sol\":3090:3099  haveVoted */\n      0x08\n        /* \"contract/assignment3.sol\":3090:3111  haveVoted[msg.sender] */\n      0x00\n        /* \"contract/assignment3.sol\":3100:3110  msg.sender */\n      caller\n        /* \"contract/assignment3.sol\":3090:3111  haveVoted[msg.sender] */\n      0xffffffffffffffffffffffffffffffffffffffff\n      and\n      0xffffffffffffffffffffffffffffffffffffffff\n      and\n      dup2\n      mstore\n      0x20\n      add\n      swap1\n      dup2\n      mstore\n      0x20\n      add\n      0x00\n      keccak256\n      0x00\n      swap1\n      sload\n      swap1\n      0x0100\n      exp\n      swap1\n      div\n      0xff\n      and\n        /* \"contract/assignment3.sol\":3089:3111  !haveVoted[msg.sender] */\n      iszero\n        /* \"contract/assignment3.sol\":3080:3137  require (!haveVoted[msg.sender],\"user has voted already\") */\n      tag_69\n      jumpi\n      mload(0x40)\n      0x08c379a000000000000000000000000000000000000000000000000000000000\n      dup2\n      mstore\n      0x04\n      add\n      tag_70\n      swap1\n      tag_71\n      jump\t// in\n    tag_70:\n      mload(0x40)\n      dup1\n      swap2\n      sub\n      swap1\n      revert\n    tag_69:\n        /* \"contract/assignment3.sol\":3150:3160  totalVotes */\n      0x05\n      0x00\n        /* \"contract/assignment3.sol\":3150:3162  totalVotes++ */\n      dup2\n      sload\n      dup1\n      swap3\n      swap2\n      swap1\n      tag_72\n      swap1\n      tag_73\n      jump\t// in\n    tag_72:\n      swap2\n      swap1\n      pop\n      sstore\n      pop\n        /* \"contract/assignment3.sol\":3175:3190  candidateByVote */\n      0x0a\n        /* \"contract/assignment3.sol\":3175:3204  candidateByVote[_candidateNo] */\n      0x00\n        /* \"contract/assignment3.sol\":3191:3203  _candidateNo */\n      dup3\n        /* \"contract/assignment3.sol\":3175:3204  candidateByVote[_candidateNo] */\n      dup2\n      mstore\n      0x20\n      add\n      swap1\n      dup2\n      mstore\n      0x20\n      add\n      0x00\n      keccak256\n      0x00\n        /* \"contract/assignment3.sol\":3175:3206  candidateByVote[_candidateNo]++ */\n      dup2\n      sload\n      dup1\n      swap3\n      swap2\n      swap1\n      tag_74\n      swap1\n      tag_73\n      jump\t// in\n    tag_74:\n      swap2\n      swap1\n      pop\n      sstore\n      pop\n        /* \"contract/assignment3.sol\":3251:3264  candidateById */\n      0x07\n        /* \"contract/assignment3.sol\":3251:3278  candidateById[_candidateNo] */\n      0x00\n        /* \"contract/assignment3.sol\":3265:3277  _candidateNo */\n      dup3\n        /* \"contract/assignment3.sol\":3251:3278  candidateById[_candidateNo] */\n      dup2\n      mstore\n      0x20\n      add\n      swap1\n      dup2\n      mstore\n      0x20\n      add\n      0x00\n      keccak256\n        /* \"contract/assignment3.sol\":3219:3236  votersToCandidate */\n      0x0b\n        /* \"contract/assignment3.sol\":3219:3248  votersToCandidate[msg.sender] */\n      0x00\n        /* \"contract/assignment3.sol\":3237:3247  msg.sender */\n      caller\n        /* \"contract/assignment3.sol\":3219:3248  votersToCandidate[msg.sender] */\n      0xffffffffffffffffffffffffffffffffffffffff\n      and\n      0xffffffffffffffffffffffffffffffffffffffff\n      and\n      dup2\n      mstore\n      0x20\n      add\n      swap1\n      dup2\n      mstore\n      0x20\n      add\n      0x00\n      keccak256\n        /* \"contract/assignment3.sol\":3219:3278  votersToCandidate[msg.sender] = candidateById[_candidateNo] */\n      swap1\n      dup1\n      sload\n      tag_75\n      swap1\n      tag_76\n      jump\t// in\n    tag_75:\n      tag_77\n      swap3\n      swap2\n      swap1\n      tag_78\n      jump\t// in\n    tag_77:\n      pop\n        /* \"contract/assignment3.sol\":3315:3319  true */\n      0x01\n        /* \"contract/assignment3.sol\":3291:3300  haveVoted */\n      0x08\n        /* \"contract/assignment3.sol\":3291:3312  haveVoted[msg.sender] */\n      0x00\n        /* \"contract/assignment3.sol\":3301:3311  msg.sender */\n      caller\n        /* \"contract/assignment3.sol\":3291:3312  haveVoted[msg.sender] */\n      0xffffffffffffffffffffffffffffffffffffffff\n      and\n      0xffffffffffffffffffffffffffffffffffffffff\n      and\n      dup2\n      mstore\n      0x20\n      add\n      swap1\n      dup2\n      mstore\n      0x20\n      add\n      0x00\n      keccak256\n      0x00\n        /* \"contract/assignment3.sol\":3291:3319  haveVoted[msg.sender] = true */\n      0x0100\n      exp\n      dup2\n      sload\n      dup2\n      0xff\n      mul\n      not\n      and\n      swap1\n      dup4\n      iszero\n      iszero\n      mul\n      or\n      swap1\n      sstore\n      pop\n        /* \"contract/assignment3.sol\":3343:3355  _candidateNo */\n      dup1\n        /* \"contract/assignment3.sol\":3337:3380  Voted(_candidateNo, msg.sender, totalVotes) */\n      0x1abe610cf2bf87e57dcc1181fcf5ac0934e843d8344ab9eed6e86c799f62585e\n        /* \"contract/assignment3.sol\":3357:3367  msg.sender */\n      caller\n        /* \"contract/assignment3.sol\":3369:3379  totalVotes */\n      sload(0x05)\n        /* \"contract/assignment3.sol\":3337:3380  Voted(_candidateNo, msg.sender, totalVotes) */\n      mload(0x40)\n      tag_79\n      swap3\n      swap2\n      swap1\n      tag_80\n      jump\t// in\n    tag_79:\n      mload(0x40)\n      dup1\n      swap2\n      sub\n      swap1\n      log2\n        /* \"contract/assignment3.sol\":2818:3388  function vote (uint _candidateNo) external whenNotPaused {\r... */\n      pop\n      jump\t// out\n        /* \"contract/assignment3.sol\":233:255  uint public totalVotes */\n    tag_21:\n      sload(0x05)\n      dup2\n      jump\t// out\n        /* \"contract/assignment3.sol\":3853:4041  function whoDidIVoteFor () external view returns(string memory){\r... */\n    tag_25:\n        /* \"contract/assignment3.sol\":3902:3915  string memory */\n      0x60\n        /* \"contract/assignment3.sol\":3937:3946  haveVoted */\n      0x08\n        /* \"contract/assignment3.sol\":3937:3958  haveVoted[msg.sender] */\n      0x00\n        /* \"contract/assignment3.sol\":3947:3957  msg.sender */\n      caller\n        /* \"contract/assignment3.sol\":3937:3958  haveVoted[msg.sender] */\n      0xffffffffffffffffffffffffffffffffffffffff\n      and\n      0xffffffffffffffffffffffffffffffffffffffff\n      and\n      dup2\n      mstore\n      0x20\n      add\n      swap1\n      dup2\n      mstore\n      0x20\n      add\n      0x00\n      keccak256\n      0x00\n      swap1\n      sload\n      swap1\n      0x0100\n      exp\n      swap1\n      div\n      0xff\n      and\n        /* \"contract/assignment3.sol\":3929:3984  require(haveVoted[msg.sender], \"user hasn't voted yet\") */\n      tag_82\n      jumpi\n      mload(0x40)\n      0x08c379a000000000000000000000000000000000000000000000000000000000\n      dup2\n      mstore\n      0x04\n      add\n      tag_83\n      swap1\n      tag_84\n      jump\t// in\n    tag_83:\n      mload(0x40)\n      dup1\n      swap2\n      sub\n      swap1\n      revert\n    tag_82:\n        /* \"contract/assignment3.sol\":4004:4021  votersToCandidate */\n      0x0b\n        /* \"contract/assignment3.sol\":4004:4033  votersToCandidate[msg.sender] */\n      0x00\n        /* \"contract/assignment3.sol\":4022:4032  msg.sender */\n      caller\n        /* \"contract/assignment3.sol\":4004:4033  votersToCandidate[msg.sender] */\n      0xffffffffffffffffffffffffffffffffffffffff\n      and\n      0xffffffffffffffffffffffffffffffffffffffff\n      and\n      dup2\n      mstore\n      0x20\n      add\n      swap1\n      dup2\n      mstore\n      0x20\n      add\n      0x00\n      keccak256\n        /* \"contract/assignment3.sol\":3997:4033  return votersToCandidate[msg.sender] */\n      dup1\n      sload\n      tag_85\n      swap1\n      tag_76\n      jump\t// in\n    tag_85:\n      dup1\n      0x1f\n      add\n      0x20\n      dup1\n      swap2\n      div\n      mul\n      0x20\n      add\n      mload(0x40)\n      swap1\n      dup2\n      add\n      0x40\n      mstore\n      dup1\n      swap3\n      swap2\n      swap1\n      dup2\n      dup2\n      mstore\n      0x20\n      add\n      dup3\n      dup1\n      sload\n      tag_86\n      swap1\n      tag_76\n      jump\t// in\n    tag_86:\n      dup1\n      iszero\n      tag_87\n      jumpi\n      dup1\n      0x1f\n      lt\n      tag_88\n      jumpi\n      0x0100\n      dup1\n      dup4\n      sload\n      div\n      mul\n      dup4\n      mstore\n      swap2\n      0x20\n      add\n      swap2\n      jump(tag_87)\n    tag_88:\n      dup3\n      add\n      swap2\n      swap1\n      0x00\n      mstore\n      keccak256(0x00, 0x20)\n      swap1\n    tag_89:\n      dup2\n      sload\n      dup2\n      mstore\n      swap1\n      0x01\n      add\n      swap1\n      0x20\n      add\n      dup1\n      dup4\n      gt\n      tag_89\n      jumpi\n      dup3\n      swap1\n      sub\n      0x1f\n      and\n      dup3\n      add\n      swap2\n    tag_87:\n      pop\n      pop\n      pop\n      pop\n      pop\n      swap1\n      pop\n        /* \"contract/assignment3.sol\":3853:4041  function whoDidIVoteFor () external view returns(string memory){\r... */\n      swap1\n      jump\t// out\n        /* \"contract/assignment3.sol\":4167:4291  function unpause () external ownerOnly{\r... */\n    tag_29:\n        /* \"contract/assignment3.sol\":829:839  msg.sender */\n      caller\n        /* \"contract/assignment3.sol\":820:839  owner == msg.sender */\n      0xffffffffffffffffffffffffffffffffffffffff\n      and\n        /* \"contract/assignment3.sol\":820:825  owner */\n      0x00\n      dup1\n      sload\n      swap1\n      0x0100\n      exp\n      swap1\n      div\n      0xffffffffffffffffffffffffffffffffffffffff\n      and\n        /* \"contract/assignment3.sol\":820:839  owner == msg.sender */\n      0xffffffffffffffffffffffffffffffffffffffff\n      and\n      eq\n        /* \"contract/assignment3.sol\":812:877  require(owner == msg.sender, \"Only Owner can call this function\") */\n      tag_91\n      jumpi\n      mload(0x40)\n      0x08c379a000000000000000000000000000000000000000000000000000000000\n      dup2\n      mstore\n      0x04\n      add\n      tag_92\n      swap1\n      tag_93\n      jump\t// in\n    tag_92:\n      mload(0x40)\n      dup1\n      swap2\n      sub\n      swap1\n      revert\n    tag_91:\n        /* \"contract/assignment3.sol\":4240:4245  false */\n      0x00\n        /* \"contract/assignment3.sol\":4226:4236  isItPaused */\n      0x04\n      0x00\n        /* \"contract/assignment3.sol\":4226:4245  isItPaused  = false */\n      0x0100\n      exp\n      dup2\n      sload\n      dup2\n      0xff\n      mul\n      not\n      and\n      swap1\n      dup4\n      iszero\n      iszero\n      mul\n      or\n      swap1\n      sstore\n      pop\n        /* \"contract/assignment3.sol\":4272:4282  msg.sender */\n      caller\n        /* \"contract/assignment3.sol\":4263:4283  Unpaused(msg.sender) */\n      0xffffffffffffffffffffffffffffffffffffffff\n      and\n      0x5db9ee0a495bf2e6ff9c91a7834c1ba4fdd244a5e8aa4e537bd38aeae4b073aa\n      mload(0x40)\n      mload(0x40)\n      dup1\n      swap2\n      sub\n      swap1\n      log2\n        /* \"contract/assignment3.sol\":4167:4291  function unpause () external ownerOnly{\r... */\n      jump\t// out\n        /* \"contract/assignment3.sol\":203:225  bool public isItPaused */\n    tag_31:\n      0x04\n      0x00\n      swap1\n      sload\n      swap1\n      0x0100\n      exp\n      swap1\n      div\n      0xff\n      and\n      dup2\n      jump\t// out\n        /* \"contract/assignment3.sol\":142:164  uint256 public voterNo */\n    tag_35:\n      sload(0x02)\n      dup2\n      jump\t// out\n        /* \"contract/assignment3.sol\":3396:3845  function revealWinner () external view ownerOnly returns(string memory){\r... */\n    tag_38:\n        /* \"contract/assignment3.sol\":3453:3466  string memory */\n      0x60\n        /* \"contract/assignment3.sol\":829:839  msg.sender */\n      caller\n        /* \"contract/assignment3.sol\":820:839  owner == msg.sender */\n      0xffffffffffffffffffffffffffffffffffffffff\n      and\n        /* \"contract/assignment3.sol\":820:825  owner */\n      0x00\n      dup1\n      sload\n      swap1\n      0x0100\n      exp\n      swap1\n      div\n      0xffffffffffffffffffffffffffffffffffffffff\n      and\n        /* \"contract/assignment3.sol\":820:839  owner == msg.sender */\n      0xffffffffffffffffffffffffffffffffffffffff\n      and\n      eq\n        /* \"contract/assignment3.sol\":812:877  require(owner == msg.sender, \"Only Owner can call this function\") */\n      tag_96\n      jumpi\n      mload(0x40)\n      0x08c379a000000000000000000000000000000000000000000000000000000000\n      dup2\n      mstore\n      0x04\n      add\n      tag_97\n      swap1\n      tag_93\n      jump\t// in\n    tag_97:\n      mload(0x40)\n      dup1\n      swap2\n      sub\n      swap1\n      revert\n    tag_96:\n        /* \"contract/assignment3.sol\":3501:3502  0 */\n      0x00\n        /* \"contract/assignment3.sol\":3488:3498  totalVotes */\n      sload(0x05)\n        /* \"contract/assignment3.sol\":3488:3502  totalVotes > 0 */\n      gt\n        /* \"contract/assignment3.sol\":3480:3527  require(totalVotes > 0, \"No one has voted yet\") */\n      tag_99\n      jumpi\n      mload(0x40)\n      0x08c379a000000000000000000000000000000000000000000000000000000000\n      dup2\n      mstore\n      0x04\n      add\n      tag_100\n      swap1\n      tag_101\n      jump\t// in\n    tag_100:\n      mload(0x40)\n      dup1\n      swap2\n      sub\n      swap1\n      revert\n    tag_99:\n        /* \"contract/assignment3.sol\":3540:3552  uint maxVote */\n      0x00\n        /* \"contract/assignment3.sol\":3563:3584  uint winningCandidate */\n      dup1\n        /* \"contract/assignment3.sol\":3607:3613  uint i */\n      0x00\n        /* \"contract/assignment3.sol\":3616:3617  1 */\n      0x01\n        /* \"contract/assignment3.sol\":3607:3617  uint i = 1 */\n      swap1\n      pop\n        /* \"contract/assignment3.sol\":3603:3789  for(uint i = 1; i <= candidateNo; i++){\r... */\n    tag_102:\n        /* \"contract/assignment3.sol\":3624:3635  candidateNo */\n      sload(0x01)\n        /* \"contract/assignment3.sol\":3619:3620  i */\n      dup2\n        /* \"contract/assignment3.sol\":3619:3635  i <= candidateNo */\n      gt\n        /* \"contract/assignment3.sol\":3603:3789  for(uint i = 1; i <= candidateNo; i++){\r... */\n      tag_103\n      jumpi\n        /* \"contract/assignment3.sol\":3678:3685  maxVote */\n      dup3\n        /* \"contract/assignment3.sol\":3657:3672  candidateByVote */\n      0x0a\n        /* \"contract/assignment3.sol\":3657:3675  candidateByVote[i] */\n      0x00\n        /* \"contract/assignment3.sol\":3673:3674  i */\n      dup4\n        /* \"contract/assignment3.sol\":3657:3675  candidateByVote[i] */\n      dup2\n      mstore\n      0x20\n      add\n      swap1\n      dup2\n      mstore\n      0x20\n      add\n      0x00\n      keccak256\n      sload\n        /* \"contract/assignment3.sol\":3657:3685  candidateByVote[i] > maxVote */\n      gt\n        /* \"contract/assignment3.sol\":3654:3780  if(candidateByVote[i] > maxVote){\r... */\n      iszero\n      tag_105\n      jumpi\n        /* \"contract/assignment3.sol\":3713:3728  candidateByVote */\n      0x0a\n        /* \"contract/assignment3.sol\":3713:3731  candidateByVote[i] */\n      0x00\n        /* \"contract/assignment3.sol\":3729:3730  i */\n      dup3\n        /* \"contract/assignment3.sol\":3713:3731  candidateByVote[i] */\n      dup2\n      mstore\n      0x20\n      add\n      swap1\n      dup2\n      mstore\n      0x20\n      add\n      0x00\n      keccak256\n      sload\n        /* \"contract/assignment3.sol\":3703:3731  maxVote = candidateByVote[i] */\n      swap3\n      pop\n        /* \"contract/assignment3.sol\":3767:3768  i */\n      dup1\n        /* \"contract/assignment3.sol\":3748:3768  winningCandidate = i */\n      swap2\n      pop\n        /* \"contract/assignment3.sol\":3654:3780  if(candidateByVote[i] > maxVote){\r... */\n    tag_105:\n        /* \"contract/assignment3.sol\":3637:3640  i++ */\n      dup1\n      dup1\n      tag_106\n      swap1\n      tag_73\n      jump\t// in\n    tag_106:\n      swap2\n      pop\n      pop\n        /* \"contract/assignment3.sol\":3603:3789  for(uint i = 1; i <= candidateNo; i++){\r... */\n      jump(tag_102)\n    tag_103:\n      pop\n        /* \"contract/assignment3.sol\":3805:3818  candidateById */\n      0x07\n        /* \"contract/assignment3.sol\":3805:3836  candidateById[winningCandidate] */\n      0x00\n        /* \"contract/assignment3.sol\":3819:3835  winningCandidate */\n      dup3\n        /* \"contract/assignment3.sol\":3805:3836  candidateById[winningCandidate] */\n      dup2\n      mstore\n      0x20\n      add\n      swap1\n      dup2\n      mstore\n      0x20\n      add\n      0x00\n      keccak256\n        /* \"contract/assignment3.sol\":3798:3836  return candidateById[winningCandidate] */\n      dup1\n      sload\n      tag_107\n      swap1\n      tag_76\n      jump\t// in\n    tag_107:\n      dup1\n      0x1f\n      add\n      0x20\n      dup1\n      swap2\n      div\n      mul\n      0x20\n      add\n      mload(0x40)\n      swap1\n      dup2\n      add\n      0x40\n      mstore\n      dup1\n      swap3\n      swap2\n      swap1\n      dup2\n      dup2\n      mstore\n      0x20\n      add\n      dup3\n      dup1\n      sload\n      tag_108\n      swap1\n      tag_76\n      jump\t// in\n    tag_108:\n      dup1\n      iszero\n      tag_109\n      jumpi\n      dup1\n      0x1f\n      lt\n      tag_110\n      jumpi\n      0x0100\n      dup1\n      dup4\n      sload\n      div\n      mul\n      dup4\n      mstore\n      swap2\n      0x20\n      add\n      swap2\n      jump(tag_109)\n    tag_110:\n      dup3\n      add\n      swap2\n      swap1\n      0x00\n      mstore\n      keccak256(0x00, 0x20)\n      swap1\n    tag_111:\n      dup2\n      sload\n      dup2\n      mstore\n      swap1\n      0x01\n      add\n      swap1\n      0x20\n      add\n      dup1\n      dup4\n      gt\n      tag_111\n      jumpi\n      dup3\n      swap1\n      sub\n      0x1f\n      and\n      dup3\n      add\n      swap2\n    tag_109:\n      pop\n      pop\n      pop\n      pop\n      pop\n      swap3\n      pop\n      pop\n      pop\n        /* \"contract/assignment3.sol\":3396:3845  function revealWinner () external view ownerOnly returns(string memory){\r... */\n      swap1\n      jump\t// out\n        /* \"contract/assignment3.sol\":108:134  uint256 public candidateNo */\n    tag_41:\n      sload(0x01)\n      dup2\n      jump\t// out\n        /* \"contract/assignment3.sol\":1397:1912  function addContestant (string memory _name) external ownerOnly {\r... */\n    tag_46:\n        /* \"contract/assignment3.sol\":829:839  msg.sender */\n      caller\n        /* \"contract/assignment3.sol\":820:839  owner == msg.sender */\n      0xffffffffffffffffffffffffffffffffffffffff\n      and\n        /* \"contract/assignment3.sol\":820:825  owner */\n      0x00\n      dup1\n      sload\n      swap1\n      0x0100\n      exp\n      swap1\n      div\n      0xffffffffffffffffffffffffffffffffffffffff\n      and\n        /* \"contract/assignment3.sol\":820:839  owner == msg.sender */\n      0xffffffffffffffffffffffffffffffffffffffff\n      and\n      eq\n        /* \"contract/assignment3.sol\":812:877  require(owner == msg.sender, \"Only Owner can call this function\") */\n      tag_113\n      jumpi\n      mload(0x40)\n      0x08c379a000000000000000000000000000000000000000000000000000000000\n      dup2\n      mstore\n      0x04\n      add\n      tag_114\n      swap1\n      tag_93\n      jump\t// in\n    tag_114:\n      mload(0x40)\n      dup1\n      swap2\n      sub\n      swap1\n      revert\n    tag_113:\n        /* \"contract/assignment3.sol\":1479:1485  uint i */\n      0x00\n        /* \"contract/assignment3.sol\":1474:1742  for (uint i = 0; i < candidateName.length; i++){\r... */\n    tag_116:\n        /* \"contract/assignment3.sol\":1495:1508  candidateName */\n      0x03\n        /* \"contract/assignment3.sol\":1495:1515  candidateName.length */\n      dup1\n      sload\n      swap1\n      pop\n        /* \"contract/assignment3.sol\":1491:1492  i */\n      dup2\n        /* \"contract/assignment3.sol\":1491:1515  i < candidateName.length */\n      lt\n        /* \"contract/assignment3.sol\":1474:1742  for (uint i = 0; i < candidateName.length; i++){\r... */\n      iszero\n      tag_117\n      jumpi\n        /* \"contract/assignment3.sol\":1590:1603  candidateName */\n      0x03\n        /* \"contract/assignment3.sol\":1604:1605  i */\n      dup2\n        /* \"contract/assignment3.sol\":1590:1606  candidateName[i] */\n      dup2\n      sload\n      dup2\n      lt\n      tag_119\n      jumpi\n      mstore(0x00, 0x4e487b7100000000000000000000000000000000000000000000000000000000)\n      mstore(0x04, 0x32)\n      revert(0x00, 0x24)\n    tag_119:\n      swap1\n      0x00\n      mstore\n      keccak256(0x00, 0x20)\n      add\n        /* \"contract/assignment3.sol\":1574:1608  keccak256(bytes(candidateName[i])) */\n      mload(0x40)\n      tag_121\n      swap2\n      swap1\n      tag_122\n      jump\t// in\n    tag_121:\n      mload(0x40)\n      dup1\n      swap2\n      sub\n      swap1\n      keccak256\n        /* \"contract/assignment3.sol\":1563:1568  _name */\n      dup3\n        /* \"contract/assignment3.sol\":1547:1570  keccak256(bytes(_name)) */\n      dup1\n      mload\n      swap1\n      0x20\n      add\n      keccak256\n        /* \"contract/assignment3.sol\":1547:1608  keccak256(bytes(_name)) != keccak256(bytes(candidateName[i])) */\n      eq\n      iszero\n        /* \"contract/assignment3.sol\":1538:1640  require (keccak256(bytes(_name)) != keccak256(bytes(candidateName[i])), \"name has already been added\") */\n      tag_123\n      jumpi\n      mload(0x40)\n      0x08c379a000000000000000000000000000000000000000000000000000000000\n      dup2\n      mstore\n      0x04\n      add\n      tag_124\n      swap1\n      tag_125\n      jump\t// in\n    tag_124:\n      mload(0x40)\n      dup1\n      swap2\n      sub\n      swap1\n      revert\n    tag_123:\n        /* \"contract/assignment3.sol\":1517:1520  i++ */\n      dup1\n      dup1\n      tag_126\n      swap1\n      tag_73\n      jump\t// in\n    tag_126:\n      swap2\n      pop\n      pop\n        /* \"contract/assignment3.sol\":1474:1742  for (uint i = 0; i < candidateName.length; i++){\r... */\n      jump(tag_116)\n    tag_117:\n      pop\n        /* \"contract/assignment3.sol\":1754:1765  candidateNo */\n      0x01\n      0x00\n        /* \"contract/assignment3.sol\":1754:1767  candidateNo++ */\n      dup2\n      sload\n      dup1\n      swap3\n      swap2\n      swap1\n      tag_127\n      swap1\n      tag_73\n      jump\t// in\n    tag_127:\n      swap2\n      swap1\n      pop\n      sstore\n      pop\n        /* \"contract/assignment3.sol\":1780:1793  candidateName */\n      0x03\n        /* \"contract/assignment3.sol\":1799:1804  _name */\n      dup2\n        /* \"contract/assignment3.sol\":1780:1805  candidateName.push(_name) */\n      swap1\n      dup1\n      0x01\n      dup2\n      sload\n      add\n      dup1\n      dup3\n      sstore\n      dup1\n      swap2\n      pop\n      pop\n      0x01\n      swap1\n      sub\n      swap1\n      0x00\n      mstore\n      keccak256(0x00, 0x20)\n      add\n      0x00\n      swap1\n      swap2\n      swap1\n      swap2\n      swap1\n      swap2\n      pop\n      swap1\n      dup1\n      mload\n      swap1\n      0x20\n      add\n      swap1\n      tag_129\n      swap3\n      swap2\n      swap1\n      tag_130\n      jump\t// in\n    tag_129:\n      pop\n        /* \"contract/assignment3.sol\":1847:1852  _name */\n      dup1\n        /* \"contract/assignment3.sol\":1818:1831  candidateById */\n      0x07\n        /* \"contract/assignment3.sol\":1818:1844  candidateById[candidateNo] */\n      0x00\n        /* \"contract/assignment3.sol\":1832:1843  candidateNo */\n      sload(0x01)\n        /* \"contract/assignment3.sol\":1818:1844  candidateById[candidateNo] */\n      dup2\n      mstore\n      0x20\n      add\n      swap1\n      dup2\n      mstore\n      0x20\n      add\n      0x00\n      keccak256\n        /* \"contract/assignment3.sol\":1818:1852  candidateById[candidateNo] = _name */\n      swap1\n      dup1\n      mload\n      swap1\n      0x20\n      add\n      swap1\n      tag_131\n      swap3\n      swap2\n      swap1\n      tag_130\n      jump\t// in\n    tag_131:\n      pop\n        /* \"contract/assignment3.sol\":1886:1897  candidateNo */\n      sload(0x01)\n        /* \"contract/assignment3.sol\":1870:1904  ContestantAdded(candidateNo,_name) */\n      0x56f6c29d2eb99f40e2a206309dc37f2cff01a5755a4683e3c2b0ce22e5e3aa17\n        /* \"contract/assignment3.sol\":1898:1903  _name */\n      dup3\n        /* \"contract/assignment3.sol\":1870:1904  ContestantAdded(candidateNo,_name) */\n      mload(0x40)\n      tag_132\n      swap2\n      swap1\n      tag_27\n      jump\t// in\n    tag_132:\n      mload(0x40)\n      dup1\n      swap2\n      sub\n      swap1\n      log2\n        /* \"contract/assignment3.sol\":1397:1912  function addContestant (string memory _name) external ownerOnly {\r... */\n      pop\n      jump\t// out\n        /* \"contract/assignment3.sol\":4049:4159  function pause () external ownerOnly{\r... */\n    tag_48:\n        /* \"contract/assignment3.sol\":829:839  msg.sender */\n      caller\n        /* \"contract/assignment3.sol\":820:839  owner == msg.sender */\n      0xffffffffffffffffffffffffffffffffffffffff\n      and\n        /* \"contract/assignment3.sol\":820:825  owner */\n      0x00\n      dup1\n      sload\n      swap1\n      0x0100\n      exp\n      swap1\n      div\n      0xffffffffffffffffffffffffffffffffffffffff\n      and\n        /* \"contract/assignment3.sol\":820:839  owner == msg.sender */\n      0xffffffffffffffffffffffffffffffffffffffff\n      and\n      eq\n        /* \"contract/assignment3.sol\":812:877  require(owner == msg.sender, \"Only Owner can call this function\") */\n      tag_134\n      jumpi\n      mload(0x40)\n      0x08c379a000000000000000000000000000000000000000000000000000000000\n      dup2\n      mstore\n      0x04\n      add\n      tag_135\n      swap1\n      tag_93\n      jump\t// in\n    tag_135:\n      mload(0x40)\n      dup1\n      swap2\n      sub\n      swap1\n      revert\n    tag_134:\n        /* \"contract/assignment3.sol\":4111:4115  true */\n      0x01\n        /* \"contract/assignment3.sol\":4098:4108  isItPaused */\n      0x04\n      0x00\n        /* \"contract/assignment3.sol\":4098:4115  isItPaused = true */\n      0x0100\n      exp\n      dup2\n      sload\n      dup2\n      0xff\n      mul\n      not\n      and\n      swap1\n      dup4\n      iszero\n      iszero\n      mul\n      or\n      swap1\n      sstore\n      pop\n        /* \"contract/assignment3.sol\":4140:4150  msg.sender */\n      caller\n        /* \"contract/assignment3.sol\":4133:4151  Paused(msg.sender) */\n      0xffffffffffffffffffffffffffffffffffffffff\n      and\n      0x62e78cea01bee320cd4e420270b5ea74000d11b0c9f74754ebdbfc544b05a258\n      mload(0x40)\n      mload(0x40)\n      dup1\n      swap2\n      sub\n      swap1\n      log2\n        /* \"contract/assignment3.sol\":4049:4159  function pause () external ownerOnly{\r... */\n      jump\t// out\n        /* \"contract/assignment3.sol\":2342:2810  function viewCandidates () external view whenNotPaused returns(uint [] memory, string [] memory){\r... */\n    tag_50:\n        /* \"contract/assignment3.sol\":2405:2419  uint [] memory */\n      0x60\n        /* \"contract/assignment3.sol\":2421:2437  string [] memory */\n      dup1\n        /* \"contract/assignment3.sol\":954:964  isItPaused */\n      0x04\n      0x00\n      swap1\n      sload\n      swap1\n      0x0100\n      exp\n      swap1\n      div\n      0xff\n      and\n        /* \"contract/assignment3.sol\":953:964  !isItPaused */\n      iszero\n        /* \"contract/assignment3.sol\":944:991  require (!isItPaused, \"the contract is paused\") */\n      tag_138\n      jumpi\n      mload(0x40)\n      0x08c379a000000000000000000000000000000000000000000000000000000000\n      dup2\n      mstore\n      0x04\n      add\n      tag_139\n      swap1\n      tag_60\n      jump\t// in\n    tag_139:\n      mload(0x40)\n      dup1\n      swap2\n      sub\n      swap1\n      revert\n    tag_138:\n        /* \"contract/assignment3.sol\":2473:2474  0 */\n      0x00\n        /* \"contract/assignment3.sol\":2459:2470  candidateNo */\n      sload(0x01)\n        /* \"contract/assignment3.sol\":2459:2474  candidateNo > 0 */\n      gt\n        /* \"contract/assignment3.sol\":2451:2500  require(candidateNo > 0, \"No candidates to view\") */\n      tag_141\n      jumpi\n      mload(0x40)\n      0x08c379a000000000000000000000000000000000000000000000000000000000\n      dup2\n      mstore\n      0x04\n      add\n      tag_142\n      swap1\n      tag_143\n      jump\t// in\n    tag_142:\n      mload(0x40)\n      dup1\n      swap2\n      sub\n      swap1\n      revert\n    tag_141:\n        /* \"contract/assignment3.sol\":2513:2530  uint[] memory ids */\n      0x00\n        /* \"contract/assignment3.sol\":2544:2555  candidateNo */\n      sload(0x01)\n        /* \"contract/assignment3.sol\":2533:2556  new uint[](candidateNo) */\n      0xffffffffffffffff\n      dup2\n      gt\n      iszero\n      tag_144\n      jumpi\n      mstore(0x00, 0x4e487b7100000000000000000000000000000000000000000000000000000000)\n      mstore(0x04, 0x41)\n      revert(0x00, 0x24)\n    tag_144:\n      mload(0x40)\n      swap1\n      dup1\n      dup3\n      mstore\n      dup1\n      0x20\n      mul\n      0x20\n      add\n      dup3\n      add\n      0x40\n      mstore\n      dup1\n      iszero\n      tag_145\n      jumpi\n      dup2\n      0x20\n      add\n      0x20\n      dup3\n      mul\n      dup1\n      calldatasize\n      dup4\n      calldatacopy\n      dup1\n      dup3\n      add\n      swap2\n      pop\n      pop\n      swap1\n      pop\n    tag_145:\n      pop\n        /* \"contract/assignment3.sol\":2513:2556  uint[] memory ids = new uint[](candidateNo) */\n      swap1\n      pop\n        /* \"contract/assignment3.sol\":2567:2588  string[] memory names */\n      0x00\n        /* \"contract/assignment3.sol\":2604:2615  candidateNo */\n      sload(0x01)\n        /* \"contract/assignment3.sol\":2591:2616  new string[](candidateNo) */\n      0xffffffffffffffff\n      dup2\n      gt\n      iszero\n      tag_146\n      jumpi\n      mstore(0x00, 0x4e487b7100000000000000000000000000000000000000000000000000000000)\n      mstore(0x04, 0x41)\n      revert(0x00, 0x24)\n    tag_146:\n      mload(0x40)\n      swap1\n      dup1\n      dup3\n      mstore\n      dup1\n      0x20\n      mul\n      0x20\n      add\n      dup3\n      add\n      0x40\n      mstore\n      dup1\n      iszero\n      tag_147\n      jumpi\n      dup2\n      0x20\n      add\n    tag_148:\n      0x60\n      dup2\n      mstore\n      0x20\n      add\n      swap1\n      0x01\n      swap1\n      sub\n      swap1\n      dup2\n      tag_148\n      jumpi\n      swap1\n      pop\n    tag_147:\n      pop\n        /* \"contract/assignment3.sol\":2567:2616  string[] memory names = new string[](candidateNo) */\n      swap1\n      pop\n        /* \"contract/assignment3.sol\":2638:2644  uint i */\n      0x00\n        /* \"contract/assignment3.sol\":2634:2764  for(uint i = 0; i < candidateNo; i++) {\r... */\n    tag_149:\n        /* \"contract/assignment3.sol\":2654:2665  candidateNo */\n      sload(0x01)\n        /* \"contract/assignment3.sol\":2650:2651  i */\n      dup2\n        /* \"contract/assignment3.sol\":2650:2665  i < candidateNo */\n      lt\n        /* \"contract/assignment3.sol\":2634:2764  for(uint i = 0; i < candidateNo; i++) {\r... */\n      iszero\n      tag_150\n      jumpi\n        /* \"contract/assignment3.sol\":2702:2703  1 */\n      0x01\n        /* \"contract/assignment3.sol\":2698:2699  i */\n      dup2\n        /* \"contract/assignment3.sol\":2698:2703  i + 1 */\n      tag_152\n      swap2\n      swap1\n      tag_153\n      jump\t// in\n    tag_152:\n        /* \"contract/assignment3.sol\":2689:2692  ids */\n      dup4\n        /* \"contract/assignment3.sol\":2693:2694  i */\n      dup3\n        /* \"contract/assignment3.sol\":2689:2695  ids[i] */\n      dup2\n      mload\n      dup2\n      lt\n      tag_154\n      jumpi\n      mstore(0x00, 0x4e487b7100000000000000000000000000000000000000000000000000000000)\n      mstore(0x04, 0x32)\n      revert(0x00, 0x24)\n    tag_154:\n      0x20\n      mul\n      0x20\n      add\n      add\n        /* \"contract/assignment3.sol\":2689:2703  ids[i] = i + 1 */\n      dup2\n      dup2\n      mstore\n      pop\n      pop\n        /* \"contract/assignment3.sol\":2736:2749  candidateName */\n      0x03\n        /* \"contract/assignment3.sol\":2750:2751  i */\n      dup2\n        /* \"contract/assignment3.sol\":2736:2752  candidateName[i] */\n      dup2\n      sload\n      dup2\n      lt\n      tag_155\n      jumpi\n      mstore(0x00, 0x4e487b7100000000000000000000000000000000000000000000000000000000)\n      mstore(0x04, 0x32)\n      revert(0x00, 0x24)\n    tag_155:\n      swap1\n      0x00\n      mstore\n      keccak256(0x00, 0x20)\n      add\n        /* \"contract/assignment3.sol\":2725:2752  names[i] = candidateName[i] */\n      dup1\n      sload\n      tag_157\n      swap1\n      tag_76\n      jump\t// in\n    tag_157:\n      dup1\n      0x1f\n      add\n      0x20\n      dup1\n      swap2\n      div\n      mul\n      0x20\n      add\n      mload(0x40)\n      swap1\n      dup2\n      add\n      0x40\n      mstore\n      dup1\n      swap3\n      swap2\n      swap1\n      dup2\n      dup2\n      mstore\n      0x20\n      add\n      dup3\n      dup1\n      sload\n      tag_158\n      swap1\n      tag_76\n      jump\t// in\n    tag_158:\n      dup1\n      iszero\n      tag_159\n      jumpi\n      dup1\n      0x1f\n      lt\n      tag_160\n      jumpi\n      0x0100\n      dup1\n      dup4\n      sload\n      div\n      mul\n      dup4\n      mstore\n      swap2\n      0x20\n      add\n      swap2\n      jump(tag_159)\n    tag_160:\n      dup3\n      add\n      swap2\n      swap1\n      0x00\n      mstore\n      keccak256(0x00, 0x20)\n      swap1\n    tag_161:\n      dup2\n      sload\n      dup2\n      mstore\n      swap1\n      0x01\n      add\n      swap1\n      0x20\n      add\n      dup1\n      dup4\n      gt\n      tag_161\n      jumpi\n      dup3\n      swap1\n      sub\n      0x1f\n      and\n      dup3\n      add\n      swap2\n    tag_159:\n      pop\n      pop\n      pop\n      pop\n      pop\n        /* \"contract/assignment3.sol\":2725:2730  names */\n      dup3\n        /* \"contract/assignment3.sol\":2731:2732  i */\n      dup3\n        /* \"contract/assignment3.sol\":2725:2733  names[i] */\n      dup2\n      mload\n      dup2\n      lt\n      tag_162\n      jumpi\n      mstore(0x00, 0x4e487b7100000000000000000000000000000000000000000000000000000000)\n      mstore(0x04, 0x32)\n      revert(0x00, 0x24)\n    tag_162:\n      0x20\n      mul\n      0x20\n      add\n      add\n        /* \"contract/assignment3.sol\":2725:2752  names[i] = candidateName[i] */\n      dup2\n      swap1\n      mstore\n      pop\n        /* \"contract/assignment3.sol\":2667:2670  i++ */\n      dup1\n      dup1\n      tag_163\n      swap1\n      tag_73\n      jump\t// in\n    tag_163:\n      swap2\n      pop\n      pop\n        /* \"contract/assignment3.sol\":2634:2764  for(uint i = 0; i < candidateNo; i++) {\r... */\n      jump(tag_149)\n    tag_150:\n      pop\n        /* \"contract/assignment3.sol\":2791:2794  ids */\n      dup2\n        /* \"contract/assignment3.sol\":2796:2801  names */\n      dup2\n        /* \"contract/assignment3.sol\":2783:2802  return (ids, names) */\n      swap4\n      pop\n      swap4\n      pop\n      pop\n      pop\n        /* \"contract/assignment3.sol\":2342:2810  function viewCandidates () external view whenNotPaused returns(uint [] memory, string [] memory){\r... */\n      swap1\n      swap2\n      jump\t// out\n        /* \"contract/assignment3.sol\":1920:2333  function register (string memory _voterName , uint _age ) external{\r... */\n    tag_56:\n        /* \"contract/assignment3.sol\":2007:2021  haveRegistered */\n      0x09\n        /* \"contract/assignment3.sol\":2007:2033  haveRegistered[msg.sender] */\n      0x00\n        /* \"contract/assignment3.sol\":2022:2032  msg.sender */\n      caller\n        /* \"contract/assignment3.sol\":2007:2033  haveRegistered[msg.sender] */\n      0xffffffffffffffffffffffffffffffffffffffff\n      and\n      0xffffffffffffffffffffffffffffffffffffffff\n      and\n      dup2\n      mstore\n      0x20\n      add\n      swap1\n      dup2\n      mstore\n      0x20\n      add\n      0x00\n      keccak256\n      0x00\n      swap1\n      sload\n      swap1\n      0x0100\n      exp\n      swap1\n      div\n      0xff\n      and\n        /* \"contract/assignment3.sol\":2006:2033  !haveRegistered[msg.sender] */\n      iszero\n        /* \"contract/assignment3.sol\":1998:2057  require(!haveRegistered[msg.sender], \"user has registered\") */\n      tag_165\n      jumpi\n      mload(0x40)\n      0x08c379a000000000000000000000000000000000000000000000000000000000\n      dup2\n      mstore\n      0x04\n      add\n      tag_166\n      swap1\n      tag_167\n      jump\t// in\n    tag_166:\n      mload(0x40)\n      dup1\n      swap2\n      sub\n      swap1\n      revert\n    tag_165:\n        /* \"contract/assignment3.sol\":2086:2088  18 */\n      0x12\n        /* \"contract/assignment3.sol\":2078:2082  _age */\n      dup2\n        /* \"contract/assignment3.sol\":2078:2088  _age >= 18 */\n      lt\n      iszero\n        /* \"contract/assignment3.sol\":2069:2138  require (_age >= 18, \"user age below 18 can't register for the vote\") */\n      tag_168\n      jumpi\n      mload(0x40)\n      0x08c379a000000000000000000000000000000000000000000000000000000000\n      dup2\n      mstore\n      0x04\n      add\n      tag_169\n      swap1\n      tag_170\n      jump\t// in\n    tag_169:\n      mload(0x40)\n      dup1\n      swap2\n      sub\n      swap1\n      revert\n    tag_168:\n        /* \"contract/assignment3.sol\":2151:2158  voterNo */\n      0x02\n      0x00\n        /* \"contract/assignment3.sol\":2151:2160  voterNo++ */\n      dup2\n      sload\n      dup1\n      swap3\n      swap2\n      swap1\n      tag_171\n      swap1\n      tag_73\n      jump\t// in\n    tag_171:\n      swap2\n      swap1\n      pop\n      sstore\n      pop\n        /* \"contract/assignment3.sol\":2173:2179  voters */\n      0x06\n        /* \"contract/assignment3.sol\":2185:2215  voter(voterNo,_voterName,_age) */\n      mload(0x40)\n      dup1\n      0x60\n      add\n      0x40\n      mstore\n      dup1\n        /* \"contract/assignment3.sol\":2191:2198  voterNo */\n      sload(0x02)\n        /* \"contract/assignment3.sol\":2185:2215  voter(voterNo,_voterName,_age) */\n      dup2\n      mstore\n      0x20\n      add\n        /* \"contract/assignment3.sol\":2199:2209  _voterName */\n      dup5\n        /* \"contract/assignment3.sol\":2185:2215  voter(voterNo,_voterName,_age) */\n      dup2\n      mstore\n      0x20\n      add\n        /* \"contract/assignment3.sol\":2210:2214  _age */\n      dup4\n        /* \"contract/assignment3.sol\":2185:2215  voter(voterNo,_voterName,_age) */\n      dup2\n      mstore\n      pop\n        /* \"contract/assignment3.sol\":2173:2216  voters.push(voter(voterNo,_voterName,_age)) */\n      swap1\n      dup1\n      0x01\n      dup2\n      sload\n      add\n      dup1\n      dup3\n      sstore\n      dup1\n      swap2\n      pop\n      pop\n      0x01\n      swap1\n      sub\n      swap1\n      0x00\n      mstore\n      keccak256(0x00, 0x20)\n      swap1\n      0x03\n      mul\n      add\n      0x00\n      swap1\n      swap2\n      swap1\n      swap2\n      swap1\n      swap2\n      pop\n      0x00\n      dup3\n      add\n      mload\n      dup2\n      0x00\n      add\n      sstore\n      0x20\n      dup3\n      add\n      mload\n      dup2\n      0x01\n      add\n      swap1\n      dup1\n      mload\n      swap1\n      0x20\n      add\n      swap1\n      tag_173\n      swap3\n      swap2\n      swap1\n      tag_130\n      jump\t// in\n    tag_173:\n      pop\n      0x40\n      dup3\n      add\n      mload\n      dup2\n      0x02\n      add\n      sstore\n      pop\n      pop\n        /* \"contract/assignment3.sol\":2258:2262  true */\n      0x01\n        /* \"contract/assignment3.sol\":2229:2243  haveRegistered */\n      0x09\n        /* \"contract/assignment3.sol\":2229:2255  haveRegistered[msg.sender] */\n      0x00\n        /* \"contract/assignment3.sol\":2244:2254  msg.sender */\n      caller\n        /* \"contract/assignment3.sol\":2229:2255  haveRegistered[msg.sender] */\n      0xffffffffffffffffffffffffffffffffffffffff\n      and\n      0xffffffffffffffffffffffffffffffffffffffff\n      and\n      dup2\n      mstore\n      0x20\n      add\n      swap1\n      dup2\n      mstore\n      0x20\n      add\n      0x00\n      keccak256\n      0x00\n        /* \"contract/assignment3.sol\":2229:2262  haveRegistered[msg.sender] = true */\n      0x0100\n      exp\n      dup2\n      sload\n      dup2\n      0xff\n      mul\n      not\n      and\n      swap1\n      dup4\n      iszero\n      iszero\n      mul\n      or\n      swap1\n      sstore\n      pop\n        /* \"contract/assignment3.sol\":2314:2324  msg.sender */\n      caller\n        /* \"contract/assignment3.sol\":2281:2325  Registered(voterNo , _voterName, msg.sender) */\n      0xffffffffffffffffffffffffffffffffffffffff\n      and\n        /* \"contract/assignment3.sol\":2292:2299  voterNo */\n      sload(0x02)\n        /* \"contract/assignment3.sol\":2281:2325  Registered(voterNo , _voterName, msg.sender) */\n      0xca52e62c367d81bb2e328eb795f7c7ba24afb478408a26c0e201d155c449bc4a\n        /* \"contract/assignment3.sol\":2302:2312  _voterName */\n      dup5\n        /* \"contract/assignment3.sol\":2281:2325  Registered(voterNo , _voterName, msg.sender) */\n      mload(0x40)\n      tag_174\n      swap2\n      swap1\n      tag_27\n      jump\t// in\n    tag_174:\n      mload(0x40)\n      dup1\n      swap2\n      sub\n      swap1\n      log3\n        /* \"contract/assignment3.sol\":1920:2333  function register (string memory _voterName , uint _age ) external{\r... */\n      pop\n      pop\n      jump\t// out\n    tag_78:\n      dup3\n      dup1\n      sload\n      tag_175\n      swap1\n      tag_76\n      jump\t// in\n    tag_175:\n      swap1\n      0x00\n      mstore\n      keccak256(0x00, 0x20)\n      swap1\n      0x1f\n      add\n      0x20\n      swap1\n      div\n      dup2\n      add\n      swap3\n      dup3\n      tag_177\n      jumpi\n      0x00\n      dup6\n      sstore\n      jump(tag_176)\n    tag_177:\n      dup3\n      0x1f\n      lt\n      tag_178\n      jumpi\n      dup1\n      sload\n      dup6\n      sstore\n      jump(tag_176)\n    tag_178:\n      dup3\n      dup1\n      add\n      0x01\n      add\n      dup6\n      sstore\n      dup3\n      iszero\n      tag_176\n      jumpi\n      0x00\n      mstore\n      keccak256(0x00, 0x20)\n      swap2\n      0x1f\n      add\n      0x20\n      swap1\n      div\n      dup3\n      add\n    tag_179:\n      dup3\n      dup2\n      gt\n      iszero\n      tag_180\n      jumpi\n      dup3\n      sload\n      dup3\n      sstore\n      swap2\n      0x01\n      add\n      swap2\n      swap1\n      0x01\n      add\n      swap1\n      jump(tag_179)\n    tag_180:\n    tag_176:\n      pop\n      swap1\n      pop\n      tag_181\n      swap2\n      swap1\n      tag_182\n      jump\t// in\n    tag_181:\n      pop\n      swap1\n      jump\t// out\n    tag_130:\n      dup3\n      dup1\n      sload\n      tag_183\n      swap1\n      tag_76\n      jump\t// in\n    tag_183:\n      swap1\n      0x00\n      mstore\n      keccak256(0x00, 0x20)\n      swap1\n      0x1f\n      add\n      0x20\n      swap1\n      div\n      dup2\n      add\n      swap3\n      dup3\n      tag_185\n      jumpi\n      0x00\n      dup6\n      sstore\n      jump(tag_184)\n    tag_185:\n      dup3\n      0x1f\n      lt\n      tag_186\n      jumpi\n      dup1\n      mload\n      not(0xff)\n      and\n      dup4\n      dup1\n      add\n      or\n      dup6\n      sstore\n      jump(tag_184)\n    tag_186:\n      dup3\n      dup1\n      add\n      0x01\n      add\n      dup6\n      sstore\n      dup3\n      iszero\n      tag_184\n      jumpi\n      swap2\n      dup3\n      add\n    tag_187:\n      dup3\n      dup2\n      gt\n      iszero\n      tag_188\n      jumpi\n      dup3\n      mload\n      dup3\n      sstore\n      swap2\n      0x20\n      add\n      swap2\n      swap1\n      0x01\n      add\n      swap1\n      jump(tag_187)\n    tag_188:\n    tag_184:\n      pop\n      swap1\n      pop\n      tag_189\n      swap2\n      swap1\n      tag_182\n      jump\t// in\n    tag_189:\n      pop\n      swap1\n      jump\t// out\n    tag_182:\n    tag_190:\n      dup1\n      dup3\n      gt\n      iszero\n      tag_191\n      jumpi\n      0x00\n      dup2\n      0x00\n      swap1\n      sstore\n      pop\n      0x01\n      add\n      jump(tag_190)\n    tag_191:\n      pop\n      swap1\n      jump\t// out\n        /* \"#utility.yul\":7:352   */\n    tag_193:\n      0x00\n        /* \"#utility.yul\":110:176   */\n      tag_195\n        /* \"#utility.yul\":126:175   */\n      tag_196\n        /* \"#utility.yul\":168:174   */\n      dup5\n        /* \"#utility.yul\":126:175   */\n      tag_197\n      jump\t// in\n    tag_196:\n        /* \"#utility.yul\":110:176   */\n      tag_198\n      jump\t// in\n    tag_195:\n        /* \"#utility.yul\":101:176   */\n      swap1\n      pop\n        /* \"#utility.yul\":199:205   */\n      dup3\n        /* \"#utility.yul\":192:197   */\n      dup2\n        /* \"#utility.yul\":185:206   */\n      mstore\n        /* \"#utility.yul\":237:241   */\n      0x20\n        /* \"#utility.yul\":230:235   */\n      dup2\n        /* \"#utility.yul\":226:242   */\n      add\n        /* \"#utility.yul\":275:278   */\n      dup5\n        /* \"#utility.yul\":266:272   */\n      dup5\n        /* \"#utility.yul\":261:264   */\n      dup5\n        /* \"#utility.yul\":257:273   */\n      add\n        /* \"#utility.yul\":254:279   */\n      gt\n        /* \"#utility.yul\":251:253   */\n      iszero\n      tag_199\n      jumpi\n        /* \"#utility.yul\":292:293   */\n      0x00\n        /* \"#utility.yul\":289:290   */\n      dup1\n        /* \"#utility.yul\":282:294   */\n      revert\n        /* \"#utility.yul\":251:253   */\n    tag_199:\n        /* \"#utility.yul\":305:346   */\n      tag_200\n        /* \"#utility.yul\":339:345   */\n      dup5\n        /* \"#utility.yul\":334:337   */\n      dup3\n        /* \"#utility.yul\":329:332   */\n      dup6\n        /* \"#utility.yul\":305:346   */\n      tag_201\n      jump\t// in\n    tag_200:\n        /* \"#utility.yul\":91:352   */\n      pop\n      swap4\n      swap3\n      pop\n      pop\n      pop\n      jump\t// out\n        /* \"#utility.yul\":372:645   */\n    tag_202:\n      0x00\n        /* \"#utility.yul\":477:480   */\n      dup3\n        /* \"#utility.yul\":470:474   */\n      0x1f\n        /* \"#utility.yul\":462:468   */\n      dup4\n        /* \"#utility.yul\":458:475   */\n      add\n        /* \"#utility.yul\":454:481   */\n      slt\n        /* \"#utility.yul\":444:446   */\n      tag_204\n      jumpi\n        /* \"#utility.yul\":495:496   */\n      0x00\n        /* \"#utility.yul\":492:493   */\n      dup1\n        /* \"#utility.yul\":485:497   */\n      revert\n        /* \"#utility.yul\":444:446   */\n    tag_204:\n        /* \"#utility.yul\":535:541   */\n      dup2\n        /* \"#utility.yul\":522:542   */\n      calldataload\n        /* \"#utility.yul\":560:639   */\n      tag_205\n        /* \"#utility.yul\":635:638   */\n      dup5\n        /* \"#utility.yul\":627:633   */\n      dup3\n        /* \"#utility.yul\":620:624   */\n      0x20\n        /* \"#utility.yul\":612:618   */\n      dup7\n        /* \"#utility.yul\":608:625   */\n      add\n        /* \"#utility.yul\":560:639   */\n      tag_193\n      jump\t// in\n    tag_205:\n        /* \"#utility.yul\":551:639   */\n      swap2\n      pop\n        /* \"#utility.yul\":434:645   */\n      pop\n      swap3\n      swap2\n      pop\n      pop\n      jump\t// out\n        /* \"#utility.yul\":651:790   */\n    tag_206:\n      0x00\n        /* \"#utility.yul\":735:741   */\n      dup2\n        /* \"#utility.yul\":722:742   */\n      calldataload\n        /* \"#utility.yul\":713:742   */\n      swap1\n      pop\n        /* \"#utility.yul\":751:784   */\n      tag_208\n        /* \"#utility.yul\":778:783   */\n      dup2\n        /* \"#utility.yul\":751:784   */\n      tag_209\n      jump\t// in\n    tag_208:\n        /* \"#utility.yul\":703:790   */\n      swap3\n      swap2\n      pop\n      pop\n      jump\t// out\n        /* \"#utility.yul\":796:1171   */\n    tag_45:\n      0x00\n        /* \"#utility.yul\":914:916   */\n      0x20\n        /* \"#utility.yul\":902:911   */\n      dup3\n        /* \"#utility.yul\":893:900   */\n      dup5\n        /* \"#utility.yul\":889:912   */\n      sub\n        /* \"#utility.yul\":885:917   */\n      slt\n        /* \"#utility.yul\":882:884   */\n      iszero\n      tag_211\n      jumpi\n        /* \"#utility.yul\":930:931   */\n      0x00\n        /* \"#utility.yul\":927:928   */\n      dup1\n        /* \"#utility.yul\":920:932   */\n      revert\n        /* \"#utility.yul\":882:884   */\n    tag_211:\n        /* \"#utility.yul\":1001:1002   */\n      0x00\n        /* \"#utility.yul\":990:999   */\n      dup3\n        /* \"#utility.yul\":986:1003   */\n      add\n        /* \"#utility.yul\":973:1004   */\n      calldataload\n        /* \"#utility.yul\":1031:1049   */\n      0xffffffffffffffff\n        /* \"#utility.yul\":1023:1029   */\n      dup2\n        /* \"#utility.yul\":1020:1050   */\n      gt\n        /* \"#utility.yul\":1017:1019   */\n      iszero\n      tag_212\n      jumpi\n        /* \"#utility.yul\":1063:1064   */\n      0x00\n        /* \"#utility.yul\":1060:1061   */\n      dup1\n        /* \"#utility.yul\":1053:1065   */\n      revert\n        /* \"#utility.yul\":1017:1019   */\n    tag_212:\n        /* \"#utility.yul\":1091:1154   */\n      tag_213\n        /* \"#utility.yul\":1146:1153   */\n      dup5\n        /* \"#utility.yul\":1137:1143   */\n      dup3\n        /* \"#utility.yul\":1126:1135   */\n      dup6\n        /* \"#utility.yul\":1122:1144   */\n      add\n        /* \"#utility.yul\":1091:1154   */\n      tag_202\n      jump\t// in\n    tag_213:\n        /* \"#utility.yul\":1081:1154   */\n      swap2\n      pop\n        /* \"#utility.yul\":944:1164   */\n      pop\n        /* \"#utility.yul\":872:1171   */\n      swap3\n      swap2\n      pop\n      pop\n      jump\t// out\n        /* \"#utility.yul\":1177:1697   */\n    tag_55:\n      0x00\n      dup1\n        /* \"#utility.yul\":1312:1314   */\n      0x40\n        /* \"#utility.yul\":1300:1309   */\n      dup4\n        /* \"#utility.yul\":1291:1298   */\n      dup6\n        /* \"#utility.yul\":1287:1310   */\n      sub\n        /* \"#utility.yul\":1283:1315   */\n      slt\n        /* \"#utility.yul\":1280:1282   */\n      iszero\n      tag_215\n      jumpi\n        /* \"#utility.yul\":1328:1329   */\n      0x00\n        /* \"#utility.yul\":1325:1326   */\n      dup1\n        /* \"#utility.yul\":1318:1330   */\n      revert\n        /* \"#utility.yul\":1280:1282   */\n    tag_215:\n        /* \"#utility.yul\":1399:1400   */\n      0x00\n        /* \"#utility.yul\":1388:1397   */\n      dup4\n        /* \"#utility.yul\":1384:1401   */\n      add\n        /* \"#utility.yul\":1371:1402   */\n      calldataload\n        /* \"#utility.yul\":1429:1447   */\n      0xffffffffffffffff\n        /* \"#utility.yul\":1421:1427   */\n      dup2\n        /* \"#utility.yul\":1418:1448   */\n      gt\n        /* \"#utility.yul\":1415:1417   */\n      iszero\n      tag_216\n      jumpi\n        /* \"#utility.yul\":1461:1462   */\n      0x00\n        /* \"#utility.yul\":1458:1459   */\n      dup1\n        /* \"#utility.yul\":1451:1463   */\n      revert\n        /* \"#utility.yul\":1415:1417   */\n    tag_216:\n        /* \"#utility.yul\":1489:1552   */\n      tag_217\n        /* \"#utility.yul\":1544:1551   */\n      dup6\n        /* \"#utility.yul\":1535:1541   */\n      dup3\n        /* \"#utility.yul\":1524:1533   */\n      dup7\n        /* \"#utility.yul\":1520:1542   */\n      add\n        /* \"#utility.yul\":1489:1552   */\n      tag_202\n      jump\t// in\n    tag_217:\n        /* \"#utility.yul\":1479:1552   */\n      swap3\n      pop\n        /* \"#utility.yul\":1342:1562   */\n      pop\n        /* \"#utility.yul\":1601:1603   */\n      0x20\n        /* \"#utility.yul\":1627:1680   */\n      tag_218\n        /* \"#utility.yul\":1672:1679   */\n      dup6\n        /* \"#utility.yul\":1663:1669   */\n      dup3\n        /* \"#utility.yul\":1652:1661   */\n      dup7\n        /* \"#utility.yul\":1648:1670   */\n      add\n        /* \"#utility.yul\":1627:1680   */\n      tag_206\n      jump\t// in\n    tag_218:\n        /* \"#utility.yul\":1617:1680   */\n      swap2\n      pop\n        /* \"#utility.yul\":1572:1690   */\n      pop\n        /* \"#utility.yul\":1270:1697   */\n      swap3\n      pop\n      swap3\n      swap1\n      pop\n      jump\t// out\n        /* \"#utility.yul\":1703:1965   */\n    tag_18:\n      0x00\n        /* \"#utility.yul\":1811:1813   */\n      0x20\n        /* \"#utility.yul\":1799:1808   */\n      dup3\n        /* \"#utility.yul\":1790:1797   */\n      dup5\n        /* \"#utility.yul\":1786:1809   */\n      sub\n        /* \"#utility.yul\":1782:1814   */\n      slt\n        /* \"#utility.yul\":1779:1781   */\n      iszero\n      tag_220\n      jumpi\n        /* \"#utility.yul\":1827:1828   */\n      0x00\n        /* \"#utility.yul\":1824:1825   */\n      dup1\n        /* \"#utility.yul\":1817:1829   */\n      revert\n        /* \"#utility.yul\":1779:1781   */\n    tag_220:\n        /* \"#utility.yul\":1870:1871   */\n      0x00\n        /* \"#utility.yul\":1895:1948   */\n      tag_221\n        /* \"#utility.yul\":1940:1947   */\n      dup5\n        /* \"#utility.yul\":1931:1937   */\n      dup3\n        /* \"#utility.yul\":1920:1929   */\n      dup6\n        /* \"#utility.yul\":1916:1938   */\n      add\n        /* \"#utility.yul\":1895:1948   */\n      tag_206\n      jump\t// in\n    tag_221:\n        /* \"#utility.yul\":1885:1948   */\n      swap2\n      pop\n        /* \"#utility.yul\":1841:1958   */\n      pop\n        /* \"#utility.yul\":1769:1965   */\n      swap3\n      swap2\n      pop\n      pop\n      jump\t// out\n        /* \"#utility.yul\":1971:2167   */\n    tag_222:\n      0x00\n        /* \"#utility.yul\":2095:2161   */\n      tag_224\n        /* \"#utility.yul\":2157:2160   */\n      dup4\n        /* \"#utility.yul\":2149:2155   */\n      dup4\n        /* \"#utility.yul\":2095:2161   */\n      tag_225\n      jump\t// in\n    tag_224:\n        /* \"#utility.yul\":2081:2161   */\n      swap1\n      pop\n        /* \"#utility.yul\":2071:2167   */\n      swap3\n      swap2\n      pop\n      pop\n      jump\t// out\n        /* \"#utility.yul\":2173:2352   */\n    tag_226:\n      0x00\n        /* \"#utility.yul\":2263:2309   */\n      tag_228\n        /* \"#utility.yul\":2305:2308   */\n      dup4\n        /* \"#utility.yul\":2297:2303   */\n      dup4\n        /* \"#utility.yul\":2263:2309   */\n      tag_229\n      jump\t// in\n    tag_228:\n        /* \"#utility.yul\":2341:2345   */\n      0x20\n        /* \"#utility.yul\":2336:2339   */\n      dup4\n        /* \"#utility.yul\":2332:2346   */\n      add\n        /* \"#utility.yul\":2318:2346   */\n      swap1\n      pop\n        /* \"#utility.yul\":2253:2352   */\n      swap3\n      swap2\n      pop\n      pop\n      jump\t// out\n        /* \"#utility.yul\":2358:2476   */\n    tag_230:\n        /* \"#utility.yul\":2445:2469   */\n      tag_232\n        /* \"#utility.yul\":2463:2468   */\n      dup2\n        /* \"#utility.yul\":2445:2469   */\n      tag_233\n      jump\t// in\n    tag_232:\n        /* \"#utility.yul\":2440:2443   */\n      dup3\n        /* \"#utility.yul\":2433:2470   */\n      mstore\n        /* \"#utility.yul\":2423:2476   */\n      pop\n      pop\n      jump\t// out\n        /* \"#utility.yul\":2510:3501   */\n    tag_234:\n      0x00\n        /* \"#utility.yul\":2678:2742   */\n      tag_236\n        /* \"#utility.yul\":2736:2741   */\n      dup3\n        /* \"#utility.yul\":2678:2742   */\n      tag_237\n      jump\t// in\n    tag_236:\n        /* \"#utility.yul\":2758:2854   */\n      tag_238\n        /* \"#utility.yul\":2847:2853   */\n      dup2\n        /* \"#utility.yul\":2842:2845   */\n      dup6\n        /* \"#utility.yul\":2758:2854   */\n      tag_239\n      jump\t// in\n    tag_238:\n        /* \"#utility.yul\":2751:2854   */\n      swap4\n      pop\n        /* \"#utility.yul\":2880:2883   */\n      dup4\n        /* \"#utility.yul\":2925:2929   */\n      0x20\n        /* \"#utility.yul\":2917:2923   */\n      dup3\n        /* \"#utility.yul\":2913:2930   */\n      mul\n        /* \"#utility.yul\":2908:2911   */\n      dup6\n        /* \"#utility.yul\":2904:2931   */\n      add\n        /* \"#utility.yul\":2955:3021   */\n      tag_240\n        /* \"#utility.yul\":3015:3020   */\n      dup6\n        /* \"#utility.yul\":2955:3021   */\n      tag_241\n      jump\t// in\n    tag_240:\n        /* \"#utility.yul\":3044:3051   */\n      dup1\n        /* \"#utility.yul\":3075:3076   */\n      0x00\n        /* \"#utility.yul\":3060:3456   */\n    tag_242:\n        /* \"#utility.yul\":3085:3091   */\n      dup6\n        /* \"#utility.yul\":3082:3083   */\n      dup2\n        /* \"#utility.yul\":3079:3092   */\n      lt\n        /* \"#utility.yul\":3060:3456   */\n      iszero\n      tag_244\n      jumpi\n        /* \"#utility.yul\":3156:3165   */\n      dup5\n        /* \"#utility.yul\":3150:3154   */\n      dup5\n        /* \"#utility.yul\":3146:3166   */\n      sub\n        /* \"#utility.yul\":3141:3144   */\n      dup10\n        /* \"#utility.yul\":3134:3167   */\n      mstore\n        /* \"#utility.yul\":3207:3213   */\n      dup2\n        /* \"#utility.yul\":3201:3214   */\n      mload\n        /* \"#utility.yul\":3235:3319   */\n      tag_245\n        /* \"#utility.yul\":3314:3318   */\n      dup6\n        /* \"#utility.yul\":3299:3312   */\n      dup3\n        /* \"#utility.yul\":3235:3319   */\n      tag_222\n      jump\t// in\n    tag_245:\n        /* \"#utility.yul\":3227:3319   */\n      swap5\n      pop\n        /* \"#utility.yul\":3342:3412   */\n      tag_246\n        /* \"#utility.yul\":3405:3411   */\n      dup4\n        /* \"#utility.yul\":3342:3412   */\n      tag_247\n      jump\t// in\n    tag_246:\n        /* \"#utility.yul\":3332:3412   */\n      swap3\n      pop\n        /* \"#utility.yul\":3441:3445   */\n      0x20\n        /* \"#utility.yul\":3436:3439   */\n      dup11\n        /* \"#utility.yul\":3432:3446   */\n      add\n        /* \"#utility.yul\":3425:3446   */\n      swap10\n      pop\n        /* \"#utility.yul\":3120:3456   */\n      pop\n        /* \"#utility.yul\":3107:3108   */\n      0x01\n        /* \"#utility.yul\":3104:3105   */\n      dup2\n        /* \"#utility.yul\":3100:3109   */\n      add\n        /* \"#utility.yul\":3095:3109   */\n      swap1\n      pop\n        /* \"#utility.yul\":3060:3456   */\n      jump(tag_242)\n    tag_244:\n        /* \"#utility.yul\":3064:3078   */\n      pop\n        /* \"#utility.yul\":3472:3476   */\n      dup3\n        /* \"#utility.yul\":3465:3476   */\n      swap8\n      pop\n        /* \"#utility.yul\":3492:3495   */\n      dup8\n        /* \"#utility.yul\":3485:3495   */\n      swap6\n      pop\n        /* \"#utility.yul\":2654:3501   */\n      pop\n      pop\n      pop\n      pop\n      pop\n      swap3\n      swap2\n      pop\n      pop\n      jump\t// out\n        /* \"#utility.yul\":3537:4269   */\n    tag_248:\n      0x00\n        /* \"#utility.yul\":3685:3739   */\n      tag_250\n        /* \"#utility.yul\":3733:3738   */\n      dup3\n        /* \"#utility.yul\":3685:3739   */\n      tag_251\n      jump\t// in\n    tag_250:\n        /* \"#utility.yul\":3755:3841   */\n      tag_252\n        /* \"#utility.yul\":3834:3840   */\n      dup2\n        /* \"#utility.yul\":3829:3832   */\n      dup6\n        /* \"#utility.yul\":3755:3841   */\n      tag_253\n      jump\t// in\n    tag_252:\n        /* \"#utility.yul\":3748:3841   */\n      swap4\n      pop\n        /* \"#utility.yul\":3865:3921   */\n      tag_254\n        /* \"#utility.yul\":3915:3920   */\n      dup4\n        /* \"#utility.yul\":3865:3921   */\n      tag_255\n      jump\t// in\n    tag_254:\n        /* \"#utility.yul\":3944:3951   */\n      dup1\n        /* \"#utility.yul\":3975:3976   */\n      0x00\n        /* \"#utility.yul\":3960:4244   */\n    tag_256:\n        /* \"#utility.yul\":3985:3991   */\n      dup4\n        /* \"#utility.yul\":3982:3983   */\n      dup2\n        /* \"#utility.yul\":3979:3992   */\n      lt\n        /* \"#utility.yul\":3960:4244   */\n      iszero\n      tag_258\n      jumpi\n        /* \"#utility.yul\":4061:4067   */\n      dup2\n        /* \"#utility.yul\":4055:4068   */\n      mload\n        /* \"#utility.yul\":4088:4151   */\n      tag_259\n        /* \"#utility.yul\":4147:4150   */\n      dup9\n        /* \"#utility.yul\":4132:4145   */\n      dup3\n        /* \"#utility.yul\":4088:4151   */\n      tag_226\n      jump\t// in\n    tag_259:\n        /* \"#utility.yul\":4081:4151   */\n      swap8\n      pop\n        /* \"#utility.yul\":4174:4234   */\n      tag_260\n        /* \"#utility.yul\":4227:4233   */\n      dup4\n        /* \"#utility.yul\":4174:4234   */\n      tag_261\n      jump\t// in\n    tag_260:\n        /* \"#utility.yul\":4164:4234   */\n      swap3\n      pop\n        /* \"#utility.yul\":4020:4244   */\n      pop\n        /* \"#utility.yul\":4007:4008   */\n      0x01\n        /* \"#utility.yul\":4004:4005   */\n      dup2\n        /* \"#utility.yul\":4000:4009   */\n      add\n        /* \"#utility.yul\":3995:4009   */\n      swap1\n      pop\n        /* \"#utility.yul\":3960:4244   */\n      jump(tag_256)\n    tag_258:\n        /* \"#utility.yul\":3964:3978   */\n      pop\n        /* \"#utility.yul\":4260:4263   */\n      dup6\n        /* \"#utility.yul\":4253:4263   */\n      swap4\n      pop\n        /* \"#utility.yul\":3661:4269   */\n      pop\n      pop\n      pop\n      swap3\n      swap2\n      pop\n      pop\n      jump\t// out\n        /* \"#utility.yul\":4275:4384   */\n    tag_262:\n        /* \"#utility.yul\":4356:4377   */\n      tag_264\n        /* \"#utility.yul\":4371:4376   */\n      dup2\n        /* \"#utility.yul\":4356:4377   */\n      tag_265\n      jump\t// in\n    tag_264:\n        /* \"#utility.yul\":4351:4354   */\n      dup3\n        /* \"#utility.yul\":4344:4378   */\n      mstore\n        /* \"#utility.yul\":4334:4384   */\n      pop\n      pop\n      jump\t// out\n        /* \"#utility.yul\":4412:5261   */\n    tag_266:\n      0x00\n        /* \"#utility.yul\":4554:4559   */\n      dup2\n        /* \"#utility.yul\":4548:4560   */\n      sload\n        /* \"#utility.yul\":4583:4619   */\n      tag_268\n        /* \"#utility.yul\":4609:4618   */\n      dup2\n        /* \"#utility.yul\":4583:4619   */\n      tag_76\n      jump\t// in\n    tag_268:\n        /* \"#utility.yul\":4635:4723   */\n      tag_269\n        /* \"#utility.yul\":4716:4722   */\n      dup2\n        /* \"#utility.yul\":4711:4714   */\n      dup7\n        /* \"#utility.yul\":4635:4723   */\n      tag_270\n      jump\t// in\n    tag_269:\n        /* \"#utility.yul\":4628:4723   */\n      swap5\n      pop\n        /* \"#utility.yul\":4754:4755   */\n      0x01\n        /* \"#utility.yul\":4743:4752   */\n      dup3\n        /* \"#utility.yul\":4739:4756   */\n      and\n        /* \"#utility.yul\":4770:4771   */\n      0x00\n        /* \"#utility.yul\":4765:4902   */\n      dup2\n      eq\n      tag_272\n      jumpi\n        /* \"#utility.yul\":4916:4917   */\n      0x01\n        /* \"#utility.yul\":4911:5255   */\n      dup2\n      eq\n      tag_273\n      jumpi\n        /* \"#utility.yul\":4732:5255   */\n      jump(tag_271)\n        /* \"#utility.yul\":4765:4902   */\n    tag_272:\n        /* \"#utility.yul\":4849:4853   */\n      0xff\n        /* \"#utility.yul\":4845:4854   */\n      not\n        /* \"#utility.yul\":4834:4843   */\n      dup4\n        /* \"#utility.yul\":4830:4855   */\n      and\n        /* \"#utility.yul\":4825:4828   */\n      dup7\n        /* \"#utility.yul\":4818:4856   */\n      mstore\n        /* \"#utility.yul\":4885:4891   */\n      dup2\n        /* \"#utility.yul\":4880:4883   */\n      dup7\n        /* \"#utility.yul\":4876:4892   */\n      add\n        /* \"#utility.yul\":4869:4892   */\n      swap4\n      pop\n        /* \"#utility.yul\":4765:4902   */\n      jump(tag_271)\n        /* \"#utility.yul\":4911:5255   */\n    tag_273:\n        /* \"#utility.yul\":4978:5019   */\n      tag_274\n        /* \"#utility.yul\":5013:5018   */\n      dup6\n        /* \"#utility.yul\":4978:5019   */\n      tag_275\n      jump\t// in\n    tag_274:\n        /* \"#utility.yul\":5041:5042   */\n      0x00\n        /* \"#utility.yul\":5055:5209   */\n    tag_276:\n        /* \"#utility.yul\":5069:5075   */\n      dup4\n        /* \"#utility.yul\":5066:5067   */\n      dup2\n        /* \"#utility.yul\":5063:5076   */\n      lt\n        /* \"#utility.yul\":5055:5209   */\n      iszero\n      tag_278\n      jumpi\n        /* \"#utility.yul\":5143:5150   */\n      dup2\n        /* \"#utility.yul\":5137:5151   */\n      sload\n        /* \"#utility.yul\":5133:5134   */\n      dup2\n        /* \"#utility.yul\":5128:5131   */\n      dup10\n        /* \"#utility.yul\":5124:5135   */\n      add\n        /* \"#utility.yul\":5117:5152   */\n      mstore\n        /* \"#utility.yul\":5193:5194   */\n      0x01\n        /* \"#utility.yul\":5184:5191   */\n      dup3\n        /* \"#utility.yul\":5180:5195   */\n      add\n        /* \"#utility.yul\":5169:5195   */\n      swap2\n      pop\n        /* \"#utility.yul\":5091:5095   */\n      0x20\n        /* \"#utility.yul\":5088:5089   */\n      dup2\n        /* \"#utility.yul\":5084:5096   */\n      add\n        /* \"#utility.yul\":5079:5096   */\n      swap1\n      pop\n        /* \"#utility.yul\":5055:5209   */\n      jump(tag_276)\n    tag_278:\n        /* \"#utility.yul\":5238:5244   */\n      dup4\n        /* \"#utility.yul\":5233:5236   */\n      dup9\n        /* \"#utility.yul\":5229:5245   */\n      add\n        /* \"#utility.yul\":5222:5245   */\n      swap6\n      pop\n        /* \"#utility.yul\":4918:5255   */\n      pop\n      pop\n        /* \"#utility.yul\":4732:5255   */\n    tag_271:\n      pop\n        /* \"#utility.yul\":4521:5261   */\n      pop\n      pop\n      swap3\n      swap2\n      pop\n      pop\n      jump\t// out\n        /* \"#utility.yul\":5267:5611   */\n    tag_225:\n      0x00\n        /* \"#utility.yul\":5373:5412   */\n      tag_280\n        /* \"#utility.yul\":5406:5411   */\n      dup3\n        /* \"#utility.yul\":5373:5412   */\n      tag_281\n      jump\t// in\n    tag_280:\n        /* \"#utility.yul\":5428:5489   */\n      tag_282\n        /* \"#utility.yul\":5482:5488   */\n      dup2\n        /* \"#utility.yul\":5477:5480   */\n      dup6\n        /* \"#utility.yul\":5428:5489   */\n      tag_283\n      jump\t// in\n    tag_282:\n        /* \"#utility.yul\":5421:5489   */\n      swap4\n      pop\n        /* \"#utility.yul\":5498:5550   */\n      tag_284\n        /* \"#utility.yul\":5543:5549   */\n      dup2\n        /* \"#utility.yul\":5538:5541   */\n      dup6\n        /* \"#utility.yul\":5531:5535   */\n      0x20\n        /* \"#utility.yul\":5524:5529   */\n      dup7\n        /* \"#utility.yul\":5520:5536   */\n      add\n        /* \"#utility.yul\":5498:5550   */\n      tag_285\n      jump\t// in\n    tag_284:\n        /* \"#utility.yul\":5575:5604   */\n      tag_286\n        /* \"#utility.yul\":5597:5603   */\n      dup2\n        /* \"#utility.yul\":5575:5604   */\n      tag_287\n      jump\t// in\n    tag_286:\n        /* \"#utility.yul\":5570:5573   */\n      dup5\n        /* \"#utility.yul\":5566:5605   */\n      add\n        /* \"#utility.yul\":5559:5605   */\n      swap2\n      pop\n        /* \"#utility.yul\":5349:5611   */\n      pop\n      swap3\n      swap2\n      pop\n      pop\n      jump\t// out\n        /* \"#utility.yul\":5617:5981   */\n    tag_288:\n      0x00\n        /* \"#utility.yul\":5733:5772   */\n      tag_290\n        /* \"#utility.yul\":5766:5771   */\n      dup3\n        /* \"#utility.yul\":5733:5772   */\n      tag_281\n      jump\t// in\n    tag_290:\n        /* \"#utility.yul\":5788:5859   */\n      tag_291\n        /* \"#utility.yul\":5852:5858   */\n      dup2\n        /* \"#utility.yul\":5847:5850   */\n      dup6\n        /* \"#utility.yul\":5788:5859   */\n      tag_292\n      jump\t// in\n    tag_291:\n        /* \"#utility.yul\":5781:5859   */\n      swap4\n      pop\n        /* \"#utility.yul\":5868:5920   */\n      tag_293\n        /* \"#utility.yul\":5913:5919   */\n      dup2\n        /* \"#utility.yul\":5908:5911   */\n      dup6\n        /* \"#utility.yul\":5901:5905   */\n      0x20\n        /* \"#utility.yul\":5894:5899   */\n      dup7\n        /* \"#utility.yul\":5890:5906   */\n      add\n        /* \"#utility.yul\":5868:5920   */\n      tag_285\n      jump\t// in\n    tag_293:\n        /* \"#utility.yul\":5945:5974   */\n      tag_294\n        /* \"#utility.yul\":5967:5973   */\n      dup2\n        /* \"#utility.yul\":5945:5974   */\n      tag_287\n      jump\t// in\n    tag_294:\n        /* \"#utility.yul\":5940:5943   */\n      dup5\n        /* \"#utility.yul\":5936:5975   */\n      add\n        /* \"#utility.yul\":5929:5975   */\n      swap2\n      pop\n        /* \"#utility.yul\":5709:5981   */\n      pop\n      swap3\n      swap2\n      pop\n      pop\n      jump\t// out\n        /* \"#utility.yul\":5987:6353   */\n    tag_295:\n      0x00\n        /* \"#utility.yul\":6150:6217   */\n      tag_297\n        /* \"#utility.yul\":6214:6216   */\n      0x2d\n        /* \"#utility.yul\":6209:6212   */\n      dup4\n        /* \"#utility.yul\":6150:6217   */\n      tag_292\n      jump\t// in\n    tag_297:\n        /* \"#utility.yul\":6143:6217   */\n      swap2\n      pop\n        /* \"#utility.yul\":6226:6319   */\n      tag_298\n        /* \"#utility.yul\":6315:6318   */\n      dup3\n        /* \"#utility.yul\":6226:6319   */\n      tag_299\n      jump\t// in\n    tag_298:\n        /* \"#utility.yul\":6344:6346   */\n      0x40\n        /* \"#utility.yul\":6339:6342   */\n      dup3\n        /* \"#utility.yul\":6335:6347   */\n      add\n        /* \"#utility.yul\":6328:6347   */\n      swap1\n      pop\n        /* \"#utility.yul\":6133:6353   */\n      swap2\n      swap1\n      pop\n      jump\t// out\n        /* \"#utility.yul\":6359:6725   */\n    tag_300:\n      0x00\n        /* \"#utility.yul\":6522:6589   */\n      tag_302\n        /* \"#utility.yul\":6586:6588   */\n      0x14\n        /* \"#utility.yul\":6581:6584   */\n      dup4\n        /* \"#utility.yul\":6522:6589   */\n      tag_292\n      jump\t// in\n    tag_302:\n        /* \"#utility.yul\":6515:6589   */\n      swap2\n      pop\n        /* \"#utility.yul\":6598:6691   */\n      tag_303\n        /* \"#utility.yul\":6687:6690   */\n      dup3\n        /* \"#utility.yul\":6598:6691   */\n      tag_304\n      jump\t// in\n    tag_303:\n        /* \"#utility.yul\":6716:6718   */\n      0x20\n        /* \"#utility.yul\":6711:6714   */\n      dup3\n        /* \"#utility.yul\":6707:6719   */\n      add\n        /* \"#utility.yul\":6700:6719   */\n      swap1\n      pop\n        /* \"#utility.yul\":6505:6725   */\n      swap2\n      swap1\n      pop\n      jump\t// out\n        /* \"#utility.yul\":6731:7097   */\n    tag_305:\n      0x00\n        /* \"#utility.yul\":6894:6961   */\n      tag_307\n        /* \"#utility.yul\":6958:6960   */\n      0x15\n        /* \"#utility.yul\":6953:6956   */\n      dup4\n        /* \"#utility.yul\":6894:6961   */\n      tag_292\n      jump\t// in\n    tag_307:\n        /* \"#utility.yul\":6887:6961   */\n      swap2\n      pop\n        /* \"#utility.yul\":6970:7063   */\n      tag_308\n        /* \"#utility.yul\":7059:7062   */\n      dup3\n        /* \"#utility.yul\":6970:7063   */\n      tag_309\n      jump\t// in\n    tag_308:\n        /* \"#utility.yul\":7088:7090   */\n      0x20\n        /* \"#utility.yul\":7083:7086   */\n      dup3\n        /* \"#utility.yul\":7079:7091   */\n      add\n        /* \"#utility.yul\":7072:7091   */\n      swap1\n      pop\n        /* \"#utility.yul\":6877:7097   */\n      swap2\n      swap1\n      pop\n      jump\t// out\n        /* \"#utility.yul\":7103:7469   */\n    tag_310:\n      0x00\n        /* \"#utility.yul\":7266:7333   */\n      tag_312\n        /* \"#utility.yul\":7330:7332   */\n      0x15\n        /* \"#utility.yul\":7325:7328   */\n      dup4\n        /* \"#utility.yul\":7266:7333   */\n      tag_292\n      jump\t// in\n    tag_312:\n        /* \"#utility.yul\":7259:7333   */\n      swap2\n      pop\n        /* \"#utility.yul\":7342:7435   */\n      tag_313\n        /* \"#utility.yul\":7431:7434   */\n      dup3\n        /* \"#utility.yul\":7342:7435   */\n      tag_314\n      jump\t// in\n    tag_313:\n        /* \"#utility.yul\":7460:7462   */\n      0x20\n        /* \"#utility.yul\":7455:7458   */\n      dup3\n        /* \"#utility.yul\":7451:7463   */\n      add\n        /* \"#utility.yul\":7444:7463   */\n      swap1\n      pop\n        /* \"#utility.yul\":7249:7469   */\n      swap2\n      swap1\n      pop\n      jump\t// out\n        /* \"#utility.yul\":7475:7841   */\n    tag_315:\n      0x00\n        /* \"#utility.yul\":7638:7705   */\n      tag_317\n        /* \"#utility.yul\":7702:7704   */\n      0x27\n        /* \"#utility.yul\":7697:7700   */\n      dup4\n        /* \"#utility.yul\":7638:7705   */\n      tag_292\n      jump\t// in\n    tag_317:\n        /* \"#utility.yul\":7631:7705   */\n      swap2\n      pop\n        /* \"#utility.yul\":7714:7807   */\n      tag_318\n        /* \"#utility.yul\":7803:7806   */\n      dup3\n        /* \"#utility.yul\":7714:7807   */\n      tag_319\n      jump\t// in\n    tag_318:\n        /* \"#utility.yul\":7832:7834   */\n      0x40\n        /* \"#utility.yul\":7827:7830   */\n      dup3\n        /* \"#utility.yul\":7823:7835   */\n      add\n        /* \"#utility.yul\":7816:7835   */\n      swap1\n      pop\n        /* \"#utility.yul\":7621:7841   */\n      swap2\n      swap1\n      pop\n      jump\t// out\n        /* \"#utility.yul\":7847:8213   */\n    tag_320:\n      0x00\n        /* \"#utility.yul\":8010:8077   */\n      tag_322\n        /* \"#utility.yul\":8074:8076   */\n      0x1b\n        /* \"#utility.yul\":8069:8072   */\n      dup4\n        /* \"#utility.yul\":8010:8077   */\n      tag_292\n      jump\t// in\n    tag_322:\n        /* \"#utility.yul\":8003:8077   */\n      swap2\n      pop\n        /* \"#utility.yul\":8086:8179   */\n      tag_323\n        /* \"#utility.yul\":8175:8178   */\n      dup3\n        /* \"#utility.yul\":8086:8179   */\n      tag_324\n      jump\t// in\n    tag_323:\n        /* \"#utility.yul\":8204:8206   */\n      0x20\n        /* \"#utility.yul\":8199:8202   */\n      dup3\n        /* \"#utility.yul\":8195:8207   */\n      add\n        /* \"#utility.yul\":8188:8207   */\n      swap1\n      pop\n        /* \"#utility.yul\":7993:8213   */\n      swap2\n      swap1\n      pop\n      jump\t// out\n        /* \"#utility.yul\":8219:8585   */\n    tag_325:\n      0x00\n        /* \"#utility.yul\":8382:8449   */\n      tag_327\n        /* \"#utility.yul\":8446:8448   */\n      0x16\n        /* \"#utility.yul\":8441:8444   */\n      dup4\n        /* \"#utility.yul\":8382:8449   */\n      tag_292\n      jump\t// in\n    tag_327:\n        /* \"#utility.yul\":8375:8449   */\n      swap2\n      pop\n        /* \"#utility.yul\":8458:8551   */\n      tag_328\n        /* \"#utility.yul\":8547:8550   */\n      dup3\n        /* \"#utility.yul\":8458:8551   */\n      tag_329\n      jump\t// in\n    tag_328:\n        /* \"#utility.yul\":8576:8578   */\n      0x20\n        /* \"#utility.yul\":8571:8574   */\n      dup3\n        /* \"#utility.yul\":8567:8579   */\n      add\n        /* \"#utility.yul\":8560:8579   */\n      swap1\n      pop\n        /* \"#utility.yul\":8365:8585   */\n      swap2\n      swap1\n      pop\n      jump\t// out\n        /* \"#utility.yul\":8591:8957   */\n    tag_330:\n      0x00\n        /* \"#utility.yul\":8754:8821   */\n      tag_332\n        /* \"#utility.yul\":8818:8820   */\n      0x16\n        /* \"#utility.yul\":8813:8816   */\n      dup4\n        /* \"#utility.yul\":8754:8821   */\n      tag_292\n      jump\t// in\n    tag_332:\n        /* \"#utility.yul\":8747:8821   */\n      swap2\n      pop\n        /* \"#utility.yul\":8830:8923   */\n      tag_333\n        /* \"#utility.yul\":8919:8922   */\n      dup3\n        /* \"#utility.yul\":8830:8923   */\n      tag_334\n      jump\t// in\n    tag_333:\n        /* \"#utility.yul\":8948:8950   */\n      0x20\n        /* \"#utility.yul\":8943:8946   */\n      dup3\n        /* \"#utility.yul\":8939:8951   */\n      add\n        /* \"#utility.yul\":8932:8951   */\n      swap1\n      pop\n        /* \"#utility.yul\":8737:8957   */\n      swap2\n      swap1\n      pop\n      jump\t// out\n        /* \"#utility.yul\":8963:9329   */\n    tag_335:\n      0x00\n        /* \"#utility.yul\":9126:9193   */\n      tag_337\n        /* \"#utility.yul\":9190:9192   */\n      0x1a\n        /* \"#utility.yul\":9185:9188   */\n      dup4\n        /* \"#utility.yul\":9126:9193   */\n      tag_292\n      jump\t// in\n    tag_337:\n        /* \"#utility.yul\":9119:9193   */\n      swap2\n      pop\n        /* \"#utility.yul\":9202:9295   */\n      tag_338\n        /* \"#utility.yul\":9291:9294   */\n      dup3\n        /* \"#utility.yul\":9202:9295   */\n      tag_339\n      jump\t// in\n    tag_338:\n        /* \"#utility.yul\":9320:9322   */\n      0x20\n        /* \"#utility.yul\":9315:9318   */\n      dup3\n        /* \"#utility.yul\":9311:9323   */\n      add\n        /* \"#utility.yul\":9304:9323   */\n      swap1\n      pop\n        /* \"#utility.yul\":9109:9329   */\n      swap2\n      swap1\n      pop\n      jump\t// out\n        /* \"#utility.yul\":9335:9701   */\n    tag_340:\n      0x00\n        /* \"#utility.yul\":9498:9565   */\n      tag_342\n        /* \"#utility.yul\":9562:9564   */\n      0x13\n        /* \"#utility.yul\":9557:9560   */\n      dup4\n        /* \"#utility.yul\":9498:9565   */\n      tag_292\n      jump\t// in\n    tag_342:\n        /* \"#utility.yul\":9491:9565   */\n      swap2\n      pop\n        /* \"#utility.yul\":9574:9667   */\n      tag_343\n        /* \"#utility.yul\":9663:9666   */\n      dup3\n        /* \"#utility.yul\":9574:9667   */\n      tag_344\n      jump\t// in\n    tag_343:\n        /* \"#utility.yul\":9692:9694   */\n      0x20\n        /* \"#utility.yul\":9687:9690   */\n      dup3\n        /* \"#utility.yul\":9683:9695   */\n      add\n        /* \"#utility.yul\":9676:9695   */\n      swap1\n      pop\n        /* \"#utility.yul\":9481:9701   */\n      swap2\n      swap1\n      pop\n      jump\t// out\n        /* \"#utility.yul\":9707:10073   */\n    tag_345:\n      0x00\n        /* \"#utility.yul\":9870:9937   */\n      tag_347\n        /* \"#utility.yul\":9934:9936   */\n      0x21\n        /* \"#utility.yul\":9929:9932   */\n      dup4\n        /* \"#utility.yul\":9870:9937   */\n      tag_292\n      jump\t// in\n    tag_347:\n        /* \"#utility.yul\":9863:9937   */\n      swap2\n      pop\n        /* \"#utility.yul\":9946:10039   */\n      tag_348\n        /* \"#utility.yul\":10035:10038   */\n      dup3\n        /* \"#utility.yul\":9946:10039   */\n      tag_349\n      jump\t// in\n    tag_348:\n        /* \"#utility.yul\":10064:10066   */\n      0x40\n        /* \"#utility.yul\":10059:10062   */\n      dup3\n        /* \"#utility.yul\":10055:10067   */\n      add\n        /* \"#utility.yul\":10048:10067   */\n      swap1\n      pop\n        /* \"#utility.yul\":9853:10073   */\n      swap2\n      swap1\n      pop\n      jump\t// out\n        /* \"#utility.yul\":10079:10187   */\n    tag_229:\n        /* \"#utility.yul\":10156:10180   */\n      tag_351\n        /* \"#utility.yul\":10174:10179   */\n      dup2\n        /* \"#utility.yul\":10156:10180   */\n      tag_352\n      jump\t// in\n    tag_351:\n        /* \"#utility.yul\":10151:10154   */\n      dup3\n        /* \"#utility.yul\":10144:10181   */\n      mstore\n        /* \"#utility.yul\":10134:10187   */\n      pop\n      pop\n      jump\t// out\n        /* \"#utility.yul\":10193:10311   */\n    tag_353:\n        /* \"#utility.yul\":10280:10304   */\n      tag_355\n        /* \"#utility.yul\":10298:10303   */\n      dup2\n        /* \"#utility.yul\":10280:10304   */\n      tag_352\n      jump\t// in\n    tag_355:\n        /* \"#utility.yul\":10275:10278   */\n      dup3\n        /* \"#utility.yul\":10268:10305   */\n      mstore\n        /* \"#utility.yul\":10258:10311   */\n      pop\n      pop\n      jump\t// out\n        /* \"#utility.yul\":10317:10590   */\n    tag_122:\n      0x00\n        /* \"#utility.yul\":10470:10564   */\n      tag_357\n        /* \"#utility.yul\":10560:10563   */\n      dup3\n        /* \"#utility.yul\":10551:10557   */\n      dup5\n        /* \"#utility.yul\":10470:10564   */\n      tag_266\n      jump\t// in\n    tag_357:\n        /* \"#utility.yul\":10463:10564   */\n      swap2\n      pop\n        /* \"#utility.yul\":10581:10584   */\n      dup2\n        /* \"#utility.yul\":10574:10584   */\n      swap1\n      pop\n        /* \"#utility.yul\":10452:10590   */\n      swap3\n      swap2\n      pop\n      pop\n      jump\t// out\n        /* \"#utility.yul\":10596:10928   */\n    tag_80:\n      0x00\n        /* \"#utility.yul\":10755:10757   */\n      0x40\n        /* \"#utility.yul\":10744:10753   */\n      dup3\n        /* \"#utility.yul\":10740:10758   */\n      add\n        /* \"#utility.yul\":10732:10758   */\n      swap1\n      pop\n        /* \"#utility.yul\":10768:10839   */\n      tag_359\n        /* \"#utility.yul\":10836:10837   */\n      0x00\n        /* \"#utility.yul\":10825:10834   */\n      dup4\n        /* \"#utility.yul\":10821:10838   */\n      add\n        /* \"#utility.yul\":10812:10818   */\n      dup6\n        /* \"#utility.yul\":10768:10839   */\n      tag_230\n      jump\t// in\n    tag_359:\n        /* \"#utility.yul\":10849:10921   */\n      tag_360\n        /* \"#utility.yul\":10917:10919   */\n      0x20\n        /* \"#utility.yul\":10906:10915   */\n      dup4\n        /* \"#utility.yul\":10902:10920   */\n      add\n        /* \"#utility.yul\":10893:10899   */\n      dup5\n        /* \"#utility.yul\":10849:10921   */\n      tag_353\n      jump\t// in\n    tag_360:\n        /* \"#utility.yul\":10722:10928   */\n      swap4\n      swap3\n      pop\n      pop\n      pop\n      jump\t// out\n        /* \"#utility.yul\":10934:11608   */\n    tag_52:\n      0x00\n        /* \"#utility.yul\":11213:11215   */\n      0x40\n        /* \"#utility.yul\":11202:11211   */\n      dup3\n        /* \"#utility.yul\":11198:11216   */\n      add\n        /* \"#utility.yul\":11190:11216   */\n      swap1\n      pop\n        /* \"#utility.yul\":11262:11271   */\n      dup2\n        /* \"#utility.yul\":11256:11260   */\n      dup2\n        /* \"#utility.yul\":11252:11272   */\n      sub\n        /* \"#utility.yul\":11248:11249   */\n      0x00\n        /* \"#utility.yul\":11237:11246   */\n      dup4\n        /* \"#utility.yul\":11233:11250   */\n      add\n        /* \"#utility.yul\":11226:11273   */\n      mstore\n        /* \"#utility.yul\":11290:11398   */\n      tag_362\n        /* \"#utility.yul\":11393:11397   */\n      dup2\n        /* \"#utility.yul\":11384:11390   */\n      dup6\n        /* \"#utility.yul\":11290:11398   */\n      tag_248\n      jump\t// in\n    tag_362:\n        /* \"#utility.yul\":11282:11398   */\n      swap1\n      pop\n        /* \"#utility.yul\":11445:11454   */\n      dup2\n        /* \"#utility.yul\":11439:11443   */\n      dup2\n        /* \"#utility.yul\":11435:11455   */\n      sub\n        /* \"#utility.yul\":11430:11432   */\n      0x20\n        /* \"#utility.yul\":11419:11428   */\n      dup4\n        /* \"#utility.yul\":11415:11433   */\n      add\n        /* \"#utility.yul\":11408:11456   */\n      mstore\n        /* \"#utility.yul\":11473:11601   */\n      tag_363\n        /* \"#utility.yul\":11596:11600   */\n      dup2\n        /* \"#utility.yul\":11587:11593   */\n      dup5\n        /* \"#utility.yul\":11473:11601   */\n      tag_234\n      jump\t// in\n    tag_363:\n        /* \"#utility.yul\":11465:11601   */\n      swap1\n      pop\n        /* \"#utility.yul\":11180:11608   */\n      swap4\n      swap3\n      pop\n      pop\n      pop\n      jump\t// out\n        /* \"#utility.yul\":11614:11824   */\n    tag_33:\n      0x00\n        /* \"#utility.yul\":11739:11741   */\n      0x20\n        /* \"#utility.yul\":11728:11737   */\n      dup3\n        /* \"#utility.yul\":11724:11742   */\n      add\n        /* \"#utility.yul\":11716:11742   */\n      swap1\n      pop\n        /* \"#utility.yul\":11752:11817   */\n      tag_365\n        /* \"#utility.yul\":11814:11815   */\n      0x00\n        /* \"#utility.yul\":11803:11812   */\n      dup4\n        /* \"#utility.yul\":11799:11816   */\n      add\n        /* \"#utility.yul\":11790:11796   */\n      dup5\n        /* \"#utility.yul\":11752:11817   */\n      tag_262\n      jump\t// in\n    tag_365:\n        /* \"#utility.yul\":11706:11824   */\n      swap3\n      swap2\n      pop\n      pop\n      jump\t// out\n        /* \"#utility.yul\":11830:12143   */\n    tag_27:\n      0x00\n        /* \"#utility.yul\":11981:11983   */\n      0x20\n        /* \"#utility.yul\":11970:11979   */\n      dup3\n        /* \"#utility.yul\":11966:11984   */\n      add\n        /* \"#utility.yul\":11958:11984   */\n      swap1\n      pop\n        /* \"#utility.yul\":12030:12039   */\n      dup2\n        /* \"#utility.yul\":12024:12028   */\n      dup2\n        /* \"#utility.yul\":12020:12040   */\n      sub\n        /* \"#utility.yul\":12016:12017   */\n      0x00\n        /* \"#utility.yul\":12005:12014   */\n      dup4\n        /* \"#utility.yul\":12001:12018   */\n      add\n        /* \"#utility.yul\":11994:12041   */\n      mstore\n        /* \"#utility.yul\":12058:12136   */\n      tag_367\n        /* \"#utility.yul\":12131:12135   */\n      dup2\n        /* \"#utility.yul\":12122:12128   */\n      dup5\n        /* \"#utility.yul\":12058:12136   */\n      tag_288\n      jump\t// in\n    tag_367:\n        /* \"#utility.yul\":12050:12136   */\n      swap1\n      pop\n        /* \"#utility.yul\":11948:12143   */\n      swap3\n      swap2\n      pop\n      pop\n      jump\t// out\n        /* \"#utility.yul\":12149:12568   */\n    tag_170:\n      0x00\n        /* \"#utility.yul\":12353:12355   */\n      0x20\n        /* \"#utility.yul\":12342:12351   */\n      dup3\n        /* \"#utility.yul\":12338:12356   */\n      add\n        /* \"#utility.yul\":12330:12356   */\n      swap1\n      pop\n        /* \"#utility.yul\":12402:12411   */\n      dup2\n        /* \"#utility.yul\":12396:12400   */\n      dup2\n        /* \"#utility.yul\":12392:12412   */\n      sub\n        /* \"#utility.yul\":12388:12389   */\n      0x00\n        /* \"#utility.yul\":12377:12386   */\n      dup4\n        /* \"#utility.yul\":12373:12390   */\n      add\n        /* \"#utility.yul\":12366:12413   */\n      mstore\n        /* \"#utility.yul\":12430:12561   */\n      tag_369\n        /* \"#utility.yul\":12556:12560   */\n      dup2\n        /* \"#utility.yul\":12430:12561   */\n      tag_295\n      jump\t// in\n    tag_369:\n        /* \"#utility.yul\":12422:12561   */\n      swap1\n      pop\n        /* \"#utility.yul\":12320:12568   */\n      swap2\n      swap1\n      pop\n      jump\t// out\n        /* \"#utility.yul\":12574:12993   */\n    tag_101:\n      0x00\n        /* \"#utility.yul\":12778:12780   */\n      0x20\n        /* \"#utility.yul\":12767:12776   */\n      dup3\n        /* \"#utility.yul\":12763:12781   */\n      add\n        /* \"#utility.yul\":12755:12781   */\n      swap1\n      pop\n        /* \"#utility.yul\":12827:12836   */\n      dup2\n        /* \"#utility.yul\":12821:12825   */\n      dup2\n        /* \"#utility.yul\":12817:12837   */\n      sub\n        /* \"#utility.yul\":12813:12814   */\n      0x00\n        /* \"#utility.yul\":12802:12811   */\n      dup4\n        /* \"#utility.yul\":12798:12815   */\n      add\n        /* \"#utility.yul\":12791:12838   */\n      mstore\n        /* \"#utility.yul\":12855:12986   */\n      tag_371\n        /* \"#utility.yul\":12981:12985   */\n      dup2\n        /* \"#utility.yul\":12855:12986   */\n      tag_300\n      jump\t// in\n    tag_371:\n        /* \"#utility.yul\":12847:12986   */\n      swap1\n      pop\n        /* \"#utility.yul\":12745:12993   */\n      swap2\n      swap1\n      pop\n      jump\t// out\n        /* \"#utility.yul\":12999:13418   */\n    tag_143:\n      0x00\n        /* \"#utility.yul\":13203:13205   */\n      0x20\n        /* \"#utility.yul\":13192:13201   */\n      dup3\n        /* \"#utility.yul\":13188:13206   */\n      add\n        /* \"#utility.yul\":13180:13206   */\n      swap1\n      pop\n        /* \"#utility.yul\":13252:13261   */\n      dup2\n        /* \"#utility.yul\":13246:13250   */\n      dup2\n        /* \"#utility.yul\":13242:13262   */\n      sub\n        /* \"#utility.yul\":13238:13239   */\n      0x00\n        /* \"#utility.yul\":13227:13236   */\n      dup4\n        /* \"#utility.yul\":13223:13240   */\n      add\n        /* \"#utility.yul\":13216:13263   */\n      mstore\n        /* \"#utility.yul\":13280:13411   */\n      tag_373\n        /* \"#utility.yul\":13406:13410   */\n      dup2\n        /* \"#utility.yul\":13280:13411   */\n      tag_305\n      jump\t// in\n    tag_373:\n        /* \"#utility.yul\":13272:13411   */\n      swap1\n      pop\n        /* \"#utility.yul\":13170:13418   */\n      swap2\n      swap1\n      pop\n      jump\t// out\n        /* \"#utility.yul\":13424:13843   */\n    tag_84:\n      0x00\n        /* \"#utility.yul\":13628:13630   */\n      0x20\n        /* \"#utility.yul\":13617:13626   */\n      dup3\n        /* \"#utility.yul\":13613:13631   */\n      add\n        /* \"#utility.yul\":13605:13631   */\n      swap1\n      pop\n        /* \"#utility.yul\":13677:13686   */\n      dup2\n        /* \"#utility.yul\":13671:13675   */\n      dup2\n        /* \"#utility.yul\":13667:13687   */\n      sub\n        /* \"#utility.yul\":13663:13664   */\n      0x00\n        /* \"#utility.yul\":13652:13661   */\n      dup4\n        /* \"#utility.yul\":13648:13665   */\n      add\n        /* \"#utility.yul\":13641:13688   */\n      mstore\n        /* \"#utility.yul\":13705:13836   */\n      tag_375\n        /* \"#utility.yul\":13831:13835   */\n      dup2\n        /* \"#utility.yul\":13705:13836   */\n      tag_310\n      jump\t// in\n    tag_375:\n        /* \"#utility.yul\":13697:13836   */\n      swap1\n      pop\n        /* \"#utility.yul\":13595:13843   */\n      swap2\n      swap1\n      pop\n      jump\t// out\n        /* \"#utility.yul\":13849:14268   */\n    tag_65:\n      0x00\n        /* \"#utility.yul\":14053:14055   */\n      0x20\n        /* \"#utility.yul\":14042:14051   */\n      dup3\n        /* \"#utility.yul\":14038:14056   */\n      add\n        /* \"#utility.yul\":14030:14056   */\n      swap1\n      pop\n        /* \"#utility.yul\":14102:14111   */\n      dup2\n        /* \"#utility.yul\":14096:14100   */\n      dup2\n        /* \"#utility.yul\":14092:14112   */\n      sub\n        /* \"#utility.yul\":14088:14089   */\n      0x00\n        /* \"#utility.yul\":14077:14086   */\n      dup4\n        /* \"#utility.yul\":14073:14090   */\n      add\n        /* \"#utility.yul\":14066:14113   */\n      mstore\n        /* \"#utility.yul\":14130:14261   */\n      tag_377\n        /* \"#utility.yul\":14256:14260   */\n      dup2\n        /* \"#utility.yul\":14130:14261   */\n      tag_315\n      jump\t// in\n    tag_377:\n        /* \"#utility.yul\":14122:14261   */\n      swap1\n      pop\n        /* \"#utility.yul\":14020:14268   */\n      swap2\n      swap1\n      pop\n      jump\t// out\n        /* \"#utility.yul\":14274:14693   */\n    tag_125:\n      0x00\n        /* \"#utility.yul\":14478:14480   */\n      0x20\n        /* \"#utility.yul\":14467:14476   */\n      dup3\n        /* \"#utility.yul\":14463:14481   */\n      add\n        /* \"#utility.yul\":14455:14481   */\n      swap1\n      pop\n        /* \"#utility.yul\":14527:14536   */\n      dup2\n        /* \"#utility.yul\":14521:14525   */\n      dup2\n        /* \"#utility.yul\":14517:14537   */\n      sub\n        /* \"#utility.yul\":14513:14514   */\n      0x00\n        /* \"#utility.yul\":14502:14511   */\n      dup4\n        /* \"#utility.yul\":14498:14515   */\n      add\n        /* \"#utility.yul\":14491:14538   */\n      mstore\n        /* \"#utility.yul\":14555:14686   */\n      tag_379\n        /* \"#utility.yul\":14681:14685   */\n      dup2\n        /* \"#utility.yul\":14555:14686   */\n      tag_320\n      jump\t// in\n    tag_379:\n        /* \"#utility.yul\":14547:14686   */\n      swap1\n      pop\n        /* \"#utility.yul\":14445:14693   */\n      swap2\n      swap1\n      pop\n      jump\t// out\n        /* \"#utility.yul\":14699:15118   */\n    tag_60:\n      0x00\n        /* \"#utility.yul\":14903:14905   */\n      0x20\n        /* \"#utility.yul\":14892:14901   */\n      dup3\n        /* \"#utility.yul\":14888:14906   */\n      add\n        /* \"#utility.yul\":14880:14906   */\n      swap1\n      pop\n        /* \"#utility.yul\":14952:14961   */\n      dup2\n        /* \"#utility.yul\":14946:14950   */\n      dup2\n        /* \"#utility.yul\":14942:14962   */\n      sub\n        /* \"#utility.yul\":14938:14939   */\n      0x00\n        /* \"#utility.yul\":14927:14936   */\n      dup4\n        /* \"#utility.yul\":14923:14940   */\n      add\n        /* \"#utility.yul\":14916:14963   */\n      mstore\n        /* \"#utility.yul\":14980:15111   */\n      tag_381\n        /* \"#utility.yul\":15106:15110   */\n      dup2\n        /* \"#utility.yul\":14980:15111   */\n      tag_325\n      jump\t// in\n    tag_381:\n        /* \"#utility.yul\":14972:15111   */\n      swap1\n      pop\n        /* \"#utility.yul\":14870:15118   */\n      swap2\n      swap1\n      pop\n      jump\t// out\n        /* \"#utility.yul\":15124:15543   */\n    tag_71:\n      0x00\n        /* \"#utility.yul\":15328:15330   */\n      0x20\n        /* \"#utility.yul\":15317:15326   */\n      dup3\n        /* \"#utility.yul\":15313:15331   */\n      add\n        /* \"#utility.yul\":15305:15331   */\n      swap1\n      pop\n        /* \"#utility.yul\":15377:15386   */\n      dup2\n        /* \"#utility.yul\":15371:15375   */\n      dup2\n        /* \"#utility.yul\":15367:15387   */\n      sub\n        /* \"#utility.yul\":15363:15364   */\n      0x00\n        /* \"#utility.yul\":15352:15361   */\n      dup4\n        /* \"#utility.yul\":15348:15365   */\n      add\n        /* \"#utility.yul\":15341:15388   */\n      mstore\n        /* \"#utility.yul\":15405:15536   */\n      tag_383\n        /* \"#utility.yul\":15531:15535   */\n      dup2\n        /* \"#utility.yul\":15405:15536   */\n      tag_330\n      jump\t// in\n    tag_383:\n        /* \"#utility.yul\":15397:15536   */\n      swap1\n      pop\n        /* \"#utility.yul\":15295:15543   */\n      swap2\n      swap1\n      pop\n      jump\t// out\n        /* \"#utility.yul\":15549:15968   */\n    tag_68:\n      0x00\n        /* \"#utility.yul\":15753:15755   */\n      0x20\n        /* \"#utility.yul\":15742:15751   */\n      dup3\n        /* \"#utility.yul\":15738:15756   */\n      add\n        /* \"#utility.yul\":15730:15756   */\n      swap1\n      pop\n        /* \"#utility.yul\":15802:15811   */\n      dup2\n        /* \"#utility.yul\":15796:15800   */\n      dup2\n        /* \"#utility.yul\":15792:15812   */\n      sub\n        /* \"#utility.yul\":15788:15789   */\n      0x00\n        /* \"#utility.yul\":15777:15786   */\n      dup4\n        /* \"#utility.yul\":15773:15790   */\n      add\n        /* \"#utility.yul\":15766:15813   */\n      mstore\n        /* \"#utility.yul\":15830:15961   */\n      tag_385\n        /* \"#utility.yul\":15956:15960   */\n      dup2\n        /* \"#utility.yul\":15830:15961   */\n      tag_335\n      jump\t// in\n    tag_385:\n        /* \"#utility.yul\":15822:15961   */\n      swap1\n      pop\n        /* \"#utility.yul\":15720:15968   */\n      swap2\n      swap1\n      pop\n      jump\t// out\n        /* \"#utility.yul\":15974:16393   */\n    tag_167:\n      0x00\n        /* \"#utility.yul\":16178:16180   */\n      0x20\n        /* \"#utility.yul\":16167:16176   */\n      dup3\n        /* \"#utility.yul\":16163:16181   */\n      add\n        /* \"#utility.yul\":16155:16181   */\n      swap1\n      pop\n        /* \"#utility.yul\":16227:16236   */\n      dup2\n        /* \"#utility.yul\":16221:16225   */\n      dup2\n        /* \"#utility.yul\":16217:16237   */\n      sub\n        /* \"#utility.yul\":16213:16214   */\n      0x00\n        /* \"#utility.yul\":16202:16211   */\n      dup4\n        /* \"#utility.yul\":16198:16215   */\n      add\n        /* \"#utility.yul\":16191:16238   */\n      mstore\n        /* \"#utility.yul\":16255:16386   */\n      tag_387\n        /* \"#utility.yul\":16381:16385   */\n      dup2\n        /* \"#utility.yul\":16255:16386   */\n      tag_340\n      jump\t// in\n    tag_387:\n        /* \"#utility.yul\":16247:16386   */\n      swap1\n      pop\n        /* \"#utility.yul\":16145:16393   */\n      swap2\n      swap1\n      pop\n      jump\t// out\n        /* \"#utility.yul\":16399:16818   */\n    tag_93:\n      0x00\n        /* \"#utility.yul\":16603:16605   */\n      0x20\n        /* \"#utility.yul\":16592:16601   */\n      dup3\n        /* \"#utility.yul\":16588:16606   */\n      add\n        /* \"#utility.yul\":16580:16606   */\n      swap1\n      pop\n        /* \"#utility.yul\":16652:16661   */\n      dup2\n        /* \"#utility.yul\":16646:16650   */\n      dup2\n        /* \"#utility.yul\":16642:16662   */\n      sub\n        /* \"#utility.yul\":16638:16639   */\n      0x00\n        /* \"#utility.yul\":16627:16636   */\n      dup4\n        /* \"#utility.yul\":16623:16640   */\n      add\n        /* \"#utility.yul\":16616:16663   */\n      mstore\n        /* \"#utility.yul\":16680:16811   */\n      tag_389\n        /* \"#utility.yul\":16806:16810   */\n      dup2\n        /* \"#utility.yul\":16680:16811   */\n      tag_345\n      jump\t// in\n    tag_389:\n        /* \"#utility.yul\":16672:16811   */\n      swap1\n      pop\n        /* \"#utility.yul\":16570:16818   */\n      swap2\n      swap1\n      pop\n      jump\t// out\n        /* \"#utility.yul\":16824:17046   */\n    tag_23:\n      0x00\n        /* \"#utility.yul\":16955:16957   */\n      0x20\n        /* \"#utility.yul\":16944:16953   */\n      dup3\n        /* \"#utility.yul\":16940:16958   */\n      add\n        /* \"#utility.yul\":16932:16958   */\n      swap1\n      pop\n        /* \"#utility.yul\":16968:17039   */\n      tag_391\n        /* \"#utility.yul\":17036:17037   */\n      0x00\n        /* \"#utility.yul\":17025:17034   */\n      dup4\n        /* \"#utility.yul\":17021:17038   */\n      add\n        /* \"#utility.yul\":17012:17018   */\n      dup5\n        /* \"#utility.yul\":16968:17039   */\n      tag_353\n      jump\t// in\n    tag_391:\n        /* \"#utility.yul\":16922:17046   */\n      swap3\n      swap2\n      pop\n      pop\n      jump\t// out\n        /* \"#utility.yul\":17052:17181   */\n    tag_198:\n      0x00\n        /* \"#utility.yul\":17113:17133   */\n      tag_393\n      tag_394\n      jump\t// in\n    tag_393:\n        /* \"#utility.yul\":17103:17133   */\n      swap1\n      pop\n        /* \"#utility.yul\":17142:17175   */\n      tag_395\n        /* \"#utility.yul\":17170:17174   */\n      dup3\n        /* \"#utility.yul\":17162:17168   */\n      dup3\n        /* \"#utility.yul\":17142:17175   */\n      tag_396\n      jump\t// in\n    tag_395:\n        /* \"#utility.yul\":17093:17181   */\n      swap2\n      swap1\n      pop\n      jump\t// out\n        /* \"#utility.yul\":17187:17262   */\n    tag_394:\n      0x00\n        /* \"#utility.yul\":17253:17255   */\n      0x40\n        /* \"#utility.yul\":17247:17256   */\n      mload\n        /* \"#utility.yul\":17237:17256   */\n      swap1\n      pop\n        /* \"#utility.yul\":17227:17262   */\n      swap1\n      jump\t// out\n        /* \"#utility.yul\":17268:17576   */\n    tag_197:\n      0x00\n        /* \"#utility.yul\":17420:17438   */\n      0xffffffffffffffff\n        /* \"#utility.yul\":17412:17418   */\n      dup3\n        /* \"#utility.yul\":17409:17439   */\n      gt\n        /* \"#utility.yul\":17406:17408   */\n      iszero\n      tag_399\n      jumpi\n        /* \"#utility.yul\":17442:17460   */\n      tag_400\n      tag_401\n      jump\t// in\n    tag_400:\n        /* \"#utility.yul\":17406:17408   */\n    tag_399:\n        /* \"#utility.yul\":17480:17509   */\n      tag_402\n        /* \"#utility.yul\":17502:17508   */\n      dup3\n        /* \"#utility.yul\":17480:17509   */\n      tag_287\n      jump\t// in\n    tag_402:\n        /* \"#utility.yul\":17472:17509   */\n      swap1\n      pop\n        /* \"#utility.yul\":17564:17568   */\n      0x20\n        /* \"#utility.yul\":17558:17562   */\n      dup2\n        /* \"#utility.yul\":17554:17569   */\n      add\n        /* \"#utility.yul\":17546:17569   */\n      swap1\n      pop\n        /* \"#utility.yul\":17335:17576   */\n      swap2\n      swap1\n      pop\n      jump\t// out\n        /* \"#utility.yul\":17582:17724   */\n    tag_241:\n      0x00\n        /* \"#utility.yul\":17682:17685   */\n      dup2\n        /* \"#utility.yul\":17674:17685   */\n      swap1\n      pop\n        /* \"#utility.yul\":17712:17716   */\n      0x20\n        /* \"#utility.yul\":17707:17710   */\n      dup3\n        /* \"#utility.yul\":17703:17717   */\n      add\n        /* \"#utility.yul\":17695:17717   */\n      swap1\n      pop\n        /* \"#utility.yul\":17664:17724   */\n      swap2\n      swap1\n      pop\n      jump\t// out\n        /* \"#utility.yul\":17730:17862   */\n    tag_255:\n      0x00\n        /* \"#utility.yul\":17820:17823   */\n      dup2\n        /* \"#utility.yul\":17812:17823   */\n      swap1\n      pop\n        /* \"#utility.yul\":17850:17854   */\n      0x20\n        /* \"#utility.yul\":17845:17848   */\n      dup3\n        /* \"#utility.yul\":17841:17855   */\n      add\n        /* \"#utility.yul\":17833:17855   */\n      swap1\n      pop\n        /* \"#utility.yul\":17802:17862   */\n      swap2\n      swap1\n      pop\n      jump\t// out\n        /* \"#utility.yul\":17868:18012   */\n    tag_275:\n      0x00\n        /* \"#utility.yul\":17943:17946   */\n      dup2\n        /* \"#utility.yul\":17935:17946   */\n      swap1\n      pop\n        /* \"#utility.yul\":17966:17969   */\n      dup2\n        /* \"#utility.yul\":17963:17964   */\n      0x00\n        /* \"#utility.yul\":17956:17970   */\n      mstore\n        /* \"#utility.yul\":18000:18004   */\n      0x20\n        /* \"#utility.yul\":17997:17998   */\n      0x00\n        /* \"#utility.yul\":17987:18005   */\n      keccak256\n        /* \"#utility.yul\":17979:18005   */\n      swap1\n      pop\n        /* \"#utility.yul\":17925:18012   */\n      swap2\n      swap1\n      pop\n      jump\t// out\n        /* \"#utility.yul\":18018:18142   */\n    tag_237:\n      0x00\n        /* \"#utility.yul\":18129:18134   */\n      dup2\n        /* \"#utility.yul\":18123:18135   */\n      mload\n        /* \"#utility.yul\":18113:18135   */\n      swap1\n      pop\n        /* \"#utility.yul\":18102:18142   */\n      swap2\n      swap1\n      pop\n      jump\t// out\n        /* \"#utility.yul\":18148:18262   */\n    tag_251:\n      0x00\n        /* \"#utility.yul\":18249:18254   */\n      dup2\n        /* \"#utility.yul\":18243:18255   */\n      mload\n        /* \"#utility.yul\":18233:18255   */\n      swap1\n      pop\n        /* \"#utility.yul\":18222:18262   */\n      swap2\n      swap1\n      pop\n      jump\t// out\n        /* \"#utility.yul\":18268:18367   */\n    tag_281:\n      0x00\n        /* \"#utility.yul\":18354:18359   */\n      dup2\n        /* \"#utility.yul\":18348:18360   */\n      mload\n        /* \"#utility.yul\":18338:18360   */\n      swap1\n      pop\n        /* \"#utility.yul\":18327:18367   */\n      swap2\n      swap1\n      pop\n      jump\t// out\n        /* \"#utility.yul\":18373:18496   */\n    tag_247:\n      0x00\n        /* \"#utility.yul\":18485:18489   */\n      0x20\n        /* \"#utility.yul\":18480:18483   */\n      dup3\n        /* \"#utility.yul\":18476:18490   */\n      add\n        /* \"#utility.yul\":18468:18490   */\n      swap1\n      pop\n        /* \"#utility.yul\":18458:18496   */\n      swap2\n      swap1\n      pop\n      jump\t// out\n        /* \"#utility.yul\":18502:18615   */\n    tag_261:\n      0x00\n        /* \"#utility.yul\":18604:18608   */\n      0x20\n        /* \"#utility.yul\":18599:18602   */\n      dup3\n        /* \"#utility.yul\":18595:18609   */\n      add\n        /* \"#utility.yul\":18587:18609   */\n      swap1\n      pop\n        /* \"#utility.yul\":18577:18615   */\n      swap2\n      swap1\n      pop\n      jump\t// out\n        /* \"#utility.yul\":18621:18815   */\n    tag_239:\n      0x00\n        /* \"#utility.yul\":18764:18770   */\n      dup3\n        /* \"#utility.yul\":18759:18762   */\n      dup3\n        /* \"#utility.yul\":18752:18771   */\n      mstore\n        /* \"#utility.yul\":18804:18808   */\n      0x20\n        /* \"#utility.yul\":18799:18802   */\n      dup3\n        /* \"#utility.yul\":18795:18809   */\n      add\n        /* \"#utility.yul\":18780:18809   */\n      swap1\n      pop\n        /* \"#utility.yul\":18742:18815   */\n      swap3\n      swap2\n      pop\n      pop\n      jump\t// out\n        /* \"#utility.yul\":18821:19005   */\n    tag_253:\n      0x00\n        /* \"#utility.yul\":18954:18960   */\n      dup3\n        /* \"#utility.yul\":18949:18952   */\n      dup3\n        /* \"#utility.yul\":18942:18961   */\n      mstore\n        /* \"#utility.yul\":18994:18998   */\n      0x20\n        /* \"#utility.yul\":18989:18992   */\n      dup3\n        /* \"#utility.yul\":18985:18999   */\n      add\n        /* \"#utility.yul\":18970:18999   */\n      swap1\n      pop\n        /* \"#utility.yul\":18932:19005   */\n      swap3\n      swap2\n      pop\n      pop\n      jump\t// out\n        /* \"#utility.yul\":19011:19158   */\n    tag_270:\n      0x00\n        /* \"#utility.yul\":19149:19152   */\n      dup2\n        /* \"#utility.yul\":19134:19152   */\n      swap1\n      pop\n        /* \"#utility.yul\":19124:19158   */\n      swap3\n      swap2\n      pop\n      pop\n      jump\t// out\n        /* \"#utility.yul\":19164:19323   */\n    tag_283:\n      0x00\n        /* \"#utility.yul\":19272:19278   */\n      dup3\n        /* \"#utility.yul\":19267:19270   */\n      dup3\n        /* \"#utility.yul\":19260:19279   */\n      mstore\n        /* \"#utility.yul\":19312:19316   */\n      0x20\n        /* \"#utility.yul\":19307:19310   */\n      dup3\n        /* \"#utility.yul\":19303:19317   */\n      add\n        /* \"#utility.yul\":19288:19317   */\n      swap1\n      pop\n        /* \"#utility.yul\":19250:19323   */\n      swap3\n      swap2\n      pop\n      pop\n      jump\t// out\n        /* \"#utility.yul\":19329:19498   */\n    tag_292:\n      0x00\n        /* \"#utility.yul\":19447:19453   */\n      dup3\n        /* \"#utility.yul\":19442:19445   */\n      dup3\n        /* \"#utility.yul\":19435:19454   */\n      mstore\n        /* \"#utility.yul\":19487:19491   */\n      0x20\n        /* \"#utility.yul\":19482:19485   */\n      dup3\n        /* \"#utility.yul\":19478:19492   */\n      add\n        /* \"#utility.yul\":19463:19492   */\n      swap1\n      pop\n        /* \"#utility.yul\":19425:19498   */\n      swap3\n      swap2\n      pop\n      pop\n      jump\t// out\n        /* \"#utility.yul\":19504:19809   */\n    tag_153:\n      0x00\n        /* \"#utility.yul\":19563:19583   */\n      tag_417\n        /* \"#utility.yul\":19581:19582   */\n      dup3\n        /* \"#utility.yul\":19563:19583   */\n      tag_352\n      jump\t// in\n    tag_417:\n        /* \"#utility.yul\":19558:19583   */\n      swap2\n      pop\n        /* \"#utility.yul\":19597:19617   */\n      tag_418\n        /* \"#utility.yul\":19615:19616   */\n      dup4\n        /* \"#utility.yul\":19597:19617   */\n      tag_352\n      jump\t// in\n    tag_418:\n        /* \"#utility.yul\":19592:19617   */\n      swap3\n      pop\n        /* \"#utility.yul\":19751:19752   */\n      dup3\n        /* \"#utility.yul\":19683:19749   */\n      0xffffffffffffffffffffffffffffffffffffffffffffffffffffffffffffffff\n        /* \"#utility.yul\":19679:19753   */\n      sub\n        /* \"#utility.yul\":19676:19677   */\n      dup3\n        /* \"#utility.yul\":19673:19754   */\n      gt\n        /* \"#utility.yul\":19670:19672   */\n      iszero\n      tag_419\n      jumpi\n        /* \"#utility.yul\":19757:19775   */\n      tag_420\n      tag_421\n      jump\t// in\n    tag_420:\n        /* \"#utility.yul\":19670:19672   */\n    tag_419:\n        /* \"#utility.yul\":19801:19802   */\n      dup3\n        /* \"#utility.yul\":19798:19799   */\n      dup3\n        /* \"#utility.yul\":19794:19803   */\n      add\n        /* \"#utility.yul\":19787:19803   */\n      swap1\n      pop\n        /* \"#utility.yul\":19548:19809   */\n      swap3\n      swap2\n      pop\n      pop\n      jump\t// out\n        /* \"#utility.yul\":19815:19911   */\n    tag_233:\n      0x00\n        /* \"#utility.yul\":19881:19905   */\n      tag_423\n        /* \"#utility.yul\":19899:19904   */\n      dup3\n        /* \"#utility.yul\":19881:19905   */\n      tag_424\n      jump\t// in\n    tag_423:\n        /* \"#utility.yul\":19870:19905   */\n      swap1\n      pop\n        /* \"#utility.yul\":19860:19911   */\n      swap2\n      swap1\n      pop\n      jump\t// out\n        /* \"#utility.yul\":19917:20007   */\n    tag_265:\n      0x00\n        /* \"#utility.yul\":19994:19999   */\n      dup2\n        /* \"#utility.yul\":19987:20000   */\n      iszero\n        /* \"#utility.yul\":19980:20001   */\n      iszero\n        /* \"#utility.yul\":19969:20001   */\n      swap1\n      pop\n        /* \"#utility.yul\":19959:20007   */\n      swap2\n      swap1\n      pop\n      jump\t// out\n        /* \"#utility.yul\":20013:20139   */\n    tag_424:\n      0x00\n        /* \"#utility.yul\":20090:20132   */\n      0xffffffffffffffffffffffffffffffffffffffff\n        /* \"#utility.yul\":20083:20088   */\n      dup3\n        /* \"#utility.yul\":20079:20133   */\n      and\n        /* \"#utility.yul\":20068:20133   */\n      swap1\n      pop\n        /* \"#utility.yul\":20058:20139   */\n      swap2\n      swap1\n      pop\n      jump\t// out\n        /* \"#utility.yul\":20145:20222   */\n    tag_352:\n      0x00\n        /* \"#utility.yul\":20211:20216   */\n      dup2\n        /* \"#utility.yul\":20200:20216   */\n      swap1\n      pop\n        /* \"#utility.yul\":20190:20222   */\n      swap2\n      swap1\n      pop\n      jump\t// out\n        /* \"#utility.yul\":20228:20382   */\n    tag_201:\n        /* \"#utility.yul\":20312:20318   */\n      dup3\n        /* \"#utility.yul\":20307:20310   */\n      dup2\n        /* \"#utility.yul\":20302:20305   */\n      dup4\n        /* \"#utility.yul\":20289:20319   */\n      calldatacopy\n        /* \"#utility.yul\":20374:20375   */\n      0x00\n        /* \"#utility.yul\":20365:20371   */\n      dup4\n        /* \"#utility.yul\":20360:20363   */\n      dup4\n        /* \"#utility.yul\":20356:20372   */\n      add\n        /* \"#utility.yul\":20349:20376   */\n      mstore\n        /* \"#utility.yul\":20279:20382   */\n      pop\n      pop\n      pop\n      jump\t// out\n        /* \"#utility.yul\":20388:20695   */\n    tag_285:\n        /* \"#utility.yul\":20456:20457   */\n      0x00\n        /* \"#utility.yul\":20466:20579   */\n    tag_430:\n        /* \"#utility.yul\":20480:20486   */\n      dup4\n        /* \"#utility.yul\":20477:20478   */\n      dup2\n        /* \"#utility.yul\":20474:20487   */\n      lt\n        /* \"#utility.yul\":20466:20579   */\n      iszero\n      tag_432\n      jumpi\n        /* \"#utility.yul\":20565:20566   */\n      dup1\n        /* \"#utility.yul\":20560:20563   */\n      dup3\n        /* \"#utility.yul\":20556:20567   */\n      add\n        /* \"#utility.yul\":20550:20568   */\n      mload\n        /* \"#utility.yul\":20546:20547   */\n      dup2\n        /* \"#utility.yul\":20541:20544   */\n      dup5\n        /* \"#utility.yul\":20537:20548   */\n      add\n        /* \"#utility.yul\":20530:20569   */\n      mstore\n        /* \"#utility.yul\":20502:20504   */\n      0x20\n        /* \"#utility.yul\":20499:20500   */\n      dup2\n        /* \"#utility.yul\":20495:20505   */\n      add\n        /* \"#utility.yul\":20490:20505   */\n      swap1\n      pop\n        /* \"#utility.yul\":20466:20579   */\n      jump(tag_430)\n    tag_432:\n        /* \"#utility.yul\":20597:20603   */\n      dup4\n        /* \"#utility.yul\":20594:20595   */\n      dup2\n        /* \"#utility.yul\":20591:20604   */\n      gt\n        /* \"#utility.yul\":20588:20590   */\n      iszero\n      tag_433\n      jumpi\n        /* \"#utility.yul\":20677:20678   */\n      0x00\n        /* \"#utility.yul\":20668:20674   */\n      dup5\n        /* \"#utility.yul\":20663:20666   */\n      dup5\n        /* \"#utility.yul\":20659:20675   */\n      add\n        /* \"#utility.yul\":20652:20679   */\n      mstore\n        /* \"#utility.yul\":20588:20590   */\n    tag_433:\n        /* \"#utility.yul\":20437:20695   */\n      pop\n      pop\n      pop\n      pop\n      jump\t// out\n        /* \"#utility.yul\":20701:21021   */\n    tag_76:\n      0x00\n        /* \"#utility.yul\":20782:20783   */\n      0x02\n        /* \"#utility.yul\":20776:20780   */\n      dup3\n        /* \"#utility.yul\":20772:20784   */\n      div\n        /* \"#utility.yul\":20762:20784   */\n      swap1\n      pop\n        /* \"#utility.yul\":20829:20830   */\n      0x01\n        /* \"#utility.yul\":20823:20827   */\n      dup3\n        /* \"#utility.yul\":20819:20831   */\n      and\n        /* \"#utility.yul\":20850:20868   */\n      dup1\n        /* \"#utility.yul\":20840:20842   */\n      tag_435\n      jumpi\n        /* \"#utility.yul\":20906:20910   */\n      0x7f\n        /* \"#utility.yul\":20898:20904   */\n      dup3\n        /* \"#utility.yul\":20894:20911   */\n      and\n        /* \"#utility.yul\":20884:20911   */\n      swap2\n      pop\n        /* \"#utility.yul\":20840:20842   */\n    tag_435:\n        /* \"#utility.yul\":20968:20970   */\n      0x20\n        /* \"#utility.yul\":20960:20966   */\n      dup3\n        /* \"#utility.yul\":20957:20971   */\n      lt\n        /* \"#utility.yul\":20937:20955   */\n      dup2\n        /* \"#utility.yul\":20934:20972   */\n      eq\n        /* \"#utility.yul\":20931:20933   */\n      iszero\n      tag_436\n      jumpi\n        /* \"#utility.yul\":20987:21005   */\n      tag_437\n      tag_438\n      jump\t// in\n    tag_437:\n        /* \"#utility.yul\":20931:20933   */\n    tag_436:\n        /* \"#utility.yul\":20752:21021   */\n      pop\n      swap2\n      swap1\n      pop\n      jump\t// out\n        /* \"#utility.yul\":21027:21308   */\n    tag_396:\n        /* \"#utility.yul\":21110:21137   */\n      tag_440\n        /* \"#utility.yul\":21132:21136   */\n      dup3\n        /* \"#utility.yul\":21110:21137   */\n      tag_287\n      jump\t// in\n    tag_440:\n        /* \"#utility.yul\":21102:21108   */\n      dup2\n        /* \"#utility.yul\":21098:21138   */\n      add\n        /* \"#utility.yul\":21240:21246   */\n      dup2\n        /* \"#utility.yul\":21228:21238   */\n      dup2\n        /* \"#utility.yul\":21225:21247   */\n      lt\n        /* \"#utility.yul\":21204:21222   */\n      0xffffffffffffffff\n        /* \"#utility.yul\":21192:21202   */\n      dup3\n        /* \"#utility.yul\":21189:21223   */\n      gt\n        /* \"#utility.yul\":21186:21248   */\n      or\n        /* \"#utility.yul\":21183:21185   */\n      iszero\n      tag_441\n      jumpi\n        /* \"#utility.yul\":21251:21269   */\n      tag_442\n      tag_401\n      jump\t// in\n    tag_442:\n        /* \"#utility.yul\":21183:21185   */\n    tag_441:\n        /* \"#utility.yul\":21291:21301   */\n      dup1\n        /* \"#utility.yul\":21287:21289   */\n      0x40\n        /* \"#utility.yul\":21280:21302   */\n      mstore\n        /* \"#utility.yul\":21070:21308   */\n      pop\n      pop\n      pop\n      jump\t// out\n        /* \"#utility.yul\":21314:21547   */\n    tag_73:\n      0x00\n        /* \"#utility.yul\":21376:21400   */\n      tag_444\n        /* \"#utility.yul\":21394:21399   */\n      dup3\n        /* \"#utility.yul\":21376:21400   */\n      tag_352\n      jump\t// in\n    tag_444:\n        /* \"#utility.yul\":21367:21400   */\n      swap2\n      pop\n        /* \"#utility.yul\":21422:21488   */\n      0xffffffffffffffffffffffffffffffffffffffffffffffffffffffffffffffff\n        /* \"#utility.yul\":21415:21420   */\n      dup3\n        /* \"#utility.yul\":21412:21489   */\n      eq\n        /* \"#utility.yul\":21409:21411   */\n      iszero\n      tag_445\n      jumpi\n        /* \"#utility.yul\":21492:21510   */\n      tag_446\n      tag_421\n      jump\t// in\n    tag_446:\n        /* \"#utility.yul\":21409:21411   */\n    tag_445:\n        /* \"#utility.yul\":21539:21540   */\n      0x01\n        /* \"#utility.yul\":21532:21537   */\n      dup3\n        /* \"#utility.yul\":21528:21541   */\n      add\n        /* \"#utility.yul\":21521:21541   */\n      swap1\n      pop\n        /* \"#utility.yul\":21357:21547   */\n      swap2\n      swap1\n      pop\n      jump\t// out\n        /* \"#utility.yul\":21553:21733   */\n    tag_421:\n        /* \"#utility.yul\":21601:21678   */\n      0x4e487b7100000000000000000000000000000000000000000000000000000000\n        /* \"#utility.yul\":21598:21599   */\n      0x00\n        /* \"#utility.yul\":21591:21679   */\n      mstore\n        /* \"#utility.yul\":21698:21702   */\n      0x11\n        /* \"#utility.yul\":21695:21696   */\n      0x04\n        /* \"#utility.yul\":21688:21703   */\n      mstore\n        /* \"#utility.yul\":21722:21726   */\n      0x24\n        /* \"#utility.yul\":21719:21720   */\n      0x00\n        /* \"#utility.yul\":21712:21727   */\n      revert\n        /* \"#utility.yul\":21739:21919   */\n    tag_438:\n        /* \"#utility.yul\":21787:21864   */\n      0x4e487b7100000000000000000000000000000000000000000000000000000000\n        /* \"#utility.yul\":21784:21785   */\n      0x00\n        /* \"#utility.yul\":21777:21865   */\n      mstore\n        /* \"#utility.yul\":21884:21888   */\n      0x22\n        /* \"#utility.yul\":21881:21882   */\n      0x04\n        /* \"#utility.yul\":21874:21889   */\n      mstore\n        /* \"#utility.yul\":21908:21912   */\n      0x24\n        /* \"#utility.yul\":21905:21906   */\n      0x00\n        /* \"#utility.yul\":21898:21913   */\n      revert\n        /* \"#utility.yul\":21925:22105   */\n    tag_401:\n        /* \"#utility.yul\":21973:22050   */\n      0x4e487b7100000000000000000000000000000000000000000000000000000000\n        /* \"#utility.yul\":21970:21971   */\n      0x00\n        /* \"#utility.yul\":21963:22051   */\n      mstore\n        /* \"#utility.yul\":22070:22074   */\n      0x41\n        /* \"#utility.yul\":22067:22068   */\n      0x04\n        /* \"#utility.yul\":22060:22075   */\n      mstore\n        /* \"#utility.yul\":22094:22098   */\n      0x24\n        /* \"#utility.yul\":22091:22092   */\n      0x00\n        /* \"#utility.yul\":22084:22099   */\n      revert\n        /* \"#utility.yul\":22111:22213   */\n    tag_287:\n      0x00\n        /* \"#utility.yul\":22203:22205   */\n      0x1f\n        /* \"#utility.yul\":22199:22206   */\n      not\n        /* \"#utility.yul\":22194:22196   */\n      0x1f\n        /* \"#utility.yul\":22187:22192   */\n      dup4\n        /* \"#utility.yul\":22183:22197   */\n      add\n        /* \"#utility.yul\":22179:22207   */\n      and\n        /* \"#utility.yul\":22169:22207   */\n      swap1\n      pop\n        /* \"#utility.yul\":22159:22213   */\n      swap2\n      swap1\n      pop\n      jump\t// out\n        /* \"#utility.yul\":22219:22451   */\n    tag_299:\n        /* \"#utility.yul\":22359:22393   */\n      0x75736572206167652062656c6f772031382063616e2774207265676973746572\n        /* \"#utility.yul\":22355:22356   */\n      0x00\n        /* \"#utility.yul\":22347:22353   */\n      dup3\n        /* \"#utility.yul\":22343:22357   */\n      add\n        /* \"#utility.yul\":22336:22394   */\n      mstore\n        /* \"#utility.yul\":22428:22443   */\n      0x20666f722074686520766f746500000000000000000000000000000000000000\n        /* \"#utility.yul\":22423:22425   */\n      0x20\n        /* \"#utility.yul\":22415:22421   */\n      dup3\n        /* \"#utility.yul\":22411:22426   */\n      add\n        /* \"#utility.yul\":22404:22444   */\n      mstore\n        /* \"#utility.yul\":22325:22451   */\n      pop\n      jump\t// out\n        /* \"#utility.yul\":22457:22627   */\n    tag_304:\n        /* \"#utility.yul\":22597:22619   */\n      0x4e6f206f6e652068617320766f74656420796574000000000000000000000000\n        /* \"#utility.yul\":22593:22594   */\n      0x00\n        /* \"#utility.yul\":22585:22591   */\n      dup3\n        /* \"#utility.yul\":22581:22595   */\n      add\n        /* \"#utility.yul\":22574:22620   */\n      mstore\n        /* \"#utility.yul\":22563:22627   */\n      pop\n      jump\t// out\n        /* \"#utility.yul\":22633:22804   */\n    tag_309:\n        /* \"#utility.yul\":22773:22796   */\n      0x4e6f2063616e6469646174657320746f20766965770000000000000000000000\n        /* \"#utility.yul\":22769:22770   */\n      0x00\n        /* \"#utility.yul\":22761:22767   */\n      dup3\n        /* \"#utility.yul\":22757:22771   */\n      add\n        /* \"#utility.yul\":22750:22797   */\n      mstore\n        /* \"#utility.yul\":22739:22804   */\n      pop\n      jump\t// out\n        /* \"#utility.yul\":22810:22981   */\n    tag_314:\n        /* \"#utility.yul\":22950:22973   */\n      0x75736572206861736e277420766f746564207965740000000000000000000000\n        /* \"#utility.yul\":22946:22947   */\n      0x00\n        /* \"#utility.yul\":22938:22944   */\n      dup3\n        /* \"#utility.yul\":22934:22948   */\n      add\n        /* \"#utility.yul\":22927:22974   */\n      mstore\n        /* \"#utility.yul\":22916:22981   */\n      pop\n      jump\t// out\n        /* \"#utility.yul\":22987:23213   */\n    tag_319:\n        /* \"#utility.yul\":23127:23161   */\n      0x7468657265206973206e6f20636f6e74657374616e7420776974682074686973\n        /* \"#utility.yul\":23123:23124   */\n      0x00\n        /* \"#utility.yul\":23115:23121   */\n      dup3\n        /* \"#utility.yul\":23111:23125   */\n      add\n        /* \"#utility.yul\":23104:23162   */\n      mstore\n        /* \"#utility.yul\":23196:23205   */\n      0x206e756d62657200000000000000000000000000000000000000000000000000\n        /* \"#utility.yul\":23191:23193   */\n      0x20\n        /* \"#utility.yul\":23183:23189   */\n      dup3\n        /* \"#utility.yul\":23179:23194   */\n      add\n        /* \"#utility.yul\":23172:23206   */\n      mstore\n        /* \"#utility.yul\":23093:23213   */\n      pop\n      jump\t// out\n        /* \"#utility.yul\":23219:23396   */\n    tag_324:\n        /* \"#utility.yul\":23359:23388   */\n      0x6e616d652068617320616c7265616479206265656e2061646465640000000000\n        /* \"#utility.yul\":23355:23356   */\n      0x00\n        /* \"#utility.yul\":23347:23353   */\n      dup3\n        /* \"#utility.yul\":23343:23357   */\n      add\n        /* \"#utility.yul\":23336:23389   */\n      mstore\n        /* \"#utility.yul\":23325:23396   */\n      pop\n      jump\t// out\n        /* \"#utility.yul\":23402:23574   */\n    tag_329:\n        /* \"#utility.yul\":23542:23566   */\n      0x74686520636f6e74726163742069732070617573656400000000000000000000\n        /* \"#utility.yul\":23538:23539   */\n      0x00\n        /* \"#utility.yul\":23530:23536   */\n      dup3\n        /* \"#utility.yul\":23526:23540   */\n      add\n        /* \"#utility.yul\":23519:23567   */\n      mstore\n        /* \"#utility.yul\":23508:23574   */\n      pop\n      jump\t// out\n        /* \"#utility.yul\":23580:23752   */\n    tag_334:\n        /* \"#utility.yul\":23720:23744   */\n      0x757365722068617320766f74656420616c726561647900000000000000000000\n        /* \"#utility.yul\":23716:23717   */\n      0x00\n        /* \"#utility.yul\":23708:23714   */\n      dup3\n        /* \"#utility.yul\":23704:23718   */\n      add\n        /* \"#utility.yul\":23697:23745   */\n      mstore\n        /* \"#utility.yul\":23686:23752   */\n      pop\n      jump\t// out\n        /* \"#utility.yul\":23758:23934   */\n    tag_339:\n        /* \"#utility.yul\":23898:23926   */\n      0x75736572206861736e2774207265676973746572656420796574000000000000\n        /* \"#utility.yul\":23894:23895   */\n      0x00\n        /* \"#utility.yul\":23886:23892   */\n      dup3\n        /* \"#utility.yul\":23882:23896   */\n      add\n        /* \"#utility.yul\":23875:23927   */\n      mstore\n        /* \"#utility.yul\":23864:23934   */\n      pop\n      jump\t// out\n        /* \"#utility.yul\":23940:24109   */\n    tag_344:\n        /* \"#utility.yul\":24080:24101   */\n      0x7573657220686173207265676973746572656400000000000000000000000000\n        /* \"#utility.yul\":24076:24077   */\n      0x00\n        /* \"#utility.yul\":24068:24074   */\n      dup3\n        /* \"#utility.yul\":24064:24078   */\n      add\n        /* \"#utility.yul\":24057:24102   */\n      mstore\n        /* \"#utility.yul\":24046:24109   */\n      pop\n      jump\t// out\n        /* \"#utility.yul\":24115:24335   */\n    tag_349:\n        /* \"#utility.yul\":24255:24289   */\n      0x4f6e6c79204f776e65722063616e2063616c6c20746869732066756e6374696f\n        /* \"#utility.yul\":24251:24252   */\n      0x00\n        /* \"#utility.yul\":24243:24249   */\n      dup3\n        /* \"#utility.yul\":24239:24253   */\n      add\n        /* \"#utility.yul\":24232:24290   */\n      mstore\n        /* \"#utility.yul\":24324:24327   */\n      0x6e00000000000000000000000000000000000000000000000000000000000000\n        /* \"#utility.yul\":24319:24321   */\n      0x20\n        /* \"#utility.yul\":24311:24317   */\n      dup3\n        /* \"#utility.yul\":24307:24322   */\n      add\n        /* \"#utility.yul\":24300:24328   */\n      mstore\n        /* \"#utility.yul\":24221:24335   */\n      pop\n      jump\t// out\n        /* \"#utility.yul\":24341:24463   */\n    tag_209:\n        /* \"#utility.yul\":24414:24438   */\n      tag_463\n        /* \"#utility.yul\":24432:24437   */\n      dup2\n        /* \"#utility.yul\":24414:24438   */\n      tag_352\n      jump\t// in\n    tag_463:\n        /* \"#utility.yul\":24407:24412   */\n      dup2\n        /* \"#utility.yul\":24404:24439   */\n      eq\n        /* \"#utility.yul\":24394:24396   */\n      tag_464\n      jumpi\n        /* \"#utility.yul\":24453:24454   */\n      0x00\n        /* \"#utility.yul\":24450:24451   */\n      dup1\n        /* \"#utility.yul\":24443:24455   */\n      revert\n        /* \"#utility.yul\":24394:24396   */\n    tag_464:\n        /* \"#utility.yul\":24384:24463   */\n      pop\n      jump\t// out\n\n    auxdata: 0xa2646970667358221220c25cb5dc7623b42478d503c1234363ed7d016aea0fcdd04cfec7181c12a90d3a64736f6c63430008030033\n}\n",
				"bytecode": {
					"linkReferences": {},
					"object": "608060405234801561001057600080fd5b50336000806101000a81548173ffffffffffffffffffffffffffffffffffffffff021916908373ffffffffffffffffffffffffffffffffffffffff1602179055506001600460006101000a81548160ff021916908315150217905550611f608061007b6000396000f3fe608060405234801561001057600080fd5b50600436106100b45760003560e01c80636c699905116100715780636c699905146101575780637aad8c8014610175578063832c0aca146101935780638456cb59146101af578063d30f11dd146101b9578063ea87152b146101d8576100b4565b80630121b93f146100b95780630d15fd77146100d5578063238488fd146100f35780633f4ba83a1461011157806357df6ca31461011b5780635b72565b14610139575b600080fd5b6100d360048036038101906100ce919061139a565b6101f4565b005b6100dd6104f1565b6040516100ea9190611984565b60405180910390f35b6100fb6104f7565b6040516101089190611802565b60405180910390f35b610119610652565b005b610123610740565b60405161013091906117e7565b60405180910390f35b610141610753565b60405161014e9190611984565b60405180910390f35b61015f610759565b60405161016c9190611802565b60405180910390f35b61017d61092d565b60405161018a9190611984565b60405180910390f35b6101ad60048036038101906101a89190611305565b610933565b005b6101b7610b42565b005b6101c1610c30565b6040516101cf9291906117b0565b60405180910390f35b6101f260048036038101906101ed9190611346565b610f47565b005b600460009054906101000a900460ff1615610244576040517f08c379a000000000000000000000000000000000000000000000000000000000815260040161023b906118e4565b60405180910390fd5b6000811415801561025757506001548111155b610296576040517f08c379a000000000000000000000000000000000000000000000000000000000815260040161028d906118a4565b60405180910390fd5b600960003373ffffffffffffffffffffffffffffffffffffffff1673ffffffffffffffffffffffffffffffffffffffff16815260200190815260200160002060009054906101000a900460ff16610322576040517f08c379a000000000000000000000000000000000000000000000000000000000815260040161031990611924565b60405180910390fd5b600860003373ffffffffffffffffffffffffffffffffffffffff1673ffffffffffffffffffffffffffffffffffffffff16815260200190815260200160002060009054906101000a900460ff16156103af576040517f08c379a00000000000000000000000000000000000000000000000000000000081526004016103a690611904565b60405180910390fd5b600560008154809291906103c290611bf7565b9190505550600a600082815260200190815260200160002060008154809291906103eb90611bf7565b919050555060076000828152602001908152602001600020600b60003373ffffffffffffffffffffffffffffffffffffffff1673ffffffffffffffffffffffffffffffffffffffff16815260200190815260200160002090805461044e90611b94565b610459929190611158565b506001600860003373ffffffffffffffffffffffffffffffffffffffff1673ffffffffffffffffffffffffffffffffffffffff16815260200190815260200160002060006101000a81548160ff021916908315150217905550807f1abe610cf2bf87e57dcc1181fcf5ac0934e843d8344ab9eed6e86c799f62585e336005546040516104e6929190611787565b60405180910390a250565b60055481565b6060600860003373ffffffffffffffffffffffffffffffffffffffff1673ffffffffffffffffffffffffffffffffffffffff16815260200190815260200160002060009054906101000a900460ff16610585576040517f08c379a000000000000000000000000000000000000000000000000000000000815260040161057c90611884565b60405180910390fd5b600b60003373ffffffffffffffffffffffffffffffffffffffff1673ffffffffffffffffffffffffffffffffffffffff16815260200190815260200160002080546105cf90611b94565b80601f01602080910402602001604051908101604052809291908181526020018280546105fb90611b94565b80156106485780601f1061061d57610100808354040283529160200191610648565b820191906000526020600020905b81548152906001019060200180831161062b57829003601f168201915b5050505050905090565b3373ffffffffffffffffffffffffffffffffffffffff1660008054906101000a900473ffffffffffffffffffffffffffffffffffffffff1673ffffffffffffffffffffffffffffffffffffffff16146106e0576040517f08c379a00000000000000000000000000000000000000000000000000000000081526004016106d790611964565b60405180910390fd5b6000600460006101000a81548160ff0219169083151502179055503373ffffffffffffffffffffffffffffffffffffffff167f5db9ee0a495bf2e6ff9c91a7834c1ba4fdd244a5e8aa4e537bd38aeae4b073aa60405160405180910390a2565b600460009054906101000a900460ff1681565b60025481565b60603373ffffffffffffffffffffffffffffffffffffffff1660008054906101000a900473ffffffffffffffffffffffffffffffffffffffff1673ffffffffffffffffffffffffffffffffffffffff16146107e9576040517f08c379a00000000000000000000000000000000000000000000000000000000081526004016107e090611964565b60405180910390fd5b60006005541161082e576040517f08c379a000000000000000000000000000000000000000000000000000000000815260040161082590611844565b60405180910390fd5b6000806000600190505b60015481116108895782600a600083815260200190815260200160002054111561087657600a60008281526020019081526020016000205492508091505b808061088190611bf7565b915050610838565b506007600082815260200190815260200160002080546108a890611b94565b80601f01602080910402602001604051908101604052809291908181526020018280546108d490611b94565b80156109215780601f106108f657610100808354040283529160200191610921565b820191906000526020600020905b81548152906001019060200180831161090457829003601f168201915b50505050509250505090565b60015481565b3373ffffffffffffffffffffffffffffffffffffffff1660008054906101000a900473ffffffffffffffffffffffffffffffffffffffff1673ffffffffffffffffffffffffffffffffffffffff16146109c1576040517f08c379a00000000000000000000000000000000000000000000000000000000081526004016109b890611964565b60405180910390fd5b60005b600380549050811015610a865760038181548110610a0b577f4e487b7100000000000000000000000000000000000000000000000000000000600052603260045260246000fd5b90600052602060002001604051610a229190611770565b604051809103902082805190602001201415610a73576040517f08c379a0000000000000000000000000000000000000000000000000000000008152600401610a6a906118c4565b60405180910390fd5b8080610a7e90611bf7565b9150506109c4565b5060016000815480929190610a9a90611bf7565b9190505550600381908060018154018082558091505060019003906000526020600020016000909190919091509080519060200190610ada9291906111e5565b50806007600060015481526020019081526020016000209080519060200190610b049291906111e5565b506001547f56f6c29d2eb99f40e2a206309dc37f2cff01a5755a4683e3c2b0ce22e5e3aa1782604051610b379190611802565b60405180910390a250565b3373ffffffffffffffffffffffffffffffffffffffff1660008054906101000a900473ffffffffffffffffffffffffffffffffffffffff1673ffffffffffffffffffffffffffffffffffffffff1614610bd0576040517f08c379a0000000000000000000000000000000000000000000000000000000008152600401610bc790611964565b60405180910390fd5b6001600460006101000a81548160ff0219169083151502179055503373ffffffffffffffffffffffffffffffffffffffff167f62e78cea01bee320cd4e420270b5ea74000d11b0c9f74754ebdbfc544b05a25860405160405180910390a2565b606080600460009054906101000a900460ff1615610c83576040517f08c379a0000000000000000000000000000000000000000000000000000000008152600401610c7a906118e4565b60405180910390fd5b600060015411610cc8576040517f08c379a0000000000000000000000000000000000000000000000000000000008152600401610cbf90611864565b60405180910390fd5b600060015467ffffffffffffffff811115610d0c577f4e487b7100000000000000000000000000000000000000000000000000000000600052604160045260246000fd5b604051908082528060200260200182016040528015610d3a5781602001602082028036833780820191505090505b509050600060015467ffffffffffffffff811115610d81577f4e487b7100000000000000000000000000000000000000000000000000000000600052604160045260246000fd5b604051908082528060200260200182016040528015610db457816020015b6060815260200190600190039081610d9f5790505b50905060005b600154811015610f3a57600181610dd19190611ab4565b838281518110610e0a577f4e487b7100000000000000000000000000000000000000000000000000000000600052603260045260246000fd5b60200260200101818152505060038181548110610e50577f4e487b7100000000000000000000000000000000000000000000000000000000600052603260045260246000fd5b906000526020600020018054610e6590611b94565b80601f0160208091040260200160405190810160405280929190818152602001828054610e9190611b94565b8015610ede5780601f10610eb357610100808354040283529160200191610ede565b820191906000526020600020905b815481529060010190602001808311610ec157829003601f168201915b5050505050828281518110610f1c577f4e487b7100000000000000000000000000000000000000000000000000000000600052603260045260246000fd5b60200260200101819052508080610f3290611bf7565b915050610dba565b5081819350935050509091565b600960003373ffffffffffffffffffffffffffffffffffffffff1673ffffffffffffffffffffffffffffffffffffffff16815260200190815260200160002060009054906101000a900460ff1615610fd4576040517f08c379a0000000000000000000000000000000000000000000000000000000008152600401610fcb90611944565b60405180910390fd5b6012811015611018576040517f08c379a000000000000000000000000000000000000000000000000000000000815260040161100f90611824565b60405180910390fd5b6002600081548092919061102b90611bf7565b919050555060066040518060600160405280600254815260200184815260200183815250908060018154018082558091505060019003906000526020600020906003020160009091909190915060008201518160000155602082015181600101908051906020019061109e9291906111e5565b506040820151816002015550506001600960003373ffffffffffffffffffffffffffffffffffffffff1673ffffffffffffffffffffffffffffffffffffffff16815260200190815260200160002060006101000a81548160ff0219169083151502179055503373ffffffffffffffffffffffffffffffffffffffff166002547fca52e62c367d81bb2e328eb795f7c7ba24afb478408a26c0e201d155c449bc4a8460405161114c9190611802565b60405180910390a35050565b82805461116490611b94565b90600052602060002090601f01602090048101928261118657600085556111d4565b82601f1061119757805485556111d4565b828001600101855582156111d457600052602060002091601f016020900482015b828111156111d35782548255916001019190600101906111b8565b5b5090506111e1919061126b565b5090565b8280546111f190611b94565b90600052602060002090601f016020900481019282611213576000855561125a565b82601f1061122c57805160ff191683800117855561125a565b8280016001018555821561125a579182015b8281111561125957825182559160200191906001019061123e565b5b509050611267919061126b565b5090565b5b8082111561128457600081600090555060010161126c565b5090565b600061129b611296846119c4565b61199f565b9050828152602081018484840111156112b357600080fd5b6112be848285611b52565b509392505050565b600082601f8301126112d757600080fd5b81356112e7848260208601611288565b91505092915050565b6000813590506112ff81611f13565b92915050565b60006020828403121561131757600080fd5b600082013567ffffffffffffffff81111561133157600080fd5b61133d848285016112c6565b91505092915050565b6000806040838503121561135957600080fd5b600083013567ffffffffffffffff81111561137357600080fd5b61137f858286016112c6565b9250506020611390858286016112f0565b9150509250929050565b6000602082840312156113ac57600080fd5b60006113ba848285016112f0565b91505092915050565b60006113cf838361155f565b905092915050565b60006113e38383611752565b60208301905092915050565b6113f881611b0a565b82525050565b600061140982611a2a565b6114138185611a65565b935083602082028501611425856119f5565b8060005b85811015611461578484038952815161144285826113c3565b945061144d83611a4b565b925060208a01995050600181019050611429565b50829750879550505050505092915050565b600061147e82611a35565b6114888185611a76565b935061149383611a05565b8060005b838110156114c45781516114ab88826113d7565b97506114b683611a58565b925050600181019050611497565b5085935050505092915050565b6114da81611b1c565b82525050565b600081546114ed81611b94565b6114f78186611a87565b94506001821660008114611512576001811461152357611556565b60ff19831686528186019350611556565b61152c85611a15565b60005b8381101561154e5781548189015260018201915060208101905061152f565b838801955050505b50505092915050565b600061156a82611a40565b6115748185611a92565b9350611584818560208601611b61565b61158d81611ccd565b840191505092915050565b60006115a382611a40565b6115ad8185611aa3565b93506115bd818560208601611b61565b6115c681611ccd565b840191505092915050565b60006115de602d83611aa3565b91506115e982611cde565b604082019050919050565b6000611601601483611aa3565b915061160c82611d2d565b602082019050919050565b6000611624601583611aa3565b915061162f82611d56565b602082019050919050565b6000611647601583611aa3565b915061165282611d7f565b602082019050919050565b600061166a602783611aa3565b915061167582611da8565b604082019050919050565b600061168d601b83611aa3565b915061169882611df7565b602082019050919050565b60006116b0601683611aa3565b91506116bb82611e20565b602082019050919050565b60006116d3601683611aa3565b91506116de82611e49565b602082019050919050565b60006116f6601a83611aa3565b915061170182611e72565b602082019050919050565b6000611719601383611aa3565b915061172482611e9b565b602082019050919050565b600061173c602183611aa3565b915061174782611ec4565b604082019050919050565b61175b81611b48565b82525050565b61176a81611b48565b82525050565b600061177c82846114e0565b915081905092915050565b600060408201905061179c60008301856113ef565b6117a96020830184611761565b9392505050565b600060408201905081810360008301526117ca8185611473565b905081810360208301526117de81846113fe565b90509392505050565b60006020820190506117fc60008301846114d1565b92915050565b6000602082019050818103600083015261181c8184611598565b905092915050565b6000602082019050818103600083015261183d816115d1565b9050919050565b6000602082019050818103600083015261185d816115f4565b9050919050565b6000602082019050818103600083015261187d81611617565b9050919050565b6000602082019050818103600083015261189d8161163a565b9050919050565b600060208201905081810360008301526118bd8161165d565b9050919050565b600060208201905081810360008301526118dd81611680565b9050919050565b600060208201905081810360008301526118fd816116a3565b9050919050565b6000602082019050818103600083015261191d816116c6565b9050919050565b6000602082019050818103600083015261193d816116e9565b9050919050565b6000602082019050818103600083015261195d8161170c565b9050919050565b6000602082019050818103600083015261197d8161172f565b9050919050565b60006020820190506119996000830184611761565b92915050565b60006119a96119ba565b90506119b58282611bc6565b919050565b6000604051905090565b600067ffffffffffffffff8211156119df576119de611c9e565b5b6119e882611ccd565b9050602081019050919050565b6000819050602082019050919050565b6000819050602082019050919050565b60008190508160005260206000209050919050565b600081519050919050565b600081519050919050565b600081519050919050565b6000602082019050919050565b6000602082019050919050565b600082825260208201905092915050565b600082825260208201905092915050565b600081905092915050565b600082825260208201905092915050565b600082825260208201905092915050565b6000611abf82611b48565b9150611aca83611b48565b9250827fffffffffffffffffffffffffffffffffffffffffffffffffffffffffffffffff03821115611aff57611afe611c40565b5b828201905092915050565b6000611b1582611b28565b9050919050565b60008115159050919050565b600073ffffffffffffffffffffffffffffffffffffffff82169050919050565b6000819050919050565b82818337600083830152505050565b60005b83811015611b7f578082015181840152602081019050611b64565b83811115611b8e576000848401525b50505050565b60006002820490506001821680611bac57607f821691505b60208210811415611bc057611bbf611c6f565b5b50919050565b611bcf82611ccd565b810181811067ffffffffffffffff82111715611bee57611bed611c9e565b5b80604052505050565b6000611c0282611b48565b91507fffffffffffffffffffffffffffffffffffffffffffffffffffffffffffffffff821415611c3557611c34611c40565b5b600182019050919050565b7f4e487b7100000000000000000000000000000000000000000000000000000000600052601160045260246000fd5b7f4e487b7100000000000000000000000000000000000000000000000000000000600052602260045260246000fd5b7f4e487b7100000000000000000000000000000000000000000000000000000000600052604160045260246000fd5b6000601f19601f8301169050919050565b7f75736572206167652062656c6f772031382063616e277420726567697374657260008201527f20666f722074686520766f746500000000000000000000000000000000000000602082015250565b7f4e6f206f6e652068617320766f74656420796574000000000000000000000000600082015250565b7f4e6f2063616e6469646174657320746f20766965770000000000000000000000600082015250565b7f75736572206861736e277420766f746564207965740000000000000000000000600082015250565b7f7468657265206973206e6f20636f6e74657374616e742077697468207468697360008201527f206e756d62657200000000000000000000000000000000000000000000000000602082015250565b7f6e616d652068617320616c7265616479206265656e2061646465640000000000600082015250565b7f74686520636f6e74726163742069732070617573656400000000000000000000600082015250565b7f757365722068617320766f74656420616c726561647900000000000000000000600082015250565b7f75736572206861736e2774207265676973746572656420796574000000000000600082015250565b7f7573657220686173207265676973746572656400000000000000000000000000600082015250565b7f4f6e6c79204f776e65722063616e2063616c6c20746869732066756e6374696f60008201527f6e00000000000000000000000000000000000000000000000000000000000000602082015250565b611f1c81611b48565b8114611f2757600080fd5b5056fea2646970667358221220c25cb5dc7623b42478d503c1234363ed7d016aea0fcdd04cfec7181c12a90d3a64736f6c63430008030033",
					"opcodes": "PUSH1 0x80 PUSH1 0x40 MSTORE CALLVALUE DUP1 ISZERO PUSH2 0x10 JUMPI PUSH1 0x0 DUP1 REVERT JUMPDEST POP CALLER PUSH1 0x0 DUP1 PUSH2 0x100 EXP DUP2 SLOAD DUP2 PUSH20 0xFFFFFFFFFFFFFFFFFFFFFFFFFFFFFFFFFFFFFFFF MUL NOT AND SWAP1 DUP4 PUSH20 0xFFFFFFFFFFFFFFFFFFFFFFFFFFFFFFFFFFFFFFFF AND MUL OR SWAP1 SSTORE POP PUSH1 0x1 PUSH1 0x4 PUSH1 0x0 PUSH2 0x100 EXP DUP2 SLOAD DUP2 PUSH1 0xFF MUL NOT AND SWAP1 DUP4 ISZERO ISZERO MUL OR SWAP1 SSTORE POP PUSH2 0x1F60 DUP1 PUSH2 0x7B PUSH1 0x0 CODECOPY PUSH1 0x0 RETURN INVALID PUSH1 0x80 PUSH1 0x40 MSTORE CALLVALUE DUP1 ISZERO PUSH2 0x10 JUMPI PUSH1 0x0 DUP1 REVERT JUMPDEST POP PUSH1 0x4 CALLDATASIZE LT PUSH2 0xB4 JUMPI PUSH1 0x0 CALLDATALOAD PUSH1 0xE0 SHR DUP1 PUSH4 0x6C699905 GT PUSH2 0x71 JUMPI DUP1 PUSH4 0x6C699905 EQ PUSH2 0x157 JUMPI DUP1 PUSH4 0x7AAD8C80 EQ PUSH2 0x175 JUMPI DUP1 PUSH4 0x832C0ACA EQ PUSH2 0x193 JUMPI DUP1 PUSH4 0x8456CB59 EQ PUSH2 0x1AF JUMPI DUP1 PUSH4 0xD30F11DD EQ PUSH2 0x1B9 JUMPI DUP1 PUSH4 0xEA87152B EQ PUSH2 0x1D8 JUMPI PUSH2 0xB4 JUMP JUMPDEST DUP1 PUSH4 0x121B93F EQ PUSH2 0xB9 JUMPI DUP1 PUSH4 0xD15FD77 EQ PUSH2 0xD5 JUMPI DUP1 PUSH4 0x238488FD EQ PUSH2 0xF3 JUMPI DUP1 PUSH4 0x3F4BA83A EQ PUSH2 0x111 JUMPI DUP1 PUSH4 0x57DF6CA3 EQ PUSH2 0x11B JUMPI DUP1 PUSH4 0x5B72565B EQ PUSH2 0x139 JUMPI JUMPDEST PUSH1 0x0 DUP1 REVERT JUMPDEST PUSH2 0xD3 PUSH1 0x4 DUP1 CALLDATASIZE SUB DUP2 ADD SWAP1 PUSH2 0xCE SWAP2 SWAP1 PUSH2 0x139A JUMP JUMPDEST PUSH2 0x1F4 JUMP JUMPDEST STOP JUMPDEST PUSH2 0xDD PUSH2 0x4F1 JUMP JUMPDEST PUSH1 0x40 MLOAD PUSH2 0xEA SWAP2 SWAP1 PUSH2 0x1984 JUMP JUMPDEST PUSH1 0x40 MLOAD DUP1 SWAP2 SUB SWAP1 RETURN JUMPDEST PUSH2 0xFB PUSH2 0x4F7 JUMP JUMPDEST PUSH1 0x40 MLOAD PUSH2 0x108 SWAP2 SWAP1 PUSH2 0x1802 JUMP JUMPDEST PUSH1 0x40 MLOAD DUP1 SWAP2 SUB SWAP1 RETURN JUMPDEST PUSH2 0x119 PUSH2 0x652 JUMP JUMPDEST STOP JUMPDEST PUSH2 0x123 PUSH2 0x740 JUMP JUMPDEST PUSH1 0x40 MLOAD PUSH2 0x130 SWAP2 SWAP1 PUSH2 0x17E7 JUMP JUMPDEST PUSH1 0x40 MLOAD DUP1 SWAP2 SUB SWAP1 RETURN JUMPDEST PUSH2 0x141 PUSH2 0x753 JUMP JUMPDEST PUSH1 0x40 MLOAD PUSH2 0x14E SWAP2 SWAP1 PUSH2 0x1984 JUMP JUMPDEST PUSH1 0x40 MLOAD DUP1 SWAP2 SUB SWAP1 RETURN JUMPDEST PUSH2 0x15F PUSH2 0x759 JUMP JUMPDEST PUSH1 0x40 MLOAD PUSH2 0x16C SWAP2 SWAP1 PUSH2 0x1802 JUMP JUMPDEST PUSH1 0x40 MLOAD DUP1 SWAP2 SUB SWAP1 RETURN JUMPDEST PUSH2 0x17D PUSH2 0x92D JUMP JUMPDEST PUSH1 0x40 MLOAD PUSH2 0x18A SWAP2 SWAP1 PUSH2 0x1984 JUMP JUMPDEST PUSH1 0x40 MLOAD DUP1 SWAP2 SUB SWAP1 RETURN JUMPDEST PUSH2 0x1AD PUSH1 0x4 DUP1 CALLDATASIZE SUB DUP2 ADD SWAP1 PUSH2 0x1A8 SWAP2 SWAP1 PUSH2 0x1305 JUMP JUMPDEST PUSH2 0x933 JUMP JUMPDEST STOP JUMPDEST PUSH2 0x1B7 PUSH2 0xB42 JUMP JUMPDEST STOP JUMPDEST PUSH2 0x1C1 PUSH2 0xC30 JUMP JUMPDEST PUSH1 0x40 MLOAD PUSH2 0x1CF SWAP3 SWAP2 SWAP1 PUSH2 0x17B0 JUMP JUMPDEST PUSH1 0x40 MLOAD DUP1 SWAP2 SUB SWAP1 RETURN JUMPDEST PUSH2 0x1F2 PUSH1 0x4 DUP1 CALLDATASIZE SUB DUP2 ADD SWAP1 PUSH2 0x1ED SWAP2 SWAP1 PUSH2 0x1346 JUMP JUMPDEST PUSH2 0xF47 JUMP JUMPDEST STOP JUMPDEST PUSH1 0x4 PUSH1 0x0 SWAP1 SLOAD SWAP1 PUSH2 0x100 EXP SWAP1 DIV PUSH1 0xFF AND ISZERO PUSH2 0x244 JUMPI PUSH1 0x40 MLOAD PUSH32 0x8C379A000000000000000000000000000000000000000000000000000000000 DUP2 MSTORE PUSH1 0x4 ADD PUSH2 0x23B SWAP1 PUSH2 0x18E4 JUMP JUMPDEST PUSH1 0x40 MLOAD DUP1 SWAP2 SUB SWAP1 REVERT JUMPDEST PUSH1 0x0 DUP2 EQ ISZERO DUP1 ISZERO PUSH2 0x257 JUMPI POP PUSH1 0x1 SLOAD DUP2 GT ISZERO JUMPDEST PUSH2 0x296 JUMPI PUSH1 0x40 MLOAD PUSH32 0x8C379A000000000000000000000000000000000000000000000000000000000 DUP2 MSTORE PUSH1 0x4 ADD PUSH2 0x28D SWAP1 PUSH2 0x18A4 JUMP JUMPDEST PUSH1 0x40 MLOAD DUP1 SWAP2 SUB SWAP1 REVERT JUMPDEST PUSH1 0x9 PUSH1 0x0 CALLER PUSH20 0xFFFFFFFFFFFFFFFFFFFFFFFFFFFFFFFFFFFFFFFF AND PUSH20 0xFFFFFFFFFFFFFFFFFFFFFFFFFFFFFFFFFFFFFFFF AND DUP2 MSTORE PUSH1 0x20 ADD SWAP1 DUP2 MSTORE PUSH1 0x20 ADD PUSH1 0x0 KECCAK256 PUSH1 0x0 SWAP1 SLOAD SWAP1 PUSH2 0x100 EXP SWAP1 DIV PUSH1 0xFF AND PUSH2 0x322 JUMPI PUSH1 0x40 MLOAD PUSH32 0x8C379A000000000000000000000000000000000000000000000000000000000 DUP2 MSTORE PUSH1 0x4 ADD PUSH2 0x319 SWAP1 PUSH2 0x1924 JUMP JUMPDEST PUSH1 0x40 MLOAD DUP1 SWAP2 SUB SWAP1 REVERT JUMPDEST PUSH1 0x8 PUSH1 0x0 CALLER PUSH20 0xFFFFFFFFFFFFFFFFFFFFFFFFFFFFFFFFFFFFFFFF AND PUSH20 0xFFFFFFFFFFFFFFFFFFFFFFFFFFFFFFFFFFFFFFFF AND DUP2 MSTORE PUSH1 0x20 ADD SWAP1 DUP2 MSTORE PUSH1 0x20 ADD PUSH1 0x0 KECCAK256 PUSH1 0x0 SWAP1 SLOAD SWAP1 PUSH2 0x100 EXP SWAP1 DIV PUSH1 0xFF AND ISZERO PUSH2 0x3AF JUMPI PUSH1 0x40 MLOAD PUSH32 0x8C379A000000000000000000000000000000000000000000000000000000000 DUP2 MSTORE PUSH1 0x4 ADD PUSH2 0x3A6 SWAP1 PUSH2 0x1904 JUMP JUMPDEST PUSH1 0x40 MLOAD DUP1 SWAP2 SUB SWAP1 REVERT JUMPDEST PUSH1 0x5 PUSH1 0x0 DUP2 SLOAD DUP1 SWAP3 SWAP2 SWAP1 PUSH2 0x3C2 SWAP1 PUSH2 0x1BF7 JUMP JUMPDEST SWAP2 SWAP1 POP SSTORE POP PUSH1 0xA PUSH1 0x0 DUP3 DUP2 MSTORE PUSH1 0x20 ADD SWAP1 DUP2 MSTORE PUSH1 0x20 ADD PUSH1 0x0 KECCAK256 PUSH1 0x0 DUP2 SLOAD DUP1 SWAP3 SWAP2 SWAP1 PUSH2 0x3EB SWAP1 PUSH2 0x1BF7 JUMP JUMPDEST SWAP2 SWAP1 POP SSTORE POP PUSH1 0x7 PUSH1 0x0 DUP3 DUP2 MSTORE PUSH1 0x20 ADD SWAP1 DUP2 MSTORE PUSH1 0x20 ADD PUSH1 0x0 KECCAK256 PUSH1 0xB PUSH1 0x0 CALLER PUSH20 0xFFFFFFFFFFFFFFFFFFFFFFFFFFFFFFFFFFFFFFFF AND PUSH20 0xFFFFFFFFFFFFFFFFFFFFFFFFFFFFFFFFFFFFFFFF AND DUP2 MSTORE PUSH1 0x20 ADD SWAP1 DUP2 MSTORE PUSH1 0x20 ADD PUSH1 0x0 KECCAK256 SWAP1 DUP1 SLOAD PUSH2 0x44E SWAP1 PUSH2 0x1B94 JUMP JUMPDEST PUSH2 0x459 SWAP3 SWAP2 SWAP1 PUSH2 0x1158 JUMP JUMPDEST POP PUSH1 0x1 PUSH1 0x8 PUSH1 0x0 CALLER PUSH20 0xFFFFFFFFFFFFFFFFFFFFFFFFFFFFFFFFFFFFFFFF AND PUSH20 0xFFFFFFFFFFFFFFFFFFFFFFFFFFFFFFFFFFFFFFFF AND DUP2 MSTORE PUSH1 0x20 ADD SWAP1 DUP2 MSTORE PUSH1 0x20 ADD PUSH1 0x0 KECCAK256 PUSH1 0x0 PUSH2 0x100 EXP DUP2 SLOAD DUP2 PUSH1 0xFF MUL NOT AND SWAP1 DUP4 ISZERO ISZERO MUL OR SWAP1 SSTORE POP DUP1 PUSH32 0x1ABE610CF2BF87E57DCC1181FCF5AC0934E843D8344AB9EED6E86C799F62585E CALLER PUSH1 0x5 SLOAD PUSH1 0x40 MLOAD PUSH2 0x4E6 SWAP3 SWAP2 SWAP1 PUSH2 0x1787 JUMP JUMPDEST PUSH1 0x40 MLOAD DUP1 SWAP2 SUB SWAP1 LOG2 POP JUMP JUMPDEST PUSH1 0x5 SLOAD DUP2 JUMP JUMPDEST PUSH1 0x60 PUSH1 0x8 PUSH1 0x0 CALLER PUSH20 0xFFFFFFFFFFFFFFFFFFFFFFFFFFFFFFFFFFFFFFFF AND PUSH20 0xFFFFFFFFFFFFFFFFFFFFFFFFFFFFFFFFFFFFFFFF AND DUP2 MSTORE PUSH1 0x20 ADD SWAP1 DUP2 MSTORE PUSH1 0x20 ADD PUSH1 0x0 KECCAK256 PUSH1 0x0 SWAP1 SLOAD SWAP1 PUSH2 0x100 EXP SWAP1 DIV PUSH1 0xFF AND PUSH2 0x585 JUMPI PUSH1 0x40 MLOAD PUSH32 0x8C379A000000000000000000000000000000000000000000000000000000000 DUP2 MSTORE PUSH1 0x4 ADD PUSH2 0x57C SWAP1 PUSH2 0x1884 JUMP JUMPDEST PUSH1 0x40 MLOAD DUP1 SWAP2 SUB SWAP1 REVERT JUMPDEST PUSH1 0xB PUSH1 0x0 CALLER PUSH20 0xFFFFFFFFFFFFFFFFFFFFFFFFFFFFFFFFFFFFFFFF AND PUSH20 0xFFFFFFFFFFFFFFFFFFFFFFFFFFFFFFFFFFFFFFFF AND DUP2 MSTORE PUSH1 0x20 ADD SWAP1 DUP2 MSTORE PUSH1 0x20 ADD PUSH1 0x0 KECCAK256 DUP1 SLOAD PUSH2 0x5CF SWAP1 PUSH2 0x1B94 JUMP JUMPDEST DUP1 PUSH1 0x1F ADD PUSH1 0x20 DUP1 SWAP2 DIV MUL PUSH1 0x20 ADD PUSH1 0x40 MLOAD SWAP1 DUP2 ADD PUSH1 0x40 MSTORE DUP1 SWAP3 SWAP2 SWAP1 DUP2 DUP2 MSTORE PUSH1 0x20 ADD DUP3 DUP1 SLOAD PUSH2 0x5FB SWAP1 PUSH2 0x1B94 JUMP JUMPDEST DUP1 ISZERO PUSH2 0x648 JUMPI DUP1 PUSH1 0x1F LT PUSH2 0x61D JUMPI PUSH2 0x100 DUP1 DUP4 SLOAD DIV MUL DUP4 MSTORE SWAP2 PUSH1 0x20 ADD SWAP2 PUSH2 0x648 JUMP JUMPDEST DUP3 ADD SWAP2 SWAP1 PUSH1 0x0 MSTORE PUSH1 0x20 PUSH1 0x0 KECCAK256 SWAP1 JUMPDEST DUP2 SLOAD DUP2 MSTORE SWAP1 PUSH1 0x1 ADD SWAP1 PUSH1 0x20 ADD DUP1 DUP4 GT PUSH2 0x62B JUMPI DUP3 SWAP1 SUB PUSH1 0x1F AND DUP3 ADD SWAP2 JUMPDEST POP POP POP POP POP SWAP1 POP SWAP1 JUMP JUMPDEST CALLER PUSH20 0xFFFFFFFFFFFFFFFFFFFFFFFFFFFFFFFFFFFFFFFF AND PUSH1 0x0 DUP1 SLOAD SWAP1 PUSH2 0x100 EXP SWAP1 DIV PUSH20 0xFFFFFFFFFFFFFFFFFFFFFFFFFFFFFFFFFFFFFFFF AND PUSH20 0xFFFFFFFFFFFFFFFFFFFFFFFFFFFFFFFFFFFFFFFF AND EQ PUSH2 0x6E0 JUMPI PUSH1 0x40 MLOAD PUSH32 0x8C379A000000000000000000000000000000000000000000000000000000000 DUP2 MSTORE PUSH1 0x4 ADD PUSH2 0x6D7 SWAP1 PUSH2 0x1964 JUMP JUMPDEST PUSH1 0x40 MLOAD DUP1 SWAP2 SUB SWAP1 REVERT JUMPDEST PUSH1 0x0 PUSH1 0x4 PUSH1 0x0 PUSH2 0x100 EXP DUP2 SLOAD DUP2 PUSH1 0xFF MUL NOT AND SWAP1 DUP4 ISZERO ISZERO MUL OR SWAP1 SSTORE POP CALLER PUSH20 0xFFFFFFFFFFFFFFFFFFFFFFFFFFFFFFFFFFFFFFFF AND PUSH32 0x5DB9EE0A495BF2E6FF9C91A7834C1BA4FDD244A5E8AA4E537BD38AEAE4B073AA PUSH1 0x40 MLOAD PUSH1 0x40 MLOAD DUP1 SWAP2 SUB SWAP1 LOG2 JUMP JUMPDEST PUSH1 0x4 PUSH1 0x0 SWAP1 SLOAD SWAP1 PUSH2 0x100 EXP SWAP1 DIV PUSH1 0xFF AND DUP2 JUMP JUMPDEST PUSH1 0x2 SLOAD DUP2 JUMP JUMPDEST PUSH1 0x60 CALLER PUSH20 0xFFFFFFFFFFFFFFFFFFFFFFFFFFFFFFFFFFFFFFFF AND PUSH1 0x0 DUP1 SLOAD SWAP1 PUSH2 0x100 EXP SWAP1 DIV PUSH20 0xFFFFFFFFFFFFFFFFFFFFFFFFFFFFFFFFFFFFFFFF AND PUSH20 0xFFFFFFFFFFFFFFFFFFFFFFFFFFFFFFFFFFFFFFFF AND EQ PUSH2 0x7E9 JUMPI PUSH1 0x40 MLOAD PUSH32 0x8C379A000000000000000000000000000000000000000000000000000000000 DUP2 MSTORE PUSH1 0x4 ADD PUSH2 0x7E0 SWAP1 PUSH2 0x1964 JUMP JUMPDEST PUSH1 0x40 MLOAD DUP1 SWAP2 SUB SWAP1 REVERT JUMPDEST PUSH1 0x0 PUSH1 0x5 SLOAD GT PUSH2 0x82E JUMPI PUSH1 0x40 MLOAD PUSH32 0x8C379A000000000000000000000000000000000000000000000000000000000 DUP2 MSTORE PUSH1 0x4 ADD PUSH2 0x825 SWAP1 PUSH2 0x1844 JUMP JUMPDEST PUSH1 0x40 MLOAD DUP1 SWAP2 SUB SWAP1 REVERT JUMPDEST PUSH1 0x0 DUP1 PUSH1 0x0 PUSH1 0x1 SWAP1 POP JUMPDEST PUSH1 0x1 SLOAD DUP2 GT PUSH2 0x889 JUMPI DUP3 PUSH1 0xA PUSH1 0x0 DUP4 DUP2 MSTORE PUSH1 0x20 ADD SWAP1 DUP2 MSTORE PUSH1 0x20 ADD PUSH1 0x0 KECCAK256 SLOAD GT ISZERO PUSH2 0x876 JUMPI PUSH1 0xA PUSH1 0x0 DUP3 DUP2 MSTORE PUSH1 0x20 ADD SWAP1 DUP2 MSTORE PUSH1 0x20 ADD PUSH1 0x0 KECCAK256 SLOAD SWAP3 POP DUP1 SWAP2 POP JUMPDEST DUP1 DUP1 PUSH2 0x881 SWAP1 PUSH2 0x1BF7 JUMP JUMPDEST SWAP2 POP POP PUSH2 0x838 JUMP JUMPDEST POP PUSH1 0x7 PUSH1 0x0 DUP3 DUP2 MSTORE PUSH1 0x20 ADD SWAP1 DUP2 MSTORE PUSH1 0x20 ADD PUSH1 0x0 KECCAK256 DUP1 SLOAD PUSH2 0x8A8 SWAP1 PUSH2 0x1B94 JUMP JUMPDEST DUP1 PUSH1 0x1F ADD PUSH1 0x20 DUP1 SWAP2 DIV MUL PUSH1 0x20 ADD PUSH1 0x40 MLOAD SWAP1 DUP2 ADD PUSH1 0x40 MSTORE DUP1 SWAP3 SWAP2 SWAP1 DUP2 DUP2 MSTORE PUSH1 0x20 ADD DUP3 DUP1 SLOAD PUSH2 0x8D4 SWAP1 PUSH2 0x1B94 JUMP JUMPDEST DUP1 ISZERO PUSH2 0x921 JUMPI DUP1 PUSH1 0x1F LT PUSH2 0x8F6 JUMPI PUSH2 0x100 DUP1 DUP4 SLOAD DIV MUL DUP4 MSTORE SWAP2 PUSH1 0x20 ADD SWAP2 PUSH2 0x921 JUMP JUMPDEST DUP3 ADD SWAP2 SWAP1 PUSH1 0x0 MSTORE PUSH1 0x20 PUSH1 0x0 KECCAK256 SWAP1 JUMPDEST DUP2 SLOAD DUP2 MSTORE SWAP1 PUSH1 0x1 ADD SWAP1 PUSH1 0x20 ADD DUP1 DUP4 GT PUSH2 0x904 JUMPI DUP3 SWAP1 SUB PUSH1 0x1F AND DUP3 ADD SWAP2 JUMPDEST POP POP POP POP POP SWAP3 POP POP POP SWAP1 JUMP JUMPDEST PUSH1 0x1 SLOAD DUP2 JUMP JUMPDEST CALLER PUSH20 0xFFFFFFFFFFFFFFFFFFFFFFFFFFFFFFFFFFFFFFFF AND PUSH1 0x0 DUP1 SLOAD SWAP1 PUSH2 0x100 EXP SWAP1 DIV PUSH20 0xFFFFFFFFFFFFFFFFFFFFFFFFFFFFFFFFFFFFFFFF AND PUSH20 0xFFFFFFFFFFFFFFFFFFFFFFFFFFFFFFFFFFFFFFFF AND EQ PUSH2 0x9C1 JUMPI PUSH1 0x40 MLOAD PUSH32 0x8C379A000000000000000000000000000000000000000000000000000000000 DUP2 MSTORE PUSH1 0x4 ADD PUSH2 0x9B8 SWAP1 PUSH2 0x1964 JUMP JUMPDEST PUSH1 0x40 MLOAD DUP1 SWAP2 SUB SWAP1 REVERT JUMPDEST PUSH1 0x0 JUMPDEST PUSH1 0x3 DUP1 SLOAD SWAP1 POP DUP2 LT ISZERO PUSH2 0xA86 JUMPI PUSH1 0x3 DUP2 DUP2 SLOAD DUP2 LT PUSH2 0xA0B JUMPI PUSH32 0x4E487B7100000000000000000000000000000000000000000000000000000000 PUSH1 0x0 MSTORE PUSH1 0x32 PUSH1 0x4 MSTORE PUSH1 0x24 PUSH1 0x0 REVERT JUMPDEST SWAP1 PUSH1 0x0 MSTORE PUSH1 0x20 PUSH1 0x0 KECCAK256 ADD PUSH1 0x40 MLOAD PUSH2 0xA22 SWAP2 SWAP1 PUSH2 0x1770 JUMP JUMPDEST PUSH1 0x40 MLOAD DUP1 SWAP2 SUB SWAP1 KECCAK256 DUP3 DUP1 MLOAD SWAP1 PUSH1 0x20 ADD KECCAK256 EQ ISZERO PUSH2 0xA73 JUMPI PUSH1 0x40 MLOAD PUSH32 0x8C379A000000000000000000000000000000000000000000000000000000000 DUP2 MSTORE PUSH1 0x4 ADD PUSH2 0xA6A SWAP1 PUSH2 0x18C4 JUMP JUMPDEST PUSH1 0x40 MLOAD DUP1 SWAP2 SUB SWAP1 REVERT JUMPDEST DUP1 DUP1 PUSH2 0xA7E SWAP1 PUSH2 0x1BF7 JUMP JUMPDEST SWAP2 POP POP PUSH2 0x9C4 JUMP JUMPDEST POP PUSH1 0x1 PUSH1 0x0 DUP2 SLOAD DUP1 SWAP3 SWAP2 SWAP1 PUSH2 0xA9A SWAP1 PUSH2 0x1BF7 JUMP JUMPDEST SWAP2 SWAP1 POP SSTORE POP PUSH1 0x3 DUP2 SWAP1 DUP1 PUSH1 0x1 DUP2 SLOAD ADD DUP1 DUP3 SSTORE DUP1 SWAP2 POP POP PUSH1 0x1 SWAP1 SUB SWAP1 PUSH1 0x0 MSTORE PUSH1 0x20 PUSH1 0x0 KECCAK256 ADD PUSH1 0x0 SWAP1 SWAP2 SWAP1 SWAP2 SWAP1 SWAP2 POP SWAP1 DUP1 MLOAD SWAP1 PUSH1 0x20 ADD SWAP1 PUSH2 0xADA SWAP3 SWAP2 SWAP1 PUSH2 0x11E5 JUMP JUMPDEST POP DUP1 PUSH1 0x7 PUSH1 0x0 PUSH1 0x1 SLOAD DUP2 MSTORE PUSH1 0x20 ADD SWAP1 DUP2 MSTORE PUSH1 0x20 ADD PUSH1 0x0 KECCAK256 SWAP1 DUP1 MLOAD SWAP1 PUSH1 0x20 ADD SWAP1 PUSH2 0xB04 SWAP3 SWAP2 SWAP1 PUSH2 0x11E5 JUMP JUMPDEST POP PUSH1 0x1 SLOAD PUSH32 0x56F6C29D2EB99F40E2A206309DC37F2CFF01A5755A4683E3C2B0CE22E5E3AA17 DUP3 PUSH1 0x40 MLOAD PUSH2 0xB37 SWAP2 SWAP1 PUSH2 0x1802 JUMP JUMPDEST PUSH1 0x40 MLOAD DUP1 SWAP2 SUB SWAP1 LOG2 POP JUMP JUMPDEST CALLER PUSH20 0xFFFFFFFFFFFFFFFFFFFFFFFFFFFFFFFFFFFFFFFF AND PUSH1 0x0 DUP1 SLOAD SWAP1 PUSH2 0x100 EXP SWAP1 DIV PUSH20 0xFFFFFFFFFFFFFFFFFFFFFFFFFFFFFFFFFFFFFFFF AND PUSH20 0xFFFFFFFFFFFFFFFFFFFFFFFFFFFFFFFFFFFFFFFF AND EQ PUSH2 0xBD0 JUMPI PUSH1 0x40 MLOAD PUSH32 0x8C379A000000000000000000000000000000000000000000000000000000000 DUP2 MSTORE PUSH1 0x4 ADD PUSH2 0xBC7 SWAP1 PUSH2 0x1964 JUMP JUMPDEST PUSH1 0x40 MLOAD DUP1 SWAP2 SUB SWAP1 REVERT JUMPDEST PUSH1 0x1 PUSH1 0x4 PUSH1 0x0 PUSH2 0x100 EXP DUP2 SLOAD DUP2 PUSH1 0xFF MUL NOT AND SWAP1 DUP4 ISZERO ISZERO MUL OR SWAP1 SSTORE POP CALLER PUSH20 0xFFFFFFFFFFFFFFFFFFFFFFFFFFFFFFFFFFFFFFFF AND PUSH32 0x62E78CEA01BEE320CD4E420270B5EA74000D11B0C9F74754EBDBFC544B05A258 PUSH1 0x40 MLOAD PUSH1 0x40 MLOAD DUP1 SWAP2 SUB SWAP1 LOG2 JUMP JUMPDEST PUSH1 0x60 DUP1 PUSH1 0x4 PUSH1 0x0 SWAP1 SLOAD SWAP1 PUSH2 0x100 EXP SWAP1 DIV PUSH1 0xFF AND ISZERO PUSH2 0xC83 JUMPI PUSH1 0x40 MLOAD PUSH32 0x8C379A000000000000000000000000000000000000000000000000000000000 DUP2 MSTORE PUSH1 0x4 ADD PUSH2 0xC7A SWAP1 PUSH2 0x18E4 JUMP JUMPDEST PUSH1 0x40 MLOAD DUP1 SWAP2 SUB SWAP1 REVERT JUMPDEST PUSH1 0x0 PUSH1 0x1 SLOAD GT PUSH2 0xCC8 JUMPI PUSH1 0x40 MLOAD PUSH32 0x8C379A000000000000000000000000000000000000000000000000000000000 DUP2 MSTORE PUSH1 0x4 ADD PUSH2 0xCBF SWAP1 PUSH2 0x1864 JUMP JUMPDEST PUSH1 0x40 MLOAD DUP1 SWAP2 SUB SWAP1 REVERT JUMPDEST PUSH1 0x0 PUSH1 0x1 SLOAD PUSH8 0xFFFFFFFFFFFFFFFF DUP2 GT ISZERO PUSH2 0xD0C JUMPI PUSH32 0x4E487B7100000000000000000000000000000000000000000000000000000000 PUSH1 0x0 MSTORE PUSH1 0x41 PUSH1 0x4 MSTORE PUSH1 0x24 PUSH1 0x0 REVERT JUMPDEST PUSH1 0x40 MLOAD SWAP1 DUP1 DUP3 MSTORE DUP1 PUSH1 0x20 MUL PUSH1 0x20 ADD DUP3 ADD PUSH1 0x40 MSTORE DUP1 ISZERO PUSH2 0xD3A JUMPI DUP2 PUSH1 0x20 ADD PUSH1 0x20 DUP3 MUL DUP1 CALLDATASIZE DUP4 CALLDATACOPY DUP1 DUP3 ADD SWAP2 POP POP SWAP1 POP JUMPDEST POP SWAP1 POP PUSH1 0x0 PUSH1 0x1 SLOAD PUSH8 0xFFFFFFFFFFFFFFFF DUP2 GT ISZERO PUSH2 0xD81 JUMPI PUSH32 0x4E487B7100000000000000000000000000000000000000000000000000000000 PUSH1 0x0 MSTORE PUSH1 0x41 PUSH1 0x4 MSTORE PUSH1 0x24 PUSH1 0x0 REVERT JUMPDEST PUSH1 0x40 MLOAD SWAP1 DUP1 DUP3 MSTORE DUP1 PUSH1 0x20 MUL PUSH1 0x20 ADD DUP3 ADD PUSH1 0x40 MSTORE DUP1 ISZERO PUSH2 0xDB4 JUMPI DUP2 PUSH1 0x20 ADD JUMPDEST PUSH1 0x60 DUP2 MSTORE PUSH1 0x20 ADD SWAP1 PUSH1 0x1 SWAP1 SUB SWAP1 DUP2 PUSH2 0xD9F JUMPI SWAP1 POP JUMPDEST POP SWAP1 POP PUSH1 0x0 JUMPDEST PUSH1 0x1 SLOAD DUP2 LT ISZERO PUSH2 0xF3A JUMPI PUSH1 0x1 DUP2 PUSH2 0xDD1 SWAP2 SWAP1 PUSH2 0x1AB4 JUMP JUMPDEST DUP4 DUP3 DUP2 MLOAD DUP2 LT PUSH2 0xE0A JUMPI PUSH32 0x4E487B7100000000000000000000000000000000000000000000000000000000 PUSH1 0x0 MSTORE PUSH1 0x32 PUSH1 0x4 MSTORE PUSH1 0x24 PUSH1 0x0 REVERT JUMPDEST PUSH1 0x20 MUL PUSH1 0x20 ADD ADD DUP2 DUP2 MSTORE POP POP PUSH1 0x3 DUP2 DUP2 SLOAD DUP2 LT PUSH2 0xE50 JUMPI PUSH32 0x4E487B7100000000000000000000000000000000000000000000000000000000 PUSH1 0x0 MSTORE PUSH1 0x32 PUSH1 0x4 MSTORE PUSH1 0x24 PUSH1 0x0 REVERT JUMPDEST SWAP1 PUSH1 0x0 MSTORE PUSH1 0x20 PUSH1 0x0 KECCAK256 ADD DUP1 SLOAD PUSH2 0xE65 SWAP1 PUSH2 0x1B94 JUMP JUMPDEST DUP1 PUSH1 0x1F ADD PUSH1 0x20 DUP1 SWAP2 DIV MUL PUSH1 0x20 ADD PUSH1 0x40 MLOAD SWAP1 DUP2 ADD PUSH1 0x40 MSTORE DUP1 SWAP3 SWAP2 SWAP1 DUP2 DUP2 MSTORE PUSH1 0x20 ADD DUP3 DUP1 SLOAD PUSH2 0xE91 SWAP1 PUSH2 0x1B94 JUMP JUMPDEST DUP1 ISZERO PUSH2 0xEDE JUMPI DUP1 PUSH1 0x1F LT PUSH2 0xEB3 JUMPI PUSH2 0x100 DUP1 DUP4 SLOAD DIV MUL DUP4 MSTORE SWAP2 PUSH1 0x20 ADD SWAP2 PUSH2 0xEDE JUMP JUMPDEST DUP3 ADD SWAP2 SWAP1 PUSH1 0x0 MSTORE PUSH1 0x20 PUSH1 0x0 KECCAK256 SWAP1 JUMPDEST DUP2 SLOAD DUP2 MSTORE SWAP1 PUSH1 0x1 ADD SWAP1 PUSH1 0x20 ADD DUP1 DUP4 GT PUSH2 0xEC1 JUMPI DUP3 SWAP1 SUB PUSH1 0x1F AND DUP3 ADD SWAP2 JUMPDEST POP POP POP POP POP DUP3 DUP3 DUP2 MLOAD DUP2 LT PUSH2 0xF1C JUMPI PUSH32 0x4E487B7100000000000000000000000000000000000000000000000000000000 PUSH1 0x0 MSTORE PUSH1 0x32 PUSH1 0x4 MSTORE PUSH1 0x24 PUSH1 0x0 REVERT JUMPDEST PUSH1 0x20 MUL PUSH1 0x20 ADD ADD DUP2 SWAP1 MSTORE POP DUP1 DUP1 PUSH2 0xF32 SWAP1 PUSH2 0x1BF7 JUMP JUMPDEST SWAP2 POP POP PUSH2 0xDBA JUMP JUMPDEST POP DUP2 DUP2 SWAP4 POP SWAP4 POP POP POP SWAP1 SWAP2 JUMP JUMPDEST PUSH1 0x9 PUSH1 0x0 CALLER PUSH20 0xFFFFFFFFFFFFFFFFFFFFFFFFFFFFFFFFFFFFFFFF AND PUSH20 0xFFFFFFFFFFFFFFFFFFFFFFFFFFFFFFFFFFFFFFFF AND DUP2 MSTORE PUSH1 0x20 ADD SWAP1 DUP2 MSTORE PUSH1 0x20 ADD PUSH1 0x0 KECCAK256 PUSH1 0x0 SWAP1 SLOAD SWAP1 PUSH2 0x100 EXP SWAP1 DIV PUSH1 0xFF AND ISZERO PUSH2 0xFD4 JUMPI PUSH1 0x40 MLOAD PUSH32 0x8C379A000000000000000000000000000000000000000000000000000000000 DUP2 MSTORE PUSH1 0x4 ADD PUSH2 0xFCB SWAP1 PUSH2 0x1944 JUMP JUMPDEST PUSH1 0x40 MLOAD DUP1 SWAP2 SUB SWAP1 REVERT JUMPDEST PUSH1 0x12 DUP2 LT ISZERO PUSH2 0x1018 JUMPI PUSH1 0x40 MLOAD PUSH32 0x8C379A000000000000000000000000000000000000000000000000000000000 DUP2 MSTORE PUSH1 0x4 ADD PUSH2 0x100F SWAP1 PUSH2 0x1824 JUMP JUMPDEST PUSH1 0x40 MLOAD DUP1 SWAP2 SUB SWAP1 REVERT JUMPDEST PUSH1 0x2 PUSH1 0x0 DUP2 SLOAD DUP1 SWAP3 SWAP2 SWAP1 PUSH2 0x102B SWAP1 PUSH2 0x1BF7 JUMP JUMPDEST SWAP2 SWAP1 POP SSTORE POP PUSH1 0x6 PUSH1 0x40 MLOAD DUP1 PUSH1 0x60 ADD PUSH1 0x40 MSTORE DUP1 PUSH1 0x2 SLOAD DUP2 MSTORE PUSH1 0x20 ADD DUP5 DUP2 MSTORE PUSH1 0x20 ADD DUP4 DUP2 MSTORE POP SWAP1 DUP1 PUSH1 0x1 DUP2 SLOAD ADD DUP1 DUP3 SSTORE DUP1 SWAP2 POP POP PUSH1 0x1 SWAP1 SUB SWAP1 PUSH1 0x0 MSTORE PUSH1 0x20 PUSH1 0x0 KECCAK256 SWAP1 PUSH1 0x3 MUL ADD PUSH1 0x0 SWAP1 SWAP2 SWAP1 SWAP2 SWAP1 SWAP2 POP PUSH1 0x0 DUP3 ADD MLOAD DUP2 PUSH1 0x0 ADD SSTORE PUSH1 0x20 DUP3 ADD MLOAD DUP2 PUSH1 0x1 ADD SWAP1 DUP1 MLOAD SWAP1 PUSH1 0x20 ADD SWAP1 PUSH2 0x109E SWAP3 SWAP2 SWAP1 PUSH2 0x11E5 JUMP JUMPDEST POP PUSH1 0x40 DUP3 ADD MLOAD DUP2 PUSH1 0x2 ADD SSTORE POP POP PUSH1 0x1 PUSH1 0x9 PUSH1 0x0 CALLER PUSH20 0xFFFFFFFFFFFFFFFFFFFFFFFFFFFFFFFFFFFFFFFF AND PUSH20 0xFFFFFFFFFFFFFFFFFFFFFFFFFFFFFFFFFFFFFFFF AND DUP2 MSTORE PUSH1 0x20 ADD SWAP1 DUP2 MSTORE PUSH1 0x20 ADD PUSH1 0x0 KECCAK256 PUSH1 0x0 PUSH2 0x100 EXP DUP2 SLOAD DUP2 PUSH1 0xFF MUL NOT AND SWAP1 DUP4 ISZERO ISZERO MUL OR SWAP1 SSTORE POP CALLER PUSH20 0xFFFFFFFFFFFFFFFFFFFFFFFFFFFFFFFFFFFFFFFF AND PUSH1 0x2 SLOAD PUSH32 0xCA52E62C367D81BB2E328EB795F7C7BA24AFB478408A26C0E201D155C449BC4A DUP5 PUSH1 0x40 MLOAD PUSH2 0x114C SWAP2 SWAP1 PUSH2 0x1802 JUMP JUMPDEST PUSH1 0x40 MLOAD DUP1 SWAP2 SUB SWAP1 LOG3 POP POP JUMP JUMPDEST DUP3 DUP1 SLOAD PUSH2 0x1164 SWAP1 PUSH2 0x1B94 JUMP JUMPDEST SWAP1 PUSH1 0x0 MSTORE PUSH1 0x20 PUSH1 0x0 KECCAK256 SWAP1 PUSH1 0x1F ADD PUSH1 0x20 SWAP1 DIV DUP2 ADD SWAP3 DUP3 PUSH2 0x1186 JUMPI PUSH1 0x0 DUP6 SSTORE PUSH2 0x11D4 JUMP JUMPDEST DUP3 PUSH1 0x1F LT PUSH2 0x1197 JUMPI DUP1 SLOAD DUP6 SSTORE PUSH2 0x11D4 JUMP JUMPDEST DUP3 DUP1 ADD PUSH1 0x1 ADD DUP6 SSTORE DUP3 ISZERO PUSH2 0x11D4 JUMPI PUSH1 0x0 MSTORE PUSH1 0x20 PUSH1 0x0 KECCAK256 SWAP2 PUSH1 0x1F ADD PUSH1 0x20 SWAP1 DIV DUP3 ADD JUMPDEST DUP3 DUP2 GT ISZERO PUSH2 0x11D3 JUMPI DUP3 SLOAD DUP3 SSTORE SWAP2 PUSH1 0x1 ADD SWAP2 SWAP1 PUSH1 0x1 ADD SWAP1 PUSH2 0x11B8 JUMP JUMPDEST JUMPDEST POP SWAP1 POP PUSH2 0x11E1 SWAP2 SWAP1 PUSH2 0x126B JUMP JUMPDEST POP SWAP1 JUMP JUMPDEST DUP3 DUP1 SLOAD PUSH2 0x11F1 SWAP1 PUSH2 0x1B94 JUMP JUMPDEST SWAP1 PUSH1 0x0 MSTORE PUSH1 0x20 PUSH1 0x0 KECCAK256 SWAP1 PUSH1 0x1F ADD PUSH1 0x20 SWAP1 DIV DUP2 ADD SWAP3 DUP3 PUSH2 0x1213 JUMPI PUSH1 0x0 DUP6 SSTORE PUSH2 0x125A JUMP JUMPDEST DUP3 PUSH1 0x1F LT PUSH2 0x122C JUMPI DUP1 MLOAD PUSH1 0xFF NOT AND DUP4 DUP1 ADD OR DUP6 SSTORE PUSH2 0x125A JUMP JUMPDEST DUP3 DUP1 ADD PUSH1 0x1 ADD DUP6 SSTORE DUP3 ISZERO PUSH2 0x125A JUMPI SWAP2 DUP3 ADD JUMPDEST DUP3 DUP2 GT ISZERO PUSH2 0x1259 JUMPI DUP3 MLOAD DUP3 SSTORE SWAP2 PUSH1 0x20 ADD SWAP2 SWAP1 PUSH1 0x1 ADD SWAP1 PUSH2 0x123E JUMP JUMPDEST JUMPDEST POP SWAP1 POP PUSH2 0x1267 SWAP2 SWAP1 PUSH2 0x126B JUMP JUMPDEST POP SWAP1 JUMP JUMPDEST JUMPDEST DUP1 DUP3 GT ISZERO PUSH2 0x1284 JUMPI PUSH1 0x0 DUP2 PUSH1 0x0 SWAP1 SSTORE POP PUSH1 0x1 ADD PUSH2 0x126C JUMP JUMPDEST POP SWAP1 JUMP JUMPDEST PUSH1 0x0 PUSH2 0x129B PUSH2 0x1296 DUP5 PUSH2 0x19C4 JUMP JUMPDEST PUSH2 0x199F JUMP JUMPDEST SWAP1 POP DUP3 DUP2 MSTORE PUSH1 0x20 DUP2 ADD DUP5 DUP5 DUP5 ADD GT ISZERO PUSH2 0x12B3 JUMPI PUSH1 0x0 DUP1 REVERT JUMPDEST PUSH2 0x12BE DUP5 DUP3 DUP6 PUSH2 0x1B52 JUMP JUMPDEST POP SWAP4 SWAP3 POP POP POP JUMP JUMPDEST PUSH1 0x0 DUP3 PUSH1 0x1F DUP4 ADD SLT PUSH2 0x12D7 JUMPI PUSH1 0x0 DUP1 REVERT JUMPDEST DUP2 CALLDATALOAD PUSH2 0x12E7 DUP5 DUP3 PUSH1 0x20 DUP7 ADD PUSH2 0x1288 JUMP JUMPDEST SWAP2 POP POP SWAP3 SWAP2 POP POP JUMP JUMPDEST PUSH1 0x0 DUP2 CALLDATALOAD SWAP1 POP PUSH2 0x12FF DUP2 PUSH2 0x1F13 JUMP JUMPDEST SWAP3 SWAP2 POP POP JUMP JUMPDEST PUSH1 0x0 PUSH1 0x20 DUP3 DUP5 SUB SLT ISZERO PUSH2 0x1317 JUMPI PUSH1 0x0 DUP1 REVERT JUMPDEST PUSH1 0x0 DUP3 ADD CALLDATALOAD PUSH8 0xFFFFFFFFFFFFFFFF DUP2 GT ISZERO PUSH2 0x1331 JUMPI PUSH1 0x0 DUP1 REVERT JUMPDEST PUSH2 0x133D DUP5 DUP3 DUP6 ADD PUSH2 0x12C6 JUMP JUMPDEST SWAP2 POP POP SWAP3 SWAP2 POP POP JUMP JUMPDEST PUSH1 0x0 DUP1 PUSH1 0x40 DUP4 DUP6 SUB SLT ISZERO PUSH2 0x1359 JUMPI PUSH1 0x0 DUP1 REVERT JUMPDEST PUSH1 0x0 DUP4 ADD CALLDATALOAD PUSH8 0xFFFFFFFFFFFFFFFF DUP2 GT ISZERO PUSH2 0x1373 JUMPI PUSH1 0x0 DUP1 REVERT JUMPDEST PUSH2 0x137F DUP6 DUP3 DUP7 ADD PUSH2 0x12C6 JUMP JUMPDEST SWAP3 POP POP PUSH1 0x20 PUSH2 0x1390 DUP6 DUP3 DUP7 ADD PUSH2 0x12F0 JUMP JUMPDEST SWAP2 POP POP SWAP3 POP SWAP3 SWAP1 POP JUMP JUMPDEST PUSH1 0x0 PUSH1 0x20 DUP3 DUP5 SUB SLT ISZERO PUSH2 0x13AC JUMPI PUSH1 0x0 DUP1 REVERT JUMPDEST PUSH1 0x0 PUSH2 0x13BA DUP5 DUP3 DUP6 ADD PUSH2 0x12F0 JUMP JUMPDEST SWAP2 POP POP SWAP3 SWAP2 POP POP JUMP JUMPDEST PUSH1 0x0 PUSH2 0x13CF DUP4 DUP4 PUSH2 0x155F JUMP JUMPDEST SWAP1 POP SWAP3 SWAP2 POP POP JUMP JUMPDEST PUSH1 0x0 PUSH2 0x13E3 DUP4 DUP4 PUSH2 0x1752 JUMP JUMPDEST PUSH1 0x20 DUP4 ADD SWAP1 POP SWAP3 SWAP2 POP POP JUMP JUMPDEST PUSH2 0x13F8 DUP2 PUSH2 0x1B0A JUMP JUMPDEST DUP3 MSTORE POP POP JUMP JUMPDEST PUSH1 0x0 PUSH2 0x1409 DUP3 PUSH2 0x1A2A JUMP JUMPDEST PUSH2 0x1413 DUP2 DUP6 PUSH2 0x1A65 JUMP JUMPDEST SWAP4 POP DUP4 PUSH1 0x20 DUP3 MUL DUP6 ADD PUSH2 0x1425 DUP6 PUSH2 0x19F5 JUMP JUMPDEST DUP1 PUSH1 0x0 JUMPDEST DUP6 DUP2 LT ISZERO PUSH2 0x1461 JUMPI DUP5 DUP5 SUB DUP10 MSTORE DUP2 MLOAD PUSH2 0x1442 DUP6 DUP3 PUSH2 0x13C3 JUMP JUMPDEST SWAP5 POP PUSH2 0x144D DUP4 PUSH2 0x1A4B JUMP JUMPDEST SWAP3 POP PUSH1 0x20 DUP11 ADD SWAP10 POP POP PUSH1 0x1 DUP2 ADD SWAP1 POP PUSH2 0x1429 JUMP JUMPDEST POP DUP3 SWAP8 POP DUP8 SWAP6 POP POP POP POP POP POP SWAP3 SWAP2 POP POP JUMP JUMPDEST PUSH1 0x0 PUSH2 0x147E DUP3 PUSH2 0x1A35 JUMP JUMPDEST PUSH2 0x1488 DUP2 DUP6 PUSH2 0x1A76 JUMP JUMPDEST SWAP4 POP PUSH2 0x1493 DUP4 PUSH2 0x1A05 JUMP JUMPDEST DUP1 PUSH1 0x0 JUMPDEST DUP4 DUP2 LT ISZERO PUSH2 0x14C4 JUMPI DUP2 MLOAD PUSH2 0x14AB DUP9 DUP3 PUSH2 0x13D7 JUMP JUMPDEST SWAP8 POP PUSH2 0x14B6 DUP4 PUSH2 0x1A58 JUMP JUMPDEST SWAP3 POP POP PUSH1 0x1 DUP2 ADD SWAP1 POP PUSH2 0x1497 JUMP JUMPDEST POP DUP6 SWAP4 POP POP POP POP SWAP3 SWAP2 POP POP JUMP JUMPDEST PUSH2 0x14DA DUP2 PUSH2 0x1B1C JUMP JUMPDEST DUP3 MSTORE POP POP JUMP JUMPDEST PUSH1 0x0 DUP2 SLOAD PUSH2 0x14ED DUP2 PUSH2 0x1B94 JUMP JUMPDEST PUSH2 0x14F7 DUP2 DUP7 PUSH2 0x1A87 JUMP JUMPDEST SWAP5 POP PUSH1 0x1 DUP3 AND PUSH1 0x0 DUP2 EQ PUSH2 0x1512 JUMPI PUSH1 0x1 DUP2 EQ PUSH2 0x1523 JUMPI PUSH2 0x1556 JUMP JUMPDEST PUSH1 0xFF NOT DUP4 AND DUP7 MSTORE DUP2 DUP7 ADD SWAP4 POP PUSH2 0x1556 JUMP JUMPDEST PUSH2 0x152C DUP6 PUSH2 0x1A15 JUMP JUMPDEST PUSH1 0x0 JUMPDEST DUP4 DUP2 LT ISZERO PUSH2 0x154E JUMPI DUP2 SLOAD DUP2 DUP10 ADD MSTORE PUSH1 0x1 DUP3 ADD SWAP2 POP PUSH1 0x20 DUP2 ADD SWAP1 POP PUSH2 0x152F JUMP JUMPDEST DUP4 DUP9 ADD SWAP6 POP POP POP JUMPDEST POP POP POP SWAP3 SWAP2 POP POP JUMP JUMPDEST PUSH1 0x0 PUSH2 0x156A DUP3 PUSH2 0x1A40 JUMP JUMPDEST PUSH2 0x1574 DUP2 DUP6 PUSH2 0x1A92 JUMP JUMPDEST SWAP4 POP PUSH2 0x1584 DUP2 DUP6 PUSH1 0x20 DUP7 ADD PUSH2 0x1B61 JUMP JUMPDEST PUSH2 0x158D DUP2 PUSH2 0x1CCD JUMP JUMPDEST DUP5 ADD SWAP2 POP POP SWAP3 SWAP2 POP POP JUMP JUMPDEST PUSH1 0x0 PUSH2 0x15A3 DUP3 PUSH2 0x1A40 JUMP JUMPDEST PUSH2 0x15AD DUP2 DUP6 PUSH2 0x1AA3 JUMP JUMPDEST SWAP4 POP PUSH2 0x15BD DUP2 DUP6 PUSH1 0x20 DUP7 ADD PUSH2 0x1B61 JUMP JUMPDEST PUSH2 0x15C6 DUP2 PUSH2 0x1CCD JUMP JUMPDEST DUP5 ADD SWAP2 POP POP SWAP3 SWAP2 POP POP JUMP JUMPDEST PUSH1 0x0 PUSH2 0x15DE PUSH1 0x2D DUP4 PUSH2 0x1AA3 JUMP JUMPDEST SWAP2 POP PUSH2 0x15E9 DUP3 PUSH2 0x1CDE JUMP JUMPDEST PUSH1 0x40 DUP3 ADD SWAP1 POP SWAP2 SWAP1 POP JUMP JUMPDEST PUSH1 0x0 PUSH2 0x1601 PUSH1 0x14 DUP4 PUSH2 0x1AA3 JUMP JUMPDEST SWAP2 POP PUSH2 0x160C DUP3 PUSH2 0x1D2D JUMP JUMPDEST PUSH1 0x20 DUP3 ADD SWAP1 POP SWAP2 SWAP1 POP JUMP JUMPDEST PUSH1 0x0 PUSH2 0x1624 PUSH1 0x15 DUP4 PUSH2 0x1AA3 JUMP JUMPDEST SWAP2 POP PUSH2 0x162F DUP3 PUSH2 0x1D56 JUMP JUMPDEST PUSH1 0x20 DUP3 ADD SWAP1 POP SWAP2 SWAP1 POP JUMP JUMPDEST PUSH1 0x0 PUSH2 0x1647 PUSH1 0x15 DUP4 PUSH2 0x1AA3 JUMP JUMPDEST SWAP2 POP PUSH2 0x1652 DUP3 PUSH2 0x1D7F JUMP JUMPDEST PUSH1 0x20 DUP3 ADD SWAP1 POP SWAP2 SWAP1 POP JUMP JUMPDEST PUSH1 0x0 PUSH2 0x166A PUSH1 0x27 DUP4 PUSH2 0x1AA3 JUMP JUMPDEST SWAP2 POP PUSH2 0x1675 DUP3 PUSH2 0x1DA8 JUMP JUMPDEST PUSH1 0x40 DUP3 ADD SWAP1 POP SWAP2 SWAP1 POP JUMP JUMPDEST PUSH1 0x0 PUSH2 0x168D PUSH1 0x1B DUP4 PUSH2 0x1AA3 JUMP JUMPDEST SWAP2 POP PUSH2 0x1698 DUP3 PUSH2 0x1DF7 JUMP JUMPDEST PUSH1 0x20 DUP3 ADD SWAP1 POP SWAP2 SWAP1 POP JUMP JUMPDEST PUSH1 0x0 PUSH2 0x16B0 PUSH1 0x16 DUP4 PUSH2 0x1AA3 JUMP JUMPDEST SWAP2 POP PUSH2 0x16BB DUP3 PUSH2 0x1E20 JUMP JUMPDEST PUSH1 0x20 DUP3 ADD SWAP1 POP SWAP2 SWAP1 POP JUMP JUMPDEST PUSH1 0x0 PUSH2 0x16D3 PUSH1 0x16 DUP4 PUSH2 0x1AA3 JUMP JUMPDEST SWAP2 POP PUSH2 0x16DE DUP3 PUSH2 0x1E49 JUMP JUMPDEST PUSH1 0x20 DUP3 ADD SWAP1 POP SWAP2 SWAP1 POP JUMP JUMPDEST PUSH1 0x0 PUSH2 0x16F6 PUSH1 0x1A DUP4 PUSH2 0x1AA3 JUMP JUMPDEST SWAP2 POP PUSH2 0x1701 DUP3 PUSH2 0x1E72 JUMP JUMPDEST PUSH1 0x20 DUP3 ADD SWAP1 POP SWAP2 SWAP1 POP JUMP JUMPDEST PUSH1 0x0 PUSH2 0x1719 PUSH1 0x13 DUP4 PUSH2 0x1AA3 JUMP JUMPDEST SWAP2 POP PUSH2 0x1724 DUP3 PUSH2 0x1E9B JUMP JUMPDEST PUSH1 0x20 DUP3 ADD SWAP1 POP SWAP2 SWAP1 POP JUMP JUMPDEST PUSH1 0x0 PUSH2 0x173C PUSH1 0x21 DUP4 PUSH2 0x1AA3 JUMP JUMPDEST SWAP2 POP PUSH2 0x1747 DUP3 PUSH2 0x1EC4 JUMP JUMPDEST PUSH1 0x40 DUP3 ADD SWAP1 POP SWAP2 SWAP1 POP JUMP JUMPDEST PUSH2 0x175B DUP2 PUSH2 0x1B48 JUMP JUMPDEST DUP3 MSTORE POP POP JUMP JUMPDEST PUSH2 0x176A DUP2 PUSH2 0x1B48 JUMP JUMPDEST DUP3 MSTORE POP POP JUMP JUMPDEST PUSH1 0x0 PUSH2 0x177C DUP3 DUP5 PUSH2 0x14E0 JUMP JUMPDEST SWAP2 POP DUP2 SWAP1 POP SWAP3 SWAP2 POP POP JUMP JUMPDEST PUSH1 0x0 PUSH1 0x40 DUP3 ADD SWAP1 POP PUSH2 0x179C PUSH1 0x0 DUP4 ADD DUP6 PUSH2 0x13EF JUMP JUMPDEST PUSH2 0x17A9 PUSH1 0x20 DUP4 ADD DUP5 PUSH2 0x1761 JUMP JUMPDEST SWAP4 SWAP3 POP POP POP JUMP JUMPDEST PUSH1 0x0 PUSH1 0x40 DUP3 ADD SWAP1 POP DUP2 DUP2 SUB PUSH1 0x0 DUP4 ADD MSTORE PUSH2 0x17CA DUP2 DUP6 PUSH2 0x1473 JUMP JUMPDEST SWAP1 POP DUP2 DUP2 SUB PUSH1 0x20 DUP4 ADD MSTORE PUSH2 0x17DE DUP2 DUP5 PUSH2 0x13FE JUMP JUMPDEST SWAP1 POP SWAP4 SWAP3 POP POP POP JUMP JUMPDEST PUSH1 0x0 PUSH1 0x20 DUP3 ADD SWAP1 POP PUSH2 0x17FC PUSH1 0x0 DUP4 ADD DUP5 PUSH2 0x14D1 JUMP JUMPDEST SWAP3 SWAP2 POP POP JUMP JUMPDEST PUSH1 0x0 PUSH1 0x20 DUP3 ADD SWAP1 POP DUP2 DUP2 SUB PUSH1 0x0 DUP4 ADD MSTORE PUSH2 0x181C DUP2 DUP5 PUSH2 0x1598 JUMP JUMPDEST SWAP1 POP SWAP3 SWAP2 POP POP JUMP JUMPDEST PUSH1 0x0 PUSH1 0x20 DUP3 ADD SWAP1 POP DUP2 DUP2 SUB PUSH1 0x0 DUP4 ADD MSTORE PUSH2 0x183D DUP2 PUSH2 0x15D1 JUMP JUMPDEST SWAP1 POP SWAP2 SWAP1 POP JUMP JUMPDEST PUSH1 0x0 PUSH1 0x20 DUP3 ADD SWAP1 POP DUP2 DUP2 SUB PUSH1 0x0 DUP4 ADD MSTORE PUSH2 0x185D DUP2 PUSH2 0x15F4 JUMP JUMPDEST SWAP1 POP SWAP2 SWAP1 POP JUMP JUMPDEST PUSH1 0x0 PUSH1 0x20 DUP3 ADD SWAP1 POP DUP2 DUP2 SUB PUSH1 0x0 DUP4 ADD MSTORE PUSH2 0x187D DUP2 PUSH2 0x1617 JUMP JUMPDEST SWAP1 POP SWAP2 SWAP1 POP JUMP JUMPDEST PUSH1 0x0 PUSH1 0x20 DUP3 ADD SWAP1 POP DUP2 DUP2 SUB PUSH1 0x0 DUP4 ADD MSTORE PUSH2 0x189D DUP2 PUSH2 0x163A JUMP JUMPDEST SWAP1 POP SWAP2 SWAP1 POP JUMP JUMPDEST PUSH1 0x0 PUSH1 0x20 DUP3 ADD SWAP1 POP DUP2 DUP2 SUB PUSH1 0x0 DUP4 ADD MSTORE PUSH2 0x18BD DUP2 PUSH2 0x165D JUMP JUMPDEST SWAP1 POP SWAP2 SWAP1 POP JUMP JUMPDEST PUSH1 0x0 PUSH1 0x20 DUP3 ADD SWAP1 POP DUP2 DUP2 SUB PUSH1 0x0 DUP4 ADD MSTORE PUSH2 0x18DD DUP2 PUSH2 0x1680 JUMP JUMPDEST SWAP1 POP SWAP2 SWAP1 POP JUMP JUMPDEST PUSH1 0x0 PUSH1 0x20 DUP3 ADD SWAP1 POP DUP2 DUP2 SUB PUSH1 0x0 DUP4 ADD MSTORE PUSH2 0x18FD DUP2 PUSH2 0x16A3 JUMP JUMPDEST SWAP1 POP SWAP2 SWAP1 POP JUMP JUMPDEST PUSH1 0x0 PUSH1 0x20 DUP3 ADD SWAP1 POP DUP2 DUP2 SUB PUSH1 0x0 DUP4 ADD MSTORE PUSH2 0x191D DUP2 PUSH2 0x16C6 JUMP JUMPDEST SWAP1 POP SWAP2 SWAP1 POP JUMP JUMPDEST PUSH1 0x0 PUSH1 0x20 DUP3 ADD SWAP1 POP DUP2 DUP2 SUB PUSH1 0x0 DUP4 ADD MSTORE PUSH2 0x193D DUP2 PUSH2 0x16E9 JUMP JUMPDEST SWAP1 POP SWAP2 SWAP1 POP JUMP JUMPDEST PUSH1 0x0 PUSH1 0x20 DUP3 ADD SWAP1 POP DUP2 DUP2 SUB PUSH1 0x0 DUP4 ADD MSTORE PUSH2 0x195D DUP2 PUSH2 0x170C JUMP JUMPDEST SWAP1 POP SWAP2 SWAP1 POP JUMP JUMPDEST PUSH1 0x0 PUSH1 0x20 DUP3 ADD SWAP1 POP DUP2 DUP2 SUB PUSH1 0x0 DUP4 ADD MSTORE PUSH2 0x197D DUP2 PUSH2 0x172F JUMP JUMPDEST SWAP1 POP SWAP2 SWAP1 POP JUMP JUMPDEST PUSH1 0x0 PUSH1 0x20 DUP3 ADD SWAP1 POP PUSH2 0x1999 PUSH1 0x0 DUP4 ADD DUP5 PUSH2 0x1761 JUMP JUMPDEST SWAP3 SWAP2 POP POP JUMP JUMPDEST PUSH1 0x0 PUSH2 0x19A9 PUSH2 0x19BA JUMP JUMPDEST SWAP1 POP PUSH2 0x19B5 DUP3 DUP3 PUSH2 0x1BC6 JUMP JUMPDEST SWAP2 SWAP1 POP JUMP JUMPDEST PUSH1 0x0 PUSH1 0x40 MLOAD SWAP1 POP SWAP1 JUMP JUMPDEST PUSH1 0x0 PUSH8 0xFFFFFFFFFFFFFFFF DUP3 GT ISZERO PUSH2 0x19DF JUMPI PUSH2 0x19DE PUSH2 0x1C9E JUMP JUMPDEST JUMPDEST PUSH2 0x19E8 DUP3 PUSH2 0x1CCD JUMP JUMPDEST SWAP1 POP PUSH1 0x20 DUP2 ADD SWAP1 POP SWAP2 SWAP1 POP JUMP JUMPDEST PUSH1 0x0 DUP2 SWAP1 POP PUSH1 0x20 DUP3 ADD SWAP1 POP SWAP2 SWAP1 POP JUMP JUMPDEST PUSH1 0x0 DUP2 SWAP1 POP PUSH1 0x20 DUP3 ADD SWAP1 POP SWAP2 SWAP1 POP JUMP JUMPDEST PUSH1 0x0 DUP2 SWAP1 POP DUP2 PUSH1 0x0 MSTORE PUSH1 0x20 PUSH1 0x0 KECCAK256 SWAP1 POP SWAP2 SWAP1 POP JUMP JUMPDEST PUSH1 0x0 DUP2 MLOAD SWAP1 POP SWAP2 SWAP1 POP JUMP JUMPDEST PUSH1 0x0 DUP2 MLOAD SWAP1 POP SWAP2 SWAP1 POP JUMP JUMPDEST PUSH1 0x0 DUP2 MLOAD SWAP1 POP SWAP2 SWAP1 POP JUMP JUMPDEST PUSH1 0x0 PUSH1 0x20 DUP3 ADD SWAP1 POP SWAP2 SWAP1 POP JUMP JUMPDEST PUSH1 0x0 PUSH1 0x20 DUP3 ADD SWAP1 POP SWAP2 SWAP1 POP JUMP JUMPDEST PUSH1 0x0 DUP3 DUP3 MSTORE PUSH1 0x20 DUP3 ADD SWAP1 POP SWAP3 SWAP2 POP POP JUMP JUMPDEST PUSH1 0x0 DUP3 DUP3 MSTORE PUSH1 0x20 DUP3 ADD SWAP1 POP SWAP3 SWAP2 POP POP JUMP JUMPDEST PUSH1 0x0 DUP2 SWAP1 POP SWAP3 SWAP2 POP POP JUMP JUMPDEST PUSH1 0x0 DUP3 DUP3 MSTORE PUSH1 0x20 DUP3 ADD SWAP1 POP SWAP3 SWAP2 POP POP JUMP JUMPDEST PUSH1 0x0 DUP3 DUP3 MSTORE PUSH1 0x20 DUP3 ADD SWAP1 POP SWAP3 SWAP2 POP POP JUMP JUMPDEST PUSH1 0x0 PUSH2 0x1ABF DUP3 PUSH2 0x1B48 JUMP JUMPDEST SWAP2 POP PUSH2 0x1ACA DUP4 PUSH2 0x1B48 JUMP JUMPDEST SWAP3 POP DUP3 PUSH32 0xFFFFFFFFFFFFFFFFFFFFFFFFFFFFFFFFFFFFFFFFFFFFFFFFFFFFFFFFFFFFFFFF SUB DUP3 GT ISZERO PUSH2 0x1AFF JUMPI PUSH2 0x1AFE PUSH2 0x1C40 JUMP JUMPDEST JUMPDEST DUP3 DUP3 ADD SWAP1 POP SWAP3 SWAP2 POP POP JUMP JUMPDEST PUSH1 0x0 PUSH2 0x1B15 DUP3 PUSH2 0x1B28 JUMP JUMPDEST SWAP1 POP SWAP2 SWAP1 POP JUMP JUMPDEST PUSH1 0x0 DUP2 ISZERO ISZERO SWAP1 POP SWAP2 SWAP1 POP JUMP JUMPDEST PUSH1 0x0 PUSH20 0xFFFFFFFFFFFFFFFFFFFFFFFFFFFFFFFFFFFFFFFF DUP3 AND SWAP1 POP SWAP2 SWAP1 POP JUMP JUMPDEST PUSH1 0x0 DUP2 SWAP1 POP SWAP2 SWAP1 POP JUMP JUMPDEST DUP3 DUP2 DUP4 CALLDATACOPY PUSH1 0x0 DUP4 DUP4 ADD MSTORE POP POP POP JUMP JUMPDEST PUSH1 0x0 JUMPDEST DUP4 DUP2 LT ISZERO PUSH2 0x1B7F JUMPI DUP1 DUP3 ADD MLOAD DUP2 DUP5 ADD MSTORE PUSH1 0x20 DUP2 ADD SWAP1 POP PUSH2 0x1B64 JUMP JUMPDEST DUP4 DUP2 GT ISZERO PUSH2 0x1B8E JUMPI PUSH1 0x0 DUP5 DUP5 ADD MSTORE JUMPDEST POP POP POP POP JUMP JUMPDEST PUSH1 0x0 PUSH1 0x2 DUP3 DIV SWAP1 POP PUSH1 0x1 DUP3 AND DUP1 PUSH2 0x1BAC JUMPI PUSH1 0x7F DUP3 AND SWAP2 POP JUMPDEST PUSH1 0x20 DUP3 LT DUP2 EQ ISZERO PUSH2 0x1BC0 JUMPI PUSH2 0x1BBF PUSH2 0x1C6F JUMP JUMPDEST JUMPDEST POP SWAP2 SWAP1 POP JUMP JUMPDEST PUSH2 0x1BCF DUP3 PUSH2 0x1CCD JUMP JUMPDEST DUP2 ADD DUP2 DUP2 LT PUSH8 0xFFFFFFFFFFFFFFFF DUP3 GT OR ISZERO PUSH2 0x1BEE JUMPI PUSH2 0x1BED PUSH2 0x1C9E JUMP JUMPDEST JUMPDEST DUP1 PUSH1 0x40 MSTORE POP POP POP JUMP JUMPDEST PUSH1 0x0 PUSH2 0x1C02 DUP3 PUSH2 0x1B48 JUMP JUMPDEST SWAP2 POP PUSH32 0xFFFFFFFFFFFFFFFFFFFFFFFFFFFFFFFFFFFFFFFFFFFFFFFFFFFFFFFFFFFFFFFF DUP3 EQ ISZERO PUSH2 0x1C35 JUMPI PUSH2 0x1C34 PUSH2 0x1C40 JUMP JUMPDEST JUMPDEST PUSH1 0x1 DUP3 ADD SWAP1 POP SWAP2 SWAP1 POP JUMP JUMPDEST PUSH32 0x4E487B7100000000000000000000000000000000000000000000000000000000 PUSH1 0x0 MSTORE PUSH1 0x11 PUSH1 0x4 MSTORE PUSH1 0x24 PUSH1 0x0 REVERT JUMPDEST PUSH32 0x4E487B7100000000000000000000000000000000000000000000000000000000 PUSH1 0x0 MSTORE PUSH1 0x22 PUSH1 0x4 MSTORE PUSH1 0x24 PUSH1 0x0 REVERT JUMPDEST PUSH32 0x4E487B7100000000000000000000000000000000000000000000000000000000 PUSH1 0x0 MSTORE PUSH1 0x41 PUSH1 0x4 MSTORE PUSH1 0x24 PUSH1 0x0 REVERT JUMPDEST PUSH1 0x0 PUSH1 0x1F NOT PUSH1 0x1F DUP4 ADD AND SWAP1 POP SWAP2 SWAP1 POP JUMP JUMPDEST PUSH32 0x75736572206167652062656C6F772031382063616E2774207265676973746572 PUSH1 0x0 DUP3 ADD MSTORE PUSH32 0x20666F722074686520766F746500000000000000000000000000000000000000 PUSH1 0x20 DUP3 ADD MSTORE POP JUMP JUMPDEST PUSH32 0x4E6F206F6E652068617320766F74656420796574000000000000000000000000 PUSH1 0x0 DUP3 ADD MSTORE POP JUMP JUMPDEST PUSH32 0x4E6F2063616E6469646174657320746F20766965770000000000000000000000 PUSH1 0x0 DUP3 ADD MSTORE POP JUMP JUMPDEST PUSH32 0x75736572206861736E277420766F746564207965740000000000000000000000 PUSH1 0x0 DUP3 ADD MSTORE POP JUMP JUMPDEST PUSH32 0x7468657265206973206E6F20636F6E74657374616E7420776974682074686973 PUSH1 0x0 DUP3 ADD MSTORE PUSH32 0x206E756D62657200000000000000000000000000000000000000000000000000 PUSH1 0x20 DUP3 ADD MSTORE POP JUMP JUMPDEST PUSH32 0x6E616D652068617320616C7265616479206265656E2061646465640000000000 PUSH1 0x0 DUP3 ADD MSTORE POP JUMP JUMPDEST PUSH32 0x74686520636F6E74726163742069732070617573656400000000000000000000 PUSH1 0x0 DUP3 ADD MSTORE POP JUMP JUMPDEST PUSH32 0x757365722068617320766F74656420616C726561647900000000000000000000 PUSH1 0x0 DUP3 ADD MSTORE POP JUMP JUMPDEST PUSH32 0x75736572206861736E2774207265676973746572656420796574000000000000 PUSH1 0x0 DUP3 ADD MSTORE POP JUMP JUMPDEST PUSH32 0x7573657220686173207265676973746572656400000000000000000000000000 PUSH1 0x0 DUP3 ADD MSTORE POP JUMP JUMPDEST PUSH32 0x4F6E6C79204F776E65722063616E2063616C6C20746869732066756E6374696F PUSH1 0x0 DUP3 ADD MSTORE PUSH32 0x6E00000000000000000000000000000000000000000000000000000000000000 PUSH1 0x20 DUP3 ADD MSTORE POP JUMP JUMPDEST PUSH2 0x1F1C DUP2 PUSH2 0x1B48 JUMP JUMPDEST DUP2 EQ PUSH2 0x1F27 JUMPI PUSH1 0x0 DUP1 REVERT JUMPDEST POP JUMP INVALID LOG2 PUSH5 0x6970667358 0x22 SLT KECCAK256 0xC2 0x5C 0xB5 0xDC PUSH23 0x23B42478D503C1234363ED7D016AEA0FCDD04CFEC7181C SLT 0xA9 0xD GASPRICE PUSH5 0x736F6C6343 STOP ADDMOD SUB STOP CALLER "
				},
				"gasEstimates": {
					"creation": {
						"codeDepositCost": "1606400",
						"executionCost": "43413",
						"totalCost": "1649813"
					},
					"external": {
						"addContestant(string)": "infinite",
						"candidateNo()": "1151",
						"isItPaused()": "1260",
						"pause()": "23104",
						"register(string,uint256)": "infinite",
						"revealWinner()": "infinite",
						"totalVotes()": "1152",
						"unpause()": "23105",
						"viewCandidates()": "infinite",
						"vote(uint256)": "infinite",
						"voterNo()": "1240",
						"whoDidIVoteFor()": "infinite"
					}
				},
				"methodIdentifiers": {
					"addContestant(string)": "832c0aca",
					"candidateNo()": "7aad8c80",
					"isItPaused()": "57df6ca3",
					"pause()": "8456cb59",
					"register(string,uint256)": "ea87152b",
					"revealWinner()": "6c699905",
					"totalVotes()": "0d15fd77",
					"unpause()": "3f4ba83a",
					"viewCandidates()": "d30f11dd",
					"vote(uint256)": "0121b93f",
					"voterNo()": "5b72565b",
					"whoDidIVoteFor()": "238488fd"
				}
			},
			"storageLayout": {
				"storage": [
					{
						"astId": 3,
						"contract": "contract/assignment3.sol:election",
						"label": "owner",
						"offset": 0,
						"slot": "0",
						"type": "t_address"
					},
					{
						"astId": 5,
						"contract": "contract/assignment3.sol:election",
						"label": "candidateNo",
						"offset": 0,
						"slot": "1",
						"type": "t_uint256"
					},
					{
						"astId": 7,
						"contract": "contract/assignment3.sol:election",
						"label": "voterNo",
						"offset": 0,
						"slot": "2",
						"type": "t_uint256"
					},
					{
						"astId": 10,
						"contract": "contract/assignment3.sol:election",
						"label": "candidateName",
						"offset": 0,
						"slot": "3",
						"type": "t_array(t_string_storage)dyn_storage"
					},
					{
						"astId": 12,
						"contract": "contract/assignment3.sol:election",
						"label": "isItPaused",
						"offset": 0,
						"slot": "4",
						"type": "t_bool"
					},
					{
						"astId": 14,
						"contract": "contract/assignment3.sol:election",
						"label": "totalVotes",
						"offset": 0,
						"slot": "5",
						"type": "t_uint256"
					},
					{
						"astId": 38,
						"contract": "contract/assignment3.sol:election",
						"label": "voters",
						"offset": 0,
						"slot": "6",
						"type": "t_array(t_struct(voter)34_storage)dyn_storage"
					},
					{
						"astId": 42,
						"contract": "contract/assignment3.sol:election",
						"label": "candidateById",
						"offset": 0,
						"slot": "7",
						"type": "t_mapping(t_uint256,t_string_storage)"
					},
					{
						"astId": 46,
						"contract": "contract/assignment3.sol:election",
						"label": "haveVoted",
						"offset": 0,
						"slot": "8",
						"type": "t_mapping(t_address,t_bool)"
					},
					{
						"astId": 50,
						"contract": "contract/assignment3.sol:election",
						"label": "haveRegistered",
						"offset": 0,
						"slot": "9",
						"type": "t_mapping(t_address,t_bool)"
					},
					{
						"astId": 54,
						"contract": "contract/assignment3.sol:election",
						"label": "candidateByVote",
						"offset": 0,
						"slot": "10",
						"type": "t_mapping(t_uint256,t_uint256)"
					},
					{
						"astId": 58,
						"contract": "contract/assignment3.sol:election",
						"label": "votersToCandidate",
						"offset": 0,
						"slot": "11",
						"type": "t_mapping(t_address,t_string_storage)"
					}
				],
				"types": {
					"t_address": {
						"encoding": "inplace",
						"label": "address",
						"numberOfBytes": "20"
					},
					"t_array(t_string_storage)dyn_storage": {
						"base": "t_string_storage",
						"encoding": "dynamic_array",
						"label": "string[]",
						"numberOfBytes": "32"
					},
					"t_array(t_struct(voter)34_storage)dyn_storage": {
						"base": "t_struct(voter)34_storage",
						"encoding": "dynamic_array",
						"label": "struct election.voter[]",
						"numberOfBytes": "32"
					},
					"t_bool": {
						"encoding": "inplace",
						"label": "bool",
						"numberOfBytes": "1"
					},
					"t_mapping(t_address,t_bool)": {
						"encoding": "mapping",
						"key": "t_address",
						"label": "mapping(address => bool)",
						"numberOfBytes": "32",
						"value": "t_bool"
					},
					"t_mapping(t_address,t_string_storage)": {
						"encoding": "mapping",
						"key": "t_address",
						"label": "mapping(address => string)",
						"numberOfBytes": "32",
						"value": "t_string_storage"
					},
					"t_mapping(t_uint256,t_string_storage)": {
						"encoding": "mapping",
						"key": "t_uint256",
						"label": "mapping(uint256 => string)",
						"numberOfBytes": "32",
						"value": "t_string_storage"
					},
					"t_mapping(t_uint256,t_uint256)": {
						"encoding": "mapping",
						"key": "t_uint256",
						"label": "mapping(uint256 => uint256)",
						"numberOfBytes": "32",
						"value": "t_uint256"
					},
					"t_string_storage": {
						"encoding": "bytes",
						"label": "string",
						"numberOfBytes": "32"
					},
					"t_struct(voter)34_storage": {
						"encoding": "inplace",
						"label": "struct election.voter",
						"members": [
							{
								"astId": 29,
								"contract": "contract/assignment3.sol:election",
								"label": "voterId",
								"offset": 0,
								"slot": "0",
								"type": "t_uint256"
							},
							{
								"astId": 31,
								"contract": "contract/assignment3.sol:election",
								"label": "voterName",
								"offset": 0,
								"slot": "1",
								"type": "t_string_storage"
							},
							{
								"astId": 33,
								"contract": "contract/assignment3.sol:election",
								"label": "age",
								"offset": 0,
								"slot": "2",
								"type": "t_uint256"
							}
						],
						"numberOfBytes": "96"
					},
					"t_uint256": {
						"encoding": "inplace",
						"label": "uint256",
						"numberOfBytes": "32"
					}
				}
			},
			"userdoc": {
				"kind": "user",
				"methods": {},
				"version": 1
			}
		}
	}
}