{
	"data": {
		"bytecode": {
			"linkReferences": {},
			"object": "608060405234801561001057600080fd5b50610443806100206000396000f3fe608060405234801561001057600080fd5b506004361061007d5760003560e01c8063a3f298561161005b578063a3f29856146100dc578063a95c9e8b146100fa578063e3bb1e3f14610118578063f24d686c146101365761007d565b8063255362131461008257806380f1c859146100a05780639c1f15e1146100be575b600080fd5b61008a610154565b60405161009791906102a7565b60405180910390f35b6100a8610174565b6040516100b591906102a7565b60405180910390f35b6100c6610194565b6040516100d391906102a7565b60405180910390f35b6100e46101d1565b6040516100f191906102a7565b60405180910390f35b6101026101f1565b60405161010f91906102a7565b60405180910390f35b61012061022e565b60405161012d91906102a7565b60405180910390f35b61013e61024e565b60405161014b91906102a7565b60405180910390f35b606060405180606001604052806038815260200161037160389139905090565b60606040518060600160405280602581526020016103e960259139905090565b60606040518060400160405280600681526020017f53637265616d0000000000000000000000000000000000000000000000000000815250905090565b60606040518060600160405280604081526020016103a960409139905090565b60606040518060400160405280601381526020017f616c77617973207761726d20626c6f6464656400000000000000000000000000815250905090565b606060405180606001604052806025815260200161034c60259139905090565b606060405180606001604052806022815260200161032a60229139905090565b6000610279826102c9565b61028381856102d4565b93506102938185602086016102e5565b61029c81610318565b840191505092915050565b600060208201905081810360008301526102c1818461026e565b905092915050565b600081519050919050565b600082825260208201905092915050565b60005b838110156103035780820151818401526020810190506102e8565b83811115610312576000848401525b50505050565b6000601f19601f830116905091905056fe636c696d62696e6720616e64207377696e67696e6720776974682034206c696d627374686520796f756e672061726520626f726e20616c6976652c206e6f742068617463686564616674657220626972746820746865206d6f7468657220666565642074686520796f756e672061726520666565642077697468206d696c6b746970206f66207461696c20686173207061746368206f6620736b696e206c696b652066696e6765727072696e7420666f7220696d70726f7665642067726970746865792068617665206861697273206f722066757273206f6e20746865697220626f6479a264697066735822122009c7279710f1a105758a1eaabfe1e176b1faf781c26f764a67a0f1a41cb3678364736f6c63430008030033",
			"opcodes": "PUSH1 0x80 PUSH1 0x40 MSTORE CALLVALUE DUP1 ISZERO PUSH2 0x10 JUMPI PUSH1 0x0 DUP1 REVERT JUMPDEST POP PUSH2 0x443 DUP1 PUSH2 0x20 PUSH1 0x0 CODECOPY PUSH1 0x0 RETURN INVALID PUSH1 0x80 PUSH1 0x40 MSTORE CALLVALUE DUP1 ISZERO PUSH2 0x10 JUMPI PUSH1 0x0 DUP1 REVERT JUMPDEST POP PUSH1 0x4 CALLDATASIZE LT PUSH2 0x7D JUMPI PUSH1 0x0 CALLDATALOAD PUSH1 0xE0 SHR DUP1 PUSH4 0xA3F29856 GT PUSH2 0x5B JUMPI DUP1 PUSH4 0xA3F29856 EQ PUSH2 0xDC JUMPI DUP1 PUSH4 0xA95C9E8B EQ PUSH2 0xFA JUMPI DUP1 PUSH4 0xE3BB1E3F EQ PUSH2 0x118 JUMPI DUP1 PUSH4 0xF24D686C EQ PUSH2 0x136 JUMPI PUSH2 0x7D JUMP JUMPDEST DUP1 PUSH4 0x25536213 EQ PUSH2 0x82 JUMPI DUP1 PUSH4 0x80F1C859 EQ PUSH2 0xA0 JUMPI DUP1 PUSH4 0x9C1F15E1 EQ PUSH2 0xBE JUMPI JUMPDEST PUSH1 0x0 DUP1 REVERT JUMPDEST PUSH2 0x8A PUSH2 0x154 JUMP JUMPDEST PUSH1 0x40 MLOAD PUSH2 0x97 SWAP2 SWAP1 PUSH2 0x2A7 JUMP JUMPDEST PUSH1 0x40 MLOAD DUP1 SWAP2 SUB SWAP1 RETURN JUMPDEST PUSH2 0xA8 PUSH2 0x174 JUMP JUMPDEST PUSH1 0x40 MLOAD PUSH2 0xB5 SWAP2 SWAP1 PUSH2 0x2A7 JUMP JUMPDEST PUSH1 0x40 MLOAD DUP1 SWAP2 SUB SWAP1 RETURN JUMPDEST PUSH2 0xC6 PUSH2 0x194 JUMP JUMPDEST PUSH1 0x40 MLOAD PUSH2 0xD3 SWAP2 SWAP1 PUSH2 0x2A7 JUMP JUMPDEST PUSH1 0x40 MLOAD DUP1 SWAP2 SUB SWAP1 RETURN JUMPDEST PUSH2 0xE4 PUSH2 0x1D1 JUMP JUMPDEST PUSH1 0x40 MLOAD PUSH2 0xF1 SWAP2 SWAP1 PUSH2 0x2A7 JUMP JUMPDEST PUSH1 0x40 MLOAD DUP1 SWAP2 SUB SWAP1 RETURN JUMPDEST PUSH2 0x102 PUSH2 0x1F1 JUMP JUMPDEST PUSH1 0x40 MLOAD PUSH2 0x10F SWAP2 SWAP1 PUSH2 0x2A7 JUMP JUMPDEST PUSH1 0x40 MLOAD DUP1 SWAP2 SUB SWAP1 RETURN JUMPDEST PUSH2 0x120 PUSH2 0x22E JUMP JUMPDEST PUSH1 0x40 MLOAD PUSH2 0x12D SWAP2 SWAP1 PUSH2 0x2A7 JUMP JUMPDEST PUSH1 0x40 MLOAD DUP1 SWAP2 SUB SWAP1 RETURN JUMPDEST PUSH2 0x13E PUSH2 0x24E JUMP JUMPDEST PUSH1 0x40 MLOAD PUSH2 0x14B SWAP2 SWAP1 PUSH2 0x2A7 JUMP JUMPDEST PUSH1 0x40 MLOAD DUP1 SWAP2 SUB SWAP1 RETURN JUMPDEST PUSH1 0x60 PUSH1 0x40 MLOAD DUP1 PUSH1 0x60 ADD PUSH1 0x40 MSTORE DUP1 PUSH1 0x38 DUP2 MSTORE PUSH1 0x20 ADD PUSH2 0x371 PUSH1 0x38 SWAP2 CODECOPY SWAP1 POP SWAP1 JUMP JUMPDEST PUSH1 0x60 PUSH1 0x40 MLOAD DUP1 PUSH1 0x60 ADD PUSH1 0x40 MSTORE DUP1 PUSH1 0x25 DUP2 MSTORE PUSH1 0x20 ADD PUSH2 0x3E9 PUSH1 0x25 SWAP2 CODECOPY SWAP1 POP SWAP1 JUMP JUMPDEST PUSH1 0x60 PUSH1 0x40 MLOAD DUP1 PUSH1 0x40 ADD PUSH1 0x40 MSTORE DUP1 PUSH1 0x6 DUP2 MSTORE PUSH1 0x20 ADD PUSH32 0x53637265616D0000000000000000000000000000000000000000000000000000 DUP2 MSTORE POP SWAP1 POP SWAP1 JUMP JUMPDEST PUSH1 0x60 PUSH1 0x40 MLOAD DUP1 PUSH1 0x60 ADD PUSH1 0x40 MSTORE DUP1 PUSH1 0x40 DUP2 MSTORE PUSH1 0x20 ADD PUSH2 0x3A9 PUSH1 0x40 SWAP2 CODECOPY SWAP1 POP SWAP1 JUMP JUMPDEST PUSH1 0x60 PUSH1 0x40 MLOAD DUP1 PUSH1 0x40 ADD PUSH1 0x40 MSTORE DUP1 PUSH1 0x13 DUP2 MSTORE PUSH1 0x20 ADD PUSH32 0x616C77617973207761726D20626C6F6464656400000000000000000000000000 DUP2 MSTORE POP SWAP1 POP SWAP1 JUMP JUMPDEST PUSH1 0x60 PUSH1 0x40 MLOAD DUP1 PUSH1 0x60 ADD PUSH1 0x40 MSTORE DUP1 PUSH1 0x25 DUP2 MSTORE PUSH1 0x20 ADD PUSH2 0x34C PUSH1 0x25 SWAP2 CODECOPY SWAP1 POP SWAP1 JUMP JUMPDEST PUSH1 0x60 PUSH1 0x40 MLOAD DUP1 PUSH1 0x60 ADD PUSH1 0x40 MSTORE DUP1 PUSH1 0x22 DUP2 MSTORE PUSH1 0x20 ADD PUSH2 0x32A PUSH1 0x22 SWAP2 CODECOPY SWAP1 POP SWAP1 JUMP JUMPDEST PUSH1 0x0 PUSH2 0x279 DUP3 PUSH2 0x2C9 JUMP JUMPDEST PUSH2 0x283 DUP2 DUP6 PUSH2 0x2D4 JUMP JUMPDEST SWAP4 POP PUSH2 0x293 DUP2 DUP6 PUSH1 0x20 DUP7 ADD PUSH2 0x2E5 JUMP JUMPDEST PUSH2 0x29C DUP2 PUSH2 0x318 JUMP JUMPDEST DUP5 ADD SWAP2 POP POP SWAP3 SWAP2 POP POP JUMP JUMPDEST PUSH1 0x0 PUSH1 0x20 DUP3 ADD SWAP1 POP DUP2 DUP2 SUB PUSH1 0x0 DUP4 ADD MSTORE PUSH2 0x2C1 DUP2 DUP5 PUSH2 0x26E JUMP JUMPDEST SWAP1 POP SWAP3 SWAP2 POP POP JUMP JUMPDEST PUSH1 0x0 DUP2 MLOAD SWAP1 POP SWAP2 SWAP1 POP JUMP JUMPDEST PUSH1 0x0 DUP3 DUP3 MSTORE PUSH1 0x20 DUP3 ADD SWAP1 POP SWAP3 SWAP2 POP POP JUMP JUMPDEST PUSH1 0x0 JUMPDEST DUP4 DUP2 LT ISZERO PUSH2 0x303 JUMPI DUP1 DUP3 ADD MLOAD DUP2 DUP5 ADD MSTORE PUSH1 0x20 DUP2 ADD SWAP1 POP PUSH2 0x2E8 JUMP JUMPDEST DUP4 DUP2 GT ISZERO PUSH2 0x312 JUMPI PUSH1 0x0 DUP5 DUP5 ADD MSTORE JUMPDEST POP POP POP POP JUMP JUMPDEST PUSH1 0x0 PUSH1 0x1F NOT PUSH1 0x1F DUP4 ADD AND SWAP1 POP SWAP2 SWAP1 POP JUMP INVALID PUSH4 0x6C696D62 PUSH10 0x6E6720616E6420737769 PUSH15 0x67696E6720776974682034206C696D PUSH3 0x737468 PUSH6 0x20796F756E67 KECCAK256 PUSH2 0x7265 KECCAK256 PUSH3 0x6F726E KECCAK256 PUSH2 0x6C69 PUSH23 0x652C206E6F742068617463686564616674657220626972 PUSH21 0x6820746865206D6F74686572206665656420746865 KECCAK256 PUSH26 0x6F756E672061726520666565642077697468206D696C6B746970 KECCAK256 PUSH16 0x66207461696C20686173207061746368 KECCAK256 PUSH16 0x6620736B696E206C696B652066696E67 PUSH6 0x727072696E74 KECCAK256 PUSH7 0x6F7220696D7072 PUSH16 0x76656420677269707468657920686176 PUSH6 0x206861697273 KECCAK256 PUSH16 0x722066757273206F6E20746865697220 PUSH3 0x6F6479 LOG2 PUSH5 0x6970667358 0x22 SLT KECCAK256 MULMOD 0xC7 0x27 SWAP8 LT CALL LOG1 SDIV PUSH22 0x8A1EAABFE1E176B1FAF781C26F764A67A0F1A41CB367 DUP4 PUSH5 0x736F6C6343 STOP ADDMOD SUB STOP CALLER "
		},
		"gasEstimates": {
			"creation": {
				"codeDepositCost": "218200",
				"executionCost": "263",
				"totalCost": "218463"
			},
			"external": {
				"Sound()": "infinite",
				"feeding()": "infinite",
				"fifthLimb()": "infinite",
				"hairy()": "infinite",
				"movement()": "infinite",
				"reproduction()": "infinite",
				"warmBlodded()": "infinite"
			}
		},
		"methodIdentifiers": {
			"Sound()": "9c1f15e1",
			"feeding()": "25536213",
			"fifthLimb()": "a3f29856",
			"hairy()": "80f1c859",
			"movement()": "f24d686c",
			"reproduction()": "e3bb1e3f",
			"warmBlodded()": "a95c9e8b"
		}
	},
	"abi": [
		{
			"inputs": [],
			"name": "Sound",
			"outputs": [
				{
					"internalType": "string",
					"name": "",
					"type": "string"
				}
			],
			"stateMutability": "pure",
			"type": "function"
		},
		{
			"inputs": [],
			"name": "feeding",
			"outputs": [
				{
					"internalType": "string",
					"name": "",
					"type": "string"
				}
			],
			"stateMutability": "pure",
			"type": "function"
		},
		{
			"inputs": [],
			"name": "fifthLimb",
			"outputs": [
				{
					"internalType": "string",
					"name": "",
					"type": "string"
				}
			],
			"stateMutability": "pure",
			"type": "function"
		},
		{
			"inputs": [],
			"name": "hairy",
			"outputs": [
				{
					"internalType": "string",
					"name": "",
					"type": "string"
				}
			],
			"stateMutability": "pure",
			"type": "function"
		},
		{
			"inputs": [],
			"name": "movement",
			"outputs": [
				{
					"internalType": "string",
					"name": "",
					"type": "string"
				}
			],
			"stateMutability": "pure",
			"type": "function"
		},
		{
			"inputs": [],
			"name": "reproduction",
			"outputs": [
				{
					"internalType": "string",
					"name": "",
					"type": "string"
				}
			],
			"stateMutability": "pure",
			"type": "function"
		},
		{
			"inputs": [],
			"name": "warmBlodded",
			"outputs": [
				{
					"internalType": "string",
					"name": "",
					"type": "string"
				}
			],
			"stateMutability": "pure",
			"type": "function"
		}
	]
}